{
	"contracts/token.sol": {
		"JVCToken": {
			"abi": [
				{
					"inputs": [],
					"stateMutability": "nonpayable",
					"type": "constructor"
				},
				{
					"inputs": [
						{
							"internalType": "address",
							"name": "owner",
							"type": "address"
						}
					],
					"name": "OwnableInvalidOwner",
					"type": "error"
				},
				{
					"inputs": [
						{
							"internalType": "address",
							"name": "account",
							"type": "address"
						}
					],
					"name": "OwnableUnauthorizedAccount",
					"type": "error"
				},
				{
					"anonymous": false,
					"inputs": [
						{
							"indexed": true,
							"internalType": "address",
							"name": "previousOwner",
							"type": "address"
						},
						{
							"indexed": true,
							"internalType": "address",
							"name": "newOwner",
							"type": "address"
						}
					],
					"name": "OwnershipTransferred",
					"type": "event"
				},
				{
					"anonymous": false,
					"inputs": [
						{
							"indexed": true,
							"internalType": "address",
							"name": "_from",
							"type": "address"
						},
						{
							"indexed": true,
							"internalType": "address",
							"name": "_to",
							"type": "address"
						},
						{
							"indexed": false,
							"internalType": "uint256",
							"name": "_value",
							"type": "uint256"
						}
					],
					"name": "Transfer",
					"type": "event"
				},
				{
					"inputs": [
						{
							"internalType": "address",
							"name": "account",
							"type": "address"
						},
						{
							"internalType": "uint256",
							"name": "value",
							"type": "uint256"
						}
					],
					"name": "burn",
					"outputs": [],
					"stateMutability": "nonpayable",
					"type": "function"
				},
				{
					"inputs": [
						{
							"internalType": "address",
							"name": "_owner",
							"type": "address"
						}
					],
					"name": "checkBalanceOf",
					"outputs": [
						{
							"internalType": "uint256",
							"name": "balance",
							"type": "uint256"
						}
					],
					"stateMutability": "view",
					"type": "function"
				},
				{
					"inputs": [],
					"name": "decimals",
					"outputs": [
						{
							"internalType": "uint8",
							"name": "",
							"type": "uint8"
						}
					],
					"stateMutability": "view",
					"type": "function"
				},
				{
					"inputs": [
						{
							"internalType": "address",
							"name": "account",
							"type": "address"
						},
						{
							"internalType": "uint256",
							"name": "value",
							"type": "uint256"
						}
					],
					"name": "mint",
					"outputs": [],
					"stateMutability": "nonpayable",
					"type": "function"
				},
				{
					"inputs": [],
					"name": "name",
					"outputs": [
						{
							"internalType": "string",
							"name": "",
							"type": "string"
						}
					],
					"stateMutability": "view",
					"type": "function"
				},
				{
					"inputs": [],
					"name": "owner",
					"outputs": [
						{
							"internalType": "address",
							"name": "",
							"type": "address"
						}
					],
					"stateMutability": "view",
					"type": "function"
				},
				{
					"inputs": [],
					"name": "symbol",
					"outputs": [
						{
							"internalType": "string",
							"name": "",
							"type": "string"
						}
					],
					"stateMutability": "view",
					"type": "function"
				},
				{
					"inputs": [],
					"name": "tokenInfo",
					"outputs": [
						{
							"internalType": "uint256",
							"name": "",
							"type": "uint256"
						},
						{
							"internalType": "string",
							"name": "",
							"type": "string"
						},
						{
							"internalType": "string",
							"name": "",
							"type": "string"
						},
						{
							"internalType": "uint256",
							"name": "",
							"type": "uint256"
						}
					],
					"stateMutability": "nonpayable",
					"type": "function"
				},
				{
					"inputs": [],
					"name": "totalSupply",
					"outputs": [
						{
							"internalType": "uint256",
							"name": "",
							"type": "uint256"
						}
					],
					"stateMutability": "view",
					"type": "function"
				},
				{
					"inputs": [
						{
							"internalType": "address",
							"name": "_to",
							"type": "address"
						},
						{
							"internalType": "uint256",
							"name": "_value",
							"type": "uint256"
						}
					],
					"name": "transfer",
					"outputs": [
						{
							"internalType": "bool",
							"name": "success",
							"type": "bool"
						}
					],
					"stateMutability": "nonpayable",
					"type": "function"
				},
				{
					"inputs": [
						{
							"internalType": "address",
							"name": "newOwner",
							"type": "address"
						}
					],
					"name": "transferOwnership",
					"outputs": [],
					"stateMutability": "nonpayable",
					"type": "function"
				}
			],
			"devdoc": {
				"errors": {
					"OwnableInvalidOwner(address)": [
						{
							"details": "The owner is not a valid owner account. (eg. `address(0)`)"
						}
					],
					"OwnableUnauthorizedAccount(address)": [
						{
							"details": "The caller account is not authorized to perform an operation."
						}
					]
				},
				"kind": "dev",
				"methods": {
					"owner()": {
						"details": "Returns the address of the current owner."
					},
					"transferOwnership(address)": {
						"details": "Transfers ownership of the contract to a new account (`newOwner`). Can only be called by the current owner."
					}
				},
				"version": 1
			},
			"evm": {
				"assembly": "    /* \"contracts/token.sol\":284:2460  contract JVCToken is Ownable {... */\n  mstore(0x40, 0x80)\n    /* \"contracts/token.sol\":544:743  constructor() Ownable(msg.sender){... */\n  callvalue\n  dup1\n  iszero\n  tag_1\n  jumpi\n  0x00\n  dup1\n  revert\ntag_1:\n  pop\n    /* \"contracts/token.sol\":566:576  msg.sender */\n  caller\n  dup1\n    /* \"@openzeppelin/contracts/access/Ownable.sol\":1269:1364  if (initialOwner == address(0)) {... */\n  tag_5\n  jumpi\n    /* \"@openzeppelin/contracts/access/Ownable.sol\":1322:1353  OwnableInvalidOwner(address(0)) */\n  mload(0x40)\n  shl(0xe0, 0x1e4fbdf7)\n  dup2\n  mstore\n    /* \"@openzeppelin/contracts/access/Ownable.sol\":1350:1351  0 */\n  0x00\n    /* \"@openzeppelin/contracts/access/Ownable.sol\":1322:1353  OwnableInvalidOwner(address(0)) */\n  0x04\n  dup3\n  add\n    /* \"#utility.yul\":160:211   */\n  mstore\n    /* \"#utility.yul\":133:151   */\n  0x24\n  add\n    /* \"@openzeppelin/contracts/access/Ownable.sol\":1322:1353  OwnableInvalidOwner(address(0)) */\n  mload(0x40)\n  dup1\n  swap2\n  sub\n  swap1\n  revert\n    /* \"@openzeppelin/contracts/access/Ownable.sol\":1269:1364  if (initialOwner == address(0)) {... */\ntag_5:\n    /* \"@openzeppelin/contracts/access/Ownable.sol\":1373:1405  _transferOwnership(initialOwner) */\n  tag_8\n    /* \"@openzeppelin/contracts/access/Ownable.sol\":1392:1404  initialOwner */\n  dup2\n    /* \"@openzeppelin/contracts/access/Ownable.sol\":1373:1391  _transferOwnership */\n  tag_9\n    /* \"@openzeppelin/contracts/access/Ownable.sol\":1373:1405  _transferOwnership(initialOwner) */\n  jump\t// in\ntag_8:\n  pop\n    /* \"contracts/token.sol\":597:607  msg.sender */\n  caller\n    /* \"contracts/token.sol\":588:608  balances[msg.sender] */\n  0x00\n  swap1\n  dup2\n  mstore\n    /* \"contracts/token.sol\":588:596  balances */\n  0x01\n    /* \"contracts/token.sol\":588:608  balances[msg.sender] */\n  0x20\n  swap1\n  dup2\n  mstore\n  0x40\n  swap2\n  dup3\n  swap1\n  keccak256\n    /* \"contracts/token.sol\":611:613  10 */\n  0x0a\n    /* \"contracts/token.sol\":588:613  balances[msg.sender] = 10 */\n  swap1\n  dup2\n  swap1\n  sstore\n    /* \"contracts/token.sol\":624:635  totalSupply */\n  0x02\n    /* \"contracts/token.sol\":624:658  totalSupply = balances[msg.sender] */\n  sstore\n    /* \"contracts/token.sol\":669:686  name = \"JVCToken\" */\n  dup2\n  mload\n  dup1\n  dup4\n  add\n  swap1\n  swap3\n  mstore\n  0x08\n  dup3\n  mstore\n  shl(0xc1, 0x252b21aa37b5b2b7)\n  swap1\n  dup3\n  add\n  mstore\n    /* \"contracts/token.sol\":669:673  name */\n  0x03\n  swap1\n    /* \"contracts/token.sol\":669:686  name = \"JVCToken\" */\n  tag_11\n  swap1\n    /* \"contracts/token.sol\":669:673  name */\n  dup3\n    /* \"contracts/token.sol\":669:686  name = \"JVCToken\" */\n  tag_12\n  jump\t// in\ntag_11:\n  pop\n    /* \"contracts/token.sol\":697:705  decimals */\n  0x04\n    /* \"contracts/token.sol\":697:710  decimals = 18 */\n  dup1\n  sload\n  not(0xff)\n  and\n    /* \"contracts/token.sol\":708:710  18 */\n  0x12\n    /* \"contracts/token.sol\":697:710  decimals = 18 */\n  or\n  swap1\n  sstore\n    /* \"contracts/token.sol\":721:735  symbol = \"JVC\" */\n  0x40\n  dup1\n  mload\n  dup1\n  dup3\n  add\n  swap1\n  swap2\n  mstore\n  0x03\n  dup2\n  mstore\n  shl(0xe8, 0x4a5643)\n  0x20\n  dup3\n  add\n  mstore\n    /* \"contracts/token.sol\":721:727  symbol */\n  0x05\n  swap1\n    /* \"contracts/token.sol\":721:735  symbol = \"JVC\" */\n  tag_13\n  swap1\n    /* \"contracts/token.sol\":721:727  symbol */\n  dup3\n    /* \"contracts/token.sol\":721:735  symbol = \"JVC\" */\n  tag_12\n  jump\t// in\ntag_13:\n  pop\n    /* \"contracts/token.sol\":284:2460  contract JVCToken is Ownable {... */\n  jump(tag_21)\n    /* \"@openzeppelin/contracts/access/Ownable.sol\":2921:3108  function _transferOwnership(address newOwner) internal virtual {... */\ntag_9:\n    /* \"@openzeppelin/contracts/access/Ownable.sol\":2994:3010  address oldOwner */\n  0x00\n    /* \"@openzeppelin/contracts/access/Ownable.sol\":3013:3019  _owner */\n  dup1\n  sload\n  sub(shl(0xa0, 0x01), 0x01)\n    /* \"@openzeppelin/contracts/access/Ownable.sol\":3029:3046  _owner = newOwner */\n  dup4\n  dup2\n  and\n  not(sub(shl(0xa0, 0x01), 0x01))\n  dup4\n  and\n  dup2\n  or\n  dup5\n  sstore\n    /* \"@openzeppelin/contracts/access/Ownable.sol\":3061:3101  OwnershipTransferred(oldOwner, newOwner) */\n  mload(0x40)\n    /* \"@openzeppelin/contracts/access/Ownable.sol\":3013:3019  _owner */\n  swap2\n  swap1\n  swap3\n  and\n  swap3\n  dup4\n  swap2\n    /* \"@openzeppelin/contracts/access/Ownable.sol\":3061:3101  OwnershipTransferred(oldOwner, newOwner) */\n  0x8be0079c531659141344cd1fd0a4f28419497f9722a3daafe3b4186f6b6457e0\n  swap2\n    /* \"@openzeppelin/contracts/access/Ownable.sol\":2994:3010  address oldOwner */\n  swap1\n    /* \"@openzeppelin/contracts/access/Ownable.sol\":3061:3101  OwnershipTransferred(oldOwner, newOwner) */\n  log3\n    /* \"@openzeppelin/contracts/access/Ownable.sol\":2984:3108  {... */\n  pop\n    /* \"@openzeppelin/contracts/access/Ownable.sol\":2921:3108  function _transferOwnership(address newOwner) internal virtual {... */\n  pop\n  jump\t// out\n    /* \"#utility.yul\":222:349   */\ntag_16:\n    /* \"#utility.yul\":283:293   */\n  0x4e487b71\n    /* \"#utility.yul\":278:281   */\n  0xe0\n    /* \"#utility.yul\":274:294   */\n  shl\n    /* \"#utility.yul\":271:272   */\n  0x00\n    /* \"#utility.yul\":264:295   */\n  mstore\n    /* \"#utility.yul\":314:318   */\n  0x41\n    /* \"#utility.yul\":311:312   */\n  0x04\n    /* \"#utility.yul\":304:319   */\n  mstore\n    /* \"#utility.yul\":338:342   */\n  0x24\n    /* \"#utility.yul\":335:336   */\n  0x00\n    /* \"#utility.yul\":328:343   */\n  revert\n    /* \"#utility.yul\":354:734   */\ntag_17:\n    /* \"#utility.yul\":433:434   */\n  0x01\n    /* \"#utility.yul\":429:441   */\n  dup2\n  dup2\n  shr\n  swap1\n    /* \"#utility.yul\":476:488   */\n  dup3\n  and\n  dup1\n    /* \"#utility.yul\":497:558   */\n  tag_25\n  jumpi\n    /* \"#utility.yul\":551:555   */\n  0x7f\n    /* \"#utility.yul\":543:549   */\n  dup3\n    /* \"#utility.yul\":539:556   */\n  and\n    /* \"#utility.yul\":529:556   */\n  swap2\n  pop\n    /* \"#utility.yul\":497:558   */\ntag_25:\n    /* \"#utility.yul\":604:606   */\n  0x20\n    /* \"#utility.yul\":596:602   */\n  dup3\n    /* \"#utility.yul\":593:607   */\n  lt\n    /* \"#utility.yul\":573:591   */\n  dup2\n    /* \"#utility.yul\":570:608   */\n  sub\n    /* \"#utility.yul\":567:728   */\n  tag_26\n  jumpi\n    /* \"#utility.yul\":650:660   */\n  0x4e487b71\n    /* \"#utility.yul\":645:648   */\n  0xe0\n    /* \"#utility.yul\":641:661   */\n  shl\n    /* \"#utility.yul\":638:639   */\n  0x00\n    /* \"#utility.yul\":631:662   */\n  mstore\n    /* \"#utility.yul\":685:689   */\n  0x22\n    /* \"#utility.yul\":682:683   */\n  0x04\n    /* \"#utility.yul\":675:690   */\n  mstore\n    /* \"#utility.yul\":713:717   */\n  0x24\n    /* \"#utility.yul\":710:711   */\n  0x00\n    /* \"#utility.yul\":703:718   */\n  revert\n    /* \"#utility.yul\":567:728   */\ntag_26:\n  pop\n    /* \"#utility.yul\":354:734   */\n  swap2\n  swap1\n  pop\n  jump\t// out\n    /* \"#utility.yul\":865:1383   */\ntag_19:\n    /* \"#utility.yul\":967:969   */\n  0x1f\n    /* \"#utility.yul\":962:965   */\n  dup3\n    /* \"#utility.yul\":959:970   */\n  gt\n    /* \"#utility.yul\":956:1377   */\n  iszero\n  tag_29\n  jumpi\n    /* \"#utility.yul\":1003:1008   */\n  dup1\n    /* \"#utility.yul\":1000:1001   */\n  0x00\n    /* \"#utility.yul\":993:1009   */\n  mstore\n    /* \"#utility.yul\":1047:1051   */\n  0x20\n    /* \"#utility.yul\":1044:1045   */\n  0x00\n    /* \"#utility.yul\":1034:1052   */\n  keccak256\n    /* \"#utility.yul\":1117:1119   */\n  0x1f\n    /* \"#utility.yul\":1105:1115   */\n  dup5\n    /* \"#utility.yul\":1101:1120   */\n  add\n    /* \"#utility.yul\":1098:1099   */\n  0x05\n    /* \"#utility.yul\":1094:1121   */\n  shr\n    /* \"#utility.yul\":1088:1092   */\n  dup2\n    /* \"#utility.yul\":1084:1122   */\n  add\n    /* \"#utility.yul\":1153:1157   */\n  0x20\n    /* \"#utility.yul\":1141:1151   */\n  dup6\n    /* \"#utility.yul\":1138:1158   */\n  lt\n    /* \"#utility.yul\":1135:1182   */\n  iszero\n  tag_30\n  jumpi\n  pop\n    /* \"#utility.yul\":1176:1180   */\n  dup1\n    /* \"#utility.yul\":1135:1182   */\ntag_30:\n    /* \"#utility.yul\":1231:1233   */\n  0x1f\n    /* \"#utility.yul\":1226:1229   */\n  dup5\n    /* \"#utility.yul\":1222:1234   */\n  add\n    /* \"#utility.yul\":1219:1220   */\n  0x05\n    /* \"#utility.yul\":1215:1235   */\n  shr\n    /* \"#utility.yul\":1209:1213   */\n  dup3\n    /* \"#utility.yul\":1205:1236   */\n  add\n    /* \"#utility.yul\":1195:1236   */\n  swap2\n  pop\n    /* \"#utility.yul\":1286:1367   */\ntag_31:\n    /* \"#utility.yul\":1304:1306   */\n  dup2\n    /* \"#utility.yul\":1297:1302   */\n  dup2\n    /* \"#utility.yul\":1294:1307   */\n  lt\n    /* \"#utility.yul\":1286:1367   */\n  iszero\n  tag_33\n  jumpi\n    /* \"#utility.yul\":1363:1364   */\n  0x00\n    /* \"#utility.yul\":1349:1365   */\n  dup2\n  sstore\n    /* \"#utility.yul\":1330:1331   */\n  0x01\n    /* \"#utility.yul\":1319:1332   */\n  add\n    /* \"#utility.yul\":1286:1367   */\n  jump(tag_31)\ntag_33:\n    /* \"#utility.yul\":1290:1293   */\n  pop\n  pop\n    /* \"#utility.yul\":956:1377   */\ntag_29:\n    /* \"#utility.yul\":865:1383   */\n  pop\n  pop\n  pop\n  jump\t// out\n    /* \"#utility.yul\":1559:2858   */\ntag_12:\n    /* \"#utility.yul\":1679:1689   */\n  dup2\n  mload\n  sub(shl(0x40, 0x01), 0x01)\n    /* \"#utility.yul\":1701:1731   */\n  dup2\n  gt\n    /* \"#utility.yul\":1698:1754   */\n  iszero\n  tag_37\n  jumpi\n    /* \"#utility.yul\":1734:1752   */\n  tag_37\n  tag_16\n  jump\t// in\ntag_37:\n    /* \"#utility.yul\":1763:1860   */\n  tag_38\n    /* \"#utility.yul\":1853:1859   */\n  dup2\n    /* \"#utility.yul\":1813:1851   */\n  tag_39\n    /* \"#utility.yul\":1845:1849   */\n  dup5\n    /* \"#utility.yul\":1839:1850   */\n  sload\n    /* \"#utility.yul\":1813:1851   */\n  tag_17\n  jump\t// in\ntag_39:\n    /* \"#utility.yul\":1807:1811   */\n  dup5\n    /* \"#utility.yul\":1763:1860   */\n  tag_19\n  jump\t// in\ntag_38:\n    /* \"#utility.yul\":1909:1913   */\n  0x20\n    /* \"#utility.yul\":1940:1942   */\n  0x1f\n    /* \"#utility.yul\":1929:1943   */\n  dup3\n  gt\n    /* \"#utility.yul\":1957:1958   */\n  0x01\n    /* \"#utility.yul\":1952:2601   */\n  dup2\n  eq\n  tag_41\n  jumpi\n    /* \"#utility.yul\":2645:2646   */\n  0x00\n    /* \"#utility.yul\":2662:2668   */\n  dup4\n    /* \"#utility.yul\":2659:2748   */\n  iszero\n  tag_42\n  jumpi\n  pop\n    /* \"#utility.yul\":2714:2733   */\n  dup5\n  dup3\n  add\n    /* \"#utility.yul\":2708:2734   */\n  mload\n    /* \"#utility.yul\":2659:2748   */\ntag_42:\n  not(0x00)\n    /* \"#utility.yul\":1516:1517   */\n  0x03\n    /* \"#utility.yul\":1512:1523   */\n  dup6\n  swap1\n  shl\n    /* \"#utility.yul\":1508:1532   */\n  shr\n    /* \"#utility.yul\":1504:1533   */\n  not\n    /* \"#utility.yul\":1494:1534   */\n  and\n    /* \"#utility.yul\":1540:1541   */\n  0x01\n    /* \"#utility.yul\":1536:1547   */\n  dup5\n  swap1\n  shl\n    /* \"#utility.yul\":1491:1548   */\n  or\n    /* \"#utility.yul\":2761:2842   */\n  dup5\n  sstore\n    /* \"#utility.yul\":1922:2852   */\n  jump(tag_33)\n    /* \"#utility.yul\":1952:2601   */\ntag_41:\n    /* \"#utility.yul\":812:813   */\n  0x00\n    /* \"#utility.yul\":805:819   */\n  dup5\n  dup2\n  mstore\n    /* \"#utility.yul\":849:853   */\n  0x20\n    /* \"#utility.yul\":836:854   */\n  dup2\n  keccak256\n  not(0x1f)\n    /* \"#utility.yul\":1988:2008   */\n  dup6\n  and\n  swap2\n    /* \"#utility.yul\":2106:2328   */\ntag_45:\n    /* \"#utility.yul\":2120:2127   */\n  dup3\n    /* \"#utility.yul\":2117:2118   */\n  dup2\n    /* \"#utility.yul\":2114:2128   */\n  lt\n    /* \"#utility.yul\":2106:2328   */\n  iszero\n  tag_47\n  jumpi\n    /* \"#utility.yul\":2202:2221   */\n  dup8\n  dup6\n  add\n    /* \"#utility.yul\":2196:2222   */\n  mload\n    /* \"#utility.yul\":2181:2223   */\n  dup3\n  sstore\n    /* \"#utility.yul\":2309:2313   */\n  0x20\n    /* \"#utility.yul\":2294:2314   */\n  swap5\n  dup6\n  add\n  swap5\n    /* \"#utility.yul\":2262:2263   */\n  0x01\n    /* \"#utility.yul\":2250:2264   */\n  swap1\n  swap3\n  add\n  swap2\n    /* \"#utility.yul\":2136:2148   */\n  add\n    /* \"#utility.yul\":2106:2328   */\n  jump(tag_45)\ntag_47:\n    /* \"#utility.yul\":2110:2113   */\n  pop\n    /* \"#utility.yul\":2356:2362   */\n  dup5\n    /* \"#utility.yul\":2347:2354   */\n  dup3\n    /* \"#utility.yul\":2344:2363   */\n  lt\n    /* \"#utility.yul\":2341:2542   */\n  iszero\n  tag_48\n  jumpi\n    /* \"#utility.yul\":2417:2436   */\n  dup7\n  dup5\n  add\n    /* \"#utility.yul\":2411:2437   */\n  mload\n  not(0x00)\n    /* \"#utility.yul\":2500:2501   */\n  0x03\n    /* \"#utility.yul\":2496:2510   */\n  dup8\n  swap1\n  shl\n    /* \"#utility.yul\":2512:2515   */\n  0xf8\n    /* \"#utility.yul\":2492:2516   */\n  and\n    /* \"#utility.yul\":2488:2525   */\n  shr\n    /* \"#utility.yul\":2484:2526   */\n  not\n    /* \"#utility.yul\":2469:2527   */\n  and\n    /* \"#utility.yul\":2454:2528   */\n  dup2\n  sstore\n    /* \"#utility.yul\":2341:2542   */\ntag_48:\n  pop\n  pop\n  pop\n  pop\n    /* \"#utility.yul\":2588:2589   */\n  0x01\n    /* \"#utility.yul\":2572:2586   */\n  swap1\n  dup2\n  shl\n    /* \"#utility.yul\":2568:2590   */\n  add\n    /* \"#utility.yul\":2555:2591   */\n  swap1\n  sstore\n  pop\n    /* \"#utility.yul\":1559:2858   */\n  jump\t// out\ntag_21:\n    /* \"contracts/token.sol\":284:2460  contract JVCToken is Ownable {... */\n  dataSize(sub_0)\n  dup1\n  dataOffset(sub_0)\n  0x00\n  codecopy\n  0x00\n  return\nstop\n\nsub_0: assembly {\n        /* \"contracts/token.sol\":284:2460  contract JVCToken is Ownable {... */\n      mstore(0x40, 0x80)\n      callvalue\n      dup1\n      iszero\n      tag_1\n      jumpi\n      0x00\n      dup1\n      revert\n    tag_1:\n      pop\n      jumpi(tag_2, lt(calldatasize, 0x04))\n      shr(0xe0, calldataload(0x00))\n      dup1\n      0x6addb663\n      gt\n      tag_14\n      jumpi\n      dup1\n      0x6addb663\n      eq\n      tag_8\n      jumpi\n      dup1\n      0x8da5cb5b\n      eq\n      tag_9\n      jumpi\n      dup1\n      0x95d89b41\n      eq\n      tag_10\n      jumpi\n      dup1\n      0x9dc29fac\n      eq\n      tag_11\n      jumpi\n      dup1\n      0xa9059cbb\n      eq\n      tag_12\n      jumpi\n      dup1\n      0xf2fde38b\n      eq\n      tag_13\n      jumpi\n      0x00\n      dup1\n      revert\n    tag_14:\n      dup1\n      0x03147f39\n      eq\n      tag_3\n      jumpi\n      dup1\n      0x06fdde03\n      eq\n      tag_4\n      jumpi\n      dup1\n      0x18160ddd\n      eq\n      tag_5\n      jumpi\n      dup1\n      0x313ce567\n      eq\n      tag_6\n      jumpi\n      dup1\n      0x40c10f19\n      eq\n      tag_7\n      jumpi\n    tag_2:\n      0x00\n      dup1\n      revert\n        /* \"contracts/token.sol\":1374:1495  function checkBalanceOf(address _owner) public  view returns (uint256 balance) {... */\n    tag_3:\n      tag_15\n      tag_16\n      calldatasize\n      0x04\n      tag_17\n      jump\t// in\n    tag_16:\n      sub(shl(0xa0, 0x01), 0x01)\n        /* \"contracts/token.sol\":1471:1487  balances[_owner] */\n      and\n        /* \"contracts/token.sol\":1436:1451  uint256 balance */\n      0x00\n        /* \"contracts/token.sol\":1471:1487  balances[_owner] */\n      swap1\n      dup2\n      mstore\n        /* \"contracts/token.sol\":1471:1479  balances */\n      0x01\n        /* \"contracts/token.sol\":1471:1487  balances[_owner] */\n      0x20\n      mstore\n      0x40\n      swap1\n      keccak256\n      sload\n      swap1\n        /* \"contracts/token.sol\":1374:1495  function checkBalanceOf(address _owner) public  view returns (uint256 balance) {... */\n      jump\n    tag_15:\n      mload(0x40)\n        /* \"#utility.yul\":529:554   */\n      swap1\n      dup2\n      mstore\n        /* \"#utility.yul\":517:519   */\n      0x20\n        /* \"#utility.yul\":502:520   */\n      add\n        /* \"contracts/token.sol\":1374:1495  function checkBalanceOf(address _owner) public  view returns (uint256 balance) {... */\n    tag_19:\n      mload(0x40)\n      dup1\n      swap2\n      sub\n      swap1\n      return\n        /* \"contracts/token.sol\":462:480  string public name */\n    tag_4:\n      tag_21\n      tag_22\n      jump\t// in\n    tag_21:\n      mload(0x40)\n      tag_19\n      swap2\n      swap1\n      tag_24\n      jump\t// in\n        /* \"contracts/token.sol\":429:455  uint256 public totalSupply */\n    tag_5:\n      tag_15\n      sload(0x02)\n      dup2\n      jump\n        /* \"contracts/token.sol\":487:508  uint8 public decimals */\n    tag_6:\n      sload(0x04)\n      tag_28\n      swap1\n      0xff\n      and\n      dup2\n      jump\n    tag_28:\n      mload(0x40)\n        /* \"#utility.yul\":1256:1260   */\n      0xff\n        /* \"#utility.yul\":1244:1261   */\n      swap1\n      swap2\n      and\n        /* \"#utility.yul\":1226:1262   */\n      dup2\n      mstore\n        /* \"#utility.yul\":1214:1216   */\n      0x20\n        /* \"#utility.yul\":1199:1217   */\n      add\n        /* \"contracts/token.sol\":487:508  uint8 public decimals */\n      tag_19\n        /* \"#utility.yul\":1084:1268   */\n      jump\n        /* \"contracts/token.sol\":1699:1886  function mint(address account, uint256 value) external virtual onlyOwner {... */\n    tag_7:\n      tag_32\n      tag_33\n      calldatasize\n      0x04\n      tag_34\n      jump\t// in\n    tag_33:\n      tag_35\n      jump\t// in\n    tag_32:\n      stop\n        /* \"contracts/token.sol\":751:902  function tokenInfo()external virtual returns (uint, string memory, string memory, uint) {... */\n    tag_8:\n      tag_36\n      tag_37\n      jump\t// in\n    tag_36:\n      mload(0x40)\n      tag_19\n      swap5\n      swap4\n      swap3\n      swap2\n      swap1\n      tag_39\n      jump\t// in\n        /* \"@openzeppelin/contracts/access/Ownable.sol\":1638:1723  function owner() public view virtual returns (address) {... */\n    tag_9:\n        /* \"@openzeppelin/contracts/access/Ownable.sol\":1684:1691  address */\n      0x00\n        /* \"@openzeppelin/contracts/access/Ownable.sol\":1710:1716  _owner */\n      sload\n        /* \"@openzeppelin/contracts/access/Ownable.sol\":1638:1723  function owner() public view virtual returns (address) {... */\n      mload(0x40)\n      sub(shl(0xa0, 0x01), 0x01)\n        /* \"@openzeppelin/contracts/access/Ownable.sol\":1710:1716  _owner */\n      swap1\n      swap2\n      and\n        /* \"#utility.yul\":2210:2261   */\n      dup2\n      mstore\n        /* \"#utility.yul\":2198:2200   */\n      0x20\n        /* \"#utility.yul\":2183:2201   */\n      add\n        /* \"@openzeppelin/contracts/access/Ownable.sol\":1638:1723  function owner() public view virtual returns (address) {... */\n      tag_19\n        /* \"#utility.yul\":2064:2267   */\n      jump\n        /* \"contracts/token.sol\":515:535  string public symbol */\n    tag_10:\n      tag_21\n      tag_45\n      jump\t// in\n        /* \"contracts/token.sol\":1503:1691  function burn(address account, uint256 value) external virtual onlyOwner {... */\n    tag_11:\n      tag_32\n      tag_48\n      calldatasize\n      0x04\n      tag_34\n      jump\t// in\n    tag_48:\n      tag_49\n      jump\t// in\n        /* \"contracts/token.sol\":910:1366  function transfer(address _to, uint256 _value) external virtual returns (bool success) {... */\n    tag_12:\n      tag_50\n      tag_51\n      calldatasize\n      0x04\n      tag_34\n      jump\t// in\n    tag_51:\n      tag_52\n      jump\t// in\n    tag_50:\n      mload(0x40)\n        /* \"#utility.yul\":2437:2451   */\n      swap1\n      iszero\n        /* \"#utility.yul\":2430:2452   */\n      iszero\n        /* \"#utility.yul\":2412:2453   */\n      dup2\n      mstore\n        /* \"#utility.yul\":2400:2402   */\n      0x20\n        /* \"#utility.yul\":2385:2403   */\n      add\n        /* \"contracts/token.sol\":910:1366  function transfer(address _to, uint256 _value) external virtual returns (bool success) {... */\n      tag_19\n        /* \"#utility.yul\":2272:2459   */\n      jump\n        /* \"@openzeppelin/contracts/access/Ownable.sol\":2552:2767  function transferOwnership(address newOwner) public virtual onlyOwner {... */\n    tag_13:\n      tag_32\n      tag_56\n      calldatasize\n      0x04\n      tag_17\n      jump\t// in\n    tag_56:\n      tag_57\n      jump\t// in\n        /* \"contracts/token.sol\":462:480  string public name */\n    tag_22:\n      0x03\n      dup1\n      sload\n      tag_59\n      swap1\n      tag_60\n      jump\t// in\n    tag_59:\n      dup1\n      0x1f\n      add\n      0x20\n      dup1\n      swap2\n      div\n      mul\n      0x20\n      add\n      mload(0x40)\n      swap1\n      dup2\n      add\n      0x40\n      mstore\n      dup1\n      swap3\n      swap2\n      swap1\n      dup2\n      dup2\n      mstore\n      0x20\n      add\n      dup3\n      dup1\n      sload\n      tag_61\n      swap1\n      tag_60\n      jump\t// in\n    tag_61:\n      dup1\n      iszero\n      tag_62\n      jumpi\n      dup1\n      0x1f\n      lt\n      tag_63\n      jumpi\n      0x0100\n      dup1\n      dup4\n      sload\n      div\n      mul\n      dup4\n      mstore\n      swap2\n      0x20\n      add\n      swap2\n      jump(tag_62)\n    tag_63:\n      dup3\n      add\n      swap2\n      swap1\n      0x00\n      mstore\n      keccak256(0x00, 0x20)\n      swap1\n    tag_64:\n      dup2\n      sload\n      dup2\n      mstore\n      swap1\n      0x01\n      add\n      swap1\n      0x20\n      add\n      dup1\n      dup4\n      gt\n      tag_64\n      jumpi\n      dup3\n      swap1\n      sub\n      0x1f\n      and\n      dup3\n      add\n      swap2\n    tag_62:\n      pop\n      pop\n      pop\n      pop\n      pop\n      dup2\n      jump\t// out\n        /* \"contracts/token.sol\":1699:1886  function mint(address account, uint256 value) external virtual onlyOwner {... */\n    tag_35:\n        /* \"@openzeppelin/contracts/access/Ownable.sol\":1531:1544  _checkOwner() */\n      tag_66\n        /* \"@openzeppelin/contracts/access/Ownable.sol\":1531:1542  _checkOwner */\n      tag_67\n        /* \"@openzeppelin/contracts/access/Ownable.sol\":1531:1544  _checkOwner() */\n      jump\t// in\n    tag_66:\n      sub(shl(0xa0, 0x01), 0x01)\n        /* \"contracts/token.sol\":1791:1812  account != address(0) */\n      dup3\n      and\n        /* \"contracts/token.sol\":1783:1832  require(account != address(0), \"Invalid address\") */\n      tag_69\n      jumpi\n      mload(0x40)\n      shl(0xe5, 0x461bcd)\n      dup2\n      mstore\n        /* \"#utility.yul\":3051:3053   */\n      0x20\n        /* \"contracts/token.sol\":1783:1832  require(account != address(0), \"Invalid address\") */\n      0x04\n      dup3\n      add\n        /* \"#utility.yul\":3033:3054   */\n      mstore\n        /* \"#utility.yul\":3090:3092   */\n      0x0f\n        /* \"#utility.yul\":3070:3088   */\n      0x24\n      dup3\n      add\n        /* \"#utility.yul\":3063:3093   */\n      mstore\n      shl(0x88, 0x496e76616c69642061646472657373)\n        /* \"#utility.yul\":3109:3127   */\n      0x44\n      dup3\n      add\n        /* \"#utility.yul\":3102:3147   */\n      mstore\n        /* \"#utility.yul\":3164:3182   */\n      0x64\n      add\n        /* \"contracts/token.sol\":1783:1832  require(account != address(0), \"Invalid address\") */\n    tag_70:\n      mload(0x40)\n      dup1\n      swap2\n      sub\n      swap1\n      revert\n    tag_69:\n        /* \"contracts/token.sol\":1843:1878  _update(address(0), account, value) */\n      tag_72\n        /* \"contracts/token.sol\":1859:1860  0 */\n      0x00\n        /* \"contracts/token.sol\":1863:1870  account */\n      dup4\n        /* \"contracts/token.sol\":1872:1877  value */\n      dup4\n        /* \"contracts/token.sol\":1843:1850  _update */\n      tag_73\n        /* \"contracts/token.sol\":1843:1878  _update(address(0), account, value) */\n      jump\t// in\n    tag_72:\n        /* \"contracts/token.sol\":1699:1886  function mint(address account, uint256 value) external virtual onlyOwner {... */\n      pop\n      pop\n      jump\t// out\n        /* \"contracts/token.sol\":751:902  function tokenInfo()external virtual returns (uint, string memory, string memory, uint) {... */\n    tag_37:\n        /* \"contracts/token.sol\":797:801  uint */\n      0x00\n        /* \"contracts/token.sol\":803:816  string memory */\n      0x60\n        /* \"contracts/token.sol\":818:831  string memory */\n      dup1\n        /* \"contracts/token.sol\":833:837  uint */\n      0x00\n        /* \"contracts/token.sol\":858:869  totalSupply */\n      sload(0x02)\n        /* \"contracts/token.sol\":871:875  name */\n      0x03\n        /* \"contracts/token.sol\":877:883  symbol */\n      0x05\n        /* \"contracts/token.sol\":885:893  decimals */\n      0x04\n      0x00\n      swap1\n      sload\n      swap1\n      0x0100\n      exp\n      swap1\n      div\n      0xff\n      and\n        /* \"contracts/token.sol\":850:894  return (totalSupply, name, symbol, decimals) */\n      dup3\n      dup1\n      sload\n      tag_75\n      swap1\n      tag_60\n      jump\t// in\n    tag_75:\n      dup1\n      0x1f\n      add\n      0x20\n      dup1\n      swap2\n      div\n      mul\n      0x20\n      add\n      mload(0x40)\n      swap1\n      dup2\n      add\n      0x40\n      mstore\n      dup1\n      swap3\n      swap2\n      swap1\n      dup2\n      dup2\n      mstore\n      0x20\n      add\n      dup3\n      dup1\n      sload\n      tag_76\n      swap1\n      tag_60\n      jump\t// in\n    tag_76:\n      dup1\n      iszero\n      tag_77\n      jumpi\n      dup1\n      0x1f\n      lt\n      tag_78\n      jumpi\n      0x0100\n      dup1\n      dup4\n      sload\n      div\n      mul\n      dup4\n      mstore\n      swap2\n      0x20\n      add\n      swap2\n      jump(tag_77)\n    tag_78:\n      dup3\n      add\n      swap2\n      swap1\n      0x00\n      mstore\n      keccak256(0x00, 0x20)\n      swap1\n    tag_79:\n      dup2\n      sload\n      dup2\n      mstore\n      swap1\n      0x01\n      add\n      swap1\n      0x20\n      add\n      dup1\n      dup4\n      gt\n      tag_79\n      jumpi\n      dup3\n      swap1\n      sub\n      0x1f\n      and\n      dup3\n      add\n      swap2\n    tag_77:\n      pop\n      pop\n      pop\n      pop\n      pop\n      swap3\n      pop\n      dup2\n      dup1\n      sload\n      tag_80\n      swap1\n      tag_60\n      jump\t// in\n    tag_80:\n      dup1\n      0x1f\n      add\n      0x20\n      dup1\n      swap2\n      div\n      mul\n      0x20\n      add\n      mload(0x40)\n      swap1\n      dup2\n      add\n      0x40\n      mstore\n      dup1\n      swap3\n      swap2\n      swap1\n      dup2\n      dup2\n      mstore\n      0x20\n      add\n      dup3\n      dup1\n      sload\n      tag_81\n      swap1\n      tag_60\n      jump\t// in\n    tag_81:\n      dup1\n      iszero\n      tag_82\n      jumpi\n      dup1\n      0x1f\n      lt\n      tag_83\n      jumpi\n      0x0100\n      dup1\n      dup4\n      sload\n      div\n      mul\n      dup4\n      mstore\n      swap2\n      0x20\n      add\n      swap2\n      jump(tag_82)\n    tag_83:\n      dup3\n      add\n      swap2\n      swap1\n      0x00\n      mstore\n      keccak256(0x00, 0x20)\n      swap1\n    tag_84:\n      dup2\n      sload\n      dup2\n      mstore\n      swap1\n      0x01\n      add\n      swap1\n      0x20\n      add\n      dup1\n      dup4\n      gt\n      tag_84\n      jumpi\n      dup3\n      swap1\n      sub\n      0x1f\n      and\n      dup3\n      add\n      swap2\n    tag_82:\n      pop\n      swap8\n      swap13\n      swap7\n      swap12\n      pop\n      swap3\n      swap10\n      pop\n      pop\n      0xff\n      swap1\n      swap3\n      and\n      swap7\n      pop\n        /* \"contracts/token.sol\":751:902  function tokenInfo()external virtual returns (uint, string memory, string memory, uint) {... */\n      swap3\n      swap5\n      pop\n      pop\n      pop\n      pop\n      pop\n      jump\t// out\n        /* \"contracts/token.sol\":515:535  string public symbol */\n    tag_45:\n      0x05\n      dup1\n      sload\n      tag_59\n      swap1\n      tag_60\n      jump\t// in\n        /* \"contracts/token.sol\":1503:1691  function burn(address account, uint256 value) external virtual onlyOwner {... */\n    tag_49:\n        /* \"@openzeppelin/contracts/access/Ownable.sol\":1531:1544  _checkOwner() */\n      tag_92\n        /* \"@openzeppelin/contracts/access/Ownable.sol\":1531:1542  _checkOwner */\n      tag_67\n        /* \"@openzeppelin/contracts/access/Ownable.sol\":1531:1544  _checkOwner() */\n      jump\t// in\n    tag_92:\n      sub(shl(0xa0, 0x01), 0x01)\n        /* \"contracts/token.sol\":1595:1616  account != address(0) */\n      dup3\n      and\n        /* \"contracts/token.sol\":1587:1637  require(account != address(0), \"Invalid account!\") */\n      tag_94\n      jumpi\n      mload(0x40)\n      shl(0xe5, 0x461bcd)\n      dup2\n      mstore\n        /* \"#utility.yul\":3395:3397   */\n      0x20\n        /* \"contracts/token.sol\":1587:1637  require(account != address(0), \"Invalid account!\") */\n      0x04\n      dup3\n      add\n        /* \"#utility.yul\":3377:3398   */\n      mstore\n        /* \"#utility.yul\":3434:3436   */\n      0x10\n        /* \"#utility.yul\":3414:3432   */\n      0x24\n      dup3\n      add\n        /* \"#utility.yul\":3407:3437   */\n      mstore\n      shl(0x80, 0x496e76616c6964206163636f756e7421)\n        /* \"#utility.yul\":3453:3471   */\n      0x44\n      dup3\n      add\n        /* \"#utility.yul\":3446:3492   */\n      mstore\n        /* \"#utility.yul\":3509:3527   */\n      0x64\n      add\n        /* \"contracts/token.sol\":1587:1637  require(account != address(0), \"Invalid account!\") */\n      tag_70\n        /* \"#utility.yul\":3193:3533   */\n      jump\n        /* \"contracts/token.sol\":1587:1637  require(account != address(0), \"Invalid account!\") */\n    tag_94:\n        /* \"contracts/token.sol\":1648:1683  _update(account, address(0), value) */\n      tag_72\n        /* \"contracts/token.sol\":1656:1663  account */\n      dup3\n        /* \"contracts/token.sol\":1673:1674  0 */\n      0x00\n        /* \"contracts/token.sol\":1677:1682  value */\n      dup4\n        /* \"contracts/token.sol\":1648:1655  _update */\n      tag_73\n        /* \"contracts/token.sol\":1648:1683  _update(account, address(0), value) */\n      jump\t// in\n        /* \"contracts/token.sol\":910:1366  function transfer(address _to, uint256 _value) external virtual returns (bool success) {... */\n    tag_52:\n        /* \"contracts/token.sol\":1025:1035  msg.sender */\n      caller\n        /* \"contracts/token.sol\":983:995  bool success */\n      0x00\n        /* \"contracts/token.sol\":1016:1036  balances[msg.sender] */\n      swap1\n      dup2\n      mstore\n        /* \"contracts/token.sol\":1016:1024  balances */\n      0x01\n        /* \"contracts/token.sol\":1016:1036  balances[msg.sender] */\n      0x20\n      mstore\n      0x40\n      dup2\n      keccak256\n      sload\n        /* \"contracts/token.sol\":1016:1046  balances[msg.sender] >= _value */\n      dup3\n      gt\n      iszero\n        /* \"contracts/token.sol\":1008:1098  require(balances[msg.sender] >= _value, \"token balance is lower than the value requested\") */\n      tag_99\n      jumpi\n      mload(0x40)\n      shl(0xe5, 0x461bcd)\n      dup2\n      mstore\n        /* \"#utility.yul\":3740:3742   */\n      0x20\n        /* \"contracts/token.sol\":1008:1098  require(balances[msg.sender] >= _value, \"token balance is lower than the value requested\") */\n      0x04\n      dup3\n      add\n        /* \"#utility.yul\":3722:3743   */\n      mstore\n        /* \"#utility.yul\":3779:3781   */\n      0x2f\n        /* \"#utility.yul\":3759:3777   */\n      0x24\n      dup3\n      add\n        /* \"#utility.yul\":3752:3782   */\n      mstore\n        /* \"#utility.yul\":3818:3852   */\n      0x746f6b656e2062616c616e6365206973206c6f776572207468616e2074686520\n        /* \"#utility.yul\":3798:3816   */\n      0x44\n      dup3\n      add\n        /* \"#utility.yul\":3791:3853   */\n      mstore\n      shl(0x8a, 0x1d985b1d59481c995c5d595cdd1959)\n        /* \"#utility.yul\":3869:3887   */\n      0x64\n      dup3\n      add\n        /* \"#utility.yul\":3862:3907   */\n      mstore\n        /* \"#utility.yul\":3924:3943   */\n      0x84\n      add\n        /* \"contracts/token.sol\":1008:1098  require(balances[msg.sender] >= _value, \"token balance is lower than the value requested\") */\n      tag_70\n        /* \"#utility.yul\":3538:3949   */\n      jump\n        /* \"contracts/token.sol\":1008:1098  require(balances[msg.sender] >= _value, \"token balance is lower than the value requested\") */\n    tag_99:\n      sub(shl(0xa0, 0x01), 0x01)\n        /* \"contracts/token.sol\":1117:1134  msg.sender != _to */\n      dup4\n      and\n        /* \"contracts/token.sol\":1117:1127  msg.sender */\n      caller\n        /* \"contracts/token.sol\":1117:1134  msg.sender != _to */\n      sub\n        /* \"contracts/token.sol\":1109:1166  require(msg.sender != _to, \"You can't send to yourself!\") */\n      tag_102\n      jumpi\n      mload(0x40)\n      shl(0xe5, 0x461bcd)\n      dup2\n      mstore\n        /* \"#utility.yul\":4156:4158   */\n      0x20\n        /* \"contracts/token.sol\":1109:1166  require(msg.sender != _to, \"You can't send to yourself!\") */\n      0x04\n      dup3\n      add\n        /* \"#utility.yul\":4138:4159   */\n      mstore\n        /* \"#utility.yul\":4195:4197   */\n      0x1b\n        /* \"#utility.yul\":4175:4193   */\n      0x24\n      dup3\n      add\n        /* \"#utility.yul\":4168:4198   */\n      mstore\n        /* \"#utility.yul\":4234:4263   */\n      0x596f752063616e27742073656e6420746f20796f757273656c66210000000000\n        /* \"#utility.yul\":4214:4232   */\n      0x44\n      dup3\n      add\n        /* \"#utility.yul\":4207:4264   */\n      mstore\n        /* \"#utility.yul\":4281:4299   */\n      0x64\n      add\n        /* \"contracts/token.sol\":1109:1166  require(msg.sender != _to, \"You can't send to yourself!\") */\n      tag_70\n        /* \"#utility.yul\":3954:4305   */\n      jump\n        /* \"contracts/token.sol\":1109:1166  require(msg.sender != _to, \"You can't send to yourself!\") */\n    tag_102:\n        /* \"contracts/token.sol\":1186:1196  msg.sender */\n      caller\n        /* \"contracts/token.sol\":1177:1197  balances[msg.sender] */\n      0x00\n      swap1\n      dup2\n      mstore\n        /* \"contracts/token.sol\":1177:1185  balances */\n      0x01\n        /* \"contracts/token.sol\":1177:1197  balances[msg.sender] */\n      0x20\n      mstore\n      0x40\n      dup2\n      keccak256\n        /* \"contracts/token.sol\":1177:1207  balances[msg.sender] -= _value */\n      dup1\n      sload\n        /* \"contracts/token.sol\":1201:1207  _value */\n      dup5\n      swap3\n        /* \"contracts/token.sol\":1177:1197  balances[msg.sender] */\n      swap1\n        /* \"contracts/token.sol\":1177:1207  balances[msg.sender] -= _value */\n      tag_105\n      swap1\n        /* \"contracts/token.sol\":1201:1207  _value */\n      dup5\n      swap1\n        /* \"contracts/token.sol\":1177:1207  balances[msg.sender] -= _value */\n      tag_106\n      jump\t// in\n    tag_105:\n      swap1\n      swap2\n      sstore\n      pop\n      pop\n      sub(shl(0xa0, 0x01), 0x01)\n        /* \"contracts/token.sol\":1218:1231  balances[_to] */\n      dup4\n      and\n      0x00\n      swap1\n      dup2\n      mstore\n        /* \"contracts/token.sol\":1218:1226  balances */\n      0x01\n        /* \"contracts/token.sol\":1218:1231  balances[_to] */\n      0x20\n      mstore\n      0x40\n      dup2\n      keccak256\n        /* \"contracts/token.sol\":1218:1241  balances[_to] += _value */\n      dup1\n      sload\n        /* \"contracts/token.sol\":1235:1241  _value */\n      dup5\n      swap3\n        /* \"contracts/token.sol\":1218:1231  balances[_to] */\n      swap1\n        /* \"contracts/token.sol\":1218:1241  balances[_to] += _value */\n      tag_107\n      swap1\n        /* \"contracts/token.sol\":1235:1241  _value */\n      dup5\n      swap1\n        /* \"contracts/token.sol\":1218:1241  balances[_to] += _value */\n      tag_108\n      jump\t// in\n    tag_107:\n      swap1\n      swap2\n      sstore\n      pop\n      pop\n        /* \"contracts/token.sol\":1257:1290  Transfer(msg.sender, _to, _value) */\n      mload(0x40)\n        /* \"#utility.yul\":529:554   */\n      dup3\n      dup2\n      mstore\n      sub(shl(0xa0, 0x01), 0x01)\n        /* \"contracts/token.sol\":1257:1290  Transfer(msg.sender, _to, _value) */\n      dup5\n      and\n      swap1\n        /* \"contracts/token.sol\":1266:1276  msg.sender */\n      caller\n      swap1\n        /* \"contracts/token.sol\":1257:1290  Transfer(msg.sender, _to, _value) */\n      0xddf252ad1be2c89b69c2b068fc378daa952ba7f163c4a11628f55a4df523b3ef\n      swap1\n        /* \"#utility.yul\":517:519   */\n      0x20\n        /* \"#utility.yul\":502:520   */\n      add\n        /* \"contracts/token.sol\":1257:1290  Transfer(msg.sender, _to, _value) */\n      mload(0x40)\n      dup1\n      swap2\n      sub\n      swap1\n      log3\n      pop\n        /* \"contracts/token.sol\":1354:1358  true */\n      0x01\n        /* \"contracts/token.sol\":910:1366  function transfer(address _to, uint256 _value) external virtual returns (bool success) {... */\n    tag_98:\n      swap3\n      swap2\n      pop\n      pop\n      jump\t// out\n        /* \"@openzeppelin/contracts/access/Ownable.sol\":2552:2767  function transferOwnership(address newOwner) public virtual onlyOwner {... */\n    tag_57:\n        /* \"@openzeppelin/contracts/access/Ownable.sol\":1531:1544  _checkOwner() */\n      tag_111\n        /* \"@openzeppelin/contracts/access/Ownable.sol\":1531:1542  _checkOwner */\n      tag_67\n        /* \"@openzeppelin/contracts/access/Ownable.sol\":1531:1544  _checkOwner() */\n      jump\t// in\n    tag_111:\n      sub(shl(0xa0, 0x01), 0x01)\n        /* \"@openzeppelin/contracts/access/Ownable.sol\":2636:2658  newOwner == address(0) */\n      dup2\n      and\n        /* \"@openzeppelin/contracts/access/Ownable.sol\":2632:2723  if (newOwner == address(0)) {... */\n      tag_113\n      jumpi\n        /* \"@openzeppelin/contracts/access/Ownable.sol\":2681:2712  OwnableInvalidOwner(address(0)) */\n      mload(0x40)\n      shl(0xe0, 0x1e4fbdf7)\n      dup2\n      mstore\n        /* \"@openzeppelin/contracts/access/Ownable.sol\":2709:2710  0 */\n      0x00\n        /* \"@openzeppelin/contracts/access/Ownable.sol\":2681:2712  OwnableInvalidOwner(address(0)) */\n      0x04\n      dup3\n      add\n        /* \"#utility.yul\":2210:2261   */\n      mstore\n        /* \"#utility.yul\":2183:2201   */\n      0x24\n      add\n        /* \"@openzeppelin/contracts/access/Ownable.sol\":2681:2712  OwnableInvalidOwner(address(0)) */\n      tag_70\n        /* \"#utility.yul\":2064:2267   */\n      jump\n        /* \"@openzeppelin/contracts/access/Ownable.sol\":2632:2723  if (newOwner == address(0)) {... */\n    tag_113:\n        /* \"@openzeppelin/contracts/access/Ownable.sol\":2732:2760  _transferOwnership(newOwner) */\n      tag_115\n        /* \"@openzeppelin/contracts/access/Ownable.sol\":2751:2759  newOwner */\n      dup2\n        /* \"@openzeppelin/contracts/access/Ownable.sol\":2732:2750  _transferOwnership */\n      tag_116\n        /* \"@openzeppelin/contracts/access/Ownable.sol\":2732:2760  _transferOwnership(newOwner) */\n      jump\t// in\n    tag_115:\n        /* \"@openzeppelin/contracts/access/Ownable.sol\":2552:2767  function transferOwnership(address newOwner) public virtual onlyOwner {... */\n      pop\n      jump\t// out\n        /* \"@openzeppelin/contracts/access/Ownable.sol\":1796:1958  function _checkOwner() internal view virtual {... */\n    tag_67:\n        /* \"@openzeppelin/contracts/access/Ownable.sol\":1684:1691  address */\n      0x00\n        /* \"@openzeppelin/contracts/access/Ownable.sol\":1710:1716  _owner */\n      sload\n      sub(shl(0xa0, 0x01), 0x01)\n      and\n        /* \"@openzeppelin/contracts/utils/Context.sol\":735:745  msg.sender */\n      caller\n        /* \"@openzeppelin/contracts/access/Ownable.sol\":1855:1878  owner() != _msgSender() */\n      eq\n        /* \"@openzeppelin/contracts/access/Ownable.sol\":1851:1952  if (owner() != _msgSender()) {... */\n      tag_121\n      jumpi\n        /* \"@openzeppelin/contracts/access/Ownable.sol\":1901:1941  OwnableUnauthorizedAccount(_msgSender()) */\n      mload(0x40)\n      shl(0xe0, 0x118cdaa7)\n      dup2\n      mstore\n        /* \"@openzeppelin/contracts/utils/Context.sol\":735:745  msg.sender */\n      caller\n        /* \"@openzeppelin/contracts/access/Ownable.sol\":1901:1941  OwnableUnauthorizedAccount(_msgSender()) */\n      0x04\n      dup3\n      add\n        /* \"#utility.yul\":2210:2261   */\n      mstore\n        /* \"#utility.yul\":2183:2201   */\n      0x24\n      add\n        /* \"@openzeppelin/contracts/access/Ownable.sol\":1901:1941  OwnableUnauthorizedAccount(_msgSender()) */\n      tag_70\n        /* \"#utility.yul\":2064:2267   */\n      jump\n        /* \"@openzeppelin/contracts/access/Ownable.sol\":1851:1952  if (owner() != _msgSender()) {... */\n    tag_121:\n        /* \"@openzeppelin/contracts/access/Ownable.sol\":1796:1958  function _checkOwner() internal view virtual {... */\n      jump\t// out\n        /* \"contracts/token.sol\":1894:2457  function _update(address  from, address  to, uint256 value) internal virtual {... */\n    tag_73:\n      sub(shl(0xa0, 0x01), 0x01)\n        /* \"contracts/token.sol\":1986:2004  from == address(0) */\n      dup4\n      and\n        /* \"contracts/token.sol\":1982:2250  if (from == address(0)) {... */\n      tag_125\n      jumpi\n        /* \"contracts/token.sol\":2035:2040  value */\n      dup1\n        /* \"contracts/token.sol\":2020:2031  totalSupply */\n      0x02\n      0x00\n        /* \"contracts/token.sol\":2020:2040  totalSupply += value */\n      dup3\n      dup3\n      sload\n      tag_126\n      swap2\n      swap1\n      tag_108\n      jump\t// in\n    tag_126:\n      swap1\n      swap2\n      sstore\n      pop\n        /* \"contracts/token.sol\":1982:2250  if (from == address(0)) {... */\n      tag_127\n      swap1\n      pop\n      jump\n    tag_125:\n      sub(shl(0xa0, 0x01), 0x01)\n        /* \"contracts/token.sol\":2095:2109  balances[from] */\n      dup4\n      and\n        /* \"contracts/token.sol\":2073:2092  uint256 fromBalance */\n      0x00\n        /* \"contracts/token.sol\":2095:2109  balances[from] */\n      swap1\n      dup2\n      mstore\n        /* \"contracts/token.sol\":2095:2103  balances */\n      0x01\n        /* \"contracts/token.sol\":2095:2109  balances[from] */\n      0x20\n      mstore\n      0x40\n      swap1\n      keccak256\n      sload\n        /* \"contracts/token.sol\":2132:2151  fromBalance > value */\n      dup2\n      dup2\n      gt\n        /* \"contracts/token.sol\":2124:2175  require(fromBalance > value, \"Insufient JVC token\") */\n      tag_128\n      jumpi\n      mload(0x40)\n      shl(0xe5, 0x461bcd)\n      dup2\n      mstore\n        /* \"#utility.yul\":4907:4909   */\n      0x20\n        /* \"contracts/token.sol\":2124:2175  require(fromBalance > value, \"Insufient JVC token\") */\n      0x04\n      dup3\n      add\n        /* \"#utility.yul\":4889:4910   */\n      mstore\n        /* \"#utility.yul\":4946:4948   */\n      0x13\n        /* \"#utility.yul\":4926:4944   */\n      0x24\n      dup3\n      add\n        /* \"#utility.yul\":4919:4949   */\n      mstore\n      shl(0x69, 0x24b739bab334b2b73a10252b21903a37b5b2b7)\n        /* \"#utility.yul\":4965:4983   */\n      0x44\n      dup3\n      add\n        /* \"#utility.yul\":4958:5007   */\n      mstore\n        /* \"#utility.yul\":5024:5042   */\n      0x64\n      add\n        /* \"contracts/token.sol\":2124:2175  require(fromBalance > value, \"Insufient JVC token\") */\n      tag_70\n        /* \"#utility.yul\":4705:5048   */\n      jump\n        /* \"contracts/token.sol\":2124:2175  require(fromBalance > value, \"Insufient JVC token\") */\n    tag_128:\n      sub(shl(0xa0, 0x01), 0x01)\n        /* \"contracts/token.sol\":2201:2215  balances[from] */\n      dup5\n      and\n      0x00\n      swap1\n      dup2\n      mstore\n        /* \"contracts/token.sol\":2201:2209  balances */\n      0x01\n        /* \"contracts/token.sol\":2201:2215  balances[from] */\n      0x20\n      mstore\n      0x40\n      swap1\n      keccak256\n        /* \"contracts/token.sol\":2218:2237  fromBalance - value */\n      swap1\n      dup3\n      swap1\n      sub\n        /* \"contracts/token.sol\":2201:2237  balances[from] = fromBalance - value */\n      swap1\n      sstore\n        /* \"contracts/token.sol\":1982:2250  if (from == address(0)) {... */\n    tag_127:\n      sub(shl(0xa0, 0x01), 0x01)\n        /* \"contracts/token.sol\":2266:2282  to == address(0) */\n      dup3\n      and\n        /* \"contracts/token.sol\":2262:2409  if (to == address(0)) {... */\n      tag_131\n      jumpi\n        /* \"contracts/token.sol\":2310:2321  totalSupply */\n      0x02\n        /* \"contracts/token.sol\":2310:2330  totalSupply -= value */\n      dup1\n      sload\n      dup3\n      swap1\n      sub\n      swap1\n      sstore\n        /* \"contracts/token.sol\":2262:2409  if (to == address(0)) {... */\n      jump(tag_132)\n    tag_131:\n      sub(shl(0xa0, 0x01), 0x01)\n        /* \"contracts/token.sol\":2375:2387  balances[to] */\n      dup3\n      and\n      0x00\n      swap1\n      dup2\n      mstore\n        /* \"contracts/token.sol\":2375:2383  balances */\n      0x01\n        /* \"contracts/token.sol\":2375:2387  balances[to] */\n      0x20\n      mstore\n      0x40\n      swap1\n      keccak256\n        /* \"contracts/token.sol\":2375:2396  balances[to] += value */\n      dup1\n      sload\n      dup3\n      add\n      swap1\n      sstore\n        /* \"contracts/token.sol\":2262:2409  if (to == address(0)) {... */\n    tag_132:\n        /* \"contracts/token.sol\":2439:2441  to */\n      dup2\n      sub(shl(0xa0, 0x01), 0x01)\n        /* \"contracts/token.sol\":2424:2449  Transfer(from, to, value) */\n      and\n        /* \"contracts/token.sol\":2433:2437  from */\n      dup4\n      sub(shl(0xa0, 0x01), 0x01)\n        /* \"contracts/token.sol\":2424:2449  Transfer(from, to, value) */\n      and\n      0xddf252ad1be2c89b69c2b068fc378daa952ba7f163c4a11628f55a4df523b3ef\n        /* \"contracts/token.sol\":2443:2448  value */\n      dup4\n        /* \"contracts/token.sol\":2424:2449  Transfer(from, to, value) */\n      mload(0x40)\n      tag_133\n      swap2\n        /* \"#utility.yul\":529:554   */\n      dup2\n      mstore\n        /* \"#utility.yul\":517:519   */\n      0x20\n        /* \"#utility.yul\":502:520   */\n      add\n      swap1\n        /* \"#utility.yul\":383:560   */\n      jump\n        /* \"contracts/token.sol\":2424:2449  Transfer(from, to, value) */\n    tag_133:\n      mload(0x40)\n      dup1\n      swap2\n      sub\n      swap1\n      log3\n        /* \"contracts/token.sol\":1894:2457  function _update(address  from, address  to, uint256 value) internal virtual {... */\n      pop\n      pop\n      pop\n      jump\t// out\n        /* \"@openzeppelin/contracts/access/Ownable.sol\":2921:3108  function _transferOwnership(address newOwner) internal virtual {... */\n    tag_116:\n        /* \"@openzeppelin/contracts/access/Ownable.sol\":2994:3010  address oldOwner */\n      0x00\n        /* \"@openzeppelin/contracts/access/Ownable.sol\":3013:3019  _owner */\n      dup1\n      sload\n      sub(shl(0xa0, 0x01), 0x01)\n        /* \"@openzeppelin/contracts/access/Ownable.sol\":3029:3046  _owner = newOwner */\n      dup4\n      dup2\n      and\n      not(sub(shl(0xa0, 0x01), 0x01))\n      dup4\n      and\n      dup2\n      or\n      dup5\n      sstore\n        /* \"@openzeppelin/contracts/access/Ownable.sol\":3061:3101  OwnershipTransferred(oldOwner, newOwner) */\n      mload(0x40)\n        /* \"@openzeppelin/contracts/access/Ownable.sol\":3013:3019  _owner */\n      swap2\n      swap1\n      swap3\n      and\n      swap3\n      dup4\n      swap2\n        /* \"@openzeppelin/contracts/access/Ownable.sol\":3061:3101  OwnershipTransferred(oldOwner, newOwner) */\n      0x8be0079c531659141344cd1fd0a4f28419497f9722a3daafe3b4186f6b6457e0\n      swap2\n        /* \"@openzeppelin/contracts/access/Ownable.sol\":2994:3010  address oldOwner */\n      swap1\n        /* \"@openzeppelin/contracts/access/Ownable.sol\":3061:3101  OwnershipTransferred(oldOwner, newOwner) */\n      log3\n        /* \"@openzeppelin/contracts/access/Ownable.sol\":2984:3108  {... */\n      pop\n        /* \"@openzeppelin/contracts/access/Ownable.sol\":2921:3108  function _transferOwnership(address newOwner) internal virtual {... */\n      pop\n      jump\t// out\n        /* \"#utility.yul\":14:187   */\n    tag_136:\n        /* \"#utility.yul\":82:102   */\n      dup1\n      calldataload\n      sub(shl(0xa0, 0x01), 0x01)\n        /* \"#utility.yul\":131:162   */\n      dup2\n      and\n        /* \"#utility.yul\":121:163   */\n      dup2\n      eq\n        /* \"#utility.yul\":111:181   */\n      tag_141\n      jumpi\n        /* \"#utility.yul\":177:178   */\n      0x00\n        /* \"#utility.yul\":174:175   */\n      dup1\n        /* \"#utility.yul\":167:179   */\n      revert\n        /* \"#utility.yul\":111:181   */\n    tag_141:\n        /* \"#utility.yul\":14:187   */\n      swap2\n      swap1\n      pop\n      jump\t// out\n        /* \"#utility.yul\":192:378   */\n    tag_17:\n        /* \"#utility.yul\":251:257   */\n      0x00\n        /* \"#utility.yul\":304:306   */\n      0x20\n        /* \"#utility.yul\":292:301   */\n      dup3\n        /* \"#utility.yul\":283:290   */\n      dup5\n        /* \"#utility.yul\":279:302   */\n      sub\n        /* \"#utility.yul\":275:307   */\n      slt\n        /* \"#utility.yul\":272:324   */\n      iszero\n      tag_143\n      jumpi\n        /* \"#utility.yul\":320:321   */\n      0x00\n        /* \"#utility.yul\":317:318   */\n      dup1\n        /* \"#utility.yul\":310:322   */\n      revert\n        /* \"#utility.yul\":272:324   */\n    tag_143:\n        /* \"#utility.yul\":343:372   */\n      tag_144\n        /* \"#utility.yul\":362:371   */\n      dup3\n        /* \"#utility.yul\":343:372   */\n      tag_136\n      jump\t// in\n    tag_144:\n        /* \"#utility.yul\":333:372   */\n      swap4\n        /* \"#utility.yul\":192:378   */\n      swap3\n      pop\n      pop\n      pop\n      jump\t// out\n        /* \"#utility.yul\":565:854   */\n    tag_137:\n        /* \"#utility.yul\":607:610   */\n      0x00\n        /* \"#utility.yul\":645:650   */\n      dup2\n        /* \"#utility.yul\":639:651   */\n      mload\n        /* \"#utility.yul\":672:678   */\n      dup1\n        /* \"#utility.yul\":667:670   */\n      dup5\n        /* \"#utility.yul\":660:679   */\n      mstore\n        /* \"#utility.yul\":728:734   */\n      dup1\n        /* \"#utility.yul\":721:725   */\n      0x20\n        /* \"#utility.yul\":714:719   */\n      dup5\n        /* \"#utility.yul\":710:726   */\n      add\n        /* \"#utility.yul\":703:707   */\n      0x20\n        /* \"#utility.yul\":698:701   */\n      dup7\n        /* \"#utility.yul\":694:708   */\n      add\n        /* \"#utility.yul\":688:735   */\n      mcopy\n        /* \"#utility.yul\":780:781   */\n      0x00\n        /* \"#utility.yul\":773:777   */\n      0x20\n        /* \"#utility.yul\":764:770   */\n      dup3\n        /* \"#utility.yul\":759:762   */\n      dup7\n        /* \"#utility.yul\":755:771   */\n      add\n        /* \"#utility.yul\":751:778   */\n      add\n        /* \"#utility.yul\":744:782   */\n      mstore\n        /* \"#utility.yul\":843:847   */\n      0x20\n        /* \"#utility.yul\":836:838   */\n      0x1f\n        /* \"#utility.yul\":832:839   */\n      not\n        /* \"#utility.yul\":827:829   */\n      0x1f\n        /* \"#utility.yul\":819:825   */\n      dup4\n        /* \"#utility.yul\":815:830   */\n      add\n        /* \"#utility.yul\":811:840   */\n      and\n        /* \"#utility.yul\":806:809   */\n      dup6\n        /* \"#utility.yul\":802:841   */\n      add\n        /* \"#utility.yul\":798:848   */\n      add\n        /* \"#utility.yul\":791:848   */\n      swap2\n      pop\n      pop\n        /* \"#utility.yul\":565:854   */\n      swap3\n      swap2\n      pop\n      pop\n      jump\t// out\n        /* \"#utility.yul\":859:1079   */\n    tag_24:\n        /* \"#utility.yul\":1008:1010   */\n      0x20\n        /* \"#utility.yul\":997:1006   */\n      dup2\n        /* \"#utility.yul\":990:1011   */\n      mstore\n        /* \"#utility.yul\":971:975   */\n      0x00\n        /* \"#utility.yul\":1028:1073   */\n      tag_144\n        /* \"#utility.yul\":1069:1071   */\n      0x20\n        /* \"#utility.yul\":1058:1067   */\n      dup4\n        /* \"#utility.yul\":1054:1072   */\n      add\n        /* \"#utility.yul\":1046:1052   */\n      dup5\n        /* \"#utility.yul\":1028:1073   */\n      tag_137\n      jump\t// in\n        /* \"#utility.yul\":1273:1527   */\n    tag_34:\n        /* \"#utility.yul\":1341:1347   */\n      0x00\n        /* \"#utility.yul\":1349:1355   */\n      dup1\n        /* \"#utility.yul\":1402:1404   */\n      0x40\n        /* \"#utility.yul\":1390:1399   */\n      dup4\n        /* \"#utility.yul\":1381:1388   */\n      dup6\n        /* \"#utility.yul\":1377:1400   */\n      sub\n        /* \"#utility.yul\":1373:1405   */\n      slt\n        /* \"#utility.yul\":1370:1422   */\n      iszero\n      tag_151\n      jumpi\n        /* \"#utility.yul\":1418:1419   */\n      0x00\n        /* \"#utility.yul\":1415:1416   */\n      dup1\n        /* \"#utility.yul\":1408:1420   */\n      revert\n        /* \"#utility.yul\":1370:1422   */\n    tag_151:\n        /* \"#utility.yul\":1441:1470   */\n      tag_152\n        /* \"#utility.yul\":1460:1469   */\n      dup4\n        /* \"#utility.yul\":1441:1470   */\n      tag_136\n      jump\t// in\n    tag_152:\n        /* \"#utility.yul\":1431:1470   */\n      swap5\n        /* \"#utility.yul\":1517:1519   */\n      0x20\n        /* \"#utility.yul\":1502:1520   */\n      swap4\n      swap1\n      swap4\n      add\n        /* \"#utility.yul\":1489:1521   */\n      calldataload\n      swap4\n      pop\n      pop\n      pop\n        /* \"#utility.yul\":1273:1527   */\n      jump\t// out\n        /* \"#utility.yul\":1532:2059   */\n    tag_39:\n        /* \"#utility.yul\":1785:1791   */\n      dup5\n        /* \"#utility.yul\":1774:1783   */\n      dup2\n        /* \"#utility.yul\":1767:1792   */\n      mstore\n        /* \"#utility.yul\":1828:1831   */\n      0x80\n        /* \"#utility.yul\":1823:1825   */\n      0x20\n        /* \"#utility.yul\":1812:1821   */\n      dup3\n        /* \"#utility.yul\":1808:1826   */\n      add\n        /* \"#utility.yul\":1801:1832   */\n      mstore\n        /* \"#utility.yul\":1748:1752   */\n      0x00\n        /* \"#utility.yul\":1855:1901   */\n      tag_154\n        /* \"#utility.yul\":1896:1899   */\n      0x80\n        /* \"#utility.yul\":1885:1894   */\n      dup4\n        /* \"#utility.yul\":1881:1900   */\n      add\n        /* \"#utility.yul\":1873:1879   */\n      dup7\n        /* \"#utility.yul\":1855:1901   */\n      tag_137\n      jump\t// in\n    tag_154:\n        /* \"#utility.yul\":1949:1958   */\n      dup3\n        /* \"#utility.yul\":1941:1947   */\n      dup2\n        /* \"#utility.yul\":1937:1959   */\n      sub\n        /* \"#utility.yul\":1932:1934   */\n      0x40\n        /* \"#utility.yul\":1921:1930   */\n      dup5\n        /* \"#utility.yul\":1917:1935   */\n      add\n        /* \"#utility.yul\":1910:1960   */\n      mstore\n        /* \"#utility.yul\":1977:2010   */\n      tag_155\n        /* \"#utility.yul\":2003:2009   */\n      dup2\n        /* \"#utility.yul\":1995:2001   */\n      dup7\n        /* \"#utility.yul\":1977:2010   */\n      tag_137\n      jump\t// in\n    tag_155:\n        /* \"#utility.yul\":1969:2010   */\n      swap2\n      pop\n      pop\n        /* \"#utility.yul\":2046:2052   */\n      dup3\n        /* \"#utility.yul\":2041:2043   */\n      0x60\n        /* \"#utility.yul\":2030:2039   */\n      dup4\n        /* \"#utility.yul\":2026:2044   */\n      add\n        /* \"#utility.yul\":2019:2053   */\n      mstore\n        /* \"#utility.yul\":1532:2059   */\n      swap6\n      swap5\n      pop\n      pop\n      pop\n      pop\n      pop\n      jump\t// out\n        /* \"#utility.yul\":2464:2844   */\n    tag_60:\n        /* \"#utility.yul\":2543:2544   */\n      0x01\n        /* \"#utility.yul\":2539:2551   */\n      dup2\n      dup2\n      shr\n      swap1\n        /* \"#utility.yul\":2586:2598   */\n      dup3\n      and\n      dup1\n        /* \"#utility.yul\":2607:2668   */\n      tag_159\n      jumpi\n        /* \"#utility.yul\":2661:2665   */\n      0x7f\n        /* \"#utility.yul\":2653:2659   */\n      dup3\n        /* \"#utility.yul\":2649:2666   */\n      and\n        /* \"#utility.yul\":2639:2666   */\n      swap2\n      pop\n        /* \"#utility.yul\":2607:2668   */\n    tag_159:\n        /* \"#utility.yul\":2714:2716   */\n      0x20\n        /* \"#utility.yul\":2706:2712   */\n      dup3\n        /* \"#utility.yul\":2703:2717   */\n      lt\n        /* \"#utility.yul\":2683:2701   */\n      dup2\n        /* \"#utility.yul\":2680:2718   */\n      sub\n        /* \"#utility.yul\":2677:2838   */\n      tag_160\n      jumpi\n        /* \"#utility.yul\":2760:2770   */\n      0x4e487b71\n        /* \"#utility.yul\":2755:2758   */\n      0xe0\n        /* \"#utility.yul\":2751:2771   */\n      shl\n        /* \"#utility.yul\":2748:2749   */\n      0x00\n        /* \"#utility.yul\":2741:2772   */\n      mstore\n        /* \"#utility.yul\":2795:2799   */\n      0x22\n        /* \"#utility.yul\":2792:2793   */\n      0x04\n        /* \"#utility.yul\":2785:2800   */\n      mstore\n        /* \"#utility.yul\":2823:2827   */\n      0x24\n        /* \"#utility.yul\":2820:2821   */\n      0x00\n        /* \"#utility.yul\":2813:2828   */\n      revert\n        /* \"#utility.yul\":2677:2838   */\n    tag_160:\n      pop\n        /* \"#utility.yul\":2464:2844   */\n      swap2\n      swap1\n      pop\n      jump\t// out\n        /* \"#utility.yul\":4310:4437   */\n    tag_138:\n        /* \"#utility.yul\":4371:4381   */\n      0x4e487b71\n        /* \"#utility.yul\":4366:4369   */\n      0xe0\n        /* \"#utility.yul\":4362:4382   */\n      shl\n        /* \"#utility.yul\":4359:4360   */\n      0x00\n        /* \"#utility.yul\":4352:4383   */\n      mstore\n        /* \"#utility.yul\":4402:4406   */\n      0x11\n        /* \"#utility.yul\":4399:4400   */\n      0x04\n        /* \"#utility.yul\":4392:4407   */\n      mstore\n        /* \"#utility.yul\":4426:4430   */\n      0x24\n        /* \"#utility.yul\":4423:4424   */\n      0x00\n        /* \"#utility.yul\":4416:4431   */\n      revert\n        /* \"#utility.yul\":4442:4570   */\n    tag_106:\n        /* \"#utility.yul\":4509:4518   */\n      dup2\n      dup2\n      sub\n        /* \"#utility.yul\":4530:4541   */\n      dup2\n      dup2\n      gt\n        /* \"#utility.yul\":4527:4564   */\n      iszero\n      tag_98\n      jumpi\n        /* \"#utility.yul\":4544:4562   */\n      tag_98\n      tag_138\n      jump\t// in\n        /* \"#utility.yul\":4575:4700   */\n    tag_108:\n        /* \"#utility.yul\":4640:4649   */\n      dup1\n      dup3\n      add\n        /* \"#utility.yul\":4661:4671   */\n      dup1\n      dup3\n      gt\n        /* \"#utility.yul\":4658:4694   */\n      iszero\n      tag_98\n      jumpi\n        /* \"#utility.yul\":4674:4692   */\n      tag_98\n      tag_138\n      jump\t// in\n\n    auxdata: 0xa26469706673582212207733c5e2ebffaab2abb3f36133d93dbdfe01567791e78fe32b14b6cccbe0f26a64736f6c634300081a0033\n}\n",
				"bytecode": {
					"linkReferences": {},
					"object": "608060405234801561000f575f80fd5b50338061003557604051631e4fbdf760e01b81525f600482015260240160405180910390fd5b61003e816100be565b50335f90815260016020908152604091829020600a9081905560025581518083019092526008825267252b21aa37b5b2b760c11b9082015260039061008390826101a5565b506004805460ff191660121790556040805180820190915260038152624a564360e81b60208201526005906100b890826101a5565b5061025f565b5f80546001600160a01b038381166001600160a01b0319831681178455604051919092169283917f8be0079c531659141344cd1fd0a4f28419497f9722a3daafe3b4186f6b6457e09190a35050565b634e487b7160e01b5f52604160045260245ffd5b600181811c9082168061013557607f821691505b60208210810361015357634e487b7160e01b5f52602260045260245ffd5b50919050565b601f8211156101a057805f5260205f20601f840160051c8101602085101561017e5750805b601f840160051c820191505b8181101561019d575f815560010161018a565b50505b505050565b81516001600160401b038111156101be576101be61010d565b6101d2816101cc8454610121565b84610159565b6020601f821160018114610204575f83156101ed5750848201515b5f19600385901b1c1916600184901b17845561019d565b5f84815260208120601f198516915b828110156102335787850151825560209485019460019092019101610213565b508482101561025057868401515f19600387901b60f8161c191681555b50505050600190811b01905550565b61092e8061026c5f395ff3fe608060405234801561000f575f80fd5b50600436106100a6575f3560e01c80636addb6631161006e5780636addb663146101375780638da5cb5b1461014f57806395d89b41146101695780639dc29fac14610171578063a9059cbb14610184578063f2fde38b146101a7575f80fd5b806303147f39146100aa57806306fdde03146100e557806318160ddd146100fa578063313ce5671461010357806340c10f1914610122575b5f80fd5b6100d26100b83660046107c2565b6001600160a01b03165f9081526001602052604090205490565b6040519081526020015b60405180910390f35b6100ed6101ba565b6040516100dc9190610810565b6100d260025481565b6004546101109060ff1681565b60405160ff90911681526020016100dc565b610135610130366004610822565b610246565b005b61013f6102aa565b6040516100dc949392919061084a565b5f546040516001600160a01b0390911681526020016100dc565b6100ed6103ec565b61013561017f366004610822565b6103f9565b610197610192366004610822565b610455565b60405190151581526020016100dc565b6101356101b53660046107c2565b6105bc565b600380546101c790610886565b80601f01602080910402602001604051908101604052809291908181526020018280546101f390610886565b801561023e5780601f106102155761010080835404028352916020019161023e565b820191905f5260205f20905b81548152906001019060200180831161022157829003601f168201915b505050505081565b61024e6105f9565b6001600160a01b03821661029b5760405162461bcd60e51b815260206004820152600f60248201526e496e76616c6964206164647265737360881b60448201526064015b60405180910390fd5b6102a65f8383610627565b5050565b5f6060805f6002546003600560045f9054906101000a900460ff168280546102d190610886565b80601f01602080910402602001604051908101604052809291908181526020018280546102fd90610886565b80156103485780601f1061031f57610100808354040283529160200191610348565b820191905f5260205f20905b81548152906001019060200180831161032b57829003601f168201915b5050505050925081805461035b90610886565b80601f016020809104026020016040519081016040528092919081815260200182805461038790610886565b80156103d25780601f106103a9576101008083540402835291602001916103d2565b820191905f5260205f20905b8154815290600101906020018083116103b557829003601f168201915b50979c969b509299505060ff909216965092945050505050565b600580546101c790610886565b6104016105f9565b6001600160a01b03821661044a5760405162461bcd60e51b815260206004820152601060248201526f496e76616c6964206163636f756e742160801b6044820152606401610292565b6102a6825f83610627565b335f908152600160205260408120548211156104cb5760405162461bcd60e51b815260206004820152602f60248201527f746f6b656e2062616c616e6365206973206c6f776572207468616e207468652060448201526e1d985b1d59481c995c5d595cdd1959608a1b6064820152608401610292565b6001600160a01b03831633036105235760405162461bcd60e51b815260206004820152601b60248201527f596f752063616e27742073656e6420746f20796f757273656c662100000000006044820152606401610292565b335f90815260016020526040812080548492906105419084906108d2565b90915550506001600160a01b0383165f908152600160205260408120805484929061056d9084906108e5565b90915550506040518281526001600160a01b0384169033907fddf252ad1be2c89b69c2b068fc378daa952ba7f163c4a11628f55a4df523b3ef9060200160405180910390a35060015b92915050565b6105c46105f9565b6001600160a01b0381166105ed57604051631e4fbdf760e01b81525f6004820152602401610292565b6105f681610758565b50565b5f546001600160a01b031633146106255760405163118cdaa760e01b8152336004820152602401610292565b565b6001600160a01b038316610651578060025f82825461064691906108e5565b909155506106cc9050565b6001600160a01b0383165f908152600160205260409020548181116106ae5760405162461bcd60e51b815260206004820152601360248201527224b739bab334b2b73a10252b21903a37b5b2b760691b6044820152606401610292565b6001600160a01b0384165f9081526001602052604090209082900390555b6001600160a01b0382166106e857600280548290039055610706565b6001600160a01b0382165f9081526001602052604090208054820190555b816001600160a01b0316836001600160a01b03167fddf252ad1be2c89b69c2b068fc378daa952ba7f163c4a11628f55a4df523b3ef8360405161074b91815260200190565b60405180910390a3505050565b5f80546001600160a01b038381166001600160a01b0319831681178455604051919092169283917f8be0079c531659141344cd1fd0a4f28419497f9722a3daafe3b4186f6b6457e09190a35050565b80356001600160a01b03811681146107bd575f80fd5b919050565b5f602082840312156107d2575f80fd5b6107db826107a7565b9392505050565b5f81518084528060208401602086015e5f602082860101526020601f19601f83011685010191505092915050565b602081525f6107db60208301846107e2565b5f8060408385031215610833575f80fd5b61083c836107a7565b946020939093013593505050565b848152608060208201525f61086260808301866107e2565b828103604084015261087481866107e2565b91505082606083015295945050505050565b600181811c9082168061089a57607f821691505b6020821081036108b857634e487b7160e01b5f52602260045260245ffd5b50919050565b634e487b7160e01b5f52601160045260245ffd5b818103818111156105b6576105b66108be565b808201808211156105b6576105b66108be56fea26469706673582212207733c5e2ebffaab2abb3f36133d93dbdfe01567791e78fe32b14b6cccbe0f26a64736f6c634300081a0033",
					"opcodes": "PUSH1 0x80 PUSH1 0x40 MSTORE CALLVALUE DUP1 ISZERO PUSH2 0xF JUMPI PUSH0 DUP1 REVERT JUMPDEST POP CALLER DUP1 PUSH2 0x35 JUMPI PUSH1 0x40 MLOAD PUSH4 0x1E4FBDF7 PUSH1 0xE0 SHL DUP2 MSTORE PUSH0 PUSH1 0x4 DUP3 ADD MSTORE PUSH1 0x24 ADD PUSH1 0x40 MLOAD DUP1 SWAP2 SUB SWAP1 REVERT JUMPDEST PUSH2 0x3E DUP2 PUSH2 0xBE JUMP JUMPDEST POP CALLER PUSH0 SWAP1 DUP2 MSTORE PUSH1 0x1 PUSH1 0x20 SWAP1 DUP2 MSTORE PUSH1 0x40 SWAP2 DUP3 SWAP1 KECCAK256 PUSH1 0xA SWAP1 DUP2 SWAP1 SSTORE PUSH1 0x2 SSTORE DUP2 MLOAD DUP1 DUP4 ADD SWAP1 SWAP3 MSTORE PUSH1 0x8 DUP3 MSTORE PUSH8 0x252B21AA37B5B2B7 PUSH1 0xC1 SHL SWAP1 DUP3 ADD MSTORE PUSH1 0x3 SWAP1 PUSH2 0x83 SWAP1 DUP3 PUSH2 0x1A5 JUMP JUMPDEST POP PUSH1 0x4 DUP1 SLOAD PUSH1 0xFF NOT AND PUSH1 0x12 OR SWAP1 SSTORE PUSH1 0x40 DUP1 MLOAD DUP1 DUP3 ADD SWAP1 SWAP2 MSTORE PUSH1 0x3 DUP2 MSTORE PUSH3 0x4A5643 PUSH1 0xE8 SHL PUSH1 0x20 DUP3 ADD MSTORE PUSH1 0x5 SWAP1 PUSH2 0xB8 SWAP1 DUP3 PUSH2 0x1A5 JUMP JUMPDEST POP PUSH2 0x25F JUMP JUMPDEST PUSH0 DUP1 SLOAD PUSH1 0x1 PUSH1 0x1 PUSH1 0xA0 SHL SUB DUP4 DUP2 AND PUSH1 0x1 PUSH1 0x1 PUSH1 0xA0 SHL SUB NOT DUP4 AND DUP2 OR DUP5 SSTORE PUSH1 0x40 MLOAD SWAP2 SWAP1 SWAP3 AND SWAP3 DUP4 SWAP2 PUSH32 0x8BE0079C531659141344CD1FD0A4F28419497F9722A3DAAFE3B4186F6B6457E0 SWAP2 SWAP1 LOG3 POP POP JUMP JUMPDEST PUSH4 0x4E487B71 PUSH1 0xE0 SHL PUSH0 MSTORE PUSH1 0x41 PUSH1 0x4 MSTORE PUSH1 0x24 PUSH0 REVERT JUMPDEST PUSH1 0x1 DUP2 DUP2 SHR SWAP1 DUP3 AND DUP1 PUSH2 0x135 JUMPI PUSH1 0x7F DUP3 AND SWAP2 POP JUMPDEST PUSH1 0x20 DUP3 LT DUP2 SUB PUSH2 0x153 JUMPI PUSH4 0x4E487B71 PUSH1 0xE0 SHL PUSH0 MSTORE PUSH1 0x22 PUSH1 0x4 MSTORE PUSH1 0x24 PUSH0 REVERT JUMPDEST POP SWAP2 SWAP1 POP JUMP JUMPDEST PUSH1 0x1F DUP3 GT ISZERO PUSH2 0x1A0 JUMPI DUP1 PUSH0 MSTORE PUSH1 0x20 PUSH0 KECCAK256 PUSH1 0x1F DUP5 ADD PUSH1 0x5 SHR DUP2 ADD PUSH1 0x20 DUP6 LT ISZERO PUSH2 0x17E JUMPI POP DUP1 JUMPDEST PUSH1 0x1F DUP5 ADD PUSH1 0x5 SHR DUP3 ADD SWAP2 POP JUMPDEST DUP2 DUP2 LT ISZERO PUSH2 0x19D JUMPI PUSH0 DUP2 SSTORE PUSH1 0x1 ADD PUSH2 0x18A JUMP JUMPDEST POP POP JUMPDEST POP POP POP JUMP JUMPDEST DUP2 MLOAD PUSH1 0x1 PUSH1 0x1 PUSH1 0x40 SHL SUB DUP2 GT ISZERO PUSH2 0x1BE JUMPI PUSH2 0x1BE PUSH2 0x10D JUMP JUMPDEST PUSH2 0x1D2 DUP2 PUSH2 0x1CC DUP5 SLOAD PUSH2 0x121 JUMP JUMPDEST DUP5 PUSH2 0x159 JUMP JUMPDEST PUSH1 0x20 PUSH1 0x1F DUP3 GT PUSH1 0x1 DUP2 EQ PUSH2 0x204 JUMPI PUSH0 DUP4 ISZERO PUSH2 0x1ED JUMPI POP DUP5 DUP3 ADD MLOAD JUMPDEST PUSH0 NOT PUSH1 0x3 DUP6 SWAP1 SHL SHR NOT AND PUSH1 0x1 DUP5 SWAP1 SHL OR DUP5 SSTORE PUSH2 0x19D JUMP JUMPDEST PUSH0 DUP5 DUP2 MSTORE PUSH1 0x20 DUP2 KECCAK256 PUSH1 0x1F NOT DUP6 AND SWAP2 JUMPDEST DUP3 DUP2 LT ISZERO PUSH2 0x233 JUMPI DUP8 DUP6 ADD MLOAD DUP3 SSTORE PUSH1 0x20 SWAP5 DUP6 ADD SWAP5 PUSH1 0x1 SWAP1 SWAP3 ADD SWAP2 ADD PUSH2 0x213 JUMP JUMPDEST POP DUP5 DUP3 LT ISZERO PUSH2 0x250 JUMPI DUP7 DUP5 ADD MLOAD PUSH0 NOT PUSH1 0x3 DUP8 SWAP1 SHL PUSH1 0xF8 AND SHR NOT AND DUP2 SSTORE JUMPDEST POP POP POP POP PUSH1 0x1 SWAP1 DUP2 SHL ADD SWAP1 SSTORE POP JUMP JUMPDEST PUSH2 0x92E DUP1 PUSH2 0x26C PUSH0 CODECOPY PUSH0 RETURN INVALID PUSH1 0x80 PUSH1 0x40 MSTORE CALLVALUE DUP1 ISZERO PUSH2 0xF JUMPI PUSH0 DUP1 REVERT JUMPDEST POP PUSH1 0x4 CALLDATASIZE LT PUSH2 0xA6 JUMPI PUSH0 CALLDATALOAD PUSH1 0xE0 SHR DUP1 PUSH4 0x6ADDB663 GT PUSH2 0x6E JUMPI DUP1 PUSH4 0x6ADDB663 EQ PUSH2 0x137 JUMPI DUP1 PUSH4 0x8DA5CB5B EQ PUSH2 0x14F JUMPI DUP1 PUSH4 0x95D89B41 EQ PUSH2 0x169 JUMPI DUP1 PUSH4 0x9DC29FAC EQ PUSH2 0x171 JUMPI DUP1 PUSH4 0xA9059CBB EQ PUSH2 0x184 JUMPI DUP1 PUSH4 0xF2FDE38B EQ PUSH2 0x1A7 JUMPI PUSH0 DUP1 REVERT JUMPDEST DUP1 PUSH4 0x3147F39 EQ PUSH2 0xAA JUMPI DUP1 PUSH4 0x6FDDE03 EQ PUSH2 0xE5 JUMPI DUP1 PUSH4 0x18160DDD EQ PUSH2 0xFA JUMPI DUP1 PUSH4 0x313CE567 EQ PUSH2 0x103 JUMPI DUP1 PUSH4 0x40C10F19 EQ PUSH2 0x122 JUMPI JUMPDEST PUSH0 DUP1 REVERT JUMPDEST PUSH2 0xD2 PUSH2 0xB8 CALLDATASIZE PUSH1 0x4 PUSH2 0x7C2 JUMP JUMPDEST PUSH1 0x1 PUSH1 0x1 PUSH1 0xA0 SHL SUB AND PUSH0 SWAP1 DUP2 MSTORE PUSH1 0x1 PUSH1 0x20 MSTORE PUSH1 0x40 SWAP1 KECCAK256 SLOAD SWAP1 JUMP JUMPDEST PUSH1 0x40 MLOAD SWAP1 DUP2 MSTORE PUSH1 0x20 ADD JUMPDEST PUSH1 0x40 MLOAD DUP1 SWAP2 SUB SWAP1 RETURN JUMPDEST PUSH2 0xED PUSH2 0x1BA JUMP JUMPDEST PUSH1 0x40 MLOAD PUSH2 0xDC SWAP2 SWAP1 PUSH2 0x810 JUMP JUMPDEST PUSH2 0xD2 PUSH1 0x2 SLOAD DUP2 JUMP JUMPDEST PUSH1 0x4 SLOAD PUSH2 0x110 SWAP1 PUSH1 0xFF AND DUP2 JUMP JUMPDEST PUSH1 0x40 MLOAD PUSH1 0xFF SWAP1 SWAP2 AND DUP2 MSTORE PUSH1 0x20 ADD PUSH2 0xDC JUMP JUMPDEST PUSH2 0x135 PUSH2 0x130 CALLDATASIZE PUSH1 0x4 PUSH2 0x822 JUMP JUMPDEST PUSH2 0x246 JUMP JUMPDEST STOP JUMPDEST PUSH2 0x13F PUSH2 0x2AA JUMP JUMPDEST PUSH1 0x40 MLOAD PUSH2 0xDC SWAP5 SWAP4 SWAP3 SWAP2 SWAP1 PUSH2 0x84A JUMP JUMPDEST PUSH0 SLOAD PUSH1 0x40 MLOAD PUSH1 0x1 PUSH1 0x1 PUSH1 0xA0 SHL SUB SWAP1 SWAP2 AND DUP2 MSTORE PUSH1 0x20 ADD PUSH2 0xDC JUMP JUMPDEST PUSH2 0xED PUSH2 0x3EC JUMP JUMPDEST PUSH2 0x135 PUSH2 0x17F CALLDATASIZE PUSH1 0x4 PUSH2 0x822 JUMP JUMPDEST PUSH2 0x3F9 JUMP JUMPDEST PUSH2 0x197 PUSH2 0x192 CALLDATASIZE PUSH1 0x4 PUSH2 0x822 JUMP JUMPDEST PUSH2 0x455 JUMP JUMPDEST PUSH1 0x40 MLOAD SWAP1 ISZERO ISZERO DUP2 MSTORE PUSH1 0x20 ADD PUSH2 0xDC JUMP JUMPDEST PUSH2 0x135 PUSH2 0x1B5 CALLDATASIZE PUSH1 0x4 PUSH2 0x7C2 JUMP JUMPDEST PUSH2 0x5BC JUMP JUMPDEST PUSH1 0x3 DUP1 SLOAD PUSH2 0x1C7 SWAP1 PUSH2 0x886 JUMP JUMPDEST DUP1 PUSH1 0x1F ADD PUSH1 0x20 DUP1 SWAP2 DIV MUL PUSH1 0x20 ADD PUSH1 0x40 MLOAD SWAP1 DUP2 ADD PUSH1 0x40 MSTORE DUP1 SWAP3 SWAP2 SWAP1 DUP2 DUP2 MSTORE PUSH1 0x20 ADD DUP3 DUP1 SLOAD PUSH2 0x1F3 SWAP1 PUSH2 0x886 JUMP JUMPDEST DUP1 ISZERO PUSH2 0x23E JUMPI DUP1 PUSH1 0x1F LT PUSH2 0x215 JUMPI PUSH2 0x100 DUP1 DUP4 SLOAD DIV MUL DUP4 MSTORE SWAP2 PUSH1 0x20 ADD SWAP2 PUSH2 0x23E JUMP JUMPDEST DUP3 ADD SWAP2 SWAP1 PUSH0 MSTORE PUSH1 0x20 PUSH0 KECCAK256 SWAP1 JUMPDEST DUP2 SLOAD DUP2 MSTORE SWAP1 PUSH1 0x1 ADD SWAP1 PUSH1 0x20 ADD DUP1 DUP4 GT PUSH2 0x221 JUMPI DUP3 SWAP1 SUB PUSH1 0x1F AND DUP3 ADD SWAP2 JUMPDEST POP POP POP POP POP DUP2 JUMP JUMPDEST PUSH2 0x24E PUSH2 0x5F9 JUMP JUMPDEST PUSH1 0x1 PUSH1 0x1 PUSH1 0xA0 SHL SUB DUP3 AND PUSH2 0x29B JUMPI PUSH1 0x40 MLOAD PUSH3 0x461BCD PUSH1 0xE5 SHL DUP2 MSTORE PUSH1 0x20 PUSH1 0x4 DUP3 ADD MSTORE PUSH1 0xF PUSH1 0x24 DUP3 ADD MSTORE PUSH15 0x496E76616C69642061646472657373 PUSH1 0x88 SHL PUSH1 0x44 DUP3 ADD MSTORE PUSH1 0x64 ADD JUMPDEST PUSH1 0x40 MLOAD DUP1 SWAP2 SUB SWAP1 REVERT JUMPDEST PUSH2 0x2A6 PUSH0 DUP4 DUP4 PUSH2 0x627 JUMP JUMPDEST POP POP JUMP JUMPDEST PUSH0 PUSH1 0x60 DUP1 PUSH0 PUSH1 0x2 SLOAD PUSH1 0x3 PUSH1 0x5 PUSH1 0x4 PUSH0 SWAP1 SLOAD SWAP1 PUSH2 0x100 EXP SWAP1 DIV PUSH1 0xFF AND DUP3 DUP1 SLOAD PUSH2 0x2D1 SWAP1 PUSH2 0x886 JUMP JUMPDEST DUP1 PUSH1 0x1F ADD PUSH1 0x20 DUP1 SWAP2 DIV MUL PUSH1 0x20 ADD PUSH1 0x40 MLOAD SWAP1 DUP2 ADD PUSH1 0x40 MSTORE DUP1 SWAP3 SWAP2 SWAP1 DUP2 DUP2 MSTORE PUSH1 0x20 ADD DUP3 DUP1 SLOAD PUSH2 0x2FD SWAP1 PUSH2 0x886 JUMP JUMPDEST DUP1 ISZERO PUSH2 0x348 JUMPI DUP1 PUSH1 0x1F LT PUSH2 0x31F JUMPI PUSH2 0x100 DUP1 DUP4 SLOAD DIV MUL DUP4 MSTORE SWAP2 PUSH1 0x20 ADD SWAP2 PUSH2 0x348 JUMP JUMPDEST DUP3 ADD SWAP2 SWAP1 PUSH0 MSTORE PUSH1 0x20 PUSH0 KECCAK256 SWAP1 JUMPDEST DUP2 SLOAD DUP2 MSTORE SWAP1 PUSH1 0x1 ADD SWAP1 PUSH1 0x20 ADD DUP1 DUP4 GT PUSH2 0x32B JUMPI DUP3 SWAP1 SUB PUSH1 0x1F AND DUP3 ADD SWAP2 JUMPDEST POP POP POP POP POP SWAP3 POP DUP2 DUP1 SLOAD PUSH2 0x35B SWAP1 PUSH2 0x886 JUMP JUMPDEST DUP1 PUSH1 0x1F ADD PUSH1 0x20 DUP1 SWAP2 DIV MUL PUSH1 0x20 ADD PUSH1 0x40 MLOAD SWAP1 DUP2 ADD PUSH1 0x40 MSTORE DUP1 SWAP3 SWAP2 SWAP1 DUP2 DUP2 MSTORE PUSH1 0x20 ADD DUP3 DUP1 SLOAD PUSH2 0x387 SWAP1 PUSH2 0x886 JUMP JUMPDEST DUP1 ISZERO PUSH2 0x3D2 JUMPI DUP1 PUSH1 0x1F LT PUSH2 0x3A9 JUMPI PUSH2 0x100 DUP1 DUP4 SLOAD DIV MUL DUP4 MSTORE SWAP2 PUSH1 0x20 ADD SWAP2 PUSH2 0x3D2 JUMP JUMPDEST DUP3 ADD SWAP2 SWAP1 PUSH0 MSTORE PUSH1 0x20 PUSH0 KECCAK256 SWAP1 JUMPDEST DUP2 SLOAD DUP2 MSTORE SWAP1 PUSH1 0x1 ADD SWAP1 PUSH1 0x20 ADD DUP1 DUP4 GT PUSH2 0x3B5 JUMPI DUP3 SWAP1 SUB PUSH1 0x1F AND DUP3 ADD SWAP2 JUMPDEST POP SWAP8 SWAP13 SWAP7 SWAP12 POP SWAP3 SWAP10 POP POP PUSH1 0xFF SWAP1 SWAP3 AND SWAP7 POP SWAP3 SWAP5 POP POP POP POP POP JUMP JUMPDEST PUSH1 0x5 DUP1 SLOAD PUSH2 0x1C7 SWAP1 PUSH2 0x886 JUMP JUMPDEST PUSH2 0x401 PUSH2 0x5F9 JUMP JUMPDEST PUSH1 0x1 PUSH1 0x1 PUSH1 0xA0 SHL SUB DUP3 AND PUSH2 0x44A JUMPI PUSH1 0x40 MLOAD PUSH3 0x461BCD PUSH1 0xE5 SHL DUP2 MSTORE PUSH1 0x20 PUSH1 0x4 DUP3 ADD MSTORE PUSH1 0x10 PUSH1 0x24 DUP3 ADD MSTORE PUSH16 0x496E76616C6964206163636F756E7421 PUSH1 0x80 SHL PUSH1 0x44 DUP3 ADD MSTORE PUSH1 0x64 ADD PUSH2 0x292 JUMP JUMPDEST PUSH2 0x2A6 DUP3 PUSH0 DUP4 PUSH2 0x627 JUMP JUMPDEST CALLER PUSH0 SWAP1 DUP2 MSTORE PUSH1 0x1 PUSH1 0x20 MSTORE PUSH1 0x40 DUP2 KECCAK256 SLOAD DUP3 GT ISZERO PUSH2 0x4CB JUMPI PUSH1 0x40 MLOAD PUSH3 0x461BCD PUSH1 0xE5 SHL DUP2 MSTORE PUSH1 0x20 PUSH1 0x4 DUP3 ADD MSTORE PUSH1 0x2F PUSH1 0x24 DUP3 ADD MSTORE PUSH32 0x746F6B656E2062616C616E6365206973206C6F776572207468616E2074686520 PUSH1 0x44 DUP3 ADD MSTORE PUSH15 0x1D985B1D59481C995C5D595CDD1959 PUSH1 0x8A SHL PUSH1 0x64 DUP3 ADD MSTORE PUSH1 0x84 ADD PUSH2 0x292 JUMP JUMPDEST PUSH1 0x1 PUSH1 0x1 PUSH1 0xA0 SHL SUB DUP4 AND CALLER SUB PUSH2 0x523 JUMPI PUSH1 0x40 MLOAD PUSH3 0x461BCD PUSH1 0xE5 SHL DUP2 MSTORE PUSH1 0x20 PUSH1 0x4 DUP3 ADD MSTORE PUSH1 0x1B PUSH1 0x24 DUP3 ADD MSTORE PUSH32 0x596F752063616E27742073656E6420746F20796F757273656C66210000000000 PUSH1 0x44 DUP3 ADD MSTORE PUSH1 0x64 ADD PUSH2 0x292 JUMP JUMPDEST CALLER PUSH0 SWAP1 DUP2 MSTORE PUSH1 0x1 PUSH1 0x20 MSTORE PUSH1 0x40 DUP2 KECCAK256 DUP1 SLOAD DUP5 SWAP3 SWAP1 PUSH2 0x541 SWAP1 DUP5 SWAP1 PUSH2 0x8D2 JUMP JUMPDEST SWAP1 SWAP2 SSTORE POP POP PUSH1 0x1 PUSH1 0x1 PUSH1 0xA0 SHL SUB DUP4 AND PUSH0 SWAP1 DUP2 MSTORE PUSH1 0x1 PUSH1 0x20 MSTORE PUSH1 0x40 DUP2 KECCAK256 DUP1 SLOAD DUP5 SWAP3 SWAP1 PUSH2 0x56D SWAP1 DUP5 SWAP1 PUSH2 0x8E5 JUMP JUMPDEST SWAP1 SWAP2 SSTORE POP POP PUSH1 0x40 MLOAD DUP3 DUP2 MSTORE PUSH1 0x1 PUSH1 0x1 PUSH1 0xA0 SHL SUB DUP5 AND SWAP1 CALLER SWAP1 PUSH32 0xDDF252AD1BE2C89B69C2B068FC378DAA952BA7F163C4A11628F55A4DF523B3EF SWAP1 PUSH1 0x20 ADD PUSH1 0x40 MLOAD DUP1 SWAP2 SUB SWAP1 LOG3 POP PUSH1 0x1 JUMPDEST SWAP3 SWAP2 POP POP JUMP JUMPDEST PUSH2 0x5C4 PUSH2 0x5F9 JUMP JUMPDEST PUSH1 0x1 PUSH1 0x1 PUSH1 0xA0 SHL SUB DUP2 AND PUSH2 0x5ED JUMPI PUSH1 0x40 MLOAD PUSH4 0x1E4FBDF7 PUSH1 0xE0 SHL DUP2 MSTORE PUSH0 PUSH1 0x4 DUP3 ADD MSTORE PUSH1 0x24 ADD PUSH2 0x292 JUMP JUMPDEST PUSH2 0x5F6 DUP2 PUSH2 0x758 JUMP JUMPDEST POP JUMP JUMPDEST PUSH0 SLOAD PUSH1 0x1 PUSH1 0x1 PUSH1 0xA0 SHL SUB AND CALLER EQ PUSH2 0x625 JUMPI PUSH1 0x40 MLOAD PUSH4 0x118CDAA7 PUSH1 0xE0 SHL DUP2 MSTORE CALLER PUSH1 0x4 DUP3 ADD MSTORE PUSH1 0x24 ADD PUSH2 0x292 JUMP JUMPDEST JUMP JUMPDEST PUSH1 0x1 PUSH1 0x1 PUSH1 0xA0 SHL SUB DUP4 AND PUSH2 0x651 JUMPI DUP1 PUSH1 0x2 PUSH0 DUP3 DUP3 SLOAD PUSH2 0x646 SWAP2 SWAP1 PUSH2 0x8E5 JUMP JUMPDEST SWAP1 SWAP2 SSTORE POP PUSH2 0x6CC SWAP1 POP JUMP JUMPDEST PUSH1 0x1 PUSH1 0x1 PUSH1 0xA0 SHL SUB DUP4 AND PUSH0 SWAP1 DUP2 MSTORE PUSH1 0x1 PUSH1 0x20 MSTORE PUSH1 0x40 SWAP1 KECCAK256 SLOAD DUP2 DUP2 GT PUSH2 0x6AE JUMPI PUSH1 0x40 MLOAD PUSH3 0x461BCD PUSH1 0xE5 SHL DUP2 MSTORE PUSH1 0x20 PUSH1 0x4 DUP3 ADD MSTORE PUSH1 0x13 PUSH1 0x24 DUP3 ADD MSTORE PUSH19 0x24B739BAB334B2B73A10252B21903A37B5B2B7 PUSH1 0x69 SHL PUSH1 0x44 DUP3 ADD MSTORE PUSH1 0x64 ADD PUSH2 0x292 JUMP JUMPDEST PUSH1 0x1 PUSH1 0x1 PUSH1 0xA0 SHL SUB DUP5 AND PUSH0 SWAP1 DUP2 MSTORE PUSH1 0x1 PUSH1 0x20 MSTORE PUSH1 0x40 SWAP1 KECCAK256 SWAP1 DUP3 SWAP1 SUB SWAP1 SSTORE JUMPDEST PUSH1 0x1 PUSH1 0x1 PUSH1 0xA0 SHL SUB DUP3 AND PUSH2 0x6E8 JUMPI PUSH1 0x2 DUP1 SLOAD DUP3 SWAP1 SUB SWAP1 SSTORE PUSH2 0x706 JUMP JUMPDEST PUSH1 0x1 PUSH1 0x1 PUSH1 0xA0 SHL SUB DUP3 AND PUSH0 SWAP1 DUP2 MSTORE PUSH1 0x1 PUSH1 0x20 MSTORE PUSH1 0x40 SWAP1 KECCAK256 DUP1 SLOAD DUP3 ADD SWAP1 SSTORE JUMPDEST DUP2 PUSH1 0x1 PUSH1 0x1 PUSH1 0xA0 SHL SUB AND DUP4 PUSH1 0x1 PUSH1 0x1 PUSH1 0xA0 SHL SUB AND PUSH32 0xDDF252AD1BE2C89B69C2B068FC378DAA952BA7F163C4A11628F55A4DF523B3EF DUP4 PUSH1 0x40 MLOAD PUSH2 0x74B SWAP2 DUP2 MSTORE PUSH1 0x20 ADD SWAP1 JUMP JUMPDEST PUSH1 0x40 MLOAD DUP1 SWAP2 SUB SWAP1 LOG3 POP POP POP JUMP JUMPDEST PUSH0 DUP1 SLOAD PUSH1 0x1 PUSH1 0x1 PUSH1 0xA0 SHL SUB DUP4 DUP2 AND PUSH1 0x1 PUSH1 0x1 PUSH1 0xA0 SHL SUB NOT DUP4 AND DUP2 OR DUP5 SSTORE PUSH1 0x40 MLOAD SWAP2 SWAP1 SWAP3 AND SWAP3 DUP4 SWAP2 PUSH32 0x8BE0079C531659141344CD1FD0A4F28419497F9722A3DAAFE3B4186F6B6457E0 SWAP2 SWAP1 LOG3 POP POP JUMP JUMPDEST DUP1 CALLDATALOAD PUSH1 0x1 PUSH1 0x1 PUSH1 0xA0 SHL SUB DUP2 AND DUP2 EQ PUSH2 0x7BD JUMPI PUSH0 DUP1 REVERT JUMPDEST SWAP2 SWAP1 POP JUMP JUMPDEST PUSH0 PUSH1 0x20 DUP3 DUP5 SUB SLT ISZERO PUSH2 0x7D2 JUMPI PUSH0 DUP1 REVERT JUMPDEST PUSH2 0x7DB DUP3 PUSH2 0x7A7 JUMP JUMPDEST SWAP4 SWAP3 POP POP POP JUMP JUMPDEST PUSH0 DUP2 MLOAD DUP1 DUP5 MSTORE DUP1 PUSH1 0x20 DUP5 ADD PUSH1 0x20 DUP7 ADD MCOPY PUSH0 PUSH1 0x20 DUP3 DUP7 ADD ADD MSTORE PUSH1 0x20 PUSH1 0x1F NOT PUSH1 0x1F DUP4 ADD AND DUP6 ADD ADD SWAP2 POP POP SWAP3 SWAP2 POP POP JUMP JUMPDEST PUSH1 0x20 DUP2 MSTORE PUSH0 PUSH2 0x7DB PUSH1 0x20 DUP4 ADD DUP5 PUSH2 0x7E2 JUMP JUMPDEST PUSH0 DUP1 PUSH1 0x40 DUP4 DUP6 SUB SLT ISZERO PUSH2 0x833 JUMPI PUSH0 DUP1 REVERT JUMPDEST PUSH2 0x83C DUP4 PUSH2 0x7A7 JUMP JUMPDEST SWAP5 PUSH1 0x20 SWAP4 SWAP1 SWAP4 ADD CALLDATALOAD SWAP4 POP POP POP JUMP JUMPDEST DUP5 DUP2 MSTORE PUSH1 0x80 PUSH1 0x20 DUP3 ADD MSTORE PUSH0 PUSH2 0x862 PUSH1 0x80 DUP4 ADD DUP7 PUSH2 0x7E2 JUMP JUMPDEST DUP3 DUP2 SUB PUSH1 0x40 DUP5 ADD MSTORE PUSH2 0x874 DUP2 DUP7 PUSH2 0x7E2 JUMP JUMPDEST SWAP2 POP POP DUP3 PUSH1 0x60 DUP4 ADD MSTORE SWAP6 SWAP5 POP POP POP POP POP JUMP JUMPDEST PUSH1 0x1 DUP2 DUP2 SHR SWAP1 DUP3 AND DUP1 PUSH2 0x89A JUMPI PUSH1 0x7F DUP3 AND SWAP2 POP JUMPDEST PUSH1 0x20 DUP3 LT DUP2 SUB PUSH2 0x8B8 JUMPI PUSH4 0x4E487B71 PUSH1 0xE0 SHL PUSH0 MSTORE PUSH1 0x22 PUSH1 0x4 MSTORE PUSH1 0x24 PUSH0 REVERT JUMPDEST POP SWAP2 SWAP1 POP JUMP JUMPDEST PUSH4 0x4E487B71 PUSH1 0xE0 SHL PUSH0 MSTORE PUSH1 0x11 PUSH1 0x4 MSTORE PUSH1 0x24 PUSH0 REVERT JUMPDEST DUP2 DUP2 SUB DUP2 DUP2 GT ISZERO PUSH2 0x5B6 JUMPI PUSH2 0x5B6 PUSH2 0x8BE JUMP JUMPDEST DUP1 DUP3 ADD DUP1 DUP3 GT ISZERO PUSH2 0x5B6 JUMPI PUSH2 0x5B6 PUSH2 0x8BE JUMP INVALID LOG2 PUSH5 0x6970667358 0x22 SLT KECCAK256 PUSH24 0x33C5E2EBFFAAB2ABB3F36133D93DBDFE01567791E78FE32B EQ 0xB6 0xCC 0xCB 0xE0 CALLCODE PUSH11 0x64736F6C634300081A0033 "
				},
				"gasEstimates": {
					"creation": {
						"codeDepositCost": "470000",
						"executionCost": "infinite",
						"totalCost": "infinite"
					},
					"external": {
						"burn(address,uint256)": "53207",
						"checkBalanceOf(address)": "2524",
						"decimals()": "2379",
						"mint(address,uint256)": "53199",
						"name()": "infinite",
						"owner()": "2321",
						"symbol()": "infinite",
						"tokenInfo()": "infinite",
						"totalSupply()": "2328",
						"transfer(address,uint256)": "infinite",
						"transferOwnership(address)": "28439"
					},
					"internal": {
						"_update(address,address,uint256)": "infinite"
					}
				},
				"methodIdentifiers": {
					"burn(address,uint256)": "9dc29fac",
					"checkBalanceOf(address)": "03147f39",
					"decimals()": "313ce567",
					"mint(address,uint256)": "40c10f19",
					"name()": "06fdde03",
					"owner()": "8da5cb5b",
					"symbol()": "95d89b41",
					"tokenInfo()": "6addb663",
					"totalSupply()": "18160ddd",
					"transfer(address,uint256)": "a9059cbb",
					"transferOwnership(address)": "f2fde38b"
				}
			},
			"storageLayout": {
				"storage": [
					{
						"astId": 8,
						"contract": "contracts/token.sol:JVCToken",
						"label": "_owner",
						"offset": 0,
						"slot": "0",
						"type": "t_address"
					},
					{
						"astId": 195,
						"contract": "contracts/token.sol:JVCToken",
						"label": "balances",
						"offset": 0,
						"slot": "1",
						"type": "t_mapping(t_address,t_uint256)"
					},
					{
						"astId": 197,
						"contract": "contracts/token.sol:JVCToken",
						"label": "totalSupply",
						"offset": 0,
						"slot": "2",
						"type": "t_uint256"
					},
					{
						"astId": 199,
						"contract": "contracts/token.sol:JVCToken",
						"label": "name",
						"offset": 0,
						"slot": "3",
						"type": "t_string_storage"
					},
					{
						"astId": 201,
						"contract": "contracts/token.sol:JVCToken",
						"label": "decimals",
						"offset": 0,
						"slot": "4",
						"type": "t_uint8"
					},
					{
						"astId": 203,
						"contract": "contracts/token.sol:JVCToken",
						"label": "symbol",
						"offset": 0,
						"slot": "5",
						"type": "t_string_storage"
					}
				],
				"types": {
					"t_address": {
						"encoding": "inplace",
						"label": "address",
						"numberOfBytes": "20"
					},
					"t_mapping(t_address,t_uint256)": {
						"encoding": "mapping",
						"key": "t_address",
						"label": "mapping(address => uint256)",
						"numberOfBytes": "32",
						"value": "t_uint256"
					},
					"t_string_storage": {
						"encoding": "bytes",
						"label": "string",
						"numberOfBytes": "32"
					},
					"t_uint256": {
						"encoding": "inplace",
						"label": "uint256",
						"numberOfBytes": "32"
					},
					"t_uint8": {
						"encoding": "inplace",
						"label": "uint8",
						"numberOfBytes": "1"
					}
				}
			},
			"userdoc": {
				"kind": "user",
				"methods": {},
				"version": 1
			}
		}
	}
}