{
	"contracts/token.sol": {
		"JVCToken": {
			"abi": [
				{
					"inputs": [],
					"stateMutability": "nonpayable",
					"type": "constructor"
				},
				{
					"inputs": [
						{
							"internalType": "address",
							"name": "owner",
							"type": "address"
						}
					],
					"name": "OwnableInvalidOwner",
					"type": "error"
				},
				{
					"inputs": [
						{
							"internalType": "address",
							"name": "account",
							"type": "address"
						}
					],
					"name": "OwnableUnauthorizedAccount",
					"type": "error"
				},
				{
					"anonymous": false,
					"inputs": [
						{
							"indexed": true,
							"internalType": "address",
							"name": "previousOwner",
							"type": "address"
						},
						{
							"indexed": true,
							"internalType": "address",
							"name": "newOwner",
							"type": "address"
						}
					],
					"name": "OwnershipTransferred",
					"type": "event"
				},
				{
					"anonymous": false,
					"inputs": [
						{
							"indexed": true,
							"internalType": "address",
							"name": "_from",
							"type": "address"
						},
						{
							"indexed": true,
							"internalType": "address",
							"name": "_to",
							"type": "address"
						},
						{
							"indexed": false,
							"internalType": "uint256",
							"name": "_value",
							"type": "uint256"
						}
					],
					"name": "Transfer",
					"type": "event"
				},
				{
					"inputs": [
						{
							"internalType": "address",
							"name": "account",
							"type": "address"
						},
						{
							"internalType": "uint256",
							"name": "value",
							"type": "uint256"
						}
					],
					"name": "burn",
					"outputs": [],
					"stateMutability": "nonpayable",
					"type": "function"
				},
				{
					"inputs": [
						{
							"internalType": "address",
							"name": "_owner",
							"type": "address"
						}
					],
					"name": "checkBalanceOf",
					"outputs": [
						{
							"internalType": "uint256",
							"name": "balance",
							"type": "uint256"
						}
					],
					"stateMutability": "view",
					"type": "function"
				},
				{
					"inputs": [],
					"name": "decimals",
					"outputs": [
						{
							"internalType": "uint8",
							"name": "",
							"type": "uint8"
						}
					],
					"stateMutability": "view",
					"type": "function"
				},
				{
					"inputs": [
						{
							"internalType": "address",
							"name": "account",
							"type": "address"
						},
						{
							"internalType": "uint256",
							"name": "value",
							"type": "uint256"
						}
					],
					"name": "mint",
					"outputs": [],
					"stateMutability": "nonpayable",
					"type": "function"
				},
				{
					"inputs": [],
					"name": "name",
					"outputs": [
						{
							"internalType": "string",
							"name": "",
							"type": "string"
						}
					],
					"stateMutability": "view",
					"type": "function"
				},
				{
					"inputs": [],
					"name": "owner",
					"outputs": [
						{
							"internalType": "address",
							"name": "",
							"type": "address"
						}
					],
					"stateMutability": "view",
					"type": "function"
				},
				{
					"inputs": [],
					"name": "symbol",
					"outputs": [
						{
							"internalType": "string",
							"name": "",
							"type": "string"
						}
					],
					"stateMutability": "view",
					"type": "function"
				},
				{
					"inputs": [],
					"name": "tokenInfo",
					"outputs": [
						{
							"internalType": "uint256",
							"name": "",
							"type": "uint256"
						},
						{
							"internalType": "string",
							"name": "",
							"type": "string"
						},
						{
							"internalType": "string",
							"name": "",
							"type": "string"
						},
						{
							"internalType": "uint256",
							"name": "",
							"type": "uint256"
						}
					],
					"stateMutability": "nonpayable",
					"type": "function"
				},
				{
					"inputs": [],
					"name": "totalSupply",
					"outputs": [
						{
							"internalType": "uint256",
							"name": "",
							"type": "uint256"
						}
					],
					"stateMutability": "view",
					"type": "function"
				},
				{
					"inputs": [
						{
							"internalType": "address payable",
							"name": "_to",
							"type": "address"
						},
						{
							"internalType": "uint256",
							"name": "_value",
							"type": "uint256"
						}
					],
					"name": "transfer",
					"outputs": [
						{
							"internalType": "bool",
							"name": "success",
							"type": "bool"
						}
					],
					"stateMutability": "payable",
					"type": "function"
				},
				{
					"inputs": [
						{
							"internalType": "address",
							"name": "newOwner",
							"type": "address"
						}
					],
					"name": "transferOwnership",
					"outputs": [],
					"stateMutability": "nonpayable",
					"type": "function"
				}
			],
			"devdoc": {
				"errors": {
					"OwnableInvalidOwner(address)": [
						{
							"details": "The owner is not a valid owner account. (eg. `address(0)`)"
						}
					],
					"OwnableUnauthorizedAccount(address)": [
						{
							"details": "The caller account is not authorized to perform an operation."
						}
					]
				},
				"kind": "dev",
				"methods": {
					"owner()": {
						"details": "Returns the address of the current owner."
					},
					"transferOwnership(address)": {
						"details": "Transfers ownership of the contract to a new account (`newOwner`). Can only be called by the current owner."
					}
				},
				"version": 1
			},
			"evm": {
				"assembly": "    /* \"contracts/token.sol\":122:3029  contract JVCToken is Ownable {... */\n  mstore(0x40, 0x80)\n    /* \"contracts/token.sol\":443:643  constructor() Ownable(msg.sender) {... */\n  callvalue\n  dup1\n  iszero\n  tag_1\n  jumpi\n  0x00\n  dup1\n  revert\ntag_1:\n  pop\n    /* \"contracts/token.sol\":465:475  msg.sender */\n  caller\n  dup1\n    /* \"@openzeppelin/contracts/access/Ownable.sol\":1269:1364  if (initialOwner == address(0)) {... */\n  tag_5\n  jumpi\n    /* \"@openzeppelin/contracts/access/Ownable.sol\":1322:1353  OwnableInvalidOwner(address(0)) */\n  mload(0x40)\n  shl(0xe0, 0x1e4fbdf7)\n  dup2\n  mstore\n    /* \"@openzeppelin/contracts/access/Ownable.sol\":1350:1351  0 */\n  0x00\n    /* \"@openzeppelin/contracts/access/Ownable.sol\":1322:1353  OwnableInvalidOwner(address(0)) */\n  0x04\n  dup3\n  add\n    /* \"#utility.yul\":160:211   */\n  mstore\n    /* \"#utility.yul\":133:151   */\n  0x24\n  add\n    /* \"@openzeppelin/contracts/access/Ownable.sol\":1322:1353  OwnableInvalidOwner(address(0)) */\n  mload(0x40)\n  dup1\n  swap2\n  sub\n  swap1\n  revert\n    /* \"@openzeppelin/contracts/access/Ownable.sol\":1269:1364  if (initialOwner == address(0)) {... */\ntag_5:\n    /* \"@openzeppelin/contracts/access/Ownable.sol\":1373:1405  _transferOwnership(initialOwner) */\n  tag_8\n    /* \"@openzeppelin/contracts/access/Ownable.sol\":1392:1404  initialOwner */\n  dup2\n    /* \"@openzeppelin/contracts/access/Ownable.sol\":1373:1391  _transferOwnership */\n  tag_9\n    /* \"@openzeppelin/contracts/access/Ownable.sol\":1373:1405  _transferOwnership(initialOwner) */\n  jump\t// in\ntag_8:\n  pop\n    /* \"contracts/token.sol\":497:507  msg.sender */\n  caller\n    /* \"contracts/token.sol\":488:508  balances[msg.sender] */\n  0x00\n  swap1\n  dup2\n  mstore\n    /* \"contracts/token.sol\":488:496  balances */\n  0x01\n    /* \"contracts/token.sol\":488:508  balances[msg.sender] */\n  0x20\n  swap1\n  dup2\n  mstore\n  0x40\n  swap2\n  dup3\n  swap1\n  keccak256\n    /* \"contracts/token.sol\":511:513  10 */\n  0x0a\n    /* \"contracts/token.sol\":488:513  balances[msg.sender] = 10 */\n  swap1\n  dup2\n  swap1\n  sstore\n    /* \"contracts/token.sol\":524:535  totalSupply */\n  0x02\n    /* \"contracts/token.sol\":524:558  totalSupply = balances[msg.sender] */\n  sstore\n    /* \"contracts/token.sol\":569:586  name = \"JVCToken\" */\n  dup2\n  mload\n  dup1\n  dup4\n  add\n  swap1\n  swap3\n  mstore\n  0x08\n  dup3\n  mstore\n  shl(0xc1, 0x252b21aa37b5b2b7)\n  swap1\n  dup3\n  add\n  mstore\n    /* \"contracts/token.sol\":569:573  name */\n  0x03\n  swap1\n    /* \"contracts/token.sol\":569:586  name = \"JVCToken\" */\n  tag_11\n  swap1\n    /* \"contracts/token.sol\":569:573  name */\n  dup3\n    /* \"contracts/token.sol\":569:586  name = \"JVCToken\" */\n  tag_12\n  jump\t// in\ntag_11:\n  pop\n    /* \"contracts/token.sol\":597:605  decimals */\n  0x04\n    /* \"contracts/token.sol\":597:610  decimals = 18 */\n  dup1\n  sload\n  not(0xff)\n  and\n    /* \"contracts/token.sol\":608:610  18 */\n  0x12\n    /* \"contracts/token.sol\":597:610  decimals = 18 */\n  or\n  swap1\n  sstore\n    /* \"contracts/token.sol\":621:635  symbol = \"JVC\" */\n  0x40\n  dup1\n  mload\n  dup1\n  dup3\n  add\n  swap1\n  swap2\n  mstore\n  0x03\n  dup2\n  mstore\n  shl(0xe8, 0x4a5643)\n  0x20\n  dup3\n  add\n  mstore\n    /* \"contracts/token.sol\":621:627  symbol */\n  0x05\n  swap1\n    /* \"contracts/token.sol\":621:635  symbol = \"JVC\" */\n  tag_13\n  swap1\n    /* \"contracts/token.sol\":621:627  symbol */\n  dup3\n    /* \"contracts/token.sol\":621:635  symbol = \"JVC\" */\n  tag_12\n  jump\t// in\ntag_13:\n  pop\n    /* \"contracts/token.sol\":122:3029  contract JVCToken is Ownable {... */\n  jump(tag_21)\n    /* \"@openzeppelin/contracts/access/Ownable.sol\":2921:3108  function _transferOwnership(address newOwner) internal virtual {... */\ntag_9:\n    /* \"@openzeppelin/contracts/access/Ownable.sol\":2994:3010  address oldOwner */\n  0x00\n    /* \"@openzeppelin/contracts/access/Ownable.sol\":3013:3019  _owner */\n  dup1\n  sload\n  sub(shl(0xa0, 0x01), 0x01)\n    /* \"@openzeppelin/contracts/access/Ownable.sol\":3029:3046  _owner = newOwner */\n  dup4\n  dup2\n  and\n  not(sub(shl(0xa0, 0x01), 0x01))\n  dup4\n  and\n  dup2\n  or\n  dup5\n  sstore\n    /* \"@openzeppelin/contracts/access/Ownable.sol\":3061:3101  OwnershipTransferred(oldOwner, newOwner) */\n  mload(0x40)\n    /* \"@openzeppelin/contracts/access/Ownable.sol\":3013:3019  _owner */\n  swap2\n  swap1\n  swap3\n  and\n  swap3\n  dup4\n  swap2\n    /* \"@openzeppelin/contracts/access/Ownable.sol\":3061:3101  OwnershipTransferred(oldOwner, newOwner) */\n  0x8be0079c531659141344cd1fd0a4f28419497f9722a3daafe3b4186f6b6457e0\n  swap2\n    /* \"@openzeppelin/contracts/access/Ownable.sol\":2994:3010  address oldOwner */\n  swap1\n    /* \"@openzeppelin/contracts/access/Ownable.sol\":3061:3101  OwnershipTransferred(oldOwner, newOwner) */\n  log3\n    /* \"@openzeppelin/contracts/access/Ownable.sol\":2984:3108  {... */\n  pop\n    /* \"@openzeppelin/contracts/access/Ownable.sol\":2921:3108  function _transferOwnership(address newOwner) internal virtual {... */\n  pop\n  jump\t// out\n    /* \"#utility.yul\":222:349   */\ntag_16:\n    /* \"#utility.yul\":283:293   */\n  0x4e487b71\n    /* \"#utility.yul\":278:281   */\n  0xe0\n    /* \"#utility.yul\":274:294   */\n  shl\n    /* \"#utility.yul\":271:272   */\n  0x00\n    /* \"#utility.yul\":264:295   */\n  mstore\n    /* \"#utility.yul\":314:318   */\n  0x41\n    /* \"#utility.yul\":311:312   */\n  0x04\n    /* \"#utility.yul\":304:319   */\n  mstore\n    /* \"#utility.yul\":338:342   */\n  0x24\n    /* \"#utility.yul\":335:336   */\n  0x00\n    /* \"#utility.yul\":328:343   */\n  revert\n    /* \"#utility.yul\":354:734   */\ntag_17:\n    /* \"#utility.yul\":433:434   */\n  0x01\n    /* \"#utility.yul\":429:441   */\n  dup2\n  dup2\n  shr\n  swap1\n    /* \"#utility.yul\":476:488   */\n  dup3\n  and\n  dup1\n    /* \"#utility.yul\":497:558   */\n  tag_25\n  jumpi\n    /* \"#utility.yul\":551:555   */\n  0x7f\n    /* \"#utility.yul\":543:549   */\n  dup3\n    /* \"#utility.yul\":539:556   */\n  and\n    /* \"#utility.yul\":529:556   */\n  swap2\n  pop\n    /* \"#utility.yul\":497:558   */\ntag_25:\n    /* \"#utility.yul\":604:606   */\n  0x20\n    /* \"#utility.yul\":596:602   */\n  dup3\n    /* \"#utility.yul\":593:607   */\n  lt\n    /* \"#utility.yul\":573:591   */\n  dup2\n    /* \"#utility.yul\":570:608   */\n  sub\n    /* \"#utility.yul\":567:728   */\n  tag_26\n  jumpi\n    /* \"#utility.yul\":650:660   */\n  0x4e487b71\n    /* \"#utility.yul\":645:648   */\n  0xe0\n    /* \"#utility.yul\":641:661   */\n  shl\n    /* \"#utility.yul\":638:639   */\n  0x00\n    /* \"#utility.yul\":631:662   */\n  mstore\n    /* \"#utility.yul\":685:689   */\n  0x22\n    /* \"#utility.yul\":682:683   */\n  0x04\n    /* \"#utility.yul\":675:690   */\n  mstore\n    /* \"#utility.yul\":713:717   */\n  0x24\n    /* \"#utility.yul\":710:711   */\n  0x00\n    /* \"#utility.yul\":703:718   */\n  revert\n    /* \"#utility.yul\":567:728   */\ntag_26:\n  pop\n    /* \"#utility.yul\":354:734   */\n  swap2\n  swap1\n  pop\n  jump\t// out\n    /* \"#utility.yul\":865:1383   */\ntag_19:\n    /* \"#utility.yul\":967:969   */\n  0x1f\n    /* \"#utility.yul\":962:965   */\n  dup3\n    /* \"#utility.yul\":959:970   */\n  gt\n    /* \"#utility.yul\":956:1377   */\n  iszero\n  tag_29\n  jumpi\n    /* \"#utility.yul\":1003:1008   */\n  dup1\n    /* \"#utility.yul\":1000:1001   */\n  0x00\n    /* \"#utility.yul\":993:1009   */\n  mstore\n    /* \"#utility.yul\":1047:1051   */\n  0x20\n    /* \"#utility.yul\":1044:1045   */\n  0x00\n    /* \"#utility.yul\":1034:1052   */\n  keccak256\n    /* \"#utility.yul\":1117:1119   */\n  0x1f\n    /* \"#utility.yul\":1105:1115   */\n  dup5\n    /* \"#utility.yul\":1101:1120   */\n  add\n    /* \"#utility.yul\":1098:1099   */\n  0x05\n    /* \"#utility.yul\":1094:1121   */\n  shr\n    /* \"#utility.yul\":1088:1092   */\n  dup2\n    /* \"#utility.yul\":1084:1122   */\n  add\n    /* \"#utility.yul\":1153:1157   */\n  0x20\n    /* \"#utility.yul\":1141:1151   */\n  dup6\n    /* \"#utility.yul\":1138:1158   */\n  lt\n    /* \"#utility.yul\":1135:1182   */\n  iszero\n  tag_30\n  jumpi\n  pop\n    /* \"#utility.yul\":1176:1180   */\n  dup1\n    /* \"#utility.yul\":1135:1182   */\ntag_30:\n    /* \"#utility.yul\":1231:1233   */\n  0x1f\n    /* \"#utility.yul\":1226:1229   */\n  dup5\n    /* \"#utility.yul\":1222:1234   */\n  add\n    /* \"#utility.yul\":1219:1220   */\n  0x05\n    /* \"#utility.yul\":1215:1235   */\n  shr\n    /* \"#utility.yul\":1209:1213   */\n  dup3\n    /* \"#utility.yul\":1205:1236   */\n  add\n    /* \"#utility.yul\":1195:1236   */\n  swap2\n  pop\n    /* \"#utility.yul\":1286:1367   */\ntag_31:\n    /* \"#utility.yul\":1304:1306   */\n  dup2\n    /* \"#utility.yul\":1297:1302   */\n  dup2\n    /* \"#utility.yul\":1294:1307   */\n  lt\n    /* \"#utility.yul\":1286:1367   */\n  iszero\n  tag_33\n  jumpi\n    /* \"#utility.yul\":1363:1364   */\n  0x00\n    /* \"#utility.yul\":1349:1365   */\n  dup2\n  sstore\n    /* \"#utility.yul\":1330:1331   */\n  0x01\n    /* \"#utility.yul\":1319:1332   */\n  add\n    /* \"#utility.yul\":1286:1367   */\n  jump(tag_31)\ntag_33:\n    /* \"#utility.yul\":1290:1293   */\n  pop\n  pop\n    /* \"#utility.yul\":956:1377   */\ntag_29:\n    /* \"#utility.yul\":865:1383   */\n  pop\n  pop\n  pop\n  jump\t// out\n    /* \"#utility.yul\":1559:2858   */\ntag_12:\n    /* \"#utility.yul\":1679:1689   */\n  dup2\n  mload\n  sub(shl(0x40, 0x01), 0x01)\n    /* \"#utility.yul\":1701:1731   */\n  dup2\n  gt\n    /* \"#utility.yul\":1698:1754   */\n  iszero\n  tag_37\n  jumpi\n    /* \"#utility.yul\":1734:1752   */\n  tag_37\n  tag_16\n  jump\t// in\ntag_37:\n    /* \"#utility.yul\":1763:1860   */\n  tag_38\n    /* \"#utility.yul\":1853:1859   */\n  dup2\n    /* \"#utility.yul\":1813:1851   */\n  tag_39\n    /* \"#utility.yul\":1845:1849   */\n  dup5\n    /* \"#utility.yul\":1839:1850   */\n  sload\n    /* \"#utility.yul\":1813:1851   */\n  tag_17\n  jump\t// in\ntag_39:\n    /* \"#utility.yul\":1807:1811   */\n  dup5\n    /* \"#utility.yul\":1763:1860   */\n  tag_19\n  jump\t// in\ntag_38:\n    /* \"#utility.yul\":1909:1913   */\n  0x20\n    /* \"#utility.yul\":1940:1942   */\n  0x1f\n    /* \"#utility.yul\":1929:1943   */\n  dup3\n  gt\n    /* \"#utility.yul\":1957:1958   */\n  0x01\n    /* \"#utility.yul\":1952:2601   */\n  dup2\n  eq\n  tag_41\n  jumpi\n    /* \"#utility.yul\":2645:2646   */\n  0x00\n    /* \"#utility.yul\":2662:2668   */\n  dup4\n    /* \"#utility.yul\":2659:2748   */\n  iszero\n  tag_42\n  jumpi\n  pop\n    /* \"#utility.yul\":2714:2733   */\n  dup5\n  dup3\n  add\n    /* \"#utility.yul\":2708:2734   */\n  mload\n    /* \"#utility.yul\":2659:2748   */\ntag_42:\n  not(0x00)\n    /* \"#utility.yul\":1516:1517   */\n  0x03\n    /* \"#utility.yul\":1512:1523   */\n  dup6\n  swap1\n  shl\n    /* \"#utility.yul\":1508:1532   */\n  shr\n    /* \"#utility.yul\":1504:1533   */\n  not\n    /* \"#utility.yul\":1494:1534   */\n  and\n    /* \"#utility.yul\":1540:1541   */\n  0x01\n    /* \"#utility.yul\":1536:1547   */\n  dup5\n  swap1\n  shl\n    /* \"#utility.yul\":1491:1548   */\n  or\n    /* \"#utility.yul\":2761:2842   */\n  dup5\n  sstore\n    /* \"#utility.yul\":1922:2852   */\n  jump(tag_33)\n    /* \"#utility.yul\":1952:2601   */\ntag_41:\n    /* \"#utility.yul\":812:813   */\n  0x00\n    /* \"#utility.yul\":805:819   */\n  dup5\n  dup2\n  mstore\n    /* \"#utility.yul\":849:853   */\n  0x20\n    /* \"#utility.yul\":836:854   */\n  dup2\n  keccak256\n  not(0x1f)\n    /* \"#utility.yul\":1988:2008   */\n  dup6\n  and\n  swap2\n    /* \"#utility.yul\":2106:2328   */\ntag_45:\n    /* \"#utility.yul\":2120:2127   */\n  dup3\n    /* \"#utility.yul\":2117:2118   */\n  dup2\n    /* \"#utility.yul\":2114:2128   */\n  lt\n    /* \"#utility.yul\":2106:2328   */\n  iszero\n  tag_47\n  jumpi\n    /* \"#utility.yul\":2202:2221   */\n  dup8\n  dup6\n  add\n    /* \"#utility.yul\":2196:2222   */\n  mload\n    /* \"#utility.yul\":2181:2223   */\n  dup3\n  sstore\n    /* \"#utility.yul\":2309:2313   */\n  0x20\n    /* \"#utility.yul\":2294:2314   */\n  swap5\n  dup6\n  add\n  swap5\n    /* \"#utility.yul\":2262:2263   */\n  0x01\n    /* \"#utility.yul\":2250:2264   */\n  swap1\n  swap3\n  add\n  swap2\n    /* \"#utility.yul\":2136:2148   */\n  add\n    /* \"#utility.yul\":2106:2328   */\n  jump(tag_45)\ntag_47:\n    /* \"#utility.yul\":2110:2113   */\n  pop\n    /* \"#utility.yul\":2356:2362   */\n  dup5\n    /* \"#utility.yul\":2347:2354   */\n  dup3\n    /* \"#utility.yul\":2344:2363   */\n  lt\n    /* \"#utility.yul\":2341:2542   */\n  iszero\n  tag_48\n  jumpi\n    /* \"#utility.yul\":2417:2436   */\n  dup7\n  dup5\n  add\n    /* \"#utility.yul\":2411:2437   */\n  mload\n  not(0x00)\n    /* \"#utility.yul\":2500:2501   */\n  0x03\n    /* \"#utility.yul\":2496:2510   */\n  dup8\n  swap1\n  shl\n    /* \"#utility.yul\":2512:2515   */\n  0xf8\n    /* \"#utility.yul\":2492:2516   */\n  and\n    /* \"#utility.yul\":2488:2525   */\n  shr\n    /* \"#utility.yul\":2484:2526   */\n  not\n    /* \"#utility.yul\":2469:2527   */\n  and\n    /* \"#utility.yul\":2454:2528   */\n  dup2\n  sstore\n    /* \"#utility.yul\":2341:2542   */\ntag_48:\n  pop\n  pop\n  pop\n  pop\n    /* \"#utility.yul\":2588:2589   */\n  0x01\n    /* \"#utility.yul\":2572:2586   */\n  swap1\n  dup2\n  shl\n    /* \"#utility.yul\":2568:2590   */\n  add\n    /* \"#utility.yul\":2555:2591   */\n  swap1\n  sstore\n  pop\n    /* \"#utility.yul\":1559:2858   */\n  jump\t// out\ntag_21:\n    /* \"contracts/token.sol\":122:3029  contract JVCToken is Ownable {... */\n  dataSize(sub_0)\n  dup1\n  dataOffset(sub_0)\n  0x00\n  codecopy\n  0x00\n  return\nstop\n\nsub_0: assembly {\n        /* \"contracts/token.sol\":122:3029  contract JVCToken is Ownable {... */\n      mstore(0x40, 0x80)\n      jumpi(tag_1, lt(calldatasize, 0x04))\n      shr(0xe0, calldataload(0x00))\n      dup1\n      0x6addb663\n      gt\n      tag_13\n      jumpi\n      dup1\n      0x6addb663\n      eq\n      tag_7\n      jumpi\n      dup1\n      0x8da5cb5b\n      eq\n      tag_8\n      jumpi\n      dup1\n      0x95d89b41\n      eq\n      tag_9\n      jumpi\n      dup1\n      0x9dc29fac\n      eq\n      tag_10\n      jumpi\n      dup1\n      0xa9059cbb\n      eq\n      tag_11\n      jumpi\n      dup1\n      0xf2fde38b\n      eq\n      tag_12\n      jumpi\n      0x00\n      dup1\n      revert\n    tag_13:\n      dup1\n      0x03147f39\n      eq\n      tag_2\n      jumpi\n      dup1\n      0x06fdde03\n      eq\n      tag_3\n      jumpi\n      dup1\n      0x18160ddd\n      eq\n      tag_4\n      jumpi\n      dup1\n      0x313ce567\n      eq\n      tag_5\n      jumpi\n      dup1\n      0x40c10f19\n      eq\n      tag_6\n      jumpi\n    tag_1:\n      0x00\n      dup1\n      revert\n        /* \"contracts/token.sol\":1713:1833  function checkBalanceOf(address _owner) public view returns (uint256 balance) {... */\n    tag_2:\n      callvalue\n      dup1\n      iszero\n      tag_14\n      jumpi\n      0x00\n      dup1\n      revert\n    tag_14:\n      pop\n      tag_15\n      tag_16\n      calldatasize\n      0x04\n      tag_17\n      jump\t// in\n    tag_16:\n      sub(shl(0xa0, 0x01), 0x01)\n        /* \"contracts/token.sol\":1809:1825  balances[_owner] */\n      and\n        /* \"contracts/token.sol\":1774:1789  uint256 balance */\n      0x00\n        /* \"contracts/token.sol\":1809:1825  balances[_owner] */\n      swap1\n      dup2\n      mstore\n        /* \"contracts/token.sol\":1809:1817  balances */\n      0x01\n        /* \"contracts/token.sol\":1809:1825  balances[_owner] */\n      0x20\n      mstore\n      0x40\n      swap1\n      keccak256\n      sload\n      swap1\n        /* \"contracts/token.sol\":1713:1833  function checkBalanceOf(address _owner) public view returns (uint256 balance) {... */\n      jump\n    tag_15:\n      mload(0x40)\n        /* \"#utility.yul\":548:573   */\n      swap1\n      dup2\n      mstore\n        /* \"#utility.yul\":536:538   */\n      0x20\n        /* \"#utility.yul\":521:539   */\n      add\n        /* \"contracts/token.sol\":1713:1833  function checkBalanceOf(address _owner) public view returns (uint256 balance) {... */\n    tag_19:\n      mload(0x40)\n      dup1\n      swap2\n      sub\n      swap1\n      return\n        /* \"contracts/token.sol\":341:359  string public name */\n    tag_3:\n      callvalue\n      dup1\n      iszero\n      tag_21\n      jumpi\n      0x00\n      dup1\n      revert\n    tag_21:\n      pop\n      tag_22\n      tag_23\n      jump\t// in\n    tag_22:\n      mload(0x40)\n      tag_19\n      swap2\n      swap1\n      tag_25\n      jump\t// in\n        /* \"contracts/token.sol\":308:334  uint256 public totalSupply */\n    tag_4:\n      callvalue\n      dup1\n      iszero\n      tag_26\n      jumpi\n      0x00\n      dup1\n      revert\n    tag_26:\n      pop\n      tag_15\n      sload(0x02)\n      dup2\n      jump\n        /* \"contracts/token.sol\":366:387  uint8 public decimals */\n    tag_5:\n      callvalue\n      dup1\n      iszero\n      tag_30\n      jumpi\n      0x00\n      dup1\n      revert\n    tag_30:\n      pop\n      sload(0x04)\n      tag_31\n      swap1\n      0xff\n      and\n      dup2\n      jump\n    tag_31:\n      mload(0x40)\n        /* \"#utility.yul\":1275:1279   */\n      0xff\n        /* \"#utility.yul\":1263:1280   */\n      swap1\n      swap2\n      and\n        /* \"#utility.yul\":1245:1281   */\n      dup2\n      mstore\n        /* \"#utility.yul\":1233:1235   */\n      0x20\n        /* \"#utility.yul\":1218:1236   */\n      add\n        /* \"contracts/token.sol\":366:387  uint8 public decimals */\n      tag_19\n        /* \"#utility.yul\":1103:1287   */\n      jump\n        /* \"contracts/token.sol\":2091:2278  function mint(address account, uint256 value) external virtual onlyOwner {... */\n    tag_6:\n      callvalue\n      dup1\n      iszero\n      tag_35\n      jumpi\n      0x00\n      dup1\n      revert\n    tag_35:\n      pop\n      tag_36\n      tag_37\n      calldatasize\n      0x04\n      tag_38\n      jump\t// in\n    tag_37:\n      tag_39\n      jump\t// in\n    tag_36:\n      stop\n        /* \"contracts/token.sol\":827:1080  function tokenInfo()... */\n    tag_7:\n      callvalue\n      dup1\n      iszero\n      tag_40\n      jumpi\n      0x00\n      dup1\n      revert\n    tag_40:\n      pop\n      tag_41\n      tag_42\n      jump\t// in\n    tag_41:\n      mload(0x40)\n      tag_19\n      swap5\n      swap4\n      swap3\n      swap2\n      swap1\n      tag_44\n      jump\t// in\n        /* \"@openzeppelin/contracts/access/Ownable.sol\":1638:1723  function owner() public view virtual returns (address) {... */\n    tag_8:\n      callvalue\n      dup1\n      iszero\n      tag_45\n      jumpi\n      0x00\n      dup1\n      revert\n    tag_45:\n      pop\n        /* \"@openzeppelin/contracts/access/Ownable.sol\":1684:1691  address */\n      0x00\n        /* \"@openzeppelin/contracts/access/Ownable.sol\":1710:1716  _owner */\n      sload\n        /* \"@openzeppelin/contracts/access/Ownable.sol\":1638:1723  function owner() public view virtual returns (address) {... */\n      mload(0x40)\n      sub(shl(0xa0, 0x01), 0x01)\n        /* \"@openzeppelin/contracts/access/Ownable.sol\":1710:1716  _owner */\n      swap1\n      swap2\n      and\n        /* \"#utility.yul\":2342:2393   */\n      dup2\n      mstore\n        /* \"#utility.yul\":2330:2332   */\n      0x20\n        /* \"#utility.yul\":2315:2333   */\n      add\n        /* \"@openzeppelin/contracts/access/Ownable.sol\":1638:1723  function owner() public view virtual returns (address) {... */\n      tag_19\n        /* \"#utility.yul\":2196:2399   */\n      jump\n        /* \"contracts/token.sol\":394:414  string public symbol */\n    tag_9:\n      callvalue\n      dup1\n      iszero\n      tag_50\n      jumpi\n      0x00\n      dup1\n      revert\n    tag_50:\n      pop\n      tag_22\n      tag_52\n      jump\t// in\n        /* \"contracts/token.sol\":1868:2056  function burn(address account, uint256 value) external virtual onlyOwner {... */\n    tag_10:\n      callvalue\n      dup1\n      iszero\n      tag_54\n      jumpi\n      0x00\n      dup1\n      revert\n    tag_54:\n      pop\n      tag_36\n      tag_56\n      calldatasize\n      0x04\n      tag_38\n      jump\t// in\n    tag_56:\n      tag_57\n      jump\t// in\n        /* \"contracts/token.sol\":1172:1664  function transfer(address payable _to, uint256 _value) external payable virtual returns (bool success) {... */\n    tag_11:\n      tag_58\n      tag_59\n      calldatasize\n      0x04\n      tag_38\n      jump\t// in\n    tag_59:\n      tag_61\n      jump\t// in\n    tag_58:\n      mload(0x40)\n        /* \"#utility.yul\":2949:2963   */\n      swap1\n      iszero\n        /* \"#utility.yul\":2942:2964   */\n      iszero\n        /* \"#utility.yul\":2924:2965   */\n      dup2\n      mstore\n        /* \"#utility.yul\":2912:2914   */\n      0x20\n        /* \"#utility.yul\":2897:2915   */\n      add\n        /* \"contracts/token.sol\":1172:1664  function transfer(address payable _to, uint256 _value) external payable virtual returns (bool success) {... */\n      tag_19\n        /* \"#utility.yul\":2784:2971   */\n      jump\n        /* \"@openzeppelin/contracts/access/Ownable.sol\":2552:2767  function transferOwnership(address newOwner) public virtual onlyOwner {... */\n    tag_12:\n      callvalue\n      dup1\n      iszero\n      tag_64\n      jumpi\n      0x00\n      dup1\n      revert\n    tag_64:\n      pop\n      tag_36\n      tag_66\n      calldatasize\n      0x04\n      tag_17\n      jump\t// in\n    tag_66:\n      tag_67\n      jump\t// in\n        /* \"contracts/token.sol\":341:359  string public name */\n    tag_23:\n      0x03\n      dup1\n      sload\n      tag_69\n      swap1\n      tag_70\n      jump\t// in\n    tag_69:\n      dup1\n      0x1f\n      add\n      0x20\n      dup1\n      swap2\n      div\n      mul\n      0x20\n      add\n      mload(0x40)\n      swap1\n      dup2\n      add\n      0x40\n      mstore\n      dup1\n      swap3\n      swap2\n      swap1\n      dup2\n      dup2\n      mstore\n      0x20\n      add\n      dup3\n      dup1\n      sload\n      tag_71\n      swap1\n      tag_70\n      jump\t// in\n    tag_71:\n      dup1\n      iszero\n      tag_72\n      jumpi\n      dup1\n      0x1f\n      lt\n      tag_73\n      jumpi\n      0x0100\n      dup1\n      dup4\n      sload\n      div\n      mul\n      dup4\n      mstore\n      swap2\n      0x20\n      add\n      swap2\n      jump(tag_72)\n    tag_73:\n      dup3\n      add\n      swap2\n      swap1\n      0x00\n      mstore\n      keccak256(0x00, 0x20)\n      swap1\n    tag_74:\n      dup2\n      sload\n      dup2\n      mstore\n      swap1\n      0x01\n      add\n      swap1\n      0x20\n      add\n      dup1\n      dup4\n      gt\n      tag_74\n      jumpi\n      dup3\n      swap1\n      sub\n      0x1f\n      and\n      dup3\n      add\n      swap2\n    tag_72:\n      pop\n      pop\n      pop\n      pop\n      pop\n      dup2\n      jump\t// out\n        /* \"contracts/token.sol\":2091:2278  function mint(address account, uint256 value) external virtual onlyOwner {... */\n    tag_39:\n        /* \"@openzeppelin/contracts/access/Ownable.sol\":1531:1544  _checkOwner() */\n      tag_76\n        /* \"@openzeppelin/contracts/access/Ownable.sol\":1531:1542  _checkOwner */\n      tag_77\n        /* \"@openzeppelin/contracts/access/Ownable.sol\":1531:1544  _checkOwner() */\n      jump\t// in\n    tag_76:\n      sub(shl(0xa0, 0x01), 0x01)\n        /* \"contracts/token.sol\":2183:2204  account != address(0) */\n      dup3\n      and\n        /* \"contracts/token.sol\":2175:2224  require(account != address(0), \"Invalid address\") */\n      tag_79\n      jumpi\n      mload(0x40)\n      shl(0xe5, 0x461bcd)\n      dup2\n      mstore\n        /* \"#utility.yul\":3563:3565   */\n      0x20\n        /* \"contracts/token.sol\":2175:2224  require(account != address(0), \"Invalid address\") */\n      0x04\n      dup3\n      add\n        /* \"#utility.yul\":3545:3566   */\n      mstore\n        /* \"#utility.yul\":3602:3604   */\n      0x0f\n        /* \"#utility.yul\":3582:3600   */\n      0x24\n      dup3\n      add\n        /* \"#utility.yul\":3575:3605   */\n      mstore\n      shl(0x88, 0x496e76616c69642061646472657373)\n        /* \"#utility.yul\":3621:3639   */\n      0x44\n      dup3\n      add\n        /* \"#utility.yul\":3614:3659   */\n      mstore\n        /* \"#utility.yul\":3676:3694   */\n      0x64\n      add\n        /* \"contracts/token.sol\":2175:2224  require(account != address(0), \"Invalid address\") */\n    tag_80:\n      mload(0x40)\n      dup1\n      swap2\n      sub\n      swap1\n      revert\n    tag_79:\n        /* \"contracts/token.sol\":2235:2270  _update(address(0), account, value) */\n      tag_82\n        /* \"contracts/token.sol\":2251:2252  0 */\n      0x00\n        /* \"contracts/token.sol\":2255:2262  account */\n      dup4\n        /* \"contracts/token.sol\":2264:2269  value */\n      dup4\n        /* \"contracts/token.sol\":2235:2242  _update */\n      tag_83\n        /* \"contracts/token.sol\":2235:2270  _update(address(0), account, value) */\n      jump\t// in\n    tag_82:\n        /* \"contracts/token.sol\":2091:2278  function mint(address account, uint256 value) external virtual onlyOwner {... */\n      pop\n      pop\n      jump\t// out\n        /* \"contracts/token.sol\":827:1080  function tokenInfo()... */\n    tag_42:\n        /* \"contracts/token.sol\":915:922  uint256 */\n      0x00\n        /* \"contracts/token.sol\":937:950  string memory */\n      0x60\n        /* \"contracts/token.sol\":965:978  string memory */\n      dup1\n        /* \"contracts/token.sol\":993:1000  uint256 */\n      0x00\n        /* \"contracts/token.sol\":1036:1047  totalSupply */\n      sload(0x02)\n        /* \"contracts/token.sol\":1049:1053  name */\n      0x03\n        /* \"contracts/token.sol\":1055:1061  symbol */\n      0x05\n        /* \"contracts/token.sol\":1063:1071  decimals */\n      0x04\n      0x00\n      swap1\n      sload\n      swap1\n      0x0100\n      exp\n      swap1\n      div\n      0xff\n      and\n        /* \"contracts/token.sol\":1028:1072  return (totalSupply, name, symbol, decimals) */\n      dup3\n      dup1\n      sload\n      tag_85\n      swap1\n      tag_70\n      jump\t// in\n    tag_85:\n      dup1\n      0x1f\n      add\n      0x20\n      dup1\n      swap2\n      div\n      mul\n      0x20\n      add\n      mload(0x40)\n      swap1\n      dup2\n      add\n      0x40\n      mstore\n      dup1\n      swap3\n      swap2\n      swap1\n      dup2\n      dup2\n      mstore\n      0x20\n      add\n      dup3\n      dup1\n      sload\n      tag_86\n      swap1\n      tag_70\n      jump\t// in\n    tag_86:\n      dup1\n      iszero\n      tag_87\n      jumpi\n      dup1\n      0x1f\n      lt\n      tag_88\n      jumpi\n      0x0100\n      dup1\n      dup4\n      sload\n      div\n      mul\n      dup4\n      mstore\n      swap2\n      0x20\n      add\n      swap2\n      jump(tag_87)\n    tag_88:\n      dup3\n      add\n      swap2\n      swap1\n      0x00\n      mstore\n      keccak256(0x00, 0x20)\n      swap1\n    tag_89:\n      dup2\n      sload\n      dup2\n      mstore\n      swap1\n      0x01\n      add\n      swap1\n      0x20\n      add\n      dup1\n      dup4\n      gt\n      tag_89\n      jumpi\n      dup3\n      swap1\n      sub\n      0x1f\n      and\n      dup3\n      add\n      swap2\n    tag_87:\n      pop\n      pop\n      pop\n      pop\n      pop\n      swap3\n      pop\n      dup2\n      dup1\n      sload\n      tag_90\n      swap1\n      tag_70\n      jump\t// in\n    tag_90:\n      dup1\n      0x1f\n      add\n      0x20\n      dup1\n      swap2\n      div\n      mul\n      0x20\n      add\n      mload(0x40)\n      swap1\n      dup2\n      add\n      0x40\n      mstore\n      dup1\n      swap3\n      swap2\n      swap1\n      dup2\n      dup2\n      mstore\n      0x20\n      add\n      dup3\n      dup1\n      sload\n      tag_91\n      swap1\n      tag_70\n      jump\t// in\n    tag_91:\n      dup1\n      iszero\n      tag_92\n      jumpi\n      dup1\n      0x1f\n      lt\n      tag_93\n      jumpi\n      0x0100\n      dup1\n      dup4\n      sload\n      div\n      mul\n      dup4\n      mstore\n      swap2\n      0x20\n      add\n      swap2\n      jump(tag_92)\n    tag_93:\n      dup3\n      add\n      swap2\n      swap1\n      0x00\n      mstore\n      keccak256(0x00, 0x20)\n      swap1\n    tag_94:\n      dup2\n      sload\n      dup2\n      mstore\n      swap1\n      0x01\n      add\n      swap1\n      0x20\n      add\n      dup1\n      dup4\n      gt\n      tag_94\n      jumpi\n      dup3\n      swap1\n      sub\n      0x1f\n      and\n      dup3\n      add\n      swap2\n    tag_92:\n      pop\n      swap8\n      swap13\n      swap7\n      swap12\n      pop\n      swap3\n      swap10\n      pop\n      pop\n      0xff\n      swap1\n      swap3\n      and\n      swap7\n      pop\n        /* \"contracts/token.sol\":827:1080  function tokenInfo()... */\n      swap3\n      swap5\n      pop\n      pop\n      pop\n      pop\n      pop\n      jump\t// out\n        /* \"contracts/token.sol\":394:414  string public symbol */\n    tag_52:\n      0x05\n      dup1\n      sload\n      tag_69\n      swap1\n      tag_70\n      jump\t// in\n        /* \"contracts/token.sol\":1868:2056  function burn(address account, uint256 value) external virtual onlyOwner {... */\n    tag_57:\n        /* \"@openzeppelin/contracts/access/Ownable.sol\":1531:1544  _checkOwner() */\n      tag_102\n        /* \"@openzeppelin/contracts/access/Ownable.sol\":1531:1542  _checkOwner */\n      tag_77\n        /* \"@openzeppelin/contracts/access/Ownable.sol\":1531:1544  _checkOwner() */\n      jump\t// in\n    tag_102:\n      sub(shl(0xa0, 0x01), 0x01)\n        /* \"contracts/token.sol\":1960:1981  account != address(0) */\n      dup3\n      and\n        /* \"contracts/token.sol\":1952:2002  require(account != address(0), \"Invalid account!\") */\n      tag_104\n      jumpi\n      mload(0x40)\n      shl(0xe5, 0x461bcd)\n      dup2\n      mstore\n        /* \"#utility.yul\":3907:3909   */\n      0x20\n        /* \"contracts/token.sol\":1952:2002  require(account != address(0), \"Invalid account!\") */\n      0x04\n      dup3\n      add\n        /* \"#utility.yul\":3889:3910   */\n      mstore\n        /* \"#utility.yul\":3946:3948   */\n      0x10\n        /* \"#utility.yul\":3926:3944   */\n      0x24\n      dup3\n      add\n        /* \"#utility.yul\":3919:3949   */\n      mstore\n      shl(0x80, 0x496e76616c6964206163636f756e7421)\n        /* \"#utility.yul\":3965:3983   */\n      0x44\n      dup3\n      add\n        /* \"#utility.yul\":3958:4004   */\n      mstore\n        /* \"#utility.yul\":4021:4039   */\n      0x64\n      add\n        /* \"contracts/token.sol\":1952:2002  require(account != address(0), \"Invalid account!\") */\n      tag_80\n        /* \"#utility.yul\":3705:4045   */\n      jump\n        /* \"contracts/token.sol\":1952:2002  require(account != address(0), \"Invalid account!\") */\n    tag_104:\n        /* \"contracts/token.sol\":2013:2048  _update(account, address(0), value) */\n      tag_82\n        /* \"contracts/token.sol\":2021:2028  account */\n      dup3\n        /* \"contracts/token.sol\":2038:2039  0 */\n      0x00\n        /* \"contracts/token.sol\":2042:2047  value */\n      dup4\n        /* \"contracts/token.sol\":2013:2020  _update */\n      tag_83\n        /* \"contracts/token.sol\":2013:2048  _update(account, address(0), value) */\n      jump\t// in\n        /* \"contracts/token.sol\":1172:1664  function transfer(address payable _to, uint256 _value) external payable virtual returns (bool success) {... */\n    tag_61:\n        /* \"contracts/token.sol\":1303:1313  msg.sender */\n      caller\n        /* \"contracts/token.sol\":1261:1273  bool success */\n      0x00\n        /* \"contracts/token.sol\":1294:1314  balances[msg.sender] */\n      swap1\n      dup2\n      mstore\n        /* \"contracts/token.sol\":1294:1302  balances */\n      0x01\n        /* \"contracts/token.sol\":1294:1314  balances[msg.sender] */\n      0x20\n      mstore\n      0x40\n      dup2\n      keccak256\n      sload\n        /* \"contracts/token.sol\":1294:1324  balances[msg.sender] >= _value */\n      dup3\n      gt\n      iszero\n        /* \"contracts/token.sol\":1286:1376  require(balances[msg.sender] >= _value, \"token balance is lower than the value requested\") */\n      tag_109\n      jumpi\n      mload(0x40)\n      shl(0xe5, 0x461bcd)\n      dup2\n      mstore\n        /* \"#utility.yul\":4252:4254   */\n      0x20\n        /* \"contracts/token.sol\":1286:1376  require(balances[msg.sender] >= _value, \"token balance is lower than the value requested\") */\n      0x04\n      dup3\n      add\n        /* \"#utility.yul\":4234:4255   */\n      mstore\n        /* \"#utility.yul\":4291:4293   */\n      0x2f\n        /* \"#utility.yul\":4271:4289   */\n      0x24\n      dup3\n      add\n        /* \"#utility.yul\":4264:4294   */\n      mstore\n        /* \"#utility.yul\":4330:4364   */\n      0x746f6b656e2062616c616e6365206973206c6f776572207468616e2074686520\n        /* \"#utility.yul\":4310:4328   */\n      0x44\n      dup3\n      add\n        /* \"#utility.yul\":4303:4365   */\n      mstore\n      shl(0x8a, 0x1d985b1d59481c995c5d595cdd1959)\n        /* \"#utility.yul\":4381:4399   */\n      0x64\n      dup3\n      add\n        /* \"#utility.yul\":4374:4419   */\n      mstore\n        /* \"#utility.yul\":4436:4455   */\n      0x84\n      add\n        /* \"contracts/token.sol\":1286:1376  require(balances[msg.sender] >= _value, \"token balance is lower than the value requested\") */\n      tag_80\n        /* \"#utility.yul\":4050:4461   */\n      jump\n        /* \"contracts/token.sol\":1286:1376  require(balances[msg.sender] >= _value, \"token balance is lower than the value requested\") */\n    tag_109:\n      sub(shl(0xa0, 0x01), 0x01)\n        /* \"contracts/token.sol\":1395:1412  msg.sender != _to */\n      dup4\n      and\n        /* \"contracts/token.sol\":1395:1405  msg.sender */\n      caller\n        /* \"contracts/token.sol\":1395:1412  msg.sender != _to */\n      sub\n        /* \"contracts/token.sol\":1387:1464  require(msg.sender != _to, \"Hold on, you wan deposit to yourself. Dey play!\") */\n      tag_112\n      jumpi\n      mload(0x40)\n      shl(0xe5, 0x461bcd)\n      dup2\n      mstore\n        /* \"#utility.yul\":4668:4670   */\n      0x20\n        /* \"contracts/token.sol\":1387:1464  require(msg.sender != _to, \"Hold on, you wan deposit to yourself. Dey play!\") */\n      0x04\n      dup3\n      add\n        /* \"#utility.yul\":4650:4671   */\n      mstore\n        /* \"#utility.yul\":4707:4709   */\n      0x2f\n        /* \"#utility.yul\":4687:4705   */\n      0x24\n      dup3\n      add\n        /* \"#utility.yul\":4680:4710   */\n      mstore\n        /* \"#utility.yul\":4746:4780   */\n      0x486f6c64206f6e2c20796f752077616e206465706f73697420746f20796f7572\n        /* \"#utility.yul\":4726:4744   */\n      0x44\n      dup3\n      add\n        /* \"#utility.yul\":4719:4781   */\n      mstore\n      shl(0x88, 0x73656c662e2044657920706c617921)\n        /* \"#utility.yul\":4797:4815   */\n      0x64\n      dup3\n      add\n        /* \"#utility.yul\":4790:4835   */\n      mstore\n        /* \"#utility.yul\":4852:4871   */\n      0x84\n      add\n        /* \"contracts/token.sol\":1387:1464  require(msg.sender != _to, \"Hold on, you wan deposit to yourself. Dey play!\") */\n      tag_80\n        /* \"#utility.yul\":4466:4877   */\n      jump\n        /* \"contracts/token.sol\":1387:1464  require(msg.sender != _to, \"Hold on, you wan deposit to yourself. Dey play!\") */\n    tag_112:\n        /* \"contracts/token.sol\":1484:1494  msg.sender */\n      caller\n        /* \"contracts/token.sol\":1475:1495  balances[msg.sender] */\n      0x00\n      swap1\n      dup2\n      mstore\n        /* \"contracts/token.sol\":1475:1483  balances */\n      0x01\n        /* \"contracts/token.sol\":1475:1495  balances[msg.sender] */\n      0x20\n      mstore\n      0x40\n      dup2\n      keccak256\n        /* \"contracts/token.sol\":1475:1505  balances[msg.sender] -= _value */\n      dup1\n      sload\n        /* \"contracts/token.sol\":1499:1505  _value */\n      dup5\n      swap3\n        /* \"contracts/token.sol\":1475:1495  balances[msg.sender] */\n      swap1\n        /* \"contracts/token.sol\":1475:1505  balances[msg.sender] -= _value */\n      tag_115\n      swap1\n        /* \"contracts/token.sol\":1499:1505  _value */\n      dup5\n      swap1\n        /* \"contracts/token.sol\":1475:1505  balances[msg.sender] -= _value */\n      tag_116\n      jump\t// in\n    tag_115:\n      swap1\n      swap2\n      sstore\n      pop\n      pop\n      sub(shl(0xa0, 0x01), 0x01)\n        /* \"contracts/token.sol\":1516:1529  balances[_to] */\n      dup4\n      and\n      0x00\n      swap1\n      dup2\n      mstore\n        /* \"contracts/token.sol\":1516:1524  balances */\n      0x01\n        /* \"contracts/token.sol\":1516:1529  balances[_to] */\n      0x20\n      mstore\n      0x40\n      dup2\n      keccak256\n        /* \"contracts/token.sol\":1516:1539  balances[_to] += _value */\n      dup1\n      sload\n        /* \"contracts/token.sol\":1533:1539  _value */\n      dup5\n      swap3\n        /* \"contracts/token.sol\":1516:1529  balances[_to] */\n      swap1\n        /* \"contracts/token.sol\":1516:1539  balances[_to] += _value */\n      tag_117\n      swap1\n        /* \"contracts/token.sol\":1533:1539  _value */\n      dup5\n      swap1\n        /* \"contracts/token.sol\":1516:1539  balances[_to] += _value */\n      tag_118\n      jump\t// in\n    tag_117:\n      swap1\n      swap2\n      sstore\n      pop\n      pop\n        /* \"contracts/token.sol\":1555:1588  Transfer(msg.sender, _to, _value) */\n      mload(0x40)\n        /* \"#utility.yul\":548:573   */\n      dup3\n      dup2\n      mstore\n      sub(shl(0xa0, 0x01), 0x01)\n        /* \"contracts/token.sol\":1555:1588  Transfer(msg.sender, _to, _value) */\n      dup5\n      and\n      swap1\n        /* \"contracts/token.sol\":1564:1574  msg.sender */\n      caller\n      swap1\n        /* \"contracts/token.sol\":1555:1588  Transfer(msg.sender, _to, _value) */\n      0xddf252ad1be2c89b69c2b068fc378daa952ba7f163c4a11628f55a4df523b3ef\n      swap1\n        /* \"#utility.yul\":536:538   */\n      0x20\n        /* \"#utility.yul\":521:539   */\n      add\n        /* \"contracts/token.sol\":1555:1588  Transfer(msg.sender, _to, _value) */\n      mload(0x40)\n      dup1\n      swap2\n      sub\n      swap1\n      log3\n      pop\n        /* \"contracts/token.sol\":1652:1656  true */\n      0x01\n        /* \"contracts/token.sol\":1172:1664  function transfer(address payable _to, uint256 _value) external payable virtual returns (bool success) {... */\n    tag_108:\n      swap3\n      swap2\n      pop\n      pop\n      jump\t// out\n        /* \"@openzeppelin/contracts/access/Ownable.sol\":2552:2767  function transferOwnership(address newOwner) public virtual onlyOwner {... */\n    tag_67:\n        /* \"@openzeppelin/contracts/access/Ownable.sol\":1531:1544  _checkOwner() */\n      tag_121\n        /* \"@openzeppelin/contracts/access/Ownable.sol\":1531:1542  _checkOwner */\n      tag_77\n        /* \"@openzeppelin/contracts/access/Ownable.sol\":1531:1544  _checkOwner() */\n      jump\t// in\n    tag_121:\n      sub(shl(0xa0, 0x01), 0x01)\n        /* \"@openzeppelin/contracts/access/Ownable.sol\":2636:2658  newOwner == address(0) */\n      dup2\n      and\n        /* \"@openzeppelin/contracts/access/Ownable.sol\":2632:2723  if (newOwner == address(0)) {... */\n      tag_123\n      jumpi\n        /* \"@openzeppelin/contracts/access/Ownable.sol\":2681:2712  OwnableInvalidOwner(address(0)) */\n      mload(0x40)\n      shl(0xe0, 0x1e4fbdf7)\n      dup2\n      mstore\n        /* \"@openzeppelin/contracts/access/Ownable.sol\":2709:2710  0 */\n      0x00\n        /* \"@openzeppelin/contracts/access/Ownable.sol\":2681:2712  OwnableInvalidOwner(address(0)) */\n      0x04\n      dup3\n      add\n        /* \"#utility.yul\":2342:2393   */\n      mstore\n        /* \"#utility.yul\":2315:2333   */\n      0x24\n      add\n        /* \"@openzeppelin/contracts/access/Ownable.sol\":2681:2712  OwnableInvalidOwner(address(0)) */\n      tag_80\n        /* \"#utility.yul\":2196:2399   */\n      jump\n        /* \"@openzeppelin/contracts/access/Ownable.sol\":2632:2723  if (newOwner == address(0)) {... */\n    tag_123:\n        /* \"@openzeppelin/contracts/access/Ownable.sol\":2732:2760  _transferOwnership(newOwner) */\n      tag_125\n        /* \"@openzeppelin/contracts/access/Ownable.sol\":2751:2759  newOwner */\n      dup2\n        /* \"@openzeppelin/contracts/access/Ownable.sol\":2732:2750  _transferOwnership */\n      tag_126\n        /* \"@openzeppelin/contracts/access/Ownable.sol\":2732:2760  _transferOwnership(newOwner) */\n      jump\t// in\n    tag_125:\n        /* \"@openzeppelin/contracts/access/Ownable.sol\":2552:2767  function transferOwnership(address newOwner) public virtual onlyOwner {... */\n      pop\n      jump\t// out\n        /* \"@openzeppelin/contracts/access/Ownable.sol\":1796:1958  function _checkOwner() internal view virtual {... */\n    tag_77:\n        /* \"@openzeppelin/contracts/access/Ownable.sol\":1684:1691  address */\n      0x00\n        /* \"@openzeppelin/contracts/access/Ownable.sol\":1710:1716  _owner */\n      sload\n      sub(shl(0xa0, 0x01), 0x01)\n      and\n        /* \"@openzeppelin/contracts/utils/Context.sol\":735:745  msg.sender */\n      caller\n        /* \"@openzeppelin/contracts/access/Ownable.sol\":1855:1878  owner() != _msgSender() */\n      eq\n        /* \"@openzeppelin/contracts/access/Ownable.sol\":1851:1952  if (owner() != _msgSender()) {... */\n      tag_131\n      jumpi\n        /* \"@openzeppelin/contracts/access/Ownable.sol\":1901:1941  OwnableUnauthorizedAccount(_msgSender()) */\n      mload(0x40)\n      shl(0xe0, 0x118cdaa7)\n      dup2\n      mstore\n        /* \"@openzeppelin/contracts/utils/Context.sol\":735:745  msg.sender */\n      caller\n        /* \"@openzeppelin/contracts/access/Ownable.sol\":1901:1941  OwnableUnauthorizedAccount(_msgSender()) */\n      0x04\n      dup3\n      add\n        /* \"#utility.yul\":2342:2393   */\n      mstore\n        /* \"#utility.yul\":2315:2333   */\n      0x24\n      add\n        /* \"@openzeppelin/contracts/access/Ownable.sol\":1901:1941  OwnableUnauthorizedAccount(_msgSender()) */\n      tag_80\n        /* \"#utility.yul\":2196:2399   */\n      jump\n        /* \"@openzeppelin/contracts/access/Ownable.sol\":1851:1952  if (owner() != _msgSender()) {... */\n    tag_131:\n        /* \"@openzeppelin/contracts/access/Ownable.sol\":1796:1958  function _checkOwner() internal view virtual {... */\n      jump\t// out\n        /* \"contracts/token.sol\":2334:3026  function _update(... */\n    tag_83:\n      sub(shl(0xa0, 0x01), 0x01)\n        /* \"contracts/token.sol\":2458:2476  from == address(0) */\n      dup4\n      and\n        /* \"contracts/token.sol\":2454:2755  if (from == address(0)) {... */\n      tag_135\n      jumpi\n        /* \"contracts/token.sol\":2508:2513  value */\n      dup1\n        /* \"contracts/token.sol\":2493:2504  totalSupply */\n      0x02\n      0x00\n        /* \"contracts/token.sol\":2493:2513  totalSupply += value */\n      dup3\n      dup3\n      sload\n      tag_136\n      swap2\n      swap1\n      tag_118\n      jump\t// in\n    tag_136:\n      swap1\n      swap2\n      sstore\n      pop\n        /* \"contracts/token.sol\":2454:2755  if (from == address(0)) {... */\n      tag_137\n      swap1\n      pop\n      jump\n    tag_135:\n      sub(shl(0xa0, 0x01), 0x01)\n        /* \"contracts/token.sol\":2568:2582  balances[from] */\n      dup4\n      and\n        /* \"contracts/token.sol\":2546:2565  uint256 fromBalance */\n      0x00\n        /* \"contracts/token.sol\":2568:2582  balances[from] */\n      swap1\n      dup2\n      mstore\n        /* \"contracts/token.sol\":2568:2576  balances */\n      0x01\n        /* \"contracts/token.sol\":2568:2582  balances[from] */\n      0x20\n      mstore\n      0x40\n      swap1\n      keccak256\n      sload\n        /* \"contracts/token.sol\":2605:2624  fromBalance > value */\n      dup2\n      dup2\n      gt\n        /* \"contracts/token.sol\":2597:2648  require(fromBalance > value, \"Insufient JVC token\") */\n      tag_138\n      jumpi\n      mload(0x40)\n      shl(0xe5, 0x461bcd)\n      dup2\n      mstore\n        /* \"#utility.yul\":5479:5481   */\n      0x20\n        /* \"contracts/token.sol\":2597:2648  require(fromBalance > value, \"Insufient JVC token\") */\n      0x04\n      dup3\n      add\n        /* \"#utility.yul\":5461:5482   */\n      mstore\n        /* \"#utility.yul\":5518:5520   */\n      0x13\n        /* \"#utility.yul\":5498:5516   */\n      0x24\n      dup3\n      add\n        /* \"#utility.yul\":5491:5521   */\n      mstore\n      shl(0x69, 0x24b739bab334b2b73a10252b21903a37b5b2b7)\n        /* \"#utility.yul\":5537:5555   */\n      0x44\n      dup3\n      add\n        /* \"#utility.yul\":5530:5579   */\n      mstore\n        /* \"#utility.yul\":5596:5614   */\n      0x64\n      add\n        /* \"contracts/token.sol\":2597:2648  require(fromBalance > value, \"Insufient JVC token\") */\n      tag_80\n        /* \"#utility.yul\":5277:5620   */\n      jump\n        /* \"contracts/token.sol\":2597:2648  require(fromBalance > value, \"Insufient JVC token\") */\n    tag_138:\n      sub(shl(0xa0, 0x01), 0x01)\n        /* \"contracts/token.sol\":2692:2706  balances[from] */\n      dup5\n      and\n      0x00\n      swap1\n      dup2\n      mstore\n        /* \"contracts/token.sol\":2692:2700  balances */\n      0x01\n        /* \"contracts/token.sol\":2692:2706  balances[from] */\n      0x20\n      mstore\n      0x40\n      swap1\n      keccak256\n        /* \"contracts/token.sol\":2709:2728  fromBalance - value */\n      swap1\n      dup3\n      swap1\n      sub\n        /* \"contracts/token.sol\":2692:2728  balances[from] = fromBalance - value */\n      swap1\n      sstore\n        /* \"contracts/token.sol\":2454:2755  if (from == address(0)) {... */\n    tag_137:\n      sub(shl(0xa0, 0x01), 0x01)\n        /* \"contracts/token.sol\":2771:2787  to == address(0) */\n      dup3\n      and\n        /* \"contracts/token.sol\":2767:2978  if (to == address(0)) {... */\n      tag_141\n      jumpi\n        /* \"contracts/token.sol\":2833:2844  totalSupply */\n      0x02\n        /* \"contracts/token.sol\":2833:2853  totalSupply -= value */\n      dup1\n      sload\n      dup3\n      swap1\n      sub\n      swap1\n      sstore\n        /* \"contracts/token.sol\":2767:2978  if (to == address(0)) {... */\n      jump(tag_142)\n    tag_141:\n      sub(shl(0xa0, 0x01), 0x01)\n        /* \"contracts/token.sol\":2930:2942  balances[to] */\n      dup3\n      and\n      0x00\n      swap1\n      dup2\n      mstore\n        /* \"contracts/token.sol\":2930:2938  balances */\n      0x01\n        /* \"contracts/token.sol\":2930:2942  balances[to] */\n      0x20\n      mstore\n      0x40\n      swap1\n      keccak256\n        /* \"contracts/token.sol\":2930:2951  balances[to] += value */\n      dup1\n      sload\n      dup3\n      add\n      swap1\n      sstore\n        /* \"contracts/token.sol\":2767:2978  if (to == address(0)) {... */\n    tag_142:\n        /* \"contracts/token.sol\":3008:3010  to */\n      dup2\n      sub(shl(0xa0, 0x01), 0x01)\n        /* \"contracts/token.sol\":2993:3018  Transfer(from, to, value) */\n      and\n        /* \"contracts/token.sol\":3002:3006  from */\n      dup4\n      sub(shl(0xa0, 0x01), 0x01)\n        /* \"contracts/token.sol\":2993:3018  Transfer(from, to, value) */\n      and\n      0xddf252ad1be2c89b69c2b068fc378daa952ba7f163c4a11628f55a4df523b3ef\n        /* \"contracts/token.sol\":3012:3017  value */\n      dup4\n        /* \"contracts/token.sol\":2993:3018  Transfer(from, to, value) */\n      mload(0x40)\n      tag_143\n      swap2\n        /* \"#utility.yul\":548:573   */\n      dup2\n      mstore\n        /* \"#utility.yul\":536:538   */\n      0x20\n        /* \"#utility.yul\":521:539   */\n      add\n      swap1\n        /* \"#utility.yul\":402:579   */\n      jump\n        /* \"contracts/token.sol\":2993:3018  Transfer(from, to, value) */\n    tag_143:\n      mload(0x40)\n      dup1\n      swap2\n      sub\n      swap1\n      log3\n        /* \"contracts/token.sol\":2334:3026  function _update(... */\n      pop\n      pop\n      pop\n      jump\t// out\n        /* \"@openzeppelin/contracts/access/Ownable.sol\":2921:3108  function _transferOwnership(address newOwner) internal virtual {... */\n    tag_126:\n        /* \"@openzeppelin/contracts/access/Ownable.sol\":2994:3010  address oldOwner */\n      0x00\n        /* \"@openzeppelin/contracts/access/Ownable.sol\":3013:3019  _owner */\n      dup1\n      sload\n      sub(shl(0xa0, 0x01), 0x01)\n        /* \"@openzeppelin/contracts/access/Ownable.sol\":3029:3046  _owner = newOwner */\n      dup4\n      dup2\n      and\n      not(sub(shl(0xa0, 0x01), 0x01))\n      dup4\n      and\n      dup2\n      or\n      dup5\n      sstore\n        /* \"@openzeppelin/contracts/access/Ownable.sol\":3061:3101  OwnershipTransferred(oldOwner, newOwner) */\n      mload(0x40)\n        /* \"@openzeppelin/contracts/access/Ownable.sol\":3013:3019  _owner */\n      swap2\n      swap1\n      swap3\n      and\n      swap3\n      dup4\n      swap2\n        /* \"@openzeppelin/contracts/access/Ownable.sol\":3061:3101  OwnershipTransferred(oldOwner, newOwner) */\n      0x8be0079c531659141344cd1fd0a4f28419497f9722a3daafe3b4186f6b6457e0\n      swap2\n        /* \"@openzeppelin/contracts/access/Ownable.sol\":2994:3010  address oldOwner */\n      swap1\n        /* \"@openzeppelin/contracts/access/Ownable.sol\":3061:3101  OwnershipTransferred(oldOwner, newOwner) */\n      log3\n        /* \"@openzeppelin/contracts/access/Ownable.sol\":2984:3108  {... */\n      pop\n        /* \"@openzeppelin/contracts/access/Ownable.sol\":2921:3108  function _transferOwnership(address newOwner) internal virtual {... */\n      pop\n      jump\t// out\n        /* \"#utility.yul\":14:145   */\n    tag_146:\n      sub(shl(0xa0, 0x01), 0x01)\n        /* \"#utility.yul\":89:120   */\n      dup2\n      and\n        /* \"#utility.yul\":79:121   */\n      dup2\n      eq\n        /* \"#utility.yul\":69:139   */\n      tag_125\n      jumpi\n        /* \"#utility.yul\":135:136   */\n      0x00\n        /* \"#utility.yul\":132:133   */\n      dup1\n        /* \"#utility.yul\":125:137   */\n      revert\n        /* \"#utility.yul\":150:397   */\n    tag_17:\n        /* \"#utility.yul\":209:215   */\n      0x00\n        /* \"#utility.yul\":262:264   */\n      0x20\n        /* \"#utility.yul\":250:259   */\n      dup3\n        /* \"#utility.yul\":241:248   */\n      dup5\n        /* \"#utility.yul\":237:260   */\n      sub\n        /* \"#utility.yul\":233:265   */\n      slt\n        /* \"#utility.yul\":230:282   */\n      iszero\n      tag_153\n      jumpi\n        /* \"#utility.yul\":278:279   */\n      0x00\n        /* \"#utility.yul\":275:276   */\n      dup1\n        /* \"#utility.yul\":268:280   */\n      revert\n        /* \"#utility.yul\":230:282   */\n    tag_153:\n        /* \"#utility.yul\":317:326   */\n      dup2\n        /* \"#utility.yul\":304:327   */\n      calldataload\n        /* \"#utility.yul\":336:367   */\n      tag_154\n        /* \"#utility.yul\":361:366   */\n      dup2\n        /* \"#utility.yul\":336:367   */\n      tag_146\n      jump\t// in\n    tag_154:\n        /* \"#utility.yul\":386:391   */\n      swap4\n        /* \"#utility.yul\":150:397   */\n      swap3\n      pop\n      pop\n      pop\n      jump\t// out\n        /* \"#utility.yul\":584:873   */\n    tag_147:\n        /* \"#utility.yul\":626:629   */\n      0x00\n        /* \"#utility.yul\":664:669   */\n      dup2\n        /* \"#utility.yul\":658:670   */\n      mload\n        /* \"#utility.yul\":691:697   */\n      dup1\n        /* \"#utility.yul\":686:689   */\n      dup5\n        /* \"#utility.yul\":679:698   */\n      mstore\n        /* \"#utility.yul\":747:753   */\n      dup1\n        /* \"#utility.yul\":740:744   */\n      0x20\n        /* \"#utility.yul\":733:738   */\n      dup5\n        /* \"#utility.yul\":729:745   */\n      add\n        /* \"#utility.yul\":722:726   */\n      0x20\n        /* \"#utility.yul\":717:720   */\n      dup7\n        /* \"#utility.yul\":713:727   */\n      add\n        /* \"#utility.yul\":707:754   */\n      mcopy\n        /* \"#utility.yul\":799:800   */\n      0x00\n        /* \"#utility.yul\":792:796   */\n      0x20\n        /* \"#utility.yul\":783:789   */\n      dup3\n        /* \"#utility.yul\":778:781   */\n      dup7\n        /* \"#utility.yul\":774:790   */\n      add\n        /* \"#utility.yul\":770:797   */\n      add\n        /* \"#utility.yul\":763:801   */\n      mstore\n        /* \"#utility.yul\":862:866   */\n      0x20\n        /* \"#utility.yul\":855:857   */\n      0x1f\n        /* \"#utility.yul\":851:858   */\n      not\n        /* \"#utility.yul\":846:848   */\n      0x1f\n        /* \"#utility.yul\":838:844   */\n      dup4\n        /* \"#utility.yul\":834:849   */\n      add\n        /* \"#utility.yul\":830:859   */\n      and\n        /* \"#utility.yul\":825:828   */\n      dup6\n        /* \"#utility.yul\":821:860   */\n      add\n        /* \"#utility.yul\":817:867   */\n      add\n        /* \"#utility.yul\":810:867   */\n      swap2\n      pop\n      pop\n        /* \"#utility.yul\":584:873   */\n      swap3\n      swap2\n      pop\n      pop\n      jump\t// out\n        /* \"#utility.yul\":878:1098   */\n    tag_25:\n        /* \"#utility.yul\":1027:1029   */\n      0x20\n        /* \"#utility.yul\":1016:1025   */\n      dup2\n        /* \"#utility.yul\":1009:1030   */\n      mstore\n        /* \"#utility.yul\":990:994   */\n      0x00\n        /* \"#utility.yul\":1047:1092   */\n      tag_154\n        /* \"#utility.yul\":1088:1090   */\n      0x20\n        /* \"#utility.yul\":1077:1086   */\n      dup4\n        /* \"#utility.yul\":1073:1091   */\n      add\n        /* \"#utility.yul\":1065:1071   */\n      dup5\n        /* \"#utility.yul\":1047:1092   */\n      tag_147\n      jump\t// in\n        /* \"#utility.yul\":1292:1659   */\n    tag_38:\n        /* \"#utility.yul\":1360:1366   */\n      0x00\n        /* \"#utility.yul\":1368:1374   */\n      dup1\n        /* \"#utility.yul\":1421:1423   */\n      0x40\n        /* \"#utility.yul\":1409:1418   */\n      dup4\n        /* \"#utility.yul\":1400:1407   */\n      dup6\n        /* \"#utility.yul\":1396:1419   */\n      sub\n        /* \"#utility.yul\":1392:1424   */\n      slt\n        /* \"#utility.yul\":1389:1441   */\n      iszero\n      tag_161\n      jumpi\n        /* \"#utility.yul\":1437:1438   */\n      0x00\n        /* \"#utility.yul\":1434:1435   */\n      dup1\n        /* \"#utility.yul\":1427:1439   */\n      revert\n        /* \"#utility.yul\":1389:1441   */\n    tag_161:\n        /* \"#utility.yul\":1476:1485   */\n      dup3\n        /* \"#utility.yul\":1463:1486   */\n      calldataload\n        /* \"#utility.yul\":1495:1526   */\n      tag_162\n        /* \"#utility.yul\":1520:1525   */\n      dup2\n        /* \"#utility.yul\":1495:1526   */\n      tag_146\n      jump\t// in\n    tag_162:\n        /* \"#utility.yul\":1545:1550   */\n      swap5\n        /* \"#utility.yul\":1623:1625   */\n      0x20\n        /* \"#utility.yul\":1608:1626   */\n      swap4\n      swap1\n      swap4\n      add\n        /* \"#utility.yul\":1595:1627   */\n      calldataload\n      swap4\n      pop\n      pop\n      pop\n        /* \"#utility.yul\":1292:1659   */\n      jump\t// out\n        /* \"#utility.yul\":1664:2191   */\n    tag_44:\n        /* \"#utility.yul\":1917:1923   */\n      dup5\n        /* \"#utility.yul\":1906:1915   */\n      dup2\n        /* \"#utility.yul\":1899:1924   */\n      mstore\n        /* \"#utility.yul\":1960:1963   */\n      0x80\n        /* \"#utility.yul\":1955:1957   */\n      0x20\n        /* \"#utility.yul\":1944:1953   */\n      dup3\n        /* \"#utility.yul\":1940:1958   */\n      add\n        /* \"#utility.yul\":1933:1964   */\n      mstore\n        /* \"#utility.yul\":1880:1884   */\n      0x00\n        /* \"#utility.yul\":1987:2033   */\n      tag_164\n        /* \"#utility.yul\":2028:2031   */\n      0x80\n        /* \"#utility.yul\":2017:2026   */\n      dup4\n        /* \"#utility.yul\":2013:2032   */\n      add\n        /* \"#utility.yul\":2005:2011   */\n      dup7\n        /* \"#utility.yul\":1987:2033   */\n      tag_147\n      jump\t// in\n    tag_164:\n        /* \"#utility.yul\":2081:2090   */\n      dup3\n        /* \"#utility.yul\":2073:2079   */\n      dup2\n        /* \"#utility.yul\":2069:2091   */\n      sub\n        /* \"#utility.yul\":2064:2066   */\n      0x40\n        /* \"#utility.yul\":2053:2062   */\n      dup5\n        /* \"#utility.yul\":2049:2067   */\n      add\n        /* \"#utility.yul\":2042:2092   */\n      mstore\n        /* \"#utility.yul\":2109:2142   */\n      tag_165\n        /* \"#utility.yul\":2135:2141   */\n      dup2\n        /* \"#utility.yul\":2127:2133   */\n      dup7\n        /* \"#utility.yul\":2109:2142   */\n      tag_147\n      jump\t// in\n    tag_165:\n        /* \"#utility.yul\":2101:2142   */\n      swap2\n      pop\n      pop\n        /* \"#utility.yul\":2178:2184   */\n      dup3\n        /* \"#utility.yul\":2173:2175   */\n      0x60\n        /* \"#utility.yul\":2162:2171   */\n      dup4\n        /* \"#utility.yul\":2158:2176   */\n      add\n        /* \"#utility.yul\":2151:2185   */\n      mstore\n        /* \"#utility.yul\":1664:2191   */\n      swap6\n      swap5\n      pop\n      pop\n      pop\n      pop\n      pop\n      jump\t// out\n        /* \"#utility.yul\":2976:3356   */\n    tag_70:\n        /* \"#utility.yul\":3055:3056   */\n      0x01\n        /* \"#utility.yul\":3051:3063   */\n      dup2\n      dup2\n      shr\n      swap1\n        /* \"#utility.yul\":3098:3110   */\n      dup3\n      and\n      dup1\n        /* \"#utility.yul\":3119:3180   */\n      tag_172\n      jumpi\n        /* \"#utility.yul\":3173:3177   */\n      0x7f\n        /* \"#utility.yul\":3165:3171   */\n      dup3\n        /* \"#utility.yul\":3161:3178   */\n      and\n        /* \"#utility.yul\":3151:3178   */\n      swap2\n      pop\n        /* \"#utility.yul\":3119:3180   */\n    tag_172:\n        /* \"#utility.yul\":3226:3228   */\n      0x20\n        /* \"#utility.yul\":3218:3224   */\n      dup3\n        /* \"#utility.yul\":3215:3229   */\n      lt\n        /* \"#utility.yul\":3195:3213   */\n      dup2\n        /* \"#utility.yul\":3192:3230   */\n      sub\n        /* \"#utility.yul\":3189:3350   */\n      tag_173\n      jumpi\n        /* \"#utility.yul\":3272:3282   */\n      0x4e487b71\n        /* \"#utility.yul\":3267:3270   */\n      0xe0\n        /* \"#utility.yul\":3263:3283   */\n      shl\n        /* \"#utility.yul\":3260:3261   */\n      0x00\n        /* \"#utility.yul\":3253:3284   */\n      mstore\n        /* \"#utility.yul\":3307:3311   */\n      0x22\n        /* \"#utility.yul\":3304:3305   */\n      0x04\n        /* \"#utility.yul\":3297:3312   */\n      mstore\n        /* \"#utility.yul\":3335:3339   */\n      0x24\n        /* \"#utility.yul\":3332:3333   */\n      0x00\n        /* \"#utility.yul\":3325:3340   */\n      revert\n        /* \"#utility.yul\":3189:3350   */\n    tag_173:\n      pop\n        /* \"#utility.yul\":2976:3356   */\n      swap2\n      swap1\n      pop\n      jump\t// out\n        /* \"#utility.yul\":4882:5009   */\n    tag_148:\n        /* \"#utility.yul\":4943:4953   */\n      0x4e487b71\n        /* \"#utility.yul\":4938:4941   */\n      0xe0\n        /* \"#utility.yul\":4934:4954   */\n      shl\n        /* \"#utility.yul\":4931:4932   */\n      0x00\n        /* \"#utility.yul\":4924:4955   */\n      mstore\n        /* \"#utility.yul\":4974:4978   */\n      0x11\n        /* \"#utility.yul\":4971:4972   */\n      0x04\n        /* \"#utility.yul\":4964:4979   */\n      mstore\n        /* \"#utility.yul\":4998:5002   */\n      0x24\n        /* \"#utility.yul\":4995:4996   */\n      0x00\n        /* \"#utility.yul\":4988:5003   */\n      revert\n        /* \"#utility.yul\":5014:5142   */\n    tag_116:\n        /* \"#utility.yul\":5081:5090   */\n      dup2\n      dup2\n      sub\n        /* \"#utility.yul\":5102:5113   */\n      dup2\n      dup2\n      gt\n        /* \"#utility.yul\":5099:5136   */\n      iszero\n      tag_108\n      jumpi\n        /* \"#utility.yul\":5116:5134   */\n      tag_108\n      tag_148\n      jump\t// in\n        /* \"#utility.yul\":5147:5272   */\n    tag_118:\n        /* \"#utility.yul\":5212:5221   */\n      dup1\n      dup3\n      add\n        /* \"#utility.yul\":5233:5243   */\n      dup1\n      dup3\n      gt\n        /* \"#utility.yul\":5230:5266   */\n      iszero\n      tag_108\n      jumpi\n        /* \"#utility.yul\":5246:5264   */\n      tag_108\n      tag_148\n      jump\t// in\n\n    auxdata: 0xa2646970667358221220caa5e2206328bbb305737612183fb06a319dbd2bde7944896d6feb396c4eb28164736f6c634300081a0033\n}\n",
				"bytecode": {
					"linkReferences": {},
					"object": "608060405234801561000f575f80fd5b50338061003557604051631e4fbdf760e01b81525f600482015260240160405180910390fd5b61003e816100be565b50335f90815260016020908152604091829020600a9081905560025581518083019092526008825267252b21aa37b5b2b760c11b9082015260039061008390826101a5565b506004805460ff191660121790556040805180820190915260038152624a564360e81b60208201526005906100b890826101a5565b5061025f565b5f80546001600160a01b038381166001600160a01b0319831681178455604051919092169283917f8be0079c531659141344cd1fd0a4f28419497f9722a3daafe3b4186f6b6457e09190a35050565b634e487b7160e01b5f52604160045260245ffd5b600181811c9082168061013557607f821691505b60208210810361015357634e487b7160e01b5f52602260045260245ffd5b50919050565b601f8211156101a057805f5260205f20601f840160051c8101602085101561017e5750805b601f840160051c820191505b8181101561019d575f815560010161018a565b50505b505050565b81516001600160401b038111156101be576101be61010d565b6101d2816101cc8454610121565b84610159565b6020601f821160018114610204575f83156101ed5750848201515b5f19600385901b1c1916600184901b17845561019d565b5f84815260208120601f198516915b828110156102335787850151825560209485019460019092019101610213565b508482101561025057868401515f19600387901b60f8161c191681555b50505050600190811b01905550565b6109af8061026c5f395ff3fe60806040526004361061009a575f3560e01c80636addb663116100625780636addb663146101675780638da5cb5b1461018b57806395d89b41146101b15780639dc29fac146101c5578063a9059cbb146101e4578063f2fde38b14610207575f80fd5b806303147f391461009e57806306fdde03146100e557806318160ddd14610106578063313ce5671461011b57806340c10f1914610146575b5f80fd5b3480156100a9575f80fd5b506100d26100b836600461083f565b6001600160a01b03165f9081526001602052604090205490565b6040519081526020015b60405180910390f35b3480156100f0575f80fd5b506100f9610226565b6040516100dc919061088f565b348015610111575f80fd5b506100d260025481565b348015610126575f80fd5b506004546101349060ff1681565b60405160ff90911681526020016100dc565b348015610151575f80fd5b506101656101603660046108a1565b6102b2565b005b348015610172575f80fd5b5061017b610316565b6040516100dc94939291906108cb565b348015610196575f80fd5b505f546040516001600160a01b0390911681526020016100dc565b3480156101bc575f80fd5b506100f9610458565b3480156101d0575f80fd5b506101656101df3660046108a1565b610465565b6101f76101f23660046108a1565b6104c1565b60405190151581526020016100dc565b348015610212575f80fd5b5061016561022136600461083f565b610640565b6003805461023390610907565b80601f016020809104026020016040519081016040528092919081815260200182805461025f90610907565b80156102aa5780601f10610281576101008083540402835291602001916102aa565b820191905f5260205f20905b81548152906001019060200180831161028d57829003601f168201915b505050505081565b6102ba61067d565b6001600160a01b0382166103075760405162461bcd60e51b815260206004820152600f60248201526e496e76616c6964206164647265737360881b60448201526064015b60405180910390fd5b6103125f83836106ab565b5050565b5f6060805f6002546003600560045f9054906101000a900460ff1682805461033d90610907565b80601f016020809104026020016040519081016040528092919081815260200182805461036990610907565b80156103b45780601f1061038b576101008083540402835291602001916103b4565b820191905f5260205f20905b81548152906001019060200180831161039757829003601f168201915b505050505092508180546103c790610907565b80601f01602080910402602001604051908101604052809291908181526020018280546103f390610907565b801561043e5780601f106104155761010080835404028352916020019161043e565b820191905f5260205f20905b81548152906001019060200180831161042157829003601f168201915b50979c969b509299505060ff909216965092945050505050565b6005805461023390610907565b61046d61067d565b6001600160a01b0382166104b65760405162461bcd60e51b815260206004820152601060248201526f496e76616c6964206163636f756e742160801b60448201526064016102fe565b610312825f836106ab565b335f908152600160205260408120548211156105375760405162461bcd60e51b815260206004820152602f60248201527f746f6b656e2062616c616e6365206973206c6f776572207468616e207468652060448201526e1d985b1d59481c995c5d595cdd1959608a1b60648201526084016102fe565b6001600160a01b03831633036105a75760405162461bcd60e51b815260206004820152602f60248201527f486f6c64206f6e2c20796f752077616e206465706f73697420746f20796f757260448201526e73656c662e2044657920706c61792160881b60648201526084016102fe565b335f90815260016020526040812080548492906105c5908490610953565b90915550506001600160a01b0383165f90815260016020526040812080548492906105f1908490610966565b90915550506040518281526001600160a01b0384169033907fddf252ad1be2c89b69c2b068fc378daa952ba7f163c4a11628f55a4df523b3ef9060200160405180910390a35060015b92915050565b61064861067d565b6001600160a01b03811661067157604051631e4fbdf760e01b81525f60048201526024016102fe565b61067a816107dc565b50565b5f546001600160a01b031633146106a95760405163118cdaa760e01b81523360048201526024016102fe565b565b6001600160a01b0383166106d5578060025f8282546106ca9190610966565b909155506107509050565b6001600160a01b0383165f908152600160205260409020548181116107325760405162461bcd60e51b815260206004820152601360248201527224b739bab334b2b73a10252b21903a37b5b2b760691b60448201526064016102fe565b6001600160a01b0384165f9081526001602052604090209082900390555b6001600160a01b03821661076c5760028054829003905561078a565b6001600160a01b0382165f9081526001602052604090208054820190555b816001600160a01b0316836001600160a01b03167fddf252ad1be2c89b69c2b068fc378daa952ba7f163c4a11628f55a4df523b3ef836040516107cf91815260200190565b60405180910390a3505050565b5f80546001600160a01b038381166001600160a01b0319831681178455604051919092169283917f8be0079c531659141344cd1fd0a4f28419497f9722a3daafe3b4186f6b6457e09190a35050565b6001600160a01b038116811461067a575f80fd5b5f6020828403121561084f575f80fd5b813561085a8161082b565b9392505050565b5f81518084528060208401602086015e5f602082860101526020601f19601f83011685010191505092915050565b602081525f61085a6020830184610861565b5f80604083850312156108b2575f80fd5b82356108bd8161082b565b946020939093013593505050565b848152608060208201525f6108e36080830186610861565b82810360408401526108f58186610861565b91505082606083015295945050505050565b600181811c9082168061091b57607f821691505b60208210810361093957634e487b7160e01b5f52602260045260245ffd5b50919050565b634e487b7160e01b5f52601160045260245ffd5b8181038181111561063a5761063a61093f565b8082018082111561063a5761063a61093f56fea2646970667358221220caa5e2206328bbb305737612183fb06a319dbd2bde7944896d6feb396c4eb28164736f6c634300081a0033",
					"opcodes": "PUSH1 0x80 PUSH1 0x40 MSTORE CALLVALUE DUP1 ISZERO PUSH2 0xF JUMPI PUSH0 DUP1 REVERT JUMPDEST POP CALLER DUP1 PUSH2 0x35 JUMPI PUSH1 0x40 MLOAD PUSH4 0x1E4FBDF7 PUSH1 0xE0 SHL DUP2 MSTORE PUSH0 PUSH1 0x4 DUP3 ADD MSTORE PUSH1 0x24 ADD PUSH1 0x40 MLOAD DUP1 SWAP2 SUB SWAP1 REVERT JUMPDEST PUSH2 0x3E DUP2 PUSH2 0xBE JUMP JUMPDEST POP CALLER PUSH0 SWAP1 DUP2 MSTORE PUSH1 0x1 PUSH1 0x20 SWAP1 DUP2 MSTORE PUSH1 0x40 SWAP2 DUP3 SWAP1 KECCAK256 PUSH1 0xA SWAP1 DUP2 SWAP1 SSTORE PUSH1 0x2 SSTORE DUP2 MLOAD DUP1 DUP4 ADD SWAP1 SWAP3 MSTORE PUSH1 0x8 DUP3 MSTORE PUSH8 0x252B21AA37B5B2B7 PUSH1 0xC1 SHL SWAP1 DUP3 ADD MSTORE PUSH1 0x3 SWAP1 PUSH2 0x83 SWAP1 DUP3 PUSH2 0x1A5 JUMP JUMPDEST POP PUSH1 0x4 DUP1 SLOAD PUSH1 0xFF NOT AND PUSH1 0x12 OR SWAP1 SSTORE PUSH1 0x40 DUP1 MLOAD DUP1 DUP3 ADD SWAP1 SWAP2 MSTORE PUSH1 0x3 DUP2 MSTORE PUSH3 0x4A5643 PUSH1 0xE8 SHL PUSH1 0x20 DUP3 ADD MSTORE PUSH1 0x5 SWAP1 PUSH2 0xB8 SWAP1 DUP3 PUSH2 0x1A5 JUMP JUMPDEST POP PUSH2 0x25F JUMP JUMPDEST PUSH0 DUP1 SLOAD PUSH1 0x1 PUSH1 0x1 PUSH1 0xA0 SHL SUB DUP4 DUP2 AND PUSH1 0x1 PUSH1 0x1 PUSH1 0xA0 SHL SUB NOT DUP4 AND DUP2 OR DUP5 SSTORE PUSH1 0x40 MLOAD SWAP2 SWAP1 SWAP3 AND SWAP3 DUP4 SWAP2 PUSH32 0x8BE0079C531659141344CD1FD0A4F28419497F9722A3DAAFE3B4186F6B6457E0 SWAP2 SWAP1 LOG3 POP POP JUMP JUMPDEST PUSH4 0x4E487B71 PUSH1 0xE0 SHL PUSH0 MSTORE PUSH1 0x41 PUSH1 0x4 MSTORE PUSH1 0x24 PUSH0 REVERT JUMPDEST PUSH1 0x1 DUP2 DUP2 SHR SWAP1 DUP3 AND DUP1 PUSH2 0x135 JUMPI PUSH1 0x7F DUP3 AND SWAP2 POP JUMPDEST PUSH1 0x20 DUP3 LT DUP2 SUB PUSH2 0x153 JUMPI PUSH4 0x4E487B71 PUSH1 0xE0 SHL PUSH0 MSTORE PUSH1 0x22 PUSH1 0x4 MSTORE PUSH1 0x24 PUSH0 REVERT JUMPDEST POP SWAP2 SWAP1 POP JUMP JUMPDEST PUSH1 0x1F DUP3 GT ISZERO PUSH2 0x1A0 JUMPI DUP1 PUSH0 MSTORE PUSH1 0x20 PUSH0 KECCAK256 PUSH1 0x1F DUP5 ADD PUSH1 0x5 SHR DUP2 ADD PUSH1 0x20 DUP6 LT ISZERO PUSH2 0x17E JUMPI POP DUP1 JUMPDEST PUSH1 0x1F DUP5 ADD PUSH1 0x5 SHR DUP3 ADD SWAP2 POP JUMPDEST DUP2 DUP2 LT ISZERO PUSH2 0x19D JUMPI PUSH0 DUP2 SSTORE PUSH1 0x1 ADD PUSH2 0x18A JUMP JUMPDEST POP POP JUMPDEST POP POP POP JUMP JUMPDEST DUP2 MLOAD PUSH1 0x1 PUSH1 0x1 PUSH1 0x40 SHL SUB DUP2 GT ISZERO PUSH2 0x1BE JUMPI PUSH2 0x1BE PUSH2 0x10D JUMP JUMPDEST PUSH2 0x1D2 DUP2 PUSH2 0x1CC DUP5 SLOAD PUSH2 0x121 JUMP JUMPDEST DUP5 PUSH2 0x159 JUMP JUMPDEST PUSH1 0x20 PUSH1 0x1F DUP3 GT PUSH1 0x1 DUP2 EQ PUSH2 0x204 JUMPI PUSH0 DUP4 ISZERO PUSH2 0x1ED JUMPI POP DUP5 DUP3 ADD MLOAD JUMPDEST PUSH0 NOT PUSH1 0x3 DUP6 SWAP1 SHL SHR NOT AND PUSH1 0x1 DUP5 SWAP1 SHL OR DUP5 SSTORE PUSH2 0x19D JUMP JUMPDEST PUSH0 DUP5 DUP2 MSTORE PUSH1 0x20 DUP2 KECCAK256 PUSH1 0x1F NOT DUP6 AND SWAP2 JUMPDEST DUP3 DUP2 LT ISZERO PUSH2 0x233 JUMPI DUP8 DUP6 ADD MLOAD DUP3 SSTORE PUSH1 0x20 SWAP5 DUP6 ADD SWAP5 PUSH1 0x1 SWAP1 SWAP3 ADD SWAP2 ADD PUSH2 0x213 JUMP JUMPDEST POP DUP5 DUP3 LT ISZERO PUSH2 0x250 JUMPI DUP7 DUP5 ADD MLOAD PUSH0 NOT PUSH1 0x3 DUP8 SWAP1 SHL PUSH1 0xF8 AND SHR NOT AND DUP2 SSTORE JUMPDEST POP POP POP POP PUSH1 0x1 SWAP1 DUP2 SHL ADD SWAP1 SSTORE POP JUMP JUMPDEST PUSH2 0x9AF DUP1 PUSH2 0x26C PUSH0 CODECOPY PUSH0 RETURN INVALID PUSH1 0x80 PUSH1 0x40 MSTORE PUSH1 0x4 CALLDATASIZE LT PUSH2 0x9A JUMPI PUSH0 CALLDATALOAD PUSH1 0xE0 SHR DUP1 PUSH4 0x6ADDB663 GT PUSH2 0x62 JUMPI DUP1 PUSH4 0x6ADDB663 EQ PUSH2 0x167 JUMPI DUP1 PUSH4 0x8DA5CB5B EQ PUSH2 0x18B JUMPI DUP1 PUSH4 0x95D89B41 EQ PUSH2 0x1B1 JUMPI DUP1 PUSH4 0x9DC29FAC EQ PUSH2 0x1C5 JUMPI DUP1 PUSH4 0xA9059CBB EQ PUSH2 0x1E4 JUMPI DUP1 PUSH4 0xF2FDE38B EQ PUSH2 0x207 JUMPI PUSH0 DUP1 REVERT JUMPDEST DUP1 PUSH4 0x3147F39 EQ PUSH2 0x9E JUMPI DUP1 PUSH4 0x6FDDE03 EQ PUSH2 0xE5 JUMPI DUP1 PUSH4 0x18160DDD EQ PUSH2 0x106 JUMPI DUP1 PUSH4 0x313CE567 EQ PUSH2 0x11B JUMPI DUP1 PUSH4 0x40C10F19 EQ PUSH2 0x146 JUMPI JUMPDEST PUSH0 DUP1 REVERT JUMPDEST CALLVALUE DUP1 ISZERO PUSH2 0xA9 JUMPI PUSH0 DUP1 REVERT JUMPDEST POP PUSH2 0xD2 PUSH2 0xB8 CALLDATASIZE PUSH1 0x4 PUSH2 0x83F JUMP JUMPDEST PUSH1 0x1 PUSH1 0x1 PUSH1 0xA0 SHL SUB AND PUSH0 SWAP1 DUP2 MSTORE PUSH1 0x1 PUSH1 0x20 MSTORE PUSH1 0x40 SWAP1 KECCAK256 SLOAD SWAP1 JUMP JUMPDEST PUSH1 0x40 MLOAD SWAP1 DUP2 MSTORE PUSH1 0x20 ADD JUMPDEST PUSH1 0x40 MLOAD DUP1 SWAP2 SUB SWAP1 RETURN JUMPDEST CALLVALUE DUP1 ISZERO PUSH2 0xF0 JUMPI PUSH0 DUP1 REVERT JUMPDEST POP PUSH2 0xF9 PUSH2 0x226 JUMP JUMPDEST PUSH1 0x40 MLOAD PUSH2 0xDC SWAP2 SWAP1 PUSH2 0x88F JUMP JUMPDEST CALLVALUE DUP1 ISZERO PUSH2 0x111 JUMPI PUSH0 DUP1 REVERT JUMPDEST POP PUSH2 0xD2 PUSH1 0x2 SLOAD DUP2 JUMP JUMPDEST CALLVALUE DUP1 ISZERO PUSH2 0x126 JUMPI PUSH0 DUP1 REVERT JUMPDEST POP PUSH1 0x4 SLOAD PUSH2 0x134 SWAP1 PUSH1 0xFF AND DUP2 JUMP JUMPDEST PUSH1 0x40 MLOAD PUSH1 0xFF SWAP1 SWAP2 AND DUP2 MSTORE PUSH1 0x20 ADD PUSH2 0xDC JUMP JUMPDEST CALLVALUE DUP1 ISZERO PUSH2 0x151 JUMPI PUSH0 DUP1 REVERT JUMPDEST POP PUSH2 0x165 PUSH2 0x160 CALLDATASIZE PUSH1 0x4 PUSH2 0x8A1 JUMP JUMPDEST PUSH2 0x2B2 JUMP JUMPDEST STOP JUMPDEST CALLVALUE DUP1 ISZERO PUSH2 0x172 JUMPI PUSH0 DUP1 REVERT JUMPDEST POP PUSH2 0x17B PUSH2 0x316 JUMP JUMPDEST PUSH1 0x40 MLOAD PUSH2 0xDC SWAP5 SWAP4 SWAP3 SWAP2 SWAP1 PUSH2 0x8CB JUMP JUMPDEST CALLVALUE DUP1 ISZERO PUSH2 0x196 JUMPI PUSH0 DUP1 REVERT JUMPDEST POP PUSH0 SLOAD PUSH1 0x40 MLOAD PUSH1 0x1 PUSH1 0x1 PUSH1 0xA0 SHL SUB SWAP1 SWAP2 AND DUP2 MSTORE PUSH1 0x20 ADD PUSH2 0xDC JUMP JUMPDEST CALLVALUE DUP1 ISZERO PUSH2 0x1BC JUMPI PUSH0 DUP1 REVERT JUMPDEST POP PUSH2 0xF9 PUSH2 0x458 JUMP JUMPDEST CALLVALUE DUP1 ISZERO PUSH2 0x1D0 JUMPI PUSH0 DUP1 REVERT JUMPDEST POP PUSH2 0x165 PUSH2 0x1DF CALLDATASIZE PUSH1 0x4 PUSH2 0x8A1 JUMP JUMPDEST PUSH2 0x465 JUMP JUMPDEST PUSH2 0x1F7 PUSH2 0x1F2 CALLDATASIZE PUSH1 0x4 PUSH2 0x8A1 JUMP JUMPDEST PUSH2 0x4C1 JUMP JUMPDEST PUSH1 0x40 MLOAD SWAP1 ISZERO ISZERO DUP2 MSTORE PUSH1 0x20 ADD PUSH2 0xDC JUMP JUMPDEST CALLVALUE DUP1 ISZERO PUSH2 0x212 JUMPI PUSH0 DUP1 REVERT JUMPDEST POP PUSH2 0x165 PUSH2 0x221 CALLDATASIZE PUSH1 0x4 PUSH2 0x83F JUMP JUMPDEST PUSH2 0x640 JUMP JUMPDEST PUSH1 0x3 DUP1 SLOAD PUSH2 0x233 SWAP1 PUSH2 0x907 JUMP JUMPDEST DUP1 PUSH1 0x1F ADD PUSH1 0x20 DUP1 SWAP2 DIV MUL PUSH1 0x20 ADD PUSH1 0x40 MLOAD SWAP1 DUP2 ADD PUSH1 0x40 MSTORE DUP1 SWAP3 SWAP2 SWAP1 DUP2 DUP2 MSTORE PUSH1 0x20 ADD DUP3 DUP1 SLOAD PUSH2 0x25F SWAP1 PUSH2 0x907 JUMP JUMPDEST DUP1 ISZERO PUSH2 0x2AA JUMPI DUP1 PUSH1 0x1F LT PUSH2 0x281 JUMPI PUSH2 0x100 DUP1 DUP4 SLOAD DIV MUL DUP4 MSTORE SWAP2 PUSH1 0x20 ADD SWAP2 PUSH2 0x2AA JUMP JUMPDEST DUP3 ADD SWAP2 SWAP1 PUSH0 MSTORE PUSH1 0x20 PUSH0 KECCAK256 SWAP1 JUMPDEST DUP2 SLOAD DUP2 MSTORE SWAP1 PUSH1 0x1 ADD SWAP1 PUSH1 0x20 ADD DUP1 DUP4 GT PUSH2 0x28D JUMPI DUP3 SWAP1 SUB PUSH1 0x1F AND DUP3 ADD SWAP2 JUMPDEST POP POP POP POP POP DUP2 JUMP JUMPDEST PUSH2 0x2BA PUSH2 0x67D JUMP JUMPDEST PUSH1 0x1 PUSH1 0x1 PUSH1 0xA0 SHL SUB DUP3 AND PUSH2 0x307 JUMPI PUSH1 0x40 MLOAD PUSH3 0x461BCD PUSH1 0xE5 SHL DUP2 MSTORE PUSH1 0x20 PUSH1 0x4 DUP3 ADD MSTORE PUSH1 0xF PUSH1 0x24 DUP3 ADD MSTORE PUSH15 0x496E76616C69642061646472657373 PUSH1 0x88 SHL PUSH1 0x44 DUP3 ADD MSTORE PUSH1 0x64 ADD JUMPDEST PUSH1 0x40 MLOAD DUP1 SWAP2 SUB SWAP1 REVERT JUMPDEST PUSH2 0x312 PUSH0 DUP4 DUP4 PUSH2 0x6AB JUMP JUMPDEST POP POP JUMP JUMPDEST PUSH0 PUSH1 0x60 DUP1 PUSH0 PUSH1 0x2 SLOAD PUSH1 0x3 PUSH1 0x5 PUSH1 0x4 PUSH0 SWAP1 SLOAD SWAP1 PUSH2 0x100 EXP SWAP1 DIV PUSH1 0xFF AND DUP3 DUP1 SLOAD PUSH2 0x33D SWAP1 PUSH2 0x907 JUMP JUMPDEST DUP1 PUSH1 0x1F ADD PUSH1 0x20 DUP1 SWAP2 DIV MUL PUSH1 0x20 ADD PUSH1 0x40 MLOAD SWAP1 DUP2 ADD PUSH1 0x40 MSTORE DUP1 SWAP3 SWAP2 SWAP1 DUP2 DUP2 MSTORE PUSH1 0x20 ADD DUP3 DUP1 SLOAD PUSH2 0x369 SWAP1 PUSH2 0x907 JUMP JUMPDEST DUP1 ISZERO PUSH2 0x3B4 JUMPI DUP1 PUSH1 0x1F LT PUSH2 0x38B JUMPI PUSH2 0x100 DUP1 DUP4 SLOAD DIV MUL DUP4 MSTORE SWAP2 PUSH1 0x20 ADD SWAP2 PUSH2 0x3B4 JUMP JUMPDEST DUP3 ADD SWAP2 SWAP1 PUSH0 MSTORE PUSH1 0x20 PUSH0 KECCAK256 SWAP1 JUMPDEST DUP2 SLOAD DUP2 MSTORE SWAP1 PUSH1 0x1 ADD SWAP1 PUSH1 0x20 ADD DUP1 DUP4 GT PUSH2 0x397 JUMPI DUP3 SWAP1 SUB PUSH1 0x1F AND DUP3 ADD SWAP2 JUMPDEST POP POP POP POP POP SWAP3 POP DUP2 DUP1 SLOAD PUSH2 0x3C7 SWAP1 PUSH2 0x907 JUMP JUMPDEST DUP1 PUSH1 0x1F ADD PUSH1 0x20 DUP1 SWAP2 DIV MUL PUSH1 0x20 ADD PUSH1 0x40 MLOAD SWAP1 DUP2 ADD PUSH1 0x40 MSTORE DUP1 SWAP3 SWAP2 SWAP1 DUP2 DUP2 MSTORE PUSH1 0x20 ADD DUP3 DUP1 SLOAD PUSH2 0x3F3 SWAP1 PUSH2 0x907 JUMP JUMPDEST DUP1 ISZERO PUSH2 0x43E JUMPI DUP1 PUSH1 0x1F LT PUSH2 0x415 JUMPI PUSH2 0x100 DUP1 DUP4 SLOAD DIV MUL DUP4 MSTORE SWAP2 PUSH1 0x20 ADD SWAP2 PUSH2 0x43E JUMP JUMPDEST DUP3 ADD SWAP2 SWAP1 PUSH0 MSTORE PUSH1 0x20 PUSH0 KECCAK256 SWAP1 JUMPDEST DUP2 SLOAD DUP2 MSTORE SWAP1 PUSH1 0x1 ADD SWAP1 PUSH1 0x20 ADD DUP1 DUP4 GT PUSH2 0x421 JUMPI DUP3 SWAP1 SUB PUSH1 0x1F AND DUP3 ADD SWAP2 JUMPDEST POP SWAP8 SWAP13 SWAP7 SWAP12 POP SWAP3 SWAP10 POP POP PUSH1 0xFF SWAP1 SWAP3 AND SWAP7 POP SWAP3 SWAP5 POP POP POP POP POP JUMP JUMPDEST PUSH1 0x5 DUP1 SLOAD PUSH2 0x233 SWAP1 PUSH2 0x907 JUMP JUMPDEST PUSH2 0x46D PUSH2 0x67D JUMP JUMPDEST PUSH1 0x1 PUSH1 0x1 PUSH1 0xA0 SHL SUB DUP3 AND PUSH2 0x4B6 JUMPI PUSH1 0x40 MLOAD PUSH3 0x461BCD PUSH1 0xE5 SHL DUP2 MSTORE PUSH1 0x20 PUSH1 0x4 DUP3 ADD MSTORE PUSH1 0x10 PUSH1 0x24 DUP3 ADD MSTORE PUSH16 0x496E76616C6964206163636F756E7421 PUSH1 0x80 SHL PUSH1 0x44 DUP3 ADD MSTORE PUSH1 0x64 ADD PUSH2 0x2FE JUMP JUMPDEST PUSH2 0x312 DUP3 PUSH0 DUP4 PUSH2 0x6AB JUMP JUMPDEST CALLER PUSH0 SWAP1 DUP2 MSTORE PUSH1 0x1 PUSH1 0x20 MSTORE PUSH1 0x40 DUP2 KECCAK256 SLOAD DUP3 GT ISZERO PUSH2 0x537 JUMPI PUSH1 0x40 MLOAD PUSH3 0x461BCD PUSH1 0xE5 SHL DUP2 MSTORE PUSH1 0x20 PUSH1 0x4 DUP3 ADD MSTORE PUSH1 0x2F PUSH1 0x24 DUP3 ADD MSTORE PUSH32 0x746F6B656E2062616C616E6365206973206C6F776572207468616E2074686520 PUSH1 0x44 DUP3 ADD MSTORE PUSH15 0x1D985B1D59481C995C5D595CDD1959 PUSH1 0x8A SHL PUSH1 0x64 DUP3 ADD MSTORE PUSH1 0x84 ADD PUSH2 0x2FE JUMP JUMPDEST PUSH1 0x1 PUSH1 0x1 PUSH1 0xA0 SHL SUB DUP4 AND CALLER SUB PUSH2 0x5A7 JUMPI PUSH1 0x40 MLOAD PUSH3 0x461BCD PUSH1 0xE5 SHL DUP2 MSTORE PUSH1 0x20 PUSH1 0x4 DUP3 ADD MSTORE PUSH1 0x2F PUSH1 0x24 DUP3 ADD MSTORE PUSH32 0x486F6C64206F6E2C20796F752077616E206465706F73697420746F20796F7572 PUSH1 0x44 DUP3 ADD MSTORE PUSH15 0x73656C662E2044657920706C617921 PUSH1 0x88 SHL PUSH1 0x64 DUP3 ADD MSTORE PUSH1 0x84 ADD PUSH2 0x2FE JUMP JUMPDEST CALLER PUSH0 SWAP1 DUP2 MSTORE PUSH1 0x1 PUSH1 0x20 MSTORE PUSH1 0x40 DUP2 KECCAK256 DUP1 SLOAD DUP5 SWAP3 SWAP1 PUSH2 0x5C5 SWAP1 DUP5 SWAP1 PUSH2 0x953 JUMP JUMPDEST SWAP1 SWAP2 SSTORE POP POP PUSH1 0x1 PUSH1 0x1 PUSH1 0xA0 SHL SUB DUP4 AND PUSH0 SWAP1 DUP2 MSTORE PUSH1 0x1 PUSH1 0x20 MSTORE PUSH1 0x40 DUP2 KECCAK256 DUP1 SLOAD DUP5 SWAP3 SWAP1 PUSH2 0x5F1 SWAP1 DUP5 SWAP1 PUSH2 0x966 JUMP JUMPDEST SWAP1 SWAP2 SSTORE POP POP PUSH1 0x40 MLOAD DUP3 DUP2 MSTORE PUSH1 0x1 PUSH1 0x1 PUSH1 0xA0 SHL SUB DUP5 AND SWAP1 CALLER SWAP1 PUSH32 0xDDF252AD1BE2C89B69C2B068FC378DAA952BA7F163C4A11628F55A4DF523B3EF SWAP1 PUSH1 0x20 ADD PUSH1 0x40 MLOAD DUP1 SWAP2 SUB SWAP1 LOG3 POP PUSH1 0x1 JUMPDEST SWAP3 SWAP2 POP POP JUMP JUMPDEST PUSH2 0x648 PUSH2 0x67D JUMP JUMPDEST PUSH1 0x1 PUSH1 0x1 PUSH1 0xA0 SHL SUB DUP2 AND PUSH2 0x671 JUMPI PUSH1 0x40 MLOAD PUSH4 0x1E4FBDF7 PUSH1 0xE0 SHL DUP2 MSTORE PUSH0 PUSH1 0x4 DUP3 ADD MSTORE PUSH1 0x24 ADD PUSH2 0x2FE JUMP JUMPDEST PUSH2 0x67A DUP2 PUSH2 0x7DC JUMP JUMPDEST POP JUMP JUMPDEST PUSH0 SLOAD PUSH1 0x1 PUSH1 0x1 PUSH1 0xA0 SHL SUB AND CALLER EQ PUSH2 0x6A9 JUMPI PUSH1 0x40 MLOAD PUSH4 0x118CDAA7 PUSH1 0xE0 SHL DUP2 MSTORE CALLER PUSH1 0x4 DUP3 ADD MSTORE PUSH1 0x24 ADD PUSH2 0x2FE JUMP JUMPDEST JUMP JUMPDEST PUSH1 0x1 PUSH1 0x1 PUSH1 0xA0 SHL SUB DUP4 AND PUSH2 0x6D5 JUMPI DUP1 PUSH1 0x2 PUSH0 DUP3 DUP3 SLOAD PUSH2 0x6CA SWAP2 SWAP1 PUSH2 0x966 JUMP JUMPDEST SWAP1 SWAP2 SSTORE POP PUSH2 0x750 SWAP1 POP JUMP JUMPDEST PUSH1 0x1 PUSH1 0x1 PUSH1 0xA0 SHL SUB DUP4 AND PUSH0 SWAP1 DUP2 MSTORE PUSH1 0x1 PUSH1 0x20 MSTORE PUSH1 0x40 SWAP1 KECCAK256 SLOAD DUP2 DUP2 GT PUSH2 0x732 JUMPI PUSH1 0x40 MLOAD PUSH3 0x461BCD PUSH1 0xE5 SHL DUP2 MSTORE PUSH1 0x20 PUSH1 0x4 DUP3 ADD MSTORE PUSH1 0x13 PUSH1 0x24 DUP3 ADD MSTORE PUSH19 0x24B739BAB334B2B73A10252B21903A37B5B2B7 PUSH1 0x69 SHL PUSH1 0x44 DUP3 ADD MSTORE PUSH1 0x64 ADD PUSH2 0x2FE JUMP JUMPDEST PUSH1 0x1 PUSH1 0x1 PUSH1 0xA0 SHL SUB DUP5 AND PUSH0 SWAP1 DUP2 MSTORE PUSH1 0x1 PUSH1 0x20 MSTORE PUSH1 0x40 SWAP1 KECCAK256 SWAP1 DUP3 SWAP1 SUB SWAP1 SSTORE JUMPDEST PUSH1 0x1 PUSH1 0x1 PUSH1 0xA0 SHL SUB DUP3 AND PUSH2 0x76C JUMPI PUSH1 0x2 DUP1 SLOAD DUP3 SWAP1 SUB SWAP1 SSTORE PUSH2 0x78A JUMP JUMPDEST PUSH1 0x1 PUSH1 0x1 PUSH1 0xA0 SHL SUB DUP3 AND PUSH0 SWAP1 DUP2 MSTORE PUSH1 0x1 PUSH1 0x20 MSTORE PUSH1 0x40 SWAP1 KECCAK256 DUP1 SLOAD DUP3 ADD SWAP1 SSTORE JUMPDEST DUP2 PUSH1 0x1 PUSH1 0x1 PUSH1 0xA0 SHL SUB AND DUP4 PUSH1 0x1 PUSH1 0x1 PUSH1 0xA0 SHL SUB AND PUSH32 0xDDF252AD1BE2C89B69C2B068FC378DAA952BA7F163C4A11628F55A4DF523B3EF DUP4 PUSH1 0x40 MLOAD PUSH2 0x7CF SWAP2 DUP2 MSTORE PUSH1 0x20 ADD SWAP1 JUMP JUMPDEST PUSH1 0x40 MLOAD DUP1 SWAP2 SUB SWAP1 LOG3 POP POP POP JUMP JUMPDEST PUSH0 DUP1 SLOAD PUSH1 0x1 PUSH1 0x1 PUSH1 0xA0 SHL SUB DUP4 DUP2 AND PUSH1 0x1 PUSH1 0x1 PUSH1 0xA0 SHL SUB NOT DUP4 AND DUP2 OR DUP5 SSTORE PUSH1 0x40 MLOAD SWAP2 SWAP1 SWAP3 AND SWAP3 DUP4 SWAP2 PUSH32 0x8BE0079C531659141344CD1FD0A4F28419497F9722A3DAAFE3B4186F6B6457E0 SWAP2 SWAP1 LOG3 POP POP JUMP JUMPDEST PUSH1 0x1 PUSH1 0x1 PUSH1 0xA0 SHL SUB DUP2 AND DUP2 EQ PUSH2 0x67A JUMPI PUSH0 DUP1 REVERT JUMPDEST PUSH0 PUSH1 0x20 DUP3 DUP5 SUB SLT ISZERO PUSH2 0x84F JUMPI PUSH0 DUP1 REVERT JUMPDEST DUP2 CALLDATALOAD PUSH2 0x85A DUP2 PUSH2 0x82B JUMP JUMPDEST SWAP4 SWAP3 POP POP POP JUMP JUMPDEST PUSH0 DUP2 MLOAD DUP1 DUP5 MSTORE DUP1 PUSH1 0x20 DUP5 ADD PUSH1 0x20 DUP7 ADD MCOPY PUSH0 PUSH1 0x20 DUP3 DUP7 ADD ADD MSTORE PUSH1 0x20 PUSH1 0x1F NOT PUSH1 0x1F DUP4 ADD AND DUP6 ADD ADD SWAP2 POP POP SWAP3 SWAP2 POP POP JUMP JUMPDEST PUSH1 0x20 DUP2 MSTORE PUSH0 PUSH2 0x85A PUSH1 0x20 DUP4 ADD DUP5 PUSH2 0x861 JUMP JUMPDEST PUSH0 DUP1 PUSH1 0x40 DUP4 DUP6 SUB SLT ISZERO PUSH2 0x8B2 JUMPI PUSH0 DUP1 REVERT JUMPDEST DUP3 CALLDATALOAD PUSH2 0x8BD DUP2 PUSH2 0x82B JUMP JUMPDEST SWAP5 PUSH1 0x20 SWAP4 SWAP1 SWAP4 ADD CALLDATALOAD SWAP4 POP POP POP JUMP JUMPDEST DUP5 DUP2 MSTORE PUSH1 0x80 PUSH1 0x20 DUP3 ADD MSTORE PUSH0 PUSH2 0x8E3 PUSH1 0x80 DUP4 ADD DUP7 PUSH2 0x861 JUMP JUMPDEST DUP3 DUP2 SUB PUSH1 0x40 DUP5 ADD MSTORE PUSH2 0x8F5 DUP2 DUP7 PUSH2 0x861 JUMP JUMPDEST SWAP2 POP POP DUP3 PUSH1 0x60 DUP4 ADD MSTORE SWAP6 SWAP5 POP POP POP POP POP JUMP JUMPDEST PUSH1 0x1 DUP2 DUP2 SHR SWAP1 DUP3 AND DUP1 PUSH2 0x91B JUMPI PUSH1 0x7F DUP3 AND SWAP2 POP JUMPDEST PUSH1 0x20 DUP3 LT DUP2 SUB PUSH2 0x939 JUMPI PUSH4 0x4E487B71 PUSH1 0xE0 SHL PUSH0 MSTORE PUSH1 0x22 PUSH1 0x4 MSTORE PUSH1 0x24 PUSH0 REVERT JUMPDEST POP SWAP2 SWAP1 POP JUMP JUMPDEST PUSH4 0x4E487B71 PUSH1 0xE0 SHL PUSH0 MSTORE PUSH1 0x11 PUSH1 0x4 MSTORE PUSH1 0x24 PUSH0 REVERT JUMPDEST DUP2 DUP2 SUB DUP2 DUP2 GT ISZERO PUSH2 0x63A JUMPI PUSH2 0x63A PUSH2 0x93F JUMP JUMPDEST DUP1 DUP3 ADD DUP1 DUP3 GT ISZERO PUSH2 0x63A JUMPI PUSH2 0x63A PUSH2 0x93F JUMP INVALID LOG2 PUSH5 0x6970667358 0x22 SLT KECCAK256 0xCA 0xA5 0xE2 KECCAK256 PUSH4 0x28BBB305 PUSH20 0x7612183FB06A319DBD2BDE7944896D6FEB396C4E 0xB2 DUP2 PUSH5 0x736F6C6343 STOP ADDMOD BYTE STOP CALLER "
				},
				"gasEstimates": {
					"creation": {
						"codeDepositCost": "495800",
						"executionCost": "infinite",
						"totalCost": "infinite"
					},
					"external": {
						"burn(address,uint256)": "53201",
						"checkBalanceOf(address)": "2518",
						"decimals()": "2379",
						"mint(address,uint256)": "53193",
						"name()": "infinite",
						"owner()": "2321",
						"symbol()": "infinite",
						"tokenInfo()": "infinite",
						"totalSupply()": "2328",
						"transfer(address,uint256)": "infinite",
						"transferOwnership(address)": "infinite"
					},
					"internal": {
						"_update(address,address,uint256)": "infinite"
					}
				},
				"methodIdentifiers": {
					"burn(address,uint256)": "9dc29fac",
					"checkBalanceOf(address)": "03147f39",
					"decimals()": "313ce567",
					"mint(address,uint256)": "40c10f19",
					"name()": "06fdde03",
					"owner()": "8da5cb5b",
					"symbol()": "95d89b41",
					"tokenInfo()": "6addb663",
					"totalSupply()": "18160ddd",
					"transfer(address,uint256)": "a9059cbb",
					"transferOwnership(address)": "f2fde38b"
				}
			},
			"storageLayout": {
				"storage": [
					{
						"astId": 8,
						"contract": "contracts/token.sol:JVCToken",
						"label": "_owner",
						"offset": 0,
						"slot": "0",
						"type": "t_address"
					},
					{
						"astId": 172,
						"contract": "contracts/token.sol:JVCToken",
						"label": "balances",
						"offset": 0,
						"slot": "1",
						"type": "t_mapping(t_address,t_uint256)"
					},
					{
						"astId": 174,
						"contract": "contracts/token.sol:JVCToken",
						"label": "totalSupply",
						"offset": 0,
						"slot": "2",
						"type": "t_uint256"
					},
					{
						"astId": 176,
						"contract": "contracts/token.sol:JVCToken",
						"label": "name",
						"offset": 0,
						"slot": "3",
						"type": "t_string_storage"
					},
					{
						"astId": 178,
						"contract": "contracts/token.sol:JVCToken",
						"label": "decimals",
						"offset": 0,
						"slot": "4",
						"type": "t_uint8"
					},
					{
						"astId": 180,
						"contract": "contracts/token.sol:JVCToken",
						"label": "symbol",
						"offset": 0,
						"slot": "5",
						"type": "t_string_storage"
					}
				],
				"types": {
					"t_address": {
						"encoding": "inplace",
						"label": "address",
						"numberOfBytes": "20"
					},
					"t_mapping(t_address,t_uint256)": {
						"encoding": "mapping",
						"key": "t_address",
						"label": "mapping(address => uint256)",
						"numberOfBytes": "32",
						"value": "t_uint256"
					},
					"t_string_storage": {
						"encoding": "bytes",
						"label": "string",
						"numberOfBytes": "32"
					},
					"t_uint256": {
						"encoding": "inplace",
						"label": "uint256",
						"numberOfBytes": "32"
					},
					"t_uint8": {
						"encoding": "inplace",
						"label": "uint8",
						"numberOfBytes": "1"
					}
				}
			},
			"userdoc": {
				"kind": "user",
				"methods": {},
				"version": 1
			}
		}
	}
}