{
	"contracts/bank.sol": {
		"bank": {
			"abi": [
				{
					"inputs": [
						{
							"internalType": "address",
							"name": "UserAddr",
							"type": "address"
						}
					],
					"name": "GetBalance",
					"outputs": [
						{
							"internalType": "uint64",
							"name": "",
							"type": "uint64"
						}
					],
					"stateMutability": "view",
					"type": "function"
				},
				{
					"inputs": [],
					"name": "MaxWithdAmt",
					"outputs": [
						{
							"internalType": "uint64",
							"name": "",
							"type": "uint64"
						}
					],
					"stateMutability": "view",
					"type": "function"
				},
				{
					"inputs": [],
					"name": "MinDepAmt",
					"outputs": [
						{
							"internalType": "uint64",
							"name": "",
							"type": "uint64"
						}
					],
					"stateMutability": "view",
					"type": "function"
				},
				{
					"inputs": [
						{
							"internalType": "address",
							"name": "DepAddr",
							"type": "address"
						},
						{
							"internalType": "uint64",
							"name": "DepAmt",
							"type": "uint64"
						}
					],
					"name": "deposit",
					"outputs": [],
					"stateMutability": "nonpayable",
					"type": "function"
				},
				{
					"inputs": [
						{
							"internalType": "address",
							"name": "",
							"type": "address"
						}
					],
					"name": "record",
					"outputs": [
						{
							"internalType": "uint256",
							"name": "",
							"type": "uint256"
						}
					],
					"stateMutability": "view",
					"type": "function"
				},
				{
					"inputs": [
						{
							"internalType": "address",
							"name": "WithdAddr",
							"type": "address"
						},
						{
							"internalType": "uint256",
							"name": "WithdAmt",
							"type": "uint256"
						}
					],
					"name": "withdraw",
					"outputs": [],
					"stateMutability": "nonpayable",
					"type": "function"
				}
			],
			"devdoc": {
				"kind": "dev",
				"methods": {},
				"version": 1
			},
			"evm": {
				"assembly": "    /* \"contracts/bank.sol\":61:1522  contract bank {... */\n  mstore(0x40, 0x80)\n    /* \"contracts/bank.sol\":159:178  250000000000000 wei */\n  0xe35fa931a000\n    /* \"contracts/bank.sol\":133:178  uint64 public MinDepAmt = 250000000000000 wei */\n  0x01\n  exp(0x0100, 0x00)\n  dup2\n  sload\n  dup2\n  0xffffffffffffffff\n  mul\n  not\n  and\n  swap1\n  dup4\n  0xffffffffffffffff\n  and\n  mul\n  or\n  swap1\n  sstore\n  pop\n    /* \"contracts/bank.sol\":213:220  2 ether */\n  0x1bc16d674ec80000\n    /* \"contracts/bank.sol\":185:220  uint64 public MaxWithdAmt = 2 ether */\n  0x01\n  exp(0x0100, 0x08)\n  dup2\n  sload\n  dup2\n  0xffffffffffffffff\n  mul\n  not\n  and\n  swap1\n  dup4\n  0xffffffffffffffff\n  and\n  mul\n  or\n  swap1\n  sstore\n  pop\n    /* \"contracts/bank.sol\":61:1522  contract bank {... */\n  callvalue\n  dup1\n  iszero\n  tag_1\n  jumpi\n  0x00\n  dup1\n  revert\ntag_1:\n  pop\n  dataSize(sub_0)\n  dup1\n  dataOffset(sub_0)\n  0x00\n  codecopy\n  0x00\n  return\nstop\n\nsub_0: assembly {\n        /* \"contracts/bank.sol\":61:1522  contract bank {... */\n      mstore(0x40, 0x80)\n      callvalue\n      dup1\n      iszero\n      tag_1\n      jumpi\n      0x00\n      dup1\n      revert\n    tag_1:\n      pop\n      jumpi(tag_2, lt(calldatasize, 0x04))\n      shr(0xe0, calldataload(0x00))\n      dup1\n      0x29664ac6\n      eq\n      tag_3\n      jumpi\n      dup1\n      0x3465d6d5\n      eq\n      tag_4\n      jumpi\n      dup1\n      0x422fc048\n      eq\n      tag_5\n      jumpi\n      dup1\n      0x43e2e504\n      eq\n      tag_6\n      jumpi\n      dup1\n      0x870b08c0\n      eq\n      tag_7\n      jumpi\n      dup1\n      0xf3fef3a3\n      eq\n      tag_8\n      jumpi\n    tag_2:\n      0x00\n      dup1\n      revert\n        /* \"contracts/bank.sol\":693:904  function deposit(address DepAddr, uint64 DepAmt) ... */\n    tag_3:\n      tag_9\n      0x04\n      dup1\n      calldatasize\n      sub\n      dup2\n      add\n      swap1\n      tag_10\n      swap2\n      swap1\n      tag_11\n      jump\t// in\n    tag_10:\n      tag_12\n      jump\t// in\n    tag_9:\n      stop\n        /* \"contracts/bank.sol\":82:124  mapping (address => uint256) public record */\n    tag_4:\n      tag_13\n      0x04\n      dup1\n      calldatasize\n      sub\n      dup2\n      add\n      swap1\n      tag_14\n      swap2\n      swap1\n      tag_15\n      jump\t// in\n    tag_14:\n      tag_16\n      jump\t// in\n    tag_13:\n      mload(0x40)\n      tag_17\n      swap2\n      swap1\n      tag_18\n      jump\t// in\n    tag_17:\n      mload(0x40)\n      dup1\n      swap2\n      sub\n      swap1\n      return\n        /* \"contracts/bank.sol\":133:178  uint64 public MinDepAmt = 250000000000000 wei */\n    tag_5:\n      tag_19\n      tag_20\n      jump\t// in\n    tag_19:\n      mload(0x40)\n      tag_21\n      swap2\n      swap1\n      tag_22\n      jump\t// in\n    tag_21:\n      mload(0x40)\n      dup1\n      swap2\n      sub\n      swap1\n      return\n        /* \"contracts/bank.sol\":1413:1519  function GetBalance(address UserAddr)... */\n    tag_6:\n      tag_23\n      0x04\n      dup1\n      calldatasize\n      sub\n      dup2\n      add\n      swap1\n      tag_24\n      swap2\n      swap1\n      tag_15\n      jump\t// in\n    tag_24:\n      tag_25\n      jump\t// in\n    tag_23:\n      mload(0x40)\n      tag_26\n      swap2\n      swap1\n      tag_22\n      jump\t// in\n    tag_26:\n      mload(0x40)\n      dup1\n      swap2\n      sub\n      swap1\n      return\n        /* \"contracts/bank.sol\":185:220  uint64 public MaxWithdAmt = 2 ether */\n    tag_7:\n      tag_27\n      tag_28\n      jump\t// in\n    tag_27:\n      mload(0x40)\n      tag_29\n      swap2\n      swap1\n      tag_22\n      jump\t// in\n    tag_29:\n      mload(0x40)\n      dup1\n      swap2\n      sub\n      swap1\n      return\n        /* \"contracts/bank.sol\":975:1095  function withdraw(address WithdAddr, uint256 WithdAmt)... */\n    tag_8:\n      tag_30\n      0x04\n      dup1\n      calldatasize\n      sub\n      dup2\n      add\n      swap1\n      tag_31\n      swap2\n      swap1\n      tag_32\n      jump\t// in\n    tag_31:\n      tag_33\n      jump\t// in\n    tag_30:\n      stop\n        /* \"contracts/bank.sol\":693:904  function deposit(address DepAddr, uint64 DepAmt) ... */\n    tag_12:\n        /* \"contracts/bank.sol\":771:778  DepAddr */\n      dup2\n        /* \"contracts/bank.sol\":574:592  ContractAddr(addr) */\n      tag_35\n        /* \"contracts/bank.sol\":587:591  addr */\n      dup2\n        /* \"contracts/bank.sol\":574:586  ContractAddr */\n      tag_36\n        /* \"contracts/bank.sol\":574:592  ContractAddr(addr) */\n      jump\t// in\n    tag_35:\n        /* \"contracts/bank.sol\":573:592  !ContractAddr(addr) */\n      iszero\n        /* \"contracts/bank.sol\":565:624  require(!ContractAddr(addr), \"This is a contract address!\") */\n      tag_37\n      jumpi\n      mload(0x40)\n      0x08c379a000000000000000000000000000000000000000000000000000000000\n      dup2\n      mstore\n      0x04\n      add\n      tag_38\n      swap1\n      tag_39\n      jump\t// in\n    tag_38:\n      mload(0x40)\n      dup1\n      swap2\n      sub\n      swap1\n      revert\n    tag_37:\n        /* \"contracts/bank.sol\":846:852  DepAmt */\n      dup2\n        /* \"contracts/bank.sol\":295:304  MinDepAmt */\n      0x01\n      0x00\n      swap1\n      sload\n      swap1\n      0x0100\n      exp\n      swap1\n      div\n      0xffffffffffffffff\n      and\n        /* \"contracts/bank.sol\":289:304  amt > MinDepAmt */\n      0xffffffffffffffff\n      and\n        /* \"contracts/bank.sol\":289:292  amt */\n      dup2\n        /* \"contracts/bank.sol\":289:304  amt > MinDepAmt */\n      0xffffffffffffffff\n      and\n      gt\n        /* \"contracts/bank.sol\":281:345  require(amt > MinDepAmt, \"Minimun Deposit amount is 0.25 Ether\") */\n      tag_41\n      jumpi\n      mload(0x40)\n      0x08c379a000000000000000000000000000000000000000000000000000000000\n      dup2\n      mstore\n      0x04\n      add\n      tag_42\n      swap1\n      tag_43\n      jump\t// in\n    tag_42:\n      mload(0x40)\n      dup1\n      swap2\n      sub\n      swap1\n      revert\n    tag_41:\n        /* \"contracts/bank.sol\":890:896  DepAmt */\n      dup3\n        /* \"contracts/bank.sol\":871:896  record[DepAddr] += DepAmt */\n      0xffffffffffffffff\n      and\n        /* \"contracts/bank.sol\":871:877  record */\n      0x00\n        /* \"contracts/bank.sol\":871:886  record[DepAddr] */\n      dup1\n        /* \"contracts/bank.sol\":878:885  DepAddr */\n      dup7\n        /* \"contracts/bank.sol\":871:886  record[DepAddr] */\n      0xffffffffffffffffffffffffffffffffffffffff\n      and\n      0xffffffffffffffffffffffffffffffffffffffff\n      and\n      dup2\n      mstore\n      0x20\n      add\n      swap1\n      dup2\n      mstore\n      0x20\n      add\n      0x00\n      keccak256\n      0x00\n        /* \"contracts/bank.sol\":871:896  record[DepAddr] += DepAmt */\n      dup3\n      dup3\n      sload\n      tag_45\n      swap2\n      swap1\n      tag_46\n      jump\t// in\n    tag_45:\n      swap3\n      pop\n      pop\n      dup2\n      swap1\n      sstore\n      pop\n        /* \"contracts/bank.sol\":635:636  _ */\n      pop\n        /* \"contracts/bank.sol\":693:904  function deposit(address DepAddr, uint64 DepAmt) ... */\n      pop\n      pop\n      pop\n      jump\t// out\n        /* \"contracts/bank.sol\":82:124  mapping (address => uint256) public record */\n    tag_16:\n      mstore(0x20, 0x00)\n      dup1\n      0x00\n      mstore\n      keccak256(0x00, 0x40)\n      0x00\n      swap2\n      pop\n      swap1\n      pop\n      sload\n      dup2\n      jump\t// out\n        /* \"contracts/bank.sol\":133:178  uint64 public MinDepAmt = 250000000000000 wei */\n    tag_20:\n      0x01\n      0x00\n      swap1\n      sload\n      swap1\n      0x0100\n      exp\n      swap1\n      div\n      0xffffffffffffffff\n      and\n      dup2\n      jump\t// out\n        /* \"contracts/bank.sol\":1413:1519  function GetBalance(address UserAddr)... */\n    tag_25:\n        /* \"contracts/bank.sol\":1488:1494  uint64 */\n      0x00\n        /* \"contracts/bank.sol\":1413:1519  function GetBalance(address UserAddr)... */\n      swap2\n      swap1\n      pop\n      jump\t// out\n        /* \"contracts/bank.sol\":185:220  uint64 public MaxWithdAmt = 2 ether */\n    tag_28:\n      0x01\n      0x08\n      swap1\n      sload\n      swap1\n      0x0100\n      exp\n      swap1\n      div\n      0xffffffffffffffff\n      and\n      dup2\n      jump\t// out\n        /* \"contracts/bank.sol\":975:1095  function withdraw(address WithdAddr, uint256 WithdAmt)... */\n    tag_33:\n        /* \"contracts/bank.sol\":1079:1087  WithdAmt */\n      dup1\n        /* \"contracts/bank.sol\":1058:1064  record */\n      0x00\n        /* \"contracts/bank.sol\":1058:1075  record[WithdAddr] */\n      dup1\n        /* \"contracts/bank.sol\":1065:1074  WithdAddr */\n      dup5\n        /* \"contracts/bank.sol\":1058:1075  record[WithdAddr] */\n      0xffffffffffffffffffffffffffffffffffffffff\n      and\n      0xffffffffffffffffffffffffffffffffffffffff\n      and\n      dup2\n      mstore\n      0x20\n      add\n      swap1\n      dup2\n      mstore\n      0x20\n      add\n      0x00\n      keccak256\n      0x00\n        /* \"contracts/bank.sol\":1058:1087  record[WithdAddr] -= WithdAmt */\n      dup3\n      dup3\n      sload\n      tag_49\n      swap2\n      swap1\n      tag_50\n      jump\t// in\n    tag_49:\n      swap3\n      pop\n      pop\n      dup2\n      swap1\n      sstore\n      pop\n        /* \"contracts/bank.sol\":975:1095  function withdraw(address WithdAddr, uint256 WithdAmt)... */\n      pop\n      pop\n      jump\t// out\n        /* \"contracts/bank.sol\":1157:1405  function ContractAddr(address _addr)... */\n    tag_36:\n        /* \"contracts/bank.sol\":1234:1238  bool */\n      0x00\n        /* \"contracts/bank.sol\":1256:1275  uint64 BytecodeSize */\n      dup1\n        /* \"contracts/bank.sol\":1347:1352  _addr */\n      dup3\n        /* \"contracts/bank.sol\":1335:1353  extcodesize(_addr) */\n      extcodesize\n        /* \"contracts/bank.sol\":1319:1353  BytecodeSize := extcodesize(_addr) */\n      swap1\n      pop\n        /* \"contracts/bank.sol\":1396:1397  0 */\n      0x00\n        /* \"contracts/bank.sol\":1381:1393  BytecodeSize */\n      dup2\n        /* \"contracts/bank.sol\":1381:1397  BytecodeSize > 0 */\n      0xffffffffffffffff\n      and\n      gt\n        /* \"contracts/bank.sol\":1374:1397  return BytecodeSize > 0 */\n      swap2\n      pop\n      pop\n        /* \"contracts/bank.sol\":1157:1405  function ContractAddr(address _addr)... */\n      swap2\n      swap1\n      pop\n      jump\t// out\n        /* \"#utility.yul\":88:205   */\n    tag_53:\n        /* \"#utility.yul\":197:198   */\n      0x00\n        /* \"#utility.yul\":194:195   */\n      dup1\n        /* \"#utility.yul\":187:199   */\n      revert\n        /* \"#utility.yul\":334:460   */\n    tag_55:\n        /* \"#utility.yul\":371:378   */\n      0x00\n        /* \"#utility.yul\":411:453   */\n      0xffffffffffffffffffffffffffffffffffffffff\n        /* \"#utility.yul\":404:409   */\n      dup3\n        /* \"#utility.yul\":400:454   */\n      and\n        /* \"#utility.yul\":389:454   */\n      swap1\n      pop\n        /* \"#utility.yul\":334:460   */\n      swap2\n      swap1\n      pop\n      jump\t// out\n        /* \"#utility.yul\":466:562   */\n    tag_56:\n        /* \"#utility.yul\":503:510   */\n      0x00\n        /* \"#utility.yul\":532:556   */\n      tag_79\n        /* \"#utility.yul\":550:555   */\n      dup3\n        /* \"#utility.yul\":532:556   */\n      tag_55\n      jump\t// in\n    tag_79:\n        /* \"#utility.yul\":521:556   */\n      swap1\n      pop\n        /* \"#utility.yul\":466:562   */\n      swap2\n      swap1\n      pop\n      jump\t// out\n        /* \"#utility.yul\":568:690   */\n    tag_57:\n        /* \"#utility.yul\":641:665   */\n      tag_81\n        /* \"#utility.yul\":659:664   */\n      dup2\n        /* \"#utility.yul\":641:665   */\n      tag_56\n      jump\t// in\n    tag_81:\n        /* \"#utility.yul\":634:639   */\n      dup2\n        /* \"#utility.yul\":631:666   */\n      eq\n        /* \"#utility.yul\":621:684   */\n      tag_82\n      jumpi\n        /* \"#utility.yul\":680:681   */\n      0x00\n        /* \"#utility.yul\":677:678   */\n      dup1\n        /* \"#utility.yul\":670:682   */\n      revert\n        /* \"#utility.yul\":621:684   */\n    tag_82:\n        /* \"#utility.yul\":568:690   */\n      pop\n      jump\t// out\n        /* \"#utility.yul\":696:835   */\n    tag_58:\n        /* \"#utility.yul\":742:747   */\n      0x00\n        /* \"#utility.yul\":780:786   */\n      dup2\n        /* \"#utility.yul\":767:787   */\n      calldataload\n        /* \"#utility.yul\":758:787   */\n      swap1\n      pop\n        /* \"#utility.yul\":796:829   */\n      tag_84\n        /* \"#utility.yul\":823:828   */\n      dup2\n        /* \"#utility.yul\":796:829   */\n      tag_57\n      jump\t// in\n    tag_84:\n        /* \"#utility.yul\":696:835   */\n      swap3\n      swap2\n      pop\n      pop\n      jump\t// out\n        /* \"#utility.yul\":841:942   */\n    tag_59:\n        /* \"#utility.yul\":877:884   */\n      0x00\n        /* \"#utility.yul\":917:935   */\n      0xffffffffffffffff\n        /* \"#utility.yul\":910:915   */\n      dup3\n        /* \"#utility.yul\":906:936   */\n      and\n        /* \"#utility.yul\":895:936   */\n      swap1\n      pop\n        /* \"#utility.yul\":841:942   */\n      swap2\n      swap1\n      pop\n      jump\t// out\n        /* \"#utility.yul\":948:1068   */\n    tag_60:\n        /* \"#utility.yul\":1020:1043   */\n      tag_87\n        /* \"#utility.yul\":1037:1042   */\n      dup2\n        /* \"#utility.yul\":1020:1043   */\n      tag_59\n      jump\t// in\n    tag_87:\n        /* \"#utility.yul\":1013:1018   */\n      dup2\n        /* \"#utility.yul\":1010:1044   */\n      eq\n        /* \"#utility.yul\":1000:1062   */\n      tag_88\n      jumpi\n        /* \"#utility.yul\":1058:1059   */\n      0x00\n        /* \"#utility.yul\":1055:1056   */\n      dup1\n        /* \"#utility.yul\":1048:1060   */\n      revert\n        /* \"#utility.yul\":1000:1062   */\n    tag_88:\n        /* \"#utility.yul\":948:1068   */\n      pop\n      jump\t// out\n        /* \"#utility.yul\":1074:1211   */\n    tag_61:\n        /* \"#utility.yul\":1119:1124   */\n      0x00\n        /* \"#utility.yul\":1157:1163   */\n      dup2\n        /* \"#utility.yul\":1144:1164   */\n      calldataload\n        /* \"#utility.yul\":1135:1164   */\n      swap1\n      pop\n        /* \"#utility.yul\":1173:1205   */\n      tag_90\n        /* \"#utility.yul\":1199:1204   */\n      dup2\n        /* \"#utility.yul\":1173:1205   */\n      tag_60\n      jump\t// in\n    tag_90:\n        /* \"#utility.yul\":1074:1211   */\n      swap3\n      swap2\n      pop\n      pop\n      jump\t// out\n        /* \"#utility.yul\":1217:1689   */\n    tag_11:\n        /* \"#utility.yul\":1284:1290   */\n      0x00\n        /* \"#utility.yul\":1292:1298   */\n      dup1\n        /* \"#utility.yul\":1341:1343   */\n      0x40\n        /* \"#utility.yul\":1329:1338   */\n      dup4\n        /* \"#utility.yul\":1320:1327   */\n      dup6\n        /* \"#utility.yul\":1316:1339   */\n      sub\n        /* \"#utility.yul\":1312:1344   */\n      slt\n        /* \"#utility.yul\":1309:1428   */\n      iszero\n      tag_92\n      jumpi\n        /* \"#utility.yul\":1347:1426   */\n      tag_93\n      tag_53\n      jump\t// in\n    tag_93:\n        /* \"#utility.yul\":1309:1428   */\n    tag_92:\n        /* \"#utility.yul\":1467:1468   */\n      0x00\n        /* \"#utility.yul\":1492:1545   */\n      tag_94\n        /* \"#utility.yul\":1537:1544   */\n      dup6\n        /* \"#utility.yul\":1528:1534   */\n      dup3\n        /* \"#utility.yul\":1517:1526   */\n      dup7\n        /* \"#utility.yul\":1513:1535   */\n      add\n        /* \"#utility.yul\":1492:1545   */\n      tag_58\n      jump\t// in\n    tag_94:\n        /* \"#utility.yul\":1482:1545   */\n      swap3\n      pop\n        /* \"#utility.yul\":1438:1555   */\n      pop\n        /* \"#utility.yul\":1594:1596   */\n      0x20\n        /* \"#utility.yul\":1620:1672   */\n      tag_95\n        /* \"#utility.yul\":1664:1671   */\n      dup6\n        /* \"#utility.yul\":1655:1661   */\n      dup3\n        /* \"#utility.yul\":1644:1653   */\n      dup7\n        /* \"#utility.yul\":1640:1662   */\n      add\n        /* \"#utility.yul\":1620:1672   */\n      tag_61\n      jump\t// in\n    tag_95:\n        /* \"#utility.yul\":1610:1672   */\n      swap2\n      pop\n        /* \"#utility.yul\":1565:1682   */\n      pop\n        /* \"#utility.yul\":1217:1689   */\n      swap3\n      pop\n      swap3\n      swap1\n      pop\n      jump\t// out\n        /* \"#utility.yul\":1695:2024   */\n    tag_15:\n        /* \"#utility.yul\":1754:1760   */\n      0x00\n        /* \"#utility.yul\":1803:1805   */\n      0x20\n        /* \"#utility.yul\":1791:1800   */\n      dup3\n        /* \"#utility.yul\":1782:1789   */\n      dup5\n        /* \"#utility.yul\":1778:1801   */\n      sub\n        /* \"#utility.yul\":1774:1806   */\n      slt\n        /* \"#utility.yul\":1771:1890   */\n      iszero\n      tag_97\n      jumpi\n        /* \"#utility.yul\":1809:1888   */\n      tag_98\n      tag_53\n      jump\t// in\n    tag_98:\n        /* \"#utility.yul\":1771:1890   */\n    tag_97:\n        /* \"#utility.yul\":1929:1930   */\n      0x00\n        /* \"#utility.yul\":1954:2007   */\n      tag_99\n        /* \"#utility.yul\":1999:2006   */\n      dup5\n        /* \"#utility.yul\":1990:1996   */\n      dup3\n        /* \"#utility.yul\":1979:1988   */\n      dup6\n        /* \"#utility.yul\":1975:1997   */\n      add\n        /* \"#utility.yul\":1954:2007   */\n      tag_58\n      jump\t// in\n    tag_99:\n        /* \"#utility.yul\":1944:2007   */\n      swap2\n      pop\n        /* \"#utility.yul\":1900:2017   */\n      pop\n        /* \"#utility.yul\":1695:2024   */\n      swap3\n      swap2\n      pop\n      pop\n      jump\t// out\n        /* \"#utility.yul\":2030:2107   */\n    tag_62:\n        /* \"#utility.yul\":2067:2074   */\n      0x00\n        /* \"#utility.yul\":2096:2101   */\n      dup2\n        /* \"#utility.yul\":2085:2101   */\n      swap1\n      pop\n        /* \"#utility.yul\":2030:2107   */\n      swap2\n      swap1\n      pop\n      jump\t// out\n        /* \"#utility.yul\":2113:2231   */\n    tag_63:\n        /* \"#utility.yul\":2200:2224   */\n      tag_102\n        /* \"#utility.yul\":2218:2223   */\n      dup2\n        /* \"#utility.yul\":2200:2224   */\n      tag_62\n      jump\t// in\n    tag_102:\n        /* \"#utility.yul\":2195:2198   */\n      dup3\n        /* \"#utility.yul\":2188:2225   */\n      mstore\n        /* \"#utility.yul\":2113:2231   */\n      pop\n      pop\n      jump\t// out\n        /* \"#utility.yul\":2237:2459   */\n    tag_18:\n        /* \"#utility.yul\":2330:2334   */\n      0x00\n        /* \"#utility.yul\":2368:2370   */\n      0x20\n        /* \"#utility.yul\":2357:2366   */\n      dup3\n        /* \"#utility.yul\":2353:2371   */\n      add\n        /* \"#utility.yul\":2345:2371   */\n      swap1\n      pop\n        /* \"#utility.yul\":2381:2452   */\n      tag_104\n        /* \"#utility.yul\":2449:2450   */\n      0x00\n        /* \"#utility.yul\":2438:2447   */\n      dup4\n        /* \"#utility.yul\":2434:2451   */\n      add\n        /* \"#utility.yul\":2425:2431   */\n      dup5\n        /* \"#utility.yul\":2381:2452   */\n      tag_63\n      jump\t// in\n    tag_104:\n        /* \"#utility.yul\":2237:2459   */\n      swap3\n      swap2\n      pop\n      pop\n      jump\t// out\n        /* \"#utility.yul\":2465:2580   */\n    tag_64:\n        /* \"#utility.yul\":2550:2573   */\n      tag_106\n        /* \"#utility.yul\":2567:2572   */\n      dup2\n        /* \"#utility.yul\":2550:2573   */\n      tag_59\n      jump\t// in\n    tag_106:\n        /* \"#utility.yul\":2545:2548   */\n      dup3\n        /* \"#utility.yul\":2538:2574   */\n      mstore\n        /* \"#utility.yul\":2465:2580   */\n      pop\n      pop\n      jump\t// out\n        /* \"#utility.yul\":2586:2804   */\n    tag_22:\n        /* \"#utility.yul\":2677:2681   */\n      0x00\n        /* \"#utility.yul\":2715:2717   */\n      0x20\n        /* \"#utility.yul\":2704:2713   */\n      dup3\n        /* \"#utility.yul\":2700:2718   */\n      add\n        /* \"#utility.yul\":2692:2718   */\n      swap1\n      pop\n        /* \"#utility.yul\":2728:2797   */\n      tag_108\n        /* \"#utility.yul\":2794:2795   */\n      0x00\n        /* \"#utility.yul\":2783:2792   */\n      dup4\n        /* \"#utility.yul\":2779:2796   */\n      add\n        /* \"#utility.yul\":2770:2776   */\n      dup5\n        /* \"#utility.yul\":2728:2797   */\n      tag_64\n      jump\t// in\n    tag_108:\n        /* \"#utility.yul\":2586:2804   */\n      swap3\n      swap2\n      pop\n      pop\n      jump\t// out\n        /* \"#utility.yul\":2810:2932   */\n    tag_65:\n        /* \"#utility.yul\":2883:2907   */\n      tag_110\n        /* \"#utility.yul\":2901:2906   */\n      dup2\n        /* \"#utility.yul\":2883:2907   */\n      tag_62\n      jump\t// in\n    tag_110:\n        /* \"#utility.yul\":2876:2881   */\n      dup2\n        /* \"#utility.yul\":2873:2908   */\n      eq\n        /* \"#utility.yul\":2863:2926   */\n      tag_111\n      jumpi\n        /* \"#utility.yul\":2922:2923   */\n      0x00\n        /* \"#utility.yul\":2919:2920   */\n      dup1\n        /* \"#utility.yul\":2912:2924   */\n      revert\n        /* \"#utility.yul\":2863:2926   */\n    tag_111:\n        /* \"#utility.yul\":2810:2932   */\n      pop\n      jump\t// out\n        /* \"#utility.yul\":2938:3077   */\n    tag_66:\n        /* \"#utility.yul\":2984:2989   */\n      0x00\n        /* \"#utility.yul\":3022:3028   */\n      dup2\n        /* \"#utility.yul\":3009:3029   */\n      calldataload\n        /* \"#utility.yul\":3000:3029   */\n      swap1\n      pop\n        /* \"#utility.yul\":3038:3071   */\n      tag_113\n        /* \"#utility.yul\":3065:3070   */\n      dup2\n        /* \"#utility.yul\":3038:3071   */\n      tag_65\n      jump\t// in\n    tag_113:\n        /* \"#utility.yul\":2938:3077   */\n      swap3\n      swap2\n      pop\n      pop\n      jump\t// out\n        /* \"#utility.yul\":3083:3557   */\n    tag_32:\n        /* \"#utility.yul\":3151:3157   */\n      0x00\n        /* \"#utility.yul\":3159:3165   */\n      dup1\n        /* \"#utility.yul\":3208:3210   */\n      0x40\n        /* \"#utility.yul\":3196:3205   */\n      dup4\n        /* \"#utility.yul\":3187:3194   */\n      dup6\n        /* \"#utility.yul\":3183:3206   */\n      sub\n        /* \"#utility.yul\":3179:3211   */\n      slt\n        /* \"#utility.yul\":3176:3295   */\n      iszero\n      tag_115\n      jumpi\n        /* \"#utility.yul\":3214:3293   */\n      tag_116\n      tag_53\n      jump\t// in\n    tag_116:\n        /* \"#utility.yul\":3176:3295   */\n    tag_115:\n        /* \"#utility.yul\":3334:3335   */\n      0x00\n        /* \"#utility.yul\":3359:3412   */\n      tag_117\n        /* \"#utility.yul\":3404:3411   */\n      dup6\n        /* \"#utility.yul\":3395:3401   */\n      dup3\n        /* \"#utility.yul\":3384:3393   */\n      dup7\n        /* \"#utility.yul\":3380:3402   */\n      add\n        /* \"#utility.yul\":3359:3412   */\n      tag_58\n      jump\t// in\n    tag_117:\n        /* \"#utility.yul\":3349:3412   */\n      swap3\n      pop\n        /* \"#utility.yul\":3305:3422   */\n      pop\n        /* \"#utility.yul\":3461:3463   */\n      0x20\n        /* \"#utility.yul\":3487:3540   */\n      tag_118\n        /* \"#utility.yul\":3532:3539   */\n      dup6\n        /* \"#utility.yul\":3523:3529   */\n      dup3\n        /* \"#utility.yul\":3512:3521   */\n      dup7\n        /* \"#utility.yul\":3508:3530   */\n      add\n        /* \"#utility.yul\":3487:3540   */\n      tag_66\n      jump\t// in\n    tag_118:\n        /* \"#utility.yul\":3477:3540   */\n      swap2\n      pop\n        /* \"#utility.yul\":3432:3550   */\n      pop\n        /* \"#utility.yul\":3083:3557   */\n      swap3\n      pop\n      swap3\n      swap1\n      pop\n      jump\t// out\n        /* \"#utility.yul\":3563:3732   */\n    tag_67:\n        /* \"#utility.yul\":3647:3658   */\n      0x00\n        /* \"#utility.yul\":3681:3687   */\n      dup3\n        /* \"#utility.yul\":3676:3679   */\n      dup3\n        /* \"#utility.yul\":3669:3688   */\n      mstore\n        /* \"#utility.yul\":3721:3725   */\n      0x20\n        /* \"#utility.yul\":3716:3719   */\n      dup3\n        /* \"#utility.yul\":3712:3726   */\n      add\n        /* \"#utility.yul\":3697:3726   */\n      swap1\n      pop\n        /* \"#utility.yul\":3563:3732   */\n      swap3\n      swap2\n      pop\n      pop\n      jump\t// out\n        /* \"#utility.yul\":3738:3915   */\n    tag_68:\n        /* \"#utility.yul\":3878:3907   */\n      0x54686973206973206120636f6e74726163742061646472657373210000000000\n        /* \"#utility.yul\":3874:3875   */\n      0x00\n        /* \"#utility.yul\":3866:3872   */\n      dup3\n        /* \"#utility.yul\":3862:3876   */\n      add\n        /* \"#utility.yul\":3855:3908   */\n      mstore\n        /* \"#utility.yul\":3738:3915   */\n      pop\n      jump\t// out\n        /* \"#utility.yul\":3921:4287   */\n    tag_69:\n        /* \"#utility.yul\":4063:4066   */\n      0x00\n        /* \"#utility.yul\":4084:4151   */\n      tag_122\n        /* \"#utility.yul\":4148:4150   */\n      0x1b\n        /* \"#utility.yul\":4143:4146   */\n      dup4\n        /* \"#utility.yul\":4084:4151   */\n      tag_67\n      jump\t// in\n    tag_122:\n        /* \"#utility.yul\":4077:4151   */\n      swap2\n      pop\n        /* \"#utility.yul\":4160:4253   */\n      tag_123\n        /* \"#utility.yul\":4249:4252   */\n      dup3\n        /* \"#utility.yul\":4160:4253   */\n      tag_68\n      jump\t// in\n    tag_123:\n        /* \"#utility.yul\":4278:4280   */\n      0x20\n        /* \"#utility.yul\":4273:4276   */\n      dup3\n        /* \"#utility.yul\":4269:4281   */\n      add\n        /* \"#utility.yul\":4262:4281   */\n      swap1\n      pop\n        /* \"#utility.yul\":3921:4287   */\n      swap2\n      swap1\n      pop\n      jump\t// out\n        /* \"#utility.yul\":4293:4712   */\n    tag_39:\n        /* \"#utility.yul\":4459:4463   */\n      0x00\n        /* \"#utility.yul\":4497:4499   */\n      0x20\n        /* \"#utility.yul\":4486:4495   */\n      dup3\n        /* \"#utility.yul\":4482:4500   */\n      add\n        /* \"#utility.yul\":4474:4500   */\n      swap1\n      pop\n        /* \"#utility.yul\":4546:4555   */\n      dup2\n        /* \"#utility.yul\":4540:4544   */\n      dup2\n        /* \"#utility.yul\":4536:4556   */\n      sub\n        /* \"#utility.yul\":4532:4533   */\n      0x00\n        /* \"#utility.yul\":4521:4530   */\n      dup4\n        /* \"#utility.yul\":4517:4534   */\n      add\n        /* \"#utility.yul\":4510:4557   */\n      mstore\n        /* \"#utility.yul\":4574:4705   */\n      tag_125\n        /* \"#utility.yul\":4700:4704   */\n      dup2\n        /* \"#utility.yul\":4574:4705   */\n      tag_69\n      jump\t// in\n    tag_125:\n        /* \"#utility.yul\":4566:4705   */\n      swap1\n      pop\n        /* \"#utility.yul\":4293:4712   */\n      swap2\n      swap1\n      pop\n      jump\t// out\n        /* \"#utility.yul\":4718:4941   */\n    tag_70:\n        /* \"#utility.yul\":4858:4892   */\n      0x4d696e696d756e204465706f73697420616d6f756e7420697320302e32352045\n        /* \"#utility.yul\":4854:4855   */\n      0x00\n        /* \"#utility.yul\":4846:4852   */\n      dup3\n        /* \"#utility.yul\":4842:4856   */\n      add\n        /* \"#utility.yul\":4835:4893   */\n      mstore\n        /* \"#utility.yul\":4927:4933   */\n      0x7468657200000000000000000000000000000000000000000000000000000000\n        /* \"#utility.yul\":4922:4924   */\n      0x20\n        /* \"#utility.yul\":4914:4920   */\n      dup3\n        /* \"#utility.yul\":4910:4925   */\n      add\n        /* \"#utility.yul\":4903:4934   */\n      mstore\n        /* \"#utility.yul\":4718:4941   */\n      pop\n      jump\t// out\n        /* \"#utility.yul\":4947:5313   */\n    tag_71:\n        /* \"#utility.yul\":5089:5092   */\n      0x00\n        /* \"#utility.yul\":5110:5177   */\n      tag_128\n        /* \"#utility.yul\":5174:5176   */\n      0x24\n        /* \"#utility.yul\":5169:5172   */\n      dup4\n        /* \"#utility.yul\":5110:5177   */\n      tag_67\n      jump\t// in\n    tag_128:\n        /* \"#utility.yul\":5103:5177   */\n      swap2\n      pop\n        /* \"#utility.yul\":5186:5279   */\n      tag_129\n        /* \"#utility.yul\":5275:5278   */\n      dup3\n        /* \"#utility.yul\":5186:5279   */\n      tag_70\n      jump\t// in\n    tag_129:\n        /* \"#utility.yul\":5304:5306   */\n      0x40\n        /* \"#utility.yul\":5299:5302   */\n      dup3\n        /* \"#utility.yul\":5295:5307   */\n      add\n        /* \"#utility.yul\":5288:5307   */\n      swap1\n      pop\n        /* \"#utility.yul\":4947:5313   */\n      swap2\n      swap1\n      pop\n      jump\t// out\n        /* \"#utility.yul\":5319:5738   */\n    tag_43:\n        /* \"#utility.yul\":5485:5489   */\n      0x00\n        /* \"#utility.yul\":5523:5525   */\n      0x20\n        /* \"#utility.yul\":5512:5521   */\n      dup3\n        /* \"#utility.yul\":5508:5526   */\n      add\n        /* \"#utility.yul\":5500:5526   */\n      swap1\n      pop\n        /* \"#utility.yul\":5572:5581   */\n      dup2\n        /* \"#utility.yul\":5566:5570   */\n      dup2\n        /* \"#utility.yul\":5562:5582   */\n      sub\n        /* \"#utility.yul\":5558:5559   */\n      0x00\n        /* \"#utility.yul\":5547:5556   */\n      dup4\n        /* \"#utility.yul\":5543:5560   */\n      add\n        /* \"#utility.yul\":5536:5583   */\n      mstore\n        /* \"#utility.yul\":5600:5731   */\n      tag_131\n        /* \"#utility.yul\":5726:5730   */\n      dup2\n        /* \"#utility.yul\":5600:5731   */\n      tag_71\n      jump\t// in\n    tag_131:\n        /* \"#utility.yul\":5592:5731   */\n      swap1\n      pop\n        /* \"#utility.yul\":5319:5738   */\n      swap2\n      swap1\n      pop\n      jump\t// out\n        /* \"#utility.yul\":5744:5924   */\n    tag_72:\n        /* \"#utility.yul\":5792:5869   */\n      0x4e487b7100000000000000000000000000000000000000000000000000000000\n        /* \"#utility.yul\":5789:5790   */\n      0x00\n        /* \"#utility.yul\":5782:5870   */\n      mstore\n        /* \"#utility.yul\":5889:5893   */\n      0x11\n        /* \"#utility.yul\":5886:5887   */\n      0x04\n        /* \"#utility.yul\":5879:5894   */\n      mstore\n        /* \"#utility.yul\":5913:5917   */\n      0x24\n        /* \"#utility.yul\":5910:5911   */\n      0x00\n        /* \"#utility.yul\":5903:5918   */\n      revert\n        /* \"#utility.yul\":5930:6121   */\n    tag_46:\n        /* \"#utility.yul\":5970:5973   */\n      0x00\n        /* \"#utility.yul\":5989:6009   */\n      tag_134\n        /* \"#utility.yul\":6007:6008   */\n      dup3\n        /* \"#utility.yul\":5989:6009   */\n      tag_62\n      jump\t// in\n    tag_134:\n        /* \"#utility.yul\":5984:6009   */\n      swap2\n      pop\n        /* \"#utility.yul\":6023:6043   */\n      tag_135\n        /* \"#utility.yul\":6041:6042   */\n      dup4\n        /* \"#utility.yul\":6023:6043   */\n      tag_62\n      jump\t// in\n    tag_135:\n        /* \"#utility.yul\":6018:6043   */\n      swap3\n      pop\n        /* \"#utility.yul\":6066:6067   */\n      dup3\n        /* \"#utility.yul\":6063:6064   */\n      dup3\n        /* \"#utility.yul\":6059:6068   */\n      add\n        /* \"#utility.yul\":6052:6068   */\n      swap1\n      pop\n        /* \"#utility.yul\":6087:6090   */\n      dup1\n        /* \"#utility.yul\":6084:6085   */\n      dup3\n        /* \"#utility.yul\":6081:6091   */\n      gt\n        /* \"#utility.yul\":6078:6114   */\n      iszero\n      tag_136\n      jumpi\n        /* \"#utility.yul\":6094:6112   */\n      tag_137\n      tag_72\n      jump\t// in\n    tag_137:\n        /* \"#utility.yul\":6078:6114   */\n    tag_136:\n        /* \"#utility.yul\":5930:6121   */\n      swap3\n      swap2\n      pop\n      pop\n      jump\t// out\n        /* \"#utility.yul\":6127:6321   */\n    tag_50:\n        /* \"#utility.yul\":6167:6171   */\n      0x00\n        /* \"#utility.yul\":6187:6207   */\n      tag_139\n        /* \"#utility.yul\":6205:6206   */\n      dup3\n        /* \"#utility.yul\":6187:6207   */\n      tag_62\n      jump\t// in\n    tag_139:\n        /* \"#utility.yul\":6182:6207   */\n      swap2\n      pop\n        /* \"#utility.yul\":6221:6241   */\n      tag_140\n        /* \"#utility.yul\":6239:6240   */\n      dup4\n        /* \"#utility.yul\":6221:6241   */\n      tag_62\n      jump\t// in\n    tag_140:\n        /* \"#utility.yul\":6216:6241   */\n      swap3\n      pop\n        /* \"#utility.yul\":6265:6266   */\n      dup3\n        /* \"#utility.yul\":6262:6263   */\n      dup3\n        /* \"#utility.yul\":6258:6267   */\n      sub\n        /* \"#utility.yul\":6250:6267   */\n      swap1\n      pop\n        /* \"#utility.yul\":6289:6290   */\n      dup2\n        /* \"#utility.yul\":6283:6287   */\n      dup2\n        /* \"#utility.yul\":6280:6291   */\n      gt\n        /* \"#utility.yul\":6277:6314   */\n      iszero\n      tag_141\n      jumpi\n        /* \"#utility.yul\":6294:6312   */\n      tag_142\n      tag_72\n      jump\t// in\n    tag_142:\n        /* \"#utility.yul\":6277:6314   */\n    tag_141:\n        /* \"#utility.yul\":6127:6321   */\n      swap3\n      swap2\n      pop\n      pop\n      jump\t// out\n\n    auxdata: 0xa26469706673582212208462b94d3292ea642322129599d49de22772eae07e04e7f08698f89beff5fbea64736f6c634300081a0033\n}\n",
				"bytecode": {
					"linkReferences": {},
					"object": "608060405265e35fa931a00060015f6101000a81548167ffffffffffffffff021916908367ffffffffffffffff160217905550671bc16d674ec80000600160086101000a81548167ffffffffffffffff021916908367ffffffffffffffff160217905550348015606d575f80fd5b506106a28061007b5f395ff3fe608060405234801561000f575f80fd5b5060043610610060575f3560e01c806329664ac6146100645780633465d6d514610080578063422fc048146100b057806343e2e504146100ce578063870b08c0146100fe578063f3fef3a31461011c575b5f80fd5b61007e600480360381019061007991906103a9565b610138565b005b61009a600480360381019061009591906103e7565b610250565b6040516100a7919061042a565b60405180910390f35b6100b8610264565b6040516100c59190610452565b60405180910390f35b6100e860048036038101906100e391906103e7565b61027d565b6040516100f59190610452565b60405180910390f35b610106610283565b6040516101139190610452565b60405180910390f35b61013660048036038101906101319190610495565b61029d565b005b81610142816102f3565b15610182576040517f08c379a00000000000000000000000000000000000000000000000000000000081526004016101799061052d565b60405180910390fd5b8160015f9054906101000a900467ffffffffffffffff1667ffffffffffffffff168167ffffffffffffffff16116101ee576040517f08c379a00000000000000000000000000000000000000000000000000000000081526004016101e5906105bb565b60405180910390fd5b8267ffffffffffffffff165f808673ffffffffffffffffffffffffffffffffffffffff1673ffffffffffffffffffffffffffffffffffffffff1681526020019081526020015f205f8282546102439190610606565b9250508190555050505050565b5f602052805f5260405f205f915090505481565b60015f9054906101000a900467ffffffffffffffff1681565b5f919050565b600160089054906101000a900467ffffffffffffffff1681565b805f808473ffffffffffffffffffffffffffffffffffffffff1673ffffffffffffffffffffffffffffffffffffffff1681526020019081526020015f205f8282546102e89190610639565b925050819055505050565b5f80823b90505f8167ffffffffffffffff1611915050919050565b5f80fd5b5f73ffffffffffffffffffffffffffffffffffffffff82169050919050565b5f61033b82610312565b9050919050565b61034b81610331565b8114610355575f80fd5b50565b5f8135905061036681610342565b92915050565b5f67ffffffffffffffff82169050919050565b6103888161036c565b8114610392575f80fd5b50565b5f813590506103a38161037f565b92915050565b5f80604083850312156103bf576103be61030e565b5b5f6103cc85828601610358565b92505060206103dd85828601610395565b9150509250929050565b5f602082840312156103fc576103fb61030e565b5b5f61040984828501610358565b91505092915050565b5f819050919050565b61042481610412565b82525050565b5f60208201905061043d5f83018461041b565b92915050565b61044c8161036c565b82525050565b5f6020820190506104655f830184610443565b92915050565b61047481610412565b811461047e575f80fd5b50565b5f8135905061048f8161046b565b92915050565b5f80604083850312156104ab576104aa61030e565b5b5f6104b885828601610358565b92505060206104c985828601610481565b9150509250929050565b5f82825260208201905092915050565b7f54686973206973206120636f6e747261637420616464726573732100000000005f82015250565b5f610517601b836104d3565b9150610522826104e3565b602082019050919050565b5f6020820190508181035f8301526105448161050b565b9050919050565b7f4d696e696d756e204465706f73697420616d6f756e7420697320302e323520455f8201527f7468657200000000000000000000000000000000000000000000000000000000602082015250565b5f6105a56024836104d3565b91506105b08261054b565b604082019050919050565b5f6020820190508181035f8301526105d281610599565b9050919050565b7f4e487b71000000000000000000000000000000000000000000000000000000005f52601160045260245ffd5b5f61061082610412565b915061061b83610412565b9250828201905080821115610633576106326105d9565b5b92915050565b5f61064382610412565b915061064e83610412565b9250828203905081811115610666576106656105d9565b5b9291505056fea26469706673582212208462b94d3292ea642322129599d49de22772eae07e04e7f08698f89beff5fbea64736f6c634300081a0033",
					"opcodes": "PUSH1 0x80 PUSH1 0x40 MSTORE PUSH6 0xE35FA931A000 PUSH1 0x1 PUSH0 PUSH2 0x100 EXP DUP2 SLOAD DUP2 PUSH8 0xFFFFFFFFFFFFFFFF MUL NOT AND SWAP1 DUP4 PUSH8 0xFFFFFFFFFFFFFFFF AND MUL OR SWAP1 SSTORE POP PUSH8 0x1BC16D674EC80000 PUSH1 0x1 PUSH1 0x8 PUSH2 0x100 EXP DUP2 SLOAD DUP2 PUSH8 0xFFFFFFFFFFFFFFFF MUL NOT AND SWAP1 DUP4 PUSH8 0xFFFFFFFFFFFFFFFF AND MUL OR SWAP1 SSTORE POP CALLVALUE DUP1 ISZERO PUSH1 0x6D JUMPI PUSH0 DUP1 REVERT JUMPDEST POP PUSH2 0x6A2 DUP1 PUSH2 0x7B PUSH0 CODECOPY PUSH0 RETURN INVALID PUSH1 0x80 PUSH1 0x40 MSTORE CALLVALUE DUP1 ISZERO PUSH2 0xF JUMPI PUSH0 DUP1 REVERT JUMPDEST POP PUSH1 0x4 CALLDATASIZE LT PUSH2 0x60 JUMPI PUSH0 CALLDATALOAD PUSH1 0xE0 SHR DUP1 PUSH4 0x29664AC6 EQ PUSH2 0x64 JUMPI DUP1 PUSH4 0x3465D6D5 EQ PUSH2 0x80 JUMPI DUP1 PUSH4 0x422FC048 EQ PUSH2 0xB0 JUMPI DUP1 PUSH4 0x43E2E504 EQ PUSH2 0xCE JUMPI DUP1 PUSH4 0x870B08C0 EQ PUSH2 0xFE JUMPI DUP1 PUSH4 0xF3FEF3A3 EQ PUSH2 0x11C JUMPI JUMPDEST PUSH0 DUP1 REVERT JUMPDEST PUSH2 0x7E PUSH1 0x4 DUP1 CALLDATASIZE SUB DUP2 ADD SWAP1 PUSH2 0x79 SWAP2 SWAP1 PUSH2 0x3A9 JUMP JUMPDEST PUSH2 0x138 JUMP JUMPDEST STOP JUMPDEST PUSH2 0x9A PUSH1 0x4 DUP1 CALLDATASIZE SUB DUP2 ADD SWAP1 PUSH2 0x95 SWAP2 SWAP1 PUSH2 0x3E7 JUMP JUMPDEST PUSH2 0x250 JUMP JUMPDEST PUSH1 0x40 MLOAD PUSH2 0xA7 SWAP2 SWAP1 PUSH2 0x42A JUMP JUMPDEST PUSH1 0x40 MLOAD DUP1 SWAP2 SUB SWAP1 RETURN JUMPDEST PUSH2 0xB8 PUSH2 0x264 JUMP JUMPDEST PUSH1 0x40 MLOAD PUSH2 0xC5 SWAP2 SWAP1 PUSH2 0x452 JUMP JUMPDEST PUSH1 0x40 MLOAD DUP1 SWAP2 SUB SWAP1 RETURN JUMPDEST PUSH2 0xE8 PUSH1 0x4 DUP1 CALLDATASIZE SUB DUP2 ADD SWAP1 PUSH2 0xE3 SWAP2 SWAP1 PUSH2 0x3E7 JUMP JUMPDEST PUSH2 0x27D JUMP JUMPDEST PUSH1 0x40 MLOAD PUSH2 0xF5 SWAP2 SWAP1 PUSH2 0x452 JUMP JUMPDEST PUSH1 0x40 MLOAD DUP1 SWAP2 SUB SWAP1 RETURN JUMPDEST PUSH2 0x106 PUSH2 0x283 JUMP JUMPDEST PUSH1 0x40 MLOAD PUSH2 0x113 SWAP2 SWAP1 PUSH2 0x452 JUMP JUMPDEST PUSH1 0x40 MLOAD DUP1 SWAP2 SUB SWAP1 RETURN JUMPDEST PUSH2 0x136 PUSH1 0x4 DUP1 CALLDATASIZE SUB DUP2 ADD SWAP1 PUSH2 0x131 SWAP2 SWAP1 PUSH2 0x495 JUMP JUMPDEST PUSH2 0x29D JUMP JUMPDEST STOP JUMPDEST DUP2 PUSH2 0x142 DUP2 PUSH2 0x2F3 JUMP JUMPDEST ISZERO PUSH2 0x182 JUMPI PUSH1 0x40 MLOAD PUSH32 0x8C379A000000000000000000000000000000000000000000000000000000000 DUP2 MSTORE PUSH1 0x4 ADD PUSH2 0x179 SWAP1 PUSH2 0x52D JUMP JUMPDEST PUSH1 0x40 MLOAD DUP1 SWAP2 SUB SWAP1 REVERT JUMPDEST DUP2 PUSH1 0x1 PUSH0 SWAP1 SLOAD SWAP1 PUSH2 0x100 EXP SWAP1 DIV PUSH8 0xFFFFFFFFFFFFFFFF AND PUSH8 0xFFFFFFFFFFFFFFFF AND DUP2 PUSH8 0xFFFFFFFFFFFFFFFF AND GT PUSH2 0x1EE JUMPI PUSH1 0x40 MLOAD PUSH32 0x8C379A000000000000000000000000000000000000000000000000000000000 DUP2 MSTORE PUSH1 0x4 ADD PUSH2 0x1E5 SWAP1 PUSH2 0x5BB JUMP JUMPDEST PUSH1 0x40 MLOAD DUP1 SWAP2 SUB SWAP1 REVERT JUMPDEST DUP3 PUSH8 0xFFFFFFFFFFFFFFFF AND PUSH0 DUP1 DUP7 PUSH20 0xFFFFFFFFFFFFFFFFFFFFFFFFFFFFFFFFFFFFFFFF AND PUSH20 0xFFFFFFFFFFFFFFFFFFFFFFFFFFFFFFFFFFFFFFFF AND DUP2 MSTORE PUSH1 0x20 ADD SWAP1 DUP2 MSTORE PUSH1 0x20 ADD PUSH0 KECCAK256 PUSH0 DUP3 DUP3 SLOAD PUSH2 0x243 SWAP2 SWAP1 PUSH2 0x606 JUMP JUMPDEST SWAP3 POP POP DUP2 SWAP1 SSTORE POP POP POP POP POP JUMP JUMPDEST PUSH0 PUSH1 0x20 MSTORE DUP1 PUSH0 MSTORE PUSH1 0x40 PUSH0 KECCAK256 PUSH0 SWAP2 POP SWAP1 POP SLOAD DUP2 JUMP JUMPDEST PUSH1 0x1 PUSH0 SWAP1 SLOAD SWAP1 PUSH2 0x100 EXP SWAP1 DIV PUSH8 0xFFFFFFFFFFFFFFFF AND DUP2 JUMP JUMPDEST PUSH0 SWAP2 SWAP1 POP JUMP JUMPDEST PUSH1 0x1 PUSH1 0x8 SWAP1 SLOAD SWAP1 PUSH2 0x100 EXP SWAP1 DIV PUSH8 0xFFFFFFFFFFFFFFFF AND DUP2 JUMP JUMPDEST DUP1 PUSH0 DUP1 DUP5 PUSH20 0xFFFFFFFFFFFFFFFFFFFFFFFFFFFFFFFFFFFFFFFF AND PUSH20 0xFFFFFFFFFFFFFFFFFFFFFFFFFFFFFFFFFFFFFFFF AND DUP2 MSTORE PUSH1 0x20 ADD SWAP1 DUP2 MSTORE PUSH1 0x20 ADD PUSH0 KECCAK256 PUSH0 DUP3 DUP3 SLOAD PUSH2 0x2E8 SWAP2 SWAP1 PUSH2 0x639 JUMP JUMPDEST SWAP3 POP POP DUP2 SWAP1 SSTORE POP POP POP JUMP JUMPDEST PUSH0 DUP1 DUP3 EXTCODESIZE SWAP1 POP PUSH0 DUP2 PUSH8 0xFFFFFFFFFFFFFFFF AND GT SWAP2 POP POP SWAP2 SWAP1 POP JUMP JUMPDEST PUSH0 DUP1 REVERT JUMPDEST PUSH0 PUSH20 0xFFFFFFFFFFFFFFFFFFFFFFFFFFFFFFFFFFFFFFFF DUP3 AND SWAP1 POP SWAP2 SWAP1 POP JUMP JUMPDEST PUSH0 PUSH2 0x33B DUP3 PUSH2 0x312 JUMP JUMPDEST SWAP1 POP SWAP2 SWAP1 POP JUMP JUMPDEST PUSH2 0x34B DUP2 PUSH2 0x331 JUMP JUMPDEST DUP2 EQ PUSH2 0x355 JUMPI PUSH0 DUP1 REVERT JUMPDEST POP JUMP JUMPDEST PUSH0 DUP2 CALLDATALOAD SWAP1 POP PUSH2 0x366 DUP2 PUSH2 0x342 JUMP JUMPDEST SWAP3 SWAP2 POP POP JUMP JUMPDEST PUSH0 PUSH8 0xFFFFFFFFFFFFFFFF DUP3 AND SWAP1 POP SWAP2 SWAP1 POP JUMP JUMPDEST PUSH2 0x388 DUP2 PUSH2 0x36C JUMP JUMPDEST DUP2 EQ PUSH2 0x392 JUMPI PUSH0 DUP1 REVERT JUMPDEST POP JUMP JUMPDEST PUSH0 DUP2 CALLDATALOAD SWAP1 POP PUSH2 0x3A3 DUP2 PUSH2 0x37F JUMP JUMPDEST SWAP3 SWAP2 POP POP JUMP JUMPDEST PUSH0 DUP1 PUSH1 0x40 DUP4 DUP6 SUB SLT ISZERO PUSH2 0x3BF JUMPI PUSH2 0x3BE PUSH2 0x30E JUMP JUMPDEST JUMPDEST PUSH0 PUSH2 0x3CC DUP6 DUP3 DUP7 ADD PUSH2 0x358 JUMP JUMPDEST SWAP3 POP POP PUSH1 0x20 PUSH2 0x3DD DUP6 DUP3 DUP7 ADD PUSH2 0x395 JUMP JUMPDEST SWAP2 POP POP SWAP3 POP SWAP3 SWAP1 POP JUMP JUMPDEST PUSH0 PUSH1 0x20 DUP3 DUP5 SUB SLT ISZERO PUSH2 0x3FC JUMPI PUSH2 0x3FB PUSH2 0x30E JUMP JUMPDEST JUMPDEST PUSH0 PUSH2 0x409 DUP5 DUP3 DUP6 ADD PUSH2 0x358 JUMP JUMPDEST SWAP2 POP POP SWAP3 SWAP2 POP POP JUMP JUMPDEST PUSH0 DUP2 SWAP1 POP SWAP2 SWAP1 POP JUMP JUMPDEST PUSH2 0x424 DUP2 PUSH2 0x412 JUMP JUMPDEST DUP3 MSTORE POP POP JUMP JUMPDEST PUSH0 PUSH1 0x20 DUP3 ADD SWAP1 POP PUSH2 0x43D PUSH0 DUP4 ADD DUP5 PUSH2 0x41B JUMP JUMPDEST SWAP3 SWAP2 POP POP JUMP JUMPDEST PUSH2 0x44C DUP2 PUSH2 0x36C JUMP JUMPDEST DUP3 MSTORE POP POP JUMP JUMPDEST PUSH0 PUSH1 0x20 DUP3 ADD SWAP1 POP PUSH2 0x465 PUSH0 DUP4 ADD DUP5 PUSH2 0x443 JUMP JUMPDEST SWAP3 SWAP2 POP POP JUMP JUMPDEST PUSH2 0x474 DUP2 PUSH2 0x412 JUMP JUMPDEST DUP2 EQ PUSH2 0x47E JUMPI PUSH0 DUP1 REVERT JUMPDEST POP JUMP JUMPDEST PUSH0 DUP2 CALLDATALOAD SWAP1 POP PUSH2 0x48F DUP2 PUSH2 0x46B JUMP JUMPDEST SWAP3 SWAP2 POP POP JUMP JUMPDEST PUSH0 DUP1 PUSH1 0x40 DUP4 DUP6 SUB SLT ISZERO PUSH2 0x4AB JUMPI PUSH2 0x4AA PUSH2 0x30E JUMP JUMPDEST JUMPDEST PUSH0 PUSH2 0x4B8 DUP6 DUP3 DUP7 ADD PUSH2 0x358 JUMP JUMPDEST SWAP3 POP POP PUSH1 0x20 PUSH2 0x4C9 DUP6 DUP3 DUP7 ADD PUSH2 0x481 JUMP JUMPDEST SWAP2 POP POP SWAP3 POP SWAP3 SWAP1 POP JUMP JUMPDEST PUSH0 DUP3 DUP3 MSTORE PUSH1 0x20 DUP3 ADD SWAP1 POP SWAP3 SWAP2 POP POP JUMP JUMPDEST PUSH32 0x54686973206973206120636F6E74726163742061646472657373210000000000 PUSH0 DUP3 ADD MSTORE POP JUMP JUMPDEST PUSH0 PUSH2 0x517 PUSH1 0x1B DUP4 PUSH2 0x4D3 JUMP JUMPDEST SWAP2 POP PUSH2 0x522 DUP3 PUSH2 0x4E3 JUMP JUMPDEST PUSH1 0x20 DUP3 ADD SWAP1 POP SWAP2 SWAP1 POP JUMP JUMPDEST PUSH0 PUSH1 0x20 DUP3 ADD SWAP1 POP DUP2 DUP2 SUB PUSH0 DUP4 ADD MSTORE PUSH2 0x544 DUP2 PUSH2 0x50B JUMP JUMPDEST SWAP1 POP SWAP2 SWAP1 POP JUMP JUMPDEST PUSH32 0x4D696E696D756E204465706F73697420616D6F756E7420697320302E32352045 PUSH0 DUP3 ADD MSTORE PUSH32 0x7468657200000000000000000000000000000000000000000000000000000000 PUSH1 0x20 DUP3 ADD MSTORE POP JUMP JUMPDEST PUSH0 PUSH2 0x5A5 PUSH1 0x24 DUP4 PUSH2 0x4D3 JUMP JUMPDEST SWAP2 POP PUSH2 0x5B0 DUP3 PUSH2 0x54B JUMP JUMPDEST PUSH1 0x40 DUP3 ADD SWAP1 POP SWAP2 SWAP1 POP JUMP JUMPDEST PUSH0 PUSH1 0x20 DUP3 ADD SWAP1 POP DUP2 DUP2 SUB PUSH0 DUP4 ADD MSTORE PUSH2 0x5D2 DUP2 PUSH2 0x599 JUMP JUMPDEST SWAP1 POP SWAP2 SWAP1 POP JUMP JUMPDEST PUSH32 0x4E487B7100000000000000000000000000000000000000000000000000000000 PUSH0 MSTORE PUSH1 0x11 PUSH1 0x4 MSTORE PUSH1 0x24 PUSH0 REVERT JUMPDEST PUSH0 PUSH2 0x610 DUP3 PUSH2 0x412 JUMP JUMPDEST SWAP2 POP PUSH2 0x61B DUP4 PUSH2 0x412 JUMP JUMPDEST SWAP3 POP DUP3 DUP3 ADD SWAP1 POP DUP1 DUP3 GT ISZERO PUSH2 0x633 JUMPI PUSH2 0x632 PUSH2 0x5D9 JUMP JUMPDEST JUMPDEST SWAP3 SWAP2 POP POP JUMP JUMPDEST PUSH0 PUSH2 0x643 DUP3 PUSH2 0x412 JUMP JUMPDEST SWAP2 POP PUSH2 0x64E DUP4 PUSH2 0x412 JUMP JUMPDEST SWAP3 POP DUP3 DUP3 SUB SWAP1 POP DUP2 DUP2 GT ISZERO PUSH2 0x666 JUMPI PUSH2 0x665 PUSH2 0x5D9 JUMP JUMPDEST JUMPDEST SWAP3 SWAP2 POP POP JUMP INVALID LOG2 PUSH5 0x6970667358 0x22 SLT KECCAK256 DUP5 PUSH3 0xB94D32 SWAP3 0xEA PUSH5 0x2322129599 0xD4 SWAP14 0xE2 0x27 PUSH19 0xEAE07E04E7F08698F89BEFF5FBEA64736F6C63 NUMBER STOP ADDMOD BYTE STOP CALLER "
				},
				"gasEstimates": {
					"creation": {
						"codeDepositCost": "339600",
						"executionCost": "48961",
						"totalCost": "388561"
					},
					"external": {
						"GetBalance(address)": "683",
						"MaxWithdAmt()": "2583",
						"MinDepAmt()": "2488",
						"deposit(address,uint64)": "infinite",
						"record(address)": "2801",
						"withdraw(address,uint256)": "infinite"
					},
					"internal": {
						"ContractAddr(address)": "2651"
					}
				},
				"methodIdentifiers": {
					"GetBalance(address)": "43e2e504",
					"MaxWithdAmt()": "870b08c0",
					"MinDepAmt()": "422fc048",
					"deposit(address,uint64)": "29664ac6",
					"record(address)": "3465d6d5",
					"withdraw(address,uint256)": "f3fef3a3"
				}
			},
			"storageLayout": {
				"storage": [
					{
						"astId": 5,
						"contract": "contracts/bank.sol:bank",
						"label": "record",
						"offset": 0,
						"slot": "0",
						"type": "t_mapping(t_address,t_uint256)"
					},
					{
						"astId": 8,
						"contract": "contracts/bank.sol:bank",
						"label": "MinDepAmt",
						"offset": 0,
						"slot": "1",
						"type": "t_uint64"
					},
					{
						"astId": 11,
						"contract": "contracts/bank.sol:bank",
						"label": "MaxWithdAmt",
						"offset": 8,
						"slot": "1",
						"type": "t_uint64"
					}
				],
				"types": {
					"t_address": {
						"encoding": "inplace",
						"label": "address",
						"numberOfBytes": "20"
					},
					"t_mapping(t_address,t_uint256)": {
						"encoding": "mapping",
						"key": "t_address",
						"label": "mapping(address => uint256)",
						"numberOfBytes": "32",
						"value": "t_uint256"
					},
					"t_uint256": {
						"encoding": "inplace",
						"label": "uint256",
						"numberOfBytes": "32"
					},
					"t_uint64": {
						"encoding": "inplace",
						"label": "uint64",
						"numberOfBytes": "8"
					}
				}
			},
			"userdoc": {
				"kind": "user",
				"methods": {},
				"version": 1
			}
		}
	}
}