{
	"contracts/bank.sol": {
		"bank": {
			"abi": [
				{
					"inputs": [
						{
							"internalType": "address",
							"name": "UserAddr",
							"type": "address"
						}
					],
					"name": "GetBalance",
					"outputs": [
						{
							"internalType": "uint64",
							"name": "",
							"type": "uint64"
						}
					],
					"stateMutability": "view",
					"type": "function"
				},
				{
					"inputs": [
						{
							"internalType": "address",
							"name": "DepAddr",
							"type": "address"
						},
						{
							"internalType": "uint64",
							"name": "DepAmt",
							"type": "uint64"
						}
					],
					"name": "deposit",
					"outputs": [],
					"stateMutability": "nonpayable",
					"type": "function"
				},
				{
					"inputs": [
						{
							"internalType": "address",
							"name": "",
							"type": "address"
						}
					],
					"name": "record",
					"outputs": [
						{
							"internalType": "uint64",
							"name": "",
							"type": "uint64"
						}
					],
					"stateMutability": "view",
					"type": "function"
				},
				{
					"inputs": [
						{
							"internalType": "address",
							"name": "WithdAddr",
							"type": "address"
						},
						{
							"internalType": "uint64",
							"name": "WithdAmt",
							"type": "uint64"
						}
					],
					"name": "withdraw",
					"outputs": [],
					"stateMutability": "nonpayable",
					"type": "function"
				}
			],
			"devdoc": {
				"kind": "dev",
				"methods": {},
				"version": 1
			},
			"evm": {
				"assembly": "    /* \"contracts/bank.sol\":58:1553  contract bank {... */\n  mstore(0x40, 0x80)\n  callvalue\n  dup1\n  iszero\n  tag_1\n  jumpi\n  0x00\n  dup1\n  revert\ntag_1:\n  pop\n  dataSize(sub_0)\n  dup1\n  dataOffset(sub_0)\n  0x00\n  codecopy\n  0x00\n  return\nstop\n\nsub_0: assembly {\n        /* \"contracts/bank.sol\":58:1553  contract bank {... */\n      mstore(0x40, 0x80)\n      callvalue\n      dup1\n      iszero\n      tag_1\n      jumpi\n      0x00\n      dup1\n      revert\n    tag_1:\n      pop\n      jumpi(tag_2, lt(calldatasize, 0x04))\n      shr(0xe0, calldataload(0x00))\n      dup1\n      0x29664ac6\n      eq\n      tag_3\n      jumpi\n      dup1\n      0x3465d6d5\n      eq\n      tag_4\n      jumpi\n      dup1\n      0x43e2e504\n      eq\n      tag_5\n      jumpi\n      dup1\n      0xd6dad060\n      eq\n      tag_6\n      jumpi\n    tag_2:\n      0x00\n      dup1\n      revert\n        /* \"contracts/bank.sol\":773:989  function deposit(address DepAddr, uint64 DepAmt)... */\n    tag_3:\n      tag_7\n      0x04\n      dup1\n      calldatasize\n      sub\n      dup2\n      add\n      swap1\n      tag_8\n      swap2\n      swap1\n      tag_9\n      jump\t// in\n    tag_8:\n      tag_10\n      jump\t// in\n    tag_7:\n      stop\n        /* \"contracts/bank.sol\":78:118  mapping(address => uint64) public record */\n    tag_4:\n      tag_11\n      0x04\n      dup1\n      calldatasize\n      sub\n      dup2\n      add\n      swap1\n      tag_12\n      swap2\n      swap1\n      tag_13\n      jump\t// in\n    tag_12:\n      tag_14\n      jump\t// in\n    tag_11:\n      mload(0x40)\n      tag_15\n      swap2\n      swap1\n      tag_16\n      jump\t// in\n    tag_15:\n      mload(0x40)\n      dup1\n      swap2\n      sub\n      swap1\n      return\n        /* \"contracts/bank.sol\":1444:1551  function GetBalance(address UserAddr) public view returns (uint64) {... */\n    tag_5:\n      tag_17\n      0x04\n      dup1\n      calldatasize\n      sub\n      dup2\n      add\n      swap1\n      tag_18\n      swap2\n      swap1\n      tag_13\n      jump\t// in\n    tag_18:\n      tag_19\n      jump\t// in\n    tag_17:\n      mload(0x40)\n      tag_20\n      swap2\n      swap1\n      tag_16\n      jump\t// in\n    tag_20:\n      mload(0x40)\n      dup1\n      swap2\n      sub\n      swap1\n      return\n        /* \"contracts/bank.sol\":1057:1241  function withdraw(address WithdAddr, uint64 WithdAmt)... */\n    tag_6:\n      tag_21\n      0x04\n      dup1\n      calldatasize\n      sub\n      dup2\n      add\n      swap1\n      tag_22\n      swap2\n      swap1\n      tag_9\n      jump\t// in\n    tag_22:\n      tag_23\n      jump\t// in\n    tag_21:\n      stop\n        /* \"contracts/bank.sol\":773:989  function deposit(address DepAddr, uint64 DepAmt)... */\n    tag_10:\n        /* \"contracts/bank.sol\":856:863  DepAddr */\n      dup2\n        /* \"contracts/bank.sol\":659:677  ContractAddr(addr) */\n      tag_25\n        /* \"contracts/bank.sol\":672:676  addr */\n      dup2\n        /* \"contracts/bank.sol\":659:671  ContractAddr */\n      tag_26\n        /* \"contracts/bank.sol\":659:677  ContractAddr(addr) */\n      jump\t// in\n    tag_25:\n        /* \"contracts/bank.sol\":658:677  !ContractAddr(addr) */\n      iszero\n        /* \"contracts/bank.sol\":650:709  require(!ContractAddr(addr), \"This is a contract address!\") */\n      tag_27\n      jumpi\n      mload(0x40)\n      0x08c379a000000000000000000000000000000000000000000000000000000000\n      dup2\n      mstore\n      0x04\n      add\n      tag_28\n      swap1\n      tag_29\n      jump\t// in\n    tag_28:\n      mload(0x40)\n      dup1\n      swap2\n      sub\n      swap1\n      revert\n    tag_27:\n        /* \"contracts/bank.sol\":935:941  DepAmt */\n      dup2\n        /* \"contracts/bank.sol\":298:313  250000000000000 */\n      0xe35fa931a000\n        /* \"contracts/bank.sol\":291:294  amt */\n      dup2\n        /* \"contracts/bank.sol\":291:313  amt >= 250000000000000 */\n      0xffffffffffffffff\n      and\n      lt\n      iszero\n        /* \"contracts/bank.sol\":270:389  require(... */\n      tag_31\n      jumpi\n      mload(0x40)\n      0x08c379a000000000000000000000000000000000000000000000000000000000\n      dup2\n      mstore\n      0x04\n      add\n      tag_32\n      swap1\n      tag_33\n      jump\t// in\n    tag_32:\n      mload(0x40)\n      dup1\n      swap2\n      sub\n      swap1\n      revert\n    tag_31:\n        /* \"contracts/bank.sol\":976:982  DepAmt */\n      dup3\n        /* \"contracts/bank.sol\":957:963  record */\n      0x00\n        /* \"contracts/bank.sol\":957:972  record[DepAddr] */\n      dup1\n        /* \"contracts/bank.sol\":964:971  DepAddr */\n      dup7\n        /* \"contracts/bank.sol\":957:972  record[DepAddr] */\n      0xffffffffffffffffffffffffffffffffffffffff\n      and\n      0xffffffffffffffffffffffffffffffffffffffff\n      and\n      dup2\n      mstore\n      0x20\n      add\n      swap1\n      dup2\n      mstore\n      0x20\n      add\n      0x00\n      keccak256\n      0x00\n        /* \"contracts/bank.sol\":957:982  record[DepAddr] += DepAmt */\n      dup3\n      dup3\n      dup3\n      swap1\n      sload\n      swap1\n      0x0100\n      exp\n      swap1\n      div\n      0xffffffffffffffff\n      and\n      tag_35\n      swap2\n      swap1\n      tag_36\n      jump\t// in\n    tag_35:\n      swap3\n      pop\n      0x0100\n      exp\n      dup2\n      sload\n      dup2\n      0xffffffffffffffff\n      mul\n      not\n      and\n      swap1\n      dup4\n      0xffffffffffffffff\n      and\n      mul\n      or\n      swap1\n      sstore\n      pop\n        /* \"contracts/bank.sol\":719:720  _ */\n      pop\n        /* \"contracts/bank.sol\":773:989  function deposit(address DepAddr, uint64 DepAmt)... */\n      pop\n      pop\n      pop\n      jump\t// out\n        /* \"contracts/bank.sol\":78:118  mapping(address => uint64) public record */\n    tag_14:\n      mstore(0x20, 0x00)\n      dup1\n      0x00\n      mstore\n      keccak256(0x00, 0x40)\n      0x00\n      swap2\n      pop\n      sload\n      swap1\n      0x0100\n      exp\n      swap1\n      div\n      0xffffffffffffffff\n      and\n      dup2\n      jump\t// out\n        /* \"contracts/bank.sol\":1444:1551  function GetBalance(address UserAddr) public view returns (uint64) {... */\n    tag_19:\n        /* \"contracts/bank.sol\":1503:1509  uint64 */\n      0x00\n        /* \"contracts/bank.sol\":1528:1534  record */\n      dup1\n        /* \"contracts/bank.sol\":1528:1544  record[UserAddr] */\n      0x00\n        /* \"contracts/bank.sol\":1535:1543  UserAddr */\n      dup4\n        /* \"contracts/bank.sol\":1528:1544  record[UserAddr] */\n      0xffffffffffffffffffffffffffffffffffffffff\n      and\n      0xffffffffffffffffffffffffffffffffffffffff\n      and\n      dup2\n      mstore\n      0x20\n      add\n      swap1\n      dup2\n      mstore\n      0x20\n      add\n      0x00\n      keccak256\n      0x00\n      swap1\n      sload\n      swap1\n      0x0100\n      exp\n      swap1\n      div\n      0xffffffffffffffff\n      and\n        /* \"contracts/bank.sol\":1521:1544  return record[UserAddr] */\n      swap1\n      pop\n        /* \"contracts/bank.sol\":1444:1551  function GetBalance(address UserAddr) public view returns (uint64) {... */\n      swap2\n      swap1\n      pop\n      jump\t// out\n        /* \"contracts/bank.sol\":1057:1241  function withdraw(address WithdAddr, uint64 WithdAmt)... */\n    tag_23:\n        /* \"contracts/bank.sol\":1145:1154  WithdAddr */\n      dup2\n        /* \"contracts/bank.sol\":659:677  ContractAddr(addr) */\n      tag_39\n        /* \"contracts/bank.sol\":672:676  addr */\n      dup2\n        /* \"contracts/bank.sol\":659:671  ContractAddr */\n      tag_26\n        /* \"contracts/bank.sol\":659:677  ContractAddr(addr) */\n      jump\t// in\n    tag_39:\n        /* \"contracts/bank.sol\":658:677  !ContractAddr(addr) */\n      iszero\n        /* \"contracts/bank.sol\":650:709  require(!ContractAddr(addr), \"This is a contract address!\") */\n      tag_40\n      jumpi\n      mload(0x40)\n      0x08c379a000000000000000000000000000000000000000000000000000000000\n      dup2\n      mstore\n      0x04\n      add\n      tag_41\n      swap1\n      tag_29\n      jump\t// in\n    tag_41:\n      mload(0x40)\n      dup1\n      swap2\n      sub\n      swap1\n      revert\n    tag_40:\n        /* \"contracts/bank.sol\":1181:1189  WithdAmt */\n      dup2\n        /* \"contracts/bank.sol\":489:508  2000000000000000000 */\n      0x1bc16d674ec80000\n        /* \"contracts/bank.sol\":482:485  amt */\n      dup2\n        /* \"contracts/bank.sol\":482:508  amt <= 2000000000000000000 */\n      0xffffffffffffffff\n      and\n      gt\n      iszero\n        /* \"contracts/bank.sol\":461:582  require(... */\n      tag_43\n      jumpi\n      mload(0x40)\n      0x08c379a000000000000000000000000000000000000000000000000000000000\n      dup2\n      mstore\n      0x04\n      add\n      tag_44\n      swap1\n      tag_45\n      jump\t// in\n    tag_44:\n      mload(0x40)\n      dup1\n      swap2\n      sub\n      swap1\n      revert\n    tag_43:\n        /* \"contracts/bank.sol\":1226:1234  WithdAmt */\n      dup3\n        /* \"contracts/bank.sol\":1205:1211  record */\n      0x00\n        /* \"contracts/bank.sol\":1205:1222  record[WithdAddr] */\n      dup1\n        /* \"contracts/bank.sol\":1212:1221  WithdAddr */\n      dup7\n        /* \"contracts/bank.sol\":1205:1222  record[WithdAddr] */\n      0xffffffffffffffffffffffffffffffffffffffff\n      and\n      0xffffffffffffffffffffffffffffffffffffffff\n      and\n      dup2\n      mstore\n      0x20\n      add\n      swap1\n      dup2\n      mstore\n      0x20\n      add\n      0x00\n      keccak256\n      0x00\n        /* \"contracts/bank.sol\":1205:1234  record[WithdAddr] -= WithdAmt */\n      dup3\n      dup3\n      dup3\n      swap1\n      sload\n      swap1\n      0x0100\n      exp\n      swap1\n      div\n      0xffffffffffffffff\n      and\n      tag_47\n      swap2\n      swap1\n      tag_48\n      jump\t// in\n    tag_47:\n      swap3\n      pop\n      0x0100\n      exp\n      dup2\n      sload\n      dup2\n      0xffffffffffffffff\n      mul\n      not\n      and\n      swap1\n      dup4\n      0xffffffffffffffff\n      and\n      mul\n      or\n      swap1\n      sstore\n      pop\n        /* \"contracts/bank.sol\":719:720  _ */\n      pop\n        /* \"contracts/bank.sol\":1057:1241  function withdraw(address WithdAddr, uint64 WithdAmt)... */\n      pop\n      pop\n      pop\n      jump\t// out\n        /* \"contracts/bank.sol\":1300:1411  function ContractAddr(address _addr) internal view returns (bool) {... */\n    tag_26:\n        /* \"contracts/bank.sol\":1360:1364  bool */\n      0x00\n        /* \"contracts/bank.sol\":1403:1404  0 */\n      dup1\n        /* \"contracts/bank.sol\":1383:1388  _addr */\n      dup3\n        /* \"contracts/bank.sol\":1383:1400  _addr.code.length */\n      0xffffffffffffffffffffffffffffffffffffffff\n      and\n      extcodesize\n        /* \"contracts/bank.sol\":1383:1404  _addr.code.length > 0 */\n      gt\n        /* \"contracts/bank.sol\":1376:1404  return _addr.code.length > 0 */\n      swap1\n      pop\n        /* \"contracts/bank.sol\":1300:1411  function ContractAddr(address _addr) internal view returns (bool) {... */\n      swap2\n      swap1\n      pop\n      jump\t// out\n        /* \"#utility.yul\":88:205   */\n    tag_51:\n        /* \"#utility.yul\":197:198   */\n      0x00\n        /* \"#utility.yul\":194:195   */\n      dup1\n        /* \"#utility.yul\":187:199   */\n      revert\n        /* \"#utility.yul\":334:460   */\n    tag_53:\n        /* \"#utility.yul\":371:378   */\n      0x00\n        /* \"#utility.yul\":411:453   */\n      0xffffffffffffffffffffffffffffffffffffffff\n        /* \"#utility.yul\":404:409   */\n      dup3\n        /* \"#utility.yul\":400:454   */\n      and\n        /* \"#utility.yul\":389:454   */\n      swap1\n      pop\n        /* \"#utility.yul\":334:460   */\n      swap2\n      swap1\n      pop\n      jump\t// out\n        /* \"#utility.yul\":466:562   */\n    tag_54:\n        /* \"#utility.yul\":503:510   */\n      0x00\n        /* \"#utility.yul\":532:556   */\n      tag_75\n        /* \"#utility.yul\":550:555   */\n      dup3\n        /* \"#utility.yul\":532:556   */\n      tag_53\n      jump\t// in\n    tag_75:\n        /* \"#utility.yul\":521:556   */\n      swap1\n      pop\n        /* \"#utility.yul\":466:562   */\n      swap2\n      swap1\n      pop\n      jump\t// out\n        /* \"#utility.yul\":568:690   */\n    tag_55:\n        /* \"#utility.yul\":641:665   */\n      tag_77\n        /* \"#utility.yul\":659:664   */\n      dup2\n        /* \"#utility.yul\":641:665   */\n      tag_54\n      jump\t// in\n    tag_77:\n        /* \"#utility.yul\":634:639   */\n      dup2\n        /* \"#utility.yul\":631:666   */\n      eq\n        /* \"#utility.yul\":621:684   */\n      tag_78\n      jumpi\n        /* \"#utility.yul\":680:681   */\n      0x00\n        /* \"#utility.yul\":677:678   */\n      dup1\n        /* \"#utility.yul\":670:682   */\n      revert\n        /* \"#utility.yul\":621:684   */\n    tag_78:\n        /* \"#utility.yul\":568:690   */\n      pop\n      jump\t// out\n        /* \"#utility.yul\":696:835   */\n    tag_56:\n        /* \"#utility.yul\":742:747   */\n      0x00\n        /* \"#utility.yul\":780:786   */\n      dup2\n        /* \"#utility.yul\":767:787   */\n      calldataload\n        /* \"#utility.yul\":758:787   */\n      swap1\n      pop\n        /* \"#utility.yul\":796:829   */\n      tag_80\n        /* \"#utility.yul\":823:828   */\n      dup2\n        /* \"#utility.yul\":796:829   */\n      tag_55\n      jump\t// in\n    tag_80:\n        /* \"#utility.yul\":696:835   */\n      swap3\n      swap2\n      pop\n      pop\n      jump\t// out\n        /* \"#utility.yul\":841:942   */\n    tag_57:\n        /* \"#utility.yul\":877:884   */\n      0x00\n        /* \"#utility.yul\":917:935   */\n      0xffffffffffffffff\n        /* \"#utility.yul\":910:915   */\n      dup3\n        /* \"#utility.yul\":906:936   */\n      and\n        /* \"#utility.yul\":895:936   */\n      swap1\n      pop\n        /* \"#utility.yul\":841:942   */\n      swap2\n      swap1\n      pop\n      jump\t// out\n        /* \"#utility.yul\":948:1068   */\n    tag_58:\n        /* \"#utility.yul\":1020:1043   */\n      tag_83\n        /* \"#utility.yul\":1037:1042   */\n      dup2\n        /* \"#utility.yul\":1020:1043   */\n      tag_57\n      jump\t// in\n    tag_83:\n        /* \"#utility.yul\":1013:1018   */\n      dup2\n        /* \"#utility.yul\":1010:1044   */\n      eq\n        /* \"#utility.yul\":1000:1062   */\n      tag_84\n      jumpi\n        /* \"#utility.yul\":1058:1059   */\n      0x00\n        /* \"#utility.yul\":1055:1056   */\n      dup1\n        /* \"#utility.yul\":1048:1060   */\n      revert\n        /* \"#utility.yul\":1000:1062   */\n    tag_84:\n        /* \"#utility.yul\":948:1068   */\n      pop\n      jump\t// out\n        /* \"#utility.yul\":1074:1211   */\n    tag_59:\n        /* \"#utility.yul\":1119:1124   */\n      0x00\n        /* \"#utility.yul\":1157:1163   */\n      dup2\n        /* \"#utility.yul\":1144:1164   */\n      calldataload\n        /* \"#utility.yul\":1135:1164   */\n      swap1\n      pop\n        /* \"#utility.yul\":1173:1205   */\n      tag_86\n        /* \"#utility.yul\":1199:1204   */\n      dup2\n        /* \"#utility.yul\":1173:1205   */\n      tag_58\n      jump\t// in\n    tag_86:\n        /* \"#utility.yul\":1074:1211   */\n      swap3\n      swap2\n      pop\n      pop\n      jump\t// out\n        /* \"#utility.yul\":1217:1689   */\n    tag_9:\n        /* \"#utility.yul\":1284:1290   */\n      0x00\n        /* \"#utility.yul\":1292:1298   */\n      dup1\n        /* \"#utility.yul\":1341:1343   */\n      0x40\n        /* \"#utility.yul\":1329:1338   */\n      dup4\n        /* \"#utility.yul\":1320:1327   */\n      dup6\n        /* \"#utility.yul\":1316:1339   */\n      sub\n        /* \"#utility.yul\":1312:1344   */\n      slt\n        /* \"#utility.yul\":1309:1428   */\n      iszero\n      tag_88\n      jumpi\n        /* \"#utility.yul\":1347:1426   */\n      tag_89\n      tag_51\n      jump\t// in\n    tag_89:\n        /* \"#utility.yul\":1309:1428   */\n    tag_88:\n        /* \"#utility.yul\":1467:1468   */\n      0x00\n        /* \"#utility.yul\":1492:1545   */\n      tag_90\n        /* \"#utility.yul\":1537:1544   */\n      dup6\n        /* \"#utility.yul\":1528:1534   */\n      dup3\n        /* \"#utility.yul\":1517:1526   */\n      dup7\n        /* \"#utility.yul\":1513:1535   */\n      add\n        /* \"#utility.yul\":1492:1545   */\n      tag_56\n      jump\t// in\n    tag_90:\n        /* \"#utility.yul\":1482:1545   */\n      swap3\n      pop\n        /* \"#utility.yul\":1438:1555   */\n      pop\n        /* \"#utility.yul\":1594:1596   */\n      0x20\n        /* \"#utility.yul\":1620:1672   */\n      tag_91\n        /* \"#utility.yul\":1664:1671   */\n      dup6\n        /* \"#utility.yul\":1655:1661   */\n      dup3\n        /* \"#utility.yul\":1644:1653   */\n      dup7\n        /* \"#utility.yul\":1640:1662   */\n      add\n        /* \"#utility.yul\":1620:1672   */\n      tag_59\n      jump\t// in\n    tag_91:\n        /* \"#utility.yul\":1610:1672   */\n      swap2\n      pop\n        /* \"#utility.yul\":1565:1682   */\n      pop\n        /* \"#utility.yul\":1217:1689   */\n      swap3\n      pop\n      swap3\n      swap1\n      pop\n      jump\t// out\n        /* \"#utility.yul\":1695:2024   */\n    tag_13:\n        /* \"#utility.yul\":1754:1760   */\n      0x00\n        /* \"#utility.yul\":1803:1805   */\n      0x20\n        /* \"#utility.yul\":1791:1800   */\n      dup3\n        /* \"#utility.yul\":1782:1789   */\n      dup5\n        /* \"#utility.yul\":1778:1801   */\n      sub\n        /* \"#utility.yul\":1774:1806   */\n      slt\n        /* \"#utility.yul\":1771:1890   */\n      iszero\n      tag_93\n      jumpi\n        /* \"#utility.yul\":1809:1888   */\n      tag_94\n      tag_51\n      jump\t// in\n    tag_94:\n        /* \"#utility.yul\":1771:1890   */\n    tag_93:\n        /* \"#utility.yul\":1929:1930   */\n      0x00\n        /* \"#utility.yul\":1954:2007   */\n      tag_95\n        /* \"#utility.yul\":1999:2006   */\n      dup5\n        /* \"#utility.yul\":1990:1996   */\n      dup3\n        /* \"#utility.yul\":1979:1988   */\n      dup6\n        /* \"#utility.yul\":1975:1997   */\n      add\n        /* \"#utility.yul\":1954:2007   */\n      tag_56\n      jump\t// in\n    tag_95:\n        /* \"#utility.yul\":1944:2007   */\n      swap2\n      pop\n        /* \"#utility.yul\":1900:2017   */\n      pop\n        /* \"#utility.yul\":1695:2024   */\n      swap3\n      swap2\n      pop\n      pop\n      jump\t// out\n        /* \"#utility.yul\":2030:2145   */\n    tag_60:\n        /* \"#utility.yul\":2115:2138   */\n      tag_97\n        /* \"#utility.yul\":2132:2137   */\n      dup2\n        /* \"#utility.yul\":2115:2138   */\n      tag_57\n      jump\t// in\n    tag_97:\n        /* \"#utility.yul\":2110:2113   */\n      dup3\n        /* \"#utility.yul\":2103:2139   */\n      mstore\n        /* \"#utility.yul\":2030:2145   */\n      pop\n      pop\n      jump\t// out\n        /* \"#utility.yul\":2151:2369   */\n    tag_16:\n        /* \"#utility.yul\":2242:2246   */\n      0x00\n        /* \"#utility.yul\":2280:2282   */\n      0x20\n        /* \"#utility.yul\":2269:2278   */\n      dup3\n        /* \"#utility.yul\":2265:2283   */\n      add\n        /* \"#utility.yul\":2257:2283   */\n      swap1\n      pop\n        /* \"#utility.yul\":2293:2362   */\n      tag_99\n        /* \"#utility.yul\":2359:2360   */\n      0x00\n        /* \"#utility.yul\":2348:2357   */\n      dup4\n        /* \"#utility.yul\":2344:2361   */\n      add\n        /* \"#utility.yul\":2335:2341   */\n      dup5\n        /* \"#utility.yul\":2293:2362   */\n      tag_60\n      jump\t// in\n    tag_99:\n        /* \"#utility.yul\":2151:2369   */\n      swap3\n      swap2\n      pop\n      pop\n      jump\t// out\n        /* \"#utility.yul\":2375:2544   */\n    tag_61:\n        /* \"#utility.yul\":2459:2470   */\n      0x00\n        /* \"#utility.yul\":2493:2499   */\n      dup3\n        /* \"#utility.yul\":2488:2491   */\n      dup3\n        /* \"#utility.yul\":2481:2500   */\n      mstore\n        /* \"#utility.yul\":2533:2537   */\n      0x20\n        /* \"#utility.yul\":2528:2531   */\n      dup3\n        /* \"#utility.yul\":2524:2538   */\n      add\n        /* \"#utility.yul\":2509:2538   */\n      swap1\n      pop\n        /* \"#utility.yul\":2375:2544   */\n      swap3\n      swap2\n      pop\n      pop\n      jump\t// out\n        /* \"#utility.yul\":2550:2727   */\n    tag_62:\n        /* \"#utility.yul\":2690:2719   */\n      0x54686973206973206120636f6e74726163742061646472657373210000000000\n        /* \"#utility.yul\":2686:2687   */\n      0x00\n        /* \"#utility.yul\":2678:2684   */\n      dup3\n        /* \"#utility.yul\":2674:2688   */\n      add\n        /* \"#utility.yul\":2667:2720   */\n      mstore\n        /* \"#utility.yul\":2550:2727   */\n      pop\n      jump\t// out\n        /* \"#utility.yul\":2733:3099   */\n    tag_63:\n        /* \"#utility.yul\":2875:2878   */\n      0x00\n        /* \"#utility.yul\":2896:2963   */\n      tag_103\n        /* \"#utility.yul\":2960:2962   */\n      0x1b\n        /* \"#utility.yul\":2955:2958   */\n      dup4\n        /* \"#utility.yul\":2896:2963   */\n      tag_61\n      jump\t// in\n    tag_103:\n        /* \"#utility.yul\":2889:2963   */\n      swap2\n      pop\n        /* \"#utility.yul\":2972:3065   */\n      tag_104\n        /* \"#utility.yul\":3061:3064   */\n      dup3\n        /* \"#utility.yul\":2972:3065   */\n      tag_62\n      jump\t// in\n    tag_104:\n        /* \"#utility.yul\":3090:3092   */\n      0x20\n        /* \"#utility.yul\":3085:3088   */\n      dup3\n        /* \"#utility.yul\":3081:3093   */\n      add\n        /* \"#utility.yul\":3074:3093   */\n      swap1\n      pop\n        /* \"#utility.yul\":2733:3099   */\n      swap2\n      swap1\n      pop\n      jump\t// out\n        /* \"#utility.yul\":3105:3524   */\n    tag_29:\n        /* \"#utility.yul\":3271:3275   */\n      0x00\n        /* \"#utility.yul\":3309:3311   */\n      0x20\n        /* \"#utility.yul\":3298:3307   */\n      dup3\n        /* \"#utility.yul\":3294:3312   */\n      add\n        /* \"#utility.yul\":3286:3312   */\n      swap1\n      pop\n        /* \"#utility.yul\":3358:3367   */\n      dup2\n        /* \"#utility.yul\":3352:3356   */\n      dup2\n        /* \"#utility.yul\":3348:3368   */\n      sub\n        /* \"#utility.yul\":3344:3345   */\n      0x00\n        /* \"#utility.yul\":3333:3342   */\n      dup4\n        /* \"#utility.yul\":3329:3346   */\n      add\n        /* \"#utility.yul\":3322:3369   */\n      mstore\n        /* \"#utility.yul\":3386:3517   */\n      tag_106\n        /* \"#utility.yul\":3512:3516   */\n      dup2\n        /* \"#utility.yul\":3386:3517   */\n      tag_63\n      jump\t// in\n    tag_106:\n        /* \"#utility.yul\":3378:3517   */\n      swap1\n      pop\n        /* \"#utility.yul\":3105:3524   */\n      swap2\n      swap1\n      pop\n      jump\t// out\n        /* \"#utility.yul\":3530:3753   */\n    tag_64:\n        /* \"#utility.yul\":3670:3704   */\n      0x4d696e696d756e204465706f73697420616d6f756e7420697320302e32352045\n        /* \"#utility.yul\":3666:3667   */\n      0x00\n        /* \"#utility.yul\":3658:3664   */\n      dup3\n        /* \"#utility.yul\":3654:3668   */\n      add\n        /* \"#utility.yul\":3647:3705   */\n      mstore\n        /* \"#utility.yul\":3739:3745   */\n      0x7468657200000000000000000000000000000000000000000000000000000000\n        /* \"#utility.yul\":3734:3736   */\n      0x20\n        /* \"#utility.yul\":3726:3732   */\n      dup3\n        /* \"#utility.yul\":3722:3737   */\n      add\n        /* \"#utility.yul\":3715:3746   */\n      mstore\n        /* \"#utility.yul\":3530:3753   */\n      pop\n      jump\t// out\n        /* \"#utility.yul\":3759:4125   */\n    tag_65:\n        /* \"#utility.yul\":3901:3904   */\n      0x00\n        /* \"#utility.yul\":3922:3989   */\n      tag_109\n        /* \"#utility.yul\":3986:3988   */\n      0x24\n        /* \"#utility.yul\":3981:3984   */\n      dup4\n        /* \"#utility.yul\":3922:3989   */\n      tag_61\n      jump\t// in\n    tag_109:\n        /* \"#utility.yul\":3915:3989   */\n      swap2\n      pop\n        /* \"#utility.yul\":3998:4091   */\n      tag_110\n        /* \"#utility.yul\":4087:4090   */\n      dup3\n        /* \"#utility.yul\":3998:4091   */\n      tag_64\n      jump\t// in\n    tag_110:\n        /* \"#utility.yul\":4116:4118   */\n      0x40\n        /* \"#utility.yul\":4111:4114   */\n      dup3\n        /* \"#utility.yul\":4107:4119   */\n      add\n        /* \"#utility.yul\":4100:4119   */\n      swap1\n      pop\n        /* \"#utility.yul\":3759:4125   */\n      swap2\n      swap1\n      pop\n      jump\t// out\n        /* \"#utility.yul\":4131:4550   */\n    tag_33:\n        /* \"#utility.yul\":4297:4301   */\n      0x00\n        /* \"#utility.yul\":4335:4337   */\n      0x20\n        /* \"#utility.yul\":4324:4333   */\n      dup3\n        /* \"#utility.yul\":4320:4338   */\n      add\n        /* \"#utility.yul\":4312:4338   */\n      swap1\n      pop\n        /* \"#utility.yul\":4384:4393   */\n      dup2\n        /* \"#utility.yul\":4378:4382   */\n      dup2\n        /* \"#utility.yul\":4374:4394   */\n      sub\n        /* \"#utility.yul\":4370:4371   */\n      0x00\n        /* \"#utility.yul\":4359:4368   */\n      dup4\n        /* \"#utility.yul\":4355:4372   */\n      add\n        /* \"#utility.yul\":4348:4395   */\n      mstore\n        /* \"#utility.yul\":4412:4543   */\n      tag_112\n        /* \"#utility.yul\":4538:4542   */\n      dup2\n        /* \"#utility.yul\":4412:4543   */\n      tag_65\n      jump\t// in\n    tag_112:\n        /* \"#utility.yul\":4404:4543   */\n      swap1\n      pop\n        /* \"#utility.yul\":4131:4550   */\n      swap2\n      swap1\n      pop\n      jump\t// out\n        /* \"#utility.yul\":4556:4736   */\n    tag_66:\n        /* \"#utility.yul\":4604:4681   */\n      0x4e487b7100000000000000000000000000000000000000000000000000000000\n        /* \"#utility.yul\":4601:4602   */\n      0x00\n        /* \"#utility.yul\":4594:4682   */\n      mstore\n        /* \"#utility.yul\":4701:4705   */\n      0x11\n        /* \"#utility.yul\":4698:4699   */\n      0x04\n        /* \"#utility.yul\":4691:4706   */\n      mstore\n        /* \"#utility.yul\":4725:4729   */\n      0x24\n        /* \"#utility.yul\":4722:4723   */\n      0x00\n        /* \"#utility.yul\":4715:4730   */\n      revert\n        /* \"#utility.yul\":4742:4947   */\n    tag_36:\n        /* \"#utility.yul\":4781:4784   */\n      0x00\n        /* \"#utility.yul\":4800:4819   */\n      tag_115\n        /* \"#utility.yul\":4817:4818   */\n      dup3\n        /* \"#utility.yul\":4800:4819   */\n      tag_57\n      jump\t// in\n    tag_115:\n        /* \"#utility.yul\":4795:4819   */\n      swap2\n      pop\n        /* \"#utility.yul\":4833:4852   */\n      tag_116\n        /* \"#utility.yul\":4850:4851   */\n      dup4\n        /* \"#utility.yul\":4833:4852   */\n      tag_57\n      jump\t// in\n    tag_116:\n        /* \"#utility.yul\":4828:4852   */\n      swap3\n      pop\n        /* \"#utility.yul\":4875:4876   */\n      dup3\n        /* \"#utility.yul\":4872:4873   */\n      dup3\n        /* \"#utility.yul\":4868:4877   */\n      add\n        /* \"#utility.yul\":4861:4877   */\n      swap1\n      pop\n        /* \"#utility.yul\":4898:4916   */\n      0xffffffffffffffff\n        /* \"#utility.yul\":4893:4896   */\n      dup2\n        /* \"#utility.yul\":4890:4917   */\n      gt\n        /* \"#utility.yul\":4887:4940   */\n      iszero\n      tag_117\n      jumpi\n        /* \"#utility.yul\":4920:4938   */\n      tag_118\n      tag_66\n      jump\t// in\n    tag_118:\n        /* \"#utility.yul\":4887:4940   */\n    tag_117:\n        /* \"#utility.yul\":4742:4947   */\n      swap3\n      swap2\n      pop\n      pop\n      jump\t// out\n        /* \"#utility.yul\":4953:5135   */\n    tag_67:\n        /* \"#utility.yul\":5093:5127   */\n      0x4d6178205769746864726177616c20416d6f756e742069732032204574686572\n        /* \"#utility.yul\":5089:5090   */\n      0x00\n        /* \"#utility.yul\":5081:5087   */\n      dup3\n        /* \"#utility.yul\":5077:5091   */\n      add\n        /* \"#utility.yul\":5070:5128   */\n      mstore\n        /* \"#utility.yul\":4953:5135   */\n      pop\n      jump\t// out\n        /* \"#utility.yul\":5141:5507   */\n    tag_68:\n        /* \"#utility.yul\":5283:5286   */\n      0x00\n        /* \"#utility.yul\":5304:5371   */\n      tag_121\n        /* \"#utility.yul\":5368:5370   */\n      0x20\n        /* \"#utility.yul\":5363:5366   */\n      dup4\n        /* \"#utility.yul\":5304:5371   */\n      tag_61\n      jump\t// in\n    tag_121:\n        /* \"#utility.yul\":5297:5371   */\n      swap2\n      pop\n        /* \"#utility.yul\":5380:5473   */\n      tag_122\n        /* \"#utility.yul\":5469:5472   */\n      dup3\n        /* \"#utility.yul\":5380:5473   */\n      tag_67\n      jump\t// in\n    tag_122:\n        /* \"#utility.yul\":5498:5500   */\n      0x20\n        /* \"#utility.yul\":5493:5496   */\n      dup3\n        /* \"#utility.yul\":5489:5501   */\n      add\n        /* \"#utility.yul\":5482:5501   */\n      swap1\n      pop\n        /* \"#utility.yul\":5141:5507   */\n      swap2\n      swap1\n      pop\n      jump\t// out\n        /* \"#utility.yul\":5513:5932   */\n    tag_45:\n        /* \"#utility.yul\":5679:5683   */\n      0x00\n        /* \"#utility.yul\":5717:5719   */\n      0x20\n        /* \"#utility.yul\":5706:5715   */\n      dup3\n        /* \"#utility.yul\":5702:5720   */\n      add\n        /* \"#utility.yul\":5694:5720   */\n      swap1\n      pop\n        /* \"#utility.yul\":5766:5775   */\n      dup2\n        /* \"#utility.yul\":5760:5764   */\n      dup2\n        /* \"#utility.yul\":5756:5776   */\n      sub\n        /* \"#utility.yul\":5752:5753   */\n      0x00\n        /* \"#utility.yul\":5741:5750   */\n      dup4\n        /* \"#utility.yul\":5737:5754   */\n      add\n        /* \"#utility.yul\":5730:5777   */\n      mstore\n        /* \"#utility.yul\":5794:5925   */\n      tag_124\n        /* \"#utility.yul\":5920:5924   */\n      dup2\n        /* \"#utility.yul\":5794:5925   */\n      tag_68\n      jump\t// in\n    tag_124:\n        /* \"#utility.yul\":5786:5925   */\n      swap1\n      pop\n        /* \"#utility.yul\":5513:5932   */\n      swap2\n      swap1\n      pop\n      jump\t// out\n        /* \"#utility.yul\":5938:6146   */\n    tag_48:\n        /* \"#utility.yul\":5977:5981   */\n      0x00\n        /* \"#utility.yul\":5997:6016   */\n      tag_126\n        /* \"#utility.yul\":6014:6015   */\n      dup3\n        /* \"#utility.yul\":5997:6016   */\n      tag_57\n      jump\t// in\n    tag_126:\n        /* \"#utility.yul\":5992:6016   */\n      swap2\n      pop\n        /* \"#utility.yul\":6030:6049   */\n      tag_127\n        /* \"#utility.yul\":6047:6048   */\n      dup4\n        /* \"#utility.yul\":6030:6049   */\n      tag_57\n      jump\t// in\n    tag_127:\n        /* \"#utility.yul\":6025:6049   */\n      swap3\n      pop\n        /* \"#utility.yul\":6073:6074   */\n      dup3\n        /* \"#utility.yul\":6070:6071   */\n      dup3\n        /* \"#utility.yul\":6066:6075   */\n      sub\n        /* \"#utility.yul\":6058:6075   */\n      swap1\n      pop\n        /* \"#utility.yul\":6097:6115   */\n      0xffffffffffffffff\n        /* \"#utility.yul\":6091:6095   */\n      dup2\n        /* \"#utility.yul\":6088:6116   */\n      gt\n        /* \"#utility.yul\":6085:6139   */\n      iszero\n      tag_128\n      jumpi\n        /* \"#utility.yul\":6119:6137   */\n      tag_129\n      tag_66\n      jump\t// in\n    tag_129:\n        /* \"#utility.yul\":6085:6139   */\n    tag_128:\n        /* \"#utility.yul\":5938:6146   */\n      swap3\n      swap2\n      pop\n      pop\n      jump\t// out\n\n    auxdata: 0xa2646970667358221220c120f4563263ec1da6089cdee768ea6ce0854af452e5d1143e85f7ae6284489364736f6c634300081a0033\n}\n",
				"bytecode": {
					"linkReferences": {},
					"object": "6080604052348015600e575f80fd5b506107488061001c5f395ff3fe608060405234801561000f575f80fd5b506004361061004a575f3560e01c806329664ac61461004e5780633465d6d51461006a57806343e2e5041461009a578063d6dad060146100ca575b5f80fd5b61006860048036038101906100639190610470565b6100e6565b005b610084600480360381019061007f91906104ae565b61020e565b60405161009191906104e8565b60405180910390f35b6100b460048036038101906100af91906104ae565b610231565b6040516100c191906104e8565b60405180910390f35b6100e460048036038101906100df9190610470565b610289565b005b816100f0816103b3565b15610130576040517f08c379a00000000000000000000000000000000000000000000000000000000081526004016101279061055b565b60405180910390fd5b8165e35fa931a0008167ffffffffffffffff161015610184576040517f08c379a000000000000000000000000000000000000000000000000000000000815260040161017b906105e9565b60405180910390fd5b825f808673ffffffffffffffffffffffffffffffffffffffff1673ffffffffffffffffffffffffffffffffffffffff1681526020019081526020015f205f8282829054906101000a900467ffffffffffffffff166101e29190610634565b92506101000a81548167ffffffffffffffff021916908367ffffffffffffffff16021790555050505050565b5f602052805f5260405f205f915054906101000a900467ffffffffffffffff1681565b5f805f8373ffffffffffffffffffffffffffffffffffffffff1673ffffffffffffffffffffffffffffffffffffffff1681526020019081526020015f205f9054906101000a900467ffffffffffffffff169050919050565b81610293816103b3565b156102d3576040517f08c379a00000000000000000000000000000000000000000000000000000000081526004016102ca9061055b565b60405180910390fd5b81671bc16d674ec800008167ffffffffffffffff161115610329576040517f08c379a0000000000000000000000000000000000000000000000000000000008152600401610320906106b9565b60405180910390fd5b825f808673ffffffffffffffffffffffffffffffffffffffff1673ffffffffffffffffffffffffffffffffffffffff1681526020019081526020015f205f8282829054906101000a900467ffffffffffffffff1661038791906106d7565b92506101000a81548167ffffffffffffffff021916908367ffffffffffffffff16021790555050505050565b5f808273ffffffffffffffffffffffffffffffffffffffff163b119050919050565b5f80fd5b5f73ffffffffffffffffffffffffffffffffffffffff82169050919050565b5f610402826103d9565b9050919050565b610412816103f8565b811461041c575f80fd5b50565b5f8135905061042d81610409565b92915050565b5f67ffffffffffffffff82169050919050565b61044f81610433565b8114610459575f80fd5b50565b5f8135905061046a81610446565b92915050565b5f8060408385031215610486576104856103d5565b5b5f6104938582860161041f565b92505060206104a48582860161045c565b9150509250929050565b5f602082840312156104c3576104c26103d5565b5b5f6104d08482850161041f565b91505092915050565b6104e281610433565b82525050565b5f6020820190506104fb5f8301846104d9565b92915050565b5f82825260208201905092915050565b7f54686973206973206120636f6e747261637420616464726573732100000000005f82015250565b5f610545601b83610501565b915061055082610511565b602082019050919050565b5f6020820190508181035f83015261057281610539565b9050919050565b7f4d696e696d756e204465706f73697420616d6f756e7420697320302e323520455f8201527f7468657200000000000000000000000000000000000000000000000000000000602082015250565b5f6105d3602483610501565b91506105de82610579565b604082019050919050565b5f6020820190508181035f830152610600816105c7565b9050919050565b7f4e487b71000000000000000000000000000000000000000000000000000000005f52601160045260245ffd5b5f61063e82610433565b915061064983610433565b9250828201905067ffffffffffffffff81111561066957610668610607565b5b92915050565b7f4d6178205769746864726177616c20416d6f756e7420697320322045746865725f82015250565b5f6106a3602083610501565b91506106ae8261066f565b602082019050919050565b5f6020820190508181035f8301526106d081610697565b9050919050565b5f6106e182610433565b91506106ec83610433565b9250828203905067ffffffffffffffff81111561070c5761070b610607565b5b9291505056fea2646970667358221220c120f4563263ec1da6089cdee768ea6ce0854af452e5d1143e85f7ae6284489364736f6c634300081a0033",
					"opcodes": "PUSH1 0x80 PUSH1 0x40 MSTORE CALLVALUE DUP1 ISZERO PUSH1 0xE JUMPI PUSH0 DUP1 REVERT JUMPDEST POP PUSH2 0x748 DUP1 PUSH2 0x1C PUSH0 CODECOPY PUSH0 RETURN INVALID PUSH1 0x80 PUSH1 0x40 MSTORE CALLVALUE DUP1 ISZERO PUSH2 0xF JUMPI PUSH0 DUP1 REVERT JUMPDEST POP PUSH1 0x4 CALLDATASIZE LT PUSH2 0x4A JUMPI PUSH0 CALLDATALOAD PUSH1 0xE0 SHR DUP1 PUSH4 0x29664AC6 EQ PUSH2 0x4E JUMPI DUP1 PUSH4 0x3465D6D5 EQ PUSH2 0x6A JUMPI DUP1 PUSH4 0x43E2E504 EQ PUSH2 0x9A JUMPI DUP1 PUSH4 0xD6DAD060 EQ PUSH2 0xCA JUMPI JUMPDEST PUSH0 DUP1 REVERT JUMPDEST PUSH2 0x68 PUSH1 0x4 DUP1 CALLDATASIZE SUB DUP2 ADD SWAP1 PUSH2 0x63 SWAP2 SWAP1 PUSH2 0x470 JUMP JUMPDEST PUSH2 0xE6 JUMP JUMPDEST STOP JUMPDEST PUSH2 0x84 PUSH1 0x4 DUP1 CALLDATASIZE SUB DUP2 ADD SWAP1 PUSH2 0x7F SWAP2 SWAP1 PUSH2 0x4AE JUMP JUMPDEST PUSH2 0x20E JUMP JUMPDEST PUSH1 0x40 MLOAD PUSH2 0x91 SWAP2 SWAP1 PUSH2 0x4E8 JUMP JUMPDEST PUSH1 0x40 MLOAD DUP1 SWAP2 SUB SWAP1 RETURN JUMPDEST PUSH2 0xB4 PUSH1 0x4 DUP1 CALLDATASIZE SUB DUP2 ADD SWAP1 PUSH2 0xAF SWAP2 SWAP1 PUSH2 0x4AE JUMP JUMPDEST PUSH2 0x231 JUMP JUMPDEST PUSH1 0x40 MLOAD PUSH2 0xC1 SWAP2 SWAP1 PUSH2 0x4E8 JUMP JUMPDEST PUSH1 0x40 MLOAD DUP1 SWAP2 SUB SWAP1 RETURN JUMPDEST PUSH2 0xE4 PUSH1 0x4 DUP1 CALLDATASIZE SUB DUP2 ADD SWAP1 PUSH2 0xDF SWAP2 SWAP1 PUSH2 0x470 JUMP JUMPDEST PUSH2 0x289 JUMP JUMPDEST STOP JUMPDEST DUP2 PUSH2 0xF0 DUP2 PUSH2 0x3B3 JUMP JUMPDEST ISZERO PUSH2 0x130 JUMPI PUSH1 0x40 MLOAD PUSH32 0x8C379A000000000000000000000000000000000000000000000000000000000 DUP2 MSTORE PUSH1 0x4 ADD PUSH2 0x127 SWAP1 PUSH2 0x55B JUMP JUMPDEST PUSH1 0x40 MLOAD DUP1 SWAP2 SUB SWAP1 REVERT JUMPDEST DUP2 PUSH6 0xE35FA931A000 DUP2 PUSH8 0xFFFFFFFFFFFFFFFF AND LT ISZERO PUSH2 0x184 JUMPI PUSH1 0x40 MLOAD PUSH32 0x8C379A000000000000000000000000000000000000000000000000000000000 DUP2 MSTORE PUSH1 0x4 ADD PUSH2 0x17B SWAP1 PUSH2 0x5E9 JUMP JUMPDEST PUSH1 0x40 MLOAD DUP1 SWAP2 SUB SWAP1 REVERT JUMPDEST DUP3 PUSH0 DUP1 DUP7 PUSH20 0xFFFFFFFFFFFFFFFFFFFFFFFFFFFFFFFFFFFFFFFF AND PUSH20 0xFFFFFFFFFFFFFFFFFFFFFFFFFFFFFFFFFFFFFFFF AND DUP2 MSTORE PUSH1 0x20 ADD SWAP1 DUP2 MSTORE PUSH1 0x20 ADD PUSH0 KECCAK256 PUSH0 DUP3 DUP3 DUP3 SWAP1 SLOAD SWAP1 PUSH2 0x100 EXP SWAP1 DIV PUSH8 0xFFFFFFFFFFFFFFFF AND PUSH2 0x1E2 SWAP2 SWAP1 PUSH2 0x634 JUMP JUMPDEST SWAP3 POP PUSH2 0x100 EXP DUP2 SLOAD DUP2 PUSH8 0xFFFFFFFFFFFFFFFF MUL NOT AND SWAP1 DUP4 PUSH8 0xFFFFFFFFFFFFFFFF AND MUL OR SWAP1 SSTORE POP POP POP POP POP JUMP JUMPDEST PUSH0 PUSH1 0x20 MSTORE DUP1 PUSH0 MSTORE PUSH1 0x40 PUSH0 KECCAK256 PUSH0 SWAP2 POP SLOAD SWAP1 PUSH2 0x100 EXP SWAP1 DIV PUSH8 0xFFFFFFFFFFFFFFFF AND DUP2 JUMP JUMPDEST PUSH0 DUP1 PUSH0 DUP4 PUSH20 0xFFFFFFFFFFFFFFFFFFFFFFFFFFFFFFFFFFFFFFFF AND PUSH20 0xFFFFFFFFFFFFFFFFFFFFFFFFFFFFFFFFFFFFFFFF AND DUP2 MSTORE PUSH1 0x20 ADD SWAP1 DUP2 MSTORE PUSH1 0x20 ADD PUSH0 KECCAK256 PUSH0 SWAP1 SLOAD SWAP1 PUSH2 0x100 EXP SWAP1 DIV PUSH8 0xFFFFFFFFFFFFFFFF AND SWAP1 POP SWAP2 SWAP1 POP JUMP JUMPDEST DUP2 PUSH2 0x293 DUP2 PUSH2 0x3B3 JUMP JUMPDEST ISZERO PUSH2 0x2D3 JUMPI PUSH1 0x40 MLOAD PUSH32 0x8C379A000000000000000000000000000000000000000000000000000000000 DUP2 MSTORE PUSH1 0x4 ADD PUSH2 0x2CA SWAP1 PUSH2 0x55B JUMP JUMPDEST PUSH1 0x40 MLOAD DUP1 SWAP2 SUB SWAP1 REVERT JUMPDEST DUP2 PUSH8 0x1BC16D674EC80000 DUP2 PUSH8 0xFFFFFFFFFFFFFFFF AND GT ISZERO PUSH2 0x329 JUMPI PUSH1 0x40 MLOAD PUSH32 0x8C379A000000000000000000000000000000000000000000000000000000000 DUP2 MSTORE PUSH1 0x4 ADD PUSH2 0x320 SWAP1 PUSH2 0x6B9 JUMP JUMPDEST PUSH1 0x40 MLOAD DUP1 SWAP2 SUB SWAP1 REVERT JUMPDEST DUP3 PUSH0 DUP1 DUP7 PUSH20 0xFFFFFFFFFFFFFFFFFFFFFFFFFFFFFFFFFFFFFFFF AND PUSH20 0xFFFFFFFFFFFFFFFFFFFFFFFFFFFFFFFFFFFFFFFF AND DUP2 MSTORE PUSH1 0x20 ADD SWAP1 DUP2 MSTORE PUSH1 0x20 ADD PUSH0 KECCAK256 PUSH0 DUP3 DUP3 DUP3 SWAP1 SLOAD SWAP1 PUSH2 0x100 EXP SWAP1 DIV PUSH8 0xFFFFFFFFFFFFFFFF AND PUSH2 0x387 SWAP2 SWAP1 PUSH2 0x6D7 JUMP JUMPDEST SWAP3 POP PUSH2 0x100 EXP DUP2 SLOAD DUP2 PUSH8 0xFFFFFFFFFFFFFFFF MUL NOT AND SWAP1 DUP4 PUSH8 0xFFFFFFFFFFFFFFFF AND MUL OR SWAP1 SSTORE POP POP POP POP POP JUMP JUMPDEST PUSH0 DUP1 DUP3 PUSH20 0xFFFFFFFFFFFFFFFFFFFFFFFFFFFFFFFFFFFFFFFF AND EXTCODESIZE GT SWAP1 POP SWAP2 SWAP1 POP JUMP JUMPDEST PUSH0 DUP1 REVERT JUMPDEST PUSH0 PUSH20 0xFFFFFFFFFFFFFFFFFFFFFFFFFFFFFFFFFFFFFFFF DUP3 AND SWAP1 POP SWAP2 SWAP1 POP JUMP JUMPDEST PUSH0 PUSH2 0x402 DUP3 PUSH2 0x3D9 JUMP JUMPDEST SWAP1 POP SWAP2 SWAP1 POP JUMP JUMPDEST PUSH2 0x412 DUP2 PUSH2 0x3F8 JUMP JUMPDEST DUP2 EQ PUSH2 0x41C JUMPI PUSH0 DUP1 REVERT JUMPDEST POP JUMP JUMPDEST PUSH0 DUP2 CALLDATALOAD SWAP1 POP PUSH2 0x42D DUP2 PUSH2 0x409 JUMP JUMPDEST SWAP3 SWAP2 POP POP JUMP JUMPDEST PUSH0 PUSH8 0xFFFFFFFFFFFFFFFF DUP3 AND SWAP1 POP SWAP2 SWAP1 POP JUMP JUMPDEST PUSH2 0x44F DUP2 PUSH2 0x433 JUMP JUMPDEST DUP2 EQ PUSH2 0x459 JUMPI PUSH0 DUP1 REVERT JUMPDEST POP JUMP JUMPDEST PUSH0 DUP2 CALLDATALOAD SWAP1 POP PUSH2 0x46A DUP2 PUSH2 0x446 JUMP JUMPDEST SWAP3 SWAP2 POP POP JUMP JUMPDEST PUSH0 DUP1 PUSH1 0x40 DUP4 DUP6 SUB SLT ISZERO PUSH2 0x486 JUMPI PUSH2 0x485 PUSH2 0x3D5 JUMP JUMPDEST JUMPDEST PUSH0 PUSH2 0x493 DUP6 DUP3 DUP7 ADD PUSH2 0x41F JUMP JUMPDEST SWAP3 POP POP PUSH1 0x20 PUSH2 0x4A4 DUP6 DUP3 DUP7 ADD PUSH2 0x45C JUMP JUMPDEST SWAP2 POP POP SWAP3 POP SWAP3 SWAP1 POP JUMP JUMPDEST PUSH0 PUSH1 0x20 DUP3 DUP5 SUB SLT ISZERO PUSH2 0x4C3 JUMPI PUSH2 0x4C2 PUSH2 0x3D5 JUMP JUMPDEST JUMPDEST PUSH0 PUSH2 0x4D0 DUP5 DUP3 DUP6 ADD PUSH2 0x41F JUMP JUMPDEST SWAP2 POP POP SWAP3 SWAP2 POP POP JUMP JUMPDEST PUSH2 0x4E2 DUP2 PUSH2 0x433 JUMP JUMPDEST DUP3 MSTORE POP POP JUMP JUMPDEST PUSH0 PUSH1 0x20 DUP3 ADD SWAP1 POP PUSH2 0x4FB PUSH0 DUP4 ADD DUP5 PUSH2 0x4D9 JUMP JUMPDEST SWAP3 SWAP2 POP POP JUMP JUMPDEST PUSH0 DUP3 DUP3 MSTORE PUSH1 0x20 DUP3 ADD SWAP1 POP SWAP3 SWAP2 POP POP JUMP JUMPDEST PUSH32 0x54686973206973206120636F6E74726163742061646472657373210000000000 PUSH0 DUP3 ADD MSTORE POP JUMP JUMPDEST PUSH0 PUSH2 0x545 PUSH1 0x1B DUP4 PUSH2 0x501 JUMP JUMPDEST SWAP2 POP PUSH2 0x550 DUP3 PUSH2 0x511 JUMP JUMPDEST PUSH1 0x20 DUP3 ADD SWAP1 POP SWAP2 SWAP1 POP JUMP JUMPDEST PUSH0 PUSH1 0x20 DUP3 ADD SWAP1 POP DUP2 DUP2 SUB PUSH0 DUP4 ADD MSTORE PUSH2 0x572 DUP2 PUSH2 0x539 JUMP JUMPDEST SWAP1 POP SWAP2 SWAP1 POP JUMP JUMPDEST PUSH32 0x4D696E696D756E204465706F73697420616D6F756E7420697320302E32352045 PUSH0 DUP3 ADD MSTORE PUSH32 0x7468657200000000000000000000000000000000000000000000000000000000 PUSH1 0x20 DUP3 ADD MSTORE POP JUMP JUMPDEST PUSH0 PUSH2 0x5D3 PUSH1 0x24 DUP4 PUSH2 0x501 JUMP JUMPDEST SWAP2 POP PUSH2 0x5DE DUP3 PUSH2 0x579 JUMP JUMPDEST PUSH1 0x40 DUP3 ADD SWAP1 POP SWAP2 SWAP1 POP JUMP JUMPDEST PUSH0 PUSH1 0x20 DUP3 ADD SWAP1 POP DUP2 DUP2 SUB PUSH0 DUP4 ADD MSTORE PUSH2 0x600 DUP2 PUSH2 0x5C7 JUMP JUMPDEST SWAP1 POP SWAP2 SWAP1 POP JUMP JUMPDEST PUSH32 0x4E487B7100000000000000000000000000000000000000000000000000000000 PUSH0 MSTORE PUSH1 0x11 PUSH1 0x4 MSTORE PUSH1 0x24 PUSH0 REVERT JUMPDEST PUSH0 PUSH2 0x63E DUP3 PUSH2 0x433 JUMP JUMPDEST SWAP2 POP PUSH2 0x649 DUP4 PUSH2 0x433 JUMP JUMPDEST SWAP3 POP DUP3 DUP3 ADD SWAP1 POP PUSH8 0xFFFFFFFFFFFFFFFF DUP2 GT ISZERO PUSH2 0x669 JUMPI PUSH2 0x668 PUSH2 0x607 JUMP JUMPDEST JUMPDEST SWAP3 SWAP2 POP POP JUMP JUMPDEST PUSH32 0x4D6178205769746864726177616C20416D6F756E742069732032204574686572 PUSH0 DUP3 ADD MSTORE POP JUMP JUMPDEST PUSH0 PUSH2 0x6A3 PUSH1 0x20 DUP4 PUSH2 0x501 JUMP JUMPDEST SWAP2 POP PUSH2 0x6AE DUP3 PUSH2 0x66F JUMP JUMPDEST PUSH1 0x20 DUP3 ADD SWAP1 POP SWAP2 SWAP1 POP JUMP JUMPDEST PUSH0 PUSH1 0x20 DUP3 ADD SWAP1 POP DUP2 DUP2 SUB PUSH0 DUP4 ADD MSTORE PUSH2 0x6D0 DUP2 PUSH2 0x697 JUMP JUMPDEST SWAP1 POP SWAP2 SWAP1 POP JUMP JUMPDEST PUSH0 PUSH2 0x6E1 DUP3 PUSH2 0x433 JUMP JUMPDEST SWAP2 POP PUSH2 0x6EC DUP4 PUSH2 0x433 JUMP JUMPDEST SWAP3 POP DUP3 DUP3 SUB SWAP1 POP PUSH8 0xFFFFFFFFFFFFFFFF DUP2 GT ISZERO PUSH2 0x70C JUMPI PUSH2 0x70B PUSH2 0x607 JUMP JUMPDEST JUMPDEST SWAP3 SWAP2 POP POP JUMP INVALID LOG2 PUSH5 0x6970667358 0x22 SLT KECCAK256 0xC1 KECCAK256 DELEGATECALL JUMP ORIGIN PUSH4 0xEC1DA608 SWAP13 0xDE 0xE7 PUSH9 0xEA6CE0854AF452E5D1 EQ RETURNDATACOPY DUP6 0xF7 0xAE PUSH3 0x844893 PUSH5 0x736F6C6343 STOP ADDMOD BYTE STOP CALLER "
				},
				"gasEstimates": {
					"creation": {
						"codeDepositCost": "372800",
						"executionCost": "409",
						"totalCost": "373209"
					},
					"external": {
						"GetBalance(address)": "2892",
						"deposit(address,uint64)": "infinite",
						"record(address)": "2832",
						"withdraw(address,uint64)": "infinite"
					},
					"internal": {
						"ContractAddr(address)": "2639"
					}
				},
				"methodIdentifiers": {
					"GetBalance(address)": "43e2e504",
					"deposit(address,uint64)": "29664ac6",
					"record(address)": "3465d6d5",
					"withdraw(address,uint64)": "d6dad060"
				}
			},
			"storageLayout": {
				"storage": [
					{
						"astId": 5,
						"contract": "contracts/bank.sol:bank",
						"label": "record",
						"offset": 0,
						"slot": "0",
						"type": "t_mapping(t_address,t_uint64)"
					}
				],
				"types": {
					"t_address": {
						"encoding": "inplace",
						"label": "address",
						"numberOfBytes": "20"
					},
					"t_mapping(t_address,t_uint64)": {
						"encoding": "mapping",
						"key": "t_address",
						"label": "mapping(address => uint64)",
						"numberOfBytes": "32",
						"value": "t_uint64"
					},
					"t_uint64": {
						"encoding": "inplace",
						"label": "uint64",
						"numberOfBytes": "8"
					}
				}
			},
			"userdoc": {
				"kind": "user",
				"methods": {},
				"version": 1
			}
		}
	}
}