{
	"contracts/bank.sol": {
		"bank": {
			"abi": [
				{
					"anonymous": false,
					"inputs": [
						{
							"indexed": false,
							"internalType": "string",
							"name": "message",
							"type": "string"
						}
					],
					"name": "DepositWithdrawError",
					"type": "event"
				},
				{
					"inputs": [
						{
							"internalType": "address",
							"name": "DepAddr",
							"type": "address"
						},
						{
							"internalType": "uint64",
							"name": "DepAmt",
							"type": "uint64"
						}
					],
					"name": "deposit",
					"outputs": [],
					"stateMutability": "nonpayable",
					"type": "function"
				},
				{
					"inputs": [
						{
							"internalType": "string",
							"name": "uname",
							"type": "string"
						}
					],
					"name": "getUserByUsername",
					"outputs": [
						{
							"components": [
								{
									"internalType": "string",
									"name": "uname",
									"type": "string"
								},
								{
									"internalType": "address",
									"name": "uaddress",
									"type": "address"
								},
								{
									"internalType": "uint64",
									"name": "balance",
									"type": "uint64"
								}
							],
							"internalType": "struct bank.User",
							"name": "",
							"type": "tuple"
						}
					],
					"stateMutability": "view",
					"type": "function"
				},
				{
					"inputs": [
						{
							"internalType": "address",
							"name": "",
							"type": "address"
						}
					],
					"name": "record",
					"outputs": [
						{
							"internalType": "uint64",
							"name": "",
							"type": "uint64"
						}
					],
					"stateMutability": "view",
					"type": "function"
				},
				{
					"inputs": [
						{
							"internalType": "string",
							"name": "uname",
							"type": "string"
						},
						{
							"internalType": "address",
							"name": "uaddress",
							"type": "address"
						},
						{
							"internalType": "uint64",
							"name": "balance",
							"type": "uint64"
						}
					],
					"name": "registerUser",
					"outputs": [],
					"stateMutability": "nonpayable",
					"type": "function"
				},
				{
					"inputs": [],
					"name": "status",
					"outputs": [
						{
							"internalType": "enum bank.Status",
							"name": "",
							"type": "uint8"
						}
					],
					"stateMutability": "view",
					"type": "function"
				},
				{
					"inputs": [
						{
							"internalType": "address",
							"name": "WithdAddr",
							"type": "address"
						},
						{
							"internalType": "uint64",
							"name": "WithdAmt",
							"type": "uint64"
						}
					],
					"name": "withdraw",
					"outputs": [],
					"stateMutability": "nonpayable",
					"type": "function"
				}
			],
			"devdoc": {
				"kind": "dev",
				"methods": {},
				"version": 1
			},
			"evm": {
				"assembly": "    /* \"contracts/bank.sol\":58:2770  contract bank {... */\n  mstore(0x40, 0x80)\n    /* \"contracts/bank.sol\":195:214  250000000000000 wei */\n  0xe35fa931a000\n    /* \"contracts/bank.sol\":168:214  uint64 private MinDepAmt = 250000000000000 wei */\n  0x02\n  exp(0x0100, 0x00)\n  dup2\n  sload\n  dup2\n  0xffffffffffffffff\n  mul\n  not\n  and\n  swap1\n  dup4\n  0xffffffffffffffff\n  and\n  mul\n  or\n  swap1\n  sstore\n  pop\n    /* \"contracts/bank.sol\":249:256  2 ether */\n  0x1bc16d674ec80000\n    /* \"contracts/bank.sol\":220:256  uint64 private MaxWithdAmt = 2 ether */\n  0x02\n  exp(0x0100, 0x08)\n  dup2\n  sload\n  dup2\n  0xffffffffffffffff\n  mul\n  not\n  and\n  swap1\n  dup4\n  0xffffffffffffffff\n  and\n  mul\n  or\n  swap1\n  sstore\n  pop\n    /* \"contracts/bank.sol\":58:2770  contract bank {... */\n  callvalue\n  dup1\n  iszero\n  tag_1\n  jumpi\n  0x00\n  dup1\n  revert\ntag_1:\n  pop\n  dataSize(sub_0)\n  dup1\n  dataOffset(sub_0)\n  0x00\n  codecopy\n  0x00\n  return\nstop\n\nsub_0: assembly {\n        /* \"contracts/bank.sol\":58:2770  contract bank {... */\n      mstore(0x40, 0x80)\n      callvalue\n      dup1\n      iszero\n      tag_1\n      jumpi\n      0x00\n      dup1\n      revert\n    tag_1:\n      pop\n      jumpi(tag_2, lt(calldatasize, 0x04))\n      shr(0xe0, calldataload(0x00))\n      dup1\n      0x11a712a0\n      eq\n      tag_3\n      jumpi\n      dup1\n      0x200d2ed2\n      eq\n      tag_4\n      jumpi\n      dup1\n      0x29664ac6\n      eq\n      tag_5\n      jumpi\n      dup1\n      0x3465d6d5\n      eq\n      tag_6\n      jumpi\n      dup1\n      0x9f42af63\n      eq\n      tag_7\n      jumpi\n      dup1\n      0xd6dad060\n      eq\n      tag_8\n      jumpi\n    tag_2:\n      0x00\n      dup1\n      revert\n        /* \"contracts/bank.sol\":1640:1816  function registerUser(... */\n    tag_3:\n      tag_9\n      0x04\n      dup1\n      calldatasize\n      sub\n      dup2\n      add\n      swap1\n      tag_10\n      swap2\n      swap1\n      tag_11\n      jump\t// in\n    tag_10:\n      tag_12\n      jump\t// in\n    tag_9:\n      stop\n        /* \"contracts/bank.sol\":436:456  Status public status */\n    tag_4:\n      tag_13\n      tag_14\n      jump\t// in\n    tag_13:\n      mload(0x40)\n      tag_15\n      swap2\n      swap1\n      tag_16\n      jump\t// in\n    tag_15:\n      mload(0x40)\n      dup1\n      swap2\n      sub\n      swap1\n      return\n        /* \"contracts/bank.sol\":2083:2299  function deposit(address DepAddr, uint64 DepAmt)... */\n    tag_5:\n      tag_17\n      0x04\n      dup1\n      calldatasize\n      sub\n      dup2\n      add\n      swap1\n      tag_18\n      swap2\n      swap1\n      tag_19\n      jump\t// in\n    tag_18:\n      tag_20\n      jump\t// in\n    tag_17:\n      stop\n        /* \"contracts/bank.sol\":78:118  mapping(address => uint64) public record */\n    tag_6:\n      tag_21\n      0x04\n      dup1\n      calldatasize\n      sub\n      dup2\n      add\n      swap1\n      tag_22\n      swap2\n      swap1\n      tag_23\n      jump\t// in\n    tag_22:\n      tag_24\n      jump\t// in\n    tag_21:\n      mload(0x40)\n      tag_25\n      swap2\n      swap1\n      tag_26\n      jump\t// in\n    tag_25:\n      mload(0x40)\n      dup1\n      swap2\n      sub\n      swap1\n      return\n        /* \"contracts/bank.sol\":1864:2037  function getUserByUsername(string memory uname)... */\n    tag_7:\n      tag_27\n      0x04\n      dup1\n      calldatasize\n      sub\n      dup2\n      add\n      swap1\n      tag_28\n      swap2\n      swap1\n      tag_29\n      jump\t// in\n    tag_28:\n      tag_30\n      jump\t// in\n    tag_27:\n      mload(0x40)\n      tag_31\n      swap2\n      swap1\n      tag_32\n      jump\t// in\n    tag_31:\n      mload(0x40)\n      dup1\n      swap2\n      sub\n      swap1\n      return\n        /* \"contracts/bank.sol\":2367:2598  function withdraw(address WithdAddr, uint64 WithdAmt)... */\n    tag_8:\n      tag_33\n      0x04\n      dup1\n      calldatasize\n      sub\n      dup2\n      add\n      swap1\n      tag_34\n      swap2\n      swap1\n      tag_19\n      jump\t// in\n    tag_34:\n      tag_35\n      jump\t// in\n    tag_33:\n      stop\n        /* \"contracts/bank.sol\":1640:1816  function registerUser(... */\n    tag_12:\n        /* \"contracts/bank.sol\":1779:1809  User(uname, uaddress, balance) */\n      mload(0x40)\n      dup1\n      0x60\n      add\n      0x40\n      mstore\n      dup1\n        /* \"contracts/bank.sol\":1784:1789  uname */\n      dup5\n        /* \"contracts/bank.sol\":1779:1809  User(uname, uaddress, balance) */\n      dup2\n      mstore\n      0x20\n      add\n        /* \"contracts/bank.sol\":1791:1799  uaddress */\n      dup4\n        /* \"contracts/bank.sol\":1779:1809  User(uname, uaddress, balance) */\n      0xffffffffffffffffffffffffffffffffffffffff\n      and\n      dup2\n      mstore\n      0x20\n      add\n        /* \"contracts/bank.sol\":1801:1808  balance */\n      dup3\n        /* \"contracts/bank.sol\":1779:1809  User(uname, uaddress, balance) */\n      0xffffffffffffffff\n      and\n      dup2\n      mstore\n      pop\n        /* \"contracts/bank.sol\":1764:1769  users */\n      0x01\n        /* \"contracts/bank.sol\":1770:1775  uname */\n      dup5\n        /* \"contracts/bank.sol\":1764:1776  users[uname] */\n      mload(0x40)\n      tag_37\n      swap2\n      swap1\n      tag_38\n      jump\t// in\n    tag_37:\n      swap1\n      dup2\n      mstore\n      0x20\n      add\n      mload(0x40)\n      dup1\n      swap2\n      sub\n      swap1\n      keccak256\n        /* \"contracts/bank.sol\":1764:1809  users[uname] = User(uname, uaddress, balance) */\n      0x00\n      dup3\n      add\n      mload\n      dup2\n      0x00\n      add\n      swap1\n      dup2\n      tag_39\n      swap2\n      swap1\n      tag_40\n      jump\t// in\n    tag_39:\n      pop\n      0x20\n      dup3\n      add\n      mload\n      dup2\n      0x01\n      add\n      exp(0x0100, 0x00)\n      dup2\n      sload\n      dup2\n      0xffffffffffffffffffffffffffffffffffffffff\n      mul\n      not\n      and\n      swap1\n      dup4\n      0xffffffffffffffffffffffffffffffffffffffff\n      and\n      mul\n      or\n      swap1\n      sstore\n      pop\n      0x40\n      dup3\n      add\n      mload\n      dup2\n      0x01\n      add\n      exp(0x0100, 0x14)\n      dup2\n      sload\n      dup2\n      0xffffffffffffffff\n      mul\n      not\n      and\n      swap1\n      dup4\n      0xffffffffffffffff\n      and\n      mul\n      or\n      swap1\n      sstore\n      pop\n      swap1\n      pop\n      pop\n        /* \"contracts/bank.sol\":1640:1816  function registerUser(... */\n      pop\n      pop\n      pop\n      jump\t// out\n        /* \"contracts/bank.sol\":436:456  Status public status */\n    tag_14:\n      0x02\n      0x10\n      swap1\n      sload\n      swap1\n      0x0100\n      exp\n      swap1\n      div\n      0xff\n      and\n      dup2\n      jump\t// out\n        /* \"contracts/bank.sol\":2083:2299  function deposit(address DepAddr, uint64 DepAmt)... */\n    tag_20:\n        /* \"contracts/bank.sol\":2166:2173  DepAddr */\n      dup2\n        /* \"contracts/bank.sol\":1352:1370  ContractAddr(addr) */\n      tag_42\n        /* \"contracts/bank.sol\":1365:1369  addr */\n      dup2\n        /* \"contracts/bank.sol\":1352:1364  ContractAddr */\n      tag_43\n        /* \"contracts/bank.sol\":1352:1370  ContractAddr(addr) */\n      jump\t// in\n    tag_42:\n        /* \"contracts/bank.sol\":1351:1370  !ContractAddr(addr) */\n      iszero\n        /* \"contracts/bank.sol\":1343:1402  require(!ContractAddr(addr), \"This is a contract address!\") */\n      tag_44\n      jumpi\n      mload(0x40)\n      0x08c379a000000000000000000000000000000000000000000000000000000000\n      dup2\n      mstore\n      0x04\n      add\n      tag_45\n      swap1\n      tag_46\n      jump\t// in\n    tag_45:\n      mload(0x40)\n      dup1\n      swap2\n      sub\n      swap1\n      revert\n    tag_44:\n        /* \"contracts/bank.sol\":2245:2251  DepAmt */\n      dup2\n        /* \"contracts/bank.sol\":567:576  MinDepAmt */\n      0x02\n      0x00\n      swap1\n      sload\n      swap1\n      0x0100\n      exp\n      swap1\n      div\n      0xffffffffffffffff\n      and\n        /* \"contracts/bank.sol\":561:576  amt > MinDepAmt */\n      0xffffffffffffffff\n      and\n        /* \"contracts/bank.sol\":561:564  amt */\n      dup2\n        /* \"contracts/bank.sol\":561:576  amt > MinDepAmt */\n      0xffffffffffffffff\n      and\n      gt\n        /* \"contracts/bank.sol\":557:800  if (amt > MinDepAmt) {... */\n      iszero\n      tag_48\n      jumpi\n        /* \"contracts/bank.sol\":601:618  Status.Successful */\n      0x02\n        /* \"contracts/bank.sol\":592:598  status */\n      dup1\n      0x10\n        /* \"contracts/bank.sol\":592:618  status = Status.Successful */\n      0x0100\n      exp\n      dup2\n      sload\n      dup2\n      0xff\n      mul\n      not\n      and\n      swap1\n      dup4\n      0x02\n      dup2\n      gt\n      iszero\n      tag_49\n      jumpi\n      tag_50\n      tag_51\n      jump\t// in\n    tag_50:\n    tag_49:\n      mul\n      or\n      swap1\n      sstore\n      pop\n        /* \"contracts/bank.sol\":637:679  DepositWithdrawError(\"Deposit Succesfull\") */\n      0x8ea85ee945a7934462d6233287a7a40596a6c51a9253cf0c75b4004ba17876e5\n      mload(0x40)\n      tag_52\n      swap1\n      tag_53\n      jump\t// in\n    tag_52:\n      mload(0x40)\n      dup1\n      swap2\n      sub\n      swap1\n      log1\n        /* \"contracts/bank.sol\":557:800  if (amt > MinDepAmt) {... */\n      jump(tag_54)\n    tag_48:\n        /* \"contracts/bank.sol\":719:732  Status.Failed */\n      0x01\n        /* \"contracts/bank.sol\":710:716  status */\n      0x02\n      0x10\n        /* \"contracts/bank.sol\":710:732  status = Status.Failed */\n      0x0100\n      exp\n      dup2\n      sload\n      dup2\n      0xff\n      mul\n      not\n      and\n      swap1\n      dup4\n      0x02\n      dup2\n      gt\n      iszero\n      tag_55\n      jumpi\n      tag_56\n      tag_51\n      jump\t// in\n    tag_56:\n    tag_55:\n      mul\n      or\n      swap1\n      sstore\n      pop\n        /* \"contracts/bank.sol\":751:789  DepositWithdrawError(\"Deposit Failed\") */\n      0x8ea85ee945a7934462d6233287a7a40596a6c51a9253cf0c75b4004ba17876e5\n      mload(0x40)\n      tag_57\n      swap1\n      tag_58\n      jump\t// in\n    tag_57:\n      mload(0x40)\n      dup1\n      swap2\n      sub\n      swap1\n      log1\n        /* \"contracts/bank.sol\":557:800  if (amt > MinDepAmt) {... */\n    tag_54:\n        /* \"contracts/bank.sol\":2286:2292  DepAmt */\n      dup3\n        /* \"contracts/bank.sol\":2267:2273  record */\n      0x00\n        /* \"contracts/bank.sol\":2267:2282  record[DepAddr] */\n      dup1\n        /* \"contracts/bank.sol\":2274:2281  DepAddr */\n      dup7\n        /* \"contracts/bank.sol\":2267:2282  record[DepAddr] */\n      0xffffffffffffffffffffffffffffffffffffffff\n      and\n      0xffffffffffffffffffffffffffffffffffffffff\n      and\n      dup2\n      mstore\n      0x20\n      add\n      swap1\n      dup2\n      mstore\n      0x20\n      add\n      0x00\n      keccak256\n      0x00\n        /* \"contracts/bank.sol\":2267:2292  record[DepAddr] += DepAmt */\n      dup3\n      dup3\n      dup3\n      swap1\n      sload\n      swap1\n      0x0100\n      exp\n      swap1\n      div\n      0xffffffffffffffff\n      and\n      tag_60\n      swap2\n      swap1\n      tag_61\n      jump\t// in\n    tag_60:\n      swap3\n      pop\n      0x0100\n      exp\n      dup2\n      sload\n      dup2\n      0xffffffffffffffff\n      mul\n      not\n      and\n      swap1\n      dup4\n      0xffffffffffffffff\n      and\n      mul\n      or\n      swap1\n      sstore\n      pop\n        /* \"contracts/bank.sol\":1412:1413  _ */\n      pop\n        /* \"contracts/bank.sol\":2083:2299  function deposit(address DepAddr, uint64 DepAmt)... */\n      pop\n      pop\n      pop\n      jump\t// out\n        /* \"contracts/bank.sol\":78:118  mapping(address => uint64) public record */\n    tag_24:\n      mstore(0x20, 0x00)\n      dup1\n      0x00\n      mstore\n      keccak256(0x00, 0x40)\n      0x00\n      swap2\n      pop\n      sload\n      swap1\n      0x0100\n      exp\n      swap1\n      div\n      0xffffffffffffffff\n      and\n      dup2\n      jump\t// out\n        /* \"contracts/bank.sol\":1864:2037  function getUserByUsername(string memory uname)... */\n    tag_30:\n        /* \"contracts/bank.sol\":1984:1995  User memory */\n      tag_62\n      tag_63\n      jump\t// in\n    tag_62:\n        /* \"contracts/bank.sol\":1960:1965  uname */\n      dup2\n        /* \"contracts/bank.sol\":1559:1560  0 */\n      0x00\n        /* \"contracts/bank.sol\":1526:1561  users[uname].uaddress != address(0) */\n      0xffffffffffffffffffffffffffffffffffffffff\n      and\n        /* \"contracts/bank.sol\":1526:1531  users */\n      0x01\n        /* \"contracts/bank.sol\":1532:1537  uname */\n      dup3\n        /* \"contracts/bank.sol\":1526:1538  users[uname] */\n      mload(0x40)\n      tag_65\n      swap2\n      swap1\n      tag_38\n      jump\t// in\n    tag_65:\n      swap1\n      dup2\n      mstore\n      0x20\n      add\n      mload(0x40)\n      dup1\n      swap2\n      sub\n      swap1\n      keccak256\n        /* \"contracts/bank.sol\":1526:1547  users[uname].uaddress */\n      0x01\n      add\n      0x00\n      swap1\n      sload\n      swap1\n      0x0100\n      exp\n      swap1\n      div\n      0xffffffffffffffffffffffffffffffffffffffff\n      and\n        /* \"contracts/bank.sol\":1526:1561  users[uname].uaddress != address(0) */\n      0xffffffffffffffffffffffffffffffffffffffff\n      and\n      sub\n        /* \"contracts/bank.sol\":1518:1581  require(users[uname].uaddress != address(0), \"User not Found!\") */\n      tag_66\n      jumpi\n      mload(0x40)\n      0x08c379a000000000000000000000000000000000000000000000000000000000\n      dup2\n      mstore\n      0x04\n      add\n      tag_67\n      swap1\n      tag_68\n      jump\t// in\n    tag_67:\n      mload(0x40)\n      dup1\n      swap2\n      sub\n      swap1\n      revert\n    tag_66:\n        /* \"contracts/bank.sol\":2018:2023  users */\n      0x01\n        /* \"contracts/bank.sol\":2024:2029  uname */\n      dup4\n        /* \"contracts/bank.sol\":2018:2030  users[uname] */\n      mload(0x40)\n      tag_70\n      swap2\n      swap1\n      tag_38\n      jump\t// in\n    tag_70:\n      swap1\n      dup2\n      mstore\n      0x20\n      add\n      mload(0x40)\n      dup1\n      swap2\n      sub\n      swap1\n      keccak256\n        /* \"contracts/bank.sol\":2011:2030  return users[uname] */\n      mload(0x40)\n      dup1\n      0x60\n      add\n      0x40\n      mstore\n      swap1\n      dup2\n      0x00\n      dup3\n      add\n      dup1\n      sload\n      tag_71\n      swap1\n      tag_72\n      jump\t// in\n    tag_71:\n      dup1\n      0x1f\n      add\n      0x20\n      dup1\n      swap2\n      div\n      mul\n      0x20\n      add\n      mload(0x40)\n      swap1\n      dup2\n      add\n      0x40\n      mstore\n      dup1\n      swap3\n      swap2\n      swap1\n      dup2\n      dup2\n      mstore\n      0x20\n      add\n      dup3\n      dup1\n      sload\n      tag_73\n      swap1\n      tag_72\n      jump\t// in\n    tag_73:\n      dup1\n      iszero\n      tag_74\n      jumpi\n      dup1\n      0x1f\n      lt\n      tag_75\n      jumpi\n      0x0100\n      dup1\n      dup4\n      sload\n      div\n      mul\n      dup4\n      mstore\n      swap2\n      0x20\n      add\n      swap2\n      jump(tag_74)\n    tag_75:\n      dup3\n      add\n      swap2\n      swap1\n      0x00\n      mstore\n      keccak256(0x00, 0x20)\n      swap1\n    tag_76:\n      dup2\n      sload\n      dup2\n      mstore\n      swap1\n      0x01\n      add\n      swap1\n      0x20\n      add\n      dup1\n      dup4\n      gt\n      tag_76\n      jumpi\n      dup3\n      swap1\n      sub\n      0x1f\n      and\n      dup3\n      add\n      swap2\n    tag_74:\n      pop\n      pop\n      pop\n      pop\n      pop\n      dup2\n      mstore\n      0x20\n      add\n      0x01\n      dup3\n      add\n      0x00\n      swap1\n      sload\n      swap1\n      0x0100\n      exp\n      swap1\n      div\n      0xffffffffffffffffffffffffffffffffffffffff\n      and\n      0xffffffffffffffffffffffffffffffffffffffff\n      and\n      0xffffffffffffffffffffffffffffffffffffffff\n      and\n      dup2\n      mstore\n      0x20\n      add\n      0x01\n      dup3\n      add\n      0x14\n      swap1\n      sload\n      swap1\n      0x0100\n      exp\n      swap1\n      div\n      0xffffffffffffffff\n      and\n      0xffffffffffffffff\n      and\n      0xffffffffffffffff\n      and\n      dup2\n      mstore\n      pop\n      pop\n      swap2\n      pop\n        /* \"contracts/bank.sol\":1864:2037  function getUserByUsername(string memory uname)... */\n      pop\n      swap2\n      swap1\n      pop\n      jump\t// out\n        /* \"contracts/bank.sol\":2367:2598  function withdraw(address WithdAddr, uint64 WithdAmt)... */\n    tag_35:\n        /* \"contracts/bank.sol\":2455:2464  WithdAddr */\n      dup2\n        /* \"contracts/bank.sol\":1352:1370  ContractAddr(addr) */\n      tag_78\n        /* \"contracts/bank.sol\":1365:1369  addr */\n      dup2\n        /* \"contracts/bank.sol\":1352:1364  ContractAddr */\n      tag_43\n        /* \"contracts/bank.sol\":1352:1370  ContractAddr(addr) */\n      jump\t// in\n    tag_78:\n        /* \"contracts/bank.sol\":1351:1370  !ContractAddr(addr) */\n      iszero\n        /* \"contracts/bank.sol\":1343:1402  require(!ContractAddr(addr), \"This is a contract address!\") */\n      tag_79\n      jumpi\n      mload(0x40)\n      0x08c379a000000000000000000000000000000000000000000000000000000000\n      dup2\n      mstore\n      0x04\n      add\n      tag_80\n      swap1\n      tag_46\n      jump\t// in\n    tag_80:\n      mload(0x40)\n      dup1\n      swap2\n      sub\n      swap1\n      revert\n    tag_79:\n        /* \"contracts/bank.sol\":2538:2546  WithdAmt */\n      dup2\n        /* \"contracts/bank.sol\":958:969  MaxWithdAmt */\n      0x02\n      0x08\n      swap1\n      sload\n      swap1\n      0x0100\n      exp\n      swap1\n      div\n      0xffffffffffffffff\n      and\n        /* \"contracts/bank.sol\":952:969  amt < MaxWithdAmt */\n      0xffffffffffffffff\n      and\n        /* \"contracts/bank.sol\":952:955  amt */\n      dup2\n        /* \"contracts/bank.sol\":952:969  amt < MaxWithdAmt */\n      0xffffffffffffffff\n      and\n      lt\n        /* \"contracts/bank.sol\":948:1200  if (amt < MaxWithdAmt) {... */\n      iszero\n      tag_82\n      jumpi\n        /* \"contracts/bank.sol\":994:1011  Status.Successful */\n      0x02\n        /* \"contracts/bank.sol\":985:991  status */\n      dup1\n      0x10\n        /* \"contracts/bank.sol\":985:1011  status = Status.Successful */\n      0x0100\n      exp\n      dup2\n      sload\n      dup2\n      0xff\n      mul\n      not\n      and\n      swap1\n      dup4\n      0x02\n      dup2\n      gt\n      iszero\n      tag_83\n      jumpi\n      tag_84\n      tag_51\n      jump\t// in\n    tag_84:\n    tag_83:\n      mul\n      or\n      swap1\n      sstore\n      pop\n        /* \"contracts/bank.sol\":1030:1075  DepositWithdrawError(\"Withdrawal Successful\") */\n      0x8ea85ee945a7934462d6233287a7a40596a6c51a9253cf0c75b4004ba17876e5\n      mload(0x40)\n      tag_85\n      swap1\n      tag_86\n      jump\t// in\n    tag_85:\n      mload(0x40)\n      dup1\n      swap2\n      sub\n      swap1\n      log1\n        /* \"contracts/bank.sol\":948:1200  if (amt < MaxWithdAmt) {... */\n      jump(tag_87)\n    tag_82:\n        /* \"contracts/bank.sol\":1115:1128  Status.Failed */\n      0x01\n        /* \"contracts/bank.sol\":1106:1112  status */\n      0x02\n      0x10\n        /* \"contracts/bank.sol\":1106:1128  status = Status.Failed */\n      0x0100\n      exp\n      dup2\n      sload\n      dup2\n      0xff\n      mul\n      not\n      and\n      swap1\n      dup4\n      0x02\n      dup2\n      gt\n      iszero\n      tag_88\n      jumpi\n      tag_89\n      tag_51\n      jump\t// in\n    tag_89:\n    tag_88:\n      mul\n      or\n      swap1\n      sstore\n      pop\n        /* \"contracts/bank.sol\":1147:1188  DepositWithdrawError(\"Withdrawal Failed\") */\n      0x8ea85ee945a7934462d6233287a7a40596a6c51a9253cf0c75b4004ba17876e5\n      mload(0x40)\n      tag_90\n      swap1\n      tag_91\n      jump\t// in\n    tag_90:\n      mload(0x40)\n      dup1\n      swap2\n      sub\n      swap1\n      log1\n        /* \"contracts/bank.sol\":948:1200  if (amt < MaxWithdAmt) {... */\n    tag_87:\n        /* \"contracts/bank.sol\":2583:2591  WithdAmt */\n      dup3\n        /* \"contracts/bank.sol\":2562:2568  record */\n      0x00\n        /* \"contracts/bank.sol\":2562:2579  record[WithdAddr] */\n      dup1\n        /* \"contracts/bank.sol\":2569:2578  WithdAddr */\n      dup7\n        /* \"contracts/bank.sol\":2562:2579  record[WithdAddr] */\n      0xffffffffffffffffffffffffffffffffffffffff\n      and\n      0xffffffffffffffffffffffffffffffffffffffff\n      and\n      dup2\n      mstore\n      0x20\n      add\n      swap1\n      dup2\n      mstore\n      0x20\n      add\n      0x00\n      keccak256\n      0x00\n        /* \"contracts/bank.sol\":2562:2591  record[WithdAddr] -= WithdAmt */\n      dup3\n      dup3\n      dup3\n      swap1\n      sload\n      swap1\n      0x0100\n      exp\n      swap1\n      div\n      0xffffffffffffffff\n      and\n      tag_93\n      swap2\n      swap1\n      tag_94\n      jump\t// in\n    tag_93:\n      swap3\n      pop\n      0x0100\n      exp\n      dup2\n      sload\n      dup2\n      0xffffffffffffffff\n      mul\n      not\n      and\n      swap1\n      dup4\n      0xffffffffffffffff\n      and\n      mul\n      or\n      swap1\n      sstore\n      pop\n        /* \"contracts/bank.sol\":1412:1413  _ */\n      pop\n        /* \"contracts/bank.sol\":2367:2598  function withdraw(address WithdAddr, uint64 WithdAmt)... */\n      pop\n      pop\n      pop\n      jump\t// out\n        /* \"contracts/bank.sol\":2657:2768  function ContractAddr(address _addr) internal view returns (bool) {... */\n    tag_43:\n        /* \"contracts/bank.sol\":2717:2721  bool */\n      0x00\n        /* \"contracts/bank.sol\":2760:2761  0 */\n      dup1\n        /* \"contracts/bank.sol\":2740:2745  _addr */\n      dup3\n        /* \"contracts/bank.sol\":2740:2757  _addr.code.length */\n      0xffffffffffffffffffffffffffffffffffffffff\n      and\n      extcodesize\n        /* \"contracts/bank.sol\":2740:2761  _addr.code.length > 0 */\n      gt\n        /* \"contracts/bank.sol\":2733:2761  return _addr.code.length > 0 */\n      swap1\n      pop\n        /* \"contracts/bank.sol\":2657:2768  function ContractAddr(address _addr) internal view returns (bool) {... */\n      swap2\n      swap1\n      pop\n      jump\t// out\n    tag_63:\n      mload(0x40)\n      dup1\n      0x60\n      add\n      0x40\n      mstore\n      dup1\n      0x60\n      dup2\n      mstore\n      0x20\n      add\n      and(0xffffffffffffffffffffffffffffffffffffffff, 0x00)\n      dup2\n      mstore\n      0x20\n      add\n      and(0xffffffffffffffff, 0x00)\n      dup2\n      mstore\n      pop\n      swap1\n      jump\t// out\n        /* \"#utility.yul\":7:82   */\n    tag_96:\n        /* \"#utility.yul\":40:46   */\n      0x00\n        /* \"#utility.yul\":73:75   */\n      0x40\n        /* \"#utility.yul\":67:76   */\n      mload\n        /* \"#utility.yul\":57:76   */\n      swap1\n      pop\n        /* \"#utility.yul\":7:82   */\n      swap1\n      jump\t// out\n        /* \"#utility.yul\":88:205   */\n    tag_97:\n        /* \"#utility.yul\":197:198   */\n      0x00\n        /* \"#utility.yul\":194:195   */\n      dup1\n        /* \"#utility.yul\":187:199   */\n      revert\n        /* \"#utility.yul\":211:328   */\n    tag_98:\n        /* \"#utility.yul\":320:321   */\n      0x00\n        /* \"#utility.yul\":317:318   */\n      dup1\n        /* \"#utility.yul\":310:322   */\n      revert\n        /* \"#utility.yul\":334:451   */\n    tag_99:\n        /* \"#utility.yul\":443:444   */\n      0x00\n        /* \"#utility.yul\":440:441   */\n      dup1\n        /* \"#utility.yul\":433:445   */\n      revert\n        /* \"#utility.yul\":457:574   */\n    tag_100:\n        /* \"#utility.yul\":566:567   */\n      0x00\n        /* \"#utility.yul\":563:564   */\n      dup1\n        /* \"#utility.yul\":556:568   */\n      revert\n        /* \"#utility.yul\":580:682   */\n    tag_101:\n        /* \"#utility.yul\":621:627   */\n      0x00\n        /* \"#utility.yul\":672:674   */\n      0x1f\n        /* \"#utility.yul\":668:675   */\n      not\n        /* \"#utility.yul\":663:665   */\n      0x1f\n        /* \"#utility.yul\":656:661   */\n      dup4\n        /* \"#utility.yul\":652:666   */\n      add\n        /* \"#utility.yul\":648:676   */\n      and\n        /* \"#utility.yul\":638:676   */\n      swap1\n      pop\n        /* \"#utility.yul\":580:682   */\n      swap2\n      swap1\n      pop\n      jump\t// out\n        /* \"#utility.yul\":688:868   */\n    tag_102:\n        /* \"#utility.yul\":736:813   */\n      0x4e487b7100000000000000000000000000000000000000000000000000000000\n        /* \"#utility.yul\":733:734   */\n      0x00\n        /* \"#utility.yul\":726:814   */\n      mstore\n        /* \"#utility.yul\":833:837   */\n      0x41\n        /* \"#utility.yul\":830:831   */\n      0x04\n        /* \"#utility.yul\":823:838   */\n      mstore\n        /* \"#utility.yul\":857:861   */\n      0x24\n        /* \"#utility.yul\":854:855   */\n      0x00\n        /* \"#utility.yul\":847:862   */\n      revert\n        /* \"#utility.yul\":874:1155   */\n    tag_103:\n        /* \"#utility.yul\":957:984   */\n      tag_170\n        /* \"#utility.yul\":979:983   */\n      dup3\n        /* \"#utility.yul\":957:984   */\n      tag_101\n      jump\t// in\n    tag_170:\n        /* \"#utility.yul\":949:955   */\n      dup2\n        /* \"#utility.yul\":945:985   */\n      add\n        /* \"#utility.yul\":1087:1093   */\n      dup2\n        /* \"#utility.yul\":1075:1085   */\n      dup2\n        /* \"#utility.yul\":1072:1094   */\n      lt\n        /* \"#utility.yul\":1051:1069   */\n      0xffffffffffffffff\n        /* \"#utility.yul\":1039:1049   */\n      dup3\n        /* \"#utility.yul\":1036:1070   */\n      gt\n        /* \"#utility.yul\":1033:1095   */\n      or\n        /* \"#utility.yul\":1030:1118   */\n      iszero\n      tag_171\n      jumpi\n        /* \"#utility.yul\":1098:1116   */\n      tag_172\n      tag_102\n      jump\t// in\n    tag_172:\n        /* \"#utility.yul\":1030:1118   */\n    tag_171:\n        /* \"#utility.yul\":1138:1148   */\n      dup1\n        /* \"#utility.yul\":1134:1136   */\n      0x40\n        /* \"#utility.yul\":1127:1149   */\n      mstore\n        /* \"#utility.yul\":917:1155   */\n      pop\n        /* \"#utility.yul\":874:1155   */\n      pop\n      pop\n      jump\t// out\n        /* \"#utility.yul\":1161:1290   */\n    tag_104:\n        /* \"#utility.yul\":1195:1201   */\n      0x00\n        /* \"#utility.yul\":1222:1242   */\n      tag_174\n      tag_96\n      jump\t// in\n    tag_174:\n        /* \"#utility.yul\":1212:1242   */\n      swap1\n      pop\n        /* \"#utility.yul\":1251:1284   */\n      tag_175\n        /* \"#utility.yul\":1279:1283   */\n      dup3\n        /* \"#utility.yul\":1271:1277   */\n      dup3\n        /* \"#utility.yul\":1251:1284   */\n      tag_103\n      jump\t// in\n    tag_175:\n        /* \"#utility.yul\":1161:1290   */\n      swap2\n      swap1\n      pop\n      jump\t// out\n        /* \"#utility.yul\":1296:1604   */\n    tag_105:\n        /* \"#utility.yul\":1358:1362   */\n      0x00\n        /* \"#utility.yul\":1448:1466   */\n      0xffffffffffffffff\n        /* \"#utility.yul\":1440:1446   */\n      dup3\n        /* \"#utility.yul\":1437:1467   */\n      gt\n        /* \"#utility.yul\":1434:1490   */\n      iszero\n      tag_177\n      jumpi\n        /* \"#utility.yul\":1470:1488   */\n      tag_178\n      tag_102\n      jump\t// in\n    tag_178:\n        /* \"#utility.yul\":1434:1490   */\n    tag_177:\n        /* \"#utility.yul\":1508:1537   */\n      tag_179\n        /* \"#utility.yul\":1530:1536   */\n      dup3\n        /* \"#utility.yul\":1508:1537   */\n      tag_101\n      jump\t// in\n    tag_179:\n        /* \"#utility.yul\":1500:1537   */\n      swap1\n      pop\n        /* \"#utility.yul\":1592:1596   */\n      0x20\n        /* \"#utility.yul\":1586:1590   */\n      dup2\n        /* \"#utility.yul\":1582:1597   */\n      add\n        /* \"#utility.yul\":1574:1597   */\n      swap1\n      pop\n        /* \"#utility.yul\":1296:1604   */\n      swap2\n      swap1\n      pop\n      jump\t// out\n        /* \"#utility.yul\":1610:1758   */\n    tag_106:\n        /* \"#utility.yul\":1708:1714   */\n      dup3\n        /* \"#utility.yul\":1703:1706   */\n      dup2\n        /* \"#utility.yul\":1698:1701   */\n      dup4\n        /* \"#utility.yul\":1685:1715   */\n      calldatacopy\n        /* \"#utility.yul\":1749:1750   */\n      0x00\n        /* \"#utility.yul\":1740:1746   */\n      dup4\n        /* \"#utility.yul\":1735:1738   */\n      dup4\n        /* \"#utility.yul\":1731:1747   */\n      add\n        /* \"#utility.yul\":1724:1751   */\n      mstore\n        /* \"#utility.yul\":1610:1758   */\n      pop\n      pop\n      pop\n      jump\t// out\n        /* \"#utility.yul\":1764:2189   */\n    tag_107:\n        /* \"#utility.yul\":1842:1847   */\n      0x00\n        /* \"#utility.yul\":1867:1933   */\n      tag_182\n        /* \"#utility.yul\":1883:1932   */\n      tag_183\n        /* \"#utility.yul\":1925:1931   */\n      dup5\n        /* \"#utility.yul\":1883:1932   */\n      tag_105\n      jump\t// in\n    tag_183:\n        /* \"#utility.yul\":1867:1933   */\n      tag_104\n      jump\t// in\n    tag_182:\n        /* \"#utility.yul\":1858:1933   */\n      swap1\n      pop\n        /* \"#utility.yul\":1956:1962   */\n      dup3\n        /* \"#utility.yul\":1949:1954   */\n      dup2\n        /* \"#utility.yul\":1942:1963   */\n      mstore\n        /* \"#utility.yul\":1994:1998   */\n      0x20\n        /* \"#utility.yul\":1987:1992   */\n      dup2\n        /* \"#utility.yul\":1983:1999   */\n      add\n        /* \"#utility.yul\":2032:2035   */\n      dup5\n        /* \"#utility.yul\":2023:2029   */\n      dup5\n        /* \"#utility.yul\":2018:2021   */\n      dup5\n        /* \"#utility.yul\":2014:2030   */\n      add\n        /* \"#utility.yul\":2011:2036   */\n      gt\n        /* \"#utility.yul\":2008:2120   */\n      iszero\n      tag_184\n      jumpi\n        /* \"#utility.yul\":2039:2118   */\n      tag_185\n      tag_100\n      jump\t// in\n    tag_185:\n        /* \"#utility.yul\":2008:2120   */\n    tag_184:\n        /* \"#utility.yul\":2129:2183   */\n      tag_186\n        /* \"#utility.yul\":2176:2182   */\n      dup5\n        /* \"#utility.yul\":2171:2174   */\n      dup3\n        /* \"#utility.yul\":2166:2169   */\n      dup6\n        /* \"#utility.yul\":2129:2183   */\n      tag_106\n      jump\t// in\n    tag_186:\n        /* \"#utility.yul\":1848:2189   */\n      pop\n        /* \"#utility.yul\":1764:2189   */\n      swap4\n      swap3\n      pop\n      pop\n      pop\n      jump\t// out\n        /* \"#utility.yul\":2209:2549   */\n    tag_108:\n        /* \"#utility.yul\":2265:2270   */\n      0x00\n        /* \"#utility.yul\":2314:2317   */\n      dup3\n        /* \"#utility.yul\":2307:2311   */\n      0x1f\n        /* \"#utility.yul\":2299:2305   */\n      dup4\n        /* \"#utility.yul\":2295:2312   */\n      add\n        /* \"#utility.yul\":2291:2318   */\n      slt\n        /* \"#utility.yul\":2281:2403   */\n      tag_188\n      jumpi\n        /* \"#utility.yul\":2322:2401   */\n      tag_189\n      tag_99\n      jump\t// in\n    tag_189:\n        /* \"#utility.yul\":2281:2403   */\n    tag_188:\n        /* \"#utility.yul\":2439:2445   */\n      dup2\n        /* \"#utility.yul\":2426:2446   */\n      calldataload\n        /* \"#utility.yul\":2464:2543   */\n      tag_190\n        /* \"#utility.yul\":2539:2542   */\n      dup5\n        /* \"#utility.yul\":2531:2537   */\n      dup3\n        /* \"#utility.yul\":2524:2528   */\n      0x20\n        /* \"#utility.yul\":2516:2522   */\n      dup7\n        /* \"#utility.yul\":2512:2529   */\n      add\n        /* \"#utility.yul\":2464:2543   */\n      tag_107\n      jump\t// in\n    tag_190:\n        /* \"#utility.yul\":2455:2543   */\n      swap2\n      pop\n        /* \"#utility.yul\":2271:2549   */\n      pop\n        /* \"#utility.yul\":2209:2549   */\n      swap3\n      swap2\n      pop\n      pop\n      jump\t// out\n        /* \"#utility.yul\":2555:2681   */\n    tag_109:\n        /* \"#utility.yul\":2592:2599   */\n      0x00\n        /* \"#utility.yul\":2632:2674   */\n      0xffffffffffffffffffffffffffffffffffffffff\n        /* \"#utility.yul\":2625:2630   */\n      dup3\n        /* \"#utility.yul\":2621:2675   */\n      and\n        /* \"#utility.yul\":2610:2675   */\n      swap1\n      pop\n        /* \"#utility.yul\":2555:2681   */\n      swap2\n      swap1\n      pop\n      jump\t// out\n        /* \"#utility.yul\":2687:2783   */\n    tag_110:\n        /* \"#utility.yul\":2724:2731   */\n      0x00\n        /* \"#utility.yul\":2753:2777   */\n      tag_193\n        /* \"#utility.yul\":2771:2776   */\n      dup3\n        /* \"#utility.yul\":2753:2777   */\n      tag_109\n      jump\t// in\n    tag_193:\n        /* \"#utility.yul\":2742:2777   */\n      swap1\n      pop\n        /* \"#utility.yul\":2687:2783   */\n      swap2\n      swap1\n      pop\n      jump\t// out\n        /* \"#utility.yul\":2789:2911   */\n    tag_111:\n        /* \"#utility.yul\":2862:2886   */\n      tag_195\n        /* \"#utility.yul\":2880:2885   */\n      dup2\n        /* \"#utility.yul\":2862:2886   */\n      tag_110\n      jump\t// in\n    tag_195:\n        /* \"#utility.yul\":2855:2860   */\n      dup2\n        /* \"#utility.yul\":2852:2887   */\n      eq\n        /* \"#utility.yul\":2842:2905   */\n      tag_196\n      jumpi\n        /* \"#utility.yul\":2901:2902   */\n      0x00\n        /* \"#utility.yul\":2898:2899   */\n      dup1\n        /* \"#utility.yul\":2891:2903   */\n      revert\n        /* \"#utility.yul\":2842:2905   */\n    tag_196:\n        /* \"#utility.yul\":2789:2911   */\n      pop\n      jump\t// out\n        /* \"#utility.yul\":2917:3056   */\n    tag_112:\n        /* \"#utility.yul\":2963:2968   */\n      0x00\n        /* \"#utility.yul\":3001:3007   */\n      dup2\n        /* \"#utility.yul\":2988:3008   */\n      calldataload\n        /* \"#utility.yul\":2979:3008   */\n      swap1\n      pop\n        /* \"#utility.yul\":3017:3050   */\n      tag_198\n        /* \"#utility.yul\":3044:3049   */\n      dup2\n        /* \"#utility.yul\":3017:3050   */\n      tag_111\n      jump\t// in\n    tag_198:\n        /* \"#utility.yul\":2917:3056   */\n      swap3\n      swap2\n      pop\n      pop\n      jump\t// out\n        /* \"#utility.yul\":3062:3163   */\n    tag_113:\n        /* \"#utility.yul\":3098:3105   */\n      0x00\n        /* \"#utility.yul\":3138:3156   */\n      0xffffffffffffffff\n        /* \"#utility.yul\":3131:3136   */\n      dup3\n        /* \"#utility.yul\":3127:3157   */\n      and\n        /* \"#utility.yul\":3116:3157   */\n      swap1\n      pop\n        /* \"#utility.yul\":3062:3163   */\n      swap2\n      swap1\n      pop\n      jump\t// out\n        /* \"#utility.yul\":3169:3289   */\n    tag_114:\n        /* \"#utility.yul\":3241:3264   */\n      tag_201\n        /* \"#utility.yul\":3258:3263   */\n      dup2\n        /* \"#utility.yul\":3241:3264   */\n      tag_113\n      jump\t// in\n    tag_201:\n        /* \"#utility.yul\":3234:3239   */\n      dup2\n        /* \"#utility.yul\":3231:3265   */\n      eq\n        /* \"#utility.yul\":3221:3283   */\n      tag_202\n      jumpi\n        /* \"#utility.yul\":3279:3280   */\n      0x00\n        /* \"#utility.yul\":3276:3277   */\n      dup1\n        /* \"#utility.yul\":3269:3281   */\n      revert\n        /* \"#utility.yul\":3221:3283   */\n    tag_202:\n        /* \"#utility.yul\":3169:3289   */\n      pop\n      jump\t// out\n        /* \"#utility.yul\":3295:3432   */\n    tag_115:\n        /* \"#utility.yul\":3340:3345   */\n      0x00\n        /* \"#utility.yul\":3378:3384   */\n      dup2\n        /* \"#utility.yul\":3365:3385   */\n      calldataload\n        /* \"#utility.yul\":3356:3385   */\n      swap1\n      pop\n        /* \"#utility.yul\":3394:3426   */\n      tag_204\n        /* \"#utility.yul\":3420:3425   */\n      dup2\n        /* \"#utility.yul\":3394:3426   */\n      tag_114\n      jump\t// in\n    tag_204:\n        /* \"#utility.yul\":3295:3432   */\n      swap3\n      swap2\n      pop\n      pop\n      jump\t// out\n        /* \"#utility.yul\":3438:4235   */\n    tag_11:\n        /* \"#utility.yul\":3524:3530   */\n      0x00\n        /* \"#utility.yul\":3532:3538   */\n      dup1\n        /* \"#utility.yul\":3540:3546   */\n      0x00\n        /* \"#utility.yul\":3589:3591   */\n      0x60\n        /* \"#utility.yul\":3577:3586   */\n      dup5\n        /* \"#utility.yul\":3568:3575   */\n      dup7\n        /* \"#utility.yul\":3564:3587   */\n      sub\n        /* \"#utility.yul\":3560:3592   */\n      slt\n        /* \"#utility.yul\":3557:3676   */\n      iszero\n      tag_206\n      jumpi\n        /* \"#utility.yul\":3595:3674   */\n      tag_207\n      tag_97\n      jump\t// in\n    tag_207:\n        /* \"#utility.yul\":3557:3676   */\n    tag_206:\n        /* \"#utility.yul\":3743:3744   */\n      0x00\n        /* \"#utility.yul\":3732:3741   */\n      dup5\n        /* \"#utility.yul\":3728:3745   */\n      add\n        /* \"#utility.yul\":3715:3746   */\n      calldataload\n        /* \"#utility.yul\":3773:3791   */\n      0xffffffffffffffff\n        /* \"#utility.yul\":3765:3771   */\n      dup2\n        /* \"#utility.yul\":3762:3792   */\n      gt\n        /* \"#utility.yul\":3759:3876   */\n      iszero\n      tag_208\n      jumpi\n        /* \"#utility.yul\":3795:3874   */\n      tag_209\n      tag_98\n      jump\t// in\n    tag_209:\n        /* \"#utility.yul\":3759:3876   */\n    tag_208:\n        /* \"#utility.yul\":3900:3963   */\n      tag_210\n        /* \"#utility.yul\":3955:3962   */\n      dup7\n        /* \"#utility.yul\":3946:3952   */\n      dup3\n        /* \"#utility.yul\":3935:3944   */\n      dup8\n        /* \"#utility.yul\":3931:3953   */\n      add\n        /* \"#utility.yul\":3900:3963   */\n      tag_108\n      jump\t// in\n    tag_210:\n        /* \"#utility.yul\":3890:3963   */\n      swap4\n      pop\n        /* \"#utility.yul\":3686:3973   */\n      pop\n        /* \"#utility.yul\":4012:4014   */\n      0x20\n        /* \"#utility.yul\":4038:4091   */\n      tag_211\n        /* \"#utility.yul\":4083:4090   */\n      dup7\n        /* \"#utility.yul\":4074:4080   */\n      dup3\n        /* \"#utility.yul\":4063:4072   */\n      dup8\n        /* \"#utility.yul\":4059:4081   */\n      add\n        /* \"#utility.yul\":4038:4091   */\n      tag_112\n      jump\t// in\n    tag_211:\n        /* \"#utility.yul\":4028:4091   */\n      swap3\n      pop\n        /* \"#utility.yul\":3983:4101   */\n      pop\n        /* \"#utility.yul\":4140:4142   */\n      0x40\n        /* \"#utility.yul\":4166:4218   */\n      tag_212\n        /* \"#utility.yul\":4210:4217   */\n      dup7\n        /* \"#utility.yul\":4201:4207   */\n      dup3\n        /* \"#utility.yul\":4190:4199   */\n      dup8\n        /* \"#utility.yul\":4186:4208   */\n      add\n        /* \"#utility.yul\":4166:4218   */\n      tag_115\n      jump\t// in\n    tag_212:\n        /* \"#utility.yul\":4156:4218   */\n      swap2\n      pop\n        /* \"#utility.yul\":4111:4228   */\n      pop\n        /* \"#utility.yul\":3438:4235   */\n      swap3\n      pop\n      swap3\n      pop\n      swap3\n      jump\t// out\n        /* \"#utility.yul\":4241:4421   */\n    tag_51:\n        /* \"#utility.yul\":4289:4366   */\n      0x4e487b7100000000000000000000000000000000000000000000000000000000\n        /* \"#utility.yul\":4286:4287   */\n      0x00\n        /* \"#utility.yul\":4279:4367   */\n      mstore\n        /* \"#utility.yul\":4386:4390   */\n      0x21\n        /* \"#utility.yul\":4383:4384   */\n      0x04\n        /* \"#utility.yul\":4376:4391   */\n      mstore\n        /* \"#utility.yul\":4410:4414   */\n      0x24\n        /* \"#utility.yul\":4407:4408   */\n      0x00\n        /* \"#utility.yul\":4400:4415   */\n      revert\n        /* \"#utility.yul\":4427:4541   */\n    tag_116:\n        /* \"#utility.yul\":4509:4510   */\n      0x03\n        /* \"#utility.yul\":4502:4507   */\n      dup2\n        /* \"#utility.yul\":4499:4511   */\n      lt\n        /* \"#utility.yul\":4489:4535   */\n      tag_215\n      jumpi\n        /* \"#utility.yul\":4515:4533   */\n      tag_216\n      tag_51\n      jump\t// in\n    tag_216:\n        /* \"#utility.yul\":4489:4535   */\n    tag_215:\n        /* \"#utility.yul\":4427:4541   */\n      pop\n      jump\t// out\n        /* \"#utility.yul\":4547:4676   */\n    tag_117:\n        /* \"#utility.yul\":4593:4600   */\n      0x00\n        /* \"#utility.yul\":4622:4627   */\n      dup2\n        /* \"#utility.yul\":4611:4627   */\n      swap1\n      pop\n        /* \"#utility.yul\":4628:4670   */\n      tag_218\n        /* \"#utility.yul\":4664:4669   */\n      dup3\n        /* \"#utility.yul\":4628:4670   */\n      tag_116\n      jump\t// in\n    tag_218:\n        /* \"#utility.yul\":4547:4676   */\n      swap2\n      swap1\n      pop\n      jump\t// out\n        /* \"#utility.yul\":4682:4811   */\n    tag_118:\n        /* \"#utility.yul\":4739:4748   */\n      0x00\n        /* \"#utility.yul\":4772:4805   */\n      tag_220\n        /* \"#utility.yul\":4799:4804   */\n      dup3\n        /* \"#utility.yul\":4772:4805   */\n      tag_117\n      jump\t// in\n    tag_220:\n        /* \"#utility.yul\":4759:4805   */\n      swap1\n      pop\n        /* \"#utility.yul\":4682:4811   */\n      swap2\n      swap1\n      pop\n      jump\t// out\n        /* \"#utility.yul\":4817:4962   */\n    tag_119:\n        /* \"#utility.yul\":4911:4955   */\n      tag_222\n        /* \"#utility.yul\":4949:4954   */\n      dup2\n        /* \"#utility.yul\":4911:4955   */\n      tag_118\n      jump\t// in\n    tag_222:\n        /* \"#utility.yul\":4906:4909   */\n      dup3\n        /* \"#utility.yul\":4899:4956   */\n      mstore\n        /* \"#utility.yul\":4817:4962   */\n      pop\n      pop\n      jump\t// out\n        /* \"#utility.yul\":4968:5204   */\n    tag_16:\n        /* \"#utility.yul\":5068:5072   */\n      0x00\n        /* \"#utility.yul\":5106:5108   */\n      0x20\n        /* \"#utility.yul\":5095:5104   */\n      dup3\n        /* \"#utility.yul\":5091:5109   */\n      add\n        /* \"#utility.yul\":5083:5109   */\n      swap1\n      pop\n        /* \"#utility.yul\":5119:5197   */\n      tag_224\n        /* \"#utility.yul\":5194:5195   */\n      0x00\n        /* \"#utility.yul\":5183:5192   */\n      dup4\n        /* \"#utility.yul\":5179:5196   */\n      add\n        /* \"#utility.yul\":5170:5176   */\n      dup5\n        /* \"#utility.yul\":5119:5197   */\n      tag_119\n      jump\t// in\n    tag_224:\n        /* \"#utility.yul\":4968:5204   */\n      swap3\n      swap2\n      pop\n      pop\n      jump\t// out\n        /* \"#utility.yul\":5210:5682   */\n    tag_19:\n        /* \"#utility.yul\":5277:5283   */\n      0x00\n        /* \"#utility.yul\":5285:5291   */\n      dup1\n        /* \"#utility.yul\":5334:5336   */\n      0x40\n        /* \"#utility.yul\":5322:5331   */\n      dup4\n        /* \"#utility.yul\":5313:5320   */\n      dup6\n        /* \"#utility.yul\":5309:5332   */\n      sub\n        /* \"#utility.yul\":5305:5337   */\n      slt\n        /* \"#utility.yul\":5302:5421   */\n      iszero\n      tag_226\n      jumpi\n        /* \"#utility.yul\":5340:5419   */\n      tag_227\n      tag_97\n      jump\t// in\n    tag_227:\n        /* \"#utility.yul\":5302:5421   */\n    tag_226:\n        /* \"#utility.yul\":5460:5461   */\n      0x00\n        /* \"#utility.yul\":5485:5538   */\n      tag_228\n        /* \"#utility.yul\":5530:5537   */\n      dup6\n        /* \"#utility.yul\":5521:5527   */\n      dup3\n        /* \"#utility.yul\":5510:5519   */\n      dup7\n        /* \"#utility.yul\":5506:5528   */\n      add\n        /* \"#utility.yul\":5485:5538   */\n      tag_112\n      jump\t// in\n    tag_228:\n        /* \"#utility.yul\":5475:5538   */\n      swap3\n      pop\n        /* \"#utility.yul\":5431:5548   */\n      pop\n        /* \"#utility.yul\":5587:5589   */\n      0x20\n        /* \"#utility.yul\":5613:5665   */\n      tag_229\n        /* \"#utility.yul\":5657:5664   */\n      dup6\n        /* \"#utility.yul\":5648:5654   */\n      dup3\n        /* \"#utility.yul\":5637:5646   */\n      dup7\n        /* \"#utility.yul\":5633:5655   */\n      add\n        /* \"#utility.yul\":5613:5665   */\n      tag_115\n      jump\t// in\n    tag_229:\n        /* \"#utility.yul\":5603:5665   */\n      swap2\n      pop\n        /* \"#utility.yul\":5558:5675   */\n      pop\n        /* \"#utility.yul\":5210:5682   */\n      swap3\n      pop\n      swap3\n      swap1\n      pop\n      jump\t// out\n        /* \"#utility.yul\":5688:6017   */\n    tag_23:\n        /* \"#utility.yul\":5747:5753   */\n      0x00\n        /* \"#utility.yul\":5796:5798   */\n      0x20\n        /* \"#utility.yul\":5784:5793   */\n      dup3\n        /* \"#utility.yul\":5775:5782   */\n      dup5\n        /* \"#utility.yul\":5771:5794   */\n      sub\n        /* \"#utility.yul\":5767:5799   */\n      slt\n        /* \"#utility.yul\":5764:5883   */\n      iszero\n      tag_231\n      jumpi\n        /* \"#utility.yul\":5802:5881   */\n      tag_232\n      tag_97\n      jump\t// in\n    tag_232:\n        /* \"#utility.yul\":5764:5883   */\n    tag_231:\n        /* \"#utility.yul\":5922:5923   */\n      0x00\n        /* \"#utility.yul\":5947:6000   */\n      tag_233\n        /* \"#utility.yul\":5992:5999   */\n      dup5\n        /* \"#utility.yul\":5983:5989   */\n      dup3\n        /* \"#utility.yul\":5972:5981   */\n      dup6\n        /* \"#utility.yul\":5968:5990   */\n      add\n        /* \"#utility.yul\":5947:6000   */\n      tag_112\n      jump\t// in\n    tag_233:\n        /* \"#utility.yul\":5937:6000   */\n      swap2\n      pop\n        /* \"#utility.yul\":5893:6010   */\n      pop\n        /* \"#utility.yul\":5688:6017   */\n      swap3\n      swap2\n      pop\n      pop\n      jump\t// out\n        /* \"#utility.yul\":6023:6138   */\n    tag_120:\n        /* \"#utility.yul\":6108:6131   */\n      tag_235\n        /* \"#utility.yul\":6125:6130   */\n      dup2\n        /* \"#utility.yul\":6108:6131   */\n      tag_113\n      jump\t// in\n    tag_235:\n        /* \"#utility.yul\":6103:6106   */\n      dup3\n        /* \"#utility.yul\":6096:6132   */\n      mstore\n        /* \"#utility.yul\":6023:6138   */\n      pop\n      pop\n      jump\t// out\n        /* \"#utility.yul\":6144:6362   */\n    tag_26:\n        /* \"#utility.yul\":6235:6239   */\n      0x00\n        /* \"#utility.yul\":6273:6275   */\n      0x20\n        /* \"#utility.yul\":6262:6271   */\n      dup3\n        /* \"#utility.yul\":6258:6276   */\n      add\n        /* \"#utility.yul\":6250:6276   */\n      swap1\n      pop\n        /* \"#utility.yul\":6286:6355   */\n      tag_237\n        /* \"#utility.yul\":6352:6353   */\n      0x00\n        /* \"#utility.yul\":6341:6350   */\n      dup4\n        /* \"#utility.yul\":6337:6354   */\n      add\n        /* \"#utility.yul\":6328:6334   */\n      dup5\n        /* \"#utility.yul\":6286:6355   */\n      tag_120\n      jump\t// in\n    tag_237:\n        /* \"#utility.yul\":6144:6362   */\n      swap3\n      swap2\n      pop\n      pop\n      jump\t// out\n        /* \"#utility.yul\":6368:6877   */\n    tag_29:\n        /* \"#utility.yul\":6437:6443   */\n      0x00\n        /* \"#utility.yul\":6486:6488   */\n      0x20\n        /* \"#utility.yul\":6474:6483   */\n      dup3\n        /* \"#utility.yul\":6465:6472   */\n      dup5\n        /* \"#utility.yul\":6461:6484   */\n      sub\n        /* \"#utility.yul\":6457:6489   */\n      slt\n        /* \"#utility.yul\":6454:6573   */\n      iszero\n      tag_239\n      jumpi\n        /* \"#utility.yul\":6492:6571   */\n      tag_240\n      tag_97\n      jump\t// in\n    tag_240:\n        /* \"#utility.yul\":6454:6573   */\n    tag_239:\n        /* \"#utility.yul\":6640:6641   */\n      0x00\n        /* \"#utility.yul\":6629:6638   */\n      dup3\n        /* \"#utility.yul\":6625:6642   */\n      add\n        /* \"#utility.yul\":6612:6643   */\n      calldataload\n        /* \"#utility.yul\":6670:6688   */\n      0xffffffffffffffff\n        /* \"#utility.yul\":6662:6668   */\n      dup2\n        /* \"#utility.yul\":6659:6689   */\n      gt\n        /* \"#utility.yul\":6656:6773   */\n      iszero\n      tag_241\n      jumpi\n        /* \"#utility.yul\":6692:6771   */\n      tag_242\n      tag_98\n      jump\t// in\n    tag_242:\n        /* \"#utility.yul\":6656:6773   */\n    tag_241:\n        /* \"#utility.yul\":6797:6860   */\n      tag_243\n        /* \"#utility.yul\":6852:6859   */\n      dup5\n        /* \"#utility.yul\":6843:6849   */\n      dup3\n        /* \"#utility.yul\":6832:6841   */\n      dup6\n        /* \"#utility.yul\":6828:6850   */\n      add\n        /* \"#utility.yul\":6797:6860   */\n      tag_108\n      jump\t// in\n    tag_243:\n        /* \"#utility.yul\":6787:6860   */\n      swap2\n      pop\n        /* \"#utility.yul\":6583:6870   */\n      pop\n        /* \"#utility.yul\":6368:6877   */\n      swap3\n      swap2\n      pop\n      pop\n      jump\t// out\n        /* \"#utility.yul\":6883:6982   */\n    tag_121:\n        /* \"#utility.yul\":6935:6941   */\n      0x00\n        /* \"#utility.yul\":6969:6974   */\n      dup2\n        /* \"#utility.yul\":6963:6975   */\n      mload\n        /* \"#utility.yul\":6953:6975   */\n      swap1\n      pop\n        /* \"#utility.yul\":6883:6982   */\n      swap2\n      swap1\n      pop\n      jump\t// out\n        /* \"#utility.yul\":6988:7147   */\n    tag_122:\n        /* \"#utility.yul\":7062:7073   */\n      0x00\n        /* \"#utility.yul\":7096:7102   */\n      dup3\n        /* \"#utility.yul\":7091:7094   */\n      dup3\n        /* \"#utility.yul\":7084:7103   */\n      mstore\n        /* \"#utility.yul\":7136:7140   */\n      0x20\n        /* \"#utility.yul\":7131:7134   */\n      dup3\n        /* \"#utility.yul\":7127:7141   */\n      add\n        /* \"#utility.yul\":7112:7141   */\n      swap1\n      pop\n        /* \"#utility.yul\":6988:7147   */\n      swap3\n      swap2\n      pop\n      pop\n      jump\t// out\n        /* \"#utility.yul\":7153:7292   */\n    tag_123:\n        /* \"#utility.yul\":7242:7248   */\n      dup3\n        /* \"#utility.yul\":7237:7240   */\n      dup2\n        /* \"#utility.yul\":7232:7235   */\n      dup4\n        /* \"#utility.yul\":7226:7249   */\n      mcopy\n        /* \"#utility.yul\":7283:7284   */\n      0x00\n        /* \"#utility.yul\":7274:7280   */\n      dup4\n        /* \"#utility.yul\":7269:7272   */\n      dup4\n        /* \"#utility.yul\":7265:7281   */\n      add\n        /* \"#utility.yul\":7258:7285   */\n      mstore\n        /* \"#utility.yul\":7153:7292   */\n      pop\n      pop\n      pop\n      jump\t// out\n        /* \"#utility.yul\":7298:7655   */\n    tag_124:\n        /* \"#utility.yul\":7376:7379   */\n      0x00\n        /* \"#utility.yul\":7404:7443   */\n      tag_248\n        /* \"#utility.yul\":7437:7442   */\n      dup3\n        /* \"#utility.yul\":7404:7443   */\n      tag_121\n      jump\t// in\n    tag_248:\n        /* \"#utility.yul\":7459:7520   */\n      tag_249\n        /* \"#utility.yul\":7513:7519   */\n      dup2\n        /* \"#utility.yul\":7508:7511   */\n      dup6\n        /* \"#utility.yul\":7459:7520   */\n      tag_122\n      jump\t// in\n    tag_249:\n        /* \"#utility.yul\":7452:7520   */\n      swap4\n      pop\n        /* \"#utility.yul\":7529:7594   */\n      tag_250\n        /* \"#utility.yul\":7587:7593   */\n      dup2\n        /* \"#utility.yul\":7582:7585   */\n      dup6\n        /* \"#utility.yul\":7575:7579   */\n      0x20\n        /* \"#utility.yul\":7568:7573   */\n      dup7\n        /* \"#utility.yul\":7564:7580   */\n      add\n        /* \"#utility.yul\":7529:7594   */\n      tag_123\n      jump\t// in\n    tag_250:\n        /* \"#utility.yul\":7619:7648   */\n      tag_251\n        /* \"#utility.yul\":7641:7647   */\n      dup2\n        /* \"#utility.yul\":7619:7648   */\n      tag_101\n      jump\t// in\n    tag_251:\n        /* \"#utility.yul\":7614:7617   */\n      dup5\n        /* \"#utility.yul\":7610:7649   */\n      add\n        /* \"#utility.yul\":7603:7649   */\n      swap2\n      pop\n        /* \"#utility.yul\":7380:7655   */\n      pop\n        /* \"#utility.yul\":7298:7655   */\n      swap3\n      swap2\n      pop\n      pop\n      jump\t// out\n        /* \"#utility.yul\":7661:7769   */\n    tag_125:\n        /* \"#utility.yul\":7738:7762   */\n      tag_253\n        /* \"#utility.yul\":7756:7761   */\n      dup2\n        /* \"#utility.yul\":7738:7762   */\n      tag_110\n      jump\t// in\n    tag_253:\n        /* \"#utility.yul\":7733:7736   */\n      dup3\n        /* \"#utility.yul\":7726:7763   */\n      mstore\n        /* \"#utility.yul\":7661:7769   */\n      pop\n      pop\n      jump\t// out\n        /* \"#utility.yul\":7775:7880   */\n    tag_126:\n        /* \"#utility.yul\":7850:7873   */\n      tag_255\n        /* \"#utility.yul\":7867:7872   */\n      dup2\n        /* \"#utility.yul\":7850:7873   */\n      tag_113\n      jump\t// in\n    tag_255:\n        /* \"#utility.yul\":7845:7848   */\n      dup3\n        /* \"#utility.yul\":7838:7874   */\n      mstore\n        /* \"#utility.yul\":7775:7880   */\n      pop\n      pop\n      jump\t// out\n        /* \"#utility.yul\":7930:8706   */\n    tag_127:\n        /* \"#utility.yul\":8039:8042   */\n      0x00\n        /* \"#utility.yul\":8075:8079   */\n      0x60\n        /* \"#utility.yul\":8070:8073   */\n      dup4\n        /* \"#utility.yul\":8066:8080   */\n      add\n        /* \"#utility.yul\":8163:8167   */\n      0x00\n        /* \"#utility.yul\":8156:8161   */\n      dup4\n        /* \"#utility.yul\":8152:8168   */\n      add\n        /* \"#utility.yul\":8146:8169   */\n      mload\n        /* \"#utility.yul\":8216:8219   */\n      dup5\n        /* \"#utility.yul\":8210:8214   */\n      dup3\n        /* \"#utility.yul\":8206:8220   */\n      sub\n        /* \"#utility.yul\":8199:8203   */\n      0x00\n        /* \"#utility.yul\":8194:8197   */\n      dup7\n        /* \"#utility.yul\":8190:8204   */\n      add\n        /* \"#utility.yul\":8183:8221   */\n      mstore\n        /* \"#utility.yul\":8242:8315   */\n      tag_257\n        /* \"#utility.yul\":8310:8314   */\n      dup3\n        /* \"#utility.yul\":8296:8308   */\n      dup3\n        /* \"#utility.yul\":8242:8315   */\n      tag_124\n      jump\t// in\n    tag_257:\n        /* \"#utility.yul\":8234:8315   */\n      swap2\n      pop\n        /* \"#utility.yul\":8090:8326   */\n      pop\n        /* \"#utility.yul\":8412:8416   */\n      0x20\n        /* \"#utility.yul\":8405:8410   */\n      dup4\n        /* \"#utility.yul\":8401:8417   */\n      add\n        /* \"#utility.yul\":8395:8418   */\n      mload\n        /* \"#utility.yul\":8431:8494   */\n      tag_258\n        /* \"#utility.yul\":8488:8492   */\n      0x20\n        /* \"#utility.yul\":8483:8486   */\n      dup7\n        /* \"#utility.yul\":8479:8493   */\n      add\n        /* \"#utility.yul\":8465:8477   */\n      dup3\n        /* \"#utility.yul\":8431:8494   */\n      tag_125\n      jump\t// in\n    tag_258:\n        /* \"#utility.yul\":8336:8504   */\n      pop\n        /* \"#utility.yul\":8589:8593   */\n      0x40\n        /* \"#utility.yul\":8582:8587   */\n      dup4\n        /* \"#utility.yul\":8578:8594   */\n      add\n        /* \"#utility.yul\":8572:8595   */\n      mload\n        /* \"#utility.yul\":8608:8669   */\n      tag_259\n        /* \"#utility.yul\":8663:8667   */\n      0x40\n        /* \"#utility.yul\":8658:8661   */\n      dup7\n        /* \"#utility.yul\":8654:8668   */\n      add\n        /* \"#utility.yul\":8640:8652   */\n      dup3\n        /* \"#utility.yul\":8608:8669   */\n      tag_126\n      jump\t// in\n    tag_259:\n        /* \"#utility.yul\":8514:8679   */\n      pop\n        /* \"#utility.yul\":8696:8700   */\n      dup1\n        /* \"#utility.yul\":8689:8700   */\n      swap2\n      pop\n        /* \"#utility.yul\":8044:8706   */\n      pop\n        /* \"#utility.yul\":7930:8706   */\n      swap3\n      swap2\n      pop\n      pop\n      jump\t// out\n        /* \"#utility.yul\":8712:9065   */\n    tag_32:\n        /* \"#utility.yul\":8845:8849   */\n      0x00\n        /* \"#utility.yul\":8883:8885   */\n      0x20\n        /* \"#utility.yul\":8872:8881   */\n      dup3\n        /* \"#utility.yul\":8868:8886   */\n      add\n        /* \"#utility.yul\":8860:8886   */\n      swap1\n      pop\n        /* \"#utility.yul\":8932:8941   */\n      dup2\n        /* \"#utility.yul\":8926:8930   */\n      dup2\n        /* \"#utility.yul\":8922:8942   */\n      sub\n        /* \"#utility.yul\":8918:8919   */\n      0x00\n        /* \"#utility.yul\":8907:8916   */\n      dup4\n        /* \"#utility.yul\":8903:8920   */\n      add\n        /* \"#utility.yul\":8896:8943   */\n      mstore\n        /* \"#utility.yul\":8960:9058   */\n      tag_261\n        /* \"#utility.yul\":9053:9057   */\n      dup2\n        /* \"#utility.yul\":9044:9050   */\n      dup5\n        /* \"#utility.yul\":8960:9058   */\n      tag_127\n      jump\t// in\n    tag_261:\n        /* \"#utility.yul\":8952:9058   */\n      swap1\n      pop\n        /* \"#utility.yul\":8712:9065   */\n      swap3\n      swap2\n      pop\n      pop\n      jump\t// out\n        /* \"#utility.yul\":9071:9219   */\n    tag_128:\n        /* \"#utility.yul\":9173:9184   */\n      0x00\n        /* \"#utility.yul\":9210:9213   */\n      dup2\n        /* \"#utility.yul\":9195:9213   */\n      swap1\n      pop\n        /* \"#utility.yul\":9071:9219   */\n      swap3\n      swap2\n      pop\n      pop\n      jump\t// out\n        /* \"#utility.yul\":9225:9615   */\n    tag_129:\n        /* \"#utility.yul\":9331:9334   */\n      0x00\n        /* \"#utility.yul\":9359:9398   */\n      tag_264\n        /* \"#utility.yul\":9392:9397   */\n      dup3\n        /* \"#utility.yul\":9359:9398   */\n      tag_121\n      jump\t// in\n    tag_264:\n        /* \"#utility.yul\":9414:9503   */\n      tag_265\n        /* \"#utility.yul\":9496:9502   */\n      dup2\n        /* \"#utility.yul\":9491:9494   */\n      dup6\n        /* \"#utility.yul\":9414:9503   */\n      tag_128\n      jump\t// in\n    tag_265:\n        /* \"#utility.yul\":9407:9503   */\n      swap4\n      pop\n        /* \"#utility.yul\":9512:9577   */\n      tag_266\n        /* \"#utility.yul\":9570:9576   */\n      dup2\n        /* \"#utility.yul\":9565:9568   */\n      dup6\n        /* \"#utility.yul\":9558:9562   */\n      0x20\n        /* \"#utility.yul\":9551:9556   */\n      dup7\n        /* \"#utility.yul\":9547:9563   */\n      add\n        /* \"#utility.yul\":9512:9577   */\n      tag_123\n      jump\t// in\n    tag_266:\n        /* \"#utility.yul\":9602:9608   */\n      dup1\n        /* \"#utility.yul\":9597:9600   */\n      dup5\n        /* \"#utility.yul\":9593:9609   */\n      add\n        /* \"#utility.yul\":9586:9609   */\n      swap2\n      pop\n        /* \"#utility.yul\":9335:9615   */\n      pop\n        /* \"#utility.yul\":9225:9615   */\n      swap3\n      swap2\n      pop\n      pop\n      jump\t// out\n        /* \"#utility.yul\":9621:9896   */\n    tag_38:\n        /* \"#utility.yul\":9753:9756   */\n      0x00\n        /* \"#utility.yul\":9775:9870   */\n      tag_268\n        /* \"#utility.yul\":9866:9869   */\n      dup3\n        /* \"#utility.yul\":9857:9863   */\n      dup5\n        /* \"#utility.yul\":9775:9870   */\n      tag_129\n      jump\t// in\n    tag_268:\n        /* \"#utility.yul\":9768:9870   */\n      swap2\n      pop\n        /* \"#utility.yul\":9887:9890   */\n      dup2\n        /* \"#utility.yul\":9880:9890   */\n      swap1\n      pop\n        /* \"#utility.yul\":9621:9896   */\n      swap3\n      swap2\n      pop\n      pop\n      jump\t// out\n        /* \"#utility.yul\":9902:10082   */\n    tag_130:\n        /* \"#utility.yul\":9950:10027   */\n      0x4e487b7100000000000000000000000000000000000000000000000000000000\n        /* \"#utility.yul\":9947:9948   */\n      0x00\n        /* \"#utility.yul\":9940:10028   */\n      mstore\n        /* \"#utility.yul\":10047:10051   */\n      0x22\n        /* \"#utility.yul\":10044:10045   */\n      0x04\n        /* \"#utility.yul\":10037:10052   */\n      mstore\n        /* \"#utility.yul\":10071:10075   */\n      0x24\n        /* \"#utility.yul\":10068:10069   */\n      0x00\n        /* \"#utility.yul\":10061:10076   */\n      revert\n        /* \"#utility.yul\":10088:10408   */\n    tag_72:\n        /* \"#utility.yul\":10132:10138   */\n      0x00\n        /* \"#utility.yul\":10169:10170   */\n      0x02\n        /* \"#utility.yul\":10163:10167   */\n      dup3\n        /* \"#utility.yul\":10159:10171   */\n      div\n        /* \"#utility.yul\":10149:10171   */\n      swap1\n      pop\n        /* \"#utility.yul\":10216:10217   */\n      0x01\n        /* \"#utility.yul\":10210:10214   */\n      dup3\n        /* \"#utility.yul\":10206:10218   */\n      and\n        /* \"#utility.yul\":10237:10255   */\n      dup1\n        /* \"#utility.yul\":10227:10308   */\n      tag_271\n      jumpi\n        /* \"#utility.yul\":10293:10297   */\n      0x7f\n        /* \"#utility.yul\":10285:10291   */\n      dup3\n        /* \"#utility.yul\":10281:10298   */\n      and\n        /* \"#utility.yul\":10271:10298   */\n      swap2\n      pop\n        /* \"#utility.yul\":10227:10308   */\n    tag_271:\n        /* \"#utility.yul\":10355:10357   */\n      0x20\n        /* \"#utility.yul\":10347:10353   */\n      dup3\n        /* \"#utility.yul\":10344:10358   */\n      lt\n        /* \"#utility.yul\":10324:10342   */\n      dup2\n        /* \"#utility.yul\":10321:10359   */\n      sub\n        /* \"#utility.yul\":10318:10402   */\n      tag_272\n      jumpi\n        /* \"#utility.yul\":10374:10392   */\n      tag_273\n      tag_130\n      jump\t// in\n    tag_273:\n        /* \"#utility.yul\":10318:10402   */\n    tag_272:\n        /* \"#utility.yul\":10139:10408   */\n      pop\n        /* \"#utility.yul\":10088:10408   */\n      swap2\n      swap1\n      pop\n      jump\t// out\n        /* \"#utility.yul\":10414:10555   */\n    tag_131:\n        /* \"#utility.yul\":10463:10467   */\n      0x00\n        /* \"#utility.yul\":10486:10489   */\n      dup2\n        /* \"#utility.yul\":10478:10489   */\n      swap1\n      pop\n        /* \"#utility.yul\":10509:10512   */\n      dup2\n        /* \"#utility.yul\":10506:10507   */\n      0x00\n        /* \"#utility.yul\":10499:10513   */\n      mstore\n        /* \"#utility.yul\":10543:10547   */\n      0x20\n        /* \"#utility.yul\":10540:10541   */\n      0x00\n        /* \"#utility.yul\":10530:10548   */\n      keccak256\n        /* \"#utility.yul\":10522:10548   */\n      swap1\n      pop\n        /* \"#utility.yul\":10414:10555   */\n      swap2\n      swap1\n      pop\n      jump\t// out\n        /* \"#utility.yul\":10561:10654   */\n    tag_132:\n        /* \"#utility.yul\":10598:10604   */\n      0x00\n        /* \"#utility.yul\":10645:10647   */\n      0x20\n        /* \"#utility.yul\":10640:10642   */\n      0x1f\n        /* \"#utility.yul\":10633:10638   */\n      dup4\n        /* \"#utility.yul\":10629:10643   */\n      add\n        /* \"#utility.yul\":10625:10648   */\n      div\n        /* \"#utility.yul\":10615:10648   */\n      swap1\n      pop\n        /* \"#utility.yul\":10561:10654   */\n      swap2\n      swap1\n      pop\n      jump\t// out\n        /* \"#utility.yul\":10660:10767   */\n    tag_133:\n        /* \"#utility.yul\":10704:10712   */\n      0x00\n        /* \"#utility.yul\":10754:10759   */\n      dup3\n        /* \"#utility.yul\":10748:10752   */\n      dup3\n        /* \"#utility.yul\":10744:10760   */\n      shl\n        /* \"#utility.yul\":10723:10760   */\n      swap1\n      pop\n        /* \"#utility.yul\":10660:10767   */\n      swap3\n      swap2\n      pop\n      pop\n      jump\t// out\n        /* \"#utility.yul\":10773:11166   */\n    tag_134:\n        /* \"#utility.yul\":10842:10848   */\n      0x00\n        /* \"#utility.yul\":10892:10893   */\n      0x08\n        /* \"#utility.yul\":10880:10890   */\n      dup4\n        /* \"#utility.yul\":10876:10894   */\n      mul\n        /* \"#utility.yul\":10915:11012   */\n      tag_278\n        /* \"#utility.yul\":10945:11011   */\n      0xffffffffffffffffffffffffffffffffffffffffffffffffffffffffffffffff\n        /* \"#utility.yul\":10934:10943   */\n      dup3\n        /* \"#utility.yul\":10915:11012   */\n      tag_133\n      jump\t// in\n    tag_278:\n        /* \"#utility.yul\":11033:11072   */\n      tag_279\n        /* \"#utility.yul\":11063:11071   */\n      dup7\n        /* \"#utility.yul\":11052:11061   */\n      dup4\n        /* \"#utility.yul\":11033:11072   */\n      tag_133\n      jump\t// in\n    tag_279:\n        /* \"#utility.yul\":11021:11072   */\n      swap6\n      pop\n        /* \"#utility.yul\":11105:11109   */\n      dup1\n        /* \"#utility.yul\":11101:11110   */\n      not\n        /* \"#utility.yul\":11094:11099   */\n      dup5\n        /* \"#utility.yul\":11090:11111   */\n      and\n        /* \"#utility.yul\":11081:11111   */\n      swap4\n      pop\n        /* \"#utility.yul\":11154:11158   */\n      dup1\n        /* \"#utility.yul\":11144:11152   */\n      dup7\n        /* \"#utility.yul\":11140:11159   */\n      and\n        /* \"#utility.yul\":11133:11138   */\n      dup5\n        /* \"#utility.yul\":11130:11160   */\n      or\n        /* \"#utility.yul\":11120:11160   */\n      swap3\n      pop\n        /* \"#utility.yul\":10849:11166   */\n      pop\n      pop\n        /* \"#utility.yul\":10773:11166   */\n      swap4\n      swap3\n      pop\n      pop\n      pop\n      jump\t// out\n        /* \"#utility.yul\":11172:11249   */\n    tag_135:\n        /* \"#utility.yul\":11209:11216   */\n      0x00\n        /* \"#utility.yul\":11238:11243   */\n      dup2\n        /* \"#utility.yul\":11227:11243   */\n      swap1\n      pop\n        /* \"#utility.yul\":11172:11249   */\n      swap2\n      swap1\n      pop\n      jump\t// out\n        /* \"#utility.yul\":11255:11315   */\n    tag_136:\n        /* \"#utility.yul\":11283:11286   */\n      0x00\n        /* \"#utility.yul\":11304:11309   */\n      dup2\n        /* \"#utility.yul\":11297:11309   */\n      swap1\n      pop\n        /* \"#utility.yul\":11255:11315   */\n      swap2\n      swap1\n      pop\n      jump\t// out\n        /* \"#utility.yul\":11321:11463   */\n    tag_137:\n        /* \"#utility.yul\":11371:11380   */\n      0x00\n        /* \"#utility.yul\":11404:11457   */\n      tag_283\n        /* \"#utility.yul\":11422:11456   */\n      tag_284\n        /* \"#utility.yul\":11431:11455   */\n      tag_285\n        /* \"#utility.yul\":11449:11454   */\n      dup5\n        /* \"#utility.yul\":11431:11455   */\n      tag_135\n      jump\t// in\n    tag_285:\n        /* \"#utility.yul\":11422:11456   */\n      tag_136\n      jump\t// in\n    tag_284:\n        /* \"#utility.yul\":11404:11457   */\n      tag_135\n      jump\t// in\n    tag_283:\n        /* \"#utility.yul\":11391:11457   */\n      swap1\n      pop\n        /* \"#utility.yul\":11321:11463   */\n      swap2\n      swap1\n      pop\n      jump\t// out\n        /* \"#utility.yul\":11469:11544   */\n    tag_138:\n        /* \"#utility.yul\":11512:11515   */\n      0x00\n        /* \"#utility.yul\":11533:11538   */\n      dup2\n        /* \"#utility.yul\":11526:11538   */\n      swap1\n      pop\n        /* \"#utility.yul\":11469:11544   */\n      swap2\n      swap1\n      pop\n      jump\t// out\n        /* \"#utility.yul\":11550:11819   */\n    tag_139:\n        /* \"#utility.yul\":11660:11699   */\n      tag_288\n        /* \"#utility.yul\":11691:11698   */\n      dup4\n        /* \"#utility.yul\":11660:11699   */\n      tag_137\n      jump\t// in\n    tag_288:\n        /* \"#utility.yul\":11721:11812   */\n      tag_289\n        /* \"#utility.yul\":11770:11811   */\n      tag_290\n        /* \"#utility.yul\":11794:11810   */\n      dup3\n        /* \"#utility.yul\":11770:11811   */\n      tag_138\n      jump\t// in\n    tag_290:\n        /* \"#utility.yul\":11762:11768   */\n      dup5\n        /* \"#utility.yul\":11755:11759   */\n      dup5\n        /* \"#utility.yul\":11749:11760   */\n      sload\n        /* \"#utility.yul\":11721:11812   */\n      tag_134\n      jump\t// in\n    tag_289:\n        /* \"#utility.yul\":11715:11719   */\n      dup3\n        /* \"#utility.yul\":11708:11813   */\n      sstore\n        /* \"#utility.yul\":11626:11819   */\n      pop\n        /* \"#utility.yul\":11550:11819   */\n      pop\n      pop\n      pop\n      jump\t// out\n        /* \"#utility.yul\":11825:11898   */\n    tag_140:\n        /* \"#utility.yul\":11870:11873   */\n      0x00\n        /* \"#utility.yul\":11825:11898   */\n      swap1\n      jump\t// out\n        /* \"#utility.yul\":11904:12093   */\n    tag_141:\n        /* \"#utility.yul\":11981:12013   */\n      tag_293\n      tag_140\n      jump\t// in\n    tag_293:\n        /* \"#utility.yul\":12022:12087   */\n      tag_294\n        /* \"#utility.yul\":12080:12086   */\n      dup2\n        /* \"#utility.yul\":12072:12078   */\n      dup5\n        /* \"#utility.yul\":12066:12070   */\n      dup5\n        /* \"#utility.yul\":12022:12087   */\n      tag_139\n      jump\t// in\n    tag_294:\n        /* \"#utility.yul\":11957:12093   */\n      pop\n        /* \"#utility.yul\":11904:12093   */\n      pop\n      pop\n      jump\t// out\n        /* \"#utility.yul\":12099:12285   */\n    tag_142:\n        /* \"#utility.yul\":12159:12279   */\n    tag_296:\n        /* \"#utility.yul\":12176:12179   */\n      dup2\n        /* \"#utility.yul\":12169:12174   */\n      dup2\n        /* \"#utility.yul\":12166:12180   */\n      lt\n        /* \"#utility.yul\":12159:12279   */\n      iszero\n      tag_298\n      jumpi\n        /* \"#utility.yul\":12230:12269   */\n      tag_299\n        /* \"#utility.yul\":12267:12268   */\n      0x00\n        /* \"#utility.yul\":12260:12265   */\n      dup3\n        /* \"#utility.yul\":12230:12269   */\n      tag_141\n      jump\t// in\n    tag_299:\n        /* \"#utility.yul\":12203:12204   */\n      0x01\n        /* \"#utility.yul\":12196:12201   */\n      dup2\n        /* \"#utility.yul\":12192:12205   */\n      add\n        /* \"#utility.yul\":12183:12205   */\n      swap1\n      pop\n        /* \"#utility.yul\":12159:12279   */\n      jump(tag_296)\n    tag_298:\n        /* \"#utility.yul\":12099:12285   */\n      pop\n      pop\n      jump\t// out\n        /* \"#utility.yul\":12291:12834   */\n    tag_143:\n        /* \"#utility.yul\":12392:12394   */\n      0x1f\n        /* \"#utility.yul\":12387:12390   */\n      dup3\n        /* \"#utility.yul\":12384:12395   */\n      gt\n        /* \"#utility.yul\":12381:12827   */\n      iszero\n      tag_301\n      jumpi\n        /* \"#utility.yul\":12426:12464   */\n      tag_302\n        /* \"#utility.yul\":12458:12463   */\n      dup2\n        /* \"#utility.yul\":12426:12464   */\n      tag_131\n      jump\t// in\n    tag_302:\n        /* \"#utility.yul\":12510:12539   */\n      tag_303\n        /* \"#utility.yul\":12528:12538   */\n      dup5\n        /* \"#utility.yul\":12510:12539   */\n      tag_132\n      jump\t// in\n    tag_303:\n        /* \"#utility.yul\":12500:12508   */\n      dup2\n        /* \"#utility.yul\":12496:12540   */\n      add\n        /* \"#utility.yul\":12693:12695   */\n      0x20\n        /* \"#utility.yul\":12681:12691   */\n      dup6\n        /* \"#utility.yul\":12678:12696   */\n      lt\n        /* \"#utility.yul\":12675:12724   */\n      iszero\n      tag_304\n      jumpi\n        /* \"#utility.yul\":12714:12722   */\n      dup2\n        /* \"#utility.yul\":12699:12722   */\n      swap1\n      pop\n        /* \"#utility.yul\":12675:12724   */\n    tag_304:\n        /* \"#utility.yul\":12737:12817   */\n      tag_305\n        /* \"#utility.yul\":12793:12815   */\n      tag_306\n        /* \"#utility.yul\":12811:12814   */\n      dup6\n        /* \"#utility.yul\":12793:12815   */\n      tag_132\n      jump\t// in\n    tag_306:\n        /* \"#utility.yul\":12783:12791   */\n      dup4\n        /* \"#utility.yul\":12779:12816   */\n      add\n        /* \"#utility.yul\":12766:12777   */\n      dup3\n        /* \"#utility.yul\":12737:12817   */\n      tag_142\n      jump\t// in\n    tag_305:\n        /* \"#utility.yul\":12396:12827   */\n      pop\n      pop\n        /* \"#utility.yul\":12381:12827   */\n    tag_301:\n        /* \"#utility.yul\":12291:12834   */\n      pop\n      pop\n      pop\n      jump\t// out\n        /* \"#utility.yul\":12840:12957   */\n    tag_144:\n        /* \"#utility.yul\":12894:12902   */\n      0x00\n        /* \"#utility.yul\":12944:12949   */\n      dup3\n        /* \"#utility.yul\":12938:12942   */\n      dup3\n        /* \"#utility.yul\":12934:12950   */\n      shr\n        /* \"#utility.yul\":12913:12950   */\n      swap1\n      pop\n        /* \"#utility.yul\":12840:12957   */\n      swap3\n      swap2\n      pop\n      pop\n      jump\t// out\n        /* \"#utility.yul\":12963:13132   */\n    tag_145:\n        /* \"#utility.yul\":13007:13013   */\n      0x00\n        /* \"#utility.yul\":13040:13091   */\n      tag_309\n        /* \"#utility.yul\":13088:13089   */\n      0x00\n        /* \"#utility.yul\":13084:13090   */\n      not\n        /* \"#utility.yul\":13076:13081   */\n      dup5\n        /* \"#utility.yul\":13073:13074   */\n      0x08\n        /* \"#utility.yul\":13069:13082   */\n      mul\n        /* \"#utility.yul\":13040:13091   */\n      tag_144\n      jump\t// in\n    tag_309:\n        /* \"#utility.yul\":13036:13092   */\n      not\n        /* \"#utility.yul\":13121:13125   */\n      dup1\n        /* \"#utility.yul\":13115:13119   */\n      dup4\n        /* \"#utility.yul\":13111:13126   */\n      and\n        /* \"#utility.yul\":13101:13126   */\n      swap2\n      pop\n        /* \"#utility.yul\":13014:13132   */\n      pop\n        /* \"#utility.yul\":12963:13132   */\n      swap3\n      swap2\n      pop\n      pop\n      jump\t// out\n        /* \"#utility.yul\":13137:13432   */\n    tag_146:\n        /* \"#utility.yul\":13213:13217   */\n      0x00\n        /* \"#utility.yul\":13359:13388   */\n      tag_311\n        /* \"#utility.yul\":13384:13387   */\n      dup4\n        /* \"#utility.yul\":13378:13382   */\n      dup4\n        /* \"#utility.yul\":13359:13388   */\n      tag_145\n      jump\t// in\n    tag_311:\n        /* \"#utility.yul\":13351:13388   */\n      swap2\n      pop\n        /* \"#utility.yul\":13421:13424   */\n      dup3\n        /* \"#utility.yul\":13418:13419   */\n      0x02\n        /* \"#utility.yul\":13414:13425   */\n      mul\n        /* \"#utility.yul\":13408:13412   */\n      dup3\n        /* \"#utility.yul\":13405:13426   */\n      or\n        /* \"#utility.yul\":13397:13426   */\n      swap1\n      pop\n        /* \"#utility.yul\":13137:13432   */\n      swap3\n      swap2\n      pop\n      pop\n      jump\t// out\n        /* \"#utility.yul\":13437:14832   */\n    tag_40:\n        /* \"#utility.yul\":13554:13591   */\n      tag_313\n        /* \"#utility.yul\":13587:13590   */\n      dup3\n        /* \"#utility.yul\":13554:13591   */\n      tag_121\n      jump\t// in\n    tag_313:\n        /* \"#utility.yul\":13656:13674   */\n      0xffffffffffffffff\n        /* \"#utility.yul\":13648:13654   */\n      dup2\n        /* \"#utility.yul\":13645:13675   */\n      gt\n        /* \"#utility.yul\":13642:13698   */\n      iszero\n      tag_314\n      jumpi\n        /* \"#utility.yul\":13678:13696   */\n      tag_315\n      tag_102\n      jump\t// in\n    tag_315:\n        /* \"#utility.yul\":13642:13698   */\n    tag_314:\n        /* \"#utility.yul\":13722:13760   */\n      tag_316\n        /* \"#utility.yul\":13754:13758   */\n      dup3\n        /* \"#utility.yul\":13748:13759   */\n      sload\n        /* \"#utility.yul\":13722:13760   */\n      tag_72\n      jump\t// in\n    tag_316:\n        /* \"#utility.yul\":13807:13874   */\n      tag_317\n        /* \"#utility.yul\":13867:13873   */\n      dup3\n        /* \"#utility.yul\":13859:13865   */\n      dup3\n        /* \"#utility.yul\":13853:13857   */\n      dup6\n        /* \"#utility.yul\":13807:13874   */\n      tag_143\n      jump\t// in\n    tag_317:\n        /* \"#utility.yul\":13901:13902   */\n      0x00\n        /* \"#utility.yul\":13925:13929   */\n      0x20\n        /* \"#utility.yul\":13912:13929   */\n      swap1\n      pop\n        /* \"#utility.yul\":13957:13959   */\n      0x1f\n        /* \"#utility.yul\":13949:13955   */\n      dup4\n        /* \"#utility.yul\":13946:13960   */\n      gt\n        /* \"#utility.yul\":13974:13975   */\n      0x01\n        /* \"#utility.yul\":13969:14587   */\n      dup2\n      eq\n      tag_319\n      jumpi\n        /* \"#utility.yul\":14631:14632   */\n      0x00\n        /* \"#utility.yul\":14648:14654   */\n      dup5\n        /* \"#utility.yul\":14645:14722   */\n      iszero\n      tag_320\n      jumpi\n        /* \"#utility.yul\":14697:14706   */\n      dup3\n        /* \"#utility.yul\":14692:14695   */\n      dup8\n        /* \"#utility.yul\":14688:14707   */\n      add\n        /* \"#utility.yul\":14682:14708   */\n      mload\n        /* \"#utility.yul\":14673:14708   */\n      swap1\n      pop\n        /* \"#utility.yul\":14645:14722   */\n    tag_320:\n        /* \"#utility.yul\":14748:14815   */\n      tag_321\n        /* \"#utility.yul\":14808:14814   */\n      dup6\n        /* \"#utility.yul\":14801:14806   */\n      dup3\n        /* \"#utility.yul\":14748:14815   */\n      tag_146\n      jump\t// in\n    tag_321:\n        /* \"#utility.yul\":14742:14746   */\n      dup7\n        /* \"#utility.yul\":14735:14816   */\n      sstore\n        /* \"#utility.yul\":14604:14826   */\n      pop\n        /* \"#utility.yul\":13939:14826   */\n      jump(tag_318)\n        /* \"#utility.yul\":13969:14587   */\n    tag_319:\n        /* \"#utility.yul\":14021:14025   */\n      0x1f\n        /* \"#utility.yul\":14017:14026   */\n      not\n        /* \"#utility.yul\":14009:14015   */\n      dup5\n        /* \"#utility.yul\":14005:14027   */\n      and\n        /* \"#utility.yul\":14055:14092   */\n      tag_322\n        /* \"#utility.yul\":14087:14091   */\n      dup7\n        /* \"#utility.yul\":14055:14092   */\n      tag_131\n      jump\t// in\n    tag_322:\n        /* \"#utility.yul\":14114:14115   */\n      0x00\n        /* \"#utility.yul\":14128:14336   */\n    tag_323:\n        /* \"#utility.yul\":14142:14149   */\n      dup3\n        /* \"#utility.yul\":14139:14140   */\n      dup2\n        /* \"#utility.yul\":14136:14150   */\n      lt\n        /* \"#utility.yul\":14128:14336   */\n      iszero\n      tag_325\n      jumpi\n        /* \"#utility.yul\":14221:14230   */\n      dup5\n        /* \"#utility.yul\":14216:14219   */\n      dup10\n        /* \"#utility.yul\":14212:14231   */\n      add\n        /* \"#utility.yul\":14206:14232   */\n      mload\n        /* \"#utility.yul\":14198:14204   */\n      dup3\n        /* \"#utility.yul\":14191:14233   */\n      sstore\n        /* \"#utility.yul\":14272:14273   */\n      0x01\n        /* \"#utility.yul\":14264:14270   */\n      dup3\n        /* \"#utility.yul\":14260:14274   */\n      add\n        /* \"#utility.yul\":14250:14274   */\n      swap2\n      pop\n        /* \"#utility.yul\":14319:14321   */\n      0x20\n        /* \"#utility.yul\":14308:14317   */\n      dup6\n        /* \"#utility.yul\":14304:14322   */\n      add\n        /* \"#utility.yul\":14291:14322   */\n      swap5\n      pop\n        /* \"#utility.yul\":14165:14169   */\n      0x20\n        /* \"#utility.yul\":14162:14163   */\n      dup2\n        /* \"#utility.yul\":14158:14170   */\n      add\n        /* \"#utility.yul\":14153:14170   */\n      swap1\n      pop\n        /* \"#utility.yul\":14128:14336   */\n      jump(tag_323)\n    tag_325:\n        /* \"#utility.yul\":14364:14370   */\n      dup7\n        /* \"#utility.yul\":14355:14362   */\n      dup4\n        /* \"#utility.yul\":14352:14371   */\n      lt\n        /* \"#utility.yul\":14349:14528   */\n      iszero\n      tag_326\n      jumpi\n        /* \"#utility.yul\":14422:14431   */\n      dup5\n        /* \"#utility.yul\":14417:14420   */\n      dup10\n        /* \"#utility.yul\":14413:14432   */\n      add\n        /* \"#utility.yul\":14407:14433   */\n      mload\n        /* \"#utility.yul\":14465:14513   */\n      tag_327\n        /* \"#utility.yul\":14507:14511   */\n      0x1f\n        /* \"#utility.yul\":14499:14505   */\n      dup10\n        /* \"#utility.yul\":14495:14512   */\n      and\n        /* \"#utility.yul\":14484:14493   */\n      dup3\n        /* \"#utility.yul\":14465:14513   */\n      tag_145\n      jump\t// in\n    tag_327:\n        /* \"#utility.yul\":14457:14463   */\n      dup4\n        /* \"#utility.yul\":14450:14514   */\n      sstore\n        /* \"#utility.yul\":14372:14528   */\n      pop\n        /* \"#utility.yul\":14349:14528   */\n    tag_326:\n        /* \"#utility.yul\":14574:14575   */\n      0x01\n        /* \"#utility.yul\":14570:14571   */\n      0x02\n        /* \"#utility.yul\":14562:14568   */\n      dup9\n        /* \"#utility.yul\":14558:14572   */\n      mul\n        /* \"#utility.yul\":14554:14576   */\n      add\n        /* \"#utility.yul\":14548:14552   */\n      dup9\n        /* \"#utility.yul\":14541:14577   */\n      sstore\n        /* \"#utility.yul\":13976:14587   */\n      pop\n      pop\n      pop\n        /* \"#utility.yul\":13939:14826   */\n    tag_318:\n      pop\n        /* \"#utility.yul\":13529:14832   */\n      pop\n      pop\n      pop\n        /* \"#utility.yul\":13437:14832   */\n      pop\n      pop\n      jump\t// out\n        /* \"#utility.yul\":14838:15007   */\n    tag_147:\n        /* \"#utility.yul\":14922:14933   */\n      0x00\n        /* \"#utility.yul\":14956:14962   */\n      dup3\n        /* \"#utility.yul\":14951:14954   */\n      dup3\n        /* \"#utility.yul\":14944:14963   */\n      mstore\n        /* \"#utility.yul\":14996:15000   */\n      0x20\n        /* \"#utility.yul\":14991:14994   */\n      dup3\n        /* \"#utility.yul\":14987:15001   */\n      add\n        /* \"#utility.yul\":14972:15001   */\n      swap1\n      pop\n        /* \"#utility.yul\":14838:15007   */\n      swap3\n      swap2\n      pop\n      pop\n      jump\t// out\n        /* \"#utility.yul\":15013:15190   */\n    tag_148:\n        /* \"#utility.yul\":15153:15182   */\n      0x54686973206973206120636f6e74726163742061646472657373210000000000\n        /* \"#utility.yul\":15149:15150   */\n      0x00\n        /* \"#utility.yul\":15141:15147   */\n      dup3\n        /* \"#utility.yul\":15137:15151   */\n      add\n        /* \"#utility.yul\":15130:15183   */\n      mstore\n        /* \"#utility.yul\":15013:15190   */\n      pop\n      jump\t// out\n        /* \"#utility.yul\":15196:15562   */\n    tag_149:\n        /* \"#utility.yul\":15338:15341   */\n      0x00\n        /* \"#utility.yul\":15359:15426   */\n      tag_331\n        /* \"#utility.yul\":15423:15425   */\n      0x1b\n        /* \"#utility.yul\":15418:15421   */\n      dup4\n        /* \"#utility.yul\":15359:15426   */\n      tag_147\n      jump\t// in\n    tag_331:\n        /* \"#utility.yul\":15352:15426   */\n      swap2\n      pop\n        /* \"#utility.yul\":15435:15528   */\n      tag_332\n        /* \"#utility.yul\":15524:15527   */\n      dup3\n        /* \"#utility.yul\":15435:15528   */\n      tag_148\n      jump\t// in\n    tag_332:\n        /* \"#utility.yul\":15553:15555   */\n      0x20\n        /* \"#utility.yul\":15548:15551   */\n      dup3\n        /* \"#utility.yul\":15544:15556   */\n      add\n        /* \"#utility.yul\":15537:15556   */\n      swap1\n      pop\n        /* \"#utility.yul\":15196:15562   */\n      swap2\n      swap1\n      pop\n      jump\t// out\n        /* \"#utility.yul\":15568:15987   */\n    tag_46:\n        /* \"#utility.yul\":15734:15738   */\n      0x00\n        /* \"#utility.yul\":15772:15774   */\n      0x20\n        /* \"#utility.yul\":15761:15770   */\n      dup3\n        /* \"#utility.yul\":15757:15775   */\n      add\n        /* \"#utility.yul\":15749:15775   */\n      swap1\n      pop\n        /* \"#utility.yul\":15821:15830   */\n      dup2\n        /* \"#utility.yul\":15815:15819   */\n      dup2\n        /* \"#utility.yul\":15811:15831   */\n      sub\n        /* \"#utility.yul\":15807:15808   */\n      0x00\n        /* \"#utility.yul\":15796:15805   */\n      dup4\n        /* \"#utility.yul\":15792:15809   */\n      add\n        /* \"#utility.yul\":15785:15832   */\n      mstore\n        /* \"#utility.yul\":15849:15980   */\n      tag_334\n        /* \"#utility.yul\":15975:15979   */\n      dup2\n        /* \"#utility.yul\":15849:15980   */\n      tag_149\n      jump\t// in\n    tag_334:\n        /* \"#utility.yul\":15841:15980   */\n      swap1\n      pop\n        /* \"#utility.yul\":15568:15987   */\n      swap2\n      swap1\n      pop\n      jump\t// out\n        /* \"#utility.yul\":15993:16161   */\n    tag_150:\n        /* \"#utility.yul\":16133:16153   */\n      0x4465706f7369742053756363657366756c6c0000000000000000000000000000\n        /* \"#utility.yul\":16129:16130   */\n      0x00\n        /* \"#utility.yul\":16121:16127   */\n      dup3\n        /* \"#utility.yul\":16117:16131   */\n      add\n        /* \"#utility.yul\":16110:16154   */\n      mstore\n        /* \"#utility.yul\":15993:16161   */\n      pop\n      jump\t// out\n        /* \"#utility.yul\":16167:16533   */\n    tag_151:\n        /* \"#utility.yul\":16309:16312   */\n      0x00\n        /* \"#utility.yul\":16330:16397   */\n      tag_337\n        /* \"#utility.yul\":16394:16396   */\n      0x12\n        /* \"#utility.yul\":16389:16392   */\n      dup4\n        /* \"#utility.yul\":16330:16397   */\n      tag_147\n      jump\t// in\n    tag_337:\n        /* \"#utility.yul\":16323:16397   */\n      swap2\n      pop\n        /* \"#utility.yul\":16406:16499   */\n      tag_338\n        /* \"#utility.yul\":16495:16498   */\n      dup3\n        /* \"#utility.yul\":16406:16499   */\n      tag_150\n      jump\t// in\n    tag_338:\n        /* \"#utility.yul\":16524:16526   */\n      0x20\n        /* \"#utility.yul\":16519:16522   */\n      dup3\n        /* \"#utility.yul\":16515:16527   */\n      add\n        /* \"#utility.yul\":16508:16527   */\n      swap1\n      pop\n        /* \"#utility.yul\":16167:16533   */\n      swap2\n      swap1\n      pop\n      jump\t// out\n        /* \"#utility.yul\":16539:16958   */\n    tag_53:\n        /* \"#utility.yul\":16705:16709   */\n      0x00\n        /* \"#utility.yul\":16743:16745   */\n      0x20\n        /* \"#utility.yul\":16732:16741   */\n      dup3\n        /* \"#utility.yul\":16728:16746   */\n      add\n        /* \"#utility.yul\":16720:16746   */\n      swap1\n      pop\n        /* \"#utility.yul\":16792:16801   */\n      dup2\n        /* \"#utility.yul\":16786:16790   */\n      dup2\n        /* \"#utility.yul\":16782:16802   */\n      sub\n        /* \"#utility.yul\":16778:16779   */\n      0x00\n        /* \"#utility.yul\":16767:16776   */\n      dup4\n        /* \"#utility.yul\":16763:16780   */\n      add\n        /* \"#utility.yul\":16756:16803   */\n      mstore\n        /* \"#utility.yul\":16820:16951   */\n      tag_340\n        /* \"#utility.yul\":16946:16950   */\n      dup2\n        /* \"#utility.yul\":16820:16951   */\n      tag_151\n      jump\t// in\n    tag_340:\n        /* \"#utility.yul\":16812:16951   */\n      swap1\n      pop\n        /* \"#utility.yul\":16539:16958   */\n      swap2\n      swap1\n      pop\n      jump\t// out\n        /* \"#utility.yul\":16964:17128   */\n    tag_152:\n        /* \"#utility.yul\":17104:17120   */\n      0x4465706f736974204661696c6564000000000000000000000000000000000000\n        /* \"#utility.yul\":17100:17101   */\n      0x00\n        /* \"#utility.yul\":17092:17098   */\n      dup3\n        /* \"#utility.yul\":17088:17102   */\n      add\n        /* \"#utility.yul\":17081:17121   */\n      mstore\n        /* \"#utility.yul\":16964:17128   */\n      pop\n      jump\t// out\n        /* \"#utility.yul\":17134:17500   */\n    tag_153:\n        /* \"#utility.yul\":17276:17279   */\n      0x00\n        /* \"#utility.yul\":17297:17364   */\n      tag_343\n        /* \"#utility.yul\":17361:17363   */\n      0x0e\n        /* \"#utility.yul\":17356:17359   */\n      dup4\n        /* \"#utility.yul\":17297:17364   */\n      tag_147\n      jump\t// in\n    tag_343:\n        /* \"#utility.yul\":17290:17364   */\n      swap2\n      pop\n        /* \"#utility.yul\":17373:17466   */\n      tag_344\n        /* \"#utility.yul\":17462:17465   */\n      dup3\n        /* \"#utility.yul\":17373:17466   */\n      tag_152\n      jump\t// in\n    tag_344:\n        /* \"#utility.yul\":17491:17493   */\n      0x20\n        /* \"#utility.yul\":17486:17489   */\n      dup3\n        /* \"#utility.yul\":17482:17494   */\n      add\n        /* \"#utility.yul\":17475:17494   */\n      swap1\n      pop\n        /* \"#utility.yul\":17134:17500   */\n      swap2\n      swap1\n      pop\n      jump\t// out\n        /* \"#utility.yul\":17506:17925   */\n    tag_58:\n        /* \"#utility.yul\":17672:17676   */\n      0x00\n        /* \"#utility.yul\":17710:17712   */\n      0x20\n        /* \"#utility.yul\":17699:17708   */\n      dup3\n        /* \"#utility.yul\":17695:17713   */\n      add\n        /* \"#utility.yul\":17687:17713   */\n      swap1\n      pop\n        /* \"#utility.yul\":17759:17768   */\n      dup2\n        /* \"#utility.yul\":17753:17757   */\n      dup2\n        /* \"#utility.yul\":17749:17769   */\n      sub\n        /* \"#utility.yul\":17745:17746   */\n      0x00\n        /* \"#utility.yul\":17734:17743   */\n      dup4\n        /* \"#utility.yul\":17730:17747   */\n      add\n        /* \"#utility.yul\":17723:17770   */\n      mstore\n        /* \"#utility.yul\":17787:17918   */\n      tag_346\n        /* \"#utility.yul\":17913:17917   */\n      dup2\n        /* \"#utility.yul\":17787:17918   */\n      tag_153\n      jump\t// in\n    tag_346:\n        /* \"#utility.yul\":17779:17918   */\n      swap1\n      pop\n        /* \"#utility.yul\":17506:17925   */\n      swap2\n      swap1\n      pop\n      jump\t// out\n        /* \"#utility.yul\":17931:18111   */\n    tag_154:\n        /* \"#utility.yul\":17979:18056   */\n      0x4e487b7100000000000000000000000000000000000000000000000000000000\n        /* \"#utility.yul\":17976:17977   */\n      0x00\n        /* \"#utility.yul\":17969:18057   */\n      mstore\n        /* \"#utility.yul\":18076:18080   */\n      0x11\n        /* \"#utility.yul\":18073:18074   */\n      0x04\n        /* \"#utility.yul\":18066:18081   */\n      mstore\n        /* \"#utility.yul\":18100:18104   */\n      0x24\n        /* \"#utility.yul\":18097:18098   */\n      0x00\n        /* \"#utility.yul\":18090:18105   */\n      revert\n        /* \"#utility.yul\":18117:18322   */\n    tag_61:\n        /* \"#utility.yul\":18156:18159   */\n      0x00\n        /* \"#utility.yul\":18175:18194   */\n      tag_349\n        /* \"#utility.yul\":18192:18193   */\n      dup3\n        /* \"#utility.yul\":18175:18194   */\n      tag_113\n      jump\t// in\n    tag_349:\n        /* \"#utility.yul\":18170:18194   */\n      swap2\n      pop\n        /* \"#utility.yul\":18208:18227   */\n      tag_350\n        /* \"#utility.yul\":18225:18226   */\n      dup4\n        /* \"#utility.yul\":18208:18227   */\n      tag_113\n      jump\t// in\n    tag_350:\n        /* \"#utility.yul\":18203:18227   */\n      swap3\n      pop\n        /* \"#utility.yul\":18250:18251   */\n      dup3\n        /* \"#utility.yul\":18247:18248   */\n      dup3\n        /* \"#utility.yul\":18243:18252   */\n      add\n        /* \"#utility.yul\":18236:18252   */\n      swap1\n      pop\n        /* \"#utility.yul\":18273:18291   */\n      0xffffffffffffffff\n        /* \"#utility.yul\":18268:18271   */\n      dup2\n        /* \"#utility.yul\":18265:18292   */\n      gt\n        /* \"#utility.yul\":18262:18315   */\n      iszero\n      tag_351\n      jumpi\n        /* \"#utility.yul\":18295:18313   */\n      tag_352\n      tag_154\n      jump\t// in\n    tag_352:\n        /* \"#utility.yul\":18262:18315   */\n    tag_351:\n        /* \"#utility.yul\":18117:18322   */\n      swap3\n      swap2\n      pop\n      pop\n      jump\t// out\n        /* \"#utility.yul\":18328:18493   */\n    tag_155:\n        /* \"#utility.yul\":18468:18485   */\n      0x55736572206e6f7420466f756e64210000000000000000000000000000000000\n        /* \"#utility.yul\":18464:18465   */\n      0x00\n        /* \"#utility.yul\":18456:18462   */\n      dup3\n        /* \"#utility.yul\":18452:18466   */\n      add\n        /* \"#utility.yul\":18445:18486   */\n      mstore\n        /* \"#utility.yul\":18328:18493   */\n      pop\n      jump\t// out\n        /* \"#utility.yul\":18499:18865   */\n    tag_156:\n        /* \"#utility.yul\":18641:18644   */\n      0x00\n        /* \"#utility.yul\":18662:18729   */\n      tag_355\n        /* \"#utility.yul\":18726:18728   */\n      0x0f\n        /* \"#utility.yul\":18721:18724   */\n      dup4\n        /* \"#utility.yul\":18662:18729   */\n      tag_147\n      jump\t// in\n    tag_355:\n        /* \"#utility.yul\":18655:18729   */\n      swap2\n      pop\n        /* \"#utility.yul\":18738:18831   */\n      tag_356\n        /* \"#utility.yul\":18827:18830   */\n      dup3\n        /* \"#utility.yul\":18738:18831   */\n      tag_155\n      jump\t// in\n    tag_356:\n        /* \"#utility.yul\":18856:18858   */\n      0x20\n        /* \"#utility.yul\":18851:18854   */\n      dup3\n        /* \"#utility.yul\":18847:18859   */\n      add\n        /* \"#utility.yul\":18840:18859   */\n      swap1\n      pop\n        /* \"#utility.yul\":18499:18865   */\n      swap2\n      swap1\n      pop\n      jump\t// out\n        /* \"#utility.yul\":18871:19290   */\n    tag_68:\n        /* \"#utility.yul\":19037:19041   */\n      0x00\n        /* \"#utility.yul\":19075:19077   */\n      0x20\n        /* \"#utility.yul\":19064:19073   */\n      dup3\n        /* \"#utility.yul\":19060:19078   */\n      add\n        /* \"#utility.yul\":19052:19078   */\n      swap1\n      pop\n        /* \"#utility.yul\":19124:19133   */\n      dup2\n        /* \"#utility.yul\":19118:19122   */\n      dup2\n        /* \"#utility.yul\":19114:19134   */\n      sub\n        /* \"#utility.yul\":19110:19111   */\n      0x00\n        /* \"#utility.yul\":19099:19108   */\n      dup4\n        /* \"#utility.yul\":19095:19112   */\n      add\n        /* \"#utility.yul\":19088:19135   */\n      mstore\n        /* \"#utility.yul\":19152:19283   */\n      tag_358\n        /* \"#utility.yul\":19278:19282   */\n      dup2\n        /* \"#utility.yul\":19152:19283   */\n      tag_156\n      jump\t// in\n    tag_358:\n        /* \"#utility.yul\":19144:19283   */\n      swap1\n      pop\n        /* \"#utility.yul\":18871:19290   */\n      swap2\n      swap1\n      pop\n      jump\t// out\n        /* \"#utility.yul\":19296:19467   */\n    tag_157:\n        /* \"#utility.yul\":19436:19459   */\n      0x5769746864726177616c205375636365737366756c0000000000000000000000\n        /* \"#utility.yul\":19432:19433   */\n      0x00\n        /* \"#utility.yul\":19424:19430   */\n      dup3\n        /* \"#utility.yul\":19420:19434   */\n      add\n        /* \"#utility.yul\":19413:19460   */\n      mstore\n        /* \"#utility.yul\":19296:19467   */\n      pop\n      jump\t// out\n        /* \"#utility.yul\":19473:19839   */\n    tag_158:\n        /* \"#utility.yul\":19615:19618   */\n      0x00\n        /* \"#utility.yul\":19636:19703   */\n      tag_361\n        /* \"#utility.yul\":19700:19702   */\n      0x15\n        /* \"#utility.yul\":19695:19698   */\n      dup4\n        /* \"#utility.yul\":19636:19703   */\n      tag_147\n      jump\t// in\n    tag_361:\n        /* \"#utility.yul\":19629:19703   */\n      swap2\n      pop\n        /* \"#utility.yul\":19712:19805   */\n      tag_362\n        /* \"#utility.yul\":19801:19804   */\n      dup3\n        /* \"#utility.yul\":19712:19805   */\n      tag_157\n      jump\t// in\n    tag_362:\n        /* \"#utility.yul\":19830:19832   */\n      0x20\n        /* \"#utility.yul\":19825:19828   */\n      dup3\n        /* \"#utility.yul\":19821:19833   */\n      add\n        /* \"#utility.yul\":19814:19833   */\n      swap1\n      pop\n        /* \"#utility.yul\":19473:19839   */\n      swap2\n      swap1\n      pop\n      jump\t// out\n        /* \"#utility.yul\":19845:20264   */\n    tag_86:\n        /* \"#utility.yul\":20011:20015   */\n      0x00\n        /* \"#utility.yul\":20049:20051   */\n      0x20\n        /* \"#utility.yul\":20038:20047   */\n      dup3\n        /* \"#utility.yul\":20034:20052   */\n      add\n        /* \"#utility.yul\":20026:20052   */\n      swap1\n      pop\n        /* \"#utility.yul\":20098:20107   */\n      dup2\n        /* \"#utility.yul\":20092:20096   */\n      dup2\n        /* \"#utility.yul\":20088:20108   */\n      sub\n        /* \"#utility.yul\":20084:20085   */\n      0x00\n        /* \"#utility.yul\":20073:20082   */\n      dup4\n        /* \"#utility.yul\":20069:20086   */\n      add\n        /* \"#utility.yul\":20062:20109   */\n      mstore\n        /* \"#utility.yul\":20126:20257   */\n      tag_364\n        /* \"#utility.yul\":20252:20256   */\n      dup2\n        /* \"#utility.yul\":20126:20257   */\n      tag_158\n      jump\t// in\n    tag_364:\n        /* \"#utility.yul\":20118:20257   */\n      swap1\n      pop\n        /* \"#utility.yul\":19845:20264   */\n      swap2\n      swap1\n      pop\n      jump\t// out\n        /* \"#utility.yul\":20270:20437   */\n    tag_159:\n        /* \"#utility.yul\":20410:20429   */\n      0x5769746864726177616c204661696c6564000000000000000000000000000000\n        /* \"#utility.yul\":20406:20407   */\n      0x00\n        /* \"#utility.yul\":20398:20404   */\n      dup3\n        /* \"#utility.yul\":20394:20408   */\n      add\n        /* \"#utility.yul\":20387:20430   */\n      mstore\n        /* \"#utility.yul\":20270:20437   */\n      pop\n      jump\t// out\n        /* \"#utility.yul\":20443:20809   */\n    tag_160:\n        /* \"#utility.yul\":20585:20588   */\n      0x00\n        /* \"#utility.yul\":20606:20673   */\n      tag_367\n        /* \"#utility.yul\":20670:20672   */\n      0x11\n        /* \"#utility.yul\":20665:20668   */\n      dup4\n        /* \"#utility.yul\":20606:20673   */\n      tag_147\n      jump\t// in\n    tag_367:\n        /* \"#utility.yul\":20599:20673   */\n      swap2\n      pop\n        /* \"#utility.yul\":20682:20775   */\n      tag_368\n        /* \"#utility.yul\":20771:20774   */\n      dup3\n        /* \"#utility.yul\":20682:20775   */\n      tag_159\n      jump\t// in\n    tag_368:\n        /* \"#utility.yul\":20800:20802   */\n      0x20\n        /* \"#utility.yul\":20795:20798   */\n      dup3\n        /* \"#utility.yul\":20791:20803   */\n      add\n        /* \"#utility.yul\":20784:20803   */\n      swap1\n      pop\n        /* \"#utility.yul\":20443:20809   */\n      swap2\n      swap1\n      pop\n      jump\t// out\n        /* \"#utility.yul\":20815:21234   */\n    tag_91:\n        /* \"#utility.yul\":20981:20985   */\n      0x00\n        /* \"#utility.yul\":21019:21021   */\n      0x20\n        /* \"#utility.yul\":21008:21017   */\n      dup3\n        /* \"#utility.yul\":21004:21022   */\n      add\n        /* \"#utility.yul\":20996:21022   */\n      swap1\n      pop\n        /* \"#utility.yul\":21068:21077   */\n      dup2\n        /* \"#utility.yul\":21062:21066   */\n      dup2\n        /* \"#utility.yul\":21058:21078   */\n      sub\n        /* \"#utility.yul\":21054:21055   */\n      0x00\n        /* \"#utility.yul\":21043:21052   */\n      dup4\n        /* \"#utility.yul\":21039:21056   */\n      add\n        /* \"#utility.yul\":21032:21079   */\n      mstore\n        /* \"#utility.yul\":21096:21227   */\n      tag_370\n        /* \"#utility.yul\":21222:21226   */\n      dup2\n        /* \"#utility.yul\":21096:21227   */\n      tag_160\n      jump\t// in\n    tag_370:\n        /* \"#utility.yul\":21088:21227   */\n      swap1\n      pop\n        /* \"#utility.yul\":20815:21234   */\n      swap2\n      swap1\n      pop\n      jump\t// out\n        /* \"#utility.yul\":21240:21448   */\n    tag_94:\n        /* \"#utility.yul\":21279:21283   */\n      0x00\n        /* \"#utility.yul\":21299:21318   */\n      tag_372\n        /* \"#utility.yul\":21316:21317   */\n      dup3\n        /* \"#utility.yul\":21299:21318   */\n      tag_113\n      jump\t// in\n    tag_372:\n        /* \"#utility.yul\":21294:21318   */\n      swap2\n      pop\n        /* \"#utility.yul\":21332:21351   */\n      tag_373\n        /* \"#utility.yul\":21349:21350   */\n      dup4\n        /* \"#utility.yul\":21332:21351   */\n      tag_113\n      jump\t// in\n    tag_373:\n        /* \"#utility.yul\":21327:21351   */\n      swap3\n      pop\n        /* \"#utility.yul\":21375:21376   */\n      dup3\n        /* \"#utility.yul\":21372:21373   */\n      dup3\n        /* \"#utility.yul\":21368:21377   */\n      sub\n        /* \"#utility.yul\":21360:21377   */\n      swap1\n      pop\n        /* \"#utility.yul\":21399:21417   */\n      0xffffffffffffffff\n        /* \"#utility.yul\":21393:21397   */\n      dup2\n        /* \"#utility.yul\":21390:21418   */\n      gt\n        /* \"#utility.yul\":21387:21441   */\n      iszero\n      tag_374\n      jumpi\n        /* \"#utility.yul\":21421:21439   */\n      tag_375\n      tag_154\n      jump\t// in\n    tag_375:\n        /* \"#utility.yul\":21387:21441   */\n    tag_374:\n        /* \"#utility.yul\":21240:21448   */\n      swap3\n      swap2\n      pop\n      pop\n      jump\t// out\n\n    auxdata: 0xa26469706673582212200157d5f67f8d60bad4efd87ea92bf47ee58decb8759a149e03504f6513d25a9064736f6c634300081a0033\n}\n",
				"bytecode": {
					"linkReferences": {},
					"object": "608060405265e35fa931a00060025f6101000a81548167ffffffffffffffff021916908367ffffffffffffffff160217905550671bc16d674ec80000600260086101000a81548167ffffffffffffffff021916908367ffffffffffffffff160217905550348015606d575f80fd5b506113668061007b5f395ff3fe608060405234801561000f575f80fd5b5060043610610060575f3560e01c806311a712a014610064578063200d2ed21461008057806329664ac61461009e5780633465d6d5146100ba5780639f42af63146100ea578063d6dad0601461011a575b5f80fd5b61007e60048036038101906100799190610a30565b610136565b005b610088610220565b6040516100959190610b0f565b60405180910390f35b6100b860048036038101906100b39190610b28565b610233565b005b6100d460048036038101906100cf9190610b66565b6103fe565b6040516100e19190610ba0565b60405180910390f35b61010460048036038101906100ff9190610bb9565b610421565b6040516101119190610ccb565b60405180910390f35b610134600480360381019061012f9190610b28565b61061f565b005b60405180606001604052808481526020018373ffffffffffffffffffffffffffffffffffffffff1681526020018267ffffffffffffffff168152506001846040516101819190610d25565b90815260200160405180910390205f820151815f0190816101a29190610f3e565b506020820151816001015f6101000a81548173ffffffffffffffffffffffffffffffffffffffff021916908373ffffffffffffffffffffffffffffffffffffffff16021790555060408201518160010160146101000a81548167ffffffffffffffff021916908367ffffffffffffffff160217905550905050505050565b600260109054906101000a900460ff1681565b8161023d816107eb565b1561027d576040517f08c379a000000000000000000000000000000000000000000000000000000000815260040161027490611067565b60405180910390fd5b8160025f9054906101000a900467ffffffffffffffff1667ffffffffffffffff168167ffffffffffffffff1611156103135760028060106101000a81548160ff021916908360028111156102d4576102d3610a9c565b5b02179055507f8ea85ee945a7934462d6233287a7a40596a6c51a9253cf0c75b4004ba17876e5604051610306906110cf565b60405180910390a1610374565b6001600260106101000a81548160ff0219169083600281111561033957610338610a9c565b5b02179055507f8ea85ee945a7934462d6233287a7a40596a6c51a9253cf0c75b4004ba17876e560405161036b90611137565b60405180910390a15b825f808673ffffffffffffffffffffffffffffffffffffffff1673ffffffffffffffffffffffffffffffffffffffff1681526020019081526020015f205f8282829054906101000a900467ffffffffffffffff166103d29190611182565b92506101000a81548167ffffffffffffffff021916908367ffffffffffffffff16021790555050505050565b5f602052805f5260405f205f915054906101000a900467ffffffffffffffff1681565b61042961080d565b815f73ffffffffffffffffffffffffffffffffffffffff166001826040516104519190610d25565b90815260200160405180910390206001015f9054906101000a900473ffffffffffffffffffffffffffffffffffffffff1673ffffffffffffffffffffffffffffffffffffffff16036104d8576040517f08c379a00000000000000000000000000000000000000000000000000000000081526004016104cf90611207565b60405180910390fd5b6001836040516104e89190610d25565b90815260200160405180910390206040518060600160405290815f8201805461051090610d68565b80601f016020809104026020016040519081016040528092919081815260200182805461053c90610d68565b80156105875780601f1061055e57610100808354040283529160200191610587565b820191905f5260205f20905b81548152906001019060200180831161056a57829003601f168201915b50505050508152602001600182015f9054906101000a900473ffffffffffffffffffffffffffffffffffffffff1673ffffffffffffffffffffffffffffffffffffffff1673ffffffffffffffffffffffffffffffffffffffff1681526020016001820160149054906101000a900467ffffffffffffffff1667ffffffffffffffff1667ffffffffffffffff1681525050915050919050565b81610629816107eb565b15610669576040517f08c379a000000000000000000000000000000000000000000000000000000000815260040161066090611067565b60405180910390fd5b81600260089054906101000a900467ffffffffffffffff1667ffffffffffffffff168167ffffffffffffffff1610156107005760028060106101000a81548160ff021916908360028111156106c1576106c0610a9c565b5b02179055507f8ea85ee945a7934462d6233287a7a40596a6c51a9253cf0c75b4004ba17876e56040516106f39061126f565b60405180910390a1610761565b6001600260106101000a81548160ff0219169083600281111561072657610725610a9c565b5b02179055507f8ea85ee945a7934462d6233287a7a40596a6c51a9253cf0c75b4004ba17876e5604051610758906112d7565b60405180910390a15b825f808673ffffffffffffffffffffffffffffffffffffffff1673ffffffffffffffffffffffffffffffffffffffff1681526020019081526020015f205f8282829054906101000a900467ffffffffffffffff166107bf91906112f5565b92506101000a81548167ffffffffffffffff021916908367ffffffffffffffff16021790555050505050565b5f808273ffffffffffffffffffffffffffffffffffffffff163b119050919050565b6040518060600160405280606081526020015f73ffffffffffffffffffffffffffffffffffffffff1681526020015f67ffffffffffffffff1681525090565b5f604051905090565b5f80fd5b5f80fd5b5f80fd5b5f80fd5b5f601f19601f8301169050919050565b7f4e487b71000000000000000000000000000000000000000000000000000000005f52604160045260245ffd5b6108ab82610865565b810181811067ffffffffffffffff821117156108ca576108c9610875565b5b80604052505050565b5f6108dc61084c565b90506108e882826108a2565b919050565b5f67ffffffffffffffff82111561090757610906610875565b5b61091082610865565b9050602081019050919050565b828183375f83830152505050565b5f61093d610938846108ed565b6108d3565b90508281526020810184848401111561095957610958610861565b5b61096484828561091d565b509392505050565b5f82601f8301126109805761097f61085d565b5b813561099084826020860161092b565b91505092915050565b5f73ffffffffffffffffffffffffffffffffffffffff82169050919050565b5f6109c282610999565b9050919050565b6109d2816109b8565b81146109dc575f80fd5b50565b5f813590506109ed816109c9565b92915050565b5f67ffffffffffffffff82169050919050565b610a0f816109f3565b8114610a19575f80fd5b50565b5f81359050610a2a81610a06565b92915050565b5f805f60608486031215610a4757610a46610855565b5b5f84013567ffffffffffffffff811115610a6457610a63610859565b5b610a708682870161096c565b9350506020610a81868287016109df565b9250506040610a9286828701610a1c565b9150509250925092565b7f4e487b71000000000000000000000000000000000000000000000000000000005f52602160045260245ffd5b60038110610ada57610ad9610a9c565b5b50565b5f819050610aea82610ac9565b919050565b5f610af982610add565b9050919050565b610b0981610aef565b82525050565b5f602082019050610b225f830184610b00565b92915050565b5f8060408385031215610b3e57610b3d610855565b5b5f610b4b858286016109df565b9250506020610b5c85828601610a1c565b9150509250929050565b5f60208284031215610b7b57610b7a610855565b5b5f610b88848285016109df565b91505092915050565b610b9a816109f3565b82525050565b5f602082019050610bb35f830184610b91565b92915050565b5f60208284031215610bce57610bcd610855565b5b5f82013567ffffffffffffffff811115610beb57610bea610859565b5b610bf78482850161096c565b91505092915050565b5f81519050919050565b5f82825260208201905092915050565b8281835e5f83830152505050565b5f610c3282610c00565b610c3c8185610c0a565b9350610c4c818560208601610c1a565b610c5581610865565b840191505092915050565b610c69816109b8565b82525050565b610c78816109f3565b82525050565b5f606083015f8301518482035f860152610c988282610c28565b9150506020830151610cad6020860182610c60565b506040830151610cc06040860182610c6f565b508091505092915050565b5f6020820190508181035f830152610ce38184610c7e565b905092915050565b5f81905092915050565b5f610cff82610c00565b610d098185610ceb565b9350610d19818560208601610c1a565b80840191505092915050565b5f610d308284610cf5565b915081905092915050565b7f4e487b71000000000000000000000000000000000000000000000000000000005f52602260045260245ffd5b5f6002820490506001821680610d7f57607f821691505b602082108103610d9257610d91610d3b565b5b50919050565b5f819050815f5260205f209050919050565b5f6020601f8301049050919050565b5f82821b905092915050565b5f60088302610df47fffffffffffffffffffffffffffffffffffffffffffffffffffffffffffffffff82610db9565b610dfe8683610db9565b95508019841693508086168417925050509392505050565b5f819050919050565b5f819050919050565b5f610e42610e3d610e3884610e16565b610e1f565b610e16565b9050919050565b5f819050919050565b610e5b83610e28565b610e6f610e6782610e49565b848454610dc5565b825550505050565b5f90565b610e83610e77565b610e8e818484610e52565b505050565b5b81811015610eb157610ea65f82610e7b565b600181019050610e94565b5050565b601f821115610ef657610ec781610d98565b610ed084610daa565b81016020851015610edf578190505b610ef3610eeb85610daa565b830182610e93565b50505b505050565b5f82821c905092915050565b5f610f165f1984600802610efb565b1980831691505092915050565b5f610f2e8383610f07565b9150826002028217905092915050565b610f4782610c00565b67ffffffffffffffff811115610f6057610f5f610875565b5b610f6a8254610d68565b610f75828285610eb5565b5f60209050601f831160018114610fa6575f8415610f94578287015190505b610f9e8582610f23565b865550611005565b601f198416610fb486610d98565b5f5b82811015610fdb57848901518255600182019150602085019450602081019050610fb6565b86831015610ff85784890151610ff4601f891682610f07565b8355505b6001600288020188555050505b505050505050565b5f82825260208201905092915050565b7f54686973206973206120636f6e747261637420616464726573732100000000005f82015250565b5f611051601b8361100d565b915061105c8261101d565b602082019050919050565b5f6020820190508181035f83015261107e81611045565b9050919050565b7f4465706f7369742053756363657366756c6c00000000000000000000000000005f82015250565b5f6110b960128361100d565b91506110c482611085565b602082019050919050565b5f6020820190508181035f8301526110e6816110ad565b9050919050565b7f4465706f736974204661696c65640000000000000000000000000000000000005f82015250565b5f611121600e8361100d565b915061112c826110ed565b602082019050919050565b5f6020820190508181035f83015261114e81611115565b9050919050565b7f4e487b71000000000000000000000000000000000000000000000000000000005f52601160045260245ffd5b5f61118c826109f3565b9150611197836109f3565b9250828201905067ffffffffffffffff8111156111b7576111b6611155565b5b92915050565b7f55736572206e6f7420466f756e642100000000000000000000000000000000005f82015250565b5f6111f1600f8361100d565b91506111fc826111bd565b602082019050919050565b5f6020820190508181035f83015261121e816111e5565b9050919050565b7f5769746864726177616c205375636365737366756c00000000000000000000005f82015250565b5f61125960158361100d565b915061126482611225565b602082019050919050565b5f6020820190508181035f8301526112868161124d565b9050919050565b7f5769746864726177616c204661696c65640000000000000000000000000000005f82015250565b5f6112c160118361100d565b91506112cc8261128d565b602082019050919050565b5f6020820190508181035f8301526112ee816112b5565b9050919050565b5f6112ff826109f3565b915061130a836109f3565b9250828203905067ffffffffffffffff81111561132a57611329611155565b5b9291505056fea26469706673582212200157d5f67f8d60bad4efd87ea92bf47ee58decb8759a149e03504f6513d25a9064736f6c634300081a0033",
					"opcodes": "PUSH1 0x80 PUSH1 0x40 MSTORE PUSH6 0xE35FA931A000 PUSH1 0x2 PUSH0 PUSH2 0x100 EXP DUP2 SLOAD DUP2 PUSH8 0xFFFFFFFFFFFFFFFF MUL NOT AND SWAP1 DUP4 PUSH8 0xFFFFFFFFFFFFFFFF AND MUL OR SWAP1 SSTORE POP PUSH8 0x1BC16D674EC80000 PUSH1 0x2 PUSH1 0x8 PUSH2 0x100 EXP DUP2 SLOAD DUP2 PUSH8 0xFFFFFFFFFFFFFFFF MUL NOT AND SWAP1 DUP4 PUSH8 0xFFFFFFFFFFFFFFFF AND MUL OR SWAP1 SSTORE POP CALLVALUE DUP1 ISZERO PUSH1 0x6D JUMPI PUSH0 DUP1 REVERT JUMPDEST POP PUSH2 0x1366 DUP1 PUSH2 0x7B PUSH0 CODECOPY PUSH0 RETURN INVALID PUSH1 0x80 PUSH1 0x40 MSTORE CALLVALUE DUP1 ISZERO PUSH2 0xF JUMPI PUSH0 DUP1 REVERT JUMPDEST POP PUSH1 0x4 CALLDATASIZE LT PUSH2 0x60 JUMPI PUSH0 CALLDATALOAD PUSH1 0xE0 SHR DUP1 PUSH4 0x11A712A0 EQ PUSH2 0x64 JUMPI DUP1 PUSH4 0x200D2ED2 EQ PUSH2 0x80 JUMPI DUP1 PUSH4 0x29664AC6 EQ PUSH2 0x9E JUMPI DUP1 PUSH4 0x3465D6D5 EQ PUSH2 0xBA JUMPI DUP1 PUSH4 0x9F42AF63 EQ PUSH2 0xEA JUMPI DUP1 PUSH4 0xD6DAD060 EQ PUSH2 0x11A JUMPI JUMPDEST PUSH0 DUP1 REVERT JUMPDEST PUSH2 0x7E PUSH1 0x4 DUP1 CALLDATASIZE SUB DUP2 ADD SWAP1 PUSH2 0x79 SWAP2 SWAP1 PUSH2 0xA30 JUMP JUMPDEST PUSH2 0x136 JUMP JUMPDEST STOP JUMPDEST PUSH2 0x88 PUSH2 0x220 JUMP JUMPDEST PUSH1 0x40 MLOAD PUSH2 0x95 SWAP2 SWAP1 PUSH2 0xB0F JUMP JUMPDEST PUSH1 0x40 MLOAD DUP1 SWAP2 SUB SWAP1 RETURN JUMPDEST PUSH2 0xB8 PUSH1 0x4 DUP1 CALLDATASIZE SUB DUP2 ADD SWAP1 PUSH2 0xB3 SWAP2 SWAP1 PUSH2 0xB28 JUMP JUMPDEST PUSH2 0x233 JUMP JUMPDEST STOP JUMPDEST PUSH2 0xD4 PUSH1 0x4 DUP1 CALLDATASIZE SUB DUP2 ADD SWAP1 PUSH2 0xCF SWAP2 SWAP1 PUSH2 0xB66 JUMP JUMPDEST PUSH2 0x3FE JUMP JUMPDEST PUSH1 0x40 MLOAD PUSH2 0xE1 SWAP2 SWAP1 PUSH2 0xBA0 JUMP JUMPDEST PUSH1 0x40 MLOAD DUP1 SWAP2 SUB SWAP1 RETURN JUMPDEST PUSH2 0x104 PUSH1 0x4 DUP1 CALLDATASIZE SUB DUP2 ADD SWAP1 PUSH2 0xFF SWAP2 SWAP1 PUSH2 0xBB9 JUMP JUMPDEST PUSH2 0x421 JUMP JUMPDEST PUSH1 0x40 MLOAD PUSH2 0x111 SWAP2 SWAP1 PUSH2 0xCCB JUMP JUMPDEST PUSH1 0x40 MLOAD DUP1 SWAP2 SUB SWAP1 RETURN JUMPDEST PUSH2 0x134 PUSH1 0x4 DUP1 CALLDATASIZE SUB DUP2 ADD SWAP1 PUSH2 0x12F SWAP2 SWAP1 PUSH2 0xB28 JUMP JUMPDEST PUSH2 0x61F JUMP JUMPDEST STOP JUMPDEST PUSH1 0x40 MLOAD DUP1 PUSH1 0x60 ADD PUSH1 0x40 MSTORE DUP1 DUP5 DUP2 MSTORE PUSH1 0x20 ADD DUP4 PUSH20 0xFFFFFFFFFFFFFFFFFFFFFFFFFFFFFFFFFFFFFFFF AND DUP2 MSTORE PUSH1 0x20 ADD DUP3 PUSH8 0xFFFFFFFFFFFFFFFF AND DUP2 MSTORE POP PUSH1 0x1 DUP5 PUSH1 0x40 MLOAD PUSH2 0x181 SWAP2 SWAP1 PUSH2 0xD25 JUMP JUMPDEST SWAP1 DUP2 MSTORE PUSH1 0x20 ADD PUSH1 0x40 MLOAD DUP1 SWAP2 SUB SWAP1 KECCAK256 PUSH0 DUP3 ADD MLOAD DUP2 PUSH0 ADD SWAP1 DUP2 PUSH2 0x1A2 SWAP2 SWAP1 PUSH2 0xF3E JUMP JUMPDEST POP PUSH1 0x20 DUP3 ADD MLOAD DUP2 PUSH1 0x1 ADD PUSH0 PUSH2 0x100 EXP DUP2 SLOAD DUP2 PUSH20 0xFFFFFFFFFFFFFFFFFFFFFFFFFFFFFFFFFFFFFFFF MUL NOT AND SWAP1 DUP4 PUSH20 0xFFFFFFFFFFFFFFFFFFFFFFFFFFFFFFFFFFFFFFFF AND MUL OR SWAP1 SSTORE POP PUSH1 0x40 DUP3 ADD MLOAD DUP2 PUSH1 0x1 ADD PUSH1 0x14 PUSH2 0x100 EXP DUP2 SLOAD DUP2 PUSH8 0xFFFFFFFFFFFFFFFF MUL NOT AND SWAP1 DUP4 PUSH8 0xFFFFFFFFFFFFFFFF AND MUL OR SWAP1 SSTORE POP SWAP1 POP POP POP POP POP JUMP JUMPDEST PUSH1 0x2 PUSH1 0x10 SWAP1 SLOAD SWAP1 PUSH2 0x100 EXP SWAP1 DIV PUSH1 0xFF AND DUP2 JUMP JUMPDEST DUP2 PUSH2 0x23D DUP2 PUSH2 0x7EB JUMP JUMPDEST ISZERO PUSH2 0x27D JUMPI PUSH1 0x40 MLOAD PUSH32 0x8C379A000000000000000000000000000000000000000000000000000000000 DUP2 MSTORE PUSH1 0x4 ADD PUSH2 0x274 SWAP1 PUSH2 0x1067 JUMP JUMPDEST PUSH1 0x40 MLOAD DUP1 SWAP2 SUB SWAP1 REVERT JUMPDEST DUP2 PUSH1 0x2 PUSH0 SWAP1 SLOAD SWAP1 PUSH2 0x100 EXP SWAP1 DIV PUSH8 0xFFFFFFFFFFFFFFFF AND PUSH8 0xFFFFFFFFFFFFFFFF AND DUP2 PUSH8 0xFFFFFFFFFFFFFFFF AND GT ISZERO PUSH2 0x313 JUMPI PUSH1 0x2 DUP1 PUSH1 0x10 PUSH2 0x100 EXP DUP2 SLOAD DUP2 PUSH1 0xFF MUL NOT AND SWAP1 DUP4 PUSH1 0x2 DUP2 GT ISZERO PUSH2 0x2D4 JUMPI PUSH2 0x2D3 PUSH2 0xA9C JUMP JUMPDEST JUMPDEST MUL OR SWAP1 SSTORE POP PUSH32 0x8EA85EE945A7934462D6233287A7A40596A6C51A9253CF0C75B4004BA17876E5 PUSH1 0x40 MLOAD PUSH2 0x306 SWAP1 PUSH2 0x10CF JUMP JUMPDEST PUSH1 0x40 MLOAD DUP1 SWAP2 SUB SWAP1 LOG1 PUSH2 0x374 JUMP JUMPDEST PUSH1 0x1 PUSH1 0x2 PUSH1 0x10 PUSH2 0x100 EXP DUP2 SLOAD DUP2 PUSH1 0xFF MUL NOT AND SWAP1 DUP4 PUSH1 0x2 DUP2 GT ISZERO PUSH2 0x339 JUMPI PUSH2 0x338 PUSH2 0xA9C JUMP JUMPDEST JUMPDEST MUL OR SWAP1 SSTORE POP PUSH32 0x8EA85EE945A7934462D6233287A7A40596A6C51A9253CF0C75B4004BA17876E5 PUSH1 0x40 MLOAD PUSH2 0x36B SWAP1 PUSH2 0x1137 JUMP JUMPDEST PUSH1 0x40 MLOAD DUP1 SWAP2 SUB SWAP1 LOG1 JUMPDEST DUP3 PUSH0 DUP1 DUP7 PUSH20 0xFFFFFFFFFFFFFFFFFFFFFFFFFFFFFFFFFFFFFFFF AND PUSH20 0xFFFFFFFFFFFFFFFFFFFFFFFFFFFFFFFFFFFFFFFF AND DUP2 MSTORE PUSH1 0x20 ADD SWAP1 DUP2 MSTORE PUSH1 0x20 ADD PUSH0 KECCAK256 PUSH0 DUP3 DUP3 DUP3 SWAP1 SLOAD SWAP1 PUSH2 0x100 EXP SWAP1 DIV PUSH8 0xFFFFFFFFFFFFFFFF AND PUSH2 0x3D2 SWAP2 SWAP1 PUSH2 0x1182 JUMP JUMPDEST SWAP3 POP PUSH2 0x100 EXP DUP2 SLOAD DUP2 PUSH8 0xFFFFFFFFFFFFFFFF MUL NOT AND SWAP1 DUP4 PUSH8 0xFFFFFFFFFFFFFFFF AND MUL OR SWAP1 SSTORE POP POP POP POP POP JUMP JUMPDEST PUSH0 PUSH1 0x20 MSTORE DUP1 PUSH0 MSTORE PUSH1 0x40 PUSH0 KECCAK256 PUSH0 SWAP2 POP SLOAD SWAP1 PUSH2 0x100 EXP SWAP1 DIV PUSH8 0xFFFFFFFFFFFFFFFF AND DUP2 JUMP JUMPDEST PUSH2 0x429 PUSH2 0x80D JUMP JUMPDEST DUP2 PUSH0 PUSH20 0xFFFFFFFFFFFFFFFFFFFFFFFFFFFFFFFFFFFFFFFF AND PUSH1 0x1 DUP3 PUSH1 0x40 MLOAD PUSH2 0x451 SWAP2 SWAP1 PUSH2 0xD25 JUMP JUMPDEST SWAP1 DUP2 MSTORE PUSH1 0x20 ADD PUSH1 0x40 MLOAD DUP1 SWAP2 SUB SWAP1 KECCAK256 PUSH1 0x1 ADD PUSH0 SWAP1 SLOAD SWAP1 PUSH2 0x100 EXP SWAP1 DIV PUSH20 0xFFFFFFFFFFFFFFFFFFFFFFFFFFFFFFFFFFFFFFFF AND PUSH20 0xFFFFFFFFFFFFFFFFFFFFFFFFFFFFFFFFFFFFFFFF AND SUB PUSH2 0x4D8 JUMPI PUSH1 0x40 MLOAD PUSH32 0x8C379A000000000000000000000000000000000000000000000000000000000 DUP2 MSTORE PUSH1 0x4 ADD PUSH2 0x4CF SWAP1 PUSH2 0x1207 JUMP JUMPDEST PUSH1 0x40 MLOAD DUP1 SWAP2 SUB SWAP1 REVERT JUMPDEST PUSH1 0x1 DUP4 PUSH1 0x40 MLOAD PUSH2 0x4E8 SWAP2 SWAP1 PUSH2 0xD25 JUMP JUMPDEST SWAP1 DUP2 MSTORE PUSH1 0x20 ADD PUSH1 0x40 MLOAD DUP1 SWAP2 SUB SWAP1 KECCAK256 PUSH1 0x40 MLOAD DUP1 PUSH1 0x60 ADD PUSH1 0x40 MSTORE SWAP1 DUP2 PUSH0 DUP3 ADD DUP1 SLOAD PUSH2 0x510 SWAP1 PUSH2 0xD68 JUMP JUMPDEST DUP1 PUSH1 0x1F ADD PUSH1 0x20 DUP1 SWAP2 DIV MUL PUSH1 0x20 ADD PUSH1 0x40 MLOAD SWAP1 DUP2 ADD PUSH1 0x40 MSTORE DUP1 SWAP3 SWAP2 SWAP1 DUP2 DUP2 MSTORE PUSH1 0x20 ADD DUP3 DUP1 SLOAD PUSH2 0x53C SWAP1 PUSH2 0xD68 JUMP JUMPDEST DUP1 ISZERO PUSH2 0x587 JUMPI DUP1 PUSH1 0x1F LT PUSH2 0x55E JUMPI PUSH2 0x100 DUP1 DUP4 SLOAD DIV MUL DUP4 MSTORE SWAP2 PUSH1 0x20 ADD SWAP2 PUSH2 0x587 JUMP JUMPDEST DUP3 ADD SWAP2 SWAP1 PUSH0 MSTORE PUSH1 0x20 PUSH0 KECCAK256 SWAP1 JUMPDEST DUP2 SLOAD DUP2 MSTORE SWAP1 PUSH1 0x1 ADD SWAP1 PUSH1 0x20 ADD DUP1 DUP4 GT PUSH2 0x56A JUMPI DUP3 SWAP1 SUB PUSH1 0x1F AND DUP3 ADD SWAP2 JUMPDEST POP POP POP POP POP DUP2 MSTORE PUSH1 0x20 ADD PUSH1 0x1 DUP3 ADD PUSH0 SWAP1 SLOAD SWAP1 PUSH2 0x100 EXP SWAP1 DIV PUSH20 0xFFFFFFFFFFFFFFFFFFFFFFFFFFFFFFFFFFFFFFFF AND PUSH20 0xFFFFFFFFFFFFFFFFFFFFFFFFFFFFFFFFFFFFFFFF AND PUSH20 0xFFFFFFFFFFFFFFFFFFFFFFFFFFFFFFFFFFFFFFFF AND DUP2 MSTORE PUSH1 0x20 ADD PUSH1 0x1 DUP3 ADD PUSH1 0x14 SWAP1 SLOAD SWAP1 PUSH2 0x100 EXP SWAP1 DIV PUSH8 0xFFFFFFFFFFFFFFFF AND PUSH8 0xFFFFFFFFFFFFFFFF AND PUSH8 0xFFFFFFFFFFFFFFFF AND DUP2 MSTORE POP POP SWAP2 POP POP SWAP2 SWAP1 POP JUMP JUMPDEST DUP2 PUSH2 0x629 DUP2 PUSH2 0x7EB JUMP JUMPDEST ISZERO PUSH2 0x669 JUMPI PUSH1 0x40 MLOAD PUSH32 0x8C379A000000000000000000000000000000000000000000000000000000000 DUP2 MSTORE PUSH1 0x4 ADD PUSH2 0x660 SWAP1 PUSH2 0x1067 JUMP JUMPDEST PUSH1 0x40 MLOAD DUP1 SWAP2 SUB SWAP1 REVERT JUMPDEST DUP2 PUSH1 0x2 PUSH1 0x8 SWAP1 SLOAD SWAP1 PUSH2 0x100 EXP SWAP1 DIV PUSH8 0xFFFFFFFFFFFFFFFF AND PUSH8 0xFFFFFFFFFFFFFFFF AND DUP2 PUSH8 0xFFFFFFFFFFFFFFFF AND LT ISZERO PUSH2 0x700 JUMPI PUSH1 0x2 DUP1 PUSH1 0x10 PUSH2 0x100 EXP DUP2 SLOAD DUP2 PUSH1 0xFF MUL NOT AND SWAP1 DUP4 PUSH1 0x2 DUP2 GT ISZERO PUSH2 0x6C1 JUMPI PUSH2 0x6C0 PUSH2 0xA9C JUMP JUMPDEST JUMPDEST MUL OR SWAP1 SSTORE POP PUSH32 0x8EA85EE945A7934462D6233287A7A40596A6C51A9253CF0C75B4004BA17876E5 PUSH1 0x40 MLOAD PUSH2 0x6F3 SWAP1 PUSH2 0x126F JUMP JUMPDEST PUSH1 0x40 MLOAD DUP1 SWAP2 SUB SWAP1 LOG1 PUSH2 0x761 JUMP JUMPDEST PUSH1 0x1 PUSH1 0x2 PUSH1 0x10 PUSH2 0x100 EXP DUP2 SLOAD DUP2 PUSH1 0xFF MUL NOT AND SWAP1 DUP4 PUSH1 0x2 DUP2 GT ISZERO PUSH2 0x726 JUMPI PUSH2 0x725 PUSH2 0xA9C JUMP JUMPDEST JUMPDEST MUL OR SWAP1 SSTORE POP PUSH32 0x8EA85EE945A7934462D6233287A7A40596A6C51A9253CF0C75B4004BA17876E5 PUSH1 0x40 MLOAD PUSH2 0x758 SWAP1 PUSH2 0x12D7 JUMP JUMPDEST PUSH1 0x40 MLOAD DUP1 SWAP2 SUB SWAP1 LOG1 JUMPDEST DUP3 PUSH0 DUP1 DUP7 PUSH20 0xFFFFFFFFFFFFFFFFFFFFFFFFFFFFFFFFFFFFFFFF AND PUSH20 0xFFFFFFFFFFFFFFFFFFFFFFFFFFFFFFFFFFFFFFFF AND DUP2 MSTORE PUSH1 0x20 ADD SWAP1 DUP2 MSTORE PUSH1 0x20 ADD PUSH0 KECCAK256 PUSH0 DUP3 DUP3 DUP3 SWAP1 SLOAD SWAP1 PUSH2 0x100 EXP SWAP1 DIV PUSH8 0xFFFFFFFFFFFFFFFF AND PUSH2 0x7BF SWAP2 SWAP1 PUSH2 0x12F5 JUMP JUMPDEST SWAP3 POP PUSH2 0x100 EXP DUP2 SLOAD DUP2 PUSH8 0xFFFFFFFFFFFFFFFF MUL NOT AND SWAP1 DUP4 PUSH8 0xFFFFFFFFFFFFFFFF AND MUL OR SWAP1 SSTORE POP POP POP POP POP JUMP JUMPDEST PUSH0 DUP1 DUP3 PUSH20 0xFFFFFFFFFFFFFFFFFFFFFFFFFFFFFFFFFFFFFFFF AND EXTCODESIZE GT SWAP1 POP SWAP2 SWAP1 POP JUMP JUMPDEST PUSH1 0x40 MLOAD DUP1 PUSH1 0x60 ADD PUSH1 0x40 MSTORE DUP1 PUSH1 0x60 DUP2 MSTORE PUSH1 0x20 ADD PUSH0 PUSH20 0xFFFFFFFFFFFFFFFFFFFFFFFFFFFFFFFFFFFFFFFF AND DUP2 MSTORE PUSH1 0x20 ADD PUSH0 PUSH8 0xFFFFFFFFFFFFFFFF AND DUP2 MSTORE POP SWAP1 JUMP JUMPDEST PUSH0 PUSH1 0x40 MLOAD SWAP1 POP SWAP1 JUMP JUMPDEST PUSH0 DUP1 REVERT JUMPDEST PUSH0 DUP1 REVERT JUMPDEST PUSH0 DUP1 REVERT JUMPDEST PUSH0 DUP1 REVERT JUMPDEST PUSH0 PUSH1 0x1F NOT PUSH1 0x1F DUP4 ADD AND SWAP1 POP SWAP2 SWAP1 POP JUMP JUMPDEST PUSH32 0x4E487B7100000000000000000000000000000000000000000000000000000000 PUSH0 MSTORE PUSH1 0x41 PUSH1 0x4 MSTORE PUSH1 0x24 PUSH0 REVERT JUMPDEST PUSH2 0x8AB DUP3 PUSH2 0x865 JUMP JUMPDEST DUP2 ADD DUP2 DUP2 LT PUSH8 0xFFFFFFFFFFFFFFFF DUP3 GT OR ISZERO PUSH2 0x8CA JUMPI PUSH2 0x8C9 PUSH2 0x875 JUMP JUMPDEST JUMPDEST DUP1 PUSH1 0x40 MSTORE POP POP POP JUMP JUMPDEST PUSH0 PUSH2 0x8DC PUSH2 0x84C JUMP JUMPDEST SWAP1 POP PUSH2 0x8E8 DUP3 DUP3 PUSH2 0x8A2 JUMP JUMPDEST SWAP2 SWAP1 POP JUMP JUMPDEST PUSH0 PUSH8 0xFFFFFFFFFFFFFFFF DUP3 GT ISZERO PUSH2 0x907 JUMPI PUSH2 0x906 PUSH2 0x875 JUMP JUMPDEST JUMPDEST PUSH2 0x910 DUP3 PUSH2 0x865 JUMP JUMPDEST SWAP1 POP PUSH1 0x20 DUP2 ADD SWAP1 POP SWAP2 SWAP1 POP JUMP JUMPDEST DUP3 DUP2 DUP4 CALLDATACOPY PUSH0 DUP4 DUP4 ADD MSTORE POP POP POP JUMP JUMPDEST PUSH0 PUSH2 0x93D PUSH2 0x938 DUP5 PUSH2 0x8ED JUMP JUMPDEST PUSH2 0x8D3 JUMP JUMPDEST SWAP1 POP DUP3 DUP2 MSTORE PUSH1 0x20 DUP2 ADD DUP5 DUP5 DUP5 ADD GT ISZERO PUSH2 0x959 JUMPI PUSH2 0x958 PUSH2 0x861 JUMP JUMPDEST JUMPDEST PUSH2 0x964 DUP5 DUP3 DUP6 PUSH2 0x91D JUMP JUMPDEST POP SWAP4 SWAP3 POP POP POP JUMP JUMPDEST PUSH0 DUP3 PUSH1 0x1F DUP4 ADD SLT PUSH2 0x980 JUMPI PUSH2 0x97F PUSH2 0x85D JUMP JUMPDEST JUMPDEST DUP2 CALLDATALOAD PUSH2 0x990 DUP5 DUP3 PUSH1 0x20 DUP7 ADD PUSH2 0x92B JUMP JUMPDEST SWAP2 POP POP SWAP3 SWAP2 POP POP JUMP JUMPDEST PUSH0 PUSH20 0xFFFFFFFFFFFFFFFFFFFFFFFFFFFFFFFFFFFFFFFF DUP3 AND SWAP1 POP SWAP2 SWAP1 POP JUMP JUMPDEST PUSH0 PUSH2 0x9C2 DUP3 PUSH2 0x999 JUMP JUMPDEST SWAP1 POP SWAP2 SWAP1 POP JUMP JUMPDEST PUSH2 0x9D2 DUP2 PUSH2 0x9B8 JUMP JUMPDEST DUP2 EQ PUSH2 0x9DC JUMPI PUSH0 DUP1 REVERT JUMPDEST POP JUMP JUMPDEST PUSH0 DUP2 CALLDATALOAD SWAP1 POP PUSH2 0x9ED DUP2 PUSH2 0x9C9 JUMP JUMPDEST SWAP3 SWAP2 POP POP JUMP JUMPDEST PUSH0 PUSH8 0xFFFFFFFFFFFFFFFF DUP3 AND SWAP1 POP SWAP2 SWAP1 POP JUMP JUMPDEST PUSH2 0xA0F DUP2 PUSH2 0x9F3 JUMP JUMPDEST DUP2 EQ PUSH2 0xA19 JUMPI PUSH0 DUP1 REVERT JUMPDEST POP JUMP JUMPDEST PUSH0 DUP2 CALLDATALOAD SWAP1 POP PUSH2 0xA2A DUP2 PUSH2 0xA06 JUMP JUMPDEST SWAP3 SWAP2 POP POP JUMP JUMPDEST PUSH0 DUP1 PUSH0 PUSH1 0x60 DUP5 DUP7 SUB SLT ISZERO PUSH2 0xA47 JUMPI PUSH2 0xA46 PUSH2 0x855 JUMP JUMPDEST JUMPDEST PUSH0 DUP5 ADD CALLDATALOAD PUSH8 0xFFFFFFFFFFFFFFFF DUP2 GT ISZERO PUSH2 0xA64 JUMPI PUSH2 0xA63 PUSH2 0x859 JUMP JUMPDEST JUMPDEST PUSH2 0xA70 DUP7 DUP3 DUP8 ADD PUSH2 0x96C JUMP JUMPDEST SWAP4 POP POP PUSH1 0x20 PUSH2 0xA81 DUP7 DUP3 DUP8 ADD PUSH2 0x9DF JUMP JUMPDEST SWAP3 POP POP PUSH1 0x40 PUSH2 0xA92 DUP7 DUP3 DUP8 ADD PUSH2 0xA1C JUMP JUMPDEST SWAP2 POP POP SWAP3 POP SWAP3 POP SWAP3 JUMP JUMPDEST PUSH32 0x4E487B7100000000000000000000000000000000000000000000000000000000 PUSH0 MSTORE PUSH1 0x21 PUSH1 0x4 MSTORE PUSH1 0x24 PUSH0 REVERT JUMPDEST PUSH1 0x3 DUP2 LT PUSH2 0xADA JUMPI PUSH2 0xAD9 PUSH2 0xA9C JUMP JUMPDEST JUMPDEST POP JUMP JUMPDEST PUSH0 DUP2 SWAP1 POP PUSH2 0xAEA DUP3 PUSH2 0xAC9 JUMP JUMPDEST SWAP2 SWAP1 POP JUMP JUMPDEST PUSH0 PUSH2 0xAF9 DUP3 PUSH2 0xADD JUMP JUMPDEST SWAP1 POP SWAP2 SWAP1 POP JUMP JUMPDEST PUSH2 0xB09 DUP2 PUSH2 0xAEF JUMP JUMPDEST DUP3 MSTORE POP POP JUMP JUMPDEST PUSH0 PUSH1 0x20 DUP3 ADD SWAP1 POP PUSH2 0xB22 PUSH0 DUP4 ADD DUP5 PUSH2 0xB00 JUMP JUMPDEST SWAP3 SWAP2 POP POP JUMP JUMPDEST PUSH0 DUP1 PUSH1 0x40 DUP4 DUP6 SUB SLT ISZERO PUSH2 0xB3E JUMPI PUSH2 0xB3D PUSH2 0x855 JUMP JUMPDEST JUMPDEST PUSH0 PUSH2 0xB4B DUP6 DUP3 DUP7 ADD PUSH2 0x9DF JUMP JUMPDEST SWAP3 POP POP PUSH1 0x20 PUSH2 0xB5C DUP6 DUP3 DUP7 ADD PUSH2 0xA1C JUMP JUMPDEST SWAP2 POP POP SWAP3 POP SWAP3 SWAP1 POP JUMP JUMPDEST PUSH0 PUSH1 0x20 DUP3 DUP5 SUB SLT ISZERO PUSH2 0xB7B JUMPI PUSH2 0xB7A PUSH2 0x855 JUMP JUMPDEST JUMPDEST PUSH0 PUSH2 0xB88 DUP5 DUP3 DUP6 ADD PUSH2 0x9DF JUMP JUMPDEST SWAP2 POP POP SWAP3 SWAP2 POP POP JUMP JUMPDEST PUSH2 0xB9A DUP2 PUSH2 0x9F3 JUMP JUMPDEST DUP3 MSTORE POP POP JUMP JUMPDEST PUSH0 PUSH1 0x20 DUP3 ADD SWAP1 POP PUSH2 0xBB3 PUSH0 DUP4 ADD DUP5 PUSH2 0xB91 JUMP JUMPDEST SWAP3 SWAP2 POP POP JUMP JUMPDEST PUSH0 PUSH1 0x20 DUP3 DUP5 SUB SLT ISZERO PUSH2 0xBCE JUMPI PUSH2 0xBCD PUSH2 0x855 JUMP JUMPDEST JUMPDEST PUSH0 DUP3 ADD CALLDATALOAD PUSH8 0xFFFFFFFFFFFFFFFF DUP2 GT ISZERO PUSH2 0xBEB JUMPI PUSH2 0xBEA PUSH2 0x859 JUMP JUMPDEST JUMPDEST PUSH2 0xBF7 DUP5 DUP3 DUP6 ADD PUSH2 0x96C JUMP JUMPDEST SWAP2 POP POP SWAP3 SWAP2 POP POP JUMP JUMPDEST PUSH0 DUP2 MLOAD SWAP1 POP SWAP2 SWAP1 POP JUMP JUMPDEST PUSH0 DUP3 DUP3 MSTORE PUSH1 0x20 DUP3 ADD SWAP1 POP SWAP3 SWAP2 POP POP JUMP JUMPDEST DUP3 DUP2 DUP4 MCOPY PUSH0 DUP4 DUP4 ADD MSTORE POP POP POP JUMP JUMPDEST PUSH0 PUSH2 0xC32 DUP3 PUSH2 0xC00 JUMP JUMPDEST PUSH2 0xC3C DUP2 DUP6 PUSH2 0xC0A JUMP JUMPDEST SWAP4 POP PUSH2 0xC4C DUP2 DUP6 PUSH1 0x20 DUP7 ADD PUSH2 0xC1A JUMP JUMPDEST PUSH2 0xC55 DUP2 PUSH2 0x865 JUMP JUMPDEST DUP5 ADD SWAP2 POP POP SWAP3 SWAP2 POP POP JUMP JUMPDEST PUSH2 0xC69 DUP2 PUSH2 0x9B8 JUMP JUMPDEST DUP3 MSTORE POP POP JUMP JUMPDEST PUSH2 0xC78 DUP2 PUSH2 0x9F3 JUMP JUMPDEST DUP3 MSTORE POP POP JUMP JUMPDEST PUSH0 PUSH1 0x60 DUP4 ADD PUSH0 DUP4 ADD MLOAD DUP5 DUP3 SUB PUSH0 DUP7 ADD MSTORE PUSH2 0xC98 DUP3 DUP3 PUSH2 0xC28 JUMP JUMPDEST SWAP2 POP POP PUSH1 0x20 DUP4 ADD MLOAD PUSH2 0xCAD PUSH1 0x20 DUP7 ADD DUP3 PUSH2 0xC60 JUMP JUMPDEST POP PUSH1 0x40 DUP4 ADD MLOAD PUSH2 0xCC0 PUSH1 0x40 DUP7 ADD DUP3 PUSH2 0xC6F JUMP JUMPDEST POP DUP1 SWAP2 POP POP SWAP3 SWAP2 POP POP JUMP JUMPDEST PUSH0 PUSH1 0x20 DUP3 ADD SWAP1 POP DUP2 DUP2 SUB PUSH0 DUP4 ADD MSTORE PUSH2 0xCE3 DUP2 DUP5 PUSH2 0xC7E JUMP JUMPDEST SWAP1 POP SWAP3 SWAP2 POP POP JUMP JUMPDEST PUSH0 DUP2 SWAP1 POP SWAP3 SWAP2 POP POP JUMP JUMPDEST PUSH0 PUSH2 0xCFF DUP3 PUSH2 0xC00 JUMP JUMPDEST PUSH2 0xD09 DUP2 DUP6 PUSH2 0xCEB JUMP JUMPDEST SWAP4 POP PUSH2 0xD19 DUP2 DUP6 PUSH1 0x20 DUP7 ADD PUSH2 0xC1A JUMP JUMPDEST DUP1 DUP5 ADD SWAP2 POP POP SWAP3 SWAP2 POP POP JUMP JUMPDEST PUSH0 PUSH2 0xD30 DUP3 DUP5 PUSH2 0xCF5 JUMP JUMPDEST SWAP2 POP DUP2 SWAP1 POP SWAP3 SWAP2 POP POP JUMP JUMPDEST PUSH32 0x4E487B7100000000000000000000000000000000000000000000000000000000 PUSH0 MSTORE PUSH1 0x22 PUSH1 0x4 MSTORE PUSH1 0x24 PUSH0 REVERT JUMPDEST PUSH0 PUSH1 0x2 DUP3 DIV SWAP1 POP PUSH1 0x1 DUP3 AND DUP1 PUSH2 0xD7F JUMPI PUSH1 0x7F DUP3 AND SWAP2 POP JUMPDEST PUSH1 0x20 DUP3 LT DUP2 SUB PUSH2 0xD92 JUMPI PUSH2 0xD91 PUSH2 0xD3B JUMP JUMPDEST JUMPDEST POP SWAP2 SWAP1 POP JUMP JUMPDEST PUSH0 DUP2 SWAP1 POP DUP2 PUSH0 MSTORE PUSH1 0x20 PUSH0 KECCAK256 SWAP1 POP SWAP2 SWAP1 POP JUMP JUMPDEST PUSH0 PUSH1 0x20 PUSH1 0x1F DUP4 ADD DIV SWAP1 POP SWAP2 SWAP1 POP JUMP JUMPDEST PUSH0 DUP3 DUP3 SHL SWAP1 POP SWAP3 SWAP2 POP POP JUMP JUMPDEST PUSH0 PUSH1 0x8 DUP4 MUL PUSH2 0xDF4 PUSH32 0xFFFFFFFFFFFFFFFFFFFFFFFFFFFFFFFFFFFFFFFFFFFFFFFFFFFFFFFFFFFFFFFF DUP3 PUSH2 0xDB9 JUMP JUMPDEST PUSH2 0xDFE DUP7 DUP4 PUSH2 0xDB9 JUMP JUMPDEST SWAP6 POP DUP1 NOT DUP5 AND SWAP4 POP DUP1 DUP7 AND DUP5 OR SWAP3 POP POP POP SWAP4 SWAP3 POP POP POP JUMP JUMPDEST PUSH0 DUP2 SWAP1 POP SWAP2 SWAP1 POP JUMP JUMPDEST PUSH0 DUP2 SWAP1 POP SWAP2 SWAP1 POP JUMP JUMPDEST PUSH0 PUSH2 0xE42 PUSH2 0xE3D PUSH2 0xE38 DUP5 PUSH2 0xE16 JUMP JUMPDEST PUSH2 0xE1F JUMP JUMPDEST PUSH2 0xE16 JUMP JUMPDEST SWAP1 POP SWAP2 SWAP1 POP JUMP JUMPDEST PUSH0 DUP2 SWAP1 POP SWAP2 SWAP1 POP JUMP JUMPDEST PUSH2 0xE5B DUP4 PUSH2 0xE28 JUMP JUMPDEST PUSH2 0xE6F PUSH2 0xE67 DUP3 PUSH2 0xE49 JUMP JUMPDEST DUP5 DUP5 SLOAD PUSH2 0xDC5 JUMP JUMPDEST DUP3 SSTORE POP POP POP POP JUMP JUMPDEST PUSH0 SWAP1 JUMP JUMPDEST PUSH2 0xE83 PUSH2 0xE77 JUMP JUMPDEST PUSH2 0xE8E DUP2 DUP5 DUP5 PUSH2 0xE52 JUMP JUMPDEST POP POP POP JUMP JUMPDEST JUMPDEST DUP2 DUP2 LT ISZERO PUSH2 0xEB1 JUMPI PUSH2 0xEA6 PUSH0 DUP3 PUSH2 0xE7B JUMP JUMPDEST PUSH1 0x1 DUP2 ADD SWAP1 POP PUSH2 0xE94 JUMP JUMPDEST POP POP JUMP JUMPDEST PUSH1 0x1F DUP3 GT ISZERO PUSH2 0xEF6 JUMPI PUSH2 0xEC7 DUP2 PUSH2 0xD98 JUMP JUMPDEST PUSH2 0xED0 DUP5 PUSH2 0xDAA JUMP JUMPDEST DUP2 ADD PUSH1 0x20 DUP6 LT ISZERO PUSH2 0xEDF JUMPI DUP2 SWAP1 POP JUMPDEST PUSH2 0xEF3 PUSH2 0xEEB DUP6 PUSH2 0xDAA JUMP JUMPDEST DUP4 ADD DUP3 PUSH2 0xE93 JUMP JUMPDEST POP POP JUMPDEST POP POP POP JUMP JUMPDEST PUSH0 DUP3 DUP3 SHR SWAP1 POP SWAP3 SWAP2 POP POP JUMP JUMPDEST PUSH0 PUSH2 0xF16 PUSH0 NOT DUP5 PUSH1 0x8 MUL PUSH2 0xEFB JUMP JUMPDEST NOT DUP1 DUP4 AND SWAP2 POP POP SWAP3 SWAP2 POP POP JUMP JUMPDEST PUSH0 PUSH2 0xF2E DUP4 DUP4 PUSH2 0xF07 JUMP JUMPDEST SWAP2 POP DUP3 PUSH1 0x2 MUL DUP3 OR SWAP1 POP SWAP3 SWAP2 POP POP JUMP JUMPDEST PUSH2 0xF47 DUP3 PUSH2 0xC00 JUMP JUMPDEST PUSH8 0xFFFFFFFFFFFFFFFF DUP2 GT ISZERO PUSH2 0xF60 JUMPI PUSH2 0xF5F PUSH2 0x875 JUMP JUMPDEST JUMPDEST PUSH2 0xF6A DUP3 SLOAD PUSH2 0xD68 JUMP JUMPDEST PUSH2 0xF75 DUP3 DUP3 DUP6 PUSH2 0xEB5 JUMP JUMPDEST PUSH0 PUSH1 0x20 SWAP1 POP PUSH1 0x1F DUP4 GT PUSH1 0x1 DUP2 EQ PUSH2 0xFA6 JUMPI PUSH0 DUP5 ISZERO PUSH2 0xF94 JUMPI DUP3 DUP8 ADD MLOAD SWAP1 POP JUMPDEST PUSH2 0xF9E DUP6 DUP3 PUSH2 0xF23 JUMP JUMPDEST DUP7 SSTORE POP PUSH2 0x1005 JUMP JUMPDEST PUSH1 0x1F NOT DUP5 AND PUSH2 0xFB4 DUP7 PUSH2 0xD98 JUMP JUMPDEST PUSH0 JUMPDEST DUP3 DUP2 LT ISZERO PUSH2 0xFDB JUMPI DUP5 DUP10 ADD MLOAD DUP3 SSTORE PUSH1 0x1 DUP3 ADD SWAP2 POP PUSH1 0x20 DUP6 ADD SWAP5 POP PUSH1 0x20 DUP2 ADD SWAP1 POP PUSH2 0xFB6 JUMP JUMPDEST DUP7 DUP4 LT ISZERO PUSH2 0xFF8 JUMPI DUP5 DUP10 ADD MLOAD PUSH2 0xFF4 PUSH1 0x1F DUP10 AND DUP3 PUSH2 0xF07 JUMP JUMPDEST DUP4 SSTORE POP JUMPDEST PUSH1 0x1 PUSH1 0x2 DUP9 MUL ADD DUP9 SSTORE POP POP POP JUMPDEST POP POP POP POP POP POP JUMP JUMPDEST PUSH0 DUP3 DUP3 MSTORE PUSH1 0x20 DUP3 ADD SWAP1 POP SWAP3 SWAP2 POP POP JUMP JUMPDEST PUSH32 0x54686973206973206120636F6E74726163742061646472657373210000000000 PUSH0 DUP3 ADD MSTORE POP JUMP JUMPDEST PUSH0 PUSH2 0x1051 PUSH1 0x1B DUP4 PUSH2 0x100D JUMP JUMPDEST SWAP2 POP PUSH2 0x105C DUP3 PUSH2 0x101D JUMP JUMPDEST PUSH1 0x20 DUP3 ADD SWAP1 POP SWAP2 SWAP1 POP JUMP JUMPDEST PUSH0 PUSH1 0x20 DUP3 ADD SWAP1 POP DUP2 DUP2 SUB PUSH0 DUP4 ADD MSTORE PUSH2 0x107E DUP2 PUSH2 0x1045 JUMP JUMPDEST SWAP1 POP SWAP2 SWAP1 POP JUMP JUMPDEST PUSH32 0x4465706F7369742053756363657366756C6C0000000000000000000000000000 PUSH0 DUP3 ADD MSTORE POP JUMP JUMPDEST PUSH0 PUSH2 0x10B9 PUSH1 0x12 DUP4 PUSH2 0x100D JUMP JUMPDEST SWAP2 POP PUSH2 0x10C4 DUP3 PUSH2 0x1085 JUMP JUMPDEST PUSH1 0x20 DUP3 ADD SWAP1 POP SWAP2 SWAP1 POP JUMP JUMPDEST PUSH0 PUSH1 0x20 DUP3 ADD SWAP1 POP DUP2 DUP2 SUB PUSH0 DUP4 ADD MSTORE PUSH2 0x10E6 DUP2 PUSH2 0x10AD JUMP JUMPDEST SWAP1 POP SWAP2 SWAP1 POP JUMP JUMPDEST PUSH32 0x4465706F736974204661696C6564000000000000000000000000000000000000 PUSH0 DUP3 ADD MSTORE POP JUMP JUMPDEST PUSH0 PUSH2 0x1121 PUSH1 0xE DUP4 PUSH2 0x100D JUMP JUMPDEST SWAP2 POP PUSH2 0x112C DUP3 PUSH2 0x10ED JUMP JUMPDEST PUSH1 0x20 DUP3 ADD SWAP1 POP SWAP2 SWAP1 POP JUMP JUMPDEST PUSH0 PUSH1 0x20 DUP3 ADD SWAP1 POP DUP2 DUP2 SUB PUSH0 DUP4 ADD MSTORE PUSH2 0x114E DUP2 PUSH2 0x1115 JUMP JUMPDEST SWAP1 POP SWAP2 SWAP1 POP JUMP JUMPDEST PUSH32 0x4E487B7100000000000000000000000000000000000000000000000000000000 PUSH0 MSTORE PUSH1 0x11 PUSH1 0x4 MSTORE PUSH1 0x24 PUSH0 REVERT JUMPDEST PUSH0 PUSH2 0x118C DUP3 PUSH2 0x9F3 JUMP JUMPDEST SWAP2 POP PUSH2 0x1197 DUP4 PUSH2 0x9F3 JUMP JUMPDEST SWAP3 POP DUP3 DUP3 ADD SWAP1 POP PUSH8 0xFFFFFFFFFFFFFFFF DUP2 GT ISZERO PUSH2 0x11B7 JUMPI PUSH2 0x11B6 PUSH2 0x1155 JUMP JUMPDEST JUMPDEST SWAP3 SWAP2 POP POP JUMP JUMPDEST PUSH32 0x55736572206E6F7420466F756E64210000000000000000000000000000000000 PUSH0 DUP3 ADD MSTORE POP JUMP JUMPDEST PUSH0 PUSH2 0x11F1 PUSH1 0xF DUP4 PUSH2 0x100D JUMP JUMPDEST SWAP2 POP PUSH2 0x11FC DUP3 PUSH2 0x11BD JUMP JUMPDEST PUSH1 0x20 DUP3 ADD SWAP1 POP SWAP2 SWAP1 POP JUMP JUMPDEST PUSH0 PUSH1 0x20 DUP3 ADD SWAP1 POP DUP2 DUP2 SUB PUSH0 DUP4 ADD MSTORE PUSH2 0x121E DUP2 PUSH2 0x11E5 JUMP JUMPDEST SWAP1 POP SWAP2 SWAP1 POP JUMP JUMPDEST PUSH32 0x5769746864726177616C205375636365737366756C0000000000000000000000 PUSH0 DUP3 ADD MSTORE POP JUMP JUMPDEST PUSH0 PUSH2 0x1259 PUSH1 0x15 DUP4 PUSH2 0x100D JUMP JUMPDEST SWAP2 POP PUSH2 0x1264 DUP3 PUSH2 0x1225 JUMP JUMPDEST PUSH1 0x20 DUP3 ADD SWAP1 POP SWAP2 SWAP1 POP JUMP JUMPDEST PUSH0 PUSH1 0x20 DUP3 ADD SWAP1 POP DUP2 DUP2 SUB PUSH0 DUP4 ADD MSTORE PUSH2 0x1286 DUP2 PUSH2 0x124D JUMP JUMPDEST SWAP1 POP SWAP2 SWAP1 POP JUMP JUMPDEST PUSH32 0x5769746864726177616C204661696C6564000000000000000000000000000000 PUSH0 DUP3 ADD MSTORE POP JUMP JUMPDEST PUSH0 PUSH2 0x12C1 PUSH1 0x11 DUP4 PUSH2 0x100D JUMP JUMPDEST SWAP2 POP PUSH2 0x12CC DUP3 PUSH2 0x128D JUMP JUMPDEST PUSH1 0x20 DUP3 ADD SWAP1 POP SWAP2 SWAP1 POP JUMP JUMPDEST PUSH0 PUSH1 0x20 DUP3 ADD SWAP1 POP DUP2 DUP2 SUB PUSH0 DUP4 ADD MSTORE PUSH2 0x12EE DUP2 PUSH2 0x12B5 JUMP JUMPDEST SWAP1 POP SWAP2 SWAP1 POP JUMP JUMPDEST PUSH0 PUSH2 0x12FF DUP3 PUSH2 0x9F3 JUMP JUMPDEST SWAP2 POP PUSH2 0x130A DUP4 PUSH2 0x9F3 JUMP JUMPDEST SWAP3 POP DUP3 DUP3 SUB SWAP1 POP PUSH8 0xFFFFFFFFFFFFFFFF DUP2 GT ISZERO PUSH2 0x132A JUMPI PUSH2 0x1329 PUSH2 0x1155 JUMP JUMPDEST JUMPDEST SWAP3 SWAP2 POP POP JUMP INVALID LOG2 PUSH5 0x6970667358 0x22 SLT KECCAK256 ADD JUMPI 0xD5 0xF6 PUSH32 0x8D60BAD4EFD87EA92BF47EE58DECB8759A149E03504F6513D25A9064736F6C63 NUMBER STOP ADDMOD BYTE STOP CALLER "
				},
				"gasEstimates": {
					"creation": {
						"codeDepositCost": "993200",
						"executionCost": "49615",
						"totalCost": "1042815"
					},
					"external": {
						"deposit(address,uint64)": "infinite",
						"getUserByUsername(string)": "infinite",
						"record(address)": "2876",
						"registerUser(string,address,uint64)": "infinite",
						"status()": "2605",
						"withdraw(address,uint64)": "infinite"
					},
					"internal": {
						"ContractAddr(address)": "2639"
					}
				},
				"methodIdentifiers": {
					"deposit(address,uint64)": "29664ac6",
					"getUserByUsername(string)": "9f42af63",
					"record(address)": "3465d6d5",
					"registerUser(string,address,uint64)": "11a712a0",
					"status()": "200d2ed2",
					"withdraw(address,uint64)": "d6dad060"
				}
			},
			"storageLayout": {
				"storage": [
					{
						"astId": 5,
						"contract": "contracts/bank.sol:bank",
						"label": "record",
						"offset": 0,
						"slot": "0",
						"type": "t_mapping(t_address,t_uint64)"
					},
					{
						"astId": 10,
						"contract": "contracts/bank.sol:bank",
						"label": "users",
						"offset": 0,
						"slot": "1",
						"type": "t_mapping(t_string_memory_ptr,t_struct(User)23_storage)"
					},
					{
						"astId": 13,
						"contract": "contracts/bank.sol:bank",
						"label": "MinDepAmt",
						"offset": 0,
						"slot": "2",
						"type": "t_uint64"
					},
					{
						"astId": 16,
						"contract": "contracts/bank.sol:bank",
						"label": "MaxWithdAmt",
						"offset": 8,
						"slot": "2",
						"type": "t_uint64"
					},
					{
						"astId": 30,
						"contract": "contracts/bank.sol:bank",
						"label": "status",
						"offset": 16,
						"slot": "2",
						"type": "t_enum(Status)27"
					}
				],
				"types": {
					"t_address": {
						"encoding": "inplace",
						"label": "address",
						"numberOfBytes": "20"
					},
					"t_enum(Status)27": {
						"encoding": "inplace",
						"label": "enum bank.Status",
						"numberOfBytes": "1"
					},
					"t_mapping(t_address,t_uint64)": {
						"encoding": "mapping",
						"key": "t_address",
						"label": "mapping(address => uint64)",
						"numberOfBytes": "32",
						"value": "t_uint64"
					},
					"t_mapping(t_string_memory_ptr,t_struct(User)23_storage)": {
						"encoding": "mapping",
						"key": "t_string_memory_ptr",
						"label": "mapping(string => struct bank.User)",
						"numberOfBytes": "32",
						"value": "t_struct(User)23_storage"
					},
					"t_string_memory_ptr": {
						"encoding": "bytes",
						"label": "string",
						"numberOfBytes": "32"
					},
					"t_string_storage": {
						"encoding": "bytes",
						"label": "string",
						"numberOfBytes": "32"
					},
					"t_struct(User)23_storage": {
						"encoding": "inplace",
						"label": "struct bank.User",
						"members": [
							{
								"astId": 18,
								"contract": "contracts/bank.sol:bank",
								"label": "uname",
								"offset": 0,
								"slot": "0",
								"type": "t_string_storage"
							},
							{
								"astId": 20,
								"contract": "contracts/bank.sol:bank",
								"label": "uaddress",
								"offset": 0,
								"slot": "1",
								"type": "t_address"
							},
							{
								"astId": 22,
								"contract": "contracts/bank.sol:bank",
								"label": "balance",
								"offset": 20,
								"slot": "1",
								"type": "t_uint64"
							}
						],
						"numberOfBytes": "64"
					},
					"t_uint64": {
						"encoding": "inplace",
						"label": "uint64",
						"numberOfBytes": "8"
					}
				}
			},
			"userdoc": {
				"kind": "user",
				"methods": {},
				"version": 1
			}
		}
	}
}