{
	"contracts/bank.sol": {
		"JVCBank": {
			"abi": [
				{
					"inputs": [
						{
							"internalType": "uint256",
							"name": "_initialSupply",
							"type": "uint256"
						}
					],
					"stateMutability": "nonpayable",
					"type": "constructor"
				},
				{
					"inputs": [
						{
							"internalType": "address",
							"name": "spender",
							"type": "address"
						},
						{
							"internalType": "uint256",
							"name": "allowance",
							"type": "uint256"
						},
						{
							"internalType": "uint256",
							"name": "needed",
							"type": "uint256"
						}
					],
					"name": "ERC20InsufficientAllowance",
					"type": "error"
				},
				{
					"inputs": [
						{
							"internalType": "address",
							"name": "sender",
							"type": "address"
						},
						{
							"internalType": "uint256",
							"name": "balance",
							"type": "uint256"
						},
						{
							"internalType": "uint256",
							"name": "needed",
							"type": "uint256"
						}
					],
					"name": "ERC20InsufficientBalance",
					"type": "error"
				},
				{
					"inputs": [
						{
							"internalType": "address",
							"name": "approver",
							"type": "address"
						}
					],
					"name": "ERC20InvalidApprover",
					"type": "error"
				},
				{
					"inputs": [
						{
							"internalType": "address",
							"name": "receiver",
							"type": "address"
						}
					],
					"name": "ERC20InvalidReceiver",
					"type": "error"
				},
				{
					"inputs": [
						{
							"internalType": "address",
							"name": "sender",
							"type": "address"
						}
					],
					"name": "ERC20InvalidSender",
					"type": "error"
				},
				{
					"inputs": [
						{
							"internalType": "address",
							"name": "spender",
							"type": "address"
						}
					],
					"name": "ERC20InvalidSpender",
					"type": "error"
				},
				{
					"inputs": [
						{
							"internalType": "address",
							"name": "owner",
							"type": "address"
						}
					],
					"name": "OwnableInvalidOwner",
					"type": "error"
				},
				{
					"inputs": [
						{
							"internalType": "address",
							"name": "account",
							"type": "address"
						}
					],
					"name": "OwnableUnauthorizedAccount",
					"type": "error"
				},
				{
					"anonymous": false,
					"inputs": [
						{
							"indexed": true,
							"internalType": "address",
							"name": "owner",
							"type": "address"
						},
						{
							"indexed": true,
							"internalType": "address",
							"name": "spender",
							"type": "address"
						},
						{
							"indexed": false,
							"internalType": "uint256",
							"name": "value",
							"type": "uint256"
						}
					],
					"name": "Approval",
					"type": "event"
				},
				{
					"anonymous": false,
					"inputs": [
						{
							"indexed": true,
							"internalType": "address",
							"name": "user",
							"type": "address"
						},
						{
							"indexed": false,
							"internalType": "string",
							"name": "message",
							"type": "string"
						}
					],
					"name": "DepositFailed",
					"type": "event"
				},
				{
					"anonymous": false,
					"inputs": [
						{
							"indexed": true,
							"internalType": "address",
							"name": "user",
							"type": "address"
						},
						{
							"indexed": false,
							"internalType": "uint256",
							"name": "amount",
							"type": "uint256"
						}
					],
					"name": "DepositSuccessful",
					"type": "event"
				},
				{
					"anonymous": false,
					"inputs": [
						{
							"indexed": true,
							"internalType": "address",
							"name": "previousOwner",
							"type": "address"
						},
						{
							"indexed": true,
							"internalType": "address",
							"name": "newOwner",
							"type": "address"
						}
					],
					"name": "OwnershipTransferred",
					"type": "event"
				},
				{
					"anonymous": false,
					"inputs": [
						{
							"indexed": true,
							"internalType": "address",
							"name": "from",
							"type": "address"
						},
						{
							"indexed": true,
							"internalType": "address",
							"name": "to",
							"type": "address"
						},
						{
							"indexed": false,
							"internalType": "uint256",
							"name": "value",
							"type": "uint256"
						}
					],
					"name": "Transfer",
					"type": "event"
				},
				{
					"anonymous": false,
					"inputs": [
						{
							"indexed": true,
							"internalType": "address",
							"name": "user",
							"type": "address"
						},
						{
							"indexed": false,
							"internalType": "string",
							"name": "message",
							"type": "string"
						}
					],
					"name": "WithdrawalFailed",
					"type": "event"
				},
				{
					"anonymous": false,
					"inputs": [
						{
							"indexed": true,
							"internalType": "address",
							"name": "addr",
							"type": "address"
						},
						{
							"indexed": true,
							"internalType": "address",
							"name": "user",
							"type": "address"
						},
						{
							"indexed": false,
							"internalType": "uint256",
							"name": "amount",
							"type": "uint256"
						}
					],
					"name": "WithdrawalSuccessful",
					"type": "event"
				},
				{
					"inputs": [
						{
							"internalType": "address",
							"name": "owner",
							"type": "address"
						},
						{
							"internalType": "address",
							"name": "spender",
							"type": "address"
						}
					],
					"name": "allowance",
					"outputs": [
						{
							"internalType": "uint256",
							"name": "",
							"type": "uint256"
						}
					],
					"stateMutability": "view",
					"type": "function"
				},
				{
					"inputs": [
						{
							"internalType": "address",
							"name": "spender",
							"type": "address"
						},
						{
							"internalType": "uint256",
							"name": "value",
							"type": "uint256"
						}
					],
					"name": "approve",
					"outputs": [
						{
							"internalType": "bool",
							"name": "",
							"type": "bool"
						}
					],
					"stateMutability": "nonpayable",
					"type": "function"
				},
				{
					"inputs": [
						{
							"internalType": "address",
							"name": "account",
							"type": "address"
						}
					],
					"name": "balanceOf",
					"outputs": [
						{
							"internalType": "uint256",
							"name": "",
							"type": "uint256"
						}
					],
					"stateMutability": "view",
					"type": "function"
				},
				{
					"inputs": [
						{
							"internalType": "uint256",
							"name": "amount",
							"type": "uint256"
						}
					],
					"name": "burnToken",
					"outputs": [],
					"stateMutability": "nonpayable",
					"type": "function"
				},
				{
					"inputs": [],
					"name": "decimals",
					"outputs": [
						{
							"internalType": "uint8",
							"name": "",
							"type": "uint8"
						}
					],
					"stateMutability": "view",
					"type": "function"
				},
				{
					"inputs": [],
					"name": "deposit",
					"outputs": [],
					"stateMutability": "payable",
					"type": "function"
				},
				{
					"inputs": [
						{
							"internalType": "address",
							"name": "userAddress",
							"type": "address"
						}
					],
					"name": "getUserByAddress",
					"outputs": [
						{
							"components": [
								{
									"internalType": "address",
									"name": "uAddr",
									"type": "address"
								},
								{
									"internalType": "string",
									"name": "uName",
									"type": "string"
								},
								{
									"internalType": "uint256",
									"name": "balance",
									"type": "uint256"
								}
							],
							"internalType": "struct JVCBank.User",
							"name": "",
							"type": "tuple"
						}
					],
					"stateMutability": "view",
					"type": "function"
				},
				{
					"inputs": [
						{
							"internalType": "string",
							"name": "Uname",
							"type": "string"
						}
					],
					"name": "getUserByName",
					"outputs": [
						{
							"components": [
								{
									"internalType": "address",
									"name": "uAddr",
									"type": "address"
								},
								{
									"internalType": "string",
									"name": "uName",
									"type": "string"
								},
								{
									"internalType": "uint256",
									"name": "balance",
									"type": "uint256"
								}
							],
							"internalType": "struct JVCBank.User",
							"name": "",
							"type": "tuple"
						}
					],
					"stateMutability": "view",
					"type": "function"
				},
				{
					"inputs": [
						{
							"internalType": "uint256",
							"name": "amount",
							"type": "uint256"
						}
					],
					"name": "mintToken",
					"outputs": [],
					"stateMutability": "nonpayable",
					"type": "function"
				},
				{
					"inputs": [],
					"name": "name",
					"outputs": [
						{
							"internalType": "string",
							"name": "",
							"type": "string"
						}
					],
					"stateMutability": "view",
					"type": "function"
				},
				{
					"inputs": [],
					"name": "owner",
					"outputs": [
						{
							"internalType": "address",
							"name": "",
							"type": "address"
						}
					],
					"stateMutability": "view",
					"type": "function"
				},
				{
					"inputs": [
						{
							"internalType": "string",
							"name": "uname",
							"type": "string"
						},
						{
							"internalType": "address payable",
							"name": "addr",
							"type": "address"
						}
					],
					"name": "registerUser",
					"outputs": [],
					"stateMutability": "nonpayable",
					"type": "function"
				},
				{
					"inputs": [],
					"name": "renounceOwnership",
					"outputs": [],
					"stateMutability": "nonpayable",
					"type": "function"
				},
				{
					"inputs": [],
					"name": "status",
					"outputs": [
						{
							"internalType": "enum JVCBank.Status",
							"name": "",
							"type": "uint8"
						}
					],
					"stateMutability": "view",
					"type": "function"
				},
				{
					"inputs": [],
					"name": "symbol",
					"outputs": [
						{
							"internalType": "string",
							"name": "",
							"type": "string"
						}
					],
					"stateMutability": "view",
					"type": "function"
				},
				{
					"inputs": [],
					"name": "totalSupply",
					"outputs": [
						{
							"internalType": "uint256",
							"name": "",
							"type": "uint256"
						}
					],
					"stateMutability": "view",
					"type": "function"
				},
				{
					"inputs": [
						{
							"internalType": "address",
							"name": "to",
							"type": "address"
						},
						{
							"internalType": "uint256",
							"name": "value",
							"type": "uint256"
						}
					],
					"name": "transfer",
					"outputs": [
						{
							"internalType": "bool",
							"name": "",
							"type": "bool"
						}
					],
					"stateMutability": "nonpayable",
					"type": "function"
				},
				{
					"inputs": [
						{
							"internalType": "address",
							"name": "from",
							"type": "address"
						},
						{
							"internalType": "address",
							"name": "to",
							"type": "address"
						},
						{
							"internalType": "uint256",
							"name": "value",
							"type": "uint256"
						}
					],
					"name": "transferFrom",
					"outputs": [
						{
							"internalType": "bool",
							"name": "",
							"type": "bool"
						}
					],
					"stateMutability": "nonpayable",
					"type": "function"
				},
				{
					"inputs": [
						{
							"internalType": "address",
							"name": "newOwner",
							"type": "address"
						}
					],
					"name": "transferOwnership",
					"outputs": [],
					"stateMutability": "nonpayable",
					"type": "function"
				},
				{
					"inputs": [
						{
							"internalType": "address",
							"name": "_newOwner",
							"type": "address"
						}
					],
					"name": "transferOwnership_",
					"outputs": [],
					"stateMutability": "nonpayable",
					"type": "function"
				},
				{
					"inputs": [
						{
							"internalType": "address",
							"name": "",
							"type": "address"
						}
					],
					"name": "users",
					"outputs": [
						{
							"internalType": "address",
							"name": "uAddr",
							"type": "address"
						},
						{
							"internalType": "string",
							"name": "uName",
							"type": "string"
						},
						{
							"internalType": "uint256",
							"name": "balance",
							"type": "uint256"
						}
					],
					"stateMutability": "view",
					"type": "function"
				},
				{
					"inputs": [
						{
							"internalType": "uint256",
							"name": "amount",
							"type": "uint256"
						},
						{
							"internalType": "address payable",
							"name": "addr",
							"type": "address"
						}
					],
					"name": "withdraw",
					"outputs": [],
					"stateMutability": "payable",
					"type": "function"
				}
			],
			"devdoc": {
				"errors": {
					"ERC20InsufficientAllowance(address,uint256,uint256)": [
						{
							"details": "Indicates a failure with the `spender`’s `allowance`. Used in transfers.",
							"params": {
								"allowance": "Amount of tokens a `spender` is allowed to operate with.",
								"needed": "Minimum amount required to perform a transfer.",
								"spender": "Address that may be allowed to operate on tokens without being their owner."
							}
						}
					],
					"ERC20InsufficientBalance(address,uint256,uint256)": [
						{
							"details": "Indicates an error related to the current `balance` of a `sender`. Used in transfers.",
							"params": {
								"balance": "Current balance for the interacting account.",
								"needed": "Minimum amount required to perform a transfer.",
								"sender": "Address whose tokens are being transferred."
							}
						}
					],
					"ERC20InvalidApprover(address)": [
						{
							"details": "Indicates a failure with the `approver` of a token to be approved. Used in approvals.",
							"params": {
								"approver": "Address initiating an approval operation."
							}
						}
					],
					"ERC20InvalidReceiver(address)": [
						{
							"details": "Indicates a failure with the token `receiver`. Used in transfers.",
							"params": {
								"receiver": "Address to which tokens are being transferred."
							}
						}
					],
					"ERC20InvalidSender(address)": [
						{
							"details": "Indicates a failure with the token `sender`. Used in transfers.",
							"params": {
								"sender": "Address whose tokens are being transferred."
							}
						}
					],
					"ERC20InvalidSpender(address)": [
						{
							"details": "Indicates a failure with the `spender` to be approved. Used in approvals.",
							"params": {
								"spender": "Address that may be allowed to operate on tokens without being their owner."
							}
						}
					],
					"OwnableInvalidOwner(address)": [
						{
							"details": "The owner is not a valid owner account. (eg. `address(0)`)"
						}
					],
					"OwnableUnauthorizedAccount(address)": [
						{
							"details": "The caller account is not authorized to perform an operation."
						}
					]
				},
				"events": {
					"Approval(address,address,uint256)": {
						"details": "Emitted when the allowance of a `spender` for an `owner` is set by a call to {approve}. `value` is the new allowance."
					},
					"Transfer(address,address,uint256)": {
						"details": "Emitted when `value` tokens are moved from one account (`from`) to another (`to`). Note that `value` may be zero."
					}
				},
				"kind": "dev",
				"methods": {
					"allowance(address,address)": {
						"details": "See {IERC20-allowance}."
					},
					"approve(address,uint256)": {
						"details": "See {IERC20-approve}. NOTE: If `value` is the maximum `uint256`, the allowance is not updated on `transferFrom`. This is semantically equivalent to an infinite approval. Requirements: - `spender` cannot be the zero address."
					},
					"balanceOf(address)": {
						"details": "See {IERC20-balanceOf}."
					},
					"decimals()": {
						"details": "Returns the number of decimals used to get its user representation. For example, if `decimals` equals `2`, a balance of `505` tokens should be displayed to a user as `5.05` (`505 / 10 ** 2`). Tokens usually opt for a value of 18, imitating the relationship between Ether and Wei. This is the default value returned by this function, unless it's overridden. NOTE: This information is only used for _display_ purposes: it in no way affects any of the arithmetic of the contract, including {IERC20-balanceOf} and {IERC20-transfer}."
					},
					"name()": {
						"details": "Returns the name of the token."
					},
					"owner()": {
						"details": "Returns the address of the current owner."
					},
					"renounceOwnership()": {
						"details": "Leaves the contract without owner. It will not be possible to call `onlyOwner` functions. Can only be called by the current owner. NOTE: Renouncing ownership will leave the contract without an owner, thereby disabling any functionality that is only available to the owner."
					},
					"symbol()": {
						"details": "Returns the symbol of the token, usually a shorter version of the name."
					},
					"totalSupply()": {
						"details": "See {IERC20-totalSupply}."
					},
					"transfer(address,uint256)": {
						"details": "See {IERC20-transfer}. Requirements: - `to` cannot be the zero address. - the caller must have a balance of at least `value`."
					},
					"transferFrom(address,address,uint256)": {
						"details": "See {IERC20-transferFrom}. Emits an {Approval} event indicating the updated allowance. This is not required by the EIP. See the note at the beginning of {ERC20}. NOTE: Does not update the allowance if the current allowance is the maximum `uint256`. Requirements: - `from` and `to` cannot be the zero address. - `from` must have a balance of at least `value`. - the caller must have allowance for ``from``'s tokens of at least `value`."
					},
					"transferOwnership(address)": {
						"details": "Transfers ownership of the contract to a new account (`newOwner`). Can only be called by the current owner."
					}
				},
				"version": 1
			},
			"evm": {
				"assembly": "    /* \"contracts/bank.sol\":134:3392  contract JVCBank is Ownable, JVCToken {... */\n  mstore(0x40, 0x80)\n    /* \"contracts/bank.sol\":282:295  0.00038 ether */\n  0x01599ba503c000\n    /* \"contracts/bank.sol\":254:295  uint256 private minDepAmt = 0.00038 ether */\n  0x07\n  sstore\n    /* \"contracts/bank.sol\":331:338  1 ether */\n  0x0de0b6b3a7640000\n    /* \"contracts/bank.sol\":301:338  uint256 private maxWithdAmt = 1 ether */\n  0x08\n  sstore\n    /* \"contracts/bank.sol\":1391:1453  constructor(uint256 _initialSupply) JVCToken(_initialSupply){} */\n  callvalue\n  dup1\n  iszero\n  tag_1\n  jumpi\n  0x00\n  dup1\n  revert\ntag_1:\n  pop\n  mload(0x40)\n  sub(codesize, bytecodeSize)\n  dup1\n  bytecodeSize\n  dup4\n  codecopy\n  dup2\n  add\n  0x40\n  dup2\n  swap1\n  mstore\n  tag_2\n  swap2\n  tag_3\n  jump\t// in\ntag_2:\n    /* \"contracts/bank.sol\":1436:1450  _initialSupply */\n  dup1\n    /* \"contracts/token.sol\":279:289  msg.sender */\n  caller\n    /* \"@openzeppelin/contracts/token/ERC20/ERC20.sol\":1896:2009  constructor(string memory name_, string memory symbol_) {... */\n  mload(0x40)\n  dup1\n  0x40\n  add\n  0x40\n  mstore\n  dup1\n  0x08\n  dup2\n  mstore\n  0x20\n  add\n  shl(0xc1, 0x252b21aa37b5b2b7)\n  dup2\n  mstore\n  pop\n  mload(0x40)\n  dup1\n  0x40\n  add\n  0x40\n  mstore\n  dup1\n  0x03\n  dup2\n  mstore\n  0x20\n  add\n  shl(0xe8, 0x4a5643)\n  dup2\n  mstore\n  pop\n    /* \"@openzeppelin/contracts/token/ERC20/ERC20.sol\":1970:1975  name_ */\n  dup2\n    /* \"@openzeppelin/contracts/token/ERC20/ERC20.sol\":1962:1967  _name */\n  0x03\n    /* \"@openzeppelin/contracts/token/ERC20/ERC20.sol\":1962:1975  _name = name_ */\n  swap1\n  dup2\n  tag_9\n  swap2\n  swap1\n  tag_10\n  jump\t// in\ntag_9:\n  pop\n    /* \"@openzeppelin/contracts/token/ERC20/ERC20.sol\":1985:1992  _symbol */\n  0x04\n    /* \"@openzeppelin/contracts/token/ERC20/ERC20.sol\":1985:2002  _symbol = symbol_ */\n  tag_11\n    /* \"@openzeppelin/contracts/token/ERC20/ERC20.sol\":1995:2002  symbol_ */\n  dup3\n    /* \"@openzeppelin/contracts/token/ERC20/ERC20.sol\":1985:1992  _symbol */\n  dup3\n    /* \"@openzeppelin/contracts/token/ERC20/ERC20.sol\":1985:2002  _symbol = symbol_ */\n  tag_10\n  jump\t// in\ntag_11:\n  pop\n  pop\n  pop\n  sub(shl(0xa0, 0x01), 0x01)\n    /* \"@openzeppelin/contracts/access/Ownable.sol\":1273:1299  initialOwner == address(0) */\n  dup2\n  and\n    /* \"@openzeppelin/contracts/access/Ownable.sol\":1269:1364  if (initialOwner == address(0)) {... */\n  tag_13\n  jumpi\n    /* \"@openzeppelin/contracts/access/Ownable.sol\":1322:1353  OwnableInvalidOwner(address(0)) */\n  mload(0x40)\n  shl(0xe0, 0x1e4fbdf7)\n  dup2\n  mstore\n    /* \"@openzeppelin/contracts/access/Ownable.sol\":1350:1351  0 */\n  0x00\n    /* \"@openzeppelin/contracts/access/Ownable.sol\":1322:1353  OwnableInvalidOwner(address(0)) */\n  0x04\n  dup3\n  add\n    /* \"#utility.yul\":2990:3041   */\n  mstore\n    /* \"#utility.yul\":2963:2981   */\n  0x24\n  add\n    /* \"@openzeppelin/contracts/access/Ownable.sol\":1322:1353  OwnableInvalidOwner(address(0)) */\n  mload(0x40)\n  dup1\n  swap2\n  sub\n  swap1\n  revert\n    /* \"@openzeppelin/contracts/access/Ownable.sol\":1269:1364  if (initialOwner == address(0)) {... */\ntag_13:\n    /* \"@openzeppelin/contracts/access/Ownable.sol\":1373:1405  _transferOwnership(initialOwner) */\n  tag_16\n    /* \"@openzeppelin/contracts/access/Ownable.sol\":1392:1404  initialOwner */\n  dup2\n    /* \"@openzeppelin/contracts/access/Ownable.sol\":1373:1391  _transferOwnership */\n  tag_17\n    /* \"@openzeppelin/contracts/access/Ownable.sol\":1373:1405  _transferOwnership(initialOwner) */\n  jump\t// in\ntag_16:\n    /* \"@openzeppelin/contracts/access/Ownable.sol\":1225:1412  constructor(address initialOwner) {... */\n  pop\n    /* \"contracts/token.sol\":210:293  constructor(uint256 _initialSupply) ERC20(\"JVCToken\", \"JVC\") Ownable(msg.sender) {} */\n  pop\n    /* \"contracts/bank.sol\":1391:1453  constructor(uint256 _initialSupply) JVCToken(_initialSupply){} */\n  pop\n    /* \"contracts/bank.sol\":134:3392  contract JVCBank is Ownable, JVCToken {... */\n  jump(tag_27)\n    /* \"@openzeppelin/contracts/access/Ownable.sol\":2912:3099  function _transferOwnership(address newOwner) internal virtual {... */\ntag_17:\n    /* \"@openzeppelin/contracts/access/Ownable.sol\":3004:3010  _owner */\n  0x05\n  dup1\n  sload\n  sub(shl(0xa0, 0x01), 0x01)\n    /* \"@openzeppelin/contracts/access/Ownable.sol\":3020:3037  _owner = newOwner */\n  dup4\n  dup2\n  and\n  not(sub(shl(0xa0, 0x01), 0x01))\n  dup4\n  and\n  dup2\n  or\n  swap1\n  swap4\n  sstore\n    /* \"@openzeppelin/contracts/access/Ownable.sol\":3052:3092  OwnershipTransferred(oldOwner, newOwner) */\n  mload(0x40)\n    /* \"@openzeppelin/contracts/access/Ownable.sol\":3004:3010  _owner */\n  swap2\n  and\n  swap2\n    /* \"@openzeppelin/contracts/access/Ownable.sol\":3020:3037  _owner = newOwner */\n  swap1\n    /* \"@openzeppelin/contracts/access/Ownable.sol\":3004:3010  _owner */\n  dup3\n  swap1\n    /* \"@openzeppelin/contracts/access/Ownable.sol\":3052:3092  OwnershipTransferred(oldOwner, newOwner) */\n  0x8be0079c531659141344cd1fd0a4f28419497f9722a3daafe3b4186f6b6457e0\n  swap1\n    /* \"@openzeppelin/contracts/access/Ownable.sol\":2985:3001  address oldOwner */\n  0x00\n  swap1\n    /* \"@openzeppelin/contracts/access/Ownable.sol\":3052:3092  OwnershipTransferred(oldOwner, newOwner) */\n  log3\n    /* \"@openzeppelin/contracts/access/Ownable.sol\":2975:3099  {... */\n  pop\n    /* \"@openzeppelin/contracts/access/Ownable.sol\":2912:3099  function _transferOwnership(address newOwner) internal virtual {... */\n  pop\n  jump\t// out\n    /* \"#utility.yul\":14:198   */\ntag_3:\n    /* \"#utility.yul\":84:90   */\n  0x00\n    /* \"#utility.yul\":137:139   */\n  0x20\n    /* \"#utility.yul\":125:134   */\n  dup3\n    /* \"#utility.yul\":116:123   */\n  dup5\n    /* \"#utility.yul\":112:135   */\n  sub\n    /* \"#utility.yul\":108:140   */\n  slt\n    /* \"#utility.yul\":105:157   */\n  iszero\n  tag_29\n  jumpi\n    /* \"#utility.yul\":153:154   */\n  0x00\n    /* \"#utility.yul\":150:151   */\n  dup1\n    /* \"#utility.yul\":143:155   */\n  revert\n    /* \"#utility.yul\":105:157   */\ntag_29:\n  pop\n    /* \"#utility.yul\":176:192   */\n  mload\n  swap2\n    /* \"#utility.yul\":14:198   */\n  swap1\n  pop\n  jump\t// out\n    /* \"#utility.yul\":203:330   */\ntag_22:\n    /* \"#utility.yul\":264:274   */\n  0x4e487b71\n    /* \"#utility.yul\":259:262   */\n  0xe0\n    /* \"#utility.yul\":255:275   */\n  shl\n    /* \"#utility.yul\":252:253   */\n  0x00\n    /* \"#utility.yul\":245:276   */\n  mstore\n    /* \"#utility.yul\":295:299   */\n  0x41\n    /* \"#utility.yul\":292:293   */\n  0x04\n    /* \"#utility.yul\":285:300   */\n  mstore\n    /* \"#utility.yul\":319:323   */\n  0x24\n    /* \"#utility.yul\":316:317   */\n  0x00\n    /* \"#utility.yul\":309:324   */\n  revert\n    /* \"#utility.yul\":335:715   */\ntag_23:\n    /* \"#utility.yul\":414:415   */\n  0x01\n    /* \"#utility.yul\":410:422   */\n  dup2\n  dup2\n  shr\n  swap1\n    /* \"#utility.yul\":457:469   */\n  dup3\n  and\n  dup1\n    /* \"#utility.yul\":478:539   */\n  tag_32\n  jumpi\n    /* \"#utility.yul\":532:536   */\n  0x7f\n    /* \"#utility.yul\":524:530   */\n  dup3\n    /* \"#utility.yul\":520:537   */\n  and\n    /* \"#utility.yul\":510:537   */\n  swap2\n  pop\n    /* \"#utility.yul\":478:539   */\ntag_32:\n    /* \"#utility.yul\":585:587   */\n  0x20\n    /* \"#utility.yul\":577:583   */\n  dup3\n    /* \"#utility.yul\":574:588   */\n  lt\n    /* \"#utility.yul\":554:572   */\n  dup2\n    /* \"#utility.yul\":551:589   */\n  sub\n    /* \"#utility.yul\":548:709   */\n  tag_33\n  jumpi\n    /* \"#utility.yul\":631:641   */\n  0x4e487b71\n    /* \"#utility.yul\":626:629   */\n  0xe0\n    /* \"#utility.yul\":622:642   */\n  shl\n    /* \"#utility.yul\":619:620   */\n  0x00\n    /* \"#utility.yul\":612:643   */\n  mstore\n    /* \"#utility.yul\":666:670   */\n  0x22\n    /* \"#utility.yul\":663:664   */\n  0x04\n    /* \"#utility.yul\":656:671   */\n  mstore\n    /* \"#utility.yul\":694:698   */\n  0x24\n    /* \"#utility.yul\":691:692   */\n  0x00\n    /* \"#utility.yul\":684:699   */\n  revert\n    /* \"#utility.yul\":548:709   */\ntag_33:\n  pop\n    /* \"#utility.yul\":335:715   */\n  swap2\n  swap1\n  pop\n  jump\t// out\n    /* \"#utility.yul\":846:1364   */\ntag_25:\n    /* \"#utility.yul\":948:950   */\n  0x1f\n    /* \"#utility.yul\":943:946   */\n  dup3\n    /* \"#utility.yul\":940:951   */\n  gt\n    /* \"#utility.yul\":937:1358   */\n  iszero\n  tag_36\n  jumpi\n    /* \"#utility.yul\":984:989   */\n  dup1\n    /* \"#utility.yul\":981:982   */\n  0x00\n    /* \"#utility.yul\":974:990   */\n  mstore\n    /* \"#utility.yul\":1028:1032   */\n  0x20\n    /* \"#utility.yul\":1025:1026   */\n  0x00\n    /* \"#utility.yul\":1015:1033   */\n  keccak256\n    /* \"#utility.yul\":1098:1100   */\n  0x1f\n    /* \"#utility.yul\":1086:1096   */\n  dup5\n    /* \"#utility.yul\":1082:1101   */\n  add\n    /* \"#utility.yul\":1079:1080   */\n  0x05\n    /* \"#utility.yul\":1075:1102   */\n  shr\n    /* \"#utility.yul\":1069:1073   */\n  dup2\n    /* \"#utility.yul\":1065:1103   */\n  add\n    /* \"#utility.yul\":1134:1138   */\n  0x20\n    /* \"#utility.yul\":1122:1132   */\n  dup6\n    /* \"#utility.yul\":1119:1139   */\n  lt\n    /* \"#utility.yul\":1116:1163   */\n  iszero\n  tag_37\n  jumpi\n  pop\n    /* \"#utility.yul\":1157:1161   */\n  dup1\n    /* \"#utility.yul\":1116:1163   */\ntag_37:\n    /* \"#utility.yul\":1212:1214   */\n  0x1f\n    /* \"#utility.yul\":1207:1210   */\n  dup5\n    /* \"#utility.yul\":1203:1215   */\n  add\n    /* \"#utility.yul\":1200:1201   */\n  0x05\n    /* \"#utility.yul\":1196:1216   */\n  shr\n    /* \"#utility.yul\":1190:1194   */\n  dup3\n    /* \"#utility.yul\":1186:1217   */\n  add\n    /* \"#utility.yul\":1176:1217   */\n  swap2\n  pop\n    /* \"#utility.yul\":1267:1348   */\ntag_38:\n    /* \"#utility.yul\":1285:1287   */\n  dup2\n    /* \"#utility.yul\":1278:1283   */\n  dup2\n    /* \"#utility.yul\":1275:1288   */\n  lt\n    /* \"#utility.yul\":1267:1348   */\n  iszero\n  tag_40\n  jumpi\n    /* \"#utility.yul\":1344:1345   */\n  0x00\n    /* \"#utility.yul\":1330:1346   */\n  dup2\n  sstore\n    /* \"#utility.yul\":1311:1312   */\n  0x01\n    /* \"#utility.yul\":1300:1313   */\n  add\n    /* \"#utility.yul\":1267:1348   */\n  jump(tag_38)\ntag_40:\n    /* \"#utility.yul\":1271:1274   */\n  pop\n  pop\n    /* \"#utility.yul\":937:1358   */\ntag_36:\n    /* \"#utility.yul\":846:1364   */\n  pop\n  pop\n  pop\n  jump\t// out\n    /* \"#utility.yul\":1540:2839   */\ntag_10:\n    /* \"#utility.yul\":1660:1670   */\n  dup2\n  mload\n  sub(shl(0x40, 0x01), 0x01)\n    /* \"#utility.yul\":1682:1712   */\n  dup2\n  gt\n    /* \"#utility.yul\":1679:1735   */\n  iszero\n  tag_44\n  jumpi\n    /* \"#utility.yul\":1715:1733   */\n  tag_44\n  tag_22\n  jump\t// in\ntag_44:\n    /* \"#utility.yul\":1744:1841   */\n  tag_45\n    /* \"#utility.yul\":1834:1840   */\n  dup2\n    /* \"#utility.yul\":1794:1832   */\n  tag_46\n    /* \"#utility.yul\":1826:1830   */\n  dup5\n    /* \"#utility.yul\":1820:1831   */\n  sload\n    /* \"#utility.yul\":1794:1832   */\n  tag_23\n  jump\t// in\ntag_46:\n    /* \"#utility.yul\":1788:1792   */\n  dup5\n    /* \"#utility.yul\":1744:1841   */\n  tag_25\n  jump\t// in\ntag_45:\n    /* \"#utility.yul\":1890:1894   */\n  0x20\n    /* \"#utility.yul\":1921:1923   */\n  0x1f\n    /* \"#utility.yul\":1910:1924   */\n  dup3\n  gt\n    /* \"#utility.yul\":1938:1939   */\n  0x01\n    /* \"#utility.yul\":1933:2582   */\n  dup2\n  eq\n  tag_48\n  jumpi\n    /* \"#utility.yul\":2626:2627   */\n  0x00\n    /* \"#utility.yul\":2643:2649   */\n  dup4\n    /* \"#utility.yul\":2640:2729   */\n  iszero\n  tag_49\n  jumpi\n  pop\n    /* \"#utility.yul\":2695:2714   */\n  dup5\n  dup3\n  add\n    /* \"#utility.yul\":2689:2715   */\n  mload\n    /* \"#utility.yul\":2640:2729   */\ntag_49:\n  not(0x00)\n    /* \"#utility.yul\":1497:1498   */\n  0x03\n    /* \"#utility.yul\":1493:1504   */\n  dup6\n  swap1\n  shl\n    /* \"#utility.yul\":1489:1513   */\n  shr\n    /* \"#utility.yul\":1485:1514   */\n  not\n    /* \"#utility.yul\":1475:1515   */\n  and\n    /* \"#utility.yul\":1521:1522   */\n  0x01\n    /* \"#utility.yul\":1517:1528   */\n  dup5\n  swap1\n  shl\n    /* \"#utility.yul\":1472:1529   */\n  or\n    /* \"#utility.yul\":2742:2823   */\n  dup5\n  sstore\n    /* \"#utility.yul\":1903:2833   */\n  jump(tag_40)\n    /* \"#utility.yul\":1933:2582   */\ntag_48:\n    /* \"#utility.yul\":793:794   */\n  0x00\n    /* \"#utility.yul\":786:800   */\n  dup5\n  dup2\n  mstore\n    /* \"#utility.yul\":830:834   */\n  0x20\n    /* \"#utility.yul\":817:835   */\n  dup2\n  keccak256\n  not(0x1f)\n    /* \"#utility.yul\":1969:1989   */\n  dup6\n  and\n  swap2\n    /* \"#utility.yul\":2087:2309   */\ntag_52:\n    /* \"#utility.yul\":2101:2108   */\n  dup3\n    /* \"#utility.yul\":2098:2099   */\n  dup2\n    /* \"#utility.yul\":2095:2109   */\n  lt\n    /* \"#utility.yul\":2087:2309   */\n  iszero\n  tag_54\n  jumpi\n    /* \"#utility.yul\":2183:2202   */\n  dup8\n  dup6\n  add\n    /* \"#utility.yul\":2177:2203   */\n  mload\n    /* \"#utility.yul\":2162:2204   */\n  dup3\n  sstore\n    /* \"#utility.yul\":2290:2294   */\n  0x20\n    /* \"#utility.yul\":2275:2295   */\n  swap5\n  dup6\n  add\n  swap5\n    /* \"#utility.yul\":2243:2244   */\n  0x01\n    /* \"#utility.yul\":2231:2245   */\n  swap1\n  swap3\n  add\n  swap2\n    /* \"#utility.yul\":2117:2129   */\n  add\n    /* \"#utility.yul\":2087:2309   */\n  jump(tag_52)\ntag_54:\n    /* \"#utility.yul\":2091:2094   */\n  pop\n    /* \"#utility.yul\":2337:2343   */\n  dup5\n    /* \"#utility.yul\":2328:2335   */\n  dup3\n    /* \"#utility.yul\":2325:2344   */\n  lt\n    /* \"#utility.yul\":2322:2523   */\n  iszero\n  tag_55\n  jumpi\n    /* \"#utility.yul\":2398:2417   */\n  dup7\n  dup5\n  add\n    /* \"#utility.yul\":2392:2418   */\n  mload\n  not(0x00)\n    /* \"#utility.yul\":2481:2482   */\n  0x03\n    /* \"#utility.yul\":2477:2491   */\n  dup8\n  swap1\n  shl\n    /* \"#utility.yul\":2493:2496   */\n  0xf8\n    /* \"#utility.yul\":2473:2497   */\n  and\n    /* \"#utility.yul\":2469:2506   */\n  shr\n    /* \"#utility.yul\":2465:2507   */\n  not\n    /* \"#utility.yul\":2450:2508   */\n  and\n    /* \"#utility.yul\":2435:2509   */\n  dup2\n  sstore\n    /* \"#utility.yul\":2322:2523   */\ntag_55:\n  pop\n  pop\n  pop\n  pop\n    /* \"#utility.yul\":2569:2570   */\n  0x01\n    /* \"#utility.yul\":2553:2567   */\n  swap1\n  dup2\n  shl\n    /* \"#utility.yul\":2549:2571   */\n  add\n    /* \"#utility.yul\":2536:2572   */\n  swap1\n  sstore\n  pop\n    /* \"#utility.yul\":1540:2839   */\n  jump\t// out\n    /* \"#utility.yul\":2844:3047   */\ntag_27:\n    /* \"contracts/bank.sol\":134:3392  contract JVCBank is Ownable, JVCToken {... */\n  dataSize(sub_0)\n  dup1\n  dataOffset(sub_0)\n  0x00\n  codecopy\n  0x00\n  return\nstop\n\nsub_0: assembly {\n        /* \"contracts/bank.sol\":134:3392  contract JVCBank is Ownable, JVCToken {... */\n      mstore(0x40, 0x80)\n      jumpi(tag_1, lt(calldatasize, 0x04))\n      shr(0xe0, calldataload(0x00))\n      dup1\n      0x70a08231\n      gt\n      tag_24\n      jumpi\n      dup1\n      0xa87430ba\n      gt\n      tag_25\n      jumpi\n      dup1\n      0xa87430ba\n      eq\n      tag_18\n      jumpi\n      dup1\n      0xa9059cbb\n      eq\n      tag_19\n      jumpi\n      dup1\n      0xc634d032\n      eq\n      tag_20\n      jumpi\n      dup1\n      0xd0e30db0\n      eq\n      tag_21\n      jumpi\n      dup1\n      0xdd62ed3e\n      eq\n      tag_22\n      jumpi\n      dup1\n      0xf2fde38b\n      eq\n      tag_23\n      jumpi\n      0x00\n      dup1\n      revert\n    tag_25:\n      dup1\n      0x70a08231\n      eq\n      tag_13\n      jumpi\n      dup1\n      0x715018a6\n      eq\n      tag_14\n      jumpi\n      dup1\n      0x7b47ec1a\n      eq\n      tag_15\n      jumpi\n      dup1\n      0x8da5cb5b\n      eq\n      tag_16\n      jumpi\n      dup1\n      0x95d89b41\n      eq\n      tag_17\n      jumpi\n      0x00\n      dup1\n      revert\n    tag_24:\n      dup1\n      0x200d2ed2\n      gt\n      tag_26\n      jumpi\n      dup1\n      0x200d2ed2\n      eq\n      tag_7\n      jumpi\n      dup1\n      0x23b872dd\n      eq\n      tag_8\n      jumpi\n      dup1\n      0x313ce567\n      eq\n      tag_9\n      jumpi\n      dup1\n      0x4bff5009\n      eq\n      tag_10\n      jumpi\n      dup1\n      0x6281b95b\n      eq\n      tag_11\n      jumpi\n      dup1\n      0x69c212f6\n      eq\n      tag_12\n      jumpi\n      0x00\n      dup1\n      revert\n    tag_26:\n      dup1\n      0xf714ce\n      eq\n      tag_2\n      jumpi\n      dup1\n      0x06fdde03\n      eq\n      tag_3\n      jumpi\n      dup1\n      0x095ea7b3\n      eq\n      tag_4\n      jumpi\n      dup1\n      0x0e54b872\n      eq\n      tag_5\n      jumpi\n      dup1\n      0x18160ddd\n      eq\n      tag_6\n      jumpi\n    tag_1:\n      0x00\n      dup1\n      revert\n        /* \"contracts/bank.sol\":2639:3019  function withdraw(uint256 amount, address payable addr) public payable verifyAddr(msg.sender) {... */\n    tag_2:\n      tag_27\n      tag_28\n      calldatasize\n      0x04\n      tag_29\n      jump\t// in\n    tag_28:\n      tag_30\n      jump\t// in\n    tag_27:\n      stop\n        /* \"@openzeppelin/contracts/token/ERC20/ERC20.sol\":2074:2163  function name() public view virtual returns (string memory) {... */\n    tag_3:\n      callvalue\n      dup1\n      iszero\n      tag_31\n      jumpi\n      0x00\n      dup1\n      revert\n    tag_31:\n      pop\n      tag_32\n      tag_33\n      jump\t// in\n    tag_32:\n      mload(0x40)\n      tag_34\n      swap2\n      swap1\n      tag_35\n      jump\t// in\n    tag_34:\n      mload(0x40)\n      dup1\n      swap2\n      sub\n      swap1\n      return\n        /* \"@openzeppelin/contracts/token/ERC20/ERC20.sol\":4293:4479  function approve(address spender, uint256 value) public virtual returns (bool) {... */\n    tag_4:\n      callvalue\n      dup1\n      iszero\n      tag_36\n      jumpi\n      0x00\n      dup1\n      revert\n    tag_36:\n      pop\n      tag_37\n      tag_38\n      calldatasize\n      0x04\n      tag_39\n      jump\t// in\n    tag_38:\n      tag_40\n      jump\t// in\n    tag_37:\n      mload(0x40)\n        /* \"#utility.yul\":1610:1624   */\n      swap1\n      iszero\n        /* \"#utility.yul\":1603:1625   */\n      iszero\n        /* \"#utility.yul\":1585:1626   */\n      dup2\n      mstore\n        /* \"#utility.yul\":1573:1575   */\n      0x20\n        /* \"#utility.yul\":1558:1576   */\n      add\n        /* \"@openzeppelin/contracts/token/ERC20/ERC20.sol\":4293:4479  function approve(address spender, uint256 value) public virtual returns (bool) {... */\n      tag_34\n        /* \"#utility.yul\":1445:1632   */\n      jump\n        /* \"contracts/bank.sol\":1481:1687  function registerUser(string memory uname, address payable addr) public {... */\n    tag_5:\n      callvalue\n      dup1\n      iszero\n      tag_43\n      jumpi\n      0x00\n      dup1\n      revert\n    tag_43:\n      pop\n      tag_27\n      tag_45\n      calldatasize\n      0x04\n      tag_46\n      jump\t// in\n    tag_45:\n      tag_47\n      jump\t// in\n        /* \"@openzeppelin/contracts/token/ERC20/ERC20.sol\":3144:3241  function totalSupply() public view virtual returns (uint256) {... */\n    tag_6:\n      callvalue\n      dup1\n      iszero\n      tag_48\n      jumpi\n      0x00\n      dup1\n      revert\n    tag_48:\n      pop\n        /* \"@openzeppelin/contracts/token/ERC20/ERC20.sol\":3222:3234  _totalSupply */\n      sload(0x02)\n        /* \"@openzeppelin/contracts/token/ERC20/ERC20.sol\":3144:3241  function totalSupply() public view virtual returns (uint256) {... */\n    tag_49:\n      mload(0x40)\n        /* \"#utility.yul\":3124:3149   */\n      swap1\n      dup2\n      mstore\n        /* \"#utility.yul\":3112:3114   */\n      0x20\n        /* \"#utility.yul\":3097:3115   */\n      add\n        /* \"@openzeppelin/contracts/token/ERC20/ERC20.sol\":3144:3241  function totalSupply() public view virtual returns (uint256) {... */\n      tag_34\n        /* \"#utility.yul\":2978:3155   */\n      jump\n        /* \"contracts/bank.sol\":603:623  Status public status */\n    tag_7:\n      callvalue\n      dup1\n      iszero\n      tag_53\n      jumpi\n      0x00\n      dup1\n      revert\n    tag_53:\n      pop\n      sload(0x09)\n      tag_54\n      swap1\n      0xff\n      and\n      dup2\n      jump\n    tag_54:\n      mload(0x40)\n      tag_34\n      swap2\n      swap1\n      tag_57\n      jump\t// in\n        /* \"@openzeppelin/contracts/token/ERC20/ERC20.sol\":5039:5283  function transferFrom(address from, address to, uint256 value) public virtual returns (bool) {... */\n    tag_8:\n      callvalue\n      dup1\n      iszero\n      tag_58\n      jumpi\n      0x00\n      dup1\n      revert\n    tag_58:\n      pop\n      tag_37\n      tag_60\n      calldatasize\n      0x04\n      tag_61\n      jump\t// in\n    tag_60:\n      tag_62\n      jump\t// in\n        /* \"@openzeppelin/contracts/token/ERC20/ERC20.sol\":3002:3084  function decimals() public view virtual returns (uint8) {... */\n    tag_9:\n      callvalue\n      dup1\n      iszero\n      tag_64\n      jumpi\n      0x00\n      dup1\n      revert\n    tag_64:\n      pop\n      mload(0x40)\n        /* \"@openzeppelin/contracts/token/ERC20/ERC20.sol\":3075:3077  18 */\n      0x12\n        /* \"#utility.yul\":4306:4342   */\n      dup2\n      mstore\n        /* \"#utility.yul\":4294:4296   */\n      0x20\n        /* \"#utility.yul\":4279:4297   */\n      add\n        /* \"@openzeppelin/contracts/token/ERC20/ERC20.sol\":3002:3084  function decimals() public view virtual returns (uint8) {... */\n      tag_34\n        /* \"#utility.yul\":4164:4348   */\n      jump\n        /* \"contracts/bank.sol\":1905:2047  function getUserByName(string memory Uname) public view findUserByUname(Uname) returns (User memory) {... */\n    tag_10:\n      callvalue\n      dup1\n      iszero\n      tag_69\n      jumpi\n      0x00\n      dup1\n      revert\n    tag_69:\n      pop\n      tag_70\n      tag_71\n      calldatasize\n      0x04\n      tag_72\n      jump\t// in\n    tag_71:\n      tag_73\n      jump\t// in\n    tag_70:\n      mload(0x40)\n      tag_34\n      swap2\n      swap1\n      tag_75\n      jump\t// in\n        /* \"contracts/token.sol\":299:408  function transferOwnership_(address _newOwner) public onlyOwner {... */\n    tag_11:\n      callvalue\n      dup1\n      iszero\n      tag_76\n      jumpi\n      0x00\n      dup1\n      revert\n    tag_76:\n      pop\n      tag_27\n      tag_78\n      calldatasize\n      0x04\n      tag_79\n      jump\t// in\n    tag_78:\n      tag_80\n      jump\t// in\n        /* \"contracts/bank.sol\":1722:1869  function getUserByAddress(address userAddress) public view verifyAddr(userAddress) returns (User memory) {... */\n    tag_12:\n      callvalue\n      dup1\n      iszero\n      tag_81\n      jumpi\n      0x00\n      dup1\n      revert\n    tag_81:\n      pop\n      tag_70\n      tag_83\n      calldatasize\n      0x04\n      tag_79\n      jump\t// in\n    tag_83:\n      tag_84\n      jump\t// in\n        /* \"@openzeppelin/contracts/token/ERC20/ERC20.sol\":3299:3415  function balanceOf(address account) public view virtual returns (uint256) {... */\n    tag_13:\n      callvalue\n      dup1\n      iszero\n      tag_86\n      jumpi\n      0x00\n      dup1\n      revert\n    tag_86:\n      pop\n      tag_49\n      tag_88\n      calldatasize\n      0x04\n      tag_79\n      jump\t// in\n    tag_88:\n      sub(shl(0xa0, 0x01), 0x01)\n        /* \"@openzeppelin/contracts/token/ERC20/ERC20.sol\":3390:3408  _balances[account] */\n      and\n        /* \"@openzeppelin/contracts/token/ERC20/ERC20.sol\":3364:3371  uint256 */\n      0x00\n        /* \"@openzeppelin/contracts/token/ERC20/ERC20.sol\":3390:3408  _balances[account] */\n      swap1\n      dup2\n      mstore\n      0x20\n      dup2\n      swap1\n      mstore\n      0x40\n      swap1\n      keccak256\n      sload\n      swap1\n        /* \"@openzeppelin/contracts/token/ERC20/ERC20.sol\":3299:3415  function balanceOf(address account) public view virtual returns (uint256) {... */\n      jump\n        /* \"@openzeppelin/contracts/access/Ownable.sol\":2293:2394  function renounceOwnership() public virtual onlyOwner {... */\n    tag_14:\n      callvalue\n      dup1\n      iszero\n      tag_91\n      jumpi\n      0x00\n      dup1\n      revert\n    tag_91:\n      pop\n      tag_27\n      tag_93\n      jump\t// in\n        /* \"contracts/bank.sol\":3117:3203  function burnToken(uint256 amount) public {... */\n    tag_15:\n      callvalue\n      dup1\n      iszero\n      tag_94\n      jumpi\n      0x00\n      dup1\n      revert\n    tag_94:\n      pop\n      tag_27\n      tag_96\n      calldatasize\n      0x04\n      tag_97\n      jump\t// in\n    tag_96:\n      tag_98\n      jump\t// in\n        /* \"@openzeppelin/contracts/access/Ownable.sol\":1638:1723  function owner() public view virtual returns (address) {... */\n    tag_16:\n      callvalue\n      dup1\n      iszero\n      tag_99\n      jumpi\n      0x00\n      dup1\n      revert\n    tag_99:\n      pop\n        /* \"@openzeppelin/contracts/access/Ownable.sol\":1710:1716  _owner */\n      sload(0x05)\n        /* \"@openzeppelin/contracts/access/Ownable.sol\":1638:1723  function owner() public view virtual returns (address) {... */\n      mload(0x40)\n      sub(shl(0xa0, 0x01), 0x01)\n        /* \"@openzeppelin/contracts/access/Ownable.sol\":1710:1716  _owner */\n      swap1\n      swap2\n      and\n        /* \"#utility.yul\":5829:5880   */\n      dup2\n      mstore\n        /* \"#utility.yul\":5817:5819   */\n      0x20\n        /* \"#utility.yul\":5802:5820   */\n      add\n        /* \"@openzeppelin/contracts/access/Ownable.sol\":1638:1723  function owner() public view virtual returns (address) {... */\n      tag_34\n        /* \"#utility.yul\":5683:5886   */\n      jump\n        /* \"@openzeppelin/contracts/token/ERC20/ERC20.sol\":2276:2369  function symbol() public view virtual returns (string memory) {... */\n    tag_17:\n      callvalue\n      dup1\n      iszero\n      tag_104\n      jumpi\n      0x00\n      dup1\n      revert\n    tag_104:\n      pop\n      tag_32\n      tag_106\n      jump\t// in\n        /* \"contracts/bank.sol\":211:248  mapping(address => User) public users */\n    tag_18:\n      callvalue\n      dup1\n      iszero\n      tag_108\n      jumpi\n      0x00\n      dup1\n      revert\n    tag_108:\n      pop\n      tag_109\n      tag_110\n      calldatasize\n      0x04\n      tag_79\n      jump\t// in\n    tag_110:\n      tag_111\n      jump\t// in\n    tag_109:\n      mload(0x40)\n      tag_34\n      swap4\n      swap3\n      swap2\n      swap1\n      tag_113\n      jump\t// in\n        /* \"@openzeppelin/contracts/token/ERC20/ERC20.sol\":3610:3788  function transfer(address to, uint256 value) public virtual returns (bool) {... */\n    tag_19:\n      callvalue\n      dup1\n      iszero\n      tag_114\n      jumpi\n      0x00\n      dup1\n      revert\n    tag_114:\n      pop\n      tag_37\n      tag_116\n      calldatasize\n      0x04\n      tag_39\n      jump\t// in\n    tag_116:\n      tag_117\n      jump\t// in\n        /* \"contracts/bank.sol\":3025:3111  function mintToken(uint256 amount) public {... */\n    tag_20:\n      callvalue\n      dup1\n      iszero\n      tag_119\n      jumpi\n      0x00\n      dup1\n      revert\n    tag_119:\n      pop\n      tag_27\n      tag_121\n      calldatasize\n      0x04\n      tag_97\n      jump\t// in\n    tag_121:\n      tag_122\n      jump\t// in\n        /* \"contracts/bank.sol\":2089:2594  function deposit() public payable verifyAddr(msg.sender) {... */\n    tag_21:\n      tag_27\n      tag_124\n      jump\t// in\n        /* \"@openzeppelin/contracts/token/ERC20/ERC20.sol\":3846:3986  function allowance(address owner, address spender) public view virtual returns (uint256) {... */\n    tag_22:\n      callvalue\n      dup1\n      iszero\n      tag_125\n      jumpi\n      0x00\n      dup1\n      revert\n    tag_125:\n      pop\n      tag_49\n      tag_127\n      calldatasize\n      0x04\n      tag_128\n      jump\t// in\n    tag_127:\n      sub(shl(0xa0, 0x01), 0x01)\n        /* \"@openzeppelin/contracts/token/ERC20/ERC20.sol\":3952:3970  _allowances[owner] */\n      swap2\n      dup3\n      and\n        /* \"@openzeppelin/contracts/token/ERC20/ERC20.sol\":3926:3933  uint256 */\n      0x00\n        /* \"@openzeppelin/contracts/token/ERC20/ERC20.sol\":3952:3970  _allowances[owner] */\n      swap1\n      dup2\n      mstore\n        /* \"@openzeppelin/contracts/token/ERC20/ERC20.sol\":3952:3963  _allowances */\n      0x01\n        /* \"@openzeppelin/contracts/token/ERC20/ERC20.sol\":3952:3970  _allowances[owner] */\n      0x20\n      swap1\n      dup2\n      mstore\n      0x40\n      dup1\n      dup4\n      keccak256\n        /* \"@openzeppelin/contracts/token/ERC20/ERC20.sol\":3952:3979  _allowances[owner][spender] */\n      swap4\n      swap1\n      swap5\n      and\n      dup3\n      mstore\n      swap2\n      swap1\n      swap2\n      mstore\n      keccak256\n      sload\n      swap1\n        /* \"@openzeppelin/contracts/token/ERC20/ERC20.sol\":3846:3986  function allowance(address owner, address spender) public view virtual returns (uint256) {... */\n      jump\n        /* \"@openzeppelin/contracts/access/Ownable.sol\":2543:2758  function transferOwnership(address newOwner) public virtual onlyOwner {... */\n    tag_23:\n      callvalue\n      dup1\n      iszero\n      tag_131\n      jumpi\n      0x00\n      dup1\n      revert\n    tag_131:\n      pop\n      tag_27\n      tag_133\n      calldatasize\n      0x04\n      tag_79\n      jump\t// in\n    tag_133:\n      tag_134\n      jump\t// in\n        /* \"contracts/bank.sol\":2639:3019  function withdraw(uint256 amount, address payable addr) public payable verifyAddr(msg.sender) {... */\n    tag_30:\n        /* \"contracts/bank.sol\":2721:2731  msg.sender */\n      caller\n        /* \"contracts/bank.sol\":3362:3379  addr_.code.length */\n      dup1\n      extcodesize\n        /* \"contracts/bank.sol\":3362:3383  addr_.code.length > 0 */\n      iszero\n        /* \"contracts/bank.sol\":1124:1186  require(!isContractAddr(_addr), \"This is a contract address!\") */\n      tag_138\n      jumpi\n      mload(0x40)\n      shl(0xe5, 0x461bcd)\n      dup2\n      mstore\n      0x04\n      add\n      tag_139\n      swap1\n      tag_140\n      jump\t// in\n    tag_139:\n      mload(0x40)\n      dup1\n      swap2\n      sub\n      swap1\n      revert\n    tag_138:\n      sub(shl(0xa0, 0x01), 0x01)\n        /* \"contracts/bank.sol\":2761:2772  users[addr] */\n      dup3\n      and\n      0x00\n      swap1\n      dup2\n      mstore\n        /* \"contracts/bank.sol\":2761:2766  users */\n      0x06\n        /* \"contracts/bank.sol\":2761:2772  users[addr] */\n      0x20\n      mstore\n      0x40\n      swap1\n      keccak256\n        /* \"contracts/bank.sol\":2761:2780  users[addr].balance */\n      0x02\n      add\n      sload\n        /* \"contracts/bank.sol\":2751:2780  amount <= users[addr].balance */\n      dup4\n      gt\n      iszero\n        /* \"contracts/bank.sol\":2743:2805  require(amount <= users[addr].balance, \"Insufficient balance\") */\n      tag_142\n      jumpi\n      mload(0x40)\n      shl(0xe5, 0x461bcd)\n      dup2\n      mstore\n        /* \"#utility.yul\":7251:7253   */\n      0x20\n        /* \"contracts/bank.sol\":2743:2805  require(amount <= users[addr].balance, \"Insufficient balance\") */\n      0x04\n      dup3\n      add\n        /* \"#utility.yul\":7233:7254   */\n      mstore\n        /* \"#utility.yul\":7290:7292   */\n      0x14\n        /* \"#utility.yul\":7270:7288   */\n      0x24\n      dup3\n      add\n        /* \"#utility.yul\":7263:7293   */\n      mstore\n      shl(0x60, 0x496e73756666696369656e742062616c616e6365)\n        /* \"#utility.yul\":7309:7327   */\n      0x44\n      dup3\n      add\n        /* \"#utility.yul\":7302:7352   */\n      mstore\n        /* \"#utility.yul\":7369:7387   */\n      0x64\n      add\n        /* \"contracts/bank.sol\":2743:2805  require(amount <= users[addr].balance, \"Insufficient balance\") */\n      tag_139\n        /* \"#utility.yul\":7049:7393   */\n      jump\n        /* \"contracts/bank.sol\":2743:2805  require(amount <= users[addr].balance, \"Insufficient balance\") */\n    tag_142:\n        /* \"contracts/bank.sol\":2833:2844  maxWithdAmt */\n      sload(0x08)\n        /* \"contracts/bank.sol\":2823:2829  amount */\n      dup4\n        /* \"contracts/bank.sol\":2823:2844  amount <= maxWithdAmt */\n      gt\n      iszero\n        /* \"contracts/bank.sol\":2815:2880  require(amount <= maxWithdAmt, \"Withdrawal amount exceeds limit\") */\n      tag_145\n      jumpi\n      mload(0x40)\n      shl(0xe5, 0x461bcd)\n      dup2\n      mstore\n        /* \"#utility.yul\":7600:7602   */\n      0x20\n        /* \"contracts/bank.sol\":2815:2880  require(amount <= maxWithdAmt, \"Withdrawal amount exceeds limit\") */\n      0x04\n      dup3\n      add\n        /* \"#utility.yul\":7582:7603   */\n      mstore\n        /* \"#utility.yul\":7639:7641   */\n      0x1f\n        /* \"#utility.yul\":7619:7637   */\n      0x24\n      dup3\n      add\n        /* \"#utility.yul\":7612:7642   */\n      mstore\n        /* \"#utility.yul\":7678:7711   */\n      0x5769746864726177616c20616d6f756e742065786365656473206c696d697400\n        /* \"#utility.yul\":7658:7676   */\n      0x44\n      dup3\n      add\n        /* \"#utility.yul\":7651:7712   */\n      mstore\n        /* \"#utility.yul\":7729:7747   */\n      0x64\n      add\n        /* \"contracts/bank.sol\":2815:2880  require(amount <= maxWithdAmt, \"Withdrawal amount exceeds limit\") */\n      tag_139\n        /* \"#utility.yul\":7398:7753   */\n      jump\n        /* \"contracts/bank.sol\":2815:2880  require(amount <= maxWithdAmt, \"Withdrawal amount exceeds limit\") */\n    tag_145:\n      sub(shl(0xa0, 0x01), 0x01)\n        /* \"contracts/bank.sol\":2890:2901  users[addr] */\n      dup3\n      and\n      0x00\n      swap1\n      dup2\n      mstore\n        /* \"contracts/bank.sol\":2890:2895  users */\n      0x06\n        /* \"contracts/bank.sol\":2890:2901  users[addr] */\n      0x20\n      mstore\n      0x40\n      dup2\n      keccak256\n        /* \"contracts/bank.sol\":2890:2909  users[addr].balance */\n      0x02\n      add\n        /* \"contracts/bank.sol\":2890:2919  users[addr].balance -= amount */\n      dup1\n      sload\n        /* \"contracts/bank.sol\":2913:2919  amount */\n      dup6\n      swap3\n        /* \"contracts/bank.sol\":2890:2901  users[addr] */\n      swap1\n        /* \"contracts/bank.sol\":2890:2919  users[addr].balance -= amount */\n      tag_148\n      swap1\n        /* \"contracts/bank.sol\":2913:2919  amount */\n      dup5\n      swap1\n        /* \"contracts/bank.sol\":2890:2919  users[addr].balance -= amount */\n      tag_149\n      jump\t// in\n    tag_148:\n      swap1\n      swap2\n      sstore\n      pop\n        /* \"contracts/bank.sol\":2929:2951  transfer(addr, amount) */\n      tag_150\n      swap1\n      pop\n        /* \"contracts/bank.sol\":2938:2942  addr */\n      dup3\n        /* \"contracts/bank.sol\":2944:2950  amount */\n      dup5\n        /* \"contracts/bank.sol\":2929:2937  transfer */\n      tag_117\n        /* \"contracts/bank.sol\":2929:2951  transfer(addr, amount) */\n      jump\t// in\n    tag_150:\n      pop\n        /* \"contracts/bank.sol\":2966:3012  WithdrawalSuccessful(addr, msg.sender, amount) */\n      mload(0x40)\n        /* \"#utility.yul\":3124:3149   */\n      dup4\n      dup2\n      mstore\n        /* \"contracts/bank.sol\":2993:3003  msg.sender */\n      caller\n      swap1\n      sub(shl(0xa0, 0x01), 0x01)\n        /* \"contracts/bank.sol\":2966:3012  WithdrawalSuccessful(addr, msg.sender, amount) */\n      dup5\n      and\n      swap1\n      0x46b6c03a6ed8406eda01806ab6d408e07129555fda5275b7f67e3a255f2d7a0d\n      swap1\n        /* \"#utility.yul\":3112:3114   */\n      0x20\n        /* \"#utility.yul\":3097:3115   */\n      add\n        /* \"contracts/bank.sol\":2966:3012  WithdrawalSuccessful(addr, msg.sender, amount) */\n    tag_151:\n      mload(0x40)\n      dup1\n      swap2\n      sub\n      swap1\n      log3\n        /* \"contracts/bank.sol\":2639:3019  function withdraw(uint256 amount, address payable addr) public payable verifyAddr(msg.sender) {... */\n      pop\n      pop\n      pop\n      jump\t// out\n        /* \"@openzeppelin/contracts/token/ERC20/ERC20.sol\":2074:2163  function name() public view virtual returns (string memory) {... */\n    tag_33:\n        /* \"@openzeppelin/contracts/token/ERC20/ERC20.sol\":2119:2132  string memory */\n      0x60\n        /* \"@openzeppelin/contracts/token/ERC20/ERC20.sol\":2151:2156  _name */\n      0x03\n        /* \"@openzeppelin/contracts/token/ERC20/ERC20.sol\":2144:2156  return _name */\n      dup1\n      sload\n      tag_153\n      swap1\n      tag_154\n      jump\t// in\n    tag_153:\n      dup1\n      0x1f\n      add\n      0x20\n      dup1\n      swap2\n      div\n      mul\n      0x20\n      add\n      mload(0x40)\n      swap1\n      dup2\n      add\n      0x40\n      mstore\n      dup1\n      swap3\n      swap2\n      swap1\n      dup2\n      dup2\n      mstore\n      0x20\n      add\n      dup3\n      dup1\n      sload\n      tag_155\n      swap1\n      tag_154\n      jump\t// in\n    tag_155:\n      dup1\n      iszero\n      tag_156\n      jumpi\n      dup1\n      0x1f\n      lt\n      tag_157\n      jumpi\n      0x0100\n      dup1\n      dup4\n      sload\n      div\n      mul\n      dup4\n      mstore\n      swap2\n      0x20\n      add\n      swap2\n      jump(tag_156)\n    tag_157:\n      dup3\n      add\n      swap2\n      swap1\n      0x00\n      mstore\n      keccak256(0x00, 0x20)\n      swap1\n    tag_158:\n      dup2\n      sload\n      dup2\n      mstore\n      swap1\n      0x01\n      add\n      swap1\n      0x20\n      add\n      dup1\n      dup4\n      gt\n      tag_158\n      jumpi\n      dup3\n      swap1\n      sub\n      0x1f\n      and\n      dup3\n      add\n      swap2\n    tag_156:\n      pop\n      pop\n      pop\n      pop\n      pop\n      swap1\n      pop\n        /* \"@openzeppelin/contracts/token/ERC20/ERC20.sol\":2074:2163  function name() public view virtual returns (string memory) {... */\n      swap1\n      jump\t// out\n        /* \"@openzeppelin/contracts/token/ERC20/ERC20.sol\":4293:4479  function approve(address spender, uint256 value) public virtual returns (bool) {... */\n    tag_40:\n        /* \"@openzeppelin/contracts/token/ERC20/ERC20.sol\":4366:4370  bool */\n      0x00\n        /* \"@openzeppelin/contracts/utils/Context.sol\":735:745  msg.sender */\n      caller\n        /* \"@openzeppelin/contracts/token/ERC20/ERC20.sol\":4420:4451  _approve(owner, spender, value) */\n      tag_162\n        /* \"@openzeppelin/contracts/utils/Context.sol\":735:745  msg.sender */\n      dup2\n        /* \"@openzeppelin/contracts/token/ERC20/ERC20.sol\":4436:4443  spender */\n      dup6\n        /* \"@openzeppelin/contracts/token/ERC20/ERC20.sol\":4445:4450  value */\n      dup6\n        /* \"@openzeppelin/contracts/token/ERC20/ERC20.sol\":4420:4428  _approve */\n      tag_163\n        /* \"@openzeppelin/contracts/token/ERC20/ERC20.sol\":4420:4451  _approve(owner, spender, value) */\n      jump\t// in\n    tag_162:\n        /* \"@openzeppelin/contracts/token/ERC20/ERC20.sol\":4468:4472  true */\n      0x01\n        /* \"@openzeppelin/contracts/token/ERC20/ERC20.sol\":4461:4472  return true */\n      swap2\n      pop\n      pop\n        /* \"@openzeppelin/contracts/token/ERC20/ERC20.sol\":4293:4479  function approve(address spender, uint256 value) public virtual returns (bool) {... */\n    tag_159:\n      swap3\n      swap2\n      pop\n      pop\n      jump\t// out\n        /* \"contracts/bank.sol\":1481:1687  function registerUser(string memory uname, address payable addr) public {... */\n    tag_47:\n      sub(shl(0xa0, 0x01), 0x01)\n        /* \"contracts/bank.sol\":1577:1588  users[addr] */\n      dup2\n      and\n      0x00\n      swap1\n      dup2\n      mstore\n        /* \"contracts/bank.sol\":1577:1582  users */\n      0x06\n        /* \"contracts/bank.sol\":1577:1588  users[addr] */\n      0x20\n      mstore\n      0x40\n      swap1\n      keccak256\n        /* \"contracts/bank.sol\":1577:1594  users[addr].uName */\n      0x01\n      add\n        /* \"contracts/bank.sol\":1571:1602  bytes(users[addr].uName).length */\n      dup1\n      sload\n      tag_165\n      swap1\n      tag_154\n      jump\t// in\n    tag_165:\n        /* \"contracts/bank.sol\":1571:1607  bytes(users[addr].uName).length == 0 */\n      iszero\n      swap1\n      pop\n        /* \"contracts/bank.sol\":1563:1636  require(bytes(users[addr].uName).length == 0, \"User already registered!\") */\n      tag_166\n      jumpi\n      mload(0x40)\n      shl(0xe5, 0x461bcd)\n      dup2\n      mstore\n        /* \"#utility.yul\":8610:8612   */\n      0x20\n        /* \"contracts/bank.sol\":1563:1636  require(bytes(users[addr].uName).length == 0, \"User already registered!\") */\n      0x04\n      dup3\n      add\n        /* \"#utility.yul\":8592:8613   */\n      mstore\n        /* \"#utility.yul\":8649:8651   */\n      0x18\n        /* \"#utility.yul\":8629:8647   */\n      0x24\n      dup3\n      add\n        /* \"#utility.yul\":8622:8652   */\n      mstore\n        /* \"#utility.yul\":8688:8714   */\n      0x5573657220616c72656164792072656769737465726564210000000000000000\n        /* \"#utility.yul\":8668:8686   */\n      0x44\n      dup3\n      add\n        /* \"#utility.yul\":8661:8715   */\n      mstore\n        /* \"#utility.yul\":8732:8750   */\n      0x64\n      add\n        /* \"contracts/bank.sol\":1563:1636  require(bytes(users[addr].uName).length == 0, \"User already registered!\") */\n      tag_139\n        /* \"#utility.yul\":8408:8756   */\n      jump\n        /* \"contracts/bank.sol\":1563:1636  require(bytes(users[addr].uName).length == 0, \"User already registered!\") */\n    tag_166:\n        /* \"contracts/bank.sol\":1660:1680  User(addr, uname, 0) */\n      0x40\n      dup1\n      mload\n      0x60\n      dup2\n      add\n      dup3\n      mstore\n      sub(shl(0xa0, 0x01), 0x01)\n      dup4\n      dup2\n      and\n      dup1\n      dup4\n      mstore\n      0x20\n      dup1\n      dup5\n      add\n      dup8\n      dup2\n      mstore\n      0x00\n      dup6\n      dup8\n      add\n      dup2\n      swap1\n      mstore\n        /* \"contracts/bank.sol\":1646:1657  users[addr] */\n      swap3\n      dup4\n      mstore\n        /* \"contracts/bank.sol\":1646:1651  users */\n      0x06\n        /* \"contracts/bank.sol\":1646:1657  users[addr] */\n      swap1\n      swap2\n      mstore\n      swap4\n      swap1\n      keccak256\n        /* \"contracts/bank.sol\":1646:1680  users[addr] = User(addr, uname, 0) */\n      dup3\n      mload\n      dup2\n      sload\n      not(sub(shl(0xa0, 0x01), 0x01))\n      and\n      swap3\n      and\n      swap2\n      swap1\n      swap2\n      or\n      dup2\n      sstore\n      swap2\n      mload\n        /* \"contracts/bank.sol\":1660:1680  User(addr, uname, 0) */\n      swap1\n      swap2\n        /* \"contracts/bank.sol\":1646:1657  users[addr] */\n      swap1\n      0x01\n        /* \"contracts/bank.sol\":1646:1680  users[addr] = User(addr, uname, 0) */\n      dup3\n      add\n      swap1\n      tag_169\n      swap1\n      dup3\n      tag_170\n      jump\t// in\n    tag_169:\n      pop\n      0x40\n      dup3\n      add\n      mload\n      dup2\n      0x02\n      add\n      sstore\n      swap1\n      pop\n      pop\n        /* \"contracts/bank.sol\":1481:1687  function registerUser(string memory uname, address payable addr) public {... */\n      pop\n      pop\n      jump\t// out\n        /* \"@openzeppelin/contracts/token/ERC20/ERC20.sol\":5039:5283  function transferFrom(address from, address to, uint256 value) public virtual returns (bool) {... */\n    tag_62:\n        /* \"@openzeppelin/contracts/token/ERC20/ERC20.sol\":5126:5130  bool */\n      0x00\n        /* \"@openzeppelin/contracts/utils/Context.sol\":735:745  msg.sender */\n      caller\n        /* \"@openzeppelin/contracts/token/ERC20/ERC20.sol\":5182:5219  _spendAllowance(from, spender, value) */\n      tag_174\n        /* \"@openzeppelin/contracts/token/ERC20/ERC20.sol\":5198:5202  from */\n      dup6\n        /* \"@openzeppelin/contracts/utils/Context.sol\":735:745  msg.sender */\n      dup3\n        /* \"@openzeppelin/contracts/token/ERC20/ERC20.sol\":5213:5218  value */\n      dup6\n        /* \"@openzeppelin/contracts/token/ERC20/ERC20.sol\":5182:5197  _spendAllowance */\n      tag_175\n        /* \"@openzeppelin/contracts/token/ERC20/ERC20.sol\":5182:5219  _spendAllowance(from, spender, value) */\n      jump\t// in\n    tag_174:\n        /* \"@openzeppelin/contracts/token/ERC20/ERC20.sol\":5229:5255  _transfer(from, to, value) */\n      tag_176\n        /* \"@openzeppelin/contracts/token/ERC20/ERC20.sol\":5239:5243  from */\n      dup6\n        /* \"@openzeppelin/contracts/token/ERC20/ERC20.sol\":5245:5247  to */\n      dup6\n        /* \"@openzeppelin/contracts/token/ERC20/ERC20.sol\":5249:5254  value */\n      dup6\n        /* \"@openzeppelin/contracts/token/ERC20/ERC20.sol\":5229:5238  _transfer */\n      tag_177\n        /* \"@openzeppelin/contracts/token/ERC20/ERC20.sol\":5229:5255  _transfer(from, to, value) */\n      jump\t// in\n    tag_176:\n      pop\n        /* \"@openzeppelin/contracts/token/ERC20/ERC20.sol\":5272:5276  true */\n      0x01\n      swap5\n        /* \"@openzeppelin/contracts/token/ERC20/ERC20.sol\":5039:5283  function transferFrom(address from, address to, uint256 value) public virtual returns (bool) {... */\n      swap4\n      pop\n      pop\n      pop\n      pop\n      jump\t// out\n        /* \"contracts/bank.sol\":1905:2047  function getUserByName(string memory Uname) public view findUserByUname(Uname) returns (User memory) {... */\n    tag_73:\n        /* \"contracts/bank.sol\":1993:2004  User memory */\n      tag_179\n      mload(0x40)\n      dup1\n      0x60\n      add\n      0x40\n      mstore\n      dup1\n      and(sub(shl(0xa0, 0x01), 0x01), 0x00)\n      dup2\n      mstore\n      0x20\n      add\n      0x60\n      dup2\n      mstore\n      0x20\n      add\n      0x00\n      dup2\n      mstore\n      pop\n      swap1\n      jump\n    tag_179:\n        /* \"contracts/bank.sol\":1317:1327  msg.sender */\n      caller\n        /* \"contracts/bank.sol\":1311:1328  users[msg.sender] */\n      0x00\n      swap1\n      dup2\n      mstore\n        /* \"contracts/bank.sol\":1311:1316  users */\n      0x06\n        /* \"contracts/bank.sol\":1311:1328  users[msg.sender] */\n      0x20\n      mstore\n      0x40\n      swap1\n      keccak256\n        /* \"contracts/bank.sol\":1311:1334  users[msg.sender].uName */\n      0x01\n      add\n        /* \"contracts/bank.sol\":1305:1342  bytes(users[msg.sender].uName).length */\n      dup1\n      sload\n        /* \"contracts/bank.sol\":1977:1982  Uname */\n      dup4\n      swap2\n        /* \"contracts/bank.sol\":1311:1334  users[msg.sender].uName */\n      swap1\n        /* \"contracts/bank.sol\":1305:1342  bytes(users[msg.sender].uName).length */\n      tag_182\n      swap1\n      tag_154\n      jump\t// in\n    tag_182:\n      swap1\n      pop\n        /* \"contracts/bank.sol\":1346:1347  0 */\n      0x00\n        /* \"contracts/bank.sol\":1305:1347  bytes(users[msg.sender].uName).length != 0 */\n      sub\n        /* \"contracts/bank.sol\":1297:1367  require(bytes(users[msg.sender].uName).length != 0, \"User not found!\") */\n      tag_183\n      jumpi\n      mload(0x40)\n      shl(0xe5, 0x461bcd)\n      dup2\n      mstore\n        /* \"#utility.yul\":11087:11089   */\n      0x20\n        /* \"contracts/bank.sol\":1297:1367  require(bytes(users[msg.sender].uName).length != 0, \"User not found!\") */\n      0x04\n      dup3\n      add\n        /* \"#utility.yul\":11069:11090   */\n      mstore\n        /* \"#utility.yul\":11126:11128   */\n      0x0f\n        /* \"#utility.yul\":11106:11124   */\n      0x24\n      dup3\n      add\n        /* \"#utility.yul\":11099:11129   */\n      mstore\n      shl(0x88, 0x55736572206e6f7420666f756e6421)\n        /* \"#utility.yul\":11145:11163   */\n      0x44\n      dup3\n      add\n        /* \"#utility.yul\":11138:11183   */\n      mstore\n        /* \"#utility.yul\":11200:11218   */\n      0x64\n      add\n        /* \"contracts/bank.sol\":1297:1367  require(bytes(users[msg.sender].uName).length != 0, \"User not found!\") */\n      tag_139\n        /* \"#utility.yul\":10885:11224   */\n      jump\n        /* \"contracts/bank.sol\":1297:1367  require(bytes(users[msg.sender].uName).length != 0, \"User not found!\") */\n    tag_183:\n        /* \"contracts/bank.sol\":2029:2039  msg.sender */\n      caller\n        /* \"contracts/bank.sol\":2023:2040  users[msg.sender] */\n      0x00\n      swap1\n      dup2\n      mstore\n        /* \"contracts/bank.sol\":2023:2028  users */\n      0x06\n        /* \"contracts/bank.sol\":2023:2040  users[msg.sender] */\n      0x20\n      swap1\n      dup2\n      mstore\n      0x40\n      swap2\n      dup3\n      swap1\n      keccak256\n        /* \"contracts/bank.sol\":2016:2040  return users[msg.sender] */\n      dup3\n      mload\n      0x60\n      dup2\n      add\n      swap1\n      swap4\n      mstore\n      dup1\n      sload\n      sub(shl(0xa0, 0x01), 0x01)\n      and\n      dup4\n      mstore\n      0x01\n      dup2\n      add\n      dup1\n      sload\n        /* \"contracts/bank.sol\":2023:2040  users[msg.sender] */\n      swap2\n      swap3\n        /* \"contracts/bank.sol\":2016:2040  return users[msg.sender] */\n      dup5\n      add\n      swap2\n      tag_187\n      swap1\n      tag_154\n      jump\t// in\n    tag_187:\n      dup1\n      0x1f\n      add\n      0x20\n      dup1\n      swap2\n      div\n      mul\n      0x20\n      add\n      mload(0x40)\n      swap1\n      dup2\n      add\n      0x40\n      mstore\n      dup1\n      swap3\n      swap2\n      swap1\n      dup2\n      dup2\n      mstore\n      0x20\n      add\n      dup3\n      dup1\n      sload\n      tag_188\n      swap1\n      tag_154\n      jump\t// in\n    tag_188:\n      dup1\n      iszero\n      tag_189\n      jumpi\n      dup1\n      0x1f\n      lt\n      tag_190\n      jumpi\n      0x0100\n      dup1\n      dup4\n      sload\n      div\n      mul\n      dup4\n      mstore\n      swap2\n      0x20\n      add\n      swap2\n      jump(tag_189)\n    tag_190:\n      dup3\n      add\n      swap2\n      swap1\n      0x00\n      mstore\n      keccak256(0x00, 0x20)\n      swap1\n    tag_191:\n      dup2\n      sload\n      dup2\n      mstore\n      swap1\n      0x01\n      add\n      swap1\n      0x20\n      add\n      dup1\n      dup4\n      gt\n      tag_191\n      jumpi\n      dup3\n      swap1\n      sub\n      0x1f\n      and\n      dup3\n      add\n      swap2\n    tag_189:\n      pop\n      pop\n      pop\n      pop\n      pop\n      dup2\n      mstore\n      0x20\n      add\n      0x02\n      dup3\n      add\n      sload\n      dup2\n      mstore\n      pop\n      pop\n      swap2\n      pop\n        /* \"contracts/bank.sol\":1377:1378  _ */\n    tag_186:\n        /* \"contracts/bank.sol\":1905:2047  function getUserByName(string memory Uname) public view findUserByUname(Uname) returns (User memory) {... */\n      pop\n      swap2\n      swap1\n      pop\n      jump\t// out\n        /* \"contracts/token.sol\":299:408  function transferOwnership_(address _newOwner) public onlyOwner {... */\n    tag_80:\n        /* \"@openzeppelin/contracts/access/Ownable.sol\":1531:1544  _checkOwner() */\n      tag_193\n        /* \"@openzeppelin/contracts/access/Ownable.sol\":1531:1542  _checkOwner */\n      tag_194\n        /* \"@openzeppelin/contracts/access/Ownable.sol\":1531:1544  _checkOwner() */\n      jump\t// in\n    tag_193:\n        /* \"contracts/token.sol\":373:401  transferOwnership(_newOwner) */\n      tag_196\n        /* \"contracts/token.sol\":391:400  _newOwner */\n      dup2\n        /* \"contracts/token.sol\":373:390  transferOwnership */\n      tag_134\n        /* \"contracts/token.sol\":373:401  transferOwnership(_newOwner) */\n      jump\t// in\n    tag_196:\n        /* \"contracts/token.sol\":299:408  function transferOwnership_(address _newOwner) public onlyOwner {... */\n      pop\n      jump\t// out\n        /* \"contracts/bank.sol\":1722:1869  function getUserByAddress(address userAddress) public view verifyAddr(userAddress) returns (User memory) {... */\n    tag_84:\n        /* \"contracts/bank.sol\":1814:1825  User memory */\n      tag_197\n      mload(0x40)\n      dup1\n      0x60\n      add\n      0x40\n      mstore\n      dup1\n      and(sub(shl(0xa0, 0x01), 0x01), 0x00)\n      dup2\n      mstore\n      0x20\n      add\n      0x60\n      dup2\n      mstore\n      0x20\n      add\n      0x00\n      dup2\n      mstore\n      pop\n      swap1\n      jump\n    tag_197:\n        /* \"contracts/bank.sol\":1792:1803  userAddress */\n      dup2\n      sub(shl(0xa0, 0x01), 0x01)\n        /* \"contracts/bank.sol\":3362:3379  addr_.code.length */\n      dup2\n      and\n      extcodesize\n        /* \"contracts/bank.sol\":3362:3383  addr_.code.length > 0 */\n      iszero\n        /* \"contracts/bank.sol\":1124:1186  require(!isContractAddr(_addr), \"This is a contract address!\") */\n      tag_200\n      jumpi\n      mload(0x40)\n      shl(0xe5, 0x461bcd)\n      dup2\n      mstore\n      0x04\n      add\n      tag_139\n      swap1\n      tag_140\n      jump\t// in\n    tag_200:\n      sub(shl(0xa0, 0x01), 0x01)\n        /* \"contracts/bank.sol\":1844:1862  users[userAddress] */\n      dup1\n      dup5\n      and\n      0x00\n      swap1\n      dup2\n      mstore\n        /* \"contracts/bank.sol\":1844:1849  users */\n      0x06\n        /* \"contracts/bank.sol\":1844:1862  users[userAddress] */\n      0x20\n      swap1\n      dup2\n      mstore\n      0x40\n      swap2\n      dup3\n      swap1\n      keccak256\n        /* \"contracts/bank.sol\":1837:1862  return users[userAddress] */\n      dup3\n      mload\n      0x60\n      dup2\n      add\n      swap1\n      swap4\n      mstore\n      dup1\n      sload\n      swap1\n      swap4\n      and\n      dup3\n      mstore\n      0x01\n      dup4\n      add\n      dup1\n      sload\n      swap3\n      swap4\n        /* \"contracts/bank.sol\":1844:1862  users[userAddress] */\n      swap3\n        /* \"contracts/bank.sol\":1837:1862  return users[userAddress] */\n      swap2\n      dup5\n      add\n      swap2\n      tag_187\n      swap1\n      tag_154\n      jump\t// in\n        /* \"@openzeppelin/contracts/access/Ownable.sol\":2293:2394  function renounceOwnership() public virtual onlyOwner {... */\n    tag_93:\n        /* \"@openzeppelin/contracts/access/Ownable.sol\":1531:1544  _checkOwner() */\n      tag_210\n        /* \"@openzeppelin/contracts/access/Ownable.sol\":1531:1542  _checkOwner */\n      tag_194\n        /* \"@openzeppelin/contracts/access/Ownable.sol\":1531:1544  _checkOwner() */\n      jump\t// in\n    tag_210:\n        /* \"@openzeppelin/contracts/access/Ownable.sol\":2357:2387  _transferOwnership(address(0)) */\n      tag_212\n        /* \"@openzeppelin/contracts/access/Ownable.sol\":2384:2385  0 */\n      0x00\n        /* \"@openzeppelin/contracts/access/Ownable.sol\":2357:2375  _transferOwnership */\n      tag_213\n        /* \"@openzeppelin/contracts/access/Ownable.sol\":2357:2387  _transferOwnership(address(0)) */\n      jump\t// in\n    tag_212:\n        /* \"@openzeppelin/contracts/access/Ownable.sol\":2293:2394  function renounceOwnership() public virtual onlyOwner {... */\n      jump\t// out\n        /* \"contracts/bank.sol\":3117:3203  function burnToken(uint256 amount) public {... */\n    tag_98:\n        /* \"contracts/bank.sol\":3169:3196  burn(address(this), amount) */\n      tag_196\n        /* \"contracts/bank.sol\":3182:3186  this */\n      address\n        /* \"contracts/bank.sol\":3189:3195  amount */\n      dup3\n        /* \"contracts/bank.sol\":3169:3173  burn */\n      tag_216\n        /* \"contracts/bank.sol\":3169:3196  burn(address(this), amount) */\n      jump\t// in\n        /* \"@openzeppelin/contracts/token/ERC20/ERC20.sol\":2276:2369  function symbol() public view virtual returns (string memory) {... */\n    tag_106:\n        /* \"@openzeppelin/contracts/token/ERC20/ERC20.sol\":2323:2336  string memory */\n      0x60\n        /* \"@openzeppelin/contracts/token/ERC20/ERC20.sol\":2355:2362  _symbol */\n      0x04\n        /* \"@openzeppelin/contracts/token/ERC20/ERC20.sol\":2348:2362  return _symbol */\n      dup1\n      sload\n      tag_153\n      swap1\n      tag_154\n      jump\t// in\n        /* \"contracts/bank.sol\":211:248  mapping(address => User) public users */\n    tag_111:\n      mstore(0x20, 0x06)\n      0x00\n      swap1\n      dup2\n      mstore\n      0x40\n      swap1\n      keccak256\n      dup1\n      sload\n      0x01\n      dup3\n      add\n      dup1\n      sload\n      sub(shl(0xa0, 0x01), 0x01)\n      swap1\n      swap3\n      and\n      swap3\n      swap2\n      tag_224\n      swap1\n      tag_154\n      jump\t// in\n    tag_224:\n      dup1\n      0x1f\n      add\n      0x20\n      dup1\n      swap2\n      div\n      mul\n      0x20\n      add\n      mload(0x40)\n      swap1\n      dup2\n      add\n      0x40\n      mstore\n      dup1\n      swap3\n      swap2\n      swap1\n      dup2\n      dup2\n      mstore\n      0x20\n      add\n      dup3\n      dup1\n      sload\n      tag_225\n      swap1\n      tag_154\n      jump\t// in\n    tag_225:\n      dup1\n      iszero\n      tag_226\n      jumpi\n      dup1\n      0x1f\n      lt\n      tag_227\n      jumpi\n      0x0100\n      dup1\n      dup4\n      sload\n      div\n      mul\n      dup4\n      mstore\n      swap2\n      0x20\n      add\n      swap2\n      jump(tag_226)\n    tag_227:\n      dup3\n      add\n      swap2\n      swap1\n      0x00\n      mstore\n      keccak256(0x00, 0x20)\n      swap1\n    tag_228:\n      dup2\n      sload\n      dup2\n      mstore\n      swap1\n      0x01\n      add\n      swap1\n      0x20\n      add\n      dup1\n      dup4\n      gt\n      tag_228\n      jumpi\n      dup3\n      swap1\n      sub\n      0x1f\n      and\n      dup3\n      add\n      swap2\n    tag_226:\n      pop\n      pop\n      pop\n      pop\n      pop\n      swap1\n      dup1\n      0x02\n      add\n      sload\n      swap1\n      pop\n      dup4\n      jump\t// out\n        /* \"@openzeppelin/contracts/token/ERC20/ERC20.sol\":3610:3788  function transfer(address to, uint256 value) public virtual returns (bool) {... */\n    tag_117:\n        /* \"@openzeppelin/contracts/token/ERC20/ERC20.sol\":3679:3683  bool */\n      0x00\n        /* \"@openzeppelin/contracts/utils/Context.sol\":735:745  msg.sender */\n      caller\n        /* \"@openzeppelin/contracts/token/ERC20/ERC20.sol\":3733:3760  _transfer(owner, to, value) */\n      tag_162\n        /* \"@openzeppelin/contracts/utils/Context.sol\":735:745  msg.sender */\n      dup2\n        /* \"@openzeppelin/contracts/token/ERC20/ERC20.sol\":3750:3752  to */\n      dup6\n        /* \"@openzeppelin/contracts/token/ERC20/ERC20.sol\":3754:3759  value */\n      dup6\n        /* \"@openzeppelin/contracts/token/ERC20/ERC20.sol\":3733:3742  _transfer */\n      tag_177\n        /* \"@openzeppelin/contracts/token/ERC20/ERC20.sol\":3733:3760  _transfer(owner, to, value) */\n      jump\t// in\n        /* \"contracts/bank.sol\":3025:3111  function mintToken(uint256 amount) public {... */\n    tag_122:\n        /* \"contracts/bank.sol\":3077:3104  mint(address(this), amount) */\n      tag_196\n        /* \"contracts/bank.sol\":3090:3094  this */\n      address\n        /* \"contracts/bank.sol\":3097:3103  amount */\n      dup3\n        /* \"contracts/bank.sol\":3077:3081  mint */\n      tag_234\n        /* \"contracts/bank.sol\":3077:3104  mint(address(this), amount) */\n      jump\t// in\n        /* \"contracts/bank.sol\":2089:2594  function deposit() public payable verifyAddr(msg.sender) {... */\n    tag_124:\n        /* \"contracts/bank.sol\":2134:2144  msg.sender */\n      caller\n        /* \"contracts/bank.sol\":3362:3379  addr_.code.length */\n      dup1\n      extcodesize\n        /* \"contracts/bank.sol\":3362:3383  addr_.code.length > 0 */\n      iszero\n        /* \"contracts/bank.sol\":1124:1186  require(!isContractAddr(_addr), \"This is a contract address!\") */\n      tag_237\n      jumpi\n      mload(0x40)\n      shl(0xe5, 0x461bcd)\n      dup2\n      mstore\n      0x04\n      add\n      tag_139\n      swap1\n      tag_140\n      jump\t// in\n    tag_237:\n        /* \"contracts/bank.sol\":2172:2181  minDepAmt */\n      sload(0x07)\n        /* \"contracts/bank.sol\":2160:2169  msg.value */\n      callvalue\n        /* \"contracts/bank.sol\":2160:2181  msg.value < minDepAmt */\n      lt\n        /* \"contracts/bank.sol\":2156:2331  if (msg.value < minDepAmt) {... */\n      iszero\n      tag_240\n      jumpi\n        /* \"contracts/bank.sol\":2197:2203  status */\n      0x09\n        /* \"contracts/bank.sol\":2197:2219  status = Status.Failed */\n      dup1\n      sload\n      not(0xff)\n      and\n        /* \"contracts/bank.sol\":2206:2219  Status.Failed */\n      0x01\n        /* \"contracts/bank.sol\":2197:2219  status = Status.Failed */\n      or\n      swap1\n      sstore\n        /* \"contracts/bank.sol\":2238:2300  DepositFailed(msg.sender, \"Minimum deposit amount is 0.00038\") */\n      0x40\n      dup1\n      mload\n        /* \"#utility.yul\":11431:11433   */\n      0x20\n        /* \"#utility.yul\":11413:11434   */\n      dup1\n      dup3\n      mstore\n        /* \"#utility.yul\":11470:11472   */\n      0x21\n        /* \"#utility.yul\":11450:11468   */\n      swap1\n      dup3\n      add\n        /* \"#utility.yul\":11443:11473   */\n      mstore\n        /* \"#utility.yul\":11509:11543   */\n      0x4d696e696d756d206465706f73697420616d6f756e7420697320302e30303033\n        /* \"#utility.yul\":11489:11507   */\n      swap2\n      dup2\n      add\n        /* \"#utility.yul\":11482:11544   */\n      swap2\n      swap1\n      swap2\n      mstore\n      shl(0xfb, 0x07)\n        /* \"#utility.yul\":11575:11577   */\n      0x60\n        /* \"#utility.yul\":11560:11578   */\n      dup3\n      add\n        /* \"#utility.yul\":11553:11584   */\n      mstore\n        /* \"contracts/bank.sol\":2252:2262  msg.sender */\n      caller\n      swap1\n        /* \"contracts/bank.sol\":2238:2300  DepositFailed(msg.sender, \"Minimum deposit amount is 0.00038\") */\n      0xa8b9f7931ac94cf9850accd175cf4543fac81ae93865d1670e14213829f67de5\n      swap1\n        /* \"#utility.yul\":11616:11619   */\n      0x80\n        /* \"#utility.yul\":11601:11620   */\n      add\n        /* \"contracts/bank.sol\":2238:2300  DepositFailed(msg.sender, \"Minimum deposit amount is 0.00038\") */\n    tag_244:\n      mload(0x40)\n      dup1\n      swap2\n      sub\n      swap1\n      log2\n        /* \"contracts/token.sol\":299:408  function transferOwnership_(address _newOwner) public onlyOwner {... */\n      pop\n      jump\t// out\n        /* \"contracts/bank.sol\":2156:2331  if (msg.value < minDepAmt) {... */\n    tag_240:\n        /* \"contracts/bank.sol\":2389:2448  transferFrom(payable(msg.sender), address(this), msg.value) */\n      tag_246\n        /* \"contracts/bank.sol\":2410:2420  msg.sender */\n      caller\n        /* \"contracts/bank.sol\":2431:2435  this */\n      address\n        /* \"contracts/bank.sol\":2438:2447  msg.value */\n      callvalue\n        /* \"contracts/bank.sol\":2389:2401  transferFrom */\n      tag_62\n        /* \"contracts/bank.sol\":2389:2448  transferFrom(payable(msg.sender), address(this), msg.value) */\n      jump\t// in\n    tag_246:\n      pop\n        /* \"contracts/bank.sol\":2464:2474  msg.sender */\n      caller\n        /* \"contracts/bank.sol\":2458:2475  users[msg.sender] */\n      0x00\n      swap1\n      dup2\n      mstore\n        /* \"contracts/bank.sol\":2458:2463  users */\n      0x06\n        /* \"contracts/bank.sol\":2458:2475  users[msg.sender] */\n      0x20\n      mstore\n      0x40\n      dup2\n      keccak256\n        /* \"contracts/bank.sol\":2458:2483  users[msg.sender].balance */\n      0x02\n      add\n        /* \"contracts/bank.sol\":2458:2496  users[msg.sender].balance += msg.value */\n      dup1\n      sload\n        /* \"contracts/bank.sol\":2487:2496  msg.value */\n      callvalue\n      swap3\n        /* \"contracts/bank.sol\":2458:2475  users[msg.sender] */\n      swap1\n        /* \"contracts/bank.sol\":2458:2496  users[msg.sender].balance += msg.value */\n      tag_247\n      swap1\n        /* \"contracts/bank.sol\":2487:2496  msg.value */\n      dup5\n      swap1\n        /* \"contracts/bank.sol\":2458:2496  users[msg.sender].balance += msg.value */\n      tag_248\n      jump\t// in\n    tag_247:\n      swap1\n      swap2\n      sstore\n      pop\n      pop\n        /* \"contracts/bank.sol\":2506:2512  status */\n      0x09\n        /* \"contracts/bank.sol\":2506:2532  status = Status.Successful */\n      dup1\n      sload\n      not(0xff)\n      and\n        /* \"contracts/bank.sol\":2515:2532  Status.Successful */\n      0x02\n        /* \"contracts/bank.sol\":2506:2532  status = Status.Successful */\n      or\n      swap1\n      sstore\n        /* \"contracts/bank.sol\":2547:2587  DepositSuccessful(msg.sender, msg.value) */\n      mload(0x40)\n        /* \"contracts/bank.sol\":2577:2586  msg.value */\n      callvalue\n        /* \"#utility.yul\":3124:3149   */\n      dup2\n      mstore\n        /* \"contracts/bank.sol\":2565:2575  msg.sender */\n      caller\n      swap1\n        /* \"contracts/bank.sol\":2547:2587  DepositSuccessful(msg.sender, msg.value) */\n      0xb3ef81558ed1a50072a492984535a009da8b129c749500b387f1e5f4886bdde5\n      swap1\n        /* \"#utility.yul\":3112:3114   */\n      0x20\n        /* \"#utility.yul\":3097:3115   */\n      add\n        /* \"contracts/bank.sol\":2547:2587  DepositSuccessful(msg.sender, msg.value) */\n      tag_244\n        /* \"#utility.yul\":2978:3155   */\n      jump\n        /* \"@openzeppelin/contracts/access/Ownable.sol\":2543:2758  function transferOwnership(address newOwner) public virtual onlyOwner {... */\n    tag_134:\n        /* \"@openzeppelin/contracts/access/Ownable.sol\":1531:1544  _checkOwner() */\n      tag_254\n        /* \"@openzeppelin/contracts/access/Ownable.sol\":1531:1542  _checkOwner */\n      tag_194\n        /* \"@openzeppelin/contracts/access/Ownable.sol\":1531:1544  _checkOwner() */\n      jump\t// in\n    tag_254:\n      sub(shl(0xa0, 0x01), 0x01)\n        /* \"@openzeppelin/contracts/access/Ownable.sol\":2627:2649  newOwner == address(0) */\n      dup2\n      and\n        /* \"@openzeppelin/contracts/access/Ownable.sol\":2623:2714  if (newOwner == address(0)) {... */\n      tag_256\n      jumpi\n        /* \"@openzeppelin/contracts/access/Ownable.sol\":2672:2703  OwnableInvalidOwner(address(0)) */\n      mload(0x40)\n      shl(0xe0, 0x1e4fbdf7)\n      dup2\n      mstore\n        /* \"@openzeppelin/contracts/access/Ownable.sol\":2700:2701  0 */\n      0x00\n        /* \"@openzeppelin/contracts/access/Ownable.sol\":2672:2703  OwnableInvalidOwner(address(0)) */\n      0x04\n      dup3\n      add\n        /* \"#utility.yul\":5829:5880   */\n      mstore\n        /* \"#utility.yul\":5802:5820   */\n      0x24\n      add\n        /* \"@openzeppelin/contracts/access/Ownable.sol\":2672:2703  OwnableInvalidOwner(address(0)) */\n      tag_139\n        /* \"#utility.yul\":5683:5886   */\n      jump\n        /* \"@openzeppelin/contracts/access/Ownable.sol\":2623:2714  if (newOwner == address(0)) {... */\n    tag_256:\n        /* \"@openzeppelin/contracts/access/Ownable.sol\":2723:2751  _transferOwnership(newOwner) */\n      tag_196\n        /* \"@openzeppelin/contracts/access/Ownable.sol\":2742:2750  newOwner */\n      dup2\n        /* \"@openzeppelin/contracts/access/Ownable.sol\":2723:2741  _transferOwnership */\n      tag_213\n        /* \"@openzeppelin/contracts/access/Ownable.sol\":2723:2751  _transferOwnership(newOwner) */\n      jump\t// in\n        /* \"@openzeppelin/contracts/token/ERC20/ERC20.sol\":8989:9117  function _approve(address owner, address spender, uint256 value) internal {... */\n    tag_163:\n        /* \"@openzeppelin/contracts/token/ERC20/ERC20.sol\":9073:9110  _approve(owner, spender, value, true) */\n      tag_262\n        /* \"@openzeppelin/contracts/token/ERC20/ERC20.sol\":9082:9087  owner */\n      dup4\n        /* \"@openzeppelin/contracts/token/ERC20/ERC20.sol\":9089:9096  spender */\n      dup4\n        /* \"@openzeppelin/contracts/token/ERC20/ERC20.sol\":9098:9103  value */\n      dup4\n        /* \"@openzeppelin/contracts/token/ERC20/ERC20.sol\":9105:9109  true */\n      0x01\n        /* \"@openzeppelin/contracts/token/ERC20/ERC20.sol\":9073:9081  _approve */\n      tag_263\n        /* \"@openzeppelin/contracts/token/ERC20/ERC20.sol\":9073:9110  _approve(owner, spender, value, true) */\n      jump\t// in\n    tag_262:\n        /* \"@openzeppelin/contracts/token/ERC20/ERC20.sol\":8989:9117  function _approve(address owner, address spender, uint256 value) internal {... */\n      pop\n      pop\n      pop\n      jump\t// out\n        /* \"@openzeppelin/contracts/token/ERC20/ERC20.sol\":10663:11140  function _spendAllowance(address owner, address spender, uint256 value) internal virtual {... */\n    tag_175:\n      sub(shl(0xa0, 0x01), 0x01)\n        /* \"@openzeppelin/contracts/token/ERC20/ERC20.sol\":3952:3970  _allowances[owner] */\n      dup4\n      dup2\n      and\n        /* \"@openzeppelin/contracts/token/ERC20/ERC20.sol\":10762:10786  uint256 currentAllowance */\n      0x00\n        /* \"@openzeppelin/contracts/token/ERC20/ERC20.sol\":3952:3970  _allowances[owner] */\n      swap1\n      dup2\n      mstore\n        /* \"@openzeppelin/contracts/token/ERC20/ERC20.sol\":3952:3963  _allowances */\n      0x01\n        /* \"@openzeppelin/contracts/token/ERC20/ERC20.sol\":3952:3970  _allowances[owner] */\n      0x20\n      swap1\n      dup2\n      mstore\n      0x40\n      dup1\n      dup4\n      keccak256\n        /* \"@openzeppelin/contracts/token/ERC20/ERC20.sol\":3952:3979  _allowances[owner][spender] */\n      swap4\n      dup7\n      and\n      dup4\n      mstore\n      swap3\n      swap1\n      mstore\n      keccak256\n      sload\n      not(0x00)\n        /* \"@openzeppelin/contracts/token/ERC20/ERC20.sol\":10828:10865  currentAllowance != type(uint256).max */\n      dup2\n      eq\n        /* \"@openzeppelin/contracts/token/ERC20/ERC20.sol\":10824:11134  if (currentAllowance != type(uint256).max) {... */\n      tag_270\n      jumpi\n        /* \"@openzeppelin/contracts/token/ERC20/ERC20.sol\":10904:10909  value */\n      dup2\n        /* \"@openzeppelin/contracts/token/ERC20/ERC20.sol\":10885:10901  currentAllowance */\n      dup2\n        /* \"@openzeppelin/contracts/token/ERC20/ERC20.sol\":10885:10909  currentAllowance < value */\n      lt\n        /* \"@openzeppelin/contracts/token/ERC20/ERC20.sol\":10881:11011  if (currentAllowance < value) {... */\n      iszero\n      tag_267\n      jumpi\n        /* \"@openzeppelin/contracts/token/ERC20/ERC20.sol\":10936:10996  ERC20InsufficientAllowance(spender, currentAllowance, value) */\n      mload(0x40)\n      shl(0xe1, 0x7dc7a0d9)\n      dup2\n      mstore\n      sub(shl(0xa0, 0x01), 0x01)\n        /* \"#utility.yul\":11981:12013   */\n      dup5\n      and\n        /* \"@openzeppelin/contracts/token/ERC20/ERC20.sol\":10936:10996  ERC20InsufficientAllowance(spender, currentAllowance, value) */\n      0x04\n      dup3\n      add\n        /* \"#utility.yul\":11963:12014   */\n      mstore\n        /* \"#utility.yul\":12030:12048   */\n      0x24\n      dup2\n      add\n        /* \"#utility.yul\":12023:12057   */\n      dup3\n      swap1\n      mstore\n        /* \"#utility.yul\":12073:12091   */\n      0x44\n      dup2\n      add\n        /* \"#utility.yul\":12066:12100   */\n      dup4\n      swap1\n      mstore\n        /* \"#utility.yul\":11936:11954   */\n      0x64\n      add\n        /* \"@openzeppelin/contracts/token/ERC20/ERC20.sol\":10936:10996  ERC20InsufficientAllowance(spender, currentAllowance, value) */\n      tag_139\n        /* \"#utility.yul\":11761:12106   */\n      jump\n        /* \"@openzeppelin/contracts/token/ERC20/ERC20.sol\":10881:11011  if (currentAllowance < value) {... */\n    tag_267:\n        /* \"@openzeppelin/contracts/token/ERC20/ERC20.sol\":11052:11109  _approve(owner, spender, currentAllowance - value, false) */\n      tag_270\n        /* \"@openzeppelin/contracts/token/ERC20/ERC20.sol\":11061:11066  owner */\n      dup5\n        /* \"@openzeppelin/contracts/token/ERC20/ERC20.sol\":11068:11075  spender */\n      dup5\n        /* \"@openzeppelin/contracts/token/ERC20/ERC20.sol\":11096:11101  value */\n      dup5\n        /* \"@openzeppelin/contracts/token/ERC20/ERC20.sol\":11077:11093  currentAllowance */\n      dup5\n        /* \"@openzeppelin/contracts/token/ERC20/ERC20.sol\":11077:11101  currentAllowance - value */\n      sub\n        /* \"@openzeppelin/contracts/token/ERC20/ERC20.sol\":11103:11108  false */\n      0x00\n        /* \"@openzeppelin/contracts/token/ERC20/ERC20.sol\":11052:11060  _approve */\n      tag_263\n        /* \"@openzeppelin/contracts/token/ERC20/ERC20.sol\":11052:11109  _approve(owner, spender, currentAllowance - value, false) */\n      jump\t// in\n    tag_270:\n        /* \"@openzeppelin/contracts/token/ERC20/ERC20.sol\":10752:11140  {... */\n      pop\n        /* \"@openzeppelin/contracts/token/ERC20/ERC20.sol\":10663:11140  function _spendAllowance(address owner, address spender, uint256 value) internal virtual {... */\n      pop\n      pop\n      pop\n      jump\t// out\n        /* \"@openzeppelin/contracts/token/ERC20/ERC20.sol\":5656:5956  function _transfer(address from, address to, uint256 value) internal {... */\n    tag_177:\n      sub(shl(0xa0, 0x01), 0x01)\n        /* \"@openzeppelin/contracts/token/ERC20/ERC20.sol\":5739:5757  from == address(0) */\n      dup4\n      and\n        /* \"@openzeppelin/contracts/token/ERC20/ERC20.sol\":5735:5821  if (from == address(0)) {... */\n      tag_272\n      jumpi\n        /* \"@openzeppelin/contracts/token/ERC20/ERC20.sol\":5780:5810  ERC20InvalidSender(address(0)) */\n      mload(0x40)\n      shl(0xe1, 0x4b637e8f)\n      dup2\n      mstore\n        /* \"@openzeppelin/contracts/token/ERC20/ERC20.sol\":5807:5808  0 */\n      0x00\n        /* \"@openzeppelin/contracts/token/ERC20/ERC20.sol\":5780:5810  ERC20InvalidSender(address(0)) */\n      0x04\n      dup3\n      add\n        /* \"#utility.yul\":5829:5880   */\n      mstore\n        /* \"#utility.yul\":5802:5820   */\n      0x24\n      add\n        /* \"@openzeppelin/contracts/token/ERC20/ERC20.sol\":5780:5810  ERC20InvalidSender(address(0)) */\n      tag_139\n        /* \"#utility.yul\":5683:5886   */\n      jump\n        /* \"@openzeppelin/contracts/token/ERC20/ERC20.sol\":5735:5821  if (from == address(0)) {... */\n    tag_272:\n      sub(shl(0xa0, 0x01), 0x01)\n        /* \"@openzeppelin/contracts/token/ERC20/ERC20.sol\":5834:5850  to == address(0) */\n      dup3\n      and\n        /* \"@openzeppelin/contracts/token/ERC20/ERC20.sol\":5830:5916  if (to == address(0)) {... */\n      tag_274\n      jumpi\n        /* \"@openzeppelin/contracts/token/ERC20/ERC20.sol\":5873:5905  ERC20InvalidReceiver(address(0)) */\n      mload(0x40)\n      shl(0xe0, 0xec442f05)\n      dup2\n      mstore\n        /* \"@openzeppelin/contracts/token/ERC20/ERC20.sol\":5902:5903  0 */\n      0x00\n        /* \"@openzeppelin/contracts/token/ERC20/ERC20.sol\":5873:5905  ERC20InvalidReceiver(address(0)) */\n      0x04\n      dup3\n      add\n        /* \"#utility.yul\":5829:5880   */\n      mstore\n        /* \"#utility.yul\":5802:5820   */\n      0x24\n      add\n        /* \"@openzeppelin/contracts/token/ERC20/ERC20.sol\":5873:5905  ERC20InvalidReceiver(address(0)) */\n      tag_139\n        /* \"#utility.yul\":5683:5886   */\n      jump\n        /* \"@openzeppelin/contracts/token/ERC20/ERC20.sol\":5830:5916  if (to == address(0)) {... */\n    tag_274:\n        /* \"@openzeppelin/contracts/token/ERC20/ERC20.sol\":5925:5949  _update(from, to, value) */\n      tag_262\n        /* \"@openzeppelin/contracts/token/ERC20/ERC20.sol\":5933:5937  from */\n      dup4\n        /* \"@openzeppelin/contracts/token/ERC20/ERC20.sol\":5939:5941  to */\n      dup4\n        /* \"@openzeppelin/contracts/token/ERC20/ERC20.sol\":5943:5948  value */\n      dup4\n        /* \"@openzeppelin/contracts/token/ERC20/ERC20.sol\":5925:5932  _update */\n      tag_277\n        /* \"@openzeppelin/contracts/token/ERC20/ERC20.sol\":5925:5949  _update(from, to, value) */\n      jump\t// in\n        /* \"@openzeppelin/contracts/access/Ownable.sol\":1796:1958  function _checkOwner() internal view virtual {... */\n    tag_194:\n        /* \"@openzeppelin/contracts/access/Ownable.sol\":1710:1716  _owner */\n      and(sub(shl(0xa0, 0x01), 0x01), sload(0x05))\n        /* \"@openzeppelin/contracts/utils/Context.sol\":735:745  msg.sender */\n      caller\n        /* \"@openzeppelin/contracts/access/Ownable.sol\":1855:1878  owner() != _msgSender() */\n      eq\n        /* \"@openzeppelin/contracts/access/Ownable.sol\":1851:1952  if (owner() != _msgSender()) {... */\n      tag_212\n      jumpi\n        /* \"@openzeppelin/contracts/access/Ownable.sol\":1901:1941  OwnableUnauthorizedAccount(_msgSender()) */\n      mload(0x40)\n      shl(0xe0, 0x118cdaa7)\n      dup2\n      mstore\n        /* \"@openzeppelin/contracts/utils/Context.sol\":735:745  msg.sender */\n      caller\n        /* \"@openzeppelin/contracts/access/Ownable.sol\":1901:1941  OwnableUnauthorizedAccount(_msgSender()) */\n      0x04\n      dup3\n      add\n        /* \"#utility.yul\":5829:5880   */\n      mstore\n        /* \"#utility.yul\":5802:5820   */\n      0x24\n      add\n        /* \"@openzeppelin/contracts/access/Ownable.sol\":1901:1941  OwnableUnauthorizedAccount(_msgSender()) */\n      tag_139\n        /* \"#utility.yul\":5683:5886   */\n      jump\n        /* \"@openzeppelin/contracts/access/Ownable.sol\":2912:3099  function _transferOwnership(address newOwner) internal virtual {... */\n    tag_213:\n        /* \"@openzeppelin/contracts/access/Ownable.sol\":3004:3010  _owner */\n      0x05\n      dup1\n      sload\n      sub(shl(0xa0, 0x01), 0x01)\n        /* \"@openzeppelin/contracts/access/Ownable.sol\":3020:3037  _owner = newOwner */\n      dup4\n      dup2\n      and\n      not(sub(shl(0xa0, 0x01), 0x01))\n      dup4\n      and\n      dup2\n      or\n      swap1\n      swap4\n      sstore\n        /* \"@openzeppelin/contracts/access/Ownable.sol\":3052:3092  OwnershipTransferred(oldOwner, newOwner) */\n      mload(0x40)\n        /* \"@openzeppelin/contracts/access/Ownable.sol\":3004:3010  _owner */\n      swap2\n      and\n      swap2\n        /* \"@openzeppelin/contracts/access/Ownable.sol\":3020:3037  _owner = newOwner */\n      swap1\n        /* \"@openzeppelin/contracts/access/Ownable.sol\":3004:3010  _owner */\n      dup3\n      swap1\n        /* \"@openzeppelin/contracts/access/Ownable.sol\":3052:3092  OwnershipTransferred(oldOwner, newOwner) */\n      0x8be0079c531659141344cd1fd0a4f28419497f9722a3daafe3b4186f6b6457e0\n      swap1\n        /* \"@openzeppelin/contracts/access/Ownable.sol\":2985:3001  address oldOwner */\n      0x00\n      swap1\n        /* \"@openzeppelin/contracts/access/Ownable.sol\":3052:3092  OwnershipTransferred(oldOwner, newOwner) */\n      log3\n        /* \"@openzeppelin/contracts/access/Ownable.sol\":2975:3099  {... */\n      pop\n        /* \"@openzeppelin/contracts/access/Ownable.sol\":2912:3099  function _transferOwnership(address newOwner) internal virtual {... */\n      pop\n      jump\t// out\n        /* \"contracts/token.sol\":414:529  function burn(address fromAddr, uint256 amount) internal virtual onlyOwner {... */\n    tag_216:\n        /* \"@openzeppelin/contracts/access/Ownable.sol\":1531:1544  _checkOwner() */\n      tag_286\n        /* \"@openzeppelin/contracts/access/Ownable.sol\":1531:1542  _checkOwner */\n      tag_194\n        /* \"@openzeppelin/contracts/access/Ownable.sol\":1531:1544  _checkOwner() */\n      jump\t// in\n    tag_286:\n        /* \"contracts/token.sol\":499:522  _burn(fromAddr, amount) */\n      tag_288\n        /* \"contracts/token.sol\":505:513  fromAddr */\n      dup3\n        /* \"contracts/token.sol\":515:521  amount */\n      dup3\n        /* \"contracts/token.sol\":499:504  _burn */\n      tag_289\n        /* \"contracts/token.sol\":499:522  _burn(fromAddr, amount) */\n      jump\t// in\n    tag_288:\n        /* \"contracts/token.sol\":414:529  function burn(address fromAddr, uint256 amount) internal virtual onlyOwner {... */\n      pop\n      pop\n      jump\t// out\n        /* \"contracts/token.sol\":535:646  function mint(address toAddr, uint256 amount) internal virtual onlyOwner {... */\n    tag_234:\n        /* \"@openzeppelin/contracts/access/Ownable.sol\":1531:1544  _checkOwner() */\n      tag_291\n        /* \"@openzeppelin/contracts/access/Ownable.sol\":1531:1542  _checkOwner */\n      tag_194\n        /* \"@openzeppelin/contracts/access/Ownable.sol\":1531:1544  _checkOwner() */\n      jump\t// in\n    tag_291:\n        /* \"contracts/token.sol\":618:639  _mint(toAddr, amount) */\n      tag_288\n        /* \"contracts/token.sol\":624:630  toAddr */\n      dup3\n        /* \"contracts/token.sol\":632:638  amount */\n      dup3\n        /* \"contracts/token.sol\":618:623  _mint */\n      tag_294\n        /* \"contracts/token.sol\":618:639  _mint(toAddr, amount) */\n      jump\t// in\n        /* \"@openzeppelin/contracts/token/ERC20/ERC20.sol\":9949:10381  function _approve(address owner, address spender, uint256 value, bool emitEvent) internal virtual {... */\n    tag_263:\n      sub(shl(0xa0, 0x01), 0x01)\n        /* \"@openzeppelin/contracts/token/ERC20/ERC20.sol\":10061:10080  owner == address(0) */\n      dup5\n      and\n        /* \"@openzeppelin/contracts/token/ERC20/ERC20.sol\":10057:10146  if (owner == address(0)) {... */\n      tag_296\n      jumpi\n        /* \"@openzeppelin/contracts/token/ERC20/ERC20.sol\":10103:10135  ERC20InvalidApprover(address(0)) */\n      mload(0x40)\n      shl(0xe0, 0xe602df05)\n      dup2\n      mstore\n        /* \"@openzeppelin/contracts/token/ERC20/ERC20.sol\":10132:10133  0 */\n      0x00\n        /* \"@openzeppelin/contracts/token/ERC20/ERC20.sol\":10103:10135  ERC20InvalidApprover(address(0)) */\n      0x04\n      dup3\n      add\n        /* \"#utility.yul\":5829:5880   */\n      mstore\n        /* \"#utility.yul\":5802:5820   */\n      0x24\n      add\n        /* \"@openzeppelin/contracts/token/ERC20/ERC20.sol\":10103:10135  ERC20InvalidApprover(address(0)) */\n      tag_139\n        /* \"#utility.yul\":5683:5886   */\n      jump\n        /* \"@openzeppelin/contracts/token/ERC20/ERC20.sol\":10057:10146  if (owner == address(0)) {... */\n    tag_296:\n      sub(shl(0xa0, 0x01), 0x01)\n        /* \"@openzeppelin/contracts/token/ERC20/ERC20.sol\":10159:10180  spender == address(0) */\n      dup4\n      and\n        /* \"@openzeppelin/contracts/token/ERC20/ERC20.sol\":10155:10245  if (spender == address(0)) {... */\n      tag_298\n      jumpi\n        /* \"@openzeppelin/contracts/token/ERC20/ERC20.sol\":10203:10234  ERC20InvalidSpender(address(0)) */\n      mload(0x40)\n      shl(0xe1, 0x4a1406b1)\n      dup2\n      mstore\n        /* \"@openzeppelin/contracts/token/ERC20/ERC20.sol\":10231:10232  0 */\n      0x00\n        /* \"@openzeppelin/contracts/token/ERC20/ERC20.sol\":10203:10234  ERC20InvalidSpender(address(0)) */\n      0x04\n      dup3\n      add\n        /* \"#utility.yul\":5829:5880   */\n      mstore\n        /* \"#utility.yul\":5802:5820   */\n      0x24\n      add\n        /* \"@openzeppelin/contracts/token/ERC20/ERC20.sol\":10203:10234  ERC20InvalidSpender(address(0)) */\n      tag_139\n        /* \"#utility.yul\":5683:5886   */\n      jump\n        /* \"@openzeppelin/contracts/token/ERC20/ERC20.sol\":10155:10245  if (spender == address(0)) {... */\n    tag_298:\n      sub(shl(0xa0, 0x01), 0x01)\n        /* \"@openzeppelin/contracts/token/ERC20/ERC20.sol\":10254:10272  _allowances[owner] */\n      dup1\n      dup6\n      and\n      0x00\n      swap1\n      dup2\n      mstore\n        /* \"@openzeppelin/contracts/token/ERC20/ERC20.sol\":10254:10265  _allowances */\n      0x01\n        /* \"@openzeppelin/contracts/token/ERC20/ERC20.sol\":10254:10272  _allowances[owner] */\n      0x20\n      swap1\n      dup2\n      mstore\n      0x40\n      dup1\n      dup4\n      keccak256\n        /* \"@openzeppelin/contracts/token/ERC20/ERC20.sol\":10254:10281  _allowances[owner][spender] */\n      swap4\n      dup8\n      and\n      dup4\n      mstore\n      swap3\n      swap1\n      mstore\n      keccak256\n        /* \"@openzeppelin/contracts/token/ERC20/ERC20.sol\":10254:10289  _allowances[owner][spender] = value */\n      dup3\n      swap1\n      sstore\n        /* \"@openzeppelin/contracts/token/ERC20/ERC20.sol\":10299:10375  if (emitEvent) {... */\n      dup1\n      iszero\n      tag_270\n      jumpi\n        /* \"@openzeppelin/contracts/token/ERC20/ERC20.sol\":10349:10356  spender */\n      dup3\n      sub(shl(0xa0, 0x01), 0x01)\n        /* \"@openzeppelin/contracts/token/ERC20/ERC20.sol\":10333:10364  Approval(owner, spender, value) */\n      and\n        /* \"@openzeppelin/contracts/token/ERC20/ERC20.sol\":10342:10347  owner */\n      dup5\n      sub(shl(0xa0, 0x01), 0x01)\n        /* \"@openzeppelin/contracts/token/ERC20/ERC20.sol\":10333:10364  Approval(owner, spender, value) */\n      and\n      0x8c5be1e5ebec7d5bd14f71427d1e84f3dd0314c0f7b2291e5b200ac8c7c3b925\n        /* \"@openzeppelin/contracts/token/ERC20/ERC20.sol\":10358:10363  value */\n      dup5\n        /* \"@openzeppelin/contracts/token/ERC20/ERC20.sol\":10333:10364  Approval(owner, spender, value) */\n      mload(0x40)\n      tag_301\n      swap2\n        /* \"#utility.yul\":3124:3149   */\n      dup2\n      mstore\n        /* \"#utility.yul\":3112:3114   */\n      0x20\n        /* \"#utility.yul\":3097:3115   */\n      add\n      swap1\n        /* \"#utility.yul\":2978:3155   */\n      jump\n        /* \"@openzeppelin/contracts/token/ERC20/ERC20.sol\":10333:10364  Approval(owner, spender, value) */\n    tag_301:\n      mload(0x40)\n      dup1\n      swap2\n      sub\n      swap1\n      log3\n        /* \"@openzeppelin/contracts/token/ERC20/ERC20.sol\":9949:10381  function _approve(address owner, address spender, uint256 value, bool emitEvent) internal virtual {... */\n      pop\n      pop\n      pop\n      pop\n      jump\t// out\n        /* \"@openzeppelin/contracts/token/ERC20/ERC20.sol\":6271:7378  function _update(address from, address to, uint256 value) internal virtual {... */\n    tag_277:\n      sub(shl(0xa0, 0x01), 0x01)\n        /* \"@openzeppelin/contracts/token/ERC20/ERC20.sol\":6360:6378  from == address(0) */\n      dup4\n      and\n        /* \"@openzeppelin/contracts/token/ERC20/ERC20.sol\":6356:6896  if (from == address(0)) {... */\n      tag_303\n      jumpi\n        /* \"@openzeppelin/contracts/token/ERC20/ERC20.sol\":6512:6517  value */\n      dup1\n        /* \"@openzeppelin/contracts/token/ERC20/ERC20.sol\":6496:6508  _totalSupply */\n      0x02\n      0x00\n        /* \"@openzeppelin/contracts/token/ERC20/ERC20.sol\":6496:6517  _totalSupply += value */\n      dup3\n      dup3\n      sload\n      tag_304\n      swap2\n      swap1\n      tag_248\n      jump\t// in\n    tag_304:\n      swap1\n      swap2\n      sstore\n      pop\n        /* \"@openzeppelin/contracts/token/ERC20/ERC20.sol\":6356:6896  if (from == address(0)) {... */\n      tag_305\n      swap1\n      pop\n      jump\n    tag_303:\n      sub(shl(0xa0, 0x01), 0x01)\n        /* \"@openzeppelin/contracts/token/ERC20/ERC20.sol\":6570:6585  _balances[from] */\n      dup4\n      and\n        /* \"@openzeppelin/contracts/token/ERC20/ERC20.sol\":6548:6567  uint256 fromBalance */\n      0x00\n        /* \"@openzeppelin/contracts/token/ERC20/ERC20.sol\":6570:6585  _balances[from] */\n      swap1\n      dup2\n      mstore\n      0x20\n      dup2\n      swap1\n      mstore\n      0x40\n      swap1\n      keccak256\n      sload\n        /* \"@openzeppelin/contracts/token/ERC20/ERC20.sol\":6603:6622  fromBalance < value */\n      dup2\n      dup2\n      lt\n        /* \"@openzeppelin/contracts/token/ERC20/ERC20.sol\":6599:6714  if (fromBalance < value) {... */\n      iszero\n      tag_306\n      jumpi\n        /* \"@openzeppelin/contracts/token/ERC20/ERC20.sol\":6649:6699  ERC20InsufficientBalance(from, fromBalance, value) */\n      mload(0x40)\n      shl(0xe2, 0x391434e3)\n      dup2\n      mstore\n      sub(shl(0xa0, 0x01), 0x01)\n        /* \"#utility.yul\":11981:12013   */\n      dup6\n      and\n        /* \"@openzeppelin/contracts/token/ERC20/ERC20.sol\":6649:6699  ERC20InsufficientBalance(from, fromBalance, value) */\n      0x04\n      dup3\n      add\n        /* \"#utility.yul\":11963:12014   */\n      mstore\n        /* \"#utility.yul\":12030:12048   */\n      0x24\n      dup2\n      add\n        /* \"#utility.yul\":12023:12057   */\n      dup3\n      swap1\n      mstore\n        /* \"#utility.yul\":12073:12091   */\n      0x44\n      dup2\n      add\n        /* \"#utility.yul\":12066:12100   */\n      dup4\n      swap1\n      mstore\n        /* \"#utility.yul\":11936:11954   */\n      0x64\n      add\n        /* \"@openzeppelin/contracts/token/ERC20/ERC20.sol\":6649:6699  ERC20InsufficientBalance(from, fromBalance, value) */\n      tag_139\n        /* \"#utility.yul\":11761:12106   */\n      jump\n        /* \"@openzeppelin/contracts/token/ERC20/ERC20.sol\":6599:6714  if (fromBalance < value) {... */\n    tag_306:\n      sub(shl(0xa0, 0x01), 0x01)\n        /* \"@openzeppelin/contracts/token/ERC20/ERC20.sol\":6834:6849  _balances[from] */\n      dup5\n      and\n        /* \"@openzeppelin/contracts/token/ERC20/ERC20.sol\":6834:6843  _balances */\n      0x00\n        /* \"@openzeppelin/contracts/token/ERC20/ERC20.sol\":6834:6849  _balances[from] */\n      swap1\n      dup2\n      mstore\n      0x20\n      dup2\n      swap1\n      mstore\n      0x40\n      swap1\n      keccak256\n        /* \"@openzeppelin/contracts/token/ERC20/ERC20.sol\":6852:6871  fromBalance - value */\n      swap1\n      dup3\n      swap1\n      sub\n        /* \"@openzeppelin/contracts/token/ERC20/ERC20.sol\":6834:6871  _balances[from] = fromBalance - value */\n      swap1\n      sstore\n        /* \"@openzeppelin/contracts/token/ERC20/ERC20.sol\":6356:6896  if (from == address(0)) {... */\n    tag_305:\n      sub(shl(0xa0, 0x01), 0x01)\n        /* \"@openzeppelin/contracts/token/ERC20/ERC20.sol\":6910:6926  to == address(0) */\n      dup3\n      and\n        /* \"@openzeppelin/contracts/token/ERC20/ERC20.sol\":6906:7331  if (to == address(0)) {... */\n      tag_308\n      jumpi\n        /* \"@openzeppelin/contracts/token/ERC20/ERC20.sol\":7073:7085  _totalSupply */\n      0x02\n        /* \"@openzeppelin/contracts/token/ERC20/ERC20.sol\":7073:7094  _totalSupply -= value */\n      dup1\n      sload\n      dup3\n      swap1\n      sub\n      swap1\n      sstore\n        /* \"@openzeppelin/contracts/token/ERC20/ERC20.sol\":6906:7331  if (to == address(0)) {... */\n      jump(tag_309)\n    tag_308:\n      sub(shl(0xa0, 0x01), 0x01)\n        /* \"@openzeppelin/contracts/token/ERC20/ERC20.sol\":7284:7297  _balances[to] */\n      dup3\n      and\n        /* \"@openzeppelin/contracts/token/ERC20/ERC20.sol\":7284:7293  _balances */\n      0x00\n        /* \"@openzeppelin/contracts/token/ERC20/ERC20.sol\":7284:7297  _balances[to] */\n      swap1\n      dup2\n      mstore\n      0x20\n      dup2\n      swap1\n      mstore\n      0x40\n      swap1\n      keccak256\n        /* \"@openzeppelin/contracts/token/ERC20/ERC20.sol\":7284:7306  _balances[to] += value */\n      dup1\n      sload\n      dup3\n      add\n      swap1\n      sstore\n        /* \"@openzeppelin/contracts/token/ERC20/ERC20.sol\":6906:7331  if (to == address(0)) {... */\n    tag_309:\n        /* \"@openzeppelin/contracts/token/ERC20/ERC20.sol\":7361:7363  to */\n      dup2\n      sub(shl(0xa0, 0x01), 0x01)\n        /* \"@openzeppelin/contracts/token/ERC20/ERC20.sol\":7346:7371  Transfer(from, to, value) */\n      and\n        /* \"@openzeppelin/contracts/token/ERC20/ERC20.sol\":7355:7359  from */\n      dup4\n      sub(shl(0xa0, 0x01), 0x01)\n        /* \"@openzeppelin/contracts/token/ERC20/ERC20.sol\":7346:7371  Transfer(from, to, value) */\n      and\n      0xddf252ad1be2c89b69c2b068fc378daa952ba7f163c4a11628f55a4df523b3ef\n        /* \"@openzeppelin/contracts/token/ERC20/ERC20.sol\":7365:7370  value */\n      dup4\n        /* \"@openzeppelin/contracts/token/ERC20/ERC20.sol\":7346:7371  Transfer(from, to, value) */\n      mload(0x40)\n      tag_151\n      swap2\n        /* \"#utility.yul\":3124:3149   */\n      dup2\n      mstore\n        /* \"#utility.yul\":3112:3114   */\n      0x20\n        /* \"#utility.yul\":3097:3115   */\n      add\n      swap1\n        /* \"#utility.yul\":2978:3155   */\n      jump\n        /* \"@openzeppelin/contracts/token/ERC20/ERC20.sol\":8247:8453  function _burn(address account, uint256 value) internal {... */\n    tag_289:\n      sub(shl(0xa0, 0x01), 0x01)\n        /* \"@openzeppelin/contracts/token/ERC20/ERC20.sol\":8317:8338  account == address(0) */\n      dup3\n      and\n        /* \"@openzeppelin/contracts/token/ERC20/ERC20.sol\":8313:8402  if (account == address(0)) {... */\n      tag_312\n      jumpi\n        /* \"@openzeppelin/contracts/token/ERC20/ERC20.sol\":8361:8391  ERC20InvalidSender(address(0)) */\n      mload(0x40)\n      shl(0xe1, 0x4b637e8f)\n      dup2\n      mstore\n        /* \"@openzeppelin/contracts/token/ERC20/ERC20.sol\":8388:8389  0 */\n      0x00\n        /* \"@openzeppelin/contracts/token/ERC20/ERC20.sol\":8361:8391  ERC20InvalidSender(address(0)) */\n      0x04\n      dup3\n      add\n        /* \"#utility.yul\":5829:5880   */\n      mstore\n        /* \"#utility.yul\":5802:5820   */\n      0x24\n      add\n        /* \"@openzeppelin/contracts/token/ERC20/ERC20.sol\":8361:8391  ERC20InvalidSender(address(0)) */\n      tag_139\n        /* \"#utility.yul\":5683:5886   */\n      jump\n        /* \"@openzeppelin/contracts/token/ERC20/ERC20.sol\":8313:8402  if (account == address(0)) {... */\n    tag_312:\n        /* \"@openzeppelin/contracts/token/ERC20/ERC20.sol\":8411:8446  _update(account, address(0), value) */\n      tag_288\n        /* \"@openzeppelin/contracts/token/ERC20/ERC20.sol\":8419:8426  account */\n      dup3\n        /* \"@openzeppelin/contracts/token/ERC20/ERC20.sol\":8436:8437  0 */\n      0x00\n        /* \"@openzeppelin/contracts/token/ERC20/ERC20.sol\":8440:8445  value */\n      dup4\n        /* \"@openzeppelin/contracts/token/ERC20/ERC20.sol\":8411:8418  _update */\n      tag_277\n        /* \"@openzeppelin/contracts/token/ERC20/ERC20.sol\":8411:8446  _update(account, address(0), value) */\n      jump\t// in\n        /* \"@openzeppelin/contracts/token/ERC20/ERC20.sol\":7721:7929  function _mint(address account, uint256 value) internal {... */\n    tag_294:\n      sub(shl(0xa0, 0x01), 0x01)\n        /* \"@openzeppelin/contracts/token/ERC20/ERC20.sol\":7791:7812  account == address(0) */\n      dup3\n      and\n        /* \"@openzeppelin/contracts/token/ERC20/ERC20.sol\":7787:7878  if (account == address(0)) {... */\n      tag_316\n      jumpi\n        /* \"@openzeppelin/contracts/token/ERC20/ERC20.sol\":7835:7867  ERC20InvalidReceiver(address(0)) */\n      mload(0x40)\n      shl(0xe0, 0xec442f05)\n      dup2\n      mstore\n        /* \"@openzeppelin/contracts/token/ERC20/ERC20.sol\":7864:7865  0 */\n      0x00\n        /* \"@openzeppelin/contracts/token/ERC20/ERC20.sol\":7835:7867  ERC20InvalidReceiver(address(0)) */\n      0x04\n      dup3\n      add\n        /* \"#utility.yul\":5829:5880   */\n      mstore\n        /* \"#utility.yul\":5802:5820   */\n      0x24\n      add\n        /* \"@openzeppelin/contracts/token/ERC20/ERC20.sol\":7835:7867  ERC20InvalidReceiver(address(0)) */\n      tag_139\n        /* \"#utility.yul\":5683:5886   */\n      jump\n        /* \"@openzeppelin/contracts/token/ERC20/ERC20.sol\":7787:7878  if (account == address(0)) {... */\n    tag_316:\n        /* \"@openzeppelin/contracts/token/ERC20/ERC20.sol\":7887:7922  _update(address(0), account, value) */\n      tag_288\n        /* \"@openzeppelin/contracts/token/ERC20/ERC20.sol\":7903:7904  0 */\n      0x00\n        /* \"@openzeppelin/contracts/token/ERC20/ERC20.sol\":7907:7914  account */\n      dup4\n        /* \"@openzeppelin/contracts/token/ERC20/ERC20.sol\":7916:7921  value */\n      dup4\n        /* \"@openzeppelin/contracts/token/ERC20/ERC20.sol\":7887:7894  _update */\n      tag_277\n        /* \"@openzeppelin/contracts/token/ERC20/ERC20.sol\":7887:7922  _update(address(0), account, value) */\n      jump\t// in\n        /* \"#utility.yul\":14:153   */\n    tag_319:\n      sub(shl(0xa0, 0x01), 0x01)\n        /* \"#utility.yul\":97:128   */\n      dup2\n      and\n        /* \"#utility.yul\":87:129   */\n      dup2\n      eq\n        /* \"#utility.yul\":77:147   */\n      tag_196\n      jumpi\n        /* \"#utility.yul\":143:144   */\n      0x00\n        /* \"#utility.yul\":140:141   */\n      dup1\n        /* \"#utility.yul\":133:145   */\n      revert\n        /* \"#utility.yul\":158:541   */\n    tag_29:\n        /* \"#utility.yul\":234:240   */\n      0x00\n        /* \"#utility.yul\":242:248   */\n      dup1\n        /* \"#utility.yul\":295:297   */\n      0x40\n        /* \"#utility.yul\":283:292   */\n      dup4\n        /* \"#utility.yul\":274:281   */\n      dup6\n        /* \"#utility.yul\":270:293   */\n      sub\n        /* \"#utility.yul\":266:298   */\n      slt\n        /* \"#utility.yul\":263:315   */\n      iszero\n      tag_331\n      jumpi\n        /* \"#utility.yul\":311:312   */\n      0x00\n        /* \"#utility.yul\":308:309   */\n      dup1\n        /* \"#utility.yul\":301:313   */\n      revert\n        /* \"#utility.yul\":263:315   */\n    tag_331:\n        /* \"#utility.yul\":356:379   */\n      dup3\n      calldataload\n      swap2\n      pop\n        /* \"#utility.yul\":455:457   */\n      0x20\n        /* \"#utility.yul\":440:458   */\n      dup4\n      add\n        /* \"#utility.yul\":427:459   */\n      calldataload\n        /* \"#utility.yul\":468:509   */\n      tag_332\n        /* \"#utility.yul\":427:459   */\n      dup2\n        /* \"#utility.yul\":468:509   */\n      tag_319\n      jump\t// in\n    tag_332:\n        /* \"#utility.yul\":528:535   */\n      dup1\n        /* \"#utility.yul\":518:535   */\n      swap2\n      pop\n      pop\n        /* \"#utility.yul\":158:541   */\n      swap3\n      pop\n      swap3\n      swap1\n      pop\n      jump\t// out\n        /* \"#utility.yul\":546:835   */\n    tag_320:\n        /* \"#utility.yul\":588:591   */\n      0x00\n        /* \"#utility.yul\":626:631   */\n      dup2\n        /* \"#utility.yul\":620:632   */\n      mload\n        /* \"#utility.yul\":653:659   */\n      dup1\n        /* \"#utility.yul\":648:651   */\n      dup5\n        /* \"#utility.yul\":641:660   */\n      mstore\n        /* \"#utility.yul\":709:715   */\n      dup1\n        /* \"#utility.yul\":702:706   */\n      0x20\n        /* \"#utility.yul\":695:700   */\n      dup5\n        /* \"#utility.yul\":691:707   */\n      add\n        /* \"#utility.yul\":684:688   */\n      0x20\n        /* \"#utility.yul\":679:682   */\n      dup7\n        /* \"#utility.yul\":675:689   */\n      add\n        /* \"#utility.yul\":669:716   */\n      mcopy\n        /* \"#utility.yul\":761:762   */\n      0x00\n        /* \"#utility.yul\":754:758   */\n      0x20\n        /* \"#utility.yul\":745:751   */\n      dup3\n        /* \"#utility.yul\":740:743   */\n      dup7\n        /* \"#utility.yul\":736:752   */\n      add\n        /* \"#utility.yul\":732:759   */\n      add\n        /* \"#utility.yul\":725:763   */\n      mstore\n        /* \"#utility.yul\":824:828   */\n      0x20\n        /* \"#utility.yul\":817:819   */\n      0x1f\n        /* \"#utility.yul\":813:820   */\n      not\n        /* \"#utility.yul\":808:810   */\n      0x1f\n        /* \"#utility.yul\":800:806   */\n      dup4\n        /* \"#utility.yul\":796:811   */\n      add\n        /* \"#utility.yul\":792:821   */\n      and\n        /* \"#utility.yul\":787:790   */\n      dup6\n        /* \"#utility.yul\":783:822   */\n      add\n        /* \"#utility.yul\":779:829   */\n      add\n        /* \"#utility.yul\":772:829   */\n      swap2\n      pop\n      pop\n        /* \"#utility.yul\":546:835   */\n      swap3\n      swap2\n      pop\n      pop\n      jump\t// out\n        /* \"#utility.yul\":840:1060   */\n    tag_35:\n        /* \"#utility.yul\":989:991   */\n      0x20\n        /* \"#utility.yul\":978:987   */\n      dup2\n        /* \"#utility.yul\":971:992   */\n      mstore\n        /* \"#utility.yul\":952:956   */\n      0x00\n        /* \"#utility.yul\":1009:1054   */\n      tag_335\n        /* \"#utility.yul\":1050:1052   */\n      0x20\n        /* \"#utility.yul\":1039:1048   */\n      dup4\n        /* \"#utility.yul\":1035:1053   */\n      add\n        /* \"#utility.yul\":1027:1033   */\n      dup5\n        /* \"#utility.yul\":1009:1054   */\n      tag_320\n      jump\t// in\n    tag_335:\n        /* \"#utility.yul\":1001:1054   */\n      swap4\n        /* \"#utility.yul\":840:1060   */\n      swap3\n      pop\n      pop\n      pop\n      jump\t// out\n        /* \"#utility.yul\":1065:1440   */\n    tag_39:\n        /* \"#utility.yul\":1133:1139   */\n      0x00\n        /* \"#utility.yul\":1141:1147   */\n      dup1\n        /* \"#utility.yul\":1194:1196   */\n      0x40\n        /* \"#utility.yul\":1182:1191   */\n      dup4\n        /* \"#utility.yul\":1173:1180   */\n      dup6\n        /* \"#utility.yul\":1169:1192   */\n      sub\n        /* \"#utility.yul\":1165:1197   */\n      slt\n        /* \"#utility.yul\":1162:1214   */\n      iszero\n      tag_337\n      jumpi\n        /* \"#utility.yul\":1210:1211   */\n      0x00\n        /* \"#utility.yul\":1207:1208   */\n      dup1\n        /* \"#utility.yul\":1200:1212   */\n      revert\n        /* \"#utility.yul\":1162:1214   */\n    tag_337:\n        /* \"#utility.yul\":1249:1258   */\n      dup3\n        /* \"#utility.yul\":1236:1259   */\n      calldataload\n        /* \"#utility.yul\":1268:1307   */\n      tag_338\n        /* \"#utility.yul\":1301:1306   */\n      dup2\n        /* \"#utility.yul\":1268:1307   */\n      tag_319\n      jump\t// in\n    tag_338:\n        /* \"#utility.yul\":1326:1331   */\n      swap5\n        /* \"#utility.yul\":1404:1406   */\n      0x20\n        /* \"#utility.yul\":1389:1407   */\n      swap4\n      swap1\n      swap4\n      add\n        /* \"#utility.yul\":1376:1408   */\n      calldataload\n      swap4\n      pop\n      pop\n      pop\n        /* \"#utility.yul\":1065:1440   */\n      jump\t// out\n        /* \"#utility.yul\":1637:1764   */\n    tag_321:\n        /* \"#utility.yul\":1698:1708   */\n      0x4e487b71\n        /* \"#utility.yul\":1693:1696   */\n      0xe0\n        /* \"#utility.yul\":1689:1709   */\n      shl\n        /* \"#utility.yul\":1686:1687   */\n      0x00\n        /* \"#utility.yul\":1679:1710   */\n      mstore\n        /* \"#utility.yul\":1729:1733   */\n      0x41\n        /* \"#utility.yul\":1726:1727   */\n      0x04\n        /* \"#utility.yul\":1719:1734   */\n      mstore\n        /* \"#utility.yul\":1753:1757   */\n      0x24\n        /* \"#utility.yul\":1750:1751   */\n      0x00\n        /* \"#utility.yul\":1743:1758   */\n      revert\n        /* \"#utility.yul\":1769:2495   */\n    tag_322:\n        /* \"#utility.yul\":1812:1817   */\n      0x00\n        /* \"#utility.yul\":1865:1868   */\n      dup3\n        /* \"#utility.yul\":1858:1862   */\n      0x1f\n        /* \"#utility.yul\":1850:1856   */\n      dup4\n        /* \"#utility.yul\":1846:1863   */\n      add\n        /* \"#utility.yul\":1842:1869   */\n      slt\n        /* \"#utility.yul\":1832:1887   */\n      tag_342\n      jumpi\n        /* \"#utility.yul\":1883:1884   */\n      0x00\n        /* \"#utility.yul\":1880:1881   */\n      dup1\n        /* \"#utility.yul\":1873:1885   */\n      revert\n        /* \"#utility.yul\":1832:1887   */\n    tag_342:\n        /* \"#utility.yul\":1923:1929   */\n      dup2\n        /* \"#utility.yul\":1910:1930   */\n      calldataload\n        /* \"#utility.yul\":1953:1971   */\n      0xffffffffffffffff\n        /* \"#utility.yul\":1945:1951   */\n      dup2\n        /* \"#utility.yul\":1942:1972   */\n      gt\n        /* \"#utility.yul\":1939:1995   */\n      iszero\n      tag_344\n      jumpi\n        /* \"#utility.yul\":1975:1993   */\n      tag_344\n      tag_321\n      jump\t// in\n    tag_344:\n        /* \"#utility.yul\":2024:2026   */\n      0x40\n        /* \"#utility.yul\":2018:2027   */\n      mload\n        /* \"#utility.yul\":2116:2118   */\n      0x1f\n        /* \"#utility.yul\":2078:2095   */\n      dup3\n      add\n      not(0x1f)\n        /* \"#utility.yul\":2074:2105   */\n      swap1\n      dup2\n      and\n        /* \"#utility.yul\":2107:2109   */\n      0x3f\n        /* \"#utility.yul\":2070:2110   */\n      add\n        /* \"#utility.yul\":2066:2120   */\n      and\n        /* \"#utility.yul\":2054:2121   */\n      dup2\n      add\n        /* \"#utility.yul\":2151:2169   */\n      0xffffffffffffffff\n        /* \"#utility.yul\":2136:2170   */\n      dup2\n      gt\n        /* \"#utility.yul\":2172:2194   */\n      dup3\n      dup3\n      lt\n        /* \"#utility.yul\":2133:2195   */\n      or\n        /* \"#utility.yul\":2130:2218   */\n      iszero\n      tag_346\n      jumpi\n        /* \"#utility.yul\":2198:2216   */\n      tag_346\n      tag_321\n      jump\t// in\n    tag_346:\n        /* \"#utility.yul\":2234:2236   */\n      0x40\n        /* \"#utility.yul\":2227:2249   */\n      mstore\n        /* \"#utility.yul\":2258:2280   */\n      dup2\n      dup2\n      mstore\n        /* \"#utility.yul\":2299:2318   */\n      dup4\n      dup3\n      add\n        /* \"#utility.yul\":2320:2324   */\n      0x20\n        /* \"#utility.yul\":2295:2325   */\n      add\n        /* \"#utility.yul\":2292:2331   */\n      dup6\n      lt\n        /* \"#utility.yul\":2289:2348   */\n      iszero\n      tag_347\n      jumpi\n        /* \"#utility.yul\":2344:2345   */\n      0x00\n        /* \"#utility.yul\":2341:2342   */\n      dup1\n        /* \"#utility.yul\":2334:2346   */\n      revert\n        /* \"#utility.yul\":2289:2348   */\n    tag_347:\n        /* \"#utility.yul\":2408:2414   */\n      dup2\n        /* \"#utility.yul\":2401:2405   */\n      0x20\n        /* \"#utility.yul\":2393:2399   */\n      dup6\n        /* \"#utility.yul\":2389:2406   */\n      add\n        /* \"#utility.yul\":2382:2386   */\n      0x20\n        /* \"#utility.yul\":2374:2380   */\n      dup4\n        /* \"#utility.yul\":2370:2387   */\n      add\n        /* \"#utility.yul\":2357:2415   */\n      calldatacopy\n        /* \"#utility.yul\":2463:2464   */\n      0x00\n        /* \"#utility.yul\":2435:2454   */\n      swap2\n      dup2\n      add\n        /* \"#utility.yul\":2456:2460   */\n      0x20\n        /* \"#utility.yul\":2431:2461   */\n      add\n        /* \"#utility.yul\":2424:2465   */\n      swap2\n      swap1\n      swap2\n      mstore\n        /* \"#utility.yul\":2439:2445   */\n      swap4\n        /* \"#utility.yul\":1769:2495   */\n      swap3\n      pop\n      pop\n      pop\n      jump\t// out\n        /* \"#utility.yul\":2500:2973   */\n    tag_46:\n        /* \"#utility.yul\":2586:2592   */\n      0x00\n        /* \"#utility.yul\":2594:2600   */\n      dup1\n        /* \"#utility.yul\":2647:2649   */\n      0x40\n        /* \"#utility.yul\":2635:2644   */\n      dup4\n        /* \"#utility.yul\":2626:2633   */\n      dup6\n        /* \"#utility.yul\":2622:2645   */\n      sub\n        /* \"#utility.yul\":2618:2650   */\n      slt\n        /* \"#utility.yul\":2615:2667   */\n      iszero\n      tag_349\n      jumpi\n        /* \"#utility.yul\":2663:2664   */\n      0x00\n        /* \"#utility.yul\":2660:2661   */\n      dup1\n        /* \"#utility.yul\":2653:2665   */\n      revert\n        /* \"#utility.yul\":2615:2667   */\n    tag_349:\n        /* \"#utility.yul\":2703:2712   */\n      dup3\n        /* \"#utility.yul\":2690:2713   */\n      calldataload\n        /* \"#utility.yul\":2736:2754   */\n      0xffffffffffffffff\n        /* \"#utility.yul\":2728:2734   */\n      dup2\n        /* \"#utility.yul\":2725:2755   */\n      gt\n        /* \"#utility.yul\":2722:2772   */\n      iszero\n      tag_350\n      jumpi\n        /* \"#utility.yul\":2768:2769   */\n      0x00\n        /* \"#utility.yul\":2765:2766   */\n      dup1\n        /* \"#utility.yul\":2758:2770   */\n      revert\n        /* \"#utility.yul\":2722:2772   */\n    tag_350:\n        /* \"#utility.yul\":2791:2841   */\n      tag_351\n        /* \"#utility.yul\":2833:2840   */\n      dup6\n        /* \"#utility.yul\":2824:2830   */\n      dup3\n        /* \"#utility.yul\":2813:2822   */\n      dup7\n        /* \"#utility.yul\":2809:2831   */\n      add\n        /* \"#utility.yul\":2791:2841   */\n      tag_322\n      jump\t// in\n    tag_351:\n        /* \"#utility.yul\":2781:2841   */\n      swap3\n      pop\n      pop\n        /* \"#utility.yul\":2891:2893   */\n      0x20\n        /* \"#utility.yul\":2880:2889   */\n      dup4\n        /* \"#utility.yul\":2876:2894   */\n      add\n        /* \"#utility.yul\":2863:2895   */\n      calldataload\n        /* \"#utility.yul\":2904:2943   */\n      tag_332\n        /* \"#utility.yul\":2937:2942   */\n      dup2\n        /* \"#utility.yul\":2904:2943   */\n      tag_319\n      jump\t// in\n        /* \"#utility.yul\":3292:3630   */\n    tag_57:\n        /* \"#utility.yul\":3434:3436   */\n      0x20\n        /* \"#utility.yul\":3419:3437   */\n      dup2\n      add\n        /* \"#utility.yul\":3467:3468   */\n      0x03\n        /* \"#utility.yul\":3456:3469   */\n      dup4\n      lt\n        /* \"#utility.yul\":3446:3590   */\n      tag_356\n      jumpi\n        /* \"#utility.yul\":3512:3522   */\n      0x4e487b71\n        /* \"#utility.yul\":3507:3510   */\n      0xe0\n        /* \"#utility.yul\":3503:3523   */\n      shl\n        /* \"#utility.yul\":3500:3501   */\n      0x00\n        /* \"#utility.yul\":3493:3524   */\n      mstore\n        /* \"#utility.yul\":3547:3551   */\n      0x21\n        /* \"#utility.yul\":3544:3545   */\n      0x04\n        /* \"#utility.yul\":3537:3552   */\n      mstore\n        /* \"#utility.yul\":3575:3579   */\n      0x24\n        /* \"#utility.yul\":3572:3573   */\n      0x00\n        /* \"#utility.yul\":3565:3580   */\n      revert\n        /* \"#utility.yul\":3446:3590   */\n    tag_356:\n        /* \"#utility.yul\":3599:3624   */\n      swap2\n      swap1\n      mstore\n        /* \"#utility.yul\":3292:3630   */\n      swap1\n      jump\t// out\n        /* \"#utility.yul\":3635:4159   */\n    tag_61:\n        /* \"#utility.yul\":3712:3718   */\n      0x00\n        /* \"#utility.yul\":3720:3726   */\n      dup1\n        /* \"#utility.yul\":3728:3734   */\n      0x00\n        /* \"#utility.yul\":3781:3783   */\n      0x60\n        /* \"#utility.yul\":3769:3778   */\n      dup5\n        /* \"#utility.yul\":3760:3767   */\n      dup7\n        /* \"#utility.yul\":3756:3779   */\n      sub\n        /* \"#utility.yul\":3752:3784   */\n      slt\n        /* \"#utility.yul\":3749:3801   */\n      iszero\n      tag_358\n      jumpi\n        /* \"#utility.yul\":3797:3798   */\n      0x00\n        /* \"#utility.yul\":3794:3795   */\n      dup1\n        /* \"#utility.yul\":3787:3799   */\n      revert\n        /* \"#utility.yul\":3749:3801   */\n    tag_358:\n        /* \"#utility.yul\":3836:3845   */\n      dup4\n        /* \"#utility.yul\":3823:3846   */\n      calldataload\n        /* \"#utility.yul\":3855:3894   */\n      tag_359\n        /* \"#utility.yul\":3888:3893   */\n      dup2\n        /* \"#utility.yul\":3855:3894   */\n      tag_319\n      jump\t// in\n    tag_359:\n        /* \"#utility.yul\":3913:3918   */\n      swap3\n      pop\n        /* \"#utility.yul\":3970:3972   */\n      0x20\n        /* \"#utility.yul\":3955:3973   */\n      dup5\n      add\n        /* \"#utility.yul\":3942:3974   */\n      calldataload\n        /* \"#utility.yul\":3983:4024   */\n      tag_360\n        /* \"#utility.yul\":3942:3974   */\n      dup2\n        /* \"#utility.yul\":3983:4024   */\n      tag_319\n      jump\t// in\n    tag_360:\n        /* \"#utility.yul\":3635:4159   */\n      swap3\n      swap6\n        /* \"#utility.yul\":4043:4050   */\n      swap3\n      swap5\n      pop\n      pop\n      pop\n        /* \"#utility.yul\":4123:4125   */\n      0x40\n        /* \"#utility.yul\":4108:4126   */\n      swap2\n      swap1\n      swap2\n      add\n        /* \"#utility.yul\":4095:4127   */\n      calldataload\n      swap1\n        /* \"#utility.yul\":3635:4159   */\n      jump\t// out\n        /* \"#utility.yul\":4353:4675   */\n    tag_72:\n        /* \"#utility.yul\":4422:4428   */\n      0x00\n        /* \"#utility.yul\":4475:4477   */\n      0x20\n        /* \"#utility.yul\":4463:4472   */\n      dup3\n        /* \"#utility.yul\":4454:4461   */\n      dup5\n        /* \"#utility.yul\":4450:4473   */\n      sub\n        /* \"#utility.yul\":4446:4478   */\n      slt\n        /* \"#utility.yul\":4443:4495   */\n      iszero\n      tag_363\n      jumpi\n        /* \"#utility.yul\":4491:4492   */\n      0x00\n        /* \"#utility.yul\":4488:4489   */\n      dup1\n        /* \"#utility.yul\":4481:4493   */\n      revert\n        /* \"#utility.yul\":4443:4495   */\n    tag_363:\n        /* \"#utility.yul\":4531:4540   */\n      dup2\n        /* \"#utility.yul\":4518:4541   */\n      calldataload\n        /* \"#utility.yul\":4564:4582   */\n      0xffffffffffffffff\n        /* \"#utility.yul\":4556:4562   */\n      dup2\n        /* \"#utility.yul\":4553:4583   */\n      gt\n        /* \"#utility.yul\":4550:4600   */\n      iszero\n      tag_364\n      jumpi\n        /* \"#utility.yul\":4596:4597   */\n      0x00\n        /* \"#utility.yul\":4593:4594   */\n      dup1\n        /* \"#utility.yul\":4586:4598   */\n      revert\n        /* \"#utility.yul\":4550:4600   */\n    tag_364:\n        /* \"#utility.yul\":4619:4669   */\n      tag_365\n        /* \"#utility.yul\":4661:4668   */\n      dup5\n        /* \"#utility.yul\":4652:4658   */\n      dup3\n        /* \"#utility.yul\":4641:4650   */\n      dup6\n        /* \"#utility.yul\":4637:4659   */\n      add\n        /* \"#utility.yul\":4619:4669   */\n      tag_322\n      jump\t// in\n    tag_365:\n        /* \"#utility.yul\":4609:4669   */\n      swap5\n        /* \"#utility.yul\":4353:4675   */\n      swap4\n      pop\n      pop\n      pop\n      pop\n      jump\t// out\n        /* \"#utility.yul\":4680:5187   */\n    tag_75:\n        /* \"#utility.yul\":4851:4853   */\n      0x20\n        /* \"#utility.yul\":4833:4854   */\n      dup1\n      dup3\n      mstore\n        /* \"#utility.yul\":4894:4907   */\n      dup3\n      mload\n      sub(shl(0xa0, 0x01), 0x01)\n        /* \"#utility.yul\":4890:4929   */\n      and\n        /* \"#utility.yul\":4870:4888   */\n      dup3\n      dup3\n      add\n        /* \"#utility.yul\":4863:4930   */\n      mstore\n        /* \"#utility.yul\":4965:4980   */\n      dup3\n      add\n        /* \"#utility.yul\":4959:4981   */\n      mload\n        /* \"#utility.yul\":5017:5021   */\n      0x60\n        /* \"#utility.yul\":5012:5014   */\n      0x40\n        /* \"#utility.yul\":4997:5015   */\n      dup4\n      add\n        /* \"#utility.yul\":4990:5022   */\n      mstore\n      0x00\n      swap1\n        /* \"#utility.yul\":5045:5097   */\n      tag_367\n        /* \"#utility.yul\":5092:5095   */\n      0x80\n        /* \"#utility.yul\":5077:5096   */\n      dup5\n      add\n        /* \"#utility.yul\":4959:4981   */\n      dup3\n        /* \"#utility.yul\":5045:5097   */\n      tag_320\n      jump\t// in\n    tag_367:\n        /* \"#utility.yul\":5031:5097   */\n      swap1\n      pop\n        /* \"#utility.yul\":5153:5155   */\n      0x40\n        /* \"#utility.yul\":5145:5151   */\n      dup5\n        /* \"#utility.yul\":5141:5156   */\n      add\n        /* \"#utility.yul\":5135:5157   */\n      mload\n        /* \"#utility.yul\":5128:5132   */\n      0x60\n        /* \"#utility.yul\":5117:5126   */\n      dup5\n        /* \"#utility.yul\":5113:5133   */\n      add\n        /* \"#utility.yul\":5106:5158   */\n      mstore\n        /* \"#utility.yul\":5175:5181   */\n      dup1\n        /* \"#utility.yul\":5167:5181   */\n      swap2\n      pop\n      pop\n        /* \"#utility.yul\":4680:5187   */\n      swap3\n      swap2\n      pop\n      pop\n      jump\t// out\n        /* \"#utility.yul\":5192:5447   */\n    tag_79:\n        /* \"#utility.yul\":5251:5257   */\n      0x00\n        /* \"#utility.yul\":5304:5306   */\n      0x20\n        /* \"#utility.yul\":5292:5301   */\n      dup3\n        /* \"#utility.yul\":5283:5290   */\n      dup5\n        /* \"#utility.yul\":5279:5302   */\n      sub\n        /* \"#utility.yul\":5275:5307   */\n      slt\n        /* \"#utility.yul\":5272:5324   */\n      iszero\n      tag_369\n      jumpi\n        /* \"#utility.yul\":5320:5321   */\n      0x00\n        /* \"#utility.yul\":5317:5318   */\n      dup1\n        /* \"#utility.yul\":5310:5322   */\n      revert\n        /* \"#utility.yul\":5272:5324   */\n    tag_369:\n        /* \"#utility.yul\":5359:5368   */\n      dup2\n        /* \"#utility.yul\":5346:5369   */\n      calldataload\n        /* \"#utility.yul\":5378:5417   */\n      tag_335\n        /* \"#utility.yul\":5411:5416   */\n      dup2\n        /* \"#utility.yul\":5378:5417   */\n      tag_319\n      jump\t// in\n        /* \"#utility.yul\":5452:5678   */\n    tag_97:\n        /* \"#utility.yul\":5511:5517   */\n      0x00\n        /* \"#utility.yul\":5564:5566   */\n      0x20\n        /* \"#utility.yul\":5552:5561   */\n      dup3\n        /* \"#utility.yul\":5543:5550   */\n      dup5\n        /* \"#utility.yul\":5539:5562   */\n      sub\n        /* \"#utility.yul\":5535:5567   */\n      slt\n        /* \"#utility.yul\":5532:5584   */\n      iszero\n      tag_372\n      jumpi\n        /* \"#utility.yul\":5580:5581   */\n      0x00\n        /* \"#utility.yul\":5577:5578   */\n      dup1\n        /* \"#utility.yul\":5570:5582   */\n      revert\n        /* \"#utility.yul\":5532:5584   */\n    tag_372:\n      pop\n        /* \"#utility.yul\":5625:5648   */\n      calldataload\n      swap2\n        /* \"#utility.yul\":5452:5678   */\n      swap1\n      pop\n      jump\t// out\n        /* \"#utility.yul\":5891:6279   */\n    tag_113:\n      sub(shl(0xa0, 0x01), 0x01)\n        /* \"#utility.yul\":6096:6128   */\n      dup5\n      and\n        /* \"#utility.yul\":6078:6129   */\n      dup2\n      mstore\n        /* \"#utility.yul\":6165:6167   */\n      0x60\n        /* \"#utility.yul\":6160:6162   */\n      0x20\n        /* \"#utility.yul\":6145:6163   */\n      dup3\n      add\n        /* \"#utility.yul\":6138:6168   */\n      dup2\n      swap1\n      mstore\n      0x00\n      swap1\n        /* \"#utility.yul\":6185:6230   */\n      tag_375\n      swap1\n        /* \"#utility.yul\":6211:6229   */\n      dup4\n      add\n        /* \"#utility.yul\":6203:6209   */\n      dup6\n        /* \"#utility.yul\":6185:6230   */\n      tag_320\n      jump\t// in\n    tag_375:\n        /* \"#utility.yul\":6177:6230   */\n      swap1\n      pop\n        /* \"#utility.yul\":6266:6272   */\n      dup3\n        /* \"#utility.yul\":6261:6263   */\n      0x40\n        /* \"#utility.yul\":6250:6259   */\n      dup4\n        /* \"#utility.yul\":6246:6264   */\n      add\n        /* \"#utility.yul\":6239:6273   */\n      mstore\n        /* \"#utility.yul\":5891:6279   */\n      swap5\n      swap4\n      pop\n      pop\n      pop\n      pop\n      jump\t// out\n        /* \"#utility.yul\":6284:6688   */\n    tag_128:\n        /* \"#utility.yul\":6352:6358   */\n      0x00\n        /* \"#utility.yul\":6360:6366   */\n      dup1\n        /* \"#utility.yul\":6413:6415   */\n      0x40\n        /* \"#utility.yul\":6401:6410   */\n      dup4\n        /* \"#utility.yul\":6392:6399   */\n      dup6\n        /* \"#utility.yul\":6388:6411   */\n      sub\n        /* \"#utility.yul\":6384:6416   */\n      slt\n        /* \"#utility.yul\":6381:6433   */\n      iszero\n      tag_377\n      jumpi\n        /* \"#utility.yul\":6429:6430   */\n      0x00\n        /* \"#utility.yul\":6426:6427   */\n      dup1\n        /* \"#utility.yul\":6419:6431   */\n      revert\n        /* \"#utility.yul\":6381:6433   */\n    tag_377:\n        /* \"#utility.yul\":6468:6477   */\n      dup3\n        /* \"#utility.yul\":6455:6478   */\n      calldataload\n        /* \"#utility.yul\":6487:6526   */\n      tag_378\n        /* \"#utility.yul\":6520:6525   */\n      dup2\n        /* \"#utility.yul\":6487:6526   */\n      tag_319\n      jump\t// in\n    tag_378:\n        /* \"#utility.yul\":6545:6550   */\n      swap2\n      pop\n        /* \"#utility.yul\":6602:6604   */\n      0x20\n        /* \"#utility.yul\":6587:6605   */\n      dup4\n      add\n        /* \"#utility.yul\":6574:6606   */\n      calldataload\n        /* \"#utility.yul\":6615:6656   */\n      tag_332\n        /* \"#utility.yul\":6574:6606   */\n      dup2\n        /* \"#utility.yul\":6615:6656   */\n      tag_319\n      jump\t// in\n        /* \"#utility.yul\":6693:7044   */\n    tag_140:\n        /* \"#utility.yul\":6895:6897   */\n      0x20\n        /* \"#utility.yul\":6877:6898   */\n      dup1\n      dup3\n      mstore\n        /* \"#utility.yul\":6934:6936   */\n      0x1b\n        /* \"#utility.yul\":6914:6932   */\n      swap1\n      dup3\n      add\n        /* \"#utility.yul\":6907:6937   */\n      mstore\n        /* \"#utility.yul\":6973:7002   */\n      0x54686973206973206120636f6e74726163742061646472657373210000000000\n        /* \"#utility.yul\":6968:6970   */\n      0x40\n        /* \"#utility.yul\":6953:6971   */\n      dup3\n      add\n        /* \"#utility.yul\":6946:7003   */\n      mstore\n        /* \"#utility.yul\":7035:7037   */\n      0x60\n        /* \"#utility.yul\":7020:7038   */\n      add\n      swap1\n        /* \"#utility.yul\":6693:7044   */\n      jump\t// out\n        /* \"#utility.yul\":7758:7885   */\n    tag_323:\n        /* \"#utility.yul\":7819:7829   */\n      0x4e487b71\n        /* \"#utility.yul\":7814:7817   */\n      0xe0\n        /* \"#utility.yul\":7810:7830   */\n      shl\n        /* \"#utility.yul\":7807:7808   */\n      0x00\n        /* \"#utility.yul\":7800:7831   */\n      mstore\n        /* \"#utility.yul\":7850:7854   */\n      0x11\n        /* \"#utility.yul\":7847:7848   */\n      0x04\n        /* \"#utility.yul\":7840:7855   */\n      mstore\n        /* \"#utility.yul\":7874:7878   */\n      0x24\n        /* \"#utility.yul\":7871:7872   */\n      0x00\n        /* \"#utility.yul\":7864:7879   */\n      revert\n        /* \"#utility.yul\":7890:8018   */\n    tag_149:\n        /* \"#utility.yul\":7957:7966   */\n      dup2\n      dup2\n      sub\n        /* \"#utility.yul\":7978:7989   */\n      dup2\n      dup2\n      gt\n        /* \"#utility.yul\":7975:8012   */\n      iszero\n      tag_159\n      jumpi\n        /* \"#utility.yul\":7992:8010   */\n      tag_159\n      tag_323\n      jump\t// in\n        /* \"#utility.yul\":8023:8403   */\n    tag_154:\n        /* \"#utility.yul\":8102:8103   */\n      0x01\n        /* \"#utility.yul\":8098:8110   */\n      dup2\n      dup2\n      shr\n      swap1\n        /* \"#utility.yul\":8145:8157   */\n      dup3\n      and\n      dup1\n        /* \"#utility.yul\":8166:8227   */\n      tag_388\n      jumpi\n        /* \"#utility.yul\":8220:8224   */\n      0x7f\n        /* \"#utility.yul\":8212:8218   */\n      dup3\n        /* \"#utility.yul\":8208:8225   */\n      and\n        /* \"#utility.yul\":8198:8225   */\n      swap2\n      pop\n        /* \"#utility.yul\":8166:8227   */\n    tag_388:\n        /* \"#utility.yul\":8273:8275   */\n      0x20\n        /* \"#utility.yul\":8265:8271   */\n      dup3\n        /* \"#utility.yul\":8262:8276   */\n      lt\n        /* \"#utility.yul\":8242:8260   */\n      dup2\n        /* \"#utility.yul\":8239:8277   */\n      sub\n        /* \"#utility.yul\":8236:8397   */\n      tag_186\n      jumpi\n        /* \"#utility.yul\":8319:8329   */\n      0x4e487b71\n        /* \"#utility.yul\":8314:8317   */\n      0xe0\n        /* \"#utility.yul\":8310:8330   */\n      shl\n        /* \"#utility.yul\":8307:8308   */\n      0x00\n        /* \"#utility.yul\":8300:8331   */\n      mstore\n        /* \"#utility.yul\":8354:8358   */\n      0x22\n        /* \"#utility.yul\":8351:8352   */\n      0x04\n        /* \"#utility.yul\":8344:8359   */\n      mstore\n        /* \"#utility.yul\":8382:8386   */\n      0x24\n        /* \"#utility.yul\":8379:8380   */\n      0x00\n        /* \"#utility.yul\":8372:8387   */\n      revert\n        /* \"#utility.yul\":8887:9405   */\n    tag_325:\n        /* \"#utility.yul\":8989:8991   */\n      0x1f\n        /* \"#utility.yul\":8984:8987   */\n      dup3\n        /* \"#utility.yul\":8981:8992   */\n      gt\n        /* \"#utility.yul\":8978:9399   */\n      iszero\n      tag_262\n      jumpi\n        /* \"#utility.yul\":9025:9030   */\n      dup1\n        /* \"#utility.yul\":9022:9023   */\n      0x00\n        /* \"#utility.yul\":9015:9031   */\n      mstore\n        /* \"#utility.yul\":9069:9073   */\n      0x20\n        /* \"#utility.yul\":9066:9067   */\n      0x00\n        /* \"#utility.yul\":9056:9074   */\n      keccak256\n        /* \"#utility.yul\":9139:9141   */\n      0x1f\n        /* \"#utility.yul\":9127:9137   */\n      dup5\n        /* \"#utility.yul\":9123:9142   */\n      add\n        /* \"#utility.yul\":9120:9121   */\n      0x05\n        /* \"#utility.yul\":9116:9143   */\n      shr\n        /* \"#utility.yul\":9110:9114   */\n      dup2\n        /* \"#utility.yul\":9106:9144   */\n      add\n        /* \"#utility.yul\":9175:9179   */\n      0x20\n        /* \"#utility.yul\":9163:9173   */\n      dup6\n        /* \"#utility.yul\":9160:9180   */\n      lt\n        /* \"#utility.yul\":9157:9204   */\n      iszero\n      tag_394\n      jumpi\n      pop\n        /* \"#utility.yul\":9198:9202   */\n      dup1\n        /* \"#utility.yul\":9157:9204   */\n    tag_394:\n        /* \"#utility.yul\":9253:9255   */\n      0x1f\n        /* \"#utility.yul\":9248:9251   */\n      dup5\n        /* \"#utility.yul\":9244:9256   */\n      add\n        /* \"#utility.yul\":9241:9242   */\n      0x05\n        /* \"#utility.yul\":9237:9257   */\n      shr\n        /* \"#utility.yul\":9231:9235   */\n      dup3\n        /* \"#utility.yul\":9227:9258   */\n      add\n        /* \"#utility.yul\":9217:9258   */\n      swap2\n      pop\n        /* \"#utility.yul\":9308:9389   */\n    tag_395:\n        /* \"#utility.yul\":9326:9328   */\n      dup2\n        /* \"#utility.yul\":9319:9324   */\n      dup2\n        /* \"#utility.yul\":9316:9329   */\n      lt\n        /* \"#utility.yul\":9308:9389   */\n      iszero\n      tag_397\n      jumpi\n        /* \"#utility.yul\":9385:9386   */\n      0x00\n        /* \"#utility.yul\":9371:9387   */\n      dup2\n      sstore\n        /* \"#utility.yul\":9352:9353   */\n      0x01\n        /* \"#utility.yul\":9341:9354   */\n      add\n        /* \"#utility.yul\":9308:9389   */\n      jump(tag_395)\n    tag_397:\n        /* \"#utility.yul\":9312:9315   */\n      pop\n      pop\n        /* \"#utility.yul\":8887:9405   */\n      pop\n      pop\n      pop\n      jump\t// out\n        /* \"#utility.yul\":9581:10880   */\n    tag_170:\n        /* \"#utility.yul\":9707:9710   */\n      dup2\n        /* \"#utility.yul\":9701:9711   */\n      mload\n        /* \"#utility.yul\":9734:9752   */\n      0xffffffffffffffff\n        /* \"#utility.yul\":9726:9732   */\n      dup2\n        /* \"#utility.yul\":9723:9753   */\n      gt\n        /* \"#utility.yul\":9720:9776   */\n      iszero\n      tag_401\n      jumpi\n        /* \"#utility.yul\":9756:9774   */\n      tag_401\n      tag_321\n      jump\t// in\n    tag_401:\n        /* \"#utility.yul\":9785:9882   */\n      tag_402\n        /* \"#utility.yul\":9875:9881   */\n      dup2\n        /* \"#utility.yul\":9835:9873   */\n      tag_403\n        /* \"#utility.yul\":9867:9871   */\n      dup5\n        /* \"#utility.yul\":9861:9872   */\n      sload\n        /* \"#utility.yul\":9835:9873   */\n      tag_154\n      jump\t// in\n    tag_403:\n        /* \"#utility.yul\":9829:9833   */\n      dup5\n        /* \"#utility.yul\":9785:9882   */\n      tag_325\n      jump\t// in\n    tag_402:\n        /* \"#utility.yul\":9931:9935   */\n      0x20\n        /* \"#utility.yul\":9962:9964   */\n      0x1f\n        /* \"#utility.yul\":9951:9965   */\n      dup3\n      gt\n        /* \"#utility.yul\":9979:9980   */\n      0x01\n        /* \"#utility.yul\":9974:10623   */\n      dup2\n      eq\n      tag_405\n      jumpi\n        /* \"#utility.yul\":10667:10668   */\n      0x00\n        /* \"#utility.yul\":10684:10690   */\n      dup4\n        /* \"#utility.yul\":10681:10770   */\n      iszero\n      tag_406\n      jumpi\n      pop\n        /* \"#utility.yul\":10736:10755   */\n      dup5\n      dup3\n      add\n        /* \"#utility.yul\":10730:10756   */\n      mload\n        /* \"#utility.yul\":10681:10770   */\n    tag_406:\n      not(0x00)\n        /* \"#utility.yul\":9538:9539   */\n      0x03\n        /* \"#utility.yul\":9534:9545   */\n      dup6\n      swap1\n      shl\n        /* \"#utility.yul\":9530:9554   */\n      shr\n        /* \"#utility.yul\":9526:9555   */\n      not\n        /* \"#utility.yul\":9516:9556   */\n      and\n        /* \"#utility.yul\":9562:9563   */\n      0x01\n        /* \"#utility.yul\":9558:9569   */\n      dup5\n      swap1\n      shl\n        /* \"#utility.yul\":9513:9570   */\n      or\n        /* \"#utility.yul\":10783:10864   */\n      dup5\n      sstore\n        /* \"#utility.yul\":9944:10874   */\n      jump(tag_397)\n        /* \"#utility.yul\":9974:10623   */\n    tag_405:\n        /* \"#utility.yul\":8834:8835   */\n      0x00\n        /* \"#utility.yul\":8827:8841   */\n      dup5\n      dup2\n      mstore\n        /* \"#utility.yul\":8871:8875   */\n      0x20\n        /* \"#utility.yul\":8858:8876   */\n      dup2\n      keccak256\n      not(0x1f)\n        /* \"#utility.yul\":10010:10030   */\n      dup6\n      and\n      swap2\n        /* \"#utility.yul\":10128:10350   */\n    tag_409:\n        /* \"#utility.yul\":10142:10149   */\n      dup3\n        /* \"#utility.yul\":10139:10140   */\n      dup2\n        /* \"#utility.yul\":10136:10150   */\n      lt\n        /* \"#utility.yul\":10128:10350   */\n      iszero\n      tag_411\n      jumpi\n        /* \"#utility.yul\":10224:10243   */\n      dup8\n      dup6\n      add\n        /* \"#utility.yul\":10218:10244   */\n      mload\n        /* \"#utility.yul\":10203:10245   */\n      dup3\n      sstore\n        /* \"#utility.yul\":10331:10335   */\n      0x20\n        /* \"#utility.yul\":10316:10336   */\n      swap5\n      dup6\n      add\n      swap5\n        /* \"#utility.yul\":10284:10285   */\n      0x01\n        /* \"#utility.yul\":10272:10286   */\n      swap1\n      swap3\n      add\n      swap2\n        /* \"#utility.yul\":10158:10170   */\n      add\n        /* \"#utility.yul\":10128:10350   */\n      jump(tag_409)\n    tag_411:\n        /* \"#utility.yul\":10132:10135   */\n      pop\n        /* \"#utility.yul\":10378:10384   */\n      dup5\n        /* \"#utility.yul\":10369:10376   */\n      dup3\n        /* \"#utility.yul\":10366:10385   */\n      lt\n        /* \"#utility.yul\":10363:10564   */\n      iszero\n      tag_412\n      jumpi\n        /* \"#utility.yul\":10439:10458   */\n      dup7\n      dup5\n      add\n        /* \"#utility.yul\":10433:10459   */\n      mload\n      not(0x00)\n        /* \"#utility.yul\":10522:10523   */\n      0x03\n        /* \"#utility.yul\":10518:10532   */\n      dup8\n      swap1\n      shl\n        /* \"#utility.yul\":10534:10537   */\n      0xf8\n        /* \"#utility.yul\":10514:10538   */\n      and\n        /* \"#utility.yul\":10510:10547   */\n      shr\n        /* \"#utility.yul\":10506:10548   */\n      not\n        /* \"#utility.yul\":10491:10549   */\n      and\n        /* \"#utility.yul\":10476:10550   */\n      dup2\n      sstore\n        /* \"#utility.yul\":10363:10564   */\n    tag_412:\n      pop\n      pop\n      pop\n      pop\n        /* \"#utility.yul\":10610:10611   */\n      0x01\n        /* \"#utility.yul\":10594:10608   */\n      swap1\n      dup2\n      shl\n        /* \"#utility.yul\":10590:10612   */\n      add\n        /* \"#utility.yul\":10577:10613   */\n      swap1\n      sstore\n      pop\n        /* \"#utility.yul\":9581:10880   */\n      jump\t// out\n        /* \"#utility.yul\":11631:11756   */\n    tag_248:\n        /* \"#utility.yul\":11696:11705   */\n      dup1\n      dup3\n      add\n        /* \"#utility.yul\":11717:11727   */\n      dup1\n      dup3\n      gt\n        /* \"#utility.yul\":11714:11750   */\n      iszero\n      tag_159\n      jumpi\n        /* \"#utility.yul\":11730:11748   */\n      tag_159\n      tag_323\n      jump\t// in\n\n    auxdata: 0xa26469706673582212206ae6381d32b93ca389faf351e1f7a7359686d5cbe9cd917e25122dfd2fb52b6f64736f6c634300081a0033\n}\n",
				"bytecode": {
					"linkReferences": {},
					"object": "60806040526601599ba503c000600755670de0b6b3a7640000600855348015610026575f80fd5b506040516116ef3803806116ef83398101604081905261004591610132565b803360405180604001604052806008815260200167252b21aa37b5b2b760c11b815250604051806040016040528060038152602001624a564360e81b815250816003908161009391906101e1565b5060046100a082826101e1565b5050506001600160a01b0381166100d057604051631e4fbdf760e01b81525f600482015260240160405180910390fd5b6100d9816100e1565b50505061029b565b600580546001600160a01b038381166001600160a01b0319831681179093556040519116919082907f8be0079c531659141344cd1fd0a4f28419497f9722a3daafe3b4186f6b6457e0905f90a35050565b5f60208284031215610142575f80fd5b5051919050565b634e487b7160e01b5f52604160045260245ffd5b600181811c9082168061017157607f821691505b60208210810361018f57634e487b7160e01b5f52602260045260245ffd5b50919050565b601f8211156101dc57805f5260205f20601f840160051c810160208510156101ba5750805b601f840160051c820191505b818110156101d9575f81556001016101c6565b50505b505050565b81516001600160401b038111156101fa576101fa610149565b61020e81610208845461015d565b84610195565b6020601f821160018114610240575f83156102295750848201515b5f19600385901b1c1916600184901b1784556101d9565b5f84815260208120601f198516915b8281101561026f578785015182556020948501946001909201910161024f565b508482101561028c57868401515f19600387901b60f8161c191681555b50505050600190811b01905550565b611447806102a85f395ff3fe608060405260043610610130575f3560e01c806370a08231116100a8578063a87430ba1161006d578063a87430ba1461034b578063a9059cbb14610379578063c634d03214610398578063d0e30db0146103b7578063dd62ed3e146103bf578063f2fde38b14610403575f80fd5b806370a08231146102a9578063715018a6146102dd5780637b47ec1a146102f15780638da5cb5b1461031057806395d89b4114610337575f80fd5b8063200d2ed2116100f9578063200d2ed2146101df57806323b872dd14610205578063313ce567146102245780634bff50091461023f5780636281b95b1461026b57806369c212f61461028a575f80fd5b8062f714ce1461013457806306fdde0314610149578063095ea7b3146101735780630e54b872146101a257806318160ddd146101c1575b5f80fd5b610147610142366004610f74565b610422565b005b348015610154575f80fd5b5061015d61057f565b60405161016a9190610fd0565b60405180910390f35b34801561017e575f80fd5b5061019261018d366004610fe9565b61060f565b604051901515815260200161016a565b3480156101ad575f80fd5b506101476101bc3660046110b2565b610628565b3480156101cc575f80fd5b506002545b60405190815260200161016a565b3480156101ea575f80fd5b506009546101f89060ff1681565b60405161016a91906110f6565b348015610210575f80fd5b5061019261021f36600461111c565b61070a565b34801561022f575f80fd5b506040516012815260200161016a565b34801561024a575f80fd5b5061025e61025936600461115a565b61072d565b60405161016a9190611194565b348015610276575f80fd5b506101476102853660046111d7565b610888565b348015610295575f80fd5b5061025e6102a43660046111d7565b61089c565b3480156102b4575f80fd5b506101d16102c33660046111d7565b6001600160a01b03165f9081526020819052604090205490565b3480156102e8575f80fd5b50610147610932565b3480156102fc575f80fd5b5061014761030b3660046111f2565b610945565b34801561031b575f80fd5b506005546040516001600160a01b03909116815260200161016a565b348015610342575f80fd5b5061015d61094f565b348015610356575f80fd5b5061036a6103653660046111d7565b61095e565b60405161016a93929190611209565b348015610384575f80fd5b50610192610393366004610fe9565b610a10565b3480156103a3575f80fd5b506101476103b23660046111f2565b610a1d565b610147610a27565b3480156103ca575f80fd5b506101d16103d936600461123c565b6001600160a01b039182165f90815260016020908152604080832093909416825291909152205490565b34801561040e575f80fd5b5061014761041d3660046111d7565b610b43565b33803b1561044b5760405162461bcd60e51b815260040161044290611268565b60405180910390fd5b6001600160a01b0382165f908152600660205260409020600201548311156104ac5760405162461bcd60e51b8152602060048201526014602482015273496e73756666696369656e742062616c616e636560601b6044820152606401610442565b6008548311156104fe5760405162461bcd60e51b815260206004820152601f60248201527f5769746864726177616c20616d6f756e742065786365656473206c696d6974006044820152606401610442565b6001600160a01b0382165f90815260066020526040812060020180548592906105289084906112b3565b9091555061053890508284610a10565b5060405183815233906001600160a01b038416907f46b6c03a6ed8406eda01806ab6d408e07129555fda5275b7f67e3a255f2d7a0d906020015b60405180910390a3505050565b60606003805461058e906112c6565b80601f01602080910402602001604051908101604052809291908181526020018280546105ba906112c6565b80156106055780601f106105dc57610100808354040283529160200191610605565b820191905f5260205f20905b8154815290600101906020018083116105e857829003601f168201915b5050505050905090565b5f3361061c818585610b7d565b60019150505b92915050565b6001600160a01b0381165f908152600660205260409020600101805461064d906112c6565b15905061069c5760405162461bcd60e51b815260206004820152601860248201527f5573657220616c726561647920726567697374657265642100000000000000006044820152606401610442565b604080516060810182526001600160a01b0383811680835260208084018781525f8587018190529283526006909152939020825181546001600160a01b0319169216919091178155915190919060018201906106f89082611343565b50604082015181600201559050505050565b5f33610717858285610b8f565b610722858585610c0a565b506001949350505050565b61075860405180606001604052805f6001600160a01b03168152602001606081526020015f81525090565b335f9081526006602052604090206001018054839190610777906112c6565b90505f036107b95760405162461bcd60e51b815260206004820152600f60248201526e55736572206e6f7420666f756e642160881b6044820152606401610442565b335f9081526006602090815260409182902082516060810190935280546001600160a01b0316835260018101805491928401916107f5906112c6565b80601f0160208091040260200160405190810160405280929190818152602001828054610821906112c6565b801561086c5780601f106108435761010080835404028352916020019161086c565b820191905f5260205f20905b81548152906001019060200180831161084f57829003601f168201915b5050505050815260200160028201548152505091505b50919050565b610890610c67565b61089981610b43565b50565b6108c760405180606001604052805f6001600160a01b03168152602001606081526020015f81525090565b816001600160a01b0381163b156108f05760405162461bcd60e51b815260040161044290611268565b6001600160a01b038084165f9081526006602090815260409182902082516060810190935280549093168252600183018054929392918401916107f5906112c6565b61093a610c67565b6109435f610c94565b565b6108993082610ce5565b60606004805461058e906112c6565b60066020525f9081526040902080546001820180546001600160a01b039092169291610989906112c6565b80601f01602080910402602001604051908101604052809291908181526020018280546109b5906112c6565b8015610a005780601f106109d757610100808354040283529160200191610a00565b820191905f5260205f20905b8154815290600101906020018083116109e357829003601f168201915b5050505050908060020154905083565b5f3361061c818585610c0a565b6108993082610cfb565b33803b15610a475760405162461bcd60e51b815260040161044290611268565b600754341015610ad2576009805460ff191660011790556040805160208082526021908201527f4d696e696d756d206465706f73697420616d6f756e7420697320302e3030303391810191909152600760fb1b606082015233907fa8b9f7931ac94cf9850accd175cf4543fac81ae93865d1670e14213829f67de5906080015b60405180910390a250565b610add33303461070a565b50335f9081526006602052604081206002018054349290610aff9084906113fe565b90915550506009805460ff1916600217905560405134815233907fb3ef81558ed1a50072a492984535a009da8b129c749500b387f1e5f4886bdde590602001610ac7565b610b4b610c67565b6001600160a01b038116610b7457604051631e4fbdf760e01b81525f6004820152602401610442565b61089981610c94565b610b8a8383836001610d0d565b505050565b6001600160a01b038381165f908152600160209081526040808320938616835292905220545f198114610c045781811015610bf657604051637dc7a0d960e11b81526001600160a01b03841660048201526024810182905260448101839052606401610442565b610c0484848484035f610d0d565b50505050565b6001600160a01b038316610c3357604051634b637e8f60e11b81525f6004820152602401610442565b6001600160a01b038216610c5c5760405163ec442f0560e01b81525f6004820152602401610442565b610b8a838383610ddf565b6005546001600160a01b031633146109435760405163118cdaa760e01b8152336004820152602401610442565b600580546001600160a01b038381166001600160a01b0319831681179093556040519116919082907f8be0079c531659141344cd1fd0a4f28419497f9722a3daafe3b4186f6b6457e0905f90a35050565b610ced610c67565b610cf78282610ef8565b5050565b610d03610c67565b610cf78282610f2c565b6001600160a01b038416610d365760405163e602df0560e01b81525f6004820152602401610442565b6001600160a01b038316610d5f57604051634a1406b160e11b81525f6004820152602401610442565b6001600160a01b038085165f9081526001602090815260408083209387168352929052208290558015610c0457826001600160a01b0316846001600160a01b03167f8c5be1e5ebec7d5bd14f71427d1e84f3dd0314c0f7b2291e5b200ac8c7c3b92584604051610dd191815260200190565b60405180910390a350505050565b6001600160a01b038316610e09578060025f828254610dfe91906113fe565b90915550610e799050565b6001600160a01b0383165f9081526020819052604090205481811015610e5b5760405163391434e360e21b81526001600160a01b03851660048201526024810182905260448101839052606401610442565b6001600160a01b0384165f9081526020819052604090209082900390555b6001600160a01b038216610e9557600280548290039055610eb3565b6001600160a01b0382165f9081526020819052604090208054820190555b816001600160a01b0316836001600160a01b03167fddf252ad1be2c89b69c2b068fc378daa952ba7f163c4a11628f55a4df523b3ef8360405161057291815260200190565b6001600160a01b038216610f2157604051634b637e8f60e11b81525f6004820152602401610442565b610cf7825f83610ddf565b6001600160a01b038216610f555760405163ec442f0560e01b81525f6004820152602401610442565b610cf75f8383610ddf565b6001600160a01b0381168114610899575f80fd5b5f8060408385031215610f85575f80fd5b823591506020830135610f9781610f60565b809150509250929050565b5f81518084528060208401602086015e5f602082860101526020601f19601f83011685010191505092915050565b602081525f610fe26020830184610fa2565b9392505050565b5f8060408385031215610ffa575f80fd5b823561100581610f60565b946020939093013593505050565b634e487b7160e01b5f52604160045260245ffd5b5f82601f830112611036575f80fd5b813567ffffffffffffffff81111561105057611050611013565b604051601f8201601f19908116603f0116810167ffffffffffffffff8111828210171561107f5761107f611013565b604052818152838201602001851015611096575f80fd5b816020850160208301375f918101602001919091529392505050565b5f80604083850312156110c3575f80fd5b823567ffffffffffffffff8111156110d9575f80fd5b6110e585828601611027565b9250506020830135610f9781610f60565b602081016003831061111657634e487b7160e01b5f52602160045260245ffd5b91905290565b5f805f6060848603121561112e575f80fd5b833561113981610f60565b9250602084013561114981610f60565b929592945050506040919091013590565b5f6020828403121561116a575f80fd5b813567ffffffffffffffff811115611180575f80fd5b61118c84828501611027565b949350505050565b602080825282516001600160a01b031682820152820151606060408301525f906111c16080840182610fa2565b9050604084015160608401528091505092915050565b5f602082840312156111e7575f80fd5b8135610fe281610f60565b5f60208284031215611202575f80fd5b5035919050565b6001600160a01b03841681526060602082018190525f9061122c90830185610fa2565b9050826040830152949350505050565b5f806040838503121561124d575f80fd5b823561125881610f60565b91506020830135610f9781610f60565b6020808252601b908201527f54686973206973206120636f6e74726163742061646472657373210000000000604082015260600190565b634e487b7160e01b5f52601160045260245ffd5b818103818111156106225761062261129f565b600181811c908216806112da57607f821691505b60208210810361088257634e487b7160e01b5f52602260045260245ffd5b601f821115610b8a57805f5260205f20601f840160051c8101602085101561131d5750805b601f840160051c820191505b8181101561133c575f8155600101611329565b5050505050565b815167ffffffffffffffff81111561135d5761135d611013565b6113718161136b84546112c6565b846112f8565b6020601f8211600181146113a3575f831561138c5750848201515b5f19600385901b1c1916600184901b17845561133c565b5f84815260208120601f198516915b828110156113d257878501518255602094850194600190920191016113b2565b50848210156113ef57868401515f19600387901b60f8161c191681555b50505050600190811b01905550565b808201808211156106225761062261129f56fea26469706673582212206ae6381d32b93ca389faf351e1f7a7359686d5cbe9cd917e25122dfd2fb52b6f64736f6c634300081a0033",
					"opcodes": "PUSH1 0x80 PUSH1 0x40 MSTORE PUSH7 0x1599BA503C000 PUSH1 0x7 SSTORE PUSH8 0xDE0B6B3A7640000 PUSH1 0x8 SSTORE CALLVALUE DUP1 ISZERO PUSH2 0x26 JUMPI PUSH0 DUP1 REVERT JUMPDEST POP PUSH1 0x40 MLOAD PUSH2 0x16EF CODESIZE SUB DUP1 PUSH2 0x16EF DUP4 CODECOPY DUP2 ADD PUSH1 0x40 DUP2 SWAP1 MSTORE PUSH2 0x45 SWAP2 PUSH2 0x132 JUMP JUMPDEST DUP1 CALLER PUSH1 0x40 MLOAD DUP1 PUSH1 0x40 ADD PUSH1 0x40 MSTORE DUP1 PUSH1 0x8 DUP2 MSTORE PUSH1 0x20 ADD PUSH8 0x252B21AA37B5B2B7 PUSH1 0xC1 SHL DUP2 MSTORE POP PUSH1 0x40 MLOAD DUP1 PUSH1 0x40 ADD PUSH1 0x40 MSTORE DUP1 PUSH1 0x3 DUP2 MSTORE PUSH1 0x20 ADD PUSH3 0x4A5643 PUSH1 0xE8 SHL DUP2 MSTORE POP DUP2 PUSH1 0x3 SWAP1 DUP2 PUSH2 0x93 SWAP2 SWAP1 PUSH2 0x1E1 JUMP JUMPDEST POP PUSH1 0x4 PUSH2 0xA0 DUP3 DUP3 PUSH2 0x1E1 JUMP JUMPDEST POP POP POP PUSH1 0x1 PUSH1 0x1 PUSH1 0xA0 SHL SUB DUP2 AND PUSH2 0xD0 JUMPI PUSH1 0x40 MLOAD PUSH4 0x1E4FBDF7 PUSH1 0xE0 SHL DUP2 MSTORE PUSH0 PUSH1 0x4 DUP3 ADD MSTORE PUSH1 0x24 ADD PUSH1 0x40 MLOAD DUP1 SWAP2 SUB SWAP1 REVERT JUMPDEST PUSH2 0xD9 DUP2 PUSH2 0xE1 JUMP JUMPDEST POP POP POP PUSH2 0x29B JUMP JUMPDEST PUSH1 0x5 DUP1 SLOAD PUSH1 0x1 PUSH1 0x1 PUSH1 0xA0 SHL SUB DUP4 DUP2 AND PUSH1 0x1 PUSH1 0x1 PUSH1 0xA0 SHL SUB NOT DUP4 AND DUP2 OR SWAP1 SWAP4 SSTORE PUSH1 0x40 MLOAD SWAP2 AND SWAP2 SWAP1 DUP3 SWAP1 PUSH32 0x8BE0079C531659141344CD1FD0A4F28419497F9722A3DAAFE3B4186F6B6457E0 SWAP1 PUSH0 SWAP1 LOG3 POP POP JUMP JUMPDEST PUSH0 PUSH1 0x20 DUP3 DUP5 SUB SLT ISZERO PUSH2 0x142 JUMPI PUSH0 DUP1 REVERT JUMPDEST POP MLOAD SWAP2 SWAP1 POP JUMP JUMPDEST PUSH4 0x4E487B71 PUSH1 0xE0 SHL PUSH0 MSTORE PUSH1 0x41 PUSH1 0x4 MSTORE PUSH1 0x24 PUSH0 REVERT JUMPDEST PUSH1 0x1 DUP2 DUP2 SHR SWAP1 DUP3 AND DUP1 PUSH2 0x171 JUMPI PUSH1 0x7F DUP3 AND SWAP2 POP JUMPDEST PUSH1 0x20 DUP3 LT DUP2 SUB PUSH2 0x18F JUMPI PUSH4 0x4E487B71 PUSH1 0xE0 SHL PUSH0 MSTORE PUSH1 0x22 PUSH1 0x4 MSTORE PUSH1 0x24 PUSH0 REVERT JUMPDEST POP SWAP2 SWAP1 POP JUMP JUMPDEST PUSH1 0x1F DUP3 GT ISZERO PUSH2 0x1DC JUMPI DUP1 PUSH0 MSTORE PUSH1 0x20 PUSH0 KECCAK256 PUSH1 0x1F DUP5 ADD PUSH1 0x5 SHR DUP2 ADD PUSH1 0x20 DUP6 LT ISZERO PUSH2 0x1BA JUMPI POP DUP1 JUMPDEST PUSH1 0x1F DUP5 ADD PUSH1 0x5 SHR DUP3 ADD SWAP2 POP JUMPDEST DUP2 DUP2 LT ISZERO PUSH2 0x1D9 JUMPI PUSH0 DUP2 SSTORE PUSH1 0x1 ADD PUSH2 0x1C6 JUMP JUMPDEST POP POP JUMPDEST POP POP POP JUMP JUMPDEST DUP2 MLOAD PUSH1 0x1 PUSH1 0x1 PUSH1 0x40 SHL SUB DUP2 GT ISZERO PUSH2 0x1FA JUMPI PUSH2 0x1FA PUSH2 0x149 JUMP JUMPDEST PUSH2 0x20E DUP2 PUSH2 0x208 DUP5 SLOAD PUSH2 0x15D JUMP JUMPDEST DUP5 PUSH2 0x195 JUMP JUMPDEST PUSH1 0x20 PUSH1 0x1F DUP3 GT PUSH1 0x1 DUP2 EQ PUSH2 0x240 JUMPI PUSH0 DUP4 ISZERO PUSH2 0x229 JUMPI POP DUP5 DUP3 ADD MLOAD JUMPDEST PUSH0 NOT PUSH1 0x3 DUP6 SWAP1 SHL SHR NOT AND PUSH1 0x1 DUP5 SWAP1 SHL OR DUP5 SSTORE PUSH2 0x1D9 JUMP JUMPDEST PUSH0 DUP5 DUP2 MSTORE PUSH1 0x20 DUP2 KECCAK256 PUSH1 0x1F NOT DUP6 AND SWAP2 JUMPDEST DUP3 DUP2 LT ISZERO PUSH2 0x26F JUMPI DUP8 DUP6 ADD MLOAD DUP3 SSTORE PUSH1 0x20 SWAP5 DUP6 ADD SWAP5 PUSH1 0x1 SWAP1 SWAP3 ADD SWAP2 ADD PUSH2 0x24F JUMP JUMPDEST POP DUP5 DUP3 LT ISZERO PUSH2 0x28C JUMPI DUP7 DUP5 ADD MLOAD PUSH0 NOT PUSH1 0x3 DUP8 SWAP1 SHL PUSH1 0xF8 AND SHR NOT AND DUP2 SSTORE JUMPDEST POP POP POP POP PUSH1 0x1 SWAP1 DUP2 SHL ADD SWAP1 SSTORE POP JUMP JUMPDEST PUSH2 0x1447 DUP1 PUSH2 0x2A8 PUSH0 CODECOPY PUSH0 RETURN INVALID PUSH1 0x80 PUSH1 0x40 MSTORE PUSH1 0x4 CALLDATASIZE LT PUSH2 0x130 JUMPI PUSH0 CALLDATALOAD PUSH1 0xE0 SHR DUP1 PUSH4 0x70A08231 GT PUSH2 0xA8 JUMPI DUP1 PUSH4 0xA87430BA GT PUSH2 0x6D JUMPI DUP1 PUSH4 0xA87430BA EQ PUSH2 0x34B JUMPI DUP1 PUSH4 0xA9059CBB EQ PUSH2 0x379 JUMPI DUP1 PUSH4 0xC634D032 EQ PUSH2 0x398 JUMPI DUP1 PUSH4 0xD0E30DB0 EQ PUSH2 0x3B7 JUMPI DUP1 PUSH4 0xDD62ED3E EQ PUSH2 0x3BF JUMPI DUP1 PUSH4 0xF2FDE38B EQ PUSH2 0x403 JUMPI PUSH0 DUP1 REVERT JUMPDEST DUP1 PUSH4 0x70A08231 EQ PUSH2 0x2A9 JUMPI DUP1 PUSH4 0x715018A6 EQ PUSH2 0x2DD JUMPI DUP1 PUSH4 0x7B47EC1A EQ PUSH2 0x2F1 JUMPI DUP1 PUSH4 0x8DA5CB5B EQ PUSH2 0x310 JUMPI DUP1 PUSH4 0x95D89B41 EQ PUSH2 0x337 JUMPI PUSH0 DUP1 REVERT JUMPDEST DUP1 PUSH4 0x200D2ED2 GT PUSH2 0xF9 JUMPI DUP1 PUSH4 0x200D2ED2 EQ PUSH2 0x1DF JUMPI DUP1 PUSH4 0x23B872DD EQ PUSH2 0x205 JUMPI DUP1 PUSH4 0x313CE567 EQ PUSH2 0x224 JUMPI DUP1 PUSH4 0x4BFF5009 EQ PUSH2 0x23F JUMPI DUP1 PUSH4 0x6281B95B EQ PUSH2 0x26B JUMPI DUP1 PUSH4 0x69C212F6 EQ PUSH2 0x28A JUMPI PUSH0 DUP1 REVERT JUMPDEST DUP1 PUSH3 0xF714CE EQ PUSH2 0x134 JUMPI DUP1 PUSH4 0x6FDDE03 EQ PUSH2 0x149 JUMPI DUP1 PUSH4 0x95EA7B3 EQ PUSH2 0x173 JUMPI DUP1 PUSH4 0xE54B872 EQ PUSH2 0x1A2 JUMPI DUP1 PUSH4 0x18160DDD EQ PUSH2 0x1C1 JUMPI JUMPDEST PUSH0 DUP1 REVERT JUMPDEST PUSH2 0x147 PUSH2 0x142 CALLDATASIZE PUSH1 0x4 PUSH2 0xF74 JUMP JUMPDEST PUSH2 0x422 JUMP JUMPDEST STOP JUMPDEST CALLVALUE DUP1 ISZERO PUSH2 0x154 JUMPI PUSH0 DUP1 REVERT JUMPDEST POP PUSH2 0x15D PUSH2 0x57F JUMP JUMPDEST PUSH1 0x40 MLOAD PUSH2 0x16A SWAP2 SWAP1 PUSH2 0xFD0 JUMP JUMPDEST PUSH1 0x40 MLOAD DUP1 SWAP2 SUB SWAP1 RETURN JUMPDEST CALLVALUE DUP1 ISZERO PUSH2 0x17E JUMPI PUSH0 DUP1 REVERT JUMPDEST POP PUSH2 0x192 PUSH2 0x18D CALLDATASIZE PUSH1 0x4 PUSH2 0xFE9 JUMP JUMPDEST PUSH2 0x60F JUMP JUMPDEST PUSH1 0x40 MLOAD SWAP1 ISZERO ISZERO DUP2 MSTORE PUSH1 0x20 ADD PUSH2 0x16A JUMP JUMPDEST CALLVALUE DUP1 ISZERO PUSH2 0x1AD JUMPI PUSH0 DUP1 REVERT JUMPDEST POP PUSH2 0x147 PUSH2 0x1BC CALLDATASIZE PUSH1 0x4 PUSH2 0x10B2 JUMP JUMPDEST PUSH2 0x628 JUMP JUMPDEST CALLVALUE DUP1 ISZERO PUSH2 0x1CC JUMPI PUSH0 DUP1 REVERT JUMPDEST POP PUSH1 0x2 SLOAD JUMPDEST PUSH1 0x40 MLOAD SWAP1 DUP2 MSTORE PUSH1 0x20 ADD PUSH2 0x16A JUMP JUMPDEST CALLVALUE DUP1 ISZERO PUSH2 0x1EA JUMPI PUSH0 DUP1 REVERT JUMPDEST POP PUSH1 0x9 SLOAD PUSH2 0x1F8 SWAP1 PUSH1 0xFF AND DUP2 JUMP JUMPDEST PUSH1 0x40 MLOAD PUSH2 0x16A SWAP2 SWAP1 PUSH2 0x10F6 JUMP JUMPDEST CALLVALUE DUP1 ISZERO PUSH2 0x210 JUMPI PUSH0 DUP1 REVERT JUMPDEST POP PUSH2 0x192 PUSH2 0x21F CALLDATASIZE PUSH1 0x4 PUSH2 0x111C JUMP JUMPDEST PUSH2 0x70A JUMP JUMPDEST CALLVALUE DUP1 ISZERO PUSH2 0x22F JUMPI PUSH0 DUP1 REVERT JUMPDEST POP PUSH1 0x40 MLOAD PUSH1 0x12 DUP2 MSTORE PUSH1 0x20 ADD PUSH2 0x16A JUMP JUMPDEST CALLVALUE DUP1 ISZERO PUSH2 0x24A JUMPI PUSH0 DUP1 REVERT JUMPDEST POP PUSH2 0x25E PUSH2 0x259 CALLDATASIZE PUSH1 0x4 PUSH2 0x115A JUMP JUMPDEST PUSH2 0x72D JUMP JUMPDEST PUSH1 0x40 MLOAD PUSH2 0x16A SWAP2 SWAP1 PUSH2 0x1194 JUMP JUMPDEST CALLVALUE DUP1 ISZERO PUSH2 0x276 JUMPI PUSH0 DUP1 REVERT JUMPDEST POP PUSH2 0x147 PUSH2 0x285 CALLDATASIZE PUSH1 0x4 PUSH2 0x11D7 JUMP JUMPDEST PUSH2 0x888 JUMP JUMPDEST CALLVALUE DUP1 ISZERO PUSH2 0x295 JUMPI PUSH0 DUP1 REVERT JUMPDEST POP PUSH2 0x25E PUSH2 0x2A4 CALLDATASIZE PUSH1 0x4 PUSH2 0x11D7 JUMP JUMPDEST PUSH2 0x89C JUMP JUMPDEST CALLVALUE DUP1 ISZERO PUSH2 0x2B4 JUMPI PUSH0 DUP1 REVERT JUMPDEST POP PUSH2 0x1D1 PUSH2 0x2C3 CALLDATASIZE PUSH1 0x4 PUSH2 0x11D7 JUMP JUMPDEST PUSH1 0x1 PUSH1 0x1 PUSH1 0xA0 SHL SUB AND PUSH0 SWAP1 DUP2 MSTORE PUSH1 0x20 DUP2 SWAP1 MSTORE PUSH1 0x40 SWAP1 KECCAK256 SLOAD SWAP1 JUMP JUMPDEST CALLVALUE DUP1 ISZERO PUSH2 0x2E8 JUMPI PUSH0 DUP1 REVERT JUMPDEST POP PUSH2 0x147 PUSH2 0x932 JUMP JUMPDEST CALLVALUE DUP1 ISZERO PUSH2 0x2FC JUMPI PUSH0 DUP1 REVERT JUMPDEST POP PUSH2 0x147 PUSH2 0x30B CALLDATASIZE PUSH1 0x4 PUSH2 0x11F2 JUMP JUMPDEST PUSH2 0x945 JUMP JUMPDEST CALLVALUE DUP1 ISZERO PUSH2 0x31B JUMPI PUSH0 DUP1 REVERT JUMPDEST POP PUSH1 0x5 SLOAD PUSH1 0x40 MLOAD PUSH1 0x1 PUSH1 0x1 PUSH1 0xA0 SHL SUB SWAP1 SWAP2 AND DUP2 MSTORE PUSH1 0x20 ADD PUSH2 0x16A JUMP JUMPDEST CALLVALUE DUP1 ISZERO PUSH2 0x342 JUMPI PUSH0 DUP1 REVERT JUMPDEST POP PUSH2 0x15D PUSH2 0x94F JUMP JUMPDEST CALLVALUE DUP1 ISZERO PUSH2 0x356 JUMPI PUSH0 DUP1 REVERT JUMPDEST POP PUSH2 0x36A PUSH2 0x365 CALLDATASIZE PUSH1 0x4 PUSH2 0x11D7 JUMP JUMPDEST PUSH2 0x95E JUMP JUMPDEST PUSH1 0x40 MLOAD PUSH2 0x16A SWAP4 SWAP3 SWAP2 SWAP1 PUSH2 0x1209 JUMP JUMPDEST CALLVALUE DUP1 ISZERO PUSH2 0x384 JUMPI PUSH0 DUP1 REVERT JUMPDEST POP PUSH2 0x192 PUSH2 0x393 CALLDATASIZE PUSH1 0x4 PUSH2 0xFE9 JUMP JUMPDEST PUSH2 0xA10 JUMP JUMPDEST CALLVALUE DUP1 ISZERO PUSH2 0x3A3 JUMPI PUSH0 DUP1 REVERT JUMPDEST POP PUSH2 0x147 PUSH2 0x3B2 CALLDATASIZE PUSH1 0x4 PUSH2 0x11F2 JUMP JUMPDEST PUSH2 0xA1D JUMP JUMPDEST PUSH2 0x147 PUSH2 0xA27 JUMP JUMPDEST CALLVALUE DUP1 ISZERO PUSH2 0x3CA JUMPI PUSH0 DUP1 REVERT JUMPDEST POP PUSH2 0x1D1 PUSH2 0x3D9 CALLDATASIZE PUSH1 0x4 PUSH2 0x123C JUMP JUMPDEST PUSH1 0x1 PUSH1 0x1 PUSH1 0xA0 SHL SUB SWAP2 DUP3 AND PUSH0 SWAP1 DUP2 MSTORE PUSH1 0x1 PUSH1 0x20 SWAP1 DUP2 MSTORE PUSH1 0x40 DUP1 DUP4 KECCAK256 SWAP4 SWAP1 SWAP5 AND DUP3 MSTORE SWAP2 SWAP1 SWAP2 MSTORE KECCAK256 SLOAD SWAP1 JUMP JUMPDEST CALLVALUE DUP1 ISZERO PUSH2 0x40E JUMPI PUSH0 DUP1 REVERT JUMPDEST POP PUSH2 0x147 PUSH2 0x41D CALLDATASIZE PUSH1 0x4 PUSH2 0x11D7 JUMP JUMPDEST PUSH2 0xB43 JUMP JUMPDEST CALLER DUP1 EXTCODESIZE ISZERO PUSH2 0x44B JUMPI PUSH1 0x40 MLOAD PUSH3 0x461BCD PUSH1 0xE5 SHL DUP2 MSTORE PUSH1 0x4 ADD PUSH2 0x442 SWAP1 PUSH2 0x1268 JUMP JUMPDEST PUSH1 0x40 MLOAD DUP1 SWAP2 SUB SWAP1 REVERT JUMPDEST PUSH1 0x1 PUSH1 0x1 PUSH1 0xA0 SHL SUB DUP3 AND PUSH0 SWAP1 DUP2 MSTORE PUSH1 0x6 PUSH1 0x20 MSTORE PUSH1 0x40 SWAP1 KECCAK256 PUSH1 0x2 ADD SLOAD DUP4 GT ISZERO PUSH2 0x4AC JUMPI PUSH1 0x40 MLOAD PUSH3 0x461BCD PUSH1 0xE5 SHL DUP2 MSTORE PUSH1 0x20 PUSH1 0x4 DUP3 ADD MSTORE PUSH1 0x14 PUSH1 0x24 DUP3 ADD MSTORE PUSH20 0x496E73756666696369656E742062616C616E6365 PUSH1 0x60 SHL PUSH1 0x44 DUP3 ADD MSTORE PUSH1 0x64 ADD PUSH2 0x442 JUMP JUMPDEST PUSH1 0x8 SLOAD DUP4 GT ISZERO PUSH2 0x4FE JUMPI PUSH1 0x40 MLOAD PUSH3 0x461BCD PUSH1 0xE5 SHL DUP2 MSTORE PUSH1 0x20 PUSH1 0x4 DUP3 ADD MSTORE PUSH1 0x1F PUSH1 0x24 DUP3 ADD MSTORE PUSH32 0x5769746864726177616C20616D6F756E742065786365656473206C696D697400 PUSH1 0x44 DUP3 ADD MSTORE PUSH1 0x64 ADD PUSH2 0x442 JUMP JUMPDEST PUSH1 0x1 PUSH1 0x1 PUSH1 0xA0 SHL SUB DUP3 AND PUSH0 SWAP1 DUP2 MSTORE PUSH1 0x6 PUSH1 0x20 MSTORE PUSH1 0x40 DUP2 KECCAK256 PUSH1 0x2 ADD DUP1 SLOAD DUP6 SWAP3 SWAP1 PUSH2 0x528 SWAP1 DUP5 SWAP1 PUSH2 0x12B3 JUMP JUMPDEST SWAP1 SWAP2 SSTORE POP PUSH2 0x538 SWAP1 POP DUP3 DUP5 PUSH2 0xA10 JUMP JUMPDEST POP PUSH1 0x40 MLOAD DUP4 DUP2 MSTORE CALLER SWAP1 PUSH1 0x1 PUSH1 0x1 PUSH1 0xA0 SHL SUB DUP5 AND SWAP1 PUSH32 0x46B6C03A6ED8406EDA01806AB6D408E07129555FDA5275B7F67E3A255F2D7A0D SWAP1 PUSH1 0x20 ADD JUMPDEST PUSH1 0x40 MLOAD DUP1 SWAP2 SUB SWAP1 LOG3 POP POP POP JUMP JUMPDEST PUSH1 0x60 PUSH1 0x3 DUP1 SLOAD PUSH2 0x58E SWAP1 PUSH2 0x12C6 JUMP JUMPDEST DUP1 PUSH1 0x1F ADD PUSH1 0x20 DUP1 SWAP2 DIV MUL PUSH1 0x20 ADD PUSH1 0x40 MLOAD SWAP1 DUP2 ADD PUSH1 0x40 MSTORE DUP1 SWAP3 SWAP2 SWAP1 DUP2 DUP2 MSTORE PUSH1 0x20 ADD DUP3 DUP1 SLOAD PUSH2 0x5BA SWAP1 PUSH2 0x12C6 JUMP JUMPDEST DUP1 ISZERO PUSH2 0x605 JUMPI DUP1 PUSH1 0x1F LT PUSH2 0x5DC JUMPI PUSH2 0x100 DUP1 DUP4 SLOAD DIV MUL DUP4 MSTORE SWAP2 PUSH1 0x20 ADD SWAP2 PUSH2 0x605 JUMP JUMPDEST DUP3 ADD SWAP2 SWAP1 PUSH0 MSTORE PUSH1 0x20 PUSH0 KECCAK256 SWAP1 JUMPDEST DUP2 SLOAD DUP2 MSTORE SWAP1 PUSH1 0x1 ADD SWAP1 PUSH1 0x20 ADD DUP1 DUP4 GT PUSH2 0x5E8 JUMPI DUP3 SWAP1 SUB PUSH1 0x1F AND DUP3 ADD SWAP2 JUMPDEST POP POP POP POP POP SWAP1 POP SWAP1 JUMP JUMPDEST PUSH0 CALLER PUSH2 0x61C DUP2 DUP6 DUP6 PUSH2 0xB7D JUMP JUMPDEST PUSH1 0x1 SWAP2 POP POP JUMPDEST SWAP3 SWAP2 POP POP JUMP JUMPDEST PUSH1 0x1 PUSH1 0x1 PUSH1 0xA0 SHL SUB DUP2 AND PUSH0 SWAP1 DUP2 MSTORE PUSH1 0x6 PUSH1 0x20 MSTORE PUSH1 0x40 SWAP1 KECCAK256 PUSH1 0x1 ADD DUP1 SLOAD PUSH2 0x64D SWAP1 PUSH2 0x12C6 JUMP JUMPDEST ISZERO SWAP1 POP PUSH2 0x69C JUMPI PUSH1 0x40 MLOAD PUSH3 0x461BCD PUSH1 0xE5 SHL DUP2 MSTORE PUSH1 0x20 PUSH1 0x4 DUP3 ADD MSTORE PUSH1 0x18 PUSH1 0x24 DUP3 ADD MSTORE PUSH32 0x5573657220616C72656164792072656769737465726564210000000000000000 PUSH1 0x44 DUP3 ADD MSTORE PUSH1 0x64 ADD PUSH2 0x442 JUMP JUMPDEST PUSH1 0x40 DUP1 MLOAD PUSH1 0x60 DUP2 ADD DUP3 MSTORE PUSH1 0x1 PUSH1 0x1 PUSH1 0xA0 SHL SUB DUP4 DUP2 AND DUP1 DUP4 MSTORE PUSH1 0x20 DUP1 DUP5 ADD DUP8 DUP2 MSTORE PUSH0 DUP6 DUP8 ADD DUP2 SWAP1 MSTORE SWAP3 DUP4 MSTORE PUSH1 0x6 SWAP1 SWAP2 MSTORE SWAP4 SWAP1 KECCAK256 DUP3 MLOAD DUP2 SLOAD PUSH1 0x1 PUSH1 0x1 PUSH1 0xA0 SHL SUB NOT AND SWAP3 AND SWAP2 SWAP1 SWAP2 OR DUP2 SSTORE SWAP2 MLOAD SWAP1 SWAP2 SWAP1 PUSH1 0x1 DUP3 ADD SWAP1 PUSH2 0x6F8 SWAP1 DUP3 PUSH2 0x1343 JUMP JUMPDEST POP PUSH1 0x40 DUP3 ADD MLOAD DUP2 PUSH1 0x2 ADD SSTORE SWAP1 POP POP POP POP JUMP JUMPDEST PUSH0 CALLER PUSH2 0x717 DUP6 DUP3 DUP6 PUSH2 0xB8F JUMP JUMPDEST PUSH2 0x722 DUP6 DUP6 DUP6 PUSH2 0xC0A JUMP JUMPDEST POP PUSH1 0x1 SWAP5 SWAP4 POP POP POP POP JUMP JUMPDEST PUSH2 0x758 PUSH1 0x40 MLOAD DUP1 PUSH1 0x60 ADD PUSH1 0x40 MSTORE DUP1 PUSH0 PUSH1 0x1 PUSH1 0x1 PUSH1 0xA0 SHL SUB AND DUP2 MSTORE PUSH1 0x20 ADD PUSH1 0x60 DUP2 MSTORE PUSH1 0x20 ADD PUSH0 DUP2 MSTORE POP SWAP1 JUMP JUMPDEST CALLER PUSH0 SWAP1 DUP2 MSTORE PUSH1 0x6 PUSH1 0x20 MSTORE PUSH1 0x40 SWAP1 KECCAK256 PUSH1 0x1 ADD DUP1 SLOAD DUP4 SWAP2 SWAP1 PUSH2 0x777 SWAP1 PUSH2 0x12C6 JUMP JUMPDEST SWAP1 POP PUSH0 SUB PUSH2 0x7B9 JUMPI PUSH1 0x40 MLOAD PUSH3 0x461BCD PUSH1 0xE5 SHL DUP2 MSTORE PUSH1 0x20 PUSH1 0x4 DUP3 ADD MSTORE PUSH1 0xF PUSH1 0x24 DUP3 ADD MSTORE PUSH15 0x55736572206E6F7420666F756E6421 PUSH1 0x88 SHL PUSH1 0x44 DUP3 ADD MSTORE PUSH1 0x64 ADD PUSH2 0x442 JUMP JUMPDEST CALLER PUSH0 SWAP1 DUP2 MSTORE PUSH1 0x6 PUSH1 0x20 SWAP1 DUP2 MSTORE PUSH1 0x40 SWAP2 DUP3 SWAP1 KECCAK256 DUP3 MLOAD PUSH1 0x60 DUP2 ADD SWAP1 SWAP4 MSTORE DUP1 SLOAD PUSH1 0x1 PUSH1 0x1 PUSH1 0xA0 SHL SUB AND DUP4 MSTORE PUSH1 0x1 DUP2 ADD DUP1 SLOAD SWAP2 SWAP3 DUP5 ADD SWAP2 PUSH2 0x7F5 SWAP1 PUSH2 0x12C6 JUMP JUMPDEST DUP1 PUSH1 0x1F ADD PUSH1 0x20 DUP1 SWAP2 DIV MUL PUSH1 0x20 ADD PUSH1 0x40 MLOAD SWAP1 DUP2 ADD PUSH1 0x40 MSTORE DUP1 SWAP3 SWAP2 SWAP1 DUP2 DUP2 MSTORE PUSH1 0x20 ADD DUP3 DUP1 SLOAD PUSH2 0x821 SWAP1 PUSH2 0x12C6 JUMP JUMPDEST DUP1 ISZERO PUSH2 0x86C JUMPI DUP1 PUSH1 0x1F LT PUSH2 0x843 JUMPI PUSH2 0x100 DUP1 DUP4 SLOAD DIV MUL DUP4 MSTORE SWAP2 PUSH1 0x20 ADD SWAP2 PUSH2 0x86C JUMP JUMPDEST DUP3 ADD SWAP2 SWAP1 PUSH0 MSTORE PUSH1 0x20 PUSH0 KECCAK256 SWAP1 JUMPDEST DUP2 SLOAD DUP2 MSTORE SWAP1 PUSH1 0x1 ADD SWAP1 PUSH1 0x20 ADD DUP1 DUP4 GT PUSH2 0x84F JUMPI DUP3 SWAP1 SUB PUSH1 0x1F AND DUP3 ADD SWAP2 JUMPDEST POP POP POP POP POP DUP2 MSTORE PUSH1 0x20 ADD PUSH1 0x2 DUP3 ADD SLOAD DUP2 MSTORE POP POP SWAP2 POP JUMPDEST POP SWAP2 SWAP1 POP JUMP JUMPDEST PUSH2 0x890 PUSH2 0xC67 JUMP JUMPDEST PUSH2 0x899 DUP2 PUSH2 0xB43 JUMP JUMPDEST POP JUMP JUMPDEST PUSH2 0x8C7 PUSH1 0x40 MLOAD DUP1 PUSH1 0x60 ADD PUSH1 0x40 MSTORE DUP1 PUSH0 PUSH1 0x1 PUSH1 0x1 PUSH1 0xA0 SHL SUB AND DUP2 MSTORE PUSH1 0x20 ADD PUSH1 0x60 DUP2 MSTORE PUSH1 0x20 ADD PUSH0 DUP2 MSTORE POP SWAP1 JUMP JUMPDEST DUP2 PUSH1 0x1 PUSH1 0x1 PUSH1 0xA0 SHL SUB DUP2 AND EXTCODESIZE ISZERO PUSH2 0x8F0 JUMPI PUSH1 0x40 MLOAD PUSH3 0x461BCD PUSH1 0xE5 SHL DUP2 MSTORE PUSH1 0x4 ADD PUSH2 0x442 SWAP1 PUSH2 0x1268 JUMP JUMPDEST PUSH1 0x1 PUSH1 0x1 PUSH1 0xA0 SHL SUB DUP1 DUP5 AND PUSH0 SWAP1 DUP2 MSTORE PUSH1 0x6 PUSH1 0x20 SWAP1 DUP2 MSTORE PUSH1 0x40 SWAP2 DUP3 SWAP1 KECCAK256 DUP3 MLOAD PUSH1 0x60 DUP2 ADD SWAP1 SWAP4 MSTORE DUP1 SLOAD SWAP1 SWAP4 AND DUP3 MSTORE PUSH1 0x1 DUP4 ADD DUP1 SLOAD SWAP3 SWAP4 SWAP3 SWAP2 DUP5 ADD SWAP2 PUSH2 0x7F5 SWAP1 PUSH2 0x12C6 JUMP JUMPDEST PUSH2 0x93A PUSH2 0xC67 JUMP JUMPDEST PUSH2 0x943 PUSH0 PUSH2 0xC94 JUMP JUMPDEST JUMP JUMPDEST PUSH2 0x899 ADDRESS DUP3 PUSH2 0xCE5 JUMP JUMPDEST PUSH1 0x60 PUSH1 0x4 DUP1 SLOAD PUSH2 0x58E SWAP1 PUSH2 0x12C6 JUMP JUMPDEST PUSH1 0x6 PUSH1 0x20 MSTORE PUSH0 SWAP1 DUP2 MSTORE PUSH1 0x40 SWAP1 KECCAK256 DUP1 SLOAD PUSH1 0x1 DUP3 ADD DUP1 SLOAD PUSH1 0x1 PUSH1 0x1 PUSH1 0xA0 SHL SUB SWAP1 SWAP3 AND SWAP3 SWAP2 PUSH2 0x989 SWAP1 PUSH2 0x12C6 JUMP JUMPDEST DUP1 PUSH1 0x1F ADD PUSH1 0x20 DUP1 SWAP2 DIV MUL PUSH1 0x20 ADD PUSH1 0x40 MLOAD SWAP1 DUP2 ADD PUSH1 0x40 MSTORE DUP1 SWAP3 SWAP2 SWAP1 DUP2 DUP2 MSTORE PUSH1 0x20 ADD DUP3 DUP1 SLOAD PUSH2 0x9B5 SWAP1 PUSH2 0x12C6 JUMP JUMPDEST DUP1 ISZERO PUSH2 0xA00 JUMPI DUP1 PUSH1 0x1F LT PUSH2 0x9D7 JUMPI PUSH2 0x100 DUP1 DUP4 SLOAD DIV MUL DUP4 MSTORE SWAP2 PUSH1 0x20 ADD SWAP2 PUSH2 0xA00 JUMP JUMPDEST DUP3 ADD SWAP2 SWAP1 PUSH0 MSTORE PUSH1 0x20 PUSH0 KECCAK256 SWAP1 JUMPDEST DUP2 SLOAD DUP2 MSTORE SWAP1 PUSH1 0x1 ADD SWAP1 PUSH1 0x20 ADD DUP1 DUP4 GT PUSH2 0x9E3 JUMPI DUP3 SWAP1 SUB PUSH1 0x1F AND DUP3 ADD SWAP2 JUMPDEST POP POP POP POP POP SWAP1 DUP1 PUSH1 0x2 ADD SLOAD SWAP1 POP DUP4 JUMP JUMPDEST PUSH0 CALLER PUSH2 0x61C DUP2 DUP6 DUP6 PUSH2 0xC0A JUMP JUMPDEST PUSH2 0x899 ADDRESS DUP3 PUSH2 0xCFB JUMP JUMPDEST CALLER DUP1 EXTCODESIZE ISZERO PUSH2 0xA47 JUMPI PUSH1 0x40 MLOAD PUSH3 0x461BCD PUSH1 0xE5 SHL DUP2 MSTORE PUSH1 0x4 ADD PUSH2 0x442 SWAP1 PUSH2 0x1268 JUMP JUMPDEST PUSH1 0x7 SLOAD CALLVALUE LT ISZERO PUSH2 0xAD2 JUMPI PUSH1 0x9 DUP1 SLOAD PUSH1 0xFF NOT AND PUSH1 0x1 OR SWAP1 SSTORE PUSH1 0x40 DUP1 MLOAD PUSH1 0x20 DUP1 DUP3 MSTORE PUSH1 0x21 SWAP1 DUP3 ADD MSTORE PUSH32 0x4D696E696D756D206465706F73697420616D6F756E7420697320302E30303033 SWAP2 DUP2 ADD SWAP2 SWAP1 SWAP2 MSTORE PUSH1 0x7 PUSH1 0xFB SHL PUSH1 0x60 DUP3 ADD MSTORE CALLER SWAP1 PUSH32 0xA8B9F7931AC94CF9850ACCD175CF4543FAC81AE93865D1670E14213829F67DE5 SWAP1 PUSH1 0x80 ADD JUMPDEST PUSH1 0x40 MLOAD DUP1 SWAP2 SUB SWAP1 LOG2 POP JUMP JUMPDEST PUSH2 0xADD CALLER ADDRESS CALLVALUE PUSH2 0x70A JUMP JUMPDEST POP CALLER PUSH0 SWAP1 DUP2 MSTORE PUSH1 0x6 PUSH1 0x20 MSTORE PUSH1 0x40 DUP2 KECCAK256 PUSH1 0x2 ADD DUP1 SLOAD CALLVALUE SWAP3 SWAP1 PUSH2 0xAFF SWAP1 DUP5 SWAP1 PUSH2 0x13FE JUMP JUMPDEST SWAP1 SWAP2 SSTORE POP POP PUSH1 0x9 DUP1 SLOAD PUSH1 0xFF NOT AND PUSH1 0x2 OR SWAP1 SSTORE PUSH1 0x40 MLOAD CALLVALUE DUP2 MSTORE CALLER SWAP1 PUSH32 0xB3EF81558ED1A50072A492984535A009DA8B129C749500B387F1E5F4886BDDE5 SWAP1 PUSH1 0x20 ADD PUSH2 0xAC7 JUMP JUMPDEST PUSH2 0xB4B PUSH2 0xC67 JUMP JUMPDEST PUSH1 0x1 PUSH1 0x1 PUSH1 0xA0 SHL SUB DUP2 AND PUSH2 0xB74 JUMPI PUSH1 0x40 MLOAD PUSH4 0x1E4FBDF7 PUSH1 0xE0 SHL DUP2 MSTORE PUSH0 PUSH1 0x4 DUP3 ADD MSTORE PUSH1 0x24 ADD PUSH2 0x442 JUMP JUMPDEST PUSH2 0x899 DUP2 PUSH2 0xC94 JUMP JUMPDEST PUSH2 0xB8A DUP4 DUP4 DUP4 PUSH1 0x1 PUSH2 0xD0D JUMP JUMPDEST POP POP POP JUMP JUMPDEST PUSH1 0x1 PUSH1 0x1 PUSH1 0xA0 SHL SUB DUP4 DUP2 AND PUSH0 SWAP1 DUP2 MSTORE PUSH1 0x1 PUSH1 0x20 SWAP1 DUP2 MSTORE PUSH1 0x40 DUP1 DUP4 KECCAK256 SWAP4 DUP7 AND DUP4 MSTORE SWAP3 SWAP1 MSTORE KECCAK256 SLOAD PUSH0 NOT DUP2 EQ PUSH2 0xC04 JUMPI DUP2 DUP2 LT ISZERO PUSH2 0xBF6 JUMPI PUSH1 0x40 MLOAD PUSH4 0x7DC7A0D9 PUSH1 0xE1 SHL DUP2 MSTORE PUSH1 0x1 PUSH1 0x1 PUSH1 0xA0 SHL SUB DUP5 AND PUSH1 0x4 DUP3 ADD MSTORE PUSH1 0x24 DUP2 ADD DUP3 SWAP1 MSTORE PUSH1 0x44 DUP2 ADD DUP4 SWAP1 MSTORE PUSH1 0x64 ADD PUSH2 0x442 JUMP JUMPDEST PUSH2 0xC04 DUP5 DUP5 DUP5 DUP5 SUB PUSH0 PUSH2 0xD0D JUMP JUMPDEST POP POP POP POP JUMP JUMPDEST PUSH1 0x1 PUSH1 0x1 PUSH1 0xA0 SHL SUB DUP4 AND PUSH2 0xC33 JUMPI PUSH1 0x40 MLOAD PUSH4 0x4B637E8F PUSH1 0xE1 SHL DUP2 MSTORE PUSH0 PUSH1 0x4 DUP3 ADD MSTORE PUSH1 0x24 ADD PUSH2 0x442 JUMP JUMPDEST PUSH1 0x1 PUSH1 0x1 PUSH1 0xA0 SHL SUB DUP3 AND PUSH2 0xC5C JUMPI PUSH1 0x40 MLOAD PUSH4 0xEC442F05 PUSH1 0xE0 SHL DUP2 MSTORE PUSH0 PUSH1 0x4 DUP3 ADD MSTORE PUSH1 0x24 ADD PUSH2 0x442 JUMP JUMPDEST PUSH2 0xB8A DUP4 DUP4 DUP4 PUSH2 0xDDF JUMP JUMPDEST PUSH1 0x5 SLOAD PUSH1 0x1 PUSH1 0x1 PUSH1 0xA0 SHL SUB AND CALLER EQ PUSH2 0x943 JUMPI PUSH1 0x40 MLOAD PUSH4 0x118CDAA7 PUSH1 0xE0 SHL DUP2 MSTORE CALLER PUSH1 0x4 DUP3 ADD MSTORE PUSH1 0x24 ADD PUSH2 0x442 JUMP JUMPDEST PUSH1 0x5 DUP1 SLOAD PUSH1 0x1 PUSH1 0x1 PUSH1 0xA0 SHL SUB DUP4 DUP2 AND PUSH1 0x1 PUSH1 0x1 PUSH1 0xA0 SHL SUB NOT DUP4 AND DUP2 OR SWAP1 SWAP4 SSTORE PUSH1 0x40 MLOAD SWAP2 AND SWAP2 SWAP1 DUP3 SWAP1 PUSH32 0x8BE0079C531659141344CD1FD0A4F28419497F9722A3DAAFE3B4186F6B6457E0 SWAP1 PUSH0 SWAP1 LOG3 POP POP JUMP JUMPDEST PUSH2 0xCED PUSH2 0xC67 JUMP JUMPDEST PUSH2 0xCF7 DUP3 DUP3 PUSH2 0xEF8 JUMP JUMPDEST POP POP JUMP JUMPDEST PUSH2 0xD03 PUSH2 0xC67 JUMP JUMPDEST PUSH2 0xCF7 DUP3 DUP3 PUSH2 0xF2C JUMP JUMPDEST PUSH1 0x1 PUSH1 0x1 PUSH1 0xA0 SHL SUB DUP5 AND PUSH2 0xD36 JUMPI PUSH1 0x40 MLOAD PUSH4 0xE602DF05 PUSH1 0xE0 SHL DUP2 MSTORE PUSH0 PUSH1 0x4 DUP3 ADD MSTORE PUSH1 0x24 ADD PUSH2 0x442 JUMP JUMPDEST PUSH1 0x1 PUSH1 0x1 PUSH1 0xA0 SHL SUB DUP4 AND PUSH2 0xD5F JUMPI PUSH1 0x40 MLOAD PUSH4 0x4A1406B1 PUSH1 0xE1 SHL DUP2 MSTORE PUSH0 PUSH1 0x4 DUP3 ADD MSTORE PUSH1 0x24 ADD PUSH2 0x442 JUMP JUMPDEST PUSH1 0x1 PUSH1 0x1 PUSH1 0xA0 SHL SUB DUP1 DUP6 AND PUSH0 SWAP1 DUP2 MSTORE PUSH1 0x1 PUSH1 0x20 SWAP1 DUP2 MSTORE PUSH1 0x40 DUP1 DUP4 KECCAK256 SWAP4 DUP8 AND DUP4 MSTORE SWAP3 SWAP1 MSTORE KECCAK256 DUP3 SWAP1 SSTORE DUP1 ISZERO PUSH2 0xC04 JUMPI DUP3 PUSH1 0x1 PUSH1 0x1 PUSH1 0xA0 SHL SUB AND DUP5 PUSH1 0x1 PUSH1 0x1 PUSH1 0xA0 SHL SUB AND PUSH32 0x8C5BE1E5EBEC7D5BD14F71427D1E84F3DD0314C0F7B2291E5B200AC8C7C3B925 DUP5 PUSH1 0x40 MLOAD PUSH2 0xDD1 SWAP2 DUP2 MSTORE PUSH1 0x20 ADD SWAP1 JUMP JUMPDEST PUSH1 0x40 MLOAD DUP1 SWAP2 SUB SWAP1 LOG3 POP POP POP POP JUMP JUMPDEST PUSH1 0x1 PUSH1 0x1 PUSH1 0xA0 SHL SUB DUP4 AND PUSH2 0xE09 JUMPI DUP1 PUSH1 0x2 PUSH0 DUP3 DUP3 SLOAD PUSH2 0xDFE SWAP2 SWAP1 PUSH2 0x13FE JUMP JUMPDEST SWAP1 SWAP2 SSTORE POP PUSH2 0xE79 SWAP1 POP JUMP JUMPDEST PUSH1 0x1 PUSH1 0x1 PUSH1 0xA0 SHL SUB DUP4 AND PUSH0 SWAP1 DUP2 MSTORE PUSH1 0x20 DUP2 SWAP1 MSTORE PUSH1 0x40 SWAP1 KECCAK256 SLOAD DUP2 DUP2 LT ISZERO PUSH2 0xE5B JUMPI PUSH1 0x40 MLOAD PUSH4 0x391434E3 PUSH1 0xE2 SHL DUP2 MSTORE PUSH1 0x1 PUSH1 0x1 PUSH1 0xA0 SHL SUB DUP6 AND PUSH1 0x4 DUP3 ADD MSTORE PUSH1 0x24 DUP2 ADD DUP3 SWAP1 MSTORE PUSH1 0x44 DUP2 ADD DUP4 SWAP1 MSTORE PUSH1 0x64 ADD PUSH2 0x442 JUMP JUMPDEST PUSH1 0x1 PUSH1 0x1 PUSH1 0xA0 SHL SUB DUP5 AND PUSH0 SWAP1 DUP2 MSTORE PUSH1 0x20 DUP2 SWAP1 MSTORE PUSH1 0x40 SWAP1 KECCAK256 SWAP1 DUP3 SWAP1 SUB SWAP1 SSTORE JUMPDEST PUSH1 0x1 PUSH1 0x1 PUSH1 0xA0 SHL SUB DUP3 AND PUSH2 0xE95 JUMPI PUSH1 0x2 DUP1 SLOAD DUP3 SWAP1 SUB SWAP1 SSTORE PUSH2 0xEB3 JUMP JUMPDEST PUSH1 0x1 PUSH1 0x1 PUSH1 0xA0 SHL SUB DUP3 AND PUSH0 SWAP1 DUP2 MSTORE PUSH1 0x20 DUP2 SWAP1 MSTORE PUSH1 0x40 SWAP1 KECCAK256 DUP1 SLOAD DUP3 ADD SWAP1 SSTORE JUMPDEST DUP2 PUSH1 0x1 PUSH1 0x1 PUSH1 0xA0 SHL SUB AND DUP4 PUSH1 0x1 PUSH1 0x1 PUSH1 0xA0 SHL SUB AND PUSH32 0xDDF252AD1BE2C89B69C2B068FC378DAA952BA7F163C4A11628F55A4DF523B3EF DUP4 PUSH1 0x40 MLOAD PUSH2 0x572 SWAP2 DUP2 MSTORE PUSH1 0x20 ADD SWAP1 JUMP JUMPDEST PUSH1 0x1 PUSH1 0x1 PUSH1 0xA0 SHL SUB DUP3 AND PUSH2 0xF21 JUMPI PUSH1 0x40 MLOAD PUSH4 0x4B637E8F PUSH1 0xE1 SHL DUP2 MSTORE PUSH0 PUSH1 0x4 DUP3 ADD MSTORE PUSH1 0x24 ADD PUSH2 0x442 JUMP JUMPDEST PUSH2 0xCF7 DUP3 PUSH0 DUP4 PUSH2 0xDDF JUMP JUMPDEST PUSH1 0x1 PUSH1 0x1 PUSH1 0xA0 SHL SUB DUP3 AND PUSH2 0xF55 JUMPI PUSH1 0x40 MLOAD PUSH4 0xEC442F05 PUSH1 0xE0 SHL DUP2 MSTORE PUSH0 PUSH1 0x4 DUP3 ADD MSTORE PUSH1 0x24 ADD PUSH2 0x442 JUMP JUMPDEST PUSH2 0xCF7 PUSH0 DUP4 DUP4 PUSH2 0xDDF JUMP JUMPDEST PUSH1 0x1 PUSH1 0x1 PUSH1 0xA0 SHL SUB DUP2 AND DUP2 EQ PUSH2 0x899 JUMPI PUSH0 DUP1 REVERT JUMPDEST PUSH0 DUP1 PUSH1 0x40 DUP4 DUP6 SUB SLT ISZERO PUSH2 0xF85 JUMPI PUSH0 DUP1 REVERT JUMPDEST DUP3 CALLDATALOAD SWAP2 POP PUSH1 0x20 DUP4 ADD CALLDATALOAD PUSH2 0xF97 DUP2 PUSH2 0xF60 JUMP JUMPDEST DUP1 SWAP2 POP POP SWAP3 POP SWAP3 SWAP1 POP JUMP JUMPDEST PUSH0 DUP2 MLOAD DUP1 DUP5 MSTORE DUP1 PUSH1 0x20 DUP5 ADD PUSH1 0x20 DUP7 ADD MCOPY PUSH0 PUSH1 0x20 DUP3 DUP7 ADD ADD MSTORE PUSH1 0x20 PUSH1 0x1F NOT PUSH1 0x1F DUP4 ADD AND DUP6 ADD ADD SWAP2 POP POP SWAP3 SWAP2 POP POP JUMP JUMPDEST PUSH1 0x20 DUP2 MSTORE PUSH0 PUSH2 0xFE2 PUSH1 0x20 DUP4 ADD DUP5 PUSH2 0xFA2 JUMP JUMPDEST SWAP4 SWAP3 POP POP POP JUMP JUMPDEST PUSH0 DUP1 PUSH1 0x40 DUP4 DUP6 SUB SLT ISZERO PUSH2 0xFFA JUMPI PUSH0 DUP1 REVERT JUMPDEST DUP3 CALLDATALOAD PUSH2 0x1005 DUP2 PUSH2 0xF60 JUMP JUMPDEST SWAP5 PUSH1 0x20 SWAP4 SWAP1 SWAP4 ADD CALLDATALOAD SWAP4 POP POP POP JUMP JUMPDEST PUSH4 0x4E487B71 PUSH1 0xE0 SHL PUSH0 MSTORE PUSH1 0x41 PUSH1 0x4 MSTORE PUSH1 0x24 PUSH0 REVERT JUMPDEST PUSH0 DUP3 PUSH1 0x1F DUP4 ADD SLT PUSH2 0x1036 JUMPI PUSH0 DUP1 REVERT JUMPDEST DUP2 CALLDATALOAD PUSH8 0xFFFFFFFFFFFFFFFF DUP2 GT ISZERO PUSH2 0x1050 JUMPI PUSH2 0x1050 PUSH2 0x1013 JUMP JUMPDEST PUSH1 0x40 MLOAD PUSH1 0x1F DUP3 ADD PUSH1 0x1F NOT SWAP1 DUP2 AND PUSH1 0x3F ADD AND DUP2 ADD PUSH8 0xFFFFFFFFFFFFFFFF DUP2 GT DUP3 DUP3 LT OR ISZERO PUSH2 0x107F JUMPI PUSH2 0x107F PUSH2 0x1013 JUMP JUMPDEST PUSH1 0x40 MSTORE DUP2 DUP2 MSTORE DUP4 DUP3 ADD PUSH1 0x20 ADD DUP6 LT ISZERO PUSH2 0x1096 JUMPI PUSH0 DUP1 REVERT JUMPDEST DUP2 PUSH1 0x20 DUP6 ADD PUSH1 0x20 DUP4 ADD CALLDATACOPY PUSH0 SWAP2 DUP2 ADD PUSH1 0x20 ADD SWAP2 SWAP1 SWAP2 MSTORE SWAP4 SWAP3 POP POP POP JUMP JUMPDEST PUSH0 DUP1 PUSH1 0x40 DUP4 DUP6 SUB SLT ISZERO PUSH2 0x10C3 JUMPI PUSH0 DUP1 REVERT JUMPDEST DUP3 CALLDATALOAD PUSH8 0xFFFFFFFFFFFFFFFF DUP2 GT ISZERO PUSH2 0x10D9 JUMPI PUSH0 DUP1 REVERT JUMPDEST PUSH2 0x10E5 DUP6 DUP3 DUP7 ADD PUSH2 0x1027 JUMP JUMPDEST SWAP3 POP POP PUSH1 0x20 DUP4 ADD CALLDATALOAD PUSH2 0xF97 DUP2 PUSH2 0xF60 JUMP JUMPDEST PUSH1 0x20 DUP2 ADD PUSH1 0x3 DUP4 LT PUSH2 0x1116 JUMPI PUSH4 0x4E487B71 PUSH1 0xE0 SHL PUSH0 MSTORE PUSH1 0x21 PUSH1 0x4 MSTORE PUSH1 0x24 PUSH0 REVERT JUMPDEST SWAP2 SWAP1 MSTORE SWAP1 JUMP JUMPDEST PUSH0 DUP1 PUSH0 PUSH1 0x60 DUP5 DUP7 SUB SLT ISZERO PUSH2 0x112E JUMPI PUSH0 DUP1 REVERT JUMPDEST DUP4 CALLDATALOAD PUSH2 0x1139 DUP2 PUSH2 0xF60 JUMP JUMPDEST SWAP3 POP PUSH1 0x20 DUP5 ADD CALLDATALOAD PUSH2 0x1149 DUP2 PUSH2 0xF60 JUMP JUMPDEST SWAP3 SWAP6 SWAP3 SWAP5 POP POP POP PUSH1 0x40 SWAP2 SWAP1 SWAP2 ADD CALLDATALOAD SWAP1 JUMP JUMPDEST PUSH0 PUSH1 0x20 DUP3 DUP5 SUB SLT ISZERO PUSH2 0x116A JUMPI PUSH0 DUP1 REVERT JUMPDEST DUP2 CALLDATALOAD PUSH8 0xFFFFFFFFFFFFFFFF DUP2 GT ISZERO PUSH2 0x1180 JUMPI PUSH0 DUP1 REVERT JUMPDEST PUSH2 0x118C DUP5 DUP3 DUP6 ADD PUSH2 0x1027 JUMP JUMPDEST SWAP5 SWAP4 POP POP POP POP JUMP JUMPDEST PUSH1 0x20 DUP1 DUP3 MSTORE DUP3 MLOAD PUSH1 0x1 PUSH1 0x1 PUSH1 0xA0 SHL SUB AND DUP3 DUP3 ADD MSTORE DUP3 ADD MLOAD PUSH1 0x60 PUSH1 0x40 DUP4 ADD MSTORE PUSH0 SWAP1 PUSH2 0x11C1 PUSH1 0x80 DUP5 ADD DUP3 PUSH2 0xFA2 JUMP JUMPDEST SWAP1 POP PUSH1 0x40 DUP5 ADD MLOAD PUSH1 0x60 DUP5 ADD MSTORE DUP1 SWAP2 POP POP SWAP3 SWAP2 POP POP JUMP JUMPDEST PUSH0 PUSH1 0x20 DUP3 DUP5 SUB SLT ISZERO PUSH2 0x11E7 JUMPI PUSH0 DUP1 REVERT JUMPDEST DUP2 CALLDATALOAD PUSH2 0xFE2 DUP2 PUSH2 0xF60 JUMP JUMPDEST PUSH0 PUSH1 0x20 DUP3 DUP5 SUB SLT ISZERO PUSH2 0x1202 JUMPI PUSH0 DUP1 REVERT JUMPDEST POP CALLDATALOAD SWAP2 SWAP1 POP JUMP JUMPDEST PUSH1 0x1 PUSH1 0x1 PUSH1 0xA0 SHL SUB DUP5 AND DUP2 MSTORE PUSH1 0x60 PUSH1 0x20 DUP3 ADD DUP2 SWAP1 MSTORE PUSH0 SWAP1 PUSH2 0x122C SWAP1 DUP4 ADD DUP6 PUSH2 0xFA2 JUMP JUMPDEST SWAP1 POP DUP3 PUSH1 0x40 DUP4 ADD MSTORE SWAP5 SWAP4 POP POP POP POP JUMP JUMPDEST PUSH0 DUP1 PUSH1 0x40 DUP4 DUP6 SUB SLT ISZERO PUSH2 0x124D JUMPI PUSH0 DUP1 REVERT JUMPDEST DUP3 CALLDATALOAD PUSH2 0x1258 DUP2 PUSH2 0xF60 JUMP JUMPDEST SWAP2 POP PUSH1 0x20 DUP4 ADD CALLDATALOAD PUSH2 0xF97 DUP2 PUSH2 0xF60 JUMP JUMPDEST PUSH1 0x20 DUP1 DUP3 MSTORE PUSH1 0x1B SWAP1 DUP3 ADD MSTORE PUSH32 0x54686973206973206120636F6E74726163742061646472657373210000000000 PUSH1 0x40 DUP3 ADD MSTORE PUSH1 0x60 ADD SWAP1 JUMP JUMPDEST PUSH4 0x4E487B71 PUSH1 0xE0 SHL PUSH0 MSTORE PUSH1 0x11 PUSH1 0x4 MSTORE PUSH1 0x24 PUSH0 REVERT JUMPDEST DUP2 DUP2 SUB DUP2 DUP2 GT ISZERO PUSH2 0x622 JUMPI PUSH2 0x622 PUSH2 0x129F JUMP JUMPDEST PUSH1 0x1 DUP2 DUP2 SHR SWAP1 DUP3 AND DUP1 PUSH2 0x12DA JUMPI PUSH1 0x7F DUP3 AND SWAP2 POP JUMPDEST PUSH1 0x20 DUP3 LT DUP2 SUB PUSH2 0x882 JUMPI PUSH4 0x4E487B71 PUSH1 0xE0 SHL PUSH0 MSTORE PUSH1 0x22 PUSH1 0x4 MSTORE PUSH1 0x24 PUSH0 REVERT JUMPDEST PUSH1 0x1F DUP3 GT ISZERO PUSH2 0xB8A JUMPI DUP1 PUSH0 MSTORE PUSH1 0x20 PUSH0 KECCAK256 PUSH1 0x1F DUP5 ADD PUSH1 0x5 SHR DUP2 ADD PUSH1 0x20 DUP6 LT ISZERO PUSH2 0x131D JUMPI POP DUP1 JUMPDEST PUSH1 0x1F DUP5 ADD PUSH1 0x5 SHR DUP3 ADD SWAP2 POP JUMPDEST DUP2 DUP2 LT ISZERO PUSH2 0x133C JUMPI PUSH0 DUP2 SSTORE PUSH1 0x1 ADD PUSH2 0x1329 JUMP JUMPDEST POP POP POP POP POP JUMP JUMPDEST DUP2 MLOAD PUSH8 0xFFFFFFFFFFFFFFFF DUP2 GT ISZERO PUSH2 0x135D JUMPI PUSH2 0x135D PUSH2 0x1013 JUMP JUMPDEST PUSH2 0x1371 DUP2 PUSH2 0x136B DUP5 SLOAD PUSH2 0x12C6 JUMP JUMPDEST DUP5 PUSH2 0x12F8 JUMP JUMPDEST PUSH1 0x20 PUSH1 0x1F DUP3 GT PUSH1 0x1 DUP2 EQ PUSH2 0x13A3 JUMPI PUSH0 DUP4 ISZERO PUSH2 0x138C JUMPI POP DUP5 DUP3 ADD MLOAD JUMPDEST PUSH0 NOT PUSH1 0x3 DUP6 SWAP1 SHL SHR NOT AND PUSH1 0x1 DUP5 SWAP1 SHL OR DUP5 SSTORE PUSH2 0x133C JUMP JUMPDEST PUSH0 DUP5 DUP2 MSTORE PUSH1 0x20 DUP2 KECCAK256 PUSH1 0x1F NOT DUP6 AND SWAP2 JUMPDEST DUP3 DUP2 LT ISZERO PUSH2 0x13D2 JUMPI DUP8 DUP6 ADD MLOAD DUP3 SSTORE PUSH1 0x20 SWAP5 DUP6 ADD SWAP5 PUSH1 0x1 SWAP1 SWAP3 ADD SWAP2 ADD PUSH2 0x13B2 JUMP JUMPDEST POP DUP5 DUP3 LT ISZERO PUSH2 0x13EF JUMPI DUP7 DUP5 ADD MLOAD PUSH0 NOT PUSH1 0x3 DUP8 SWAP1 SHL PUSH1 0xF8 AND SHR NOT AND DUP2 SSTORE JUMPDEST POP POP POP POP PUSH1 0x1 SWAP1 DUP2 SHL ADD SWAP1 SSTORE POP JUMP JUMPDEST DUP1 DUP3 ADD DUP1 DUP3 GT ISZERO PUSH2 0x622 JUMPI PUSH2 0x622 PUSH2 0x129F JUMP INVALID LOG2 PUSH5 0x6970667358 0x22 SLT KECCAK256 PUSH11 0xE6381D32B93CA389FAF351 0xE1 0xF7 0xA7 CALLDATALOAD SWAP7 DUP7 0xD5 0xCB 0xE9 0xCD SWAP2 PUSH31 0x25122DFD2FB52B6F64736F6C634300081A0033000000000000000000000000 "
				},
				"gasEstimates": {
					"creation": {
						"codeDepositCost": "1038200",
						"executionCost": "infinite",
						"totalCost": "infinite"
					},
					"external": {
						"allowance(address,address)": "infinite",
						"approve(address,uint256)": "24774",
						"balanceOf(address)": "2554",
						"burnToken(uint256)": "infinite",
						"decimals()": "243",
						"deposit()": "infinite",
						"getUserByAddress(address)": "infinite",
						"getUserByName(string)": "infinite",
						"mintToken(uint256)": "infinite",
						"name()": "infinite",
						"owner()": "2389",
						"registerUser(string,address)": "infinite",
						"renounceOwnership()": "infinite",
						"status()": "2373",
						"symbol()": "infinite",
						"totalSupply()": "2392",
						"transfer(address,uint256)": "51254",
						"transferFrom(address,address,uint256)": "infinite",
						"transferOwnership(address)": "infinite",
						"transferOwnership_(address)": "infinite",
						"users(address)": "infinite",
						"withdraw(uint256,address)": "infinite"
					},
					"internal": {
						"isContractAddr(address)": "infinite"
					}
				},
				"methodIdentifiers": {
					"allowance(address,address)": "dd62ed3e",
					"approve(address,uint256)": "095ea7b3",
					"balanceOf(address)": "70a08231",
					"burnToken(uint256)": "7b47ec1a",
					"decimals()": "313ce567",
					"deposit()": "d0e30db0",
					"getUserByAddress(address)": "69c212f6",
					"getUserByName(string)": "4bff5009",
					"mintToken(uint256)": "c634d032",
					"name()": "06fdde03",
					"owner()": "8da5cb5b",
					"registerUser(string,address)": "0e54b872",
					"renounceOwnership()": "715018a6",
					"status()": "200d2ed2",
					"symbol()": "95d89b41",
					"totalSupply()": "18160ddd",
					"transfer(address,uint256)": "a9059cbb",
					"transferFrom(address,address,uint256)": "23b872dd",
					"transferOwnership(address)": "f2fde38b",
					"transferOwnership_(address)": "6281b95b",
					"users(address)": "a87430ba",
					"withdraw(uint256,address)": "00f714ce"
				}
			},
			"storageLayout": {
				"storage": [
					{
						"astId": 307,
						"contract": "contracts/bank.sol:JVCBank",
						"label": "_balances",
						"offset": 0,
						"slot": "0",
						"type": "t_mapping(t_address,t_uint256)"
					},
					{
						"astId": 313,
						"contract": "contracts/bank.sol:JVCBank",
						"label": "_allowances",
						"offset": 0,
						"slot": "1",
						"type": "t_mapping(t_address,t_mapping(t_address,t_uint256))"
					},
					{
						"astId": 315,
						"contract": "contracts/bank.sol:JVCBank",
						"label": "_totalSupply",
						"offset": 0,
						"slot": "2",
						"type": "t_uint256"
					},
					{
						"astId": 317,
						"contract": "contracts/bank.sol:JVCBank",
						"label": "_name",
						"offset": 0,
						"slot": "3",
						"type": "t_string_storage"
					},
					{
						"astId": 319,
						"contract": "contracts/bank.sol:JVCBank",
						"label": "_symbol",
						"offset": 0,
						"slot": "4",
						"type": "t_string_storage"
					},
					{
						"astId": 8,
						"contract": "contracts/bank.sol:JVCBank",
						"label": "_owner",
						"offset": 0,
						"slot": "5",
						"type": "t_address"
					},
					{
						"astId": 946,
						"contract": "contracts/bank.sol:JVCBank",
						"label": "users",
						"offset": 0,
						"slot": "6",
						"type": "t_mapping(t_address,t_struct(User)959_storage)"
					},
					{
						"astId": 949,
						"contract": "contracts/bank.sol:JVCBank",
						"label": "minDepAmt",
						"offset": 0,
						"slot": "7",
						"type": "t_uint256"
					},
					{
						"astId": 952,
						"contract": "contracts/bank.sol:JVCBank",
						"label": "maxWithdAmt",
						"offset": 0,
						"slot": "8",
						"type": "t_uint256"
					},
					{
						"astId": 966,
						"contract": "contracts/bank.sol:JVCBank",
						"label": "status",
						"offset": 0,
						"slot": "9",
						"type": "t_enum(Status)963"
					}
				],
				"types": {
					"t_address": {
						"encoding": "inplace",
						"label": "address",
						"numberOfBytes": "20"
					},
					"t_enum(Status)963": {
						"encoding": "inplace",
						"label": "enum JVCBank.Status",
						"numberOfBytes": "1"
					},
					"t_mapping(t_address,t_mapping(t_address,t_uint256))": {
						"encoding": "mapping",
						"key": "t_address",
						"label": "mapping(address => mapping(address => uint256))",
						"numberOfBytes": "32",
						"value": "t_mapping(t_address,t_uint256)"
					},
					"t_mapping(t_address,t_struct(User)959_storage)": {
						"encoding": "mapping",
						"key": "t_address",
						"label": "mapping(address => struct JVCBank.User)",
						"numberOfBytes": "32",
						"value": "t_struct(User)959_storage"
					},
					"t_mapping(t_address,t_uint256)": {
						"encoding": "mapping",
						"key": "t_address",
						"label": "mapping(address => uint256)",
						"numberOfBytes": "32",
						"value": "t_uint256"
					},
					"t_string_storage": {
						"encoding": "bytes",
						"label": "string",
						"numberOfBytes": "32"
					},
					"t_struct(User)959_storage": {
						"encoding": "inplace",
						"label": "struct JVCBank.User",
						"members": [
							{
								"astId": 954,
								"contract": "contracts/bank.sol:JVCBank",
								"label": "uAddr",
								"offset": 0,
								"slot": "0",
								"type": "t_address"
							},
							{
								"astId": 956,
								"contract": "contracts/bank.sol:JVCBank",
								"label": "uName",
								"offset": 0,
								"slot": "1",
								"type": "t_string_storage"
							},
							{
								"astId": 958,
								"contract": "contracts/bank.sol:JVCBank",
								"label": "balance",
								"offset": 0,
								"slot": "2",
								"type": "t_uint256"
							}
						],
						"numberOfBytes": "96"
					},
					"t_uint256": {
						"encoding": "inplace",
						"label": "uint256",
						"numberOfBytes": "32"
					}
				}
			},
			"userdoc": {
				"kind": "user",
				"methods": {},
				"version": 1
			}
		}
	}
}