{
	"contracts/bank.sol": {
		"Bank": {
			"abi": [
				{
					"inputs": [
						{
							"internalType": "address",
							"name": "_tokenAddress",
							"type": "address"
						},
						{
							"internalType": "address",
							"name": "initialOwner",
							"type": "address"
						}
					],
					"stateMutability": "nonpayable",
					"type": "constructor"
				},
				{
					"inputs": [
						{
							"internalType": "address",
							"name": "owner",
							"type": "address"
						}
					],
					"name": "OwnableInvalidOwner",
					"type": "error"
				},
				{
					"inputs": [
						{
							"internalType": "address",
							"name": "account",
							"type": "address"
						}
					],
					"name": "OwnableUnauthorizedAccount",
					"type": "error"
				},
				{
					"anonymous": false,
					"inputs": [
						{
							"indexed": true,
							"internalType": "address",
							"name": "user",
							"type": "address"
						},
						{
							"indexed": false,
							"internalType": "string",
							"name": "message",
							"type": "string"
						}
					],
					"name": "DepositFailed",
					"type": "event"
				},
				{
					"anonymous": false,
					"inputs": [
						{
							"indexed": true,
							"internalType": "address",
							"name": "user",
							"type": "address"
						},
						{
							"indexed": false,
							"internalType": "uint256",
							"name": "amount",
							"type": "uint256"
						}
					],
					"name": "DepositSuccessful",
					"type": "event"
				},
				{
					"anonymous": false,
					"inputs": [
						{
							"indexed": true,
							"internalType": "address",
							"name": "previousOwner",
							"type": "address"
						},
						{
							"indexed": true,
							"internalType": "address",
							"name": "newOwner",
							"type": "address"
						}
					],
					"name": "OwnershipTransferred",
					"type": "event"
				},
				{
					"anonymous": false,
					"inputs": [
						{
							"indexed": true,
							"internalType": "address",
							"name": "user",
							"type": "address"
						},
						{
							"indexed": false,
							"internalType": "string",
							"name": "message",
							"type": "string"
						}
					],
					"name": "WithdrawalFailed",
					"type": "event"
				},
				{
					"anonymous": false,
					"inputs": [
						{
							"indexed": true,
							"internalType": "address",
							"name": "addr",
							"type": "address"
						},
						{
							"indexed": true,
							"internalType": "address",
							"name": "user",
							"type": "address"
						},
						{
							"indexed": false,
							"internalType": "uint256",
							"name": "amount",
							"type": "uint256"
						}
					],
					"name": "WithdrawalSuccessful",
					"type": "event"
				},
				{
					"inputs": [],
					"name": "deposit",
					"outputs": [],
					"stateMutability": "payable",
					"type": "function"
				},
				{
					"inputs": [
						{
							"internalType": "address",
							"name": "userAddress",
							"type": "address"
						}
					],
					"name": "getUserByAddress",
					"outputs": [
						{
							"components": [
								{
									"internalType": "address",
									"name": "uAddr",
									"type": "address"
								},
								{
									"internalType": "string",
									"name": "uName",
									"type": "string"
								},
								{
									"internalType": "uint256",
									"name": "balance",
									"type": "uint256"
								}
							],
							"internalType": "struct Bank.User",
							"name": "",
							"type": "tuple"
						}
					],
					"stateMutability": "view",
					"type": "function"
				},
				{
					"inputs": [
						{
							"internalType": "string",
							"name": "Uname",
							"type": "string"
						}
					],
					"name": "getUserByName",
					"outputs": [
						{
							"components": [
								{
									"internalType": "address",
									"name": "uAddr",
									"type": "address"
								},
								{
									"internalType": "string",
									"name": "uName",
									"type": "string"
								},
								{
									"internalType": "uint256",
									"name": "balance",
									"type": "uint256"
								}
							],
							"internalType": "struct Bank.User",
							"name": "",
							"type": "tuple"
						}
					],
					"stateMutability": "view",
					"type": "function"
				},
				{
					"inputs": [],
					"name": "owner",
					"outputs": [
						{
							"internalType": "address",
							"name": "",
							"type": "address"
						}
					],
					"stateMutability": "view",
					"type": "function"
				},
				{
					"inputs": [
						{
							"internalType": "string",
							"name": "uname",
							"type": "string"
						},
						{
							"internalType": "address payable",
							"name": "addr",
							"type": "address"
						}
					],
					"name": "registerUser",
					"outputs": [],
					"stateMutability": "nonpayable",
					"type": "function"
				},
				{
					"inputs": [],
					"name": "renounceOwnership",
					"outputs": [],
					"stateMutability": "nonpayable",
					"type": "function"
				},
				{
					"inputs": [],
					"name": "status",
					"outputs": [
						{
							"internalType": "enum Bank.Status",
							"name": "",
							"type": "uint8"
						}
					],
					"stateMutability": "view",
					"type": "function"
				},
				{
					"inputs": [],
					"name": "token",
					"outputs": [
						{
							"internalType": "contract JVCToken",
							"name": "",
							"type": "address"
						}
					],
					"stateMutability": "view",
					"type": "function"
				},
				{
					"inputs": [
						{
							"internalType": "address",
							"name": "newOwner",
							"type": "address"
						}
					],
					"name": "transferOwnership",
					"outputs": [],
					"stateMutability": "nonpayable",
					"type": "function"
				},
				{
					"inputs": [
						{
							"internalType": "address",
							"name": "",
							"type": "address"
						}
					],
					"name": "users",
					"outputs": [
						{
							"internalType": "address",
							"name": "uAddr",
							"type": "address"
						},
						{
							"internalType": "string",
							"name": "uName",
							"type": "string"
						},
						{
							"internalType": "uint256",
							"name": "balance",
							"type": "uint256"
						}
					],
					"stateMutability": "view",
					"type": "function"
				},
				{
					"inputs": [
						{
							"internalType": "uint256",
							"name": "amount",
							"type": "uint256"
						},
						{
							"internalType": "address payable",
							"name": "addr",
							"type": "address"
						}
					],
					"name": "withdraw",
					"outputs": [],
					"stateMutability": "payable",
					"type": "function"
				}
			],
			"devdoc": {
				"kind": "dev",
				"methods": {},
				"version": 1
			},
			"evm": {
				"assembly": "    /* \"contracts/bank.sol\":156:5881  contract Bank is Owner, Context {... */\n  mstore(0x40, 0x80)\n    /* \"contracts/bank.sol\":416:429  0.00038 ether */\n  0x01599ba503c000\n    /* \"contracts/bank.sol\":388:429  uint256 private minDepAmt = 0.00038 ether */\n  0x03\n  sstore\n    /* \"contracts/bank.sol\":465:472  1 ether */\n  0x0de0b6b3a7640000\n    /* \"contracts/bank.sol\":435:472  uint256 private maxWithdAmt = 1 ether */\n  0x04\n  sstore\n    /* \"contracts/bank.sol\":2166:2422  constructor(address _tokenAddress, address initialOwner)... */\n  callvalue\n  dup1\n  iszero\n  tag_1\n  jumpi\n  0x00\n  dup1\n  revert\ntag_1:\n  pop\n  mload(0x40)\n  sub(codesize, bytecodeSize)\n  dup1\n  bytecodeSize\n  dup4\n  codecopy\n  dup2\n  add\n  0x40\n  dup2\n  swap1\n  mstore\n  tag_2\n  swap2\n  tag_3\n  jump\t// in\ntag_2:\n    /* \"contracts/bank.sol\":2237:2242  token */\n  0x00\n    /* \"contracts/bank.sol\":2237:2268  token = JVCToken(_tokenAddress) */\n  dup1\n  sload\n  not(sub(shl(0xa0, 0x01), 0x01))\n  and\n  sub(shl(0xa0, 0x01), 0x01)\n  dup5\n  dup2\n  and\n  swap2\n  swap1\n  swap2\n  or\n  swap1\n  swap2\n  sstore\n    /* \"contracts/bank.sol\":2283:2309  initialOwner == address(0) */\n  dup2\n  and\n    /* \"contracts/bank.sol\":2279:2374  if (initialOwner == address(0)) {... */\n  tag_6\n  jumpi\n    /* \"contracts/bank.sol\":2332:2363  OwnableInvalidOwner(address(0)) */\n  mload(0x40)\n  shl(0xe0, 0x1e4fbdf7)\n  dup2\n  mstore\n    /* \"contracts/bank.sol\":2360:2361  0 */\n  0x00\n    /* \"contracts/bank.sol\":2332:2363  OwnableInvalidOwner(address(0)) */\n  0x04\n  dup3\n  add\n    /* \"#utility.yul\":640:691   */\n  mstore\n    /* \"#utility.yul\":613:631   */\n  0x24\n  add\n    /* \"contracts/bank.sol\":2332:2363  OwnableInvalidOwner(address(0)) */\n  mload(0x40)\n  dup1\n  swap2\n  sub\n  swap1\n  revert\n    /* \"contracts/bank.sol\":2279:2374  if (initialOwner == address(0)) {... */\ntag_6:\n    /* \"contracts/bank.sol\":2383:2415  _transferOwnership(initialOwner) */\n  tag_9\n    /* \"contracts/bank.sol\":2402:2414  initialOwner */\n  dup2\n    /* \"contracts/bank.sol\":2383:2401  _transferOwnership */\n  tag_10\n    /* \"contracts/bank.sol\":2383:2415  _transferOwnership(initialOwner) */\n  jump\t// in\ntag_9:\n    /* \"contracts/bank.sol\":2166:2422  constructor(address _tokenAddress, address initialOwner)... */\n  pop\n  pop\n    /* \"contracts/bank.sol\":156:5881  contract Bank is Owner, Context {... */\n  jump(tag_14)\n    /* \"contracts/bank.sol\":3722:3909  function _transferOwnership(address newOwner) internal virtual {... */\ntag_10:\n    /* \"contracts/bank.sol\":3814:3820  _owner */\n  0x01\n  dup1\n  sload\n  sub(shl(0xa0, 0x01), 0x01)\n    /* \"contracts/bank.sol\":3830:3847  _owner = newOwner */\n  dup4\n  dup2\n  and\n  not(sub(shl(0xa0, 0x01), 0x01))\n  dup4\n  and\n  dup2\n  or\n  swap1\n  swap4\n  sstore\n    /* \"contracts/bank.sol\":3862:3902  OwnershipTransferred(oldOwner, newOwner) */\n  mload(0x40)\n    /* \"contracts/bank.sol\":3814:3820  _owner */\n  swap2\n  and\n  swap2\n    /* \"contracts/bank.sol\":3830:3847  _owner = newOwner */\n  swap1\n    /* \"contracts/bank.sol\":3814:3820  _owner */\n  dup3\n  swap1\n    /* \"contracts/bank.sol\":3862:3902  OwnershipTransferred(oldOwner, newOwner) */\n  0x8be0079c531659141344cd1fd0a4f28419497f9722a3daafe3b4186f6b6457e0\n  swap1\n    /* \"contracts/bank.sol\":3795:3811  address oldOwner */\n  0x00\n  swap1\n    /* \"contracts/bank.sol\":3862:3902  OwnershipTransferred(oldOwner, newOwner) */\n  log3\n    /* \"contracts/bank.sol\":3785:3909  {... */\n  pop\n    /* \"contracts/bank.sol\":3722:3909  function _transferOwnership(address newOwner) internal virtual {... */\n  pop\n  jump\t// out\n    /* \"#utility.yul\":14:191   */\ntag_13:\n    /* \"#utility.yul\":93:106   */\n  dup1\n  mload\n  sub(shl(0xa0, 0x01), 0x01)\n    /* \"#utility.yul\":135:166   */\n  dup2\n  and\n    /* \"#utility.yul\":125:167   */\n  dup2\n  eq\n    /* \"#utility.yul\":115:185   */\n  tag_16\n  jumpi\n    /* \"#utility.yul\":181:182   */\n  0x00\n    /* \"#utility.yul\":178:179   */\n  dup1\n    /* \"#utility.yul\":171:183   */\n  revert\n    /* \"#utility.yul\":115:185   */\ntag_16:\n    /* \"#utility.yul\":14:191   */\n  swap2\n  swap1\n  pop\n  jump\t// out\n    /* \"#utility.yul\":196:489   */\ntag_3:\n    /* \"#utility.yul\":275:281   */\n  0x00\n    /* \"#utility.yul\":283:289   */\n  dup1\n    /* \"#utility.yul\":336:338   */\n  0x40\n    /* \"#utility.yul\":324:333   */\n  dup4\n    /* \"#utility.yul\":315:322   */\n  dup6\n    /* \"#utility.yul\":311:334   */\n  sub\n    /* \"#utility.yul\":307:339   */\n  slt\n    /* \"#utility.yul\":304:356   */\n  iszero\n  tag_18\n  jumpi\n    /* \"#utility.yul\":352:353   */\n  0x00\n    /* \"#utility.yul\":349:350   */\n  dup1\n    /* \"#utility.yul\":342:354   */\n  revert\n    /* \"#utility.yul\":304:356   */\ntag_18:\n    /* \"#utility.yul\":375:415   */\n  tag_19\n    /* \"#utility.yul\":405:414   */\n  dup4\n    /* \"#utility.yul\":375:415   */\n  tag_13\n  jump\t// in\ntag_19:\n    /* \"#utility.yul\":365:415   */\n  swap2\n  pop\n    /* \"#utility.yul\":434:483   */\n  tag_20\n    /* \"#utility.yul\":479:481   */\n  0x20\n    /* \"#utility.yul\":468:477   */\n  dup5\n    /* \"#utility.yul\":464:482   */\n  add\n    /* \"#utility.yul\":434:483   */\n  tag_13\n  jump\t// in\ntag_20:\n    /* \"#utility.yul\":424:483   */\n  swap1\n  pop\n    /* \"#utility.yul\":196:489   */\n  swap3\n  pop\n  swap3\n  swap1\n  pop\n  jump\t// out\n    /* \"#utility.yul\":494:697   */\ntag_14:\n    /* \"contracts/bank.sol\":156:5881  contract Bank is Owner, Context {... */\n  dataSize(sub_0)\n  dup1\n  dataOffset(sub_0)\n  0x00\n  codecopy\n  0x00\n  return\nstop\n\nsub_0: assembly {\n        /* \"contracts/bank.sol\":156:5881  contract Bank is Owner, Context {... */\n      mstore(0x40, 0x80)\n      jumpi(tag_1, lt(calldatasize, 0x04))\n      shr(0xe0, calldataload(0x00))\n      dup1\n      0x715018a6\n      gt\n      tag_13\n      jumpi\n      dup1\n      0x715018a6\n      eq\n      tag_7\n      jumpi\n      dup1\n      0x8da5cb5b\n      eq\n      tag_8\n      jumpi\n      dup1\n      0xa87430ba\n      eq\n      tag_9\n      jumpi\n      dup1\n      0xd0e30db0\n      eq\n      tag_10\n      jumpi\n      dup1\n      0xf2fde38b\n      eq\n      tag_11\n      jumpi\n      dup1\n      0xfc0c546a\n      eq\n      tag_12\n      jumpi\n      0x00\n      dup1\n      revert\n    tag_13:\n      dup1\n      0xf714ce\n      eq\n      tag_2\n      jumpi\n      dup1\n      0x0e54b872\n      eq\n      tag_3\n      jumpi\n      dup1\n      0x200d2ed2\n      eq\n      tag_4\n      jumpi\n      dup1\n      0x4bff5009\n      eq\n      tag_5\n      jumpi\n      dup1\n      0x69c212f6\n      eq\n      tag_6\n      jumpi\n    tag_1:\n      0x00\n      dup1\n      revert\n        /* \"contracts/bank.sol\":5188:5664  function withdraw(uint256 amount, address payable addr)... */\n    tag_2:\n      tag_14\n      tag_15\n      calldatasize\n      0x04\n      tag_16\n      jump\t// in\n    tag_15:\n      tag_17\n      jump\t// in\n    tag_14:\n      stop\n        /* \"contracts/bank.sol\":3937:4199  function registerUser(... */\n    tag_3:\n      callvalue\n      dup1\n      iszero\n      tag_18\n      jumpi\n      0x00\n      dup1\n      revert\n    tag_18:\n      pop\n      tag_14\n      tag_20\n      calldatasize\n      0x04\n      tag_21\n      jump\t// in\n    tag_20:\n      tag_22\n      jump\t// in\n        /* \"contracts/bank.sol\":974:994  Status public status */\n    tag_4:\n      callvalue\n      dup1\n      iszero\n      tag_23\n      jumpi\n      0x00\n      dup1\n      revert\n    tag_23:\n      pop\n      sload(0x05)\n      tag_24\n      swap1\n      0xff\n      and\n      dup2\n      jump\n    tag_24:\n      mload(0x40)\n      tag_26\n      swap2\n      swap1\n      tag_27\n      jump\t// in\n    tag_26:\n      mload(0x40)\n      dup1\n      swap2\n      sub\n      swap1\n      return\n        /* \"contracts/bank.sol\":4453:4631  function getUserByName(string memory Uname)... */\n    tag_5:\n      callvalue\n      dup1\n      iszero\n      tag_28\n      jumpi\n      0x00\n      dup1\n      revert\n    tag_28:\n      pop\n      tag_29\n      tag_30\n      calldatasize\n      0x04\n      tag_31\n      jump\t// in\n    tag_30:\n      tag_32\n      jump\t// in\n    tag_29:\n      mload(0x40)\n      tag_26\n      swap2\n      swap1\n      tag_34\n      jump\t// in\n        /* \"contracts/bank.sol\":4234:4417  function getUserByAddress(address userAddress)... */\n    tag_6:\n      callvalue\n      dup1\n      iszero\n      tag_35\n      jumpi\n      0x00\n      dup1\n      revert\n    tag_35:\n      pop\n      tag_29\n      tag_37\n      calldatasize\n      0x04\n      tag_38\n      jump\t// in\n    tag_37:\n      tag_39\n      jump\t// in\n        /* \"contracts/bank.sol\":3114:3215  function renounceOwnership() public virtual onlyOwner {... */\n    tag_7:\n      callvalue\n      dup1\n      iszero\n      tag_41\n      jumpi\n      0x00\n      dup1\n      revert\n    tag_41:\n      pop\n      tag_14\n      tag_43\n      jump\t// in\n        /* \"contracts/bank.sol\":2481:2566  function owner() public view virtual returns (address) {... */\n    tag_8:\n      callvalue\n      dup1\n      iszero\n      tag_44\n      jumpi\n      0x00\n      dup1\n      revert\n    tag_44:\n      pop\n        /* \"contracts/bank.sol\":2553:2559  _owner */\n      and(sub(shl(0xa0, 0x01), 0x01), sload(0x01))\n        /* \"contracts/bank.sol\":2481:2566  function owner() public view virtual returns (address) {... */\n    tag_45:\n      mload(0x40)\n      sub(shl(0xa0, 0x01), 0x01)\n        /* \"#utility.yul\":3870:3902   */\n      swap1\n      swap2\n      and\n        /* \"#utility.yul\":3852:3903   */\n      dup2\n      mstore\n        /* \"#utility.yul\":3840:3842   */\n      0x20\n        /* \"#utility.yul\":3825:3843   */\n      add\n        /* \"contracts/bank.sol\":2481:2566  function owner() public view virtual returns (address) {... */\n      tag_26\n        /* \"#utility.yul\":3706:3909   */\n      jump\n        /* \"contracts/bank.sol\":345:382  mapping(address => User) public users */\n    tag_9:\n      callvalue\n      dup1\n      iszero\n      tag_49\n      jumpi\n      0x00\n      dup1\n      revert\n    tag_49:\n      pop\n      tag_50\n      tag_51\n      calldatasize\n      0x04\n      tag_38\n      jump\t// in\n    tag_51:\n      tag_52\n      jump\t// in\n    tag_50:\n      mload(0x40)\n      tag_26\n      swap4\n      swap3\n      swap2\n      swap1\n      tag_54\n      jump\t// in\n        /* \"contracts/bank.sol\":4673:5143  function deposit()... */\n    tag_10:\n      tag_14\n      tag_56\n      jump\t// in\n        /* \"contracts/bank.sol\":3359:3574  function transferOwnership(address newOwner) public virtual onlyOwner {... */\n    tag_11:\n      callvalue\n      dup1\n      iszero\n      tag_57\n      jumpi\n      0x00\n      dup1\n      revert\n    tag_57:\n      pop\n      tag_14\n      tag_59\n      calldatasize\n      0x04\n      tag_38\n      jump\t// in\n    tag_59:\n      tag_60\n      jump\t// in\n        /* \"contracts/bank.sol\":256:277  JVCToken public token */\n    tag_12:\n      callvalue\n      dup1\n      iszero\n      tag_61\n      jumpi\n      0x00\n      dup1\n      revert\n    tag_61:\n      pop\n      sload(0x00)\n      tag_45\n      swap1\n      sub(shl(0xa0, 0x01), 0x01)\n      and\n      dup2\n      jump\n        /* \"contracts/bank.sol\":5188:5664  function withdraw(uint256 amount, address payable addr)... */\n    tag_17:\n        /* \"contracts/bank.sol\":5294:5304  msg.sender */\n      caller\n        /* \"contracts/bank.sol\":5851:5868  addr_.code.length */\n      dup1\n      extcodesize\n        /* \"contracts/bank.sol\":5851:5872  addr_.code.length > 0 */\n      iszero\n        /* \"contracts/bank.sol\":1831:1927  require(... */\n      tag_69\n      jumpi\n      mload(0x40)\n      shl(0xe5, 0x461bcd)\n      dup2\n      mstore\n      0x04\n      add\n      tag_70\n      swap1\n      tag_71\n      jump\t// in\n    tag_70:\n      mload(0x40)\n      dup1\n      swap2\n      sub\n      swap1\n      revert\n    tag_69:\n      sub(shl(0xa0, 0x01), 0x01)\n        /* \"contracts/bank.sol\":5351:5362  users[addr] */\n      dup3\n      and\n      0x00\n      swap1\n      dup2\n      mstore\n        /* \"contracts/bank.sol\":5351:5356  users */\n      0x02\n        /* \"contracts/bank.sol\":5351:5362  users[addr] */\n      0x20\n      dup2\n      swap1\n      mstore\n      0x40\n      swap1\n      swap2\n      keccak256\n        /* \"contracts/bank.sol\":5351:5370  users[addr].balance */\n      add\n      sload\n        /* \"contracts/bank.sol\":5341:5370  amount <= users[addr].balance */\n      dup4\n      gt\n      iszero\n        /* \"contracts/bank.sol\":5320:5416  require(... */\n      tag_73\n      jumpi\n      mload(0x40)\n      shl(0xe5, 0x461bcd)\n      dup2\n      mstore\n        /* \"#utility.yul\":5089:5091   */\n      0x20\n        /* \"contracts/bank.sol\":5320:5416  require(... */\n      0x04\n      dup3\n      add\n        /* \"#utility.yul\":5071:5092   */\n      mstore\n        /* \"#utility.yul\":5128:5130   */\n      0x14\n        /* \"#utility.yul\":5108:5126   */\n      0x24\n      dup3\n      add\n        /* \"#utility.yul\":5101:5131   */\n      mstore\n      shl(0x60, 0x496e73756666696369656e742062616c616e6365)\n        /* \"#utility.yul\":5147:5165   */\n      0x44\n      dup3\n      add\n        /* \"#utility.yul\":5140:5190   */\n      mstore\n        /* \"#utility.yul\":5207:5225   */\n      0x64\n      add\n        /* \"contracts/bank.sol\":5320:5416  require(... */\n      tag_70\n        /* \"#utility.yul\":4887:5231   */\n      jump\n        /* \"contracts/bank.sol\":5320:5416  require(... */\n    tag_73:\n        /* \"contracts/bank.sol\":5457:5468  maxWithdAmt */\n      sload(0x04)\n        /* \"contracts/bank.sol\":5447:5453  amount */\n      dup4\n        /* \"contracts/bank.sol\":5447:5468  amount <= maxWithdAmt */\n      gt\n      iszero\n        /* \"contracts/bank.sol\":5426:5525  require(... */\n      tag_76\n      jumpi\n      mload(0x40)\n      shl(0xe5, 0x461bcd)\n      dup2\n      mstore\n        /* \"#utility.yul\":5438:5440   */\n      0x20\n        /* \"contracts/bank.sol\":5426:5525  require(... */\n      0x04\n      dup3\n      add\n        /* \"#utility.yul\":5420:5441   */\n      mstore\n        /* \"#utility.yul\":5477:5479   */\n      0x1f\n        /* \"#utility.yul\":5457:5475   */\n      0x24\n      dup3\n      add\n        /* \"#utility.yul\":5450:5480   */\n      mstore\n        /* \"#utility.yul\":5516:5549   */\n      0x5769746864726177616c20616d6f756e742065786365656473206c696d697400\n        /* \"#utility.yul\":5496:5514   */\n      0x44\n      dup3\n      add\n        /* \"#utility.yul\":5489:5550   */\n      mstore\n        /* \"#utility.yul\":5567:5585   */\n      0x64\n      add\n        /* \"contracts/bank.sol\":5426:5525  require(... */\n      tag_70\n        /* \"#utility.yul\":5236:5591   */\n      jump\n        /* \"contracts/bank.sol\":5426:5525  require(... */\n    tag_76:\n      sub(shl(0xa0, 0x01), 0x01)\n        /* \"contracts/bank.sol\":5536:5547  users[addr] */\n      dup3\n      and\n      0x00\n      swap1\n      dup2\n      mstore\n        /* \"contracts/bank.sol\":5536:5541  users */\n      0x02\n        /* \"contracts/bank.sol\":5536:5547  users[addr] */\n      0x20\n      dup2\n      swap1\n      mstore\n      0x40\n      dup3\n      keccak256\n        /* \"contracts/bank.sol\":5536:5555  users[addr].balance */\n      add\n        /* \"contracts/bank.sol\":5536:5565  users[addr].balance -= amount */\n      dup1\n      sload\n        /* \"contracts/bank.sol\":5559:5565  amount */\n      dup6\n      swap3\n        /* \"contracts/bank.sol\":5536:5547  users[addr] */\n      swap1\n        /* \"contracts/bank.sol\":5536:5565  users[addr].balance -= amount */\n      tag_79\n      swap1\n        /* \"contracts/bank.sol\":5559:5565  amount */\n      dup5\n      swap1\n        /* \"contracts/bank.sol\":5536:5565  users[addr].balance -= amount */\n      tag_80\n      jump\t// in\n    tag_79:\n      swap1\n      swap2\n      sstore\n      pop\n      pop\n        /* \"contracts/bank.sol\":5575:5596  addr.transfer(amount) */\n      mload(0x40)\n      sub(shl(0xa0, 0x01), 0x01)\n        /* \"contracts/bank.sol\":5575:5588  addr.transfer */\n      dup4\n      and\n      swap1\n        /* \"contracts/bank.sol\":5575:5596  addr.transfer(amount) */\n      dup5\n      iszero\n      0x08fc\n      mul\n      swap1\n        /* \"contracts/bank.sol\":5589:5595  amount */\n      dup6\n      swap1\n        /* \"contracts/bank.sol\":5575:5596  addr.transfer(amount) */\n      0x00\n      dup2\n      dup2\n      dup2\n        /* \"contracts/bank.sol\":5589:5595  amount */\n      dup6\n        /* \"contracts/bank.sol\":5575:5588  addr.transfer */\n      dup9\n        /* \"contracts/bank.sol\":5575:5596  addr.transfer(amount) */\n      dup9\n      call\n      swap4\n      pop\n      pop\n      pop\n      pop\n      iszero\n      dup1\n      iszero\n      tag_82\n      jumpi\n      returndatasize\n      0x00\n      dup1\n      returndatacopy\n      revert(0x00, returndatasize)\n    tag_82:\n      pop\n        /* \"contracts/bank.sol\":5611:5657  WithdrawalSuccessful(addr, msg.sender, amount) */\n      mload(0x40)\n        /* \"#utility.yul\":6007:6032   */\n      dup4\n      dup2\n      mstore\n        /* \"contracts/bank.sol\":5638:5648  msg.sender */\n      caller\n      swap1\n      sub(shl(0xa0, 0x01), 0x01)\n        /* \"contracts/bank.sol\":5611:5657  WithdrawalSuccessful(addr, msg.sender, amount) */\n      dup5\n      and\n      swap1\n      0x46b6c03a6ed8406eda01806ab6d408e07129555fda5275b7f67e3a255f2d7a0d\n      swap1\n        /* \"#utility.yul\":5995:5997   */\n      0x20\n        /* \"#utility.yul\":5980:5998   */\n      add\n        /* \"contracts/bank.sol\":5611:5657  WithdrawalSuccessful(addr, msg.sender, amount) */\n      mload(0x40)\n      dup1\n      swap2\n      sub\n      swap1\n      log3\n        /* \"contracts/bank.sol\":5188:5664  function withdraw(uint256 amount, address payable addr)... */\n      pop\n      pop\n      pop\n      jump\t// out\n        /* \"contracts/bank.sol\":3937:4199  function registerUser(... */\n    tag_22:\n      sub(shl(0xa0, 0x01), 0x01)\n        /* \"contracts/bank.sol\":4068:4079  users[addr] */\n      dup2\n      and\n      0x00\n      swap1\n      dup2\n      mstore\n        /* \"contracts/bank.sol\":4068:4073  users */\n      0x02\n        /* \"contracts/bank.sol\":4068:4079  users[addr] */\n      0x20\n      mstore\n      0x40\n      swap1\n      keccak256\n        /* \"contracts/bank.sol\":4068:4085  users[addr].uName */\n      0x01\n      add\n        /* \"contracts/bank.sol\":4062:4093  bytes(users[addr].uName).length */\n      dup1\n      sload\n      tag_86\n      swap1\n      tag_87\n      jump\t// in\n    tag_86:\n        /* \"contracts/bank.sol\":4062:4098  bytes(users[addr].uName).length == 0 */\n      iszero\n      swap1\n      pop\n        /* \"contracts/bank.sol\":4041:4148  require(... */\n      tag_88\n      jumpi\n      mload(0x40)\n      shl(0xe5, 0x461bcd)\n      dup2\n      mstore\n        /* \"#utility.yul\":6630:6632   */\n      0x20\n        /* \"contracts/bank.sol\":4041:4148  require(... */\n      0x04\n      dup3\n      add\n        /* \"#utility.yul\":6612:6633   */\n      mstore\n        /* \"#utility.yul\":6669:6671   */\n      0x18\n        /* \"#utility.yul\":6649:6667   */\n      0x24\n      dup3\n      add\n        /* \"#utility.yul\":6642:6672   */\n      mstore\n        /* \"#utility.yul\":6708:6734   */\n      0x5573657220616c72656164792072656769737465726564210000000000000000\n        /* \"#utility.yul\":6688:6706   */\n      0x44\n      dup3\n      add\n        /* \"#utility.yul\":6681:6735   */\n      mstore\n        /* \"#utility.yul\":6752:6770   */\n      0x64\n      add\n        /* \"contracts/bank.sol\":4041:4148  require(... */\n      tag_70\n        /* \"#utility.yul\":6428:6776   */\n      jump\n        /* \"contracts/bank.sol\":4041:4148  require(... */\n    tag_88:\n        /* \"contracts/bank.sol\":4172:4192  User(addr, uname, 0) */\n      0x40\n      dup1\n      mload\n      0x60\n      dup2\n      add\n      dup3\n      mstore\n      sub(shl(0xa0, 0x01), 0x01)\n      dup4\n      dup2\n      and\n      dup1\n      dup4\n      mstore\n      0x20\n      dup1\n      dup5\n      add\n      dup8\n      dup2\n      mstore\n      0x00\n      dup6\n      dup8\n      add\n      dup2\n      swap1\n      mstore\n        /* \"contracts/bank.sol\":4158:4169  users[addr] */\n      swap3\n      dup4\n      mstore\n        /* \"contracts/bank.sol\":4158:4163  users */\n      0x02\n        /* \"contracts/bank.sol\":4158:4169  users[addr] */\n      swap1\n      swap2\n      mstore\n      swap4\n      swap1\n      keccak256\n        /* \"contracts/bank.sol\":4158:4192  users[addr] = User(addr, uname, 0) */\n      dup3\n      mload\n      dup2\n      sload\n      not(sub(shl(0xa0, 0x01), 0x01))\n      and\n      swap3\n      and\n      swap2\n      swap1\n      swap2\n      or\n      dup2\n      sstore\n      swap2\n      mload\n        /* \"contracts/bank.sol\":4172:4192  User(addr, uname, 0) */\n      swap1\n      swap2\n        /* \"contracts/bank.sol\":4158:4169  users[addr] */\n      swap1\n      0x01\n        /* \"contracts/bank.sol\":4158:4192  users[addr] = User(addr, uname, 0) */\n      dup3\n      add\n      swap1\n      tag_91\n      swap1\n      dup3\n      tag_92\n      jump\t// in\n    tag_91:\n      pop\n      0x40\n      dup3\n      add\n      mload\n      dup2\n      0x02\n      add\n      sstore\n      swap1\n      pop\n      pop\n        /* \"contracts/bank.sol\":3937:4199  function registerUser(... */\n      pop\n      pop\n      jump\t// out\n        /* \"contracts/bank.sol\":4453:4631  function getUserByName(string memory Uname)... */\n    tag_32:\n        /* \"contracts/bank.sol\":4573:4584  User memory */\n      tag_93\n      mload(0x40)\n      dup1\n      0x60\n      add\n      0x40\n      mstore\n      dup1\n      and(sub(shl(0xa0, 0x01), 0x01), 0x00)\n      dup2\n      mstore\n      0x20\n      add\n      0x60\n      dup2\n      mstore\n      0x20\n      add\n      0x00\n      dup2\n      mstore\n      pop\n      swap1\n      jump\n    tag_93:\n        /* \"contracts/bank.sol\":2071:2081  msg.sender */\n      caller\n        /* \"contracts/bank.sol\":2065:2082  users[msg.sender] */\n      0x00\n      swap1\n      dup2\n      mstore\n        /* \"contracts/bank.sol\":2065:2070  users */\n      0x02\n        /* \"contracts/bank.sol\":2065:2082  users[msg.sender] */\n      0x20\n      mstore\n      0x40\n      swap1\n      keccak256\n        /* \"contracts/bank.sol\":2065:2088  users[msg.sender].uName */\n      0x01\n      add\n        /* \"contracts/bank.sol\":2059:2096  bytes(users[msg.sender].uName).length */\n      dup1\n      sload\n        /* \"contracts/bank.sol\":4549:4554  Uname */\n      dup4\n      swap2\n        /* \"contracts/bank.sol\":2065:2088  users[msg.sender].uName */\n      swap1\n        /* \"contracts/bank.sol\":2059:2096  bytes(users[msg.sender].uName).length */\n      tag_96\n      swap1\n      tag_87\n      jump\t// in\n    tag_96:\n      swap1\n      pop\n        /* \"contracts/bank.sol\":2100:2101  0 */\n      0x00\n        /* \"contracts/bank.sol\":2059:2101  bytes(users[msg.sender].uName).length != 0 */\n      sub\n        /* \"contracts/bank.sol\":2038:2142  require(... */\n      tag_97\n      jumpi\n      mload(0x40)\n      shl(0xe5, 0x461bcd)\n      dup2\n      mstore\n        /* \"#utility.yul\":9107:9109   */\n      0x20\n        /* \"contracts/bank.sol\":2038:2142  require(... */\n      0x04\n      dup3\n      add\n        /* \"#utility.yul\":9089:9110   */\n      mstore\n        /* \"#utility.yul\":9146:9148   */\n      0x0f\n        /* \"#utility.yul\":9126:9144   */\n      0x24\n      dup3\n      add\n        /* \"#utility.yul\":9119:9149   */\n      mstore\n      shl(0x88, 0x55736572206e6f7420666f756e6421)\n        /* \"#utility.yul\":9165:9183   */\n      0x44\n      dup3\n      add\n        /* \"#utility.yul\":9158:9203   */\n      mstore\n        /* \"#utility.yul\":9220:9238   */\n      0x64\n      add\n        /* \"contracts/bank.sol\":2038:2142  require(... */\n      tag_70\n        /* \"#utility.yul\":8905:9244   */\n      jump\n        /* \"contracts/bank.sol\":2038:2142  require(... */\n    tag_97:\n        /* \"contracts/bank.sol\":4613:4623  msg.sender */\n      caller\n        /* \"contracts/bank.sol\":4607:4624  users[msg.sender] */\n      0x00\n      swap1\n      dup2\n      mstore\n        /* \"contracts/bank.sol\":4607:4612  users */\n      0x02\n        /* \"contracts/bank.sol\":4607:4624  users[msg.sender] */\n      0x20\n      swap1\n      dup2\n      mstore\n      0x40\n      swap2\n      dup3\n      swap1\n      keccak256\n        /* \"contracts/bank.sol\":4600:4624  return users[msg.sender] */\n      dup3\n      mload\n      0x60\n      dup2\n      add\n      swap1\n      swap4\n      mstore\n      dup1\n      sload\n      sub(shl(0xa0, 0x01), 0x01)\n      and\n      dup4\n      mstore\n      0x01\n      dup2\n      add\n      dup1\n      sload\n        /* \"contracts/bank.sol\":4607:4624  users[msg.sender] */\n      swap2\n      swap3\n        /* \"contracts/bank.sol\":4600:4624  return users[msg.sender] */\n      dup5\n      add\n      swap2\n      tag_101\n      swap1\n      tag_87\n      jump\t// in\n    tag_101:\n      dup1\n      0x1f\n      add\n      0x20\n      dup1\n      swap2\n      div\n      mul\n      0x20\n      add\n      mload(0x40)\n      swap1\n      dup2\n      add\n      0x40\n      mstore\n      dup1\n      swap3\n      swap2\n      swap1\n      dup2\n      dup2\n      mstore\n      0x20\n      add\n      dup3\n      dup1\n      sload\n      tag_102\n      swap1\n      tag_87\n      jump\t// in\n    tag_102:\n      dup1\n      iszero\n      tag_103\n      jumpi\n      dup1\n      0x1f\n      lt\n      tag_104\n      jumpi\n      0x0100\n      dup1\n      dup4\n      sload\n      div\n      mul\n      dup4\n      mstore\n      swap2\n      0x20\n      add\n      swap2\n      jump(tag_103)\n    tag_104:\n      dup3\n      add\n      swap2\n      swap1\n      0x00\n      mstore\n      keccak256(0x00, 0x20)\n      swap1\n    tag_105:\n      dup2\n      sload\n      dup2\n      mstore\n      swap1\n      0x01\n      add\n      swap1\n      0x20\n      add\n      dup1\n      dup4\n      gt\n      tag_105\n      jumpi\n      dup3\n      swap1\n      sub\n      0x1f\n      and\n      dup3\n      add\n      swap2\n    tag_103:\n      pop\n      pop\n      pop\n      pop\n      pop\n      dup2\n      mstore\n      0x20\n      add\n      0x02\n      dup3\n      add\n      sload\n      dup2\n      mstore\n      pop\n      pop\n      swap2\n      pop\n        /* \"contracts/bank.sol\":2152:2153  _ */\n    tag_100:\n        /* \"contracts/bank.sol\":4453:4631  function getUserByName(string memory Uname)... */\n      pop\n      swap2\n      swap1\n      pop\n      jump\t// out\n        /* \"contracts/bank.sol\":4234:4417  function getUserByAddress(address userAddress)... */\n    tag_39:\n        /* \"contracts/bank.sol\":4358:4369  User memory */\n      tag_106\n      mload(0x40)\n      dup1\n      0x60\n      add\n      0x40\n      mstore\n      dup1\n      and(sub(shl(0xa0, 0x01), 0x01), 0x00)\n      dup2\n      mstore\n      0x20\n      add\n      0x60\n      dup2\n      mstore\n      0x20\n      add\n      0x00\n      dup2\n      mstore\n      pop\n      swap1\n      jump\n    tag_106:\n        /* \"contracts/bank.sol\":4328:4339  userAddress */\n      dup2\n      sub(shl(0xa0, 0x01), 0x01)\n        /* \"contracts/bank.sol\":5851:5868  addr_.code.length */\n      dup2\n      and\n      extcodesize\n        /* \"contracts/bank.sol\":5851:5872  addr_.code.length > 0 */\n      iszero\n        /* \"contracts/bank.sol\":1831:1927  require(... */\n      tag_109\n      jumpi\n      mload(0x40)\n      shl(0xe5, 0x461bcd)\n      dup2\n      mstore\n      0x04\n      add\n      tag_70\n      swap1\n      tag_71\n      jump\t// in\n    tag_109:\n      sub(shl(0xa0, 0x01), 0x01)\n        /* \"contracts/bank.sol\":4392:4410  users[userAddress] */\n      dup1\n      dup5\n      and\n      0x00\n      swap1\n      dup2\n      mstore\n        /* \"contracts/bank.sol\":4392:4397  users */\n      0x02\n        /* \"contracts/bank.sol\":4392:4410  users[userAddress] */\n      0x20\n      swap1\n      dup2\n      mstore\n      0x40\n      swap2\n      dup3\n      swap1\n      keccak256\n        /* \"contracts/bank.sol\":4385:4410  return users[userAddress] */\n      dup3\n      mload\n      0x60\n      dup2\n      add\n      swap1\n      swap4\n      mstore\n      dup1\n      sload\n      swap1\n      swap4\n      and\n      dup3\n      mstore\n      0x01\n      dup4\n      add\n      dup1\n      sload\n      swap3\n      swap4\n        /* \"contracts/bank.sol\":4392:4410  users[userAddress] */\n      swap3\n        /* \"contracts/bank.sol\":4385:4410  return users[userAddress] */\n      swap2\n      dup5\n      add\n      swap2\n      tag_101\n      swap1\n      tag_87\n      jump\t// in\n        /* \"contracts/bank.sol\":3114:3215  function renounceOwnership() public virtual onlyOwner {... */\n    tag_43:\n        /* \"contracts/bank.sol\":1650:1663  _checkOwner() */\n      tag_118\n        /* \"contracts/bank.sol\":1650:1661  _checkOwner */\n      tag_119\n        /* \"contracts/bank.sol\":1650:1663  _checkOwner() */\n      jump\t// in\n    tag_118:\n        /* \"contracts/bank.sol\":3178:3208  _transferOwnership(address(0)) */\n      tag_121\n        /* \"contracts/bank.sol\":3205:3206  0 */\n      0x00\n        /* \"contracts/bank.sol\":3178:3196  _transferOwnership */\n      tag_122\n        /* \"contracts/bank.sol\":3178:3208  _transferOwnership(address(0)) */\n      jump\t// in\n    tag_121:\n        /* \"contracts/bank.sol\":3114:3215  function renounceOwnership() public virtual onlyOwner {... */\n      jump\t// out\n        /* \"contracts/bank.sol\":345:382  mapping(address => User) public users */\n    tag_52:\n      mstore(0x20, 0x02)\n      0x00\n      swap1\n      dup2\n      mstore\n      0x40\n      swap1\n      keccak256\n      dup1\n      sload\n      0x01\n      dup3\n      add\n      dup1\n      sload\n      sub(shl(0xa0, 0x01), 0x01)\n      swap1\n      swap3\n      and\n      swap3\n      swap2\n      tag_124\n      swap1\n      tag_87\n      jump\t// in\n    tag_124:\n      dup1\n      0x1f\n      add\n      0x20\n      dup1\n      swap2\n      div\n      mul\n      0x20\n      add\n      mload(0x40)\n      swap1\n      dup2\n      add\n      0x40\n      mstore\n      dup1\n      swap3\n      swap2\n      swap1\n      dup2\n      dup2\n      mstore\n      0x20\n      add\n      dup3\n      dup1\n      sload\n      tag_125\n      swap1\n      tag_87\n      jump\t// in\n    tag_125:\n      dup1\n      iszero\n      tag_126\n      jumpi\n      dup1\n      0x1f\n      lt\n      tag_127\n      jumpi\n      0x0100\n      dup1\n      dup4\n      sload\n      div\n      mul\n      dup4\n      mstore\n      swap2\n      0x20\n      add\n      swap2\n      jump(tag_126)\n    tag_127:\n      dup3\n      add\n      swap2\n      swap1\n      0x00\n      mstore\n      keccak256(0x00, 0x20)\n      swap1\n    tag_128:\n      dup2\n      sload\n      dup2\n      mstore\n      swap1\n      0x01\n      add\n      swap1\n      0x20\n      add\n      dup1\n      dup4\n      gt\n      tag_128\n      jumpi\n      dup3\n      swap1\n      sub\n      0x1f\n      and\n      dup3\n      add\n      swap2\n    tag_126:\n      pop\n      pop\n      pop\n      pop\n      pop\n      swap1\n      dup1\n      0x02\n      add\n      sload\n      swap1\n      pop\n      dup4\n      jump\t// out\n        /* \"contracts/bank.sol\":4673:5143  function deposit()... */\n    tag_56:\n        /* \"contracts/bank.sol\":4742:4752  msg.sender */\n      caller\n        /* \"contracts/bank.sol\":5851:5868  addr_.code.length */\n      dup1\n      extcodesize\n        /* \"contracts/bank.sol\":5851:5872  addr_.code.length > 0 */\n      iszero\n        /* \"contracts/bank.sol\":1831:1927  require(... */\n      tag_131\n      jumpi\n      mload(0x40)\n      shl(0xe5, 0x461bcd)\n      dup2\n      mstore\n      0x04\n      add\n      tag_70\n      swap1\n      tag_71\n      jump\t// in\n    tag_131:\n        /* \"contracts/bank.sol\":4784:4793  minDepAmt */\n      sload(0x03)\n        /* \"contracts/bank.sol\":4772:4781  msg.value */\n      callvalue\n        /* \"contracts/bank.sol\":4772:4793  msg.value < minDepAmt */\n      lt\n        /* \"contracts/bank.sol\":4768:5137  if (msg.value < minDepAmt) {... */\n      iszero\n      tag_134\n      jumpi\n        /* \"contracts/bank.sol\":4809:4815  status */\n      0x05\n        /* \"contracts/bank.sol\":4809:4831  status = Status.Failed */\n      dup1\n      sload\n      not(0xff)\n      and\n        /* \"contracts/bank.sol\":4818:4831  Status.Failed */\n      0x01\n        /* \"contracts/bank.sol\":4809:4831  status = Status.Failed */\n      or\n      swap1\n      sstore\n        /* \"contracts/bank.sol\":4850:4958  DepositFailed(... */\n      0x40\n      dup1\n      mload\n        /* \"#utility.yul\":9451:9453   */\n      0x20\n        /* \"#utility.yul\":9433:9454   */\n      dup1\n      dup3\n      mstore\n        /* \"#utility.yul\":9490:9492   */\n      0x21\n        /* \"#utility.yul\":9470:9488   */\n      swap1\n      dup3\n      add\n        /* \"#utility.yul\":9463:9493   */\n      mstore\n        /* \"#utility.yul\":9529:9563   */\n      0x4d696e696d756d206465706f73697420616d6f756e7420697320302e30303033\n        /* \"#utility.yul\":9509:9527   */\n      swap2\n      dup2\n      add\n        /* \"#utility.yul\":9502:9564   */\n      swap2\n      swap1\n      swap2\n      mstore\n      shl(0xfb, 0x07)\n        /* \"#utility.yul\":9595:9597   */\n      0x60\n        /* \"#utility.yul\":9580:9598   */\n      dup3\n      add\n        /* \"#utility.yul\":9573:9604   */\n      mstore\n        /* \"contracts/bank.sol\":4881:4891  msg.sender */\n      caller\n      swap1\n        /* \"contracts/bank.sol\":4850:4958  DepositFailed(... */\n      0xa8b9f7931ac94cf9850accd175cf4543fac81ae93865d1670e14213829f67de5\n      swap1\n        /* \"#utility.yul\":9636:9639   */\n      0x80\n        /* \"#utility.yul\":9621:9640   */\n      add\n        /* \"contracts/bank.sol\":4850:4958  DepositFailed(... */\n    tag_138:\n      mload(0x40)\n      dup1\n      swap2\n      sub\n      swap1\n      log2\n        /* \"contracts/bank.sol\":4673:5143  function deposit()... */\n      pop\n      jump\t// out\n        /* \"contracts/bank.sol\":4768:5137  if (msg.value < minDepAmt) {... */\n    tag_134:\n        /* \"contracts/bank.sol\":4995:5005  msg.sender */\n      caller\n        /* \"contracts/bank.sol\":4989:5006  users[msg.sender] */\n      0x00\n      swap1\n      dup2\n      mstore\n        /* \"contracts/bank.sol\":4989:4994  users */\n      0x02\n        /* \"contracts/bank.sol\":4989:5006  users[msg.sender] */\n      0x20\n      dup2\n      swap1\n      mstore\n      0x40\n      dup3\n      keccak256\n        /* \"contracts/bank.sol\":4989:5014  users[msg.sender].balance */\n      add\n        /* \"contracts/bank.sol\":4989:5027  users[msg.sender].balance += msg.value */\n      dup1\n      sload\n        /* \"contracts/bank.sol\":5018:5027  msg.value */\n      callvalue\n      swap3\n        /* \"contracts/bank.sol\":4989:5006  users[msg.sender] */\n      swap1\n        /* \"contracts/bank.sol\":4989:5027  users[msg.sender].balance += msg.value */\n      tag_141\n      swap1\n        /* \"contracts/bank.sol\":5018:5027  msg.value */\n      dup5\n      swap1\n        /* \"contracts/bank.sol\":4989:5027  users[msg.sender].balance += msg.value */\n      tag_142\n      jump\t// in\n    tag_141:\n      swap1\n      swap2\n      sstore\n      pop\n      pop\n        /* \"contracts/bank.sol\":5041:5047  status */\n      0x05\n        /* \"contracts/bank.sol\":5041:5067  status = Status.Successful */\n      dup1\n      sload\n      not(0xff)\n      and\n        /* \"contracts/bank.sol\":5050:5067  Status.Successful */\n      0x02\n        /* \"contracts/bank.sol\":5041:5067  status = Status.Successful */\n      or\n      swap1\n      sstore\n        /* \"contracts/bank.sol\":5086:5126  DepositSuccessful(msg.sender, msg.value) */\n      mload(0x40)\n        /* \"contracts/bank.sol\":5116:5125  msg.value */\n      callvalue\n        /* \"#utility.yul\":6007:6032   */\n      dup2\n      mstore\n        /* \"contracts/bank.sol\":5104:5114  msg.sender */\n      caller\n      swap1\n        /* \"contracts/bank.sol\":5086:5126  DepositSuccessful(msg.sender, msg.value) */\n      0xb3ef81558ed1a50072a492984535a009da8b129c749500b387f1e5f4886bdde5\n      swap1\n        /* \"#utility.yul\":5995:5997   */\n      0x20\n        /* \"#utility.yul\":5980:5998   */\n      add\n        /* \"contracts/bank.sol\":5086:5126  DepositSuccessful(msg.sender, msg.value) */\n      tag_138\n        /* \"#utility.yul\":5861:6038   */\n      jump\n        /* \"contracts/bank.sol\":4768:5137  if (msg.value < minDepAmt) {... */\n    tag_140:\n        /* \"contracts/bank.sol\":4673:5143  function deposit()... */\n      pop\n      jump\t// out\n        /* \"contracts/bank.sol\":3359:3574  function transferOwnership(address newOwner) public virtual onlyOwner {... */\n    tag_60:\n        /* \"contracts/bank.sol\":1650:1663  _checkOwner() */\n      tag_147\n        /* \"contracts/bank.sol\":1650:1661  _checkOwner */\n      tag_119\n        /* \"contracts/bank.sol\":1650:1663  _checkOwner() */\n      jump\t// in\n    tag_147:\n      sub(shl(0xa0, 0x01), 0x01)\n        /* \"contracts/bank.sol\":3443:3465  newOwner == address(0) */\n      dup2\n      and\n        /* \"contracts/bank.sol\":3439:3530  if (newOwner == address(0)) {... */\n      tag_149\n      jumpi\n        /* \"contracts/bank.sol\":3488:3519  OwnableInvalidOwner(address(0)) */\n      mload(0x40)\n      shl(0xe0, 0x1e4fbdf7)\n      dup2\n      mstore\n        /* \"contracts/bank.sol\":3516:3517  0 */\n      0x00\n        /* \"contracts/bank.sol\":3488:3519  OwnableInvalidOwner(address(0)) */\n      0x04\n      dup3\n      add\n        /* \"#utility.yul\":3852:3903   */\n      mstore\n        /* \"#utility.yul\":3825:3843   */\n      0x24\n      add\n        /* \"contracts/bank.sol\":3488:3519  OwnableInvalidOwner(address(0)) */\n      tag_70\n        /* \"#utility.yul\":3706:3909   */\n      jump\n        /* \"contracts/bank.sol\":3439:3530  if (newOwner == address(0)) {... */\n    tag_149:\n        /* \"contracts/bank.sol\":3539:3567  _transferOwnership(newOwner) */\n      tag_140\n        /* \"contracts/bank.sol\":3558:3566  newOwner */\n      dup2\n        /* \"contracts/bank.sol\":3539:3557  _transferOwnership */\n      tag_122\n        /* \"contracts/bank.sol\":3539:3567  _transferOwnership(newOwner) */\n      jump\t// in\n        /* \"contracts/bank.sol\":2622:2784  function _checkOwner() internal view virtual {... */\n    tag_119:\n        /* \"contracts/bank.sol\":2553:2559  _owner */\n      and(sub(shl(0xa0, 0x01), 0x01), sload(0x01))\n        /* \"@openzeppelin/contracts/utils/Context.sol\":735:745  msg.sender */\n      caller\n        /* \"contracts/bank.sol\":2681:2704  owner() != _msgSender() */\n      eq\n        /* \"contracts/bank.sol\":2677:2778  if (owner() != _msgSender()) {... */\n      tag_121\n      jumpi\n        /* \"contracts/bank.sol\":2727:2767  OwnableUnauthorizedAccount(_msgSender()) */\n      mload(0x40)\n      shl(0xe0, 0x118cdaa7)\n      dup2\n      mstore\n        /* \"@openzeppelin/contracts/utils/Context.sol\":735:745  msg.sender */\n      caller\n        /* \"contracts/bank.sol\":2727:2767  OwnableUnauthorizedAccount(_msgSender()) */\n      0x04\n      dup3\n      add\n        /* \"#utility.yul\":3852:3903   */\n      mstore\n        /* \"#utility.yul\":3825:3843   */\n      0x24\n      add\n        /* \"contracts/bank.sol\":2727:2767  OwnableUnauthorizedAccount(_msgSender()) */\n      tag_70\n        /* \"#utility.yul\":3706:3909   */\n      jump\n        /* \"contracts/bank.sol\":3722:3909  function _transferOwnership(address newOwner) internal virtual {... */\n    tag_122:\n        /* \"contracts/bank.sol\":3814:3820  _owner */\n      0x01\n      dup1\n      sload\n      sub(shl(0xa0, 0x01), 0x01)\n        /* \"contracts/bank.sol\":3830:3847  _owner = newOwner */\n      dup4\n      dup2\n      and\n      not(sub(shl(0xa0, 0x01), 0x01))\n      dup4\n      and\n      dup2\n      or\n      swap1\n      swap4\n      sstore\n        /* \"contracts/bank.sol\":3862:3902  OwnershipTransferred(oldOwner, newOwner) */\n      mload(0x40)\n        /* \"contracts/bank.sol\":3814:3820  _owner */\n      swap2\n      and\n      swap2\n        /* \"contracts/bank.sol\":3830:3847  _owner = newOwner */\n      swap1\n        /* \"contracts/bank.sol\":3814:3820  _owner */\n      dup3\n      swap1\n        /* \"contracts/bank.sol\":3862:3902  OwnershipTransferred(oldOwner, newOwner) */\n      0x8be0079c531659141344cd1fd0a4f28419497f9722a3daafe3b4186f6b6457e0\n      swap1\n        /* \"contracts/bank.sol\":3795:3811  address oldOwner */\n      0x00\n      swap1\n        /* \"contracts/bank.sol\":3862:3902  OwnershipTransferred(oldOwner, newOwner) */\n      log3\n        /* \"contracts/bank.sol\":3785:3909  {... */\n      pop\n        /* \"contracts/bank.sol\":3722:3909  function _transferOwnership(address newOwner) internal virtual {... */\n      pop\n      jump\t// out\n        /* \"#utility.yul\":14:153   */\n    tag_162:\n      sub(shl(0xa0, 0x01), 0x01)\n        /* \"#utility.yul\":97:128   */\n      dup2\n      and\n        /* \"#utility.yul\":87:129   */\n      dup2\n      eq\n        /* \"#utility.yul\":77:147   */\n      tag_140\n      jumpi\n        /* \"#utility.yul\":143:144   */\n      0x00\n        /* \"#utility.yul\":140:141   */\n      dup1\n        /* \"#utility.yul\":133:145   */\n      revert\n        /* \"#utility.yul\":158:489   */\n    tag_16:\n        /* \"#utility.yul\":234:240   */\n      0x00\n        /* \"#utility.yul\":242:248   */\n      dup1\n        /* \"#utility.yul\":295:297   */\n      0x40\n        /* \"#utility.yul\":283:292   */\n      dup4\n        /* \"#utility.yul\":274:281   */\n      dup6\n        /* \"#utility.yul\":270:293   */\n      sub\n        /* \"#utility.yul\":266:298   */\n      slt\n        /* \"#utility.yul\":263:315   */\n      iszero\n      tag_174\n      jumpi\n        /* \"#utility.yul\":311:312   */\n      0x00\n        /* \"#utility.yul\":308:309   */\n      dup1\n        /* \"#utility.yul\":301:313   */\n      revert\n        /* \"#utility.yul\":263:315   */\n    tag_174:\n        /* \"#utility.yul\":347:356   */\n      dup3\n        /* \"#utility.yul\":334:357   */\n      calldataload\n        /* \"#utility.yul\":324:357   */\n      swap2\n      pop\n        /* \"#utility.yul\":407:409   */\n      0x20\n        /* \"#utility.yul\":396:405   */\n      dup4\n        /* \"#utility.yul\":392:410   */\n      add\n        /* \"#utility.yul\":379:411   */\n      calldataload\n        /* \"#utility.yul\":420:459   */\n      tag_175\n        /* \"#utility.yul\":453:458   */\n      dup2\n        /* \"#utility.yul\":420:459   */\n      tag_162\n      jump\t// in\n    tag_175:\n        /* \"#utility.yul\":478:483   */\n      dup1\n        /* \"#utility.yul\":468:483   */\n      swap2\n      pop\n      pop\n        /* \"#utility.yul\":158:489   */\n      swap3\n      pop\n      swap3\n      swap1\n      pop\n      jump\t// out\n        /* \"#utility.yul\":494:621   */\n    tag_163:\n        /* \"#utility.yul\":555:565   */\n      0x4e487b71\n        /* \"#utility.yul\":550:553   */\n      0xe0\n        /* \"#utility.yul\":546:566   */\n      shl\n        /* \"#utility.yul\":543:544   */\n      0x00\n        /* \"#utility.yul\":536:567   */\n      mstore\n        /* \"#utility.yul\":586:590   */\n      0x41\n        /* \"#utility.yul\":583:584   */\n      0x04\n        /* \"#utility.yul\":576:591   */\n      mstore\n        /* \"#utility.yul\":610:614   */\n      0x24\n        /* \"#utility.yul\":607:608   */\n      0x00\n        /* \"#utility.yul\":600:615   */\n      revert\n        /* \"#utility.yul\":626:1352   */\n    tag_164:\n        /* \"#utility.yul\":669:674   */\n      0x00\n        /* \"#utility.yul\":722:725   */\n      dup3\n        /* \"#utility.yul\":715:719   */\n      0x1f\n        /* \"#utility.yul\":707:713   */\n      dup4\n        /* \"#utility.yul\":703:720   */\n      add\n        /* \"#utility.yul\":699:726   */\n      slt\n        /* \"#utility.yul\":689:744   */\n      tag_178\n      jumpi\n        /* \"#utility.yul\":740:741   */\n      0x00\n        /* \"#utility.yul\":737:738   */\n      dup1\n        /* \"#utility.yul\":730:742   */\n      revert\n        /* \"#utility.yul\":689:744   */\n    tag_178:\n        /* \"#utility.yul\":780:786   */\n      dup2\n        /* \"#utility.yul\":767:787   */\n      calldataload\n        /* \"#utility.yul\":810:828   */\n      0xffffffffffffffff\n        /* \"#utility.yul\":802:808   */\n      dup2\n        /* \"#utility.yul\":799:829   */\n      gt\n        /* \"#utility.yul\":796:852   */\n      iszero\n      tag_180\n      jumpi\n        /* \"#utility.yul\":832:850   */\n      tag_180\n      tag_163\n      jump\t// in\n    tag_180:\n        /* \"#utility.yul\":881:883   */\n      0x40\n        /* \"#utility.yul\":875:884   */\n      mload\n        /* \"#utility.yul\":973:975   */\n      0x1f\n        /* \"#utility.yul\":935:952   */\n      dup3\n      add\n      not(0x1f)\n        /* \"#utility.yul\":931:962   */\n      swap1\n      dup2\n      and\n        /* \"#utility.yul\":964:966   */\n      0x3f\n        /* \"#utility.yul\":927:967   */\n      add\n        /* \"#utility.yul\":923:977   */\n      and\n        /* \"#utility.yul\":911:978   */\n      dup2\n      add\n        /* \"#utility.yul\":1008:1026   */\n      0xffffffffffffffff\n        /* \"#utility.yul\":993:1027   */\n      dup2\n      gt\n        /* \"#utility.yul\":1029:1051   */\n      dup3\n      dup3\n      lt\n        /* \"#utility.yul\":990:1052   */\n      or\n        /* \"#utility.yul\":987:1075   */\n      iszero\n      tag_182\n      jumpi\n        /* \"#utility.yul\":1055:1073   */\n      tag_182\n      tag_163\n      jump\t// in\n    tag_182:\n        /* \"#utility.yul\":1091:1093   */\n      0x40\n        /* \"#utility.yul\":1084:1106   */\n      mstore\n        /* \"#utility.yul\":1115:1137   */\n      dup2\n      dup2\n      mstore\n        /* \"#utility.yul\":1156:1175   */\n      dup4\n      dup3\n      add\n        /* \"#utility.yul\":1177:1181   */\n      0x20\n        /* \"#utility.yul\":1152:1182   */\n      add\n        /* \"#utility.yul\":1149:1188   */\n      dup6\n      lt\n        /* \"#utility.yul\":1146:1205   */\n      iszero\n      tag_183\n      jumpi\n        /* \"#utility.yul\":1201:1202   */\n      0x00\n        /* \"#utility.yul\":1198:1199   */\n      dup1\n        /* \"#utility.yul\":1191:1203   */\n      revert\n        /* \"#utility.yul\":1146:1205   */\n    tag_183:\n        /* \"#utility.yul\":1265:1271   */\n      dup2\n        /* \"#utility.yul\":1258:1262   */\n      0x20\n        /* \"#utility.yul\":1250:1256   */\n      dup6\n        /* \"#utility.yul\":1246:1263   */\n      add\n        /* \"#utility.yul\":1239:1243   */\n      0x20\n        /* \"#utility.yul\":1231:1237   */\n      dup4\n        /* \"#utility.yul\":1227:1244   */\n      add\n        /* \"#utility.yul\":1214:1272   */\n      calldatacopy\n        /* \"#utility.yul\":1320:1321   */\n      0x00\n        /* \"#utility.yul\":1292:1311   */\n      swap2\n      dup2\n      add\n        /* \"#utility.yul\":1313:1317   */\n      0x20\n        /* \"#utility.yul\":1288:1318   */\n      add\n        /* \"#utility.yul\":1281:1322   */\n      swap2\n      swap1\n      swap2\n      mstore\n        /* \"#utility.yul\":1296:1302   */\n      swap4\n        /* \"#utility.yul\":626:1352   */\n      swap3\n      pop\n      pop\n      pop\n      jump\t// out\n        /* \"#utility.yul\":1357:1830   */\n    tag_21:\n        /* \"#utility.yul\":1443:1449   */\n      0x00\n        /* \"#utility.yul\":1451:1457   */\n      dup1\n        /* \"#utility.yul\":1504:1506   */\n      0x40\n        /* \"#utility.yul\":1492:1501   */\n      dup4\n        /* \"#utility.yul\":1483:1490   */\n      dup6\n        /* \"#utility.yul\":1479:1502   */\n      sub\n        /* \"#utility.yul\":1475:1507   */\n      slt\n        /* \"#utility.yul\":1472:1524   */\n      iszero\n      tag_185\n      jumpi\n        /* \"#utility.yul\":1520:1521   */\n      0x00\n        /* \"#utility.yul\":1517:1518   */\n      dup1\n        /* \"#utility.yul\":1510:1522   */\n      revert\n        /* \"#utility.yul\":1472:1524   */\n    tag_185:\n        /* \"#utility.yul\":1560:1569   */\n      dup3\n        /* \"#utility.yul\":1547:1570   */\n      calldataload\n        /* \"#utility.yul\":1593:1611   */\n      0xffffffffffffffff\n        /* \"#utility.yul\":1585:1591   */\n      dup2\n        /* \"#utility.yul\":1582:1612   */\n      gt\n        /* \"#utility.yul\":1579:1629   */\n      iszero\n      tag_186\n      jumpi\n        /* \"#utility.yul\":1625:1626   */\n      0x00\n        /* \"#utility.yul\":1622:1623   */\n      dup1\n        /* \"#utility.yul\":1615:1627   */\n      revert\n        /* \"#utility.yul\":1579:1629   */\n    tag_186:\n        /* \"#utility.yul\":1648:1698   */\n      tag_187\n        /* \"#utility.yul\":1690:1697   */\n      dup6\n        /* \"#utility.yul\":1681:1687   */\n      dup3\n        /* \"#utility.yul\":1670:1679   */\n      dup7\n        /* \"#utility.yul\":1666:1688   */\n      add\n        /* \"#utility.yul\":1648:1698   */\n      tag_164\n      jump\t// in\n    tag_187:\n        /* \"#utility.yul\":1638:1698   */\n      swap3\n      pop\n      pop\n        /* \"#utility.yul\":1748:1750   */\n      0x20\n        /* \"#utility.yul\":1737:1746   */\n      dup4\n        /* \"#utility.yul\":1733:1751   */\n      add\n        /* \"#utility.yul\":1720:1752   */\n      calldataload\n        /* \"#utility.yul\":1761:1800   */\n      tag_175\n        /* \"#utility.yul\":1794:1799   */\n      dup2\n        /* \"#utility.yul\":1761:1800   */\n      tag_162\n      jump\t// in\n        /* \"#utility.yul\":1967:2306   */\n    tag_27:\n        /* \"#utility.yul\":2110:2112   */\n      0x20\n        /* \"#utility.yul\":2095:2113   */\n      dup2\n      add\n        /* \"#utility.yul\":2143:2144   */\n      0x03\n        /* \"#utility.yul\":2132:2145   */\n      dup4\n      lt\n        /* \"#utility.yul\":2122:2266   */\n      tag_191\n      jumpi\n        /* \"#utility.yul\":2188:2198   */\n      0x4e487b71\n        /* \"#utility.yul\":2183:2186   */\n      0xe0\n        /* \"#utility.yul\":2179:2199   */\n      shl\n        /* \"#utility.yul\":2176:2177   */\n      0x00\n        /* \"#utility.yul\":2169:2200   */\n      mstore\n        /* \"#utility.yul\":2223:2227   */\n      0x21\n        /* \"#utility.yul\":2220:2221   */\n      0x04\n        /* \"#utility.yul\":2213:2228   */\n      mstore\n        /* \"#utility.yul\":2251:2255   */\n      0x24\n        /* \"#utility.yul\":2248:2249   */\n      0x00\n        /* \"#utility.yul\":2241:2256   */\n      revert\n        /* \"#utility.yul\":2122:2266   */\n    tag_191:\n        /* \"#utility.yul\":2275:2300   */\n      swap2\n      swap1\n      mstore\n        /* \"#utility.yul\":1967:2306   */\n      swap1\n      jump\t// out\n        /* \"#utility.yul\":2311:2633   */\n    tag_31:\n        /* \"#utility.yul\":2380:2386   */\n      0x00\n        /* \"#utility.yul\":2433:2435   */\n      0x20\n        /* \"#utility.yul\":2421:2430   */\n      dup3\n        /* \"#utility.yul\":2412:2419   */\n      dup5\n        /* \"#utility.yul\":2408:2431   */\n      sub\n        /* \"#utility.yul\":2404:2436   */\n      slt\n        /* \"#utility.yul\":2401:2453   */\n      iszero\n      tag_193\n      jumpi\n        /* \"#utility.yul\":2449:2450   */\n      0x00\n        /* \"#utility.yul\":2446:2447   */\n      dup1\n        /* \"#utility.yul\":2439:2451   */\n      revert\n        /* \"#utility.yul\":2401:2453   */\n    tag_193:\n        /* \"#utility.yul\":2489:2498   */\n      dup2\n        /* \"#utility.yul\":2476:2499   */\n      calldataload\n        /* \"#utility.yul\":2522:2540   */\n      0xffffffffffffffff\n        /* \"#utility.yul\":2514:2520   */\n      dup2\n        /* \"#utility.yul\":2511:2541   */\n      gt\n        /* \"#utility.yul\":2508:2558   */\n      iszero\n      tag_194\n      jumpi\n        /* \"#utility.yul\":2554:2555   */\n      0x00\n        /* \"#utility.yul\":2551:2552   */\n      dup1\n        /* \"#utility.yul\":2544:2556   */\n      revert\n        /* \"#utility.yul\":2508:2558   */\n    tag_194:\n        /* \"#utility.yul\":2577:2627   */\n      tag_195\n        /* \"#utility.yul\":2619:2626   */\n      dup5\n        /* \"#utility.yul\":2610:2616   */\n      dup3\n        /* \"#utility.yul\":2599:2608   */\n      dup6\n        /* \"#utility.yul\":2595:2617   */\n      add\n        /* \"#utility.yul\":2577:2627   */\n      tag_164\n      jump\t// in\n    tag_195:\n        /* \"#utility.yul\":2567:2627   */\n      swap5\n        /* \"#utility.yul\":2311:2633   */\n      swap4\n      pop\n      pop\n      pop\n      pop\n      jump\t// out\n        /* \"#utility.yul\":2638:2927   */\n    tag_165:\n        /* \"#utility.yul\":2680:2683   */\n      0x00\n        /* \"#utility.yul\":2718:2723   */\n      dup2\n        /* \"#utility.yul\":2712:2724   */\n      mload\n        /* \"#utility.yul\":2745:2751   */\n      dup1\n        /* \"#utility.yul\":2740:2743   */\n      dup5\n        /* \"#utility.yul\":2733:2752   */\n      mstore\n        /* \"#utility.yul\":2801:2807   */\n      dup1\n        /* \"#utility.yul\":2794:2798   */\n      0x20\n        /* \"#utility.yul\":2787:2792   */\n      dup5\n        /* \"#utility.yul\":2783:2799   */\n      add\n        /* \"#utility.yul\":2776:2780   */\n      0x20\n        /* \"#utility.yul\":2771:2774   */\n      dup7\n        /* \"#utility.yul\":2767:2781   */\n      add\n        /* \"#utility.yul\":2761:2808   */\n      mcopy\n        /* \"#utility.yul\":2853:2854   */\n      0x00\n        /* \"#utility.yul\":2846:2850   */\n      0x20\n        /* \"#utility.yul\":2837:2843   */\n      dup3\n        /* \"#utility.yul\":2832:2835   */\n      dup7\n        /* \"#utility.yul\":2828:2844   */\n      add\n        /* \"#utility.yul\":2824:2851   */\n      add\n        /* \"#utility.yul\":2817:2855   */\n      mstore\n        /* \"#utility.yul\":2916:2920   */\n      0x20\n        /* \"#utility.yul\":2909:2911   */\n      0x1f\n        /* \"#utility.yul\":2905:2912   */\n      not\n        /* \"#utility.yul\":2900:2902   */\n      0x1f\n        /* \"#utility.yul\":2892:2898   */\n      dup4\n        /* \"#utility.yul\":2888:2903   */\n      add\n        /* \"#utility.yul\":2884:2913   */\n      and\n        /* \"#utility.yul\":2879:2882   */\n      dup6\n        /* \"#utility.yul\":2875:2914   */\n      add\n        /* \"#utility.yul\":2871:2921   */\n      add\n        /* \"#utility.yul\":2864:2921   */\n      swap2\n      pop\n      pop\n        /* \"#utility.yul\":2638:2927   */\n      swap3\n      swap2\n      pop\n      pop\n      jump\t// out\n        /* \"#utility.yul\":2932:3441   */\n    tag_34:\n        /* \"#utility.yul\":3105:3107   */\n      0x20\n        /* \"#utility.yul\":3087:3108   */\n      dup1\n      dup3\n      mstore\n        /* \"#utility.yul\":3148:3161   */\n      dup3\n      mload\n      sub(shl(0xa0, 0x01), 0x01)\n        /* \"#utility.yul\":3144:3183   */\n      and\n        /* \"#utility.yul\":3124:3142   */\n      dup3\n      dup3\n      add\n        /* \"#utility.yul\":3117:3184   */\n      mstore\n        /* \"#utility.yul\":3219:3234   */\n      dup3\n      add\n        /* \"#utility.yul\":3213:3235   */\n      mload\n        /* \"#utility.yul\":3271:3275   */\n      0x60\n        /* \"#utility.yul\":3266:3268   */\n      0x40\n        /* \"#utility.yul\":3251:3269   */\n      dup4\n      add\n        /* \"#utility.yul\":3244:3276   */\n      mstore\n      0x00\n      swap1\n        /* \"#utility.yul\":3299:3351   */\n      tag_198\n        /* \"#utility.yul\":3346:3349   */\n      0x80\n        /* \"#utility.yul\":3331:3350   */\n      dup5\n      add\n        /* \"#utility.yul\":3213:3235   */\n      dup3\n        /* \"#utility.yul\":3299:3351   */\n      tag_165\n      jump\t// in\n    tag_198:\n        /* \"#utility.yul\":3285:3351   */\n      swap1\n      pop\n        /* \"#utility.yul\":3407:3409   */\n      0x40\n        /* \"#utility.yul\":3399:3405   */\n      dup5\n        /* \"#utility.yul\":3395:3410   */\n      add\n        /* \"#utility.yul\":3389:3411   */\n      mload\n        /* \"#utility.yul\":3382:3386   */\n      0x60\n        /* \"#utility.yul\":3371:3380   */\n      dup5\n        /* \"#utility.yul\":3367:3387   */\n      add\n        /* \"#utility.yul\":3360:3412   */\n      mstore\n        /* \"#utility.yul\":3429:3435   */\n      dup1\n        /* \"#utility.yul\":3421:3435   */\n      swap2\n      pop\n      pop\n        /* \"#utility.yul\":2932:3441   */\n      swap3\n      swap2\n      pop\n      pop\n      jump\t// out\n        /* \"#utility.yul\":3446:3701   */\n    tag_38:\n        /* \"#utility.yul\":3505:3511   */\n      0x00\n        /* \"#utility.yul\":3558:3560   */\n      0x20\n        /* \"#utility.yul\":3546:3555   */\n      dup3\n        /* \"#utility.yul\":3537:3544   */\n      dup5\n        /* \"#utility.yul\":3533:3556   */\n      sub\n        /* \"#utility.yul\":3529:3561   */\n      slt\n        /* \"#utility.yul\":3526:3578   */\n      iszero\n      tag_200\n      jumpi\n        /* \"#utility.yul\":3574:3575   */\n      0x00\n        /* \"#utility.yul\":3571:3572   */\n      dup1\n        /* \"#utility.yul\":3564:3576   */\n      revert\n        /* \"#utility.yul\":3526:3578   */\n    tag_200:\n        /* \"#utility.yul\":3613:3622   */\n      dup2\n        /* \"#utility.yul\":3600:3623   */\n      calldataload\n        /* \"#utility.yul\":3632:3671   */\n      tag_201\n        /* \"#utility.yul\":3665:3670   */\n      dup2\n        /* \"#utility.yul\":3632:3671   */\n      tag_162\n      jump\t// in\n    tag_201:\n        /* \"#utility.yul\":3690:3695   */\n      swap4\n        /* \"#utility.yul\":3446:3701   */\n      swap3\n      pop\n      pop\n      pop\n      jump\t// out\n        /* \"#utility.yul\":3914:4302   */\n    tag_54:\n      sub(shl(0xa0, 0x01), 0x01)\n        /* \"#utility.yul\":4119:4151   */\n      dup5\n      and\n        /* \"#utility.yul\":4101:4152   */\n      dup2\n      mstore\n        /* \"#utility.yul\":4188:4190   */\n      0x60\n        /* \"#utility.yul\":4183:4185   */\n      0x20\n        /* \"#utility.yul\":4168:4186   */\n      dup3\n      add\n        /* \"#utility.yul\":4161:4191   */\n      dup2\n      swap1\n      mstore\n      0x00\n      swap1\n        /* \"#utility.yul\":4208:4253   */\n      tag_204\n      swap1\n        /* \"#utility.yul\":4234:4252   */\n      dup4\n      add\n        /* \"#utility.yul\":4226:4232   */\n      dup6\n        /* \"#utility.yul\":4208:4253   */\n      tag_165\n      jump\t// in\n    tag_204:\n        /* \"#utility.yul\":4200:4253   */\n      swap1\n      pop\n        /* \"#utility.yul\":4289:4295   */\n      dup3\n        /* \"#utility.yul\":4284:4286   */\n      0x40\n        /* \"#utility.yul\":4273:4282   */\n      dup4\n        /* \"#utility.yul\":4269:4287   */\n      add\n        /* \"#utility.yul\":4262:4296   */\n      mstore\n        /* \"#utility.yul\":3914:4302   */\n      swap5\n      swap4\n      pop\n      pop\n      pop\n      pop\n      jump\t// out\n        /* \"#utility.yul\":4531:4882   */\n    tag_71:\n        /* \"#utility.yul\":4733:4735   */\n      0x20\n        /* \"#utility.yul\":4715:4736   */\n      dup1\n      dup3\n      mstore\n        /* \"#utility.yul\":4772:4774   */\n      0x1b\n        /* \"#utility.yul\":4752:4770   */\n      swap1\n      dup3\n      add\n        /* \"#utility.yul\":4745:4775   */\n      mstore\n        /* \"#utility.yul\":4811:4840   */\n      0x54686973206973206120636f6e74726163742061646472657373210000000000\n        /* \"#utility.yul\":4806:4808   */\n      0x40\n        /* \"#utility.yul\":4791:4809   */\n      dup3\n      add\n        /* \"#utility.yul\":4784:4841   */\n      mstore\n        /* \"#utility.yul\":4873:4875   */\n      0x60\n        /* \"#utility.yul\":4858:4876   */\n      add\n      swap1\n        /* \"#utility.yul\":4531:4882   */\n      jump\t// out\n        /* \"#utility.yul\":5596:5723   */\n    tag_166:\n        /* \"#utility.yul\":5657:5667   */\n      0x4e487b71\n        /* \"#utility.yul\":5652:5655   */\n      0xe0\n        /* \"#utility.yul\":5648:5668   */\n      shl\n        /* \"#utility.yul\":5645:5646   */\n      0x00\n        /* \"#utility.yul\":5638:5669   */\n      mstore\n        /* \"#utility.yul\":5688:5692   */\n      0x11\n        /* \"#utility.yul\":5685:5686   */\n      0x04\n        /* \"#utility.yul\":5678:5693   */\n      mstore\n        /* \"#utility.yul\":5712:5716   */\n      0x24\n        /* \"#utility.yul\":5709:5710   */\n      0x00\n        /* \"#utility.yul\":5702:5717   */\n      revert\n        /* \"#utility.yul\":5728:5856   */\n    tag_80:\n        /* \"#utility.yul\":5795:5804   */\n      dup2\n      dup2\n      sub\n        /* \"#utility.yul\":5816:5827   */\n      dup2\n      dup2\n      gt\n        /* \"#utility.yul\":5813:5850   */\n      iszero\n      tag_212\n      jumpi\n        /* \"#utility.yul\":5830:5848   */\n      tag_212\n      tag_166\n      jump\t// in\n    tag_212:\n        /* \"#utility.yul\":5728:5856   */\n      swap3\n      swap2\n      pop\n      pop\n      jump\t// out\n        /* \"#utility.yul\":6043:6423   */\n    tag_87:\n        /* \"#utility.yul\":6122:6123   */\n      0x01\n        /* \"#utility.yul\":6118:6130   */\n      dup2\n      dup2\n      shr\n      swap1\n        /* \"#utility.yul\":6165:6177   */\n      dup3\n      and\n      dup1\n        /* \"#utility.yul\":6186:6247   */\n      tag_215\n      jumpi\n        /* \"#utility.yul\":6240:6244   */\n      0x7f\n        /* \"#utility.yul\":6232:6238   */\n      dup3\n        /* \"#utility.yul\":6228:6245   */\n      and\n        /* \"#utility.yul\":6218:6245   */\n      swap2\n      pop\n        /* \"#utility.yul\":6186:6247   */\n    tag_215:\n        /* \"#utility.yul\":6293:6295   */\n      0x20\n        /* \"#utility.yul\":6285:6291   */\n      dup3\n        /* \"#utility.yul\":6282:6296   */\n      lt\n        /* \"#utility.yul\":6262:6280   */\n      dup2\n        /* \"#utility.yul\":6259:6297   */\n      sub\n        /* \"#utility.yul\":6256:6417   */\n      tag_100\n      jumpi\n        /* \"#utility.yul\":6339:6349   */\n      0x4e487b71\n        /* \"#utility.yul\":6334:6337   */\n      0xe0\n        /* \"#utility.yul\":6330:6350   */\n      shl\n        /* \"#utility.yul\":6327:6328   */\n      0x00\n        /* \"#utility.yul\":6320:6351   */\n      mstore\n        /* \"#utility.yul\":6374:6378   */\n      0x22\n        /* \"#utility.yul\":6371:6372   */\n      0x04\n        /* \"#utility.yul\":6364:6379   */\n      mstore\n        /* \"#utility.yul\":6402:6406   */\n      0x24\n        /* \"#utility.yul\":6399:6400   */\n      0x00\n        /* \"#utility.yul\":6392:6407   */\n      revert\n        /* \"#utility.yul\":6907:7425   */\n    tag_168:\n        /* \"#utility.yul\":7009:7011   */\n      0x1f\n        /* \"#utility.yul\":7004:7007   */\n      dup3\n        /* \"#utility.yul\":7001:7012   */\n      gt\n        /* \"#utility.yul\":6998:7419   */\n      iszero\n      tag_220\n      jumpi\n        /* \"#utility.yul\":7045:7050   */\n      dup1\n        /* \"#utility.yul\":7042:7043   */\n      0x00\n        /* \"#utility.yul\":7035:7051   */\n      mstore\n        /* \"#utility.yul\":7089:7093   */\n      0x20\n        /* \"#utility.yul\":7086:7087   */\n      0x00\n        /* \"#utility.yul\":7076:7094   */\n      keccak256\n        /* \"#utility.yul\":7159:7161   */\n      0x1f\n        /* \"#utility.yul\":7147:7157   */\n      dup5\n        /* \"#utility.yul\":7143:7162   */\n      add\n        /* \"#utility.yul\":7140:7141   */\n      0x05\n        /* \"#utility.yul\":7136:7163   */\n      shr\n        /* \"#utility.yul\":7130:7134   */\n      dup2\n        /* \"#utility.yul\":7126:7164   */\n      add\n        /* \"#utility.yul\":7195:7199   */\n      0x20\n        /* \"#utility.yul\":7183:7193   */\n      dup6\n        /* \"#utility.yul\":7180:7200   */\n      lt\n        /* \"#utility.yul\":7177:7224   */\n      iszero\n      tag_221\n      jumpi\n      pop\n        /* \"#utility.yul\":7218:7222   */\n      dup1\n        /* \"#utility.yul\":7177:7224   */\n    tag_221:\n        /* \"#utility.yul\":7273:7275   */\n      0x1f\n        /* \"#utility.yul\":7268:7271   */\n      dup5\n        /* \"#utility.yul\":7264:7276   */\n      add\n        /* \"#utility.yul\":7261:7262   */\n      0x05\n        /* \"#utility.yul\":7257:7277   */\n      shr\n        /* \"#utility.yul\":7251:7255   */\n      dup3\n        /* \"#utility.yul\":7247:7278   */\n      add\n        /* \"#utility.yul\":7237:7278   */\n      swap2\n      pop\n        /* \"#utility.yul\":7328:7409   */\n    tag_222:\n        /* \"#utility.yul\":7346:7348   */\n      dup2\n        /* \"#utility.yul\":7339:7344   */\n      dup2\n        /* \"#utility.yul\":7336:7349   */\n      lt\n        /* \"#utility.yul\":7328:7409   */\n      iszero\n      tag_224\n      jumpi\n        /* \"#utility.yul\":7405:7406   */\n      0x00\n        /* \"#utility.yul\":7391:7407   */\n      dup2\n      sstore\n        /* \"#utility.yul\":7372:7373   */\n      0x01\n        /* \"#utility.yul\":7361:7374   */\n      add\n        /* \"#utility.yul\":7328:7409   */\n      jump(tag_222)\n    tag_224:\n        /* \"#utility.yul\":7332:7335   */\n      pop\n      pop\n        /* \"#utility.yul\":6998:7419   */\n    tag_220:\n        /* \"#utility.yul\":6907:7425   */\n      pop\n      pop\n      pop\n      jump\t// out\n        /* \"#utility.yul\":7601:8900   */\n    tag_92:\n        /* \"#utility.yul\":7727:7730   */\n      dup2\n        /* \"#utility.yul\":7721:7731   */\n      mload\n        /* \"#utility.yul\":7754:7772   */\n      0xffffffffffffffff\n        /* \"#utility.yul\":7746:7752   */\n      dup2\n        /* \"#utility.yul\":7743:7773   */\n      gt\n        /* \"#utility.yul\":7740:7796   */\n      iszero\n      tag_228\n      jumpi\n        /* \"#utility.yul\":7776:7794   */\n      tag_228\n      tag_163\n      jump\t// in\n    tag_228:\n        /* \"#utility.yul\":7805:7902   */\n      tag_229\n        /* \"#utility.yul\":7895:7901   */\n      dup2\n        /* \"#utility.yul\":7855:7893   */\n      tag_230\n        /* \"#utility.yul\":7887:7891   */\n      dup5\n        /* \"#utility.yul\":7881:7892   */\n      sload\n        /* \"#utility.yul\":7855:7893   */\n      tag_87\n      jump\t// in\n    tag_230:\n        /* \"#utility.yul\":7849:7853   */\n      dup5\n        /* \"#utility.yul\":7805:7902   */\n      tag_168\n      jump\t// in\n    tag_229:\n        /* \"#utility.yul\":7951:7955   */\n      0x20\n        /* \"#utility.yul\":7982:7984   */\n      0x1f\n        /* \"#utility.yul\":7971:7985   */\n      dup3\n      gt\n        /* \"#utility.yul\":7999:8000   */\n      0x01\n        /* \"#utility.yul\":7994:8643   */\n      dup2\n      eq\n      tag_232\n      jumpi\n        /* \"#utility.yul\":8687:8688   */\n      0x00\n        /* \"#utility.yul\":8704:8710   */\n      dup4\n        /* \"#utility.yul\":8701:8790   */\n      iszero\n      tag_233\n      jumpi\n      pop\n        /* \"#utility.yul\":8756:8775   */\n      dup5\n      dup3\n      add\n        /* \"#utility.yul\":8750:8776   */\n      mload\n        /* \"#utility.yul\":8701:8790   */\n    tag_233:\n      not(0x00)\n        /* \"#utility.yul\":7558:7559   */\n      0x03\n        /* \"#utility.yul\":7554:7565   */\n      dup6\n      swap1\n      shl\n        /* \"#utility.yul\":7550:7574   */\n      shr\n        /* \"#utility.yul\":7546:7575   */\n      not\n        /* \"#utility.yul\":7536:7576   */\n      and\n        /* \"#utility.yul\":7582:7583   */\n      0x01\n        /* \"#utility.yul\":7578:7589   */\n      dup5\n      swap1\n      shl\n        /* \"#utility.yul\":7533:7590   */\n      or\n        /* \"#utility.yul\":8803:8884   */\n      dup5\n      sstore\n        /* \"#utility.yul\":7964:8894   */\n      jump(tag_224)\n        /* \"#utility.yul\":7994:8643   */\n    tag_232:\n        /* \"#utility.yul\":6854:6855   */\n      0x00\n        /* \"#utility.yul\":6847:6861   */\n      dup5\n      dup2\n      mstore\n        /* \"#utility.yul\":6891:6895   */\n      0x20\n        /* \"#utility.yul\":6878:6896   */\n      dup2\n      keccak256\n      not(0x1f)\n        /* \"#utility.yul\":8030:8050   */\n      dup6\n      and\n      swap2\n        /* \"#utility.yul\":8148:8370   */\n    tag_236:\n        /* \"#utility.yul\":8162:8169   */\n      dup3\n        /* \"#utility.yul\":8159:8160   */\n      dup2\n        /* \"#utility.yul\":8156:8170   */\n      lt\n        /* \"#utility.yul\":8148:8370   */\n      iszero\n      tag_238\n      jumpi\n        /* \"#utility.yul\":8244:8263   */\n      dup8\n      dup6\n      add\n        /* \"#utility.yul\":8238:8264   */\n      mload\n        /* \"#utility.yul\":8223:8265   */\n      dup3\n      sstore\n        /* \"#utility.yul\":8351:8355   */\n      0x20\n        /* \"#utility.yul\":8336:8356   */\n      swap5\n      dup6\n      add\n      swap5\n        /* \"#utility.yul\":8304:8305   */\n      0x01\n        /* \"#utility.yul\":8292:8306   */\n      swap1\n      swap3\n      add\n      swap2\n        /* \"#utility.yul\":8178:8190   */\n      add\n        /* \"#utility.yul\":8148:8370   */\n      jump(tag_236)\n    tag_238:\n        /* \"#utility.yul\":8152:8155   */\n      pop\n        /* \"#utility.yul\":8398:8404   */\n      dup5\n        /* \"#utility.yul\":8389:8396   */\n      dup3\n        /* \"#utility.yul\":8386:8405   */\n      lt\n        /* \"#utility.yul\":8383:8584   */\n      iszero\n      tag_239\n      jumpi\n        /* \"#utility.yul\":8459:8478   */\n      dup7\n      dup5\n      add\n        /* \"#utility.yul\":8453:8479   */\n      mload\n      not(0x00)\n        /* \"#utility.yul\":8542:8543   */\n      0x03\n        /* \"#utility.yul\":8538:8552   */\n      dup8\n      swap1\n      shl\n        /* \"#utility.yul\":8554:8557   */\n      0xf8\n        /* \"#utility.yul\":8534:8558   */\n      and\n        /* \"#utility.yul\":8530:8567   */\n      shr\n        /* \"#utility.yul\":8526:8568   */\n      not\n        /* \"#utility.yul\":8511:8569   */\n      and\n        /* \"#utility.yul\":8496:8570   */\n      dup2\n      sstore\n        /* \"#utility.yul\":8383:8584   */\n    tag_239:\n      pop\n      pop\n      pop\n      pop\n        /* \"#utility.yul\":8630:8631   */\n      0x01\n        /* \"#utility.yul\":8614:8628   */\n      swap1\n      dup2\n      shl\n        /* \"#utility.yul\":8610:8632   */\n      add\n        /* \"#utility.yul\":8597:8633   */\n      swap1\n      sstore\n      pop\n        /* \"#utility.yul\":7601:8900   */\n      jump\t// out\n        /* \"#utility.yul\":9651:9776   */\n    tag_142:\n        /* \"#utility.yul\":9716:9725   */\n      dup1\n      dup3\n      add\n        /* \"#utility.yul\":9737:9747   */\n      dup1\n      dup3\n      gt\n        /* \"#utility.yul\":9734:9770   */\n      iszero\n      tag_212\n      jumpi\n        /* \"#utility.yul\":9750:9768   */\n      tag_212\n      tag_166\n      jump\t// in\n\n    auxdata: 0xa2646970667358221220ecc1ccb657a7f62546a9d1e88013d12ac1cd9285f3b1a14d6def4b262b09430d64736f6c634300081a0033\n}\n",
				"bytecode": {
					"linkReferences": {},
					"object": "60806040526601599ba503c000600355670de0b6b3a7640000600455348015610026575f80fd5b50604051610e5f380380610e5f83398101604081905261004591610105565b5f80546001600160a01b0319166001600160a01b0384811691909117909155811661008957604051631e4fbdf760e01b81525f600482015260240160405180910390fd5b61009281610099565b5050610136565b600180546001600160a01b038381166001600160a01b0319831681179093556040519116919082907f8be0079c531659141344cd1fd0a4f28419497f9722a3daafe3b4186f6b6457e0905f90a35050565b80516001600160a01b0381168114610100575f80fd5b919050565b5f8060408385031215610116575f80fd5b61011f836100ea565b915061012d602084016100ea565b90509250929050565b610d1c806101435f395ff3fe608060405260043610610099575f3560e01c8063715018a611610062578063715018a61461014b5780638da5cb5b1461015f578063a87430ba14610190578063d0e30db0146101be578063f2fde38b146101c6578063fc0c546a146101e5575f80fd5b8062f714ce1461009d5780630e54b872146100b2578063200d2ed2146100d15780634bff50091461010057806369c212f61461012c575b5f80fd5b6100b06100ab3660046108ff565b610203565b005b3480156100bd575f80fd5b506100b06100cc3660046109cc565b610388565b3480156100dc575f80fd5b506005546100ea9060ff1681565b6040516100f79190610a10565b60405180910390f35b34801561010b575f80fd5b5061011f61011a366004610a36565b61046a565b6040516100f79190610a9e565b348015610137575f80fd5b5061011f610146366004610ae1565b6105c5565b348015610156575f80fd5b506100b061065b565b34801561016a575f80fd5b506001546001600160a01b03165b6040516001600160a01b0390911681526020016100f7565b34801561019b575f80fd5b506101af6101aa366004610ae1565b61066e565b6040516100f793929190610b03565b6100b0610720565b3480156101d1575f80fd5b506100b06101e0366004610ae1565b610833565b3480156101f0575f80fd5b505f54610178906001600160a01b031681565b33803b1561022c5760405162461bcd60e51b815260040161022390610b36565b60405180910390fd5b6001600160a01b0382165f908152600260208190526040909120015483111561028e5760405162461bcd60e51b8152602060048201526014602482015273496e73756666696369656e742062616c616e636560601b6044820152606401610223565b6004548311156102e05760405162461bcd60e51b815260206004820152601f60248201527f5769746864726177616c20616d6f756e742065786365656473206c696d6974006044820152606401610223565b6001600160a01b0382165f908152600260208190526040822001805485929061030a908490610b81565b90915550506040516001600160a01b0383169084156108fc029085905f818181858888f19350505050158015610342573d5f803e3d5ffd5b5060405183815233906001600160a01b038416907f46b6c03a6ed8406eda01806ab6d408e07129555fda5275b7f67e3a255f2d7a0d9060200160405180910390a3505050565b6001600160a01b0381165f90815260026020526040902060010180546103ad90610b9a565b1590506103fc5760405162461bcd60e51b815260206004820152601860248201527f5573657220616c726561647920726567697374657265642100000000000000006044820152606401610223565b604080516060810182526001600160a01b0383811680835260208084018781525f8587018190529283526002909152939020825181546001600160a01b0319169216919091178155915190919060018201906104589082610c18565b50604082015181600201559050505050565b61049560405180606001604052805f6001600160a01b03168152602001606081526020015f81525090565b335f90815260026020526040902060010180548391906104b490610b9a565b90505f036104f65760405162461bcd60e51b815260206004820152600f60248201526e55736572206e6f7420666f756e642160881b6044820152606401610223565b335f9081526002602090815260409182902082516060810190935280546001600160a01b03168352600181018054919284019161053290610b9a565b80601f016020809104026020016040519081016040528092919081815260200182805461055e90610b9a565b80156105a95780601f10610580576101008083540402835291602001916105a9565b820191905f5260205f20905b81548152906001019060200180831161058c57829003601f168201915b5050505050815260200160028201548152505091505b50919050565b6105f060405180606001604052805f6001600160a01b03168152602001606081526020015f81525090565b816001600160a01b0381163b156106195760405162461bcd60e51b815260040161022390610b36565b6001600160a01b038084165f90815260026020908152604091829020825160608101909352805490931682526001830180549293929184019161053290610b9a565b61066361086d565b61066c5f61089a565b565b60026020525f9081526040902080546001820180546001600160a01b03909216929161069990610b9a565b80601f01602080910402602001604051908101604052809291908181526020018280546106c590610b9a565b80156107105780601f106106e757610100808354040283529160200191610710565b820191905f5260205f20905b8154815290600101906020018083116106f357829003601f168201915b5050505050908060020154905083565b33803b156107405760405162461bcd60e51b815260040161022390610b36565b6003543410156107cb576005805460ff191660011790556040805160208082526021908201527f4d696e696d756d206465706f73697420616d6f756e7420697320302e3030303391810191909152600760fb1b606082015233907fa8b9f7931ac94cf9850accd175cf4543fac81ae93865d1670e14213829f67de5906080015b60405180910390a250565b335f90815260026020819052604082200180543492906107ec908490610cd3565b90915550506005805460ff1916600217905560405134815233907fb3ef81558ed1a50072a492984535a009da8b129c749500b387f1e5f4886bdde5906020016107c0565b50565b61083b61086d565b6001600160a01b03811661086457604051631e4fbdf760e01b81525f6004820152602401610223565b6108308161089a565b6001546001600160a01b0316331461066c5760405163118cdaa760e01b8152336004820152602401610223565b600180546001600160a01b038381166001600160a01b0319831681179093556040519116919082907f8be0079c531659141344cd1fd0a4f28419497f9722a3daafe3b4186f6b6457e0905f90a35050565b6001600160a01b0381168114610830575f80fd5b5f8060408385031215610910575f80fd5b823591506020830135610922816108eb565b809150509250929050565b634e487b7160e01b5f52604160045260245ffd5b5f82601f830112610950575f80fd5b813567ffffffffffffffff81111561096a5761096a61092d565b604051601f8201601f19908116603f0116810167ffffffffffffffff811182821017156109995761099961092d565b6040528181528382016020018510156109b0575f80fd5b816020850160208301375f918101602001919091529392505050565b5f80604083850312156109dd575f80fd5b823567ffffffffffffffff8111156109f3575f80fd5b6109ff85828601610941565b9250506020830135610922816108eb565b6020810160038310610a3057634e487b7160e01b5f52602160045260245ffd5b91905290565b5f60208284031215610a46575f80fd5b813567ffffffffffffffff811115610a5c575f80fd5b610a6884828501610941565b949350505050565b5f81518084528060208401602086015e5f602082860101526020601f19601f83011685010191505092915050565b602080825282516001600160a01b031682820152820151606060408301525f90610acb6080840182610a70565b9050604084015160608401528091505092915050565b5f60208284031215610af1575f80fd5b8135610afc816108eb565b9392505050565b6001600160a01b03841681526060602082018190525f90610b2690830185610a70565b9050826040830152949350505050565b6020808252601b908201527f54686973206973206120636f6e74726163742061646472657373210000000000604082015260600190565b634e487b7160e01b5f52601160045260245ffd5b81810381811115610b9457610b94610b6d565b92915050565b600181811c90821680610bae57607f821691505b6020821081036105bf57634e487b7160e01b5f52602260045260245ffd5b601f821115610c1357805f5260205f20601f840160051c81016020851015610bf15750805b601f840160051c820191505b81811015610c10575f8155600101610bfd565b50505b505050565b815167ffffffffffffffff811115610c3257610c3261092d565b610c4681610c408454610b9a565b84610bcc565b6020601f821160018114610c78575f8315610c615750848201515b5f19600385901b1c1916600184901b178455610c10565b5f84815260208120601f198516915b82811015610ca75787850151825560209485019460019092019101610c87565b5084821015610cc457868401515f19600387901b60f8161c191681555b50505050600190811b01905550565b80820180821115610b9457610b94610b6d56fea2646970667358221220ecc1ccb657a7f62546a9d1e88013d12ac1cd9285f3b1a14d6def4b262b09430d64736f6c634300081a0033",
					"opcodes": "PUSH1 0x80 PUSH1 0x40 MSTORE PUSH7 0x1599BA503C000 PUSH1 0x3 SSTORE PUSH8 0xDE0B6B3A7640000 PUSH1 0x4 SSTORE CALLVALUE DUP1 ISZERO PUSH2 0x26 JUMPI PUSH0 DUP1 REVERT JUMPDEST POP PUSH1 0x40 MLOAD PUSH2 0xE5F CODESIZE SUB DUP1 PUSH2 0xE5F DUP4 CODECOPY DUP2 ADD PUSH1 0x40 DUP2 SWAP1 MSTORE PUSH2 0x45 SWAP2 PUSH2 0x105 JUMP JUMPDEST PUSH0 DUP1 SLOAD PUSH1 0x1 PUSH1 0x1 PUSH1 0xA0 SHL SUB NOT AND PUSH1 0x1 PUSH1 0x1 PUSH1 0xA0 SHL SUB DUP5 DUP2 AND SWAP2 SWAP1 SWAP2 OR SWAP1 SWAP2 SSTORE DUP2 AND PUSH2 0x89 JUMPI PUSH1 0x40 MLOAD PUSH4 0x1E4FBDF7 PUSH1 0xE0 SHL DUP2 MSTORE PUSH0 PUSH1 0x4 DUP3 ADD MSTORE PUSH1 0x24 ADD PUSH1 0x40 MLOAD DUP1 SWAP2 SUB SWAP1 REVERT JUMPDEST PUSH2 0x92 DUP2 PUSH2 0x99 JUMP JUMPDEST POP POP PUSH2 0x136 JUMP JUMPDEST PUSH1 0x1 DUP1 SLOAD PUSH1 0x1 PUSH1 0x1 PUSH1 0xA0 SHL SUB DUP4 DUP2 AND PUSH1 0x1 PUSH1 0x1 PUSH1 0xA0 SHL SUB NOT DUP4 AND DUP2 OR SWAP1 SWAP4 SSTORE PUSH1 0x40 MLOAD SWAP2 AND SWAP2 SWAP1 DUP3 SWAP1 PUSH32 0x8BE0079C531659141344CD1FD0A4F28419497F9722A3DAAFE3B4186F6B6457E0 SWAP1 PUSH0 SWAP1 LOG3 POP POP JUMP JUMPDEST DUP1 MLOAD PUSH1 0x1 PUSH1 0x1 PUSH1 0xA0 SHL SUB DUP2 AND DUP2 EQ PUSH2 0x100 JUMPI PUSH0 DUP1 REVERT JUMPDEST SWAP2 SWAP1 POP JUMP JUMPDEST PUSH0 DUP1 PUSH1 0x40 DUP4 DUP6 SUB SLT ISZERO PUSH2 0x116 JUMPI PUSH0 DUP1 REVERT JUMPDEST PUSH2 0x11F DUP4 PUSH2 0xEA JUMP JUMPDEST SWAP2 POP PUSH2 0x12D PUSH1 0x20 DUP5 ADD PUSH2 0xEA JUMP JUMPDEST SWAP1 POP SWAP3 POP SWAP3 SWAP1 POP JUMP JUMPDEST PUSH2 0xD1C DUP1 PUSH2 0x143 PUSH0 CODECOPY PUSH0 RETURN INVALID PUSH1 0x80 PUSH1 0x40 MSTORE PUSH1 0x4 CALLDATASIZE LT PUSH2 0x99 JUMPI PUSH0 CALLDATALOAD PUSH1 0xE0 SHR DUP1 PUSH4 0x715018A6 GT PUSH2 0x62 JUMPI DUP1 PUSH4 0x715018A6 EQ PUSH2 0x14B JUMPI DUP1 PUSH4 0x8DA5CB5B EQ PUSH2 0x15F JUMPI DUP1 PUSH4 0xA87430BA EQ PUSH2 0x190 JUMPI DUP1 PUSH4 0xD0E30DB0 EQ PUSH2 0x1BE JUMPI DUP1 PUSH4 0xF2FDE38B EQ PUSH2 0x1C6 JUMPI DUP1 PUSH4 0xFC0C546A EQ PUSH2 0x1E5 JUMPI PUSH0 DUP1 REVERT JUMPDEST DUP1 PUSH3 0xF714CE EQ PUSH2 0x9D JUMPI DUP1 PUSH4 0xE54B872 EQ PUSH2 0xB2 JUMPI DUP1 PUSH4 0x200D2ED2 EQ PUSH2 0xD1 JUMPI DUP1 PUSH4 0x4BFF5009 EQ PUSH2 0x100 JUMPI DUP1 PUSH4 0x69C212F6 EQ PUSH2 0x12C JUMPI JUMPDEST PUSH0 DUP1 REVERT JUMPDEST PUSH2 0xB0 PUSH2 0xAB CALLDATASIZE PUSH1 0x4 PUSH2 0x8FF JUMP JUMPDEST PUSH2 0x203 JUMP JUMPDEST STOP JUMPDEST CALLVALUE DUP1 ISZERO PUSH2 0xBD JUMPI PUSH0 DUP1 REVERT JUMPDEST POP PUSH2 0xB0 PUSH2 0xCC CALLDATASIZE PUSH1 0x4 PUSH2 0x9CC JUMP JUMPDEST PUSH2 0x388 JUMP JUMPDEST CALLVALUE DUP1 ISZERO PUSH2 0xDC JUMPI PUSH0 DUP1 REVERT JUMPDEST POP PUSH1 0x5 SLOAD PUSH2 0xEA SWAP1 PUSH1 0xFF AND DUP2 JUMP JUMPDEST PUSH1 0x40 MLOAD PUSH2 0xF7 SWAP2 SWAP1 PUSH2 0xA10 JUMP JUMPDEST PUSH1 0x40 MLOAD DUP1 SWAP2 SUB SWAP1 RETURN JUMPDEST CALLVALUE DUP1 ISZERO PUSH2 0x10B JUMPI PUSH0 DUP1 REVERT JUMPDEST POP PUSH2 0x11F PUSH2 0x11A CALLDATASIZE PUSH1 0x4 PUSH2 0xA36 JUMP JUMPDEST PUSH2 0x46A JUMP JUMPDEST PUSH1 0x40 MLOAD PUSH2 0xF7 SWAP2 SWAP1 PUSH2 0xA9E JUMP JUMPDEST CALLVALUE DUP1 ISZERO PUSH2 0x137 JUMPI PUSH0 DUP1 REVERT JUMPDEST POP PUSH2 0x11F PUSH2 0x146 CALLDATASIZE PUSH1 0x4 PUSH2 0xAE1 JUMP JUMPDEST PUSH2 0x5C5 JUMP JUMPDEST CALLVALUE DUP1 ISZERO PUSH2 0x156 JUMPI PUSH0 DUP1 REVERT JUMPDEST POP PUSH2 0xB0 PUSH2 0x65B JUMP JUMPDEST CALLVALUE DUP1 ISZERO PUSH2 0x16A JUMPI PUSH0 DUP1 REVERT JUMPDEST POP PUSH1 0x1 SLOAD PUSH1 0x1 PUSH1 0x1 PUSH1 0xA0 SHL SUB AND JUMPDEST PUSH1 0x40 MLOAD PUSH1 0x1 PUSH1 0x1 PUSH1 0xA0 SHL SUB SWAP1 SWAP2 AND DUP2 MSTORE PUSH1 0x20 ADD PUSH2 0xF7 JUMP JUMPDEST CALLVALUE DUP1 ISZERO PUSH2 0x19B JUMPI PUSH0 DUP1 REVERT JUMPDEST POP PUSH2 0x1AF PUSH2 0x1AA CALLDATASIZE PUSH1 0x4 PUSH2 0xAE1 JUMP JUMPDEST PUSH2 0x66E JUMP JUMPDEST PUSH1 0x40 MLOAD PUSH2 0xF7 SWAP4 SWAP3 SWAP2 SWAP1 PUSH2 0xB03 JUMP JUMPDEST PUSH2 0xB0 PUSH2 0x720 JUMP JUMPDEST CALLVALUE DUP1 ISZERO PUSH2 0x1D1 JUMPI PUSH0 DUP1 REVERT JUMPDEST POP PUSH2 0xB0 PUSH2 0x1E0 CALLDATASIZE PUSH1 0x4 PUSH2 0xAE1 JUMP JUMPDEST PUSH2 0x833 JUMP JUMPDEST CALLVALUE DUP1 ISZERO PUSH2 0x1F0 JUMPI PUSH0 DUP1 REVERT JUMPDEST POP PUSH0 SLOAD PUSH2 0x178 SWAP1 PUSH1 0x1 PUSH1 0x1 PUSH1 0xA0 SHL SUB AND DUP2 JUMP JUMPDEST CALLER DUP1 EXTCODESIZE ISZERO PUSH2 0x22C JUMPI PUSH1 0x40 MLOAD PUSH3 0x461BCD PUSH1 0xE5 SHL DUP2 MSTORE PUSH1 0x4 ADD PUSH2 0x223 SWAP1 PUSH2 0xB36 JUMP JUMPDEST PUSH1 0x40 MLOAD DUP1 SWAP2 SUB SWAP1 REVERT JUMPDEST PUSH1 0x1 PUSH1 0x1 PUSH1 0xA0 SHL SUB DUP3 AND PUSH0 SWAP1 DUP2 MSTORE PUSH1 0x2 PUSH1 0x20 DUP2 SWAP1 MSTORE PUSH1 0x40 SWAP1 SWAP2 KECCAK256 ADD SLOAD DUP4 GT ISZERO PUSH2 0x28E JUMPI PUSH1 0x40 MLOAD PUSH3 0x461BCD PUSH1 0xE5 SHL DUP2 MSTORE PUSH1 0x20 PUSH1 0x4 DUP3 ADD MSTORE PUSH1 0x14 PUSH1 0x24 DUP3 ADD MSTORE PUSH20 0x496E73756666696369656E742062616C616E6365 PUSH1 0x60 SHL PUSH1 0x44 DUP3 ADD MSTORE PUSH1 0x64 ADD PUSH2 0x223 JUMP JUMPDEST PUSH1 0x4 SLOAD DUP4 GT ISZERO PUSH2 0x2E0 JUMPI PUSH1 0x40 MLOAD PUSH3 0x461BCD PUSH1 0xE5 SHL DUP2 MSTORE PUSH1 0x20 PUSH1 0x4 DUP3 ADD MSTORE PUSH1 0x1F PUSH1 0x24 DUP3 ADD MSTORE PUSH32 0x5769746864726177616C20616D6F756E742065786365656473206C696D697400 PUSH1 0x44 DUP3 ADD MSTORE PUSH1 0x64 ADD PUSH2 0x223 JUMP JUMPDEST PUSH1 0x1 PUSH1 0x1 PUSH1 0xA0 SHL SUB DUP3 AND PUSH0 SWAP1 DUP2 MSTORE PUSH1 0x2 PUSH1 0x20 DUP2 SWAP1 MSTORE PUSH1 0x40 DUP3 KECCAK256 ADD DUP1 SLOAD DUP6 SWAP3 SWAP1 PUSH2 0x30A SWAP1 DUP5 SWAP1 PUSH2 0xB81 JUMP JUMPDEST SWAP1 SWAP2 SSTORE POP POP PUSH1 0x40 MLOAD PUSH1 0x1 PUSH1 0x1 PUSH1 0xA0 SHL SUB DUP4 AND SWAP1 DUP5 ISZERO PUSH2 0x8FC MUL SWAP1 DUP6 SWAP1 PUSH0 DUP2 DUP2 DUP2 DUP6 DUP9 DUP9 CALL SWAP4 POP POP POP POP ISZERO DUP1 ISZERO PUSH2 0x342 JUMPI RETURNDATASIZE PUSH0 DUP1 RETURNDATACOPY RETURNDATASIZE PUSH0 REVERT JUMPDEST POP PUSH1 0x40 MLOAD DUP4 DUP2 MSTORE CALLER SWAP1 PUSH1 0x1 PUSH1 0x1 PUSH1 0xA0 SHL SUB DUP5 AND SWAP1 PUSH32 0x46B6C03A6ED8406EDA01806AB6D408E07129555FDA5275B7F67E3A255F2D7A0D SWAP1 PUSH1 0x20 ADD PUSH1 0x40 MLOAD DUP1 SWAP2 SUB SWAP1 LOG3 POP POP POP JUMP JUMPDEST PUSH1 0x1 PUSH1 0x1 PUSH1 0xA0 SHL SUB DUP2 AND PUSH0 SWAP1 DUP2 MSTORE PUSH1 0x2 PUSH1 0x20 MSTORE PUSH1 0x40 SWAP1 KECCAK256 PUSH1 0x1 ADD DUP1 SLOAD PUSH2 0x3AD SWAP1 PUSH2 0xB9A JUMP JUMPDEST ISZERO SWAP1 POP PUSH2 0x3FC JUMPI PUSH1 0x40 MLOAD PUSH3 0x461BCD PUSH1 0xE5 SHL DUP2 MSTORE PUSH1 0x20 PUSH1 0x4 DUP3 ADD MSTORE PUSH1 0x18 PUSH1 0x24 DUP3 ADD MSTORE PUSH32 0x5573657220616C72656164792072656769737465726564210000000000000000 PUSH1 0x44 DUP3 ADD MSTORE PUSH1 0x64 ADD PUSH2 0x223 JUMP JUMPDEST PUSH1 0x40 DUP1 MLOAD PUSH1 0x60 DUP2 ADD DUP3 MSTORE PUSH1 0x1 PUSH1 0x1 PUSH1 0xA0 SHL SUB DUP4 DUP2 AND DUP1 DUP4 MSTORE PUSH1 0x20 DUP1 DUP5 ADD DUP8 DUP2 MSTORE PUSH0 DUP6 DUP8 ADD DUP2 SWAP1 MSTORE SWAP3 DUP4 MSTORE PUSH1 0x2 SWAP1 SWAP2 MSTORE SWAP4 SWAP1 KECCAK256 DUP3 MLOAD DUP2 SLOAD PUSH1 0x1 PUSH1 0x1 PUSH1 0xA0 SHL SUB NOT AND SWAP3 AND SWAP2 SWAP1 SWAP2 OR DUP2 SSTORE SWAP2 MLOAD SWAP1 SWAP2 SWAP1 PUSH1 0x1 DUP3 ADD SWAP1 PUSH2 0x458 SWAP1 DUP3 PUSH2 0xC18 JUMP JUMPDEST POP PUSH1 0x40 DUP3 ADD MLOAD DUP2 PUSH1 0x2 ADD SSTORE SWAP1 POP POP POP POP JUMP JUMPDEST PUSH2 0x495 PUSH1 0x40 MLOAD DUP1 PUSH1 0x60 ADD PUSH1 0x40 MSTORE DUP1 PUSH0 PUSH1 0x1 PUSH1 0x1 PUSH1 0xA0 SHL SUB AND DUP2 MSTORE PUSH1 0x20 ADD PUSH1 0x60 DUP2 MSTORE PUSH1 0x20 ADD PUSH0 DUP2 MSTORE POP SWAP1 JUMP JUMPDEST CALLER PUSH0 SWAP1 DUP2 MSTORE PUSH1 0x2 PUSH1 0x20 MSTORE PUSH1 0x40 SWAP1 KECCAK256 PUSH1 0x1 ADD DUP1 SLOAD DUP4 SWAP2 SWAP1 PUSH2 0x4B4 SWAP1 PUSH2 0xB9A JUMP JUMPDEST SWAP1 POP PUSH0 SUB PUSH2 0x4F6 JUMPI PUSH1 0x40 MLOAD PUSH3 0x461BCD PUSH1 0xE5 SHL DUP2 MSTORE PUSH1 0x20 PUSH1 0x4 DUP3 ADD MSTORE PUSH1 0xF PUSH1 0x24 DUP3 ADD MSTORE PUSH15 0x55736572206E6F7420666F756E6421 PUSH1 0x88 SHL PUSH1 0x44 DUP3 ADD MSTORE PUSH1 0x64 ADD PUSH2 0x223 JUMP JUMPDEST CALLER PUSH0 SWAP1 DUP2 MSTORE PUSH1 0x2 PUSH1 0x20 SWAP1 DUP2 MSTORE PUSH1 0x40 SWAP2 DUP3 SWAP1 KECCAK256 DUP3 MLOAD PUSH1 0x60 DUP2 ADD SWAP1 SWAP4 MSTORE DUP1 SLOAD PUSH1 0x1 PUSH1 0x1 PUSH1 0xA0 SHL SUB AND DUP4 MSTORE PUSH1 0x1 DUP2 ADD DUP1 SLOAD SWAP2 SWAP3 DUP5 ADD SWAP2 PUSH2 0x532 SWAP1 PUSH2 0xB9A JUMP JUMPDEST DUP1 PUSH1 0x1F ADD PUSH1 0x20 DUP1 SWAP2 DIV MUL PUSH1 0x20 ADD PUSH1 0x40 MLOAD SWAP1 DUP2 ADD PUSH1 0x40 MSTORE DUP1 SWAP3 SWAP2 SWAP1 DUP2 DUP2 MSTORE PUSH1 0x20 ADD DUP3 DUP1 SLOAD PUSH2 0x55E SWAP1 PUSH2 0xB9A JUMP JUMPDEST DUP1 ISZERO PUSH2 0x5A9 JUMPI DUP1 PUSH1 0x1F LT PUSH2 0x580 JUMPI PUSH2 0x100 DUP1 DUP4 SLOAD DIV MUL DUP4 MSTORE SWAP2 PUSH1 0x20 ADD SWAP2 PUSH2 0x5A9 JUMP JUMPDEST DUP3 ADD SWAP2 SWAP1 PUSH0 MSTORE PUSH1 0x20 PUSH0 KECCAK256 SWAP1 JUMPDEST DUP2 SLOAD DUP2 MSTORE SWAP1 PUSH1 0x1 ADD SWAP1 PUSH1 0x20 ADD DUP1 DUP4 GT PUSH2 0x58C JUMPI DUP3 SWAP1 SUB PUSH1 0x1F AND DUP3 ADD SWAP2 JUMPDEST POP POP POP POP POP DUP2 MSTORE PUSH1 0x20 ADD PUSH1 0x2 DUP3 ADD SLOAD DUP2 MSTORE POP POP SWAP2 POP JUMPDEST POP SWAP2 SWAP1 POP JUMP JUMPDEST PUSH2 0x5F0 PUSH1 0x40 MLOAD DUP1 PUSH1 0x60 ADD PUSH1 0x40 MSTORE DUP1 PUSH0 PUSH1 0x1 PUSH1 0x1 PUSH1 0xA0 SHL SUB AND DUP2 MSTORE PUSH1 0x20 ADD PUSH1 0x60 DUP2 MSTORE PUSH1 0x20 ADD PUSH0 DUP2 MSTORE POP SWAP1 JUMP JUMPDEST DUP2 PUSH1 0x1 PUSH1 0x1 PUSH1 0xA0 SHL SUB DUP2 AND EXTCODESIZE ISZERO PUSH2 0x619 JUMPI PUSH1 0x40 MLOAD PUSH3 0x461BCD PUSH1 0xE5 SHL DUP2 MSTORE PUSH1 0x4 ADD PUSH2 0x223 SWAP1 PUSH2 0xB36 JUMP JUMPDEST PUSH1 0x1 PUSH1 0x1 PUSH1 0xA0 SHL SUB DUP1 DUP5 AND PUSH0 SWAP1 DUP2 MSTORE PUSH1 0x2 PUSH1 0x20 SWAP1 DUP2 MSTORE PUSH1 0x40 SWAP2 DUP3 SWAP1 KECCAK256 DUP3 MLOAD PUSH1 0x60 DUP2 ADD SWAP1 SWAP4 MSTORE DUP1 SLOAD SWAP1 SWAP4 AND DUP3 MSTORE PUSH1 0x1 DUP4 ADD DUP1 SLOAD SWAP3 SWAP4 SWAP3 SWAP2 DUP5 ADD SWAP2 PUSH2 0x532 SWAP1 PUSH2 0xB9A JUMP JUMPDEST PUSH2 0x663 PUSH2 0x86D JUMP JUMPDEST PUSH2 0x66C PUSH0 PUSH2 0x89A JUMP JUMPDEST JUMP JUMPDEST PUSH1 0x2 PUSH1 0x20 MSTORE PUSH0 SWAP1 DUP2 MSTORE PUSH1 0x40 SWAP1 KECCAK256 DUP1 SLOAD PUSH1 0x1 DUP3 ADD DUP1 SLOAD PUSH1 0x1 PUSH1 0x1 PUSH1 0xA0 SHL SUB SWAP1 SWAP3 AND SWAP3 SWAP2 PUSH2 0x699 SWAP1 PUSH2 0xB9A JUMP JUMPDEST DUP1 PUSH1 0x1F ADD PUSH1 0x20 DUP1 SWAP2 DIV MUL PUSH1 0x20 ADD PUSH1 0x40 MLOAD SWAP1 DUP2 ADD PUSH1 0x40 MSTORE DUP1 SWAP3 SWAP2 SWAP1 DUP2 DUP2 MSTORE PUSH1 0x20 ADD DUP3 DUP1 SLOAD PUSH2 0x6C5 SWAP1 PUSH2 0xB9A JUMP JUMPDEST DUP1 ISZERO PUSH2 0x710 JUMPI DUP1 PUSH1 0x1F LT PUSH2 0x6E7 JUMPI PUSH2 0x100 DUP1 DUP4 SLOAD DIV MUL DUP4 MSTORE SWAP2 PUSH1 0x20 ADD SWAP2 PUSH2 0x710 JUMP JUMPDEST DUP3 ADD SWAP2 SWAP1 PUSH0 MSTORE PUSH1 0x20 PUSH0 KECCAK256 SWAP1 JUMPDEST DUP2 SLOAD DUP2 MSTORE SWAP1 PUSH1 0x1 ADD SWAP1 PUSH1 0x20 ADD DUP1 DUP4 GT PUSH2 0x6F3 JUMPI DUP3 SWAP1 SUB PUSH1 0x1F AND DUP3 ADD SWAP2 JUMPDEST POP POP POP POP POP SWAP1 DUP1 PUSH1 0x2 ADD SLOAD SWAP1 POP DUP4 JUMP JUMPDEST CALLER DUP1 EXTCODESIZE ISZERO PUSH2 0x740 JUMPI PUSH1 0x40 MLOAD PUSH3 0x461BCD PUSH1 0xE5 SHL DUP2 MSTORE PUSH1 0x4 ADD PUSH2 0x223 SWAP1 PUSH2 0xB36 JUMP JUMPDEST PUSH1 0x3 SLOAD CALLVALUE LT ISZERO PUSH2 0x7CB JUMPI PUSH1 0x5 DUP1 SLOAD PUSH1 0xFF NOT AND PUSH1 0x1 OR SWAP1 SSTORE PUSH1 0x40 DUP1 MLOAD PUSH1 0x20 DUP1 DUP3 MSTORE PUSH1 0x21 SWAP1 DUP3 ADD MSTORE PUSH32 0x4D696E696D756D206465706F73697420616D6F756E7420697320302E30303033 SWAP2 DUP2 ADD SWAP2 SWAP1 SWAP2 MSTORE PUSH1 0x7 PUSH1 0xFB SHL PUSH1 0x60 DUP3 ADD MSTORE CALLER SWAP1 PUSH32 0xA8B9F7931AC94CF9850ACCD175CF4543FAC81AE93865D1670E14213829F67DE5 SWAP1 PUSH1 0x80 ADD JUMPDEST PUSH1 0x40 MLOAD DUP1 SWAP2 SUB SWAP1 LOG2 POP JUMP JUMPDEST CALLER PUSH0 SWAP1 DUP2 MSTORE PUSH1 0x2 PUSH1 0x20 DUP2 SWAP1 MSTORE PUSH1 0x40 DUP3 KECCAK256 ADD DUP1 SLOAD CALLVALUE SWAP3 SWAP1 PUSH2 0x7EC SWAP1 DUP5 SWAP1 PUSH2 0xCD3 JUMP JUMPDEST SWAP1 SWAP2 SSTORE POP POP PUSH1 0x5 DUP1 SLOAD PUSH1 0xFF NOT AND PUSH1 0x2 OR SWAP1 SSTORE PUSH1 0x40 MLOAD CALLVALUE DUP2 MSTORE CALLER SWAP1 PUSH32 0xB3EF81558ED1A50072A492984535A009DA8B129C749500B387F1E5F4886BDDE5 SWAP1 PUSH1 0x20 ADD PUSH2 0x7C0 JUMP JUMPDEST POP JUMP JUMPDEST PUSH2 0x83B PUSH2 0x86D JUMP JUMPDEST PUSH1 0x1 PUSH1 0x1 PUSH1 0xA0 SHL SUB DUP2 AND PUSH2 0x864 JUMPI PUSH1 0x40 MLOAD PUSH4 0x1E4FBDF7 PUSH1 0xE0 SHL DUP2 MSTORE PUSH0 PUSH1 0x4 DUP3 ADD MSTORE PUSH1 0x24 ADD PUSH2 0x223 JUMP JUMPDEST PUSH2 0x830 DUP2 PUSH2 0x89A JUMP JUMPDEST PUSH1 0x1 SLOAD PUSH1 0x1 PUSH1 0x1 PUSH1 0xA0 SHL SUB AND CALLER EQ PUSH2 0x66C JUMPI PUSH1 0x40 MLOAD PUSH4 0x118CDAA7 PUSH1 0xE0 SHL DUP2 MSTORE CALLER PUSH1 0x4 DUP3 ADD MSTORE PUSH1 0x24 ADD PUSH2 0x223 JUMP JUMPDEST PUSH1 0x1 DUP1 SLOAD PUSH1 0x1 PUSH1 0x1 PUSH1 0xA0 SHL SUB DUP4 DUP2 AND PUSH1 0x1 PUSH1 0x1 PUSH1 0xA0 SHL SUB NOT DUP4 AND DUP2 OR SWAP1 SWAP4 SSTORE PUSH1 0x40 MLOAD SWAP2 AND SWAP2 SWAP1 DUP3 SWAP1 PUSH32 0x8BE0079C531659141344CD1FD0A4F28419497F9722A3DAAFE3B4186F6B6457E0 SWAP1 PUSH0 SWAP1 LOG3 POP POP JUMP JUMPDEST PUSH1 0x1 PUSH1 0x1 PUSH1 0xA0 SHL SUB DUP2 AND DUP2 EQ PUSH2 0x830 JUMPI PUSH0 DUP1 REVERT JUMPDEST PUSH0 DUP1 PUSH1 0x40 DUP4 DUP6 SUB SLT ISZERO PUSH2 0x910 JUMPI PUSH0 DUP1 REVERT JUMPDEST DUP3 CALLDATALOAD SWAP2 POP PUSH1 0x20 DUP4 ADD CALLDATALOAD PUSH2 0x922 DUP2 PUSH2 0x8EB JUMP JUMPDEST DUP1 SWAP2 POP POP SWAP3 POP SWAP3 SWAP1 POP JUMP JUMPDEST PUSH4 0x4E487B71 PUSH1 0xE0 SHL PUSH0 MSTORE PUSH1 0x41 PUSH1 0x4 MSTORE PUSH1 0x24 PUSH0 REVERT JUMPDEST PUSH0 DUP3 PUSH1 0x1F DUP4 ADD SLT PUSH2 0x950 JUMPI PUSH0 DUP1 REVERT JUMPDEST DUP2 CALLDATALOAD PUSH8 0xFFFFFFFFFFFFFFFF DUP2 GT ISZERO PUSH2 0x96A JUMPI PUSH2 0x96A PUSH2 0x92D JUMP JUMPDEST PUSH1 0x40 MLOAD PUSH1 0x1F DUP3 ADD PUSH1 0x1F NOT SWAP1 DUP2 AND PUSH1 0x3F ADD AND DUP2 ADD PUSH8 0xFFFFFFFFFFFFFFFF DUP2 GT DUP3 DUP3 LT OR ISZERO PUSH2 0x999 JUMPI PUSH2 0x999 PUSH2 0x92D JUMP JUMPDEST PUSH1 0x40 MSTORE DUP2 DUP2 MSTORE DUP4 DUP3 ADD PUSH1 0x20 ADD DUP6 LT ISZERO PUSH2 0x9B0 JUMPI PUSH0 DUP1 REVERT JUMPDEST DUP2 PUSH1 0x20 DUP6 ADD PUSH1 0x20 DUP4 ADD CALLDATACOPY PUSH0 SWAP2 DUP2 ADD PUSH1 0x20 ADD SWAP2 SWAP1 SWAP2 MSTORE SWAP4 SWAP3 POP POP POP JUMP JUMPDEST PUSH0 DUP1 PUSH1 0x40 DUP4 DUP6 SUB SLT ISZERO PUSH2 0x9DD JUMPI PUSH0 DUP1 REVERT JUMPDEST DUP3 CALLDATALOAD PUSH8 0xFFFFFFFFFFFFFFFF DUP2 GT ISZERO PUSH2 0x9F3 JUMPI PUSH0 DUP1 REVERT JUMPDEST PUSH2 0x9FF DUP6 DUP3 DUP7 ADD PUSH2 0x941 JUMP JUMPDEST SWAP3 POP POP PUSH1 0x20 DUP4 ADD CALLDATALOAD PUSH2 0x922 DUP2 PUSH2 0x8EB JUMP JUMPDEST PUSH1 0x20 DUP2 ADD PUSH1 0x3 DUP4 LT PUSH2 0xA30 JUMPI PUSH4 0x4E487B71 PUSH1 0xE0 SHL PUSH0 MSTORE PUSH1 0x21 PUSH1 0x4 MSTORE PUSH1 0x24 PUSH0 REVERT JUMPDEST SWAP2 SWAP1 MSTORE SWAP1 JUMP JUMPDEST PUSH0 PUSH1 0x20 DUP3 DUP5 SUB SLT ISZERO PUSH2 0xA46 JUMPI PUSH0 DUP1 REVERT JUMPDEST DUP2 CALLDATALOAD PUSH8 0xFFFFFFFFFFFFFFFF DUP2 GT ISZERO PUSH2 0xA5C JUMPI PUSH0 DUP1 REVERT JUMPDEST PUSH2 0xA68 DUP5 DUP3 DUP6 ADD PUSH2 0x941 JUMP JUMPDEST SWAP5 SWAP4 POP POP POP POP JUMP JUMPDEST PUSH0 DUP2 MLOAD DUP1 DUP5 MSTORE DUP1 PUSH1 0x20 DUP5 ADD PUSH1 0x20 DUP7 ADD MCOPY PUSH0 PUSH1 0x20 DUP3 DUP7 ADD ADD MSTORE PUSH1 0x20 PUSH1 0x1F NOT PUSH1 0x1F DUP4 ADD AND DUP6 ADD ADD SWAP2 POP POP SWAP3 SWAP2 POP POP JUMP JUMPDEST PUSH1 0x20 DUP1 DUP3 MSTORE DUP3 MLOAD PUSH1 0x1 PUSH1 0x1 PUSH1 0xA0 SHL SUB AND DUP3 DUP3 ADD MSTORE DUP3 ADD MLOAD PUSH1 0x60 PUSH1 0x40 DUP4 ADD MSTORE PUSH0 SWAP1 PUSH2 0xACB PUSH1 0x80 DUP5 ADD DUP3 PUSH2 0xA70 JUMP JUMPDEST SWAP1 POP PUSH1 0x40 DUP5 ADD MLOAD PUSH1 0x60 DUP5 ADD MSTORE DUP1 SWAP2 POP POP SWAP3 SWAP2 POP POP JUMP JUMPDEST PUSH0 PUSH1 0x20 DUP3 DUP5 SUB SLT ISZERO PUSH2 0xAF1 JUMPI PUSH0 DUP1 REVERT JUMPDEST DUP2 CALLDATALOAD PUSH2 0xAFC DUP2 PUSH2 0x8EB JUMP JUMPDEST SWAP4 SWAP3 POP POP POP JUMP JUMPDEST PUSH1 0x1 PUSH1 0x1 PUSH1 0xA0 SHL SUB DUP5 AND DUP2 MSTORE PUSH1 0x60 PUSH1 0x20 DUP3 ADD DUP2 SWAP1 MSTORE PUSH0 SWAP1 PUSH2 0xB26 SWAP1 DUP4 ADD DUP6 PUSH2 0xA70 JUMP JUMPDEST SWAP1 POP DUP3 PUSH1 0x40 DUP4 ADD MSTORE SWAP5 SWAP4 POP POP POP POP JUMP JUMPDEST PUSH1 0x20 DUP1 DUP3 MSTORE PUSH1 0x1B SWAP1 DUP3 ADD MSTORE PUSH32 0x54686973206973206120636F6E74726163742061646472657373210000000000 PUSH1 0x40 DUP3 ADD MSTORE PUSH1 0x60 ADD SWAP1 JUMP JUMPDEST PUSH4 0x4E487B71 PUSH1 0xE0 SHL PUSH0 MSTORE PUSH1 0x11 PUSH1 0x4 MSTORE PUSH1 0x24 PUSH0 REVERT JUMPDEST DUP2 DUP2 SUB DUP2 DUP2 GT ISZERO PUSH2 0xB94 JUMPI PUSH2 0xB94 PUSH2 0xB6D JUMP JUMPDEST SWAP3 SWAP2 POP POP JUMP JUMPDEST PUSH1 0x1 DUP2 DUP2 SHR SWAP1 DUP3 AND DUP1 PUSH2 0xBAE JUMPI PUSH1 0x7F DUP3 AND SWAP2 POP JUMPDEST PUSH1 0x20 DUP3 LT DUP2 SUB PUSH2 0x5BF JUMPI PUSH4 0x4E487B71 PUSH1 0xE0 SHL PUSH0 MSTORE PUSH1 0x22 PUSH1 0x4 MSTORE PUSH1 0x24 PUSH0 REVERT JUMPDEST PUSH1 0x1F DUP3 GT ISZERO PUSH2 0xC13 JUMPI DUP1 PUSH0 MSTORE PUSH1 0x20 PUSH0 KECCAK256 PUSH1 0x1F DUP5 ADD PUSH1 0x5 SHR DUP2 ADD PUSH1 0x20 DUP6 LT ISZERO PUSH2 0xBF1 JUMPI POP DUP1 JUMPDEST PUSH1 0x1F DUP5 ADD PUSH1 0x5 SHR DUP3 ADD SWAP2 POP JUMPDEST DUP2 DUP2 LT ISZERO PUSH2 0xC10 JUMPI PUSH0 DUP2 SSTORE PUSH1 0x1 ADD PUSH2 0xBFD JUMP JUMPDEST POP POP JUMPDEST POP POP POP JUMP JUMPDEST DUP2 MLOAD PUSH8 0xFFFFFFFFFFFFFFFF DUP2 GT ISZERO PUSH2 0xC32 JUMPI PUSH2 0xC32 PUSH2 0x92D JUMP JUMPDEST PUSH2 0xC46 DUP2 PUSH2 0xC40 DUP5 SLOAD PUSH2 0xB9A JUMP JUMPDEST DUP5 PUSH2 0xBCC JUMP JUMPDEST PUSH1 0x20 PUSH1 0x1F DUP3 GT PUSH1 0x1 DUP2 EQ PUSH2 0xC78 JUMPI PUSH0 DUP4 ISZERO PUSH2 0xC61 JUMPI POP DUP5 DUP3 ADD MLOAD JUMPDEST PUSH0 NOT PUSH1 0x3 DUP6 SWAP1 SHL SHR NOT AND PUSH1 0x1 DUP5 SWAP1 SHL OR DUP5 SSTORE PUSH2 0xC10 JUMP JUMPDEST PUSH0 DUP5 DUP2 MSTORE PUSH1 0x20 DUP2 KECCAK256 PUSH1 0x1F NOT DUP6 AND SWAP2 JUMPDEST DUP3 DUP2 LT ISZERO PUSH2 0xCA7 JUMPI DUP8 DUP6 ADD MLOAD DUP3 SSTORE PUSH1 0x20 SWAP5 DUP6 ADD SWAP5 PUSH1 0x1 SWAP1 SWAP3 ADD SWAP2 ADD PUSH2 0xC87 JUMP JUMPDEST POP DUP5 DUP3 LT ISZERO PUSH2 0xCC4 JUMPI DUP7 DUP5 ADD MLOAD PUSH0 NOT PUSH1 0x3 DUP8 SWAP1 SHL PUSH1 0xF8 AND SHR NOT AND DUP2 SSTORE JUMPDEST POP POP POP POP PUSH1 0x1 SWAP1 DUP2 SHL ADD SWAP1 SSTORE POP JUMP JUMPDEST DUP1 DUP3 ADD DUP1 DUP3 GT ISZERO PUSH2 0xB94 JUMPI PUSH2 0xB94 PUSH2 0xB6D JUMP INVALID LOG2 PUSH5 0x6970667358 0x22 SLT KECCAK256 0xEC 0xC1 0xCC 0xB6 JUMPI 0xA7 0xF6 0x25 CHAINID 0xA9 0xD1 0xE8 DUP1 SGT 0xD1 0x2A 0xC1 0xCD SWAP3 DUP6 RETURN 0xB1 LOG1 0x4D PUSH14 0xEF4B262B09430D64736F6C634300 ADDMOD BYTE STOP CALLER "
				},
				"gasEstimates": {
					"creation": {
						"codeDepositCost": "671200",
						"executionCost": "infinite",
						"totalCost": "infinite"
					},
					"external": {
						"deposit()": "54984",
						"getUserByAddress(address)": "infinite",
						"getUserByName(string)": "infinite",
						"owner()": "2341",
						"registerUser(string,address)": "infinite",
						"renounceOwnership()": "infinite",
						"status()": "2395",
						"token()": "2445",
						"transferOwnership(address)": "infinite",
						"users(address)": "infinite",
						"withdraw(uint256,address)": "infinite"
					},
					"internal": {
						"_checkOwner()": "infinite",
						"_transferOwnership(address)": "25823",
						"isContractAddr(address)": "infinite"
					}
				},
				"methodIdentifiers": {
					"deposit()": "d0e30db0",
					"getUserByAddress(address)": "69c212f6",
					"getUserByName(string)": "4bff5009",
					"owner()": "8da5cb5b",
					"registerUser(string,address)": "0e54b872",
					"renounceOwnership()": "715018a6",
					"status()": "200d2ed2",
					"token()": "fc0c546a",
					"transferOwnership(address)": "f2fde38b",
					"users(address)": "a87430ba",
					"withdraw(uint256,address)": "00f714ce"
				}
			},
			"storageLayout": {
				"storage": [
					{
						"astId": 986,
						"contract": "contracts/bank.sol:Bank",
						"label": "token",
						"offset": 0,
						"slot": "0",
						"type": "t_contract(JVCToken)974"
					},
					{
						"astId": 988,
						"contract": "contracts/bank.sol:Bank",
						"label": "_owner",
						"offset": 0,
						"slot": "1",
						"type": "t_address"
					},
					{
						"astId": 993,
						"contract": "contracts/bank.sol:Bank",
						"label": "users",
						"offset": 0,
						"slot": "2",
						"type": "t_mapping(t_address,t_struct(User)1014_storage)"
					},
					{
						"astId": 996,
						"contract": "contracts/bank.sol:Bank",
						"label": "minDepAmt",
						"offset": 0,
						"slot": "3",
						"type": "t_uint256"
					},
					{
						"astId": 999,
						"contract": "contracts/bank.sol:Bank",
						"label": "maxWithdAmt",
						"offset": 0,
						"slot": "4",
						"type": "t_uint256"
					},
					{
						"astId": 1021,
						"contract": "contracts/bank.sol:Bank",
						"label": "status",
						"offset": 0,
						"slot": "5",
						"type": "t_enum(Status)1018"
					}
				],
				"types": {
					"t_address": {
						"encoding": "inplace",
						"label": "address",
						"numberOfBytes": "20"
					},
					"t_contract(JVCToken)974": {
						"encoding": "inplace",
						"label": "contract JVCToken",
						"numberOfBytes": "20"
					},
					"t_enum(Status)1018": {
						"encoding": "inplace",
						"label": "enum Bank.Status",
						"numberOfBytes": "1"
					},
					"t_mapping(t_address,t_struct(User)1014_storage)": {
						"encoding": "mapping",
						"key": "t_address",
						"label": "mapping(address => struct Bank.User)",
						"numberOfBytes": "32",
						"value": "t_struct(User)1014_storage"
					},
					"t_string_storage": {
						"encoding": "bytes",
						"label": "string",
						"numberOfBytes": "32"
					},
					"t_struct(User)1014_storage": {
						"encoding": "inplace",
						"label": "struct Bank.User",
						"members": [
							{
								"astId": 1009,
								"contract": "contracts/bank.sol:Bank",
								"label": "uAddr",
								"offset": 0,
								"slot": "0",
								"type": "t_address"
							},
							{
								"astId": 1011,
								"contract": "contracts/bank.sol:Bank",
								"label": "uName",
								"offset": 0,
								"slot": "1",
								"type": "t_string_storage"
							},
							{
								"astId": 1013,
								"contract": "contracts/bank.sol:Bank",
								"label": "balance",
								"offset": 0,
								"slot": "2",
								"type": "t_uint256"
							}
						],
						"numberOfBytes": "96"
					},
					"t_uint256": {
						"encoding": "inplace",
						"label": "uint256",
						"numberOfBytes": "32"
					}
				}
			},
			"userdoc": {
				"kind": "user",
				"methods": {
					"owner()": {
						"notice": "Returns the address of the current owner. "
					},
					"renounceOwnership()": {
						"notice": "Leaves the contract without owner. It will not be possible to call `onlyOwner` functions. Can only be called by the current owner. NOTE: Renouncing ownership will leave the contract without an owner, thereby disabling any functionality that is only available to the owner."
					},
					"transferOwnership(address)": {
						"notice": "Transfers ownership of the contract to a new account (`newOwner`). Can only be called by the current owner."
					}
				},
				"version": 1
			}
		}
	}
}