{
	"data": {
		"bytecode": {
			"linkReferences": {},
			"object": "608060405265e35fa931a00060025f6101000a81548167ffffffffffffffff021916908367ffffffffffffffff160217905550671bc16d674ec80000600260086101000a81548167ffffffffffffffff021916908367ffffffffffffffff160217905550348015606d575f80fd5b506112088061007b5f395ff3fe608060405234801561000f575f80fd5b5060043610610060575f3560e01c806311a712a014610064578063200d2ed21461008057806329664ac61461009e5780633465d6d5146100ba5780639f42af63146100ea578063d6dad0601461011a575b5f80fd5b61007e60048036038101906100799190610a72565b610136565b005b610088610220565b6040516100959190610b51565b60405180910390f35b6100b860048036038101906100b39190610b6a565b610233565b005b6100d460048036038101906100cf9190610ba8565b6103cf565b6040516100e19190610be2565b60405180910390f35b61010460048036038101906100ff9190610bfb565b6103f2565b6040516101119190610d0d565b60405180910390f35b610134600480360381019061012f9190610b6a565b6105f0565b005b60405180606001604052808481526020018373ffffffffffffffffffffffffffffffffffffffff1681526020018267ffffffffffffffff168152506001846040516101819190610d67565b90815260200160405180910390205f820151815f0190816101a29190610f80565b506020820151816001015f6101000a81548173ffffffffffffffffffffffffffffffffffffffff021916908373ffffffffffffffffffffffffffffffffffffffff16021790555060408201518160010160146101000a81548167ffffffffffffffff021916908367ffffffffffffffff160217905550905050505050565b600260109054906101000a900460ff1681565b8161023d8161082d565b1561027d576040517f08c379a0000000000000000000000000000000000000000000000000000000008152600401610274906110a9565b60405180910390fd5b8160025f9054906101000a900467ffffffffffffffff1667ffffffffffffffff168167ffffffffffffffff1611156102de5760028060106101000a81548160ff021916908360028111156102d4576102d3610ade565b5b021790555061030a565b6001600260106101000a81548160ff0219169083600281111561030457610303610ade565b5b02179055505b60028081111561031d5761031c610ade565b5b600260109054906101000a900460ff16600281111561033f5761033e610ade565b5b036103c957825f808673ffffffffffffffffffffffffffffffffffffffff1673ffffffffffffffffffffffffffffffffffffffff1681526020019081526020015f205f8282829054906101000a900467ffffffffffffffff166103a291906110f4565b92506101000a81548167ffffffffffffffff021916908367ffffffffffffffff1602179055505b50505050565b5f602052805f5260405f205f915054906101000a900467ffffffffffffffff1681565b6103fa61084f565b815f73ffffffffffffffffffffffffffffffffffffffff166001826040516104229190610d67565b90815260200160405180910390206001015f9054906101000a900473ffffffffffffffffffffffffffffffffffffffff1673ffffffffffffffffffffffffffffffffffffffff16036104a9576040517f08c379a00000000000000000000000000000000000000000000000000000000081526004016104a090611179565b60405180910390fd5b6001836040516104b99190610d67565b90815260200160405180910390206040518060600160405290815f820180546104e190610daa565b80601f016020809104026020016040519081016040528092919081815260200182805461050d90610daa565b80156105585780601f1061052f57610100808354040283529160200191610558565b820191905f5260205f20905b81548152906001019060200180831161053b57829003601f168201915b50505050508152602001600182015f9054906101000a900473ffffffffffffffffffffffffffffffffffffffff1673ffffffffffffffffffffffffffffffffffffffff1673ffffffffffffffffffffffffffffffffffffffff1681526020016001820160149054906101000a900467ffffffffffffffff1667ffffffffffffffff1667ffffffffffffffff1681525050915050919050565b816105fa8161082d565b1561063a576040517f08c379a0000000000000000000000000000000000000000000000000000000008152600401610631906110a9565b60405180910390fd5b81600260089054906101000a900467ffffffffffffffff1667ffffffffffffffff168167ffffffffffffffff16101561069c5760028060106101000a81548160ff0219169083600281111561069257610691610ade565b5b02179055506106c8565b6001600260106101000a81548160ff021916908360028111156106c2576106c1610ade565b5b02179055505b6002808111156106db576106da610ade565b5b600260109054906101000a900460ff1660028111156106fd576106fc610ade565b5b14801561076d57508267ffffffffffffffff165f808673ffffffffffffffffffffffffffffffffffffffff1673ffffffffffffffffffffffffffffffffffffffff1681526020019081526020015f205f9054906101000a900467ffffffffffffffff1667ffffffffffffffff1610155b156107fb57825f808673ffffffffffffffffffffffffffffffffffffffff1673ffffffffffffffffffffffffffffffffffffffff1681526020019081526020015f205f8282829054906101000a900467ffffffffffffffff166107d09190611197565b92506101000a81548167ffffffffffffffff021916908367ffffffffffffffff160217905550610827565b6001600260106101000a81548160ff0219169083600281111561082157610820610ade565b5b02179055505b50505050565b5f808273ffffffffffffffffffffffffffffffffffffffff163b119050919050565b6040518060600160405280606081526020015f73ffffffffffffffffffffffffffffffffffffffff1681526020015f67ffffffffffffffff1681525090565b5f604051905090565b5f80fd5b5f80fd5b5f80fd5b5f80fd5b5f601f19601f8301169050919050565b7f4e487b71000000000000000000000000000000000000000000000000000000005f52604160045260245ffd5b6108ed826108a7565b810181811067ffffffffffffffff8211171561090c5761090b6108b7565b5b80604052505050565b5f61091e61088e565b905061092a82826108e4565b919050565b5f67ffffffffffffffff821115610949576109486108b7565b5b610952826108a7565b9050602081019050919050565b828183375f83830152505050565b5f61097f61097a8461092f565b610915565b90508281526020810184848401111561099b5761099a6108a3565b5b6109a684828561095f565b509392505050565b5f82601f8301126109c2576109c161089f565b5b81356109d284826020860161096d565b91505092915050565b5f73ffffffffffffffffffffffffffffffffffffffff82169050919050565b5f610a04826109db565b9050919050565b610a14816109fa565b8114610a1e575f80fd5b50565b5f81359050610a2f81610a0b565b92915050565b5f67ffffffffffffffff82169050919050565b610a5181610a35565b8114610a5b575f80fd5b50565b5f81359050610a6c81610a48565b92915050565b5f805f60608486031215610a8957610a88610897565b5b5f84013567ffffffffffffffff811115610aa657610aa561089b565b5b610ab2868287016109ae565b9350506020610ac386828701610a21565b9250506040610ad486828701610a5e565b9150509250925092565b7f4e487b71000000000000000000000000000000000000000000000000000000005f52602160045260245ffd5b60038110610b1c57610b1b610ade565b5b50565b5f819050610b2c82610b0b565b919050565b5f610b3b82610b1f565b9050919050565b610b4b81610b31565b82525050565b5f602082019050610b645f830184610b42565b92915050565b5f8060408385031215610b8057610b7f610897565b5b5f610b8d85828601610a21565b9250506020610b9e85828601610a5e565b9150509250929050565b5f60208284031215610bbd57610bbc610897565b5b5f610bca84828501610a21565b91505092915050565b610bdc81610a35565b82525050565b5f602082019050610bf55f830184610bd3565b92915050565b5f60208284031215610c1057610c0f610897565b5b5f82013567ffffffffffffffff811115610c2d57610c2c61089b565b5b610c39848285016109ae565b91505092915050565b5f81519050919050565b5f82825260208201905092915050565b8281835e5f83830152505050565b5f610c7482610c42565b610c7e8185610c4c565b9350610c8e818560208601610c5c565b610c97816108a7565b840191505092915050565b610cab816109fa565b82525050565b610cba81610a35565b82525050565b5f606083015f8301518482035f860152610cda8282610c6a565b9150506020830151610cef6020860182610ca2565b506040830151610d026040860182610cb1565b508091505092915050565b5f6020820190508181035f830152610d258184610cc0565b905092915050565b5f81905092915050565b5f610d4182610c42565b610d4b8185610d2d565b9350610d5b818560208601610c5c565b80840191505092915050565b5f610d728284610d37565b915081905092915050565b7f4e487b71000000000000000000000000000000000000000000000000000000005f52602260045260245ffd5b5f6002820490506001821680610dc157607f821691505b602082108103610dd457610dd3610d7d565b5b50919050565b5f819050815f5260205f209050919050565b5f6020601f8301049050919050565b5f82821b905092915050565b5f60088302610e367fffffffffffffffffffffffffffffffffffffffffffffffffffffffffffffffff82610dfb565b610e408683610dfb565b95508019841693508086168417925050509392505050565b5f819050919050565b5f819050919050565b5f610e84610e7f610e7a84610e58565b610e61565b610e58565b9050919050565b5f819050919050565b610e9d83610e6a565b610eb1610ea982610e8b565b848454610e07565b825550505050565b5f90565b610ec5610eb9565b610ed0818484610e94565b505050565b5b81811015610ef357610ee85f82610ebd565b600181019050610ed6565b5050565b601f821115610f3857610f0981610dda565b610f1284610dec565b81016020851015610f21578190505b610f35610f2d85610dec565b830182610ed5565b50505b505050565b5f82821c905092915050565b5f610f585f1984600802610f3d565b1980831691505092915050565b5f610f708383610f49565b9150826002028217905092915050565b610f8982610c42565b67ffffffffffffffff811115610fa257610fa16108b7565b5b610fac8254610daa565b610fb7828285610ef7565b5f60209050601f831160018114610fe8575f8415610fd6578287015190505b610fe08582610f65565b865550611047565b601f198416610ff686610dda565b5f5b8281101561101d57848901518255600182019150602085019450602081019050610ff8565b8683101561103a5784890151611036601f891682610f49565b8355505b6001600288020188555050505b505050505050565b5f82825260208201905092915050565b7f54686973206973206120636f6e747261637420616464726573732100000000005f82015250565b5f611093601b8361104f565b915061109e8261105f565b602082019050919050565b5f6020820190508181035f8301526110c081611087565b9050919050565b7f4e487b71000000000000000000000000000000000000000000000000000000005f52601160045260245ffd5b5f6110fe82610a35565b915061110983610a35565b9250828201905067ffffffffffffffff811115611129576111286110c7565b5b92915050565b7f5573657220646f6573206e6f74206578697374210000000000000000000000005f82015250565b5f61116360148361104f565b915061116e8261112f565b602082019050919050565b5f6020820190508181035f83015261119081611157565b9050919050565b5f6111a182610a35565b91506111ac83610a35565b9250828203905067ffffffffffffffff8111156111cc576111cb6110c7565b5b9291505056fea2646970667358221220b44b457662465891d5c59583cea6b9012913f12a9f06a19c491ef4f1ac40ed3064736f6c634300081a0033",
			"opcodes": "PUSH1 0x80 PUSH1 0x40 MSTORE PUSH6 0xE35FA931A000 PUSH1 0x2 PUSH0 PUSH2 0x100 EXP DUP2 SLOAD DUP2 PUSH8 0xFFFFFFFFFFFFFFFF MUL NOT AND SWAP1 DUP4 PUSH8 0xFFFFFFFFFFFFFFFF AND MUL OR SWAP1 SSTORE POP PUSH8 0x1BC16D674EC80000 PUSH1 0x2 PUSH1 0x8 PUSH2 0x100 EXP DUP2 SLOAD DUP2 PUSH8 0xFFFFFFFFFFFFFFFF MUL NOT AND SWAP1 DUP4 PUSH8 0xFFFFFFFFFFFFFFFF AND MUL OR SWAP1 SSTORE POP CALLVALUE DUP1 ISZERO PUSH1 0x6D JUMPI PUSH0 DUP1 REVERT JUMPDEST POP PUSH2 0x1208 DUP1 PUSH2 0x7B PUSH0 CODECOPY PUSH0 RETURN INVALID PUSH1 0x80 PUSH1 0x40 MSTORE CALLVALUE DUP1 ISZERO PUSH2 0xF JUMPI PUSH0 DUP1 REVERT JUMPDEST POP PUSH1 0x4 CALLDATASIZE LT PUSH2 0x60 JUMPI PUSH0 CALLDATALOAD PUSH1 0xE0 SHR DUP1 PUSH4 0x11A712A0 EQ PUSH2 0x64 JUMPI DUP1 PUSH4 0x200D2ED2 EQ PUSH2 0x80 JUMPI DUP1 PUSH4 0x29664AC6 EQ PUSH2 0x9E JUMPI DUP1 PUSH4 0x3465D6D5 EQ PUSH2 0xBA JUMPI DUP1 PUSH4 0x9F42AF63 EQ PUSH2 0xEA JUMPI DUP1 PUSH4 0xD6DAD060 EQ PUSH2 0x11A JUMPI JUMPDEST PUSH0 DUP1 REVERT JUMPDEST PUSH2 0x7E PUSH1 0x4 DUP1 CALLDATASIZE SUB DUP2 ADD SWAP1 PUSH2 0x79 SWAP2 SWAP1 PUSH2 0xA72 JUMP JUMPDEST PUSH2 0x136 JUMP JUMPDEST STOP JUMPDEST PUSH2 0x88 PUSH2 0x220 JUMP JUMPDEST PUSH1 0x40 MLOAD PUSH2 0x95 SWAP2 SWAP1 PUSH2 0xB51 JUMP JUMPDEST PUSH1 0x40 MLOAD DUP1 SWAP2 SUB SWAP1 RETURN JUMPDEST PUSH2 0xB8 PUSH1 0x4 DUP1 CALLDATASIZE SUB DUP2 ADD SWAP1 PUSH2 0xB3 SWAP2 SWAP1 PUSH2 0xB6A JUMP JUMPDEST PUSH2 0x233 JUMP JUMPDEST STOP JUMPDEST PUSH2 0xD4 PUSH1 0x4 DUP1 CALLDATASIZE SUB DUP2 ADD SWAP1 PUSH2 0xCF SWAP2 SWAP1 PUSH2 0xBA8 JUMP JUMPDEST PUSH2 0x3CF JUMP JUMPDEST PUSH1 0x40 MLOAD PUSH2 0xE1 SWAP2 SWAP1 PUSH2 0xBE2 JUMP JUMPDEST PUSH1 0x40 MLOAD DUP1 SWAP2 SUB SWAP1 RETURN JUMPDEST PUSH2 0x104 PUSH1 0x4 DUP1 CALLDATASIZE SUB DUP2 ADD SWAP1 PUSH2 0xFF SWAP2 SWAP1 PUSH2 0xBFB JUMP JUMPDEST PUSH2 0x3F2 JUMP JUMPDEST PUSH1 0x40 MLOAD PUSH2 0x111 SWAP2 SWAP1 PUSH2 0xD0D JUMP JUMPDEST PUSH1 0x40 MLOAD DUP1 SWAP2 SUB SWAP1 RETURN JUMPDEST PUSH2 0x134 PUSH1 0x4 DUP1 CALLDATASIZE SUB DUP2 ADD SWAP1 PUSH2 0x12F SWAP2 SWAP1 PUSH2 0xB6A JUMP JUMPDEST PUSH2 0x5F0 JUMP JUMPDEST STOP JUMPDEST PUSH1 0x40 MLOAD DUP1 PUSH1 0x60 ADD PUSH1 0x40 MSTORE DUP1 DUP5 DUP2 MSTORE PUSH1 0x20 ADD DUP4 PUSH20 0xFFFFFFFFFFFFFFFFFFFFFFFFFFFFFFFFFFFFFFFF AND DUP2 MSTORE PUSH1 0x20 ADD DUP3 PUSH8 0xFFFFFFFFFFFFFFFF AND DUP2 MSTORE POP PUSH1 0x1 DUP5 PUSH1 0x40 MLOAD PUSH2 0x181 SWAP2 SWAP1 PUSH2 0xD67 JUMP JUMPDEST SWAP1 DUP2 MSTORE PUSH1 0x20 ADD PUSH1 0x40 MLOAD DUP1 SWAP2 SUB SWAP1 KECCAK256 PUSH0 DUP3 ADD MLOAD DUP2 PUSH0 ADD SWAP1 DUP2 PUSH2 0x1A2 SWAP2 SWAP1 PUSH2 0xF80 JUMP JUMPDEST POP PUSH1 0x20 DUP3 ADD MLOAD DUP2 PUSH1 0x1 ADD PUSH0 PUSH2 0x100 EXP DUP2 SLOAD DUP2 PUSH20 0xFFFFFFFFFFFFFFFFFFFFFFFFFFFFFFFFFFFFFFFF MUL NOT AND SWAP1 DUP4 PUSH20 0xFFFFFFFFFFFFFFFFFFFFFFFFFFFFFFFFFFFFFFFF AND MUL OR SWAP1 SSTORE POP PUSH1 0x40 DUP3 ADD MLOAD DUP2 PUSH1 0x1 ADD PUSH1 0x14 PUSH2 0x100 EXP DUP2 SLOAD DUP2 PUSH8 0xFFFFFFFFFFFFFFFF MUL NOT AND SWAP1 DUP4 PUSH8 0xFFFFFFFFFFFFFFFF AND MUL OR SWAP1 SSTORE POP SWAP1 POP POP POP POP POP JUMP JUMPDEST PUSH1 0x2 PUSH1 0x10 SWAP1 SLOAD SWAP1 PUSH2 0x100 EXP SWAP1 DIV PUSH1 0xFF AND DUP2 JUMP JUMPDEST DUP2 PUSH2 0x23D DUP2 PUSH2 0x82D JUMP JUMPDEST ISZERO PUSH2 0x27D JUMPI PUSH1 0x40 MLOAD PUSH32 0x8C379A000000000000000000000000000000000000000000000000000000000 DUP2 MSTORE PUSH1 0x4 ADD PUSH2 0x274 SWAP1 PUSH2 0x10A9 JUMP JUMPDEST PUSH1 0x40 MLOAD DUP1 SWAP2 SUB SWAP1 REVERT JUMPDEST DUP2 PUSH1 0x2 PUSH0 SWAP1 SLOAD SWAP1 PUSH2 0x100 EXP SWAP1 DIV PUSH8 0xFFFFFFFFFFFFFFFF AND PUSH8 0xFFFFFFFFFFFFFFFF AND DUP2 PUSH8 0xFFFFFFFFFFFFFFFF AND GT ISZERO PUSH2 0x2DE JUMPI PUSH1 0x2 DUP1 PUSH1 0x10 PUSH2 0x100 EXP DUP2 SLOAD DUP2 PUSH1 0xFF MUL NOT AND SWAP1 DUP4 PUSH1 0x2 DUP2 GT ISZERO PUSH2 0x2D4 JUMPI PUSH2 0x2D3 PUSH2 0xADE JUMP JUMPDEST JUMPDEST MUL OR SWAP1 SSTORE POP PUSH2 0x30A JUMP JUMPDEST PUSH1 0x1 PUSH1 0x2 PUSH1 0x10 PUSH2 0x100 EXP DUP2 SLOAD DUP2 PUSH1 0xFF MUL NOT AND SWAP1 DUP4 PUSH1 0x2 DUP2 GT ISZERO PUSH2 0x304 JUMPI PUSH2 0x303 PUSH2 0xADE JUMP JUMPDEST JUMPDEST MUL OR SWAP1 SSTORE POP JUMPDEST PUSH1 0x2 DUP1 DUP2 GT ISZERO PUSH2 0x31D JUMPI PUSH2 0x31C PUSH2 0xADE JUMP JUMPDEST JUMPDEST PUSH1 0x2 PUSH1 0x10 SWAP1 SLOAD SWAP1 PUSH2 0x100 EXP SWAP1 DIV PUSH1 0xFF AND PUSH1 0x2 DUP2 GT ISZERO PUSH2 0x33F JUMPI PUSH2 0x33E PUSH2 0xADE JUMP JUMPDEST JUMPDEST SUB PUSH2 0x3C9 JUMPI DUP3 PUSH0 DUP1 DUP7 PUSH20 0xFFFFFFFFFFFFFFFFFFFFFFFFFFFFFFFFFFFFFFFF AND PUSH20 0xFFFFFFFFFFFFFFFFFFFFFFFFFFFFFFFFFFFFFFFF AND DUP2 MSTORE PUSH1 0x20 ADD SWAP1 DUP2 MSTORE PUSH1 0x20 ADD PUSH0 KECCAK256 PUSH0 DUP3 DUP3 DUP3 SWAP1 SLOAD SWAP1 PUSH2 0x100 EXP SWAP1 DIV PUSH8 0xFFFFFFFFFFFFFFFF AND PUSH2 0x3A2 SWAP2 SWAP1 PUSH2 0x10F4 JUMP JUMPDEST SWAP3 POP PUSH2 0x100 EXP DUP2 SLOAD DUP2 PUSH8 0xFFFFFFFFFFFFFFFF MUL NOT AND SWAP1 DUP4 PUSH8 0xFFFFFFFFFFFFFFFF AND MUL OR SWAP1 SSTORE POP JUMPDEST POP POP POP POP JUMP JUMPDEST PUSH0 PUSH1 0x20 MSTORE DUP1 PUSH0 MSTORE PUSH1 0x40 PUSH0 KECCAK256 PUSH0 SWAP2 POP SLOAD SWAP1 PUSH2 0x100 EXP SWAP1 DIV PUSH8 0xFFFFFFFFFFFFFFFF AND DUP2 JUMP JUMPDEST PUSH2 0x3FA PUSH2 0x84F JUMP JUMPDEST DUP2 PUSH0 PUSH20 0xFFFFFFFFFFFFFFFFFFFFFFFFFFFFFFFFFFFFFFFF AND PUSH1 0x1 DUP3 PUSH1 0x40 MLOAD PUSH2 0x422 SWAP2 SWAP1 PUSH2 0xD67 JUMP JUMPDEST SWAP1 DUP2 MSTORE PUSH1 0x20 ADD PUSH1 0x40 MLOAD DUP1 SWAP2 SUB SWAP1 KECCAK256 PUSH1 0x1 ADD PUSH0 SWAP1 SLOAD SWAP1 PUSH2 0x100 EXP SWAP1 DIV PUSH20 0xFFFFFFFFFFFFFFFFFFFFFFFFFFFFFFFFFFFFFFFF AND PUSH20 0xFFFFFFFFFFFFFFFFFFFFFFFFFFFFFFFFFFFFFFFF AND SUB PUSH2 0x4A9 JUMPI PUSH1 0x40 MLOAD PUSH32 0x8C379A000000000000000000000000000000000000000000000000000000000 DUP2 MSTORE PUSH1 0x4 ADD PUSH2 0x4A0 SWAP1 PUSH2 0x1179 JUMP JUMPDEST PUSH1 0x40 MLOAD DUP1 SWAP2 SUB SWAP1 REVERT JUMPDEST PUSH1 0x1 DUP4 PUSH1 0x40 MLOAD PUSH2 0x4B9 SWAP2 SWAP1 PUSH2 0xD67 JUMP JUMPDEST SWAP1 DUP2 MSTORE PUSH1 0x20 ADD PUSH1 0x40 MLOAD DUP1 SWAP2 SUB SWAP1 KECCAK256 PUSH1 0x40 MLOAD DUP1 PUSH1 0x60 ADD PUSH1 0x40 MSTORE SWAP1 DUP2 PUSH0 DUP3 ADD DUP1 SLOAD PUSH2 0x4E1 SWAP1 PUSH2 0xDAA JUMP JUMPDEST DUP1 PUSH1 0x1F ADD PUSH1 0x20 DUP1 SWAP2 DIV MUL PUSH1 0x20 ADD PUSH1 0x40 MLOAD SWAP1 DUP2 ADD PUSH1 0x40 MSTORE DUP1 SWAP3 SWAP2 SWAP1 DUP2 DUP2 MSTORE PUSH1 0x20 ADD DUP3 DUP1 SLOAD PUSH2 0x50D SWAP1 PUSH2 0xDAA JUMP JUMPDEST DUP1 ISZERO PUSH2 0x558 JUMPI DUP1 PUSH1 0x1F LT PUSH2 0x52F JUMPI PUSH2 0x100 DUP1 DUP4 SLOAD DIV MUL DUP4 MSTORE SWAP2 PUSH1 0x20 ADD SWAP2 PUSH2 0x558 JUMP JUMPDEST DUP3 ADD SWAP2 SWAP1 PUSH0 MSTORE PUSH1 0x20 PUSH0 KECCAK256 SWAP1 JUMPDEST DUP2 SLOAD DUP2 MSTORE SWAP1 PUSH1 0x1 ADD SWAP1 PUSH1 0x20 ADD DUP1 DUP4 GT PUSH2 0x53B JUMPI DUP3 SWAP1 SUB PUSH1 0x1F AND DUP3 ADD SWAP2 JUMPDEST POP POP POP POP POP DUP2 MSTORE PUSH1 0x20 ADD PUSH1 0x1 DUP3 ADD PUSH0 SWAP1 SLOAD SWAP1 PUSH2 0x100 EXP SWAP1 DIV PUSH20 0xFFFFFFFFFFFFFFFFFFFFFFFFFFFFFFFFFFFFFFFF AND PUSH20 0xFFFFFFFFFFFFFFFFFFFFFFFFFFFFFFFFFFFFFFFF AND PUSH20 0xFFFFFFFFFFFFFFFFFFFFFFFFFFFFFFFFFFFFFFFF AND DUP2 MSTORE PUSH1 0x20 ADD PUSH1 0x1 DUP3 ADD PUSH1 0x14 SWAP1 SLOAD SWAP1 PUSH2 0x100 EXP SWAP1 DIV PUSH8 0xFFFFFFFFFFFFFFFF AND PUSH8 0xFFFFFFFFFFFFFFFF AND PUSH8 0xFFFFFFFFFFFFFFFF AND DUP2 MSTORE POP POP SWAP2 POP POP SWAP2 SWAP1 POP JUMP JUMPDEST DUP2 PUSH2 0x5FA DUP2 PUSH2 0x82D JUMP JUMPDEST ISZERO PUSH2 0x63A JUMPI PUSH1 0x40 MLOAD PUSH32 0x8C379A000000000000000000000000000000000000000000000000000000000 DUP2 MSTORE PUSH1 0x4 ADD PUSH2 0x631 SWAP1 PUSH2 0x10A9 JUMP JUMPDEST PUSH1 0x40 MLOAD DUP1 SWAP2 SUB SWAP1 REVERT JUMPDEST DUP2 PUSH1 0x2 PUSH1 0x8 SWAP1 SLOAD SWAP1 PUSH2 0x100 EXP SWAP1 DIV PUSH8 0xFFFFFFFFFFFFFFFF AND PUSH8 0xFFFFFFFFFFFFFFFF AND DUP2 PUSH8 0xFFFFFFFFFFFFFFFF AND LT ISZERO PUSH2 0x69C JUMPI PUSH1 0x2 DUP1 PUSH1 0x10 PUSH2 0x100 EXP DUP2 SLOAD DUP2 PUSH1 0xFF MUL NOT AND SWAP1 DUP4 PUSH1 0x2 DUP2 GT ISZERO PUSH2 0x692 JUMPI PUSH2 0x691 PUSH2 0xADE JUMP JUMPDEST JUMPDEST MUL OR SWAP1 SSTORE POP PUSH2 0x6C8 JUMP JUMPDEST PUSH1 0x1 PUSH1 0x2 PUSH1 0x10 PUSH2 0x100 EXP DUP2 SLOAD DUP2 PUSH1 0xFF MUL NOT AND SWAP1 DUP4 PUSH1 0x2 DUP2 GT ISZERO PUSH2 0x6C2 JUMPI PUSH2 0x6C1 PUSH2 0xADE JUMP JUMPDEST JUMPDEST MUL OR SWAP1 SSTORE POP JUMPDEST PUSH1 0x2 DUP1 DUP2 GT ISZERO PUSH2 0x6DB JUMPI PUSH2 0x6DA PUSH2 0xADE JUMP JUMPDEST JUMPDEST PUSH1 0x2 PUSH1 0x10 SWAP1 SLOAD SWAP1 PUSH2 0x100 EXP SWAP1 DIV PUSH1 0xFF AND PUSH1 0x2 DUP2 GT ISZERO PUSH2 0x6FD JUMPI PUSH2 0x6FC PUSH2 0xADE JUMP JUMPDEST JUMPDEST EQ DUP1 ISZERO PUSH2 0x76D JUMPI POP DUP3 PUSH8 0xFFFFFFFFFFFFFFFF AND PUSH0 DUP1 DUP7 PUSH20 0xFFFFFFFFFFFFFFFFFFFFFFFFFFFFFFFFFFFFFFFF AND PUSH20 0xFFFFFFFFFFFFFFFFFFFFFFFFFFFFFFFFFFFFFFFF AND DUP2 MSTORE PUSH1 0x20 ADD SWAP1 DUP2 MSTORE PUSH1 0x20 ADD PUSH0 KECCAK256 PUSH0 SWAP1 SLOAD SWAP1 PUSH2 0x100 EXP SWAP1 DIV PUSH8 0xFFFFFFFFFFFFFFFF AND PUSH8 0xFFFFFFFFFFFFFFFF AND LT ISZERO JUMPDEST ISZERO PUSH2 0x7FB JUMPI DUP3 PUSH0 DUP1 DUP7 PUSH20 0xFFFFFFFFFFFFFFFFFFFFFFFFFFFFFFFFFFFFFFFF AND PUSH20 0xFFFFFFFFFFFFFFFFFFFFFFFFFFFFFFFFFFFFFFFF AND DUP2 MSTORE PUSH1 0x20 ADD SWAP1 DUP2 MSTORE PUSH1 0x20 ADD PUSH0 KECCAK256 PUSH0 DUP3 DUP3 DUP3 SWAP1 SLOAD SWAP1 PUSH2 0x100 EXP SWAP1 DIV PUSH8 0xFFFFFFFFFFFFFFFF AND PUSH2 0x7D0 SWAP2 SWAP1 PUSH2 0x1197 JUMP JUMPDEST SWAP3 POP PUSH2 0x100 EXP DUP2 SLOAD DUP2 PUSH8 0xFFFFFFFFFFFFFFFF MUL NOT AND SWAP1 DUP4 PUSH8 0xFFFFFFFFFFFFFFFF AND MUL OR SWAP1 SSTORE POP PUSH2 0x827 JUMP JUMPDEST PUSH1 0x1 PUSH1 0x2 PUSH1 0x10 PUSH2 0x100 EXP DUP2 SLOAD DUP2 PUSH1 0xFF MUL NOT AND SWAP1 DUP4 PUSH1 0x2 DUP2 GT ISZERO PUSH2 0x821 JUMPI PUSH2 0x820 PUSH2 0xADE JUMP JUMPDEST JUMPDEST MUL OR SWAP1 SSTORE POP JUMPDEST POP POP POP POP JUMP JUMPDEST PUSH0 DUP1 DUP3 PUSH20 0xFFFFFFFFFFFFFFFFFFFFFFFFFFFFFFFFFFFFFFFF AND EXTCODESIZE GT SWAP1 POP SWAP2 SWAP1 POP JUMP JUMPDEST PUSH1 0x40 MLOAD DUP1 PUSH1 0x60 ADD PUSH1 0x40 MSTORE DUP1 PUSH1 0x60 DUP2 MSTORE PUSH1 0x20 ADD PUSH0 PUSH20 0xFFFFFFFFFFFFFFFFFFFFFFFFFFFFFFFFFFFFFFFF AND DUP2 MSTORE PUSH1 0x20 ADD PUSH0 PUSH8 0xFFFFFFFFFFFFFFFF AND DUP2 MSTORE POP SWAP1 JUMP JUMPDEST PUSH0 PUSH1 0x40 MLOAD SWAP1 POP SWAP1 JUMP JUMPDEST PUSH0 DUP1 REVERT JUMPDEST PUSH0 DUP1 REVERT JUMPDEST PUSH0 DUP1 REVERT JUMPDEST PUSH0 DUP1 REVERT JUMPDEST PUSH0 PUSH1 0x1F NOT PUSH1 0x1F DUP4 ADD AND SWAP1 POP SWAP2 SWAP1 POP JUMP JUMPDEST PUSH32 0x4E487B7100000000000000000000000000000000000000000000000000000000 PUSH0 MSTORE PUSH1 0x41 PUSH1 0x4 MSTORE PUSH1 0x24 PUSH0 REVERT JUMPDEST PUSH2 0x8ED DUP3 PUSH2 0x8A7 JUMP JUMPDEST DUP2 ADD DUP2 DUP2 LT PUSH8 0xFFFFFFFFFFFFFFFF DUP3 GT OR ISZERO PUSH2 0x90C JUMPI PUSH2 0x90B PUSH2 0x8B7 JUMP JUMPDEST JUMPDEST DUP1 PUSH1 0x40 MSTORE POP POP POP JUMP JUMPDEST PUSH0 PUSH2 0x91E PUSH2 0x88E JUMP JUMPDEST SWAP1 POP PUSH2 0x92A DUP3 DUP3 PUSH2 0x8E4 JUMP JUMPDEST SWAP2 SWAP1 POP JUMP JUMPDEST PUSH0 PUSH8 0xFFFFFFFFFFFFFFFF DUP3 GT ISZERO PUSH2 0x949 JUMPI PUSH2 0x948 PUSH2 0x8B7 JUMP JUMPDEST JUMPDEST PUSH2 0x952 DUP3 PUSH2 0x8A7 JUMP JUMPDEST SWAP1 POP PUSH1 0x20 DUP2 ADD SWAP1 POP SWAP2 SWAP1 POP JUMP JUMPDEST DUP3 DUP2 DUP4 CALLDATACOPY PUSH0 DUP4 DUP4 ADD MSTORE POP POP POP JUMP JUMPDEST PUSH0 PUSH2 0x97F PUSH2 0x97A DUP5 PUSH2 0x92F JUMP JUMPDEST PUSH2 0x915 JUMP JUMPDEST SWAP1 POP DUP3 DUP2 MSTORE PUSH1 0x20 DUP2 ADD DUP5 DUP5 DUP5 ADD GT ISZERO PUSH2 0x99B JUMPI PUSH2 0x99A PUSH2 0x8A3 JUMP JUMPDEST JUMPDEST PUSH2 0x9A6 DUP5 DUP3 DUP6 PUSH2 0x95F JUMP JUMPDEST POP SWAP4 SWAP3 POP POP POP JUMP JUMPDEST PUSH0 DUP3 PUSH1 0x1F DUP4 ADD SLT PUSH2 0x9C2 JUMPI PUSH2 0x9C1 PUSH2 0x89F JUMP JUMPDEST JUMPDEST DUP2 CALLDATALOAD PUSH2 0x9D2 DUP5 DUP3 PUSH1 0x20 DUP7 ADD PUSH2 0x96D JUMP JUMPDEST SWAP2 POP POP SWAP3 SWAP2 POP POP JUMP JUMPDEST PUSH0 PUSH20 0xFFFFFFFFFFFFFFFFFFFFFFFFFFFFFFFFFFFFFFFF DUP3 AND SWAP1 POP SWAP2 SWAP1 POP JUMP JUMPDEST PUSH0 PUSH2 0xA04 DUP3 PUSH2 0x9DB JUMP JUMPDEST SWAP1 POP SWAP2 SWAP1 POP JUMP JUMPDEST PUSH2 0xA14 DUP2 PUSH2 0x9FA JUMP JUMPDEST DUP2 EQ PUSH2 0xA1E JUMPI PUSH0 DUP1 REVERT JUMPDEST POP JUMP JUMPDEST PUSH0 DUP2 CALLDATALOAD SWAP1 POP PUSH2 0xA2F DUP2 PUSH2 0xA0B JUMP JUMPDEST SWAP3 SWAP2 POP POP JUMP JUMPDEST PUSH0 PUSH8 0xFFFFFFFFFFFFFFFF DUP3 AND SWAP1 POP SWAP2 SWAP1 POP JUMP JUMPDEST PUSH2 0xA51 DUP2 PUSH2 0xA35 JUMP JUMPDEST DUP2 EQ PUSH2 0xA5B JUMPI PUSH0 DUP1 REVERT JUMPDEST POP JUMP JUMPDEST PUSH0 DUP2 CALLDATALOAD SWAP1 POP PUSH2 0xA6C DUP2 PUSH2 0xA48 JUMP JUMPDEST SWAP3 SWAP2 POP POP JUMP JUMPDEST PUSH0 DUP1 PUSH0 PUSH1 0x60 DUP5 DUP7 SUB SLT ISZERO PUSH2 0xA89 JUMPI PUSH2 0xA88 PUSH2 0x897 JUMP JUMPDEST JUMPDEST PUSH0 DUP5 ADD CALLDATALOAD PUSH8 0xFFFFFFFFFFFFFFFF DUP2 GT ISZERO PUSH2 0xAA6 JUMPI PUSH2 0xAA5 PUSH2 0x89B JUMP JUMPDEST JUMPDEST PUSH2 0xAB2 DUP7 DUP3 DUP8 ADD PUSH2 0x9AE JUMP JUMPDEST SWAP4 POP POP PUSH1 0x20 PUSH2 0xAC3 DUP7 DUP3 DUP8 ADD PUSH2 0xA21 JUMP JUMPDEST SWAP3 POP POP PUSH1 0x40 PUSH2 0xAD4 DUP7 DUP3 DUP8 ADD PUSH2 0xA5E JUMP JUMPDEST SWAP2 POP POP SWAP3 POP SWAP3 POP SWAP3 JUMP JUMPDEST PUSH32 0x4E487B7100000000000000000000000000000000000000000000000000000000 PUSH0 MSTORE PUSH1 0x21 PUSH1 0x4 MSTORE PUSH1 0x24 PUSH0 REVERT JUMPDEST PUSH1 0x3 DUP2 LT PUSH2 0xB1C JUMPI PUSH2 0xB1B PUSH2 0xADE JUMP JUMPDEST JUMPDEST POP JUMP JUMPDEST PUSH0 DUP2 SWAP1 POP PUSH2 0xB2C DUP3 PUSH2 0xB0B JUMP JUMPDEST SWAP2 SWAP1 POP JUMP JUMPDEST PUSH0 PUSH2 0xB3B DUP3 PUSH2 0xB1F JUMP JUMPDEST SWAP1 POP SWAP2 SWAP1 POP JUMP JUMPDEST PUSH2 0xB4B DUP2 PUSH2 0xB31 JUMP JUMPDEST DUP3 MSTORE POP POP JUMP JUMPDEST PUSH0 PUSH1 0x20 DUP3 ADD SWAP1 POP PUSH2 0xB64 PUSH0 DUP4 ADD DUP5 PUSH2 0xB42 JUMP JUMPDEST SWAP3 SWAP2 POP POP JUMP JUMPDEST PUSH0 DUP1 PUSH1 0x40 DUP4 DUP6 SUB SLT ISZERO PUSH2 0xB80 JUMPI PUSH2 0xB7F PUSH2 0x897 JUMP JUMPDEST JUMPDEST PUSH0 PUSH2 0xB8D DUP6 DUP3 DUP7 ADD PUSH2 0xA21 JUMP JUMPDEST SWAP3 POP POP PUSH1 0x20 PUSH2 0xB9E DUP6 DUP3 DUP7 ADD PUSH2 0xA5E JUMP JUMPDEST SWAP2 POP POP SWAP3 POP SWAP3 SWAP1 POP JUMP JUMPDEST PUSH0 PUSH1 0x20 DUP3 DUP5 SUB SLT ISZERO PUSH2 0xBBD JUMPI PUSH2 0xBBC PUSH2 0x897 JUMP JUMPDEST JUMPDEST PUSH0 PUSH2 0xBCA DUP5 DUP3 DUP6 ADD PUSH2 0xA21 JUMP JUMPDEST SWAP2 POP POP SWAP3 SWAP2 POP POP JUMP JUMPDEST PUSH2 0xBDC DUP2 PUSH2 0xA35 JUMP JUMPDEST DUP3 MSTORE POP POP JUMP JUMPDEST PUSH0 PUSH1 0x20 DUP3 ADD SWAP1 POP PUSH2 0xBF5 PUSH0 DUP4 ADD DUP5 PUSH2 0xBD3 JUMP JUMPDEST SWAP3 SWAP2 POP POP JUMP JUMPDEST PUSH0 PUSH1 0x20 DUP3 DUP5 SUB SLT ISZERO PUSH2 0xC10 JUMPI PUSH2 0xC0F PUSH2 0x897 JUMP JUMPDEST JUMPDEST PUSH0 DUP3 ADD CALLDATALOAD PUSH8 0xFFFFFFFFFFFFFFFF DUP2 GT ISZERO PUSH2 0xC2D JUMPI PUSH2 0xC2C PUSH2 0x89B JUMP JUMPDEST JUMPDEST PUSH2 0xC39 DUP5 DUP3 DUP6 ADD PUSH2 0x9AE JUMP JUMPDEST SWAP2 POP POP SWAP3 SWAP2 POP POP JUMP JUMPDEST PUSH0 DUP2 MLOAD SWAP1 POP SWAP2 SWAP1 POP JUMP JUMPDEST PUSH0 DUP3 DUP3 MSTORE PUSH1 0x20 DUP3 ADD SWAP1 POP SWAP3 SWAP2 POP POP JUMP JUMPDEST DUP3 DUP2 DUP4 MCOPY PUSH0 DUP4 DUP4 ADD MSTORE POP POP POP JUMP JUMPDEST PUSH0 PUSH2 0xC74 DUP3 PUSH2 0xC42 JUMP JUMPDEST PUSH2 0xC7E DUP2 DUP6 PUSH2 0xC4C JUMP JUMPDEST SWAP4 POP PUSH2 0xC8E DUP2 DUP6 PUSH1 0x20 DUP7 ADD PUSH2 0xC5C JUMP JUMPDEST PUSH2 0xC97 DUP2 PUSH2 0x8A7 JUMP JUMPDEST DUP5 ADD SWAP2 POP POP SWAP3 SWAP2 POP POP JUMP JUMPDEST PUSH2 0xCAB DUP2 PUSH2 0x9FA JUMP JUMPDEST DUP3 MSTORE POP POP JUMP JUMPDEST PUSH2 0xCBA DUP2 PUSH2 0xA35 JUMP JUMPDEST DUP3 MSTORE POP POP JUMP JUMPDEST PUSH0 PUSH1 0x60 DUP4 ADD PUSH0 DUP4 ADD MLOAD DUP5 DUP3 SUB PUSH0 DUP7 ADD MSTORE PUSH2 0xCDA DUP3 DUP3 PUSH2 0xC6A JUMP JUMPDEST SWAP2 POP POP PUSH1 0x20 DUP4 ADD MLOAD PUSH2 0xCEF PUSH1 0x20 DUP7 ADD DUP3 PUSH2 0xCA2 JUMP JUMPDEST POP PUSH1 0x40 DUP4 ADD MLOAD PUSH2 0xD02 PUSH1 0x40 DUP7 ADD DUP3 PUSH2 0xCB1 JUMP JUMPDEST POP DUP1 SWAP2 POP POP SWAP3 SWAP2 POP POP JUMP JUMPDEST PUSH0 PUSH1 0x20 DUP3 ADD SWAP1 POP DUP2 DUP2 SUB PUSH0 DUP4 ADD MSTORE PUSH2 0xD25 DUP2 DUP5 PUSH2 0xCC0 JUMP JUMPDEST SWAP1 POP SWAP3 SWAP2 POP POP JUMP JUMPDEST PUSH0 DUP2 SWAP1 POP SWAP3 SWAP2 POP POP JUMP JUMPDEST PUSH0 PUSH2 0xD41 DUP3 PUSH2 0xC42 JUMP JUMPDEST PUSH2 0xD4B DUP2 DUP6 PUSH2 0xD2D JUMP JUMPDEST SWAP4 POP PUSH2 0xD5B DUP2 DUP6 PUSH1 0x20 DUP7 ADD PUSH2 0xC5C JUMP JUMPDEST DUP1 DUP5 ADD SWAP2 POP POP SWAP3 SWAP2 POP POP JUMP JUMPDEST PUSH0 PUSH2 0xD72 DUP3 DUP5 PUSH2 0xD37 JUMP JUMPDEST SWAP2 POP DUP2 SWAP1 POP SWAP3 SWAP2 POP POP JUMP JUMPDEST PUSH32 0x4E487B7100000000000000000000000000000000000000000000000000000000 PUSH0 MSTORE PUSH1 0x22 PUSH1 0x4 MSTORE PUSH1 0x24 PUSH0 REVERT JUMPDEST PUSH0 PUSH1 0x2 DUP3 DIV SWAP1 POP PUSH1 0x1 DUP3 AND DUP1 PUSH2 0xDC1 JUMPI PUSH1 0x7F DUP3 AND SWAP2 POP JUMPDEST PUSH1 0x20 DUP3 LT DUP2 SUB PUSH2 0xDD4 JUMPI PUSH2 0xDD3 PUSH2 0xD7D JUMP JUMPDEST JUMPDEST POP SWAP2 SWAP1 POP JUMP JUMPDEST PUSH0 DUP2 SWAP1 POP DUP2 PUSH0 MSTORE PUSH1 0x20 PUSH0 KECCAK256 SWAP1 POP SWAP2 SWAP1 POP JUMP JUMPDEST PUSH0 PUSH1 0x20 PUSH1 0x1F DUP4 ADD DIV SWAP1 POP SWAP2 SWAP1 POP JUMP JUMPDEST PUSH0 DUP3 DUP3 SHL SWAP1 POP SWAP3 SWAP2 POP POP JUMP JUMPDEST PUSH0 PUSH1 0x8 DUP4 MUL PUSH2 0xE36 PUSH32 0xFFFFFFFFFFFFFFFFFFFFFFFFFFFFFFFFFFFFFFFFFFFFFFFFFFFFFFFFFFFFFFFF DUP3 PUSH2 0xDFB JUMP JUMPDEST PUSH2 0xE40 DUP7 DUP4 PUSH2 0xDFB JUMP JUMPDEST SWAP6 POP DUP1 NOT DUP5 AND SWAP4 POP DUP1 DUP7 AND DUP5 OR SWAP3 POP POP POP SWAP4 SWAP3 POP POP POP JUMP JUMPDEST PUSH0 DUP2 SWAP1 POP SWAP2 SWAP1 POP JUMP JUMPDEST PUSH0 DUP2 SWAP1 POP SWAP2 SWAP1 POP JUMP JUMPDEST PUSH0 PUSH2 0xE84 PUSH2 0xE7F PUSH2 0xE7A DUP5 PUSH2 0xE58 JUMP JUMPDEST PUSH2 0xE61 JUMP JUMPDEST PUSH2 0xE58 JUMP JUMPDEST SWAP1 POP SWAP2 SWAP1 POP JUMP JUMPDEST PUSH0 DUP2 SWAP1 POP SWAP2 SWAP1 POP JUMP JUMPDEST PUSH2 0xE9D DUP4 PUSH2 0xE6A JUMP JUMPDEST PUSH2 0xEB1 PUSH2 0xEA9 DUP3 PUSH2 0xE8B JUMP JUMPDEST DUP5 DUP5 SLOAD PUSH2 0xE07 JUMP JUMPDEST DUP3 SSTORE POP POP POP POP JUMP JUMPDEST PUSH0 SWAP1 JUMP JUMPDEST PUSH2 0xEC5 PUSH2 0xEB9 JUMP JUMPDEST PUSH2 0xED0 DUP2 DUP5 DUP5 PUSH2 0xE94 JUMP JUMPDEST POP POP POP JUMP JUMPDEST JUMPDEST DUP2 DUP2 LT ISZERO PUSH2 0xEF3 JUMPI PUSH2 0xEE8 PUSH0 DUP3 PUSH2 0xEBD JUMP JUMPDEST PUSH1 0x1 DUP2 ADD SWAP1 POP PUSH2 0xED6 JUMP JUMPDEST POP POP JUMP JUMPDEST PUSH1 0x1F DUP3 GT ISZERO PUSH2 0xF38 JUMPI PUSH2 0xF09 DUP2 PUSH2 0xDDA JUMP JUMPDEST PUSH2 0xF12 DUP5 PUSH2 0xDEC JUMP JUMPDEST DUP2 ADD PUSH1 0x20 DUP6 LT ISZERO PUSH2 0xF21 JUMPI DUP2 SWAP1 POP JUMPDEST PUSH2 0xF35 PUSH2 0xF2D DUP6 PUSH2 0xDEC JUMP JUMPDEST DUP4 ADD DUP3 PUSH2 0xED5 JUMP JUMPDEST POP POP JUMPDEST POP POP POP JUMP JUMPDEST PUSH0 DUP3 DUP3 SHR SWAP1 POP SWAP3 SWAP2 POP POP JUMP JUMPDEST PUSH0 PUSH2 0xF58 PUSH0 NOT DUP5 PUSH1 0x8 MUL PUSH2 0xF3D JUMP JUMPDEST NOT DUP1 DUP4 AND SWAP2 POP POP SWAP3 SWAP2 POP POP JUMP JUMPDEST PUSH0 PUSH2 0xF70 DUP4 DUP4 PUSH2 0xF49 JUMP JUMPDEST SWAP2 POP DUP3 PUSH1 0x2 MUL DUP3 OR SWAP1 POP SWAP3 SWAP2 POP POP JUMP JUMPDEST PUSH2 0xF89 DUP3 PUSH2 0xC42 JUMP JUMPDEST PUSH8 0xFFFFFFFFFFFFFFFF DUP2 GT ISZERO PUSH2 0xFA2 JUMPI PUSH2 0xFA1 PUSH2 0x8B7 JUMP JUMPDEST JUMPDEST PUSH2 0xFAC DUP3 SLOAD PUSH2 0xDAA JUMP JUMPDEST PUSH2 0xFB7 DUP3 DUP3 DUP6 PUSH2 0xEF7 JUMP JUMPDEST PUSH0 PUSH1 0x20 SWAP1 POP PUSH1 0x1F DUP4 GT PUSH1 0x1 DUP2 EQ PUSH2 0xFE8 JUMPI PUSH0 DUP5 ISZERO PUSH2 0xFD6 JUMPI DUP3 DUP8 ADD MLOAD SWAP1 POP JUMPDEST PUSH2 0xFE0 DUP6 DUP3 PUSH2 0xF65 JUMP JUMPDEST DUP7 SSTORE POP PUSH2 0x1047 JUMP JUMPDEST PUSH1 0x1F NOT DUP5 AND PUSH2 0xFF6 DUP7 PUSH2 0xDDA JUMP JUMPDEST PUSH0 JUMPDEST DUP3 DUP2 LT ISZERO PUSH2 0x101D JUMPI DUP5 DUP10 ADD MLOAD DUP3 SSTORE PUSH1 0x1 DUP3 ADD SWAP2 POP PUSH1 0x20 DUP6 ADD SWAP5 POP PUSH1 0x20 DUP2 ADD SWAP1 POP PUSH2 0xFF8 JUMP JUMPDEST DUP7 DUP4 LT ISZERO PUSH2 0x103A JUMPI DUP5 DUP10 ADD MLOAD PUSH2 0x1036 PUSH1 0x1F DUP10 AND DUP3 PUSH2 0xF49 JUMP JUMPDEST DUP4 SSTORE POP JUMPDEST PUSH1 0x1 PUSH1 0x2 DUP9 MUL ADD DUP9 SSTORE POP POP POP JUMPDEST POP POP POP POP POP POP JUMP JUMPDEST PUSH0 DUP3 DUP3 MSTORE PUSH1 0x20 DUP3 ADD SWAP1 POP SWAP3 SWAP2 POP POP JUMP JUMPDEST PUSH32 0x54686973206973206120636F6E74726163742061646472657373210000000000 PUSH0 DUP3 ADD MSTORE POP JUMP JUMPDEST PUSH0 PUSH2 0x1093 PUSH1 0x1B DUP4 PUSH2 0x104F JUMP JUMPDEST SWAP2 POP PUSH2 0x109E DUP3 PUSH2 0x105F JUMP JUMPDEST PUSH1 0x20 DUP3 ADD SWAP1 POP SWAP2 SWAP1 POP JUMP JUMPDEST PUSH0 PUSH1 0x20 DUP3 ADD SWAP1 POP DUP2 DUP2 SUB PUSH0 DUP4 ADD MSTORE PUSH2 0x10C0 DUP2 PUSH2 0x1087 JUMP JUMPDEST SWAP1 POP SWAP2 SWAP1 POP JUMP JUMPDEST PUSH32 0x4E487B7100000000000000000000000000000000000000000000000000000000 PUSH0 MSTORE PUSH1 0x11 PUSH1 0x4 MSTORE PUSH1 0x24 PUSH0 REVERT JUMPDEST PUSH0 PUSH2 0x10FE DUP3 PUSH2 0xA35 JUMP JUMPDEST SWAP2 POP PUSH2 0x1109 DUP4 PUSH2 0xA35 JUMP JUMPDEST SWAP3 POP DUP3 DUP3 ADD SWAP1 POP PUSH8 0xFFFFFFFFFFFFFFFF DUP2 GT ISZERO PUSH2 0x1129 JUMPI PUSH2 0x1128 PUSH2 0x10C7 JUMP JUMPDEST JUMPDEST SWAP3 SWAP2 POP POP JUMP JUMPDEST PUSH32 0x5573657220646F6573206E6F7420657869737421000000000000000000000000 PUSH0 DUP3 ADD MSTORE POP JUMP JUMPDEST PUSH0 PUSH2 0x1163 PUSH1 0x14 DUP4 PUSH2 0x104F JUMP JUMPDEST SWAP2 POP PUSH2 0x116E DUP3 PUSH2 0x112F JUMP JUMPDEST PUSH1 0x20 DUP3 ADD SWAP1 POP SWAP2 SWAP1 POP JUMP JUMPDEST PUSH0 PUSH1 0x20 DUP3 ADD SWAP1 POP DUP2 DUP2 SUB PUSH0 DUP4 ADD MSTORE PUSH2 0x1190 DUP2 PUSH2 0x1157 JUMP JUMPDEST SWAP1 POP SWAP2 SWAP1 POP JUMP JUMPDEST PUSH0 PUSH2 0x11A1 DUP3 PUSH2 0xA35 JUMP JUMPDEST SWAP2 POP PUSH2 0x11AC DUP4 PUSH2 0xA35 JUMP JUMPDEST SWAP3 POP DUP3 DUP3 SUB SWAP1 POP PUSH8 0xFFFFFFFFFFFFFFFF DUP2 GT ISZERO PUSH2 0x11CC JUMPI PUSH2 0x11CB PUSH2 0x10C7 JUMP JUMPDEST JUMPDEST SWAP3 SWAP2 POP POP JUMP INVALID LOG2 PUSH5 0x6970667358 0x22 SLT KECCAK256 0xB4 0x4B GASLIMIT PUSH23 0x62465891D5C59583CEA6B9012913F12A9F06A19C491EF4 CALL 0xAC BLOCKHASH 0xED ADDRESS PUSH5 0x736F6C6343 STOP ADDMOD BYTE STOP CALLER "
		},
		"gasEstimates": {
			"creation": {
				"codeDepositCost": "923200",
				"executionCost": "49543",
				"totalCost": "972743"
			},
			"external": {
				"deposit(address,uint64)": "infinite",
				"getUserByUsername(string)": "infinite",
				"record(address)": "2876",
				"registerUser(string,address,uint64)": "infinite",
				"status()": "2605",
				"withdraw(address,uint64)": "infinite"
			},
			"internal": {
				"ContractAddr(address)": "2639"
			}
		},
		"methodIdentifiers": {
			"deposit(address,uint64)": "29664ac6",
			"getUserByUsername(string)": "9f42af63",
			"record(address)": "3465d6d5",
			"registerUser(string,address,uint64)": "11a712a0",
			"status()": "200d2ed2",
			"withdraw(address,uint64)": "d6dad060"
		}
	},
	"abi": [
		{
			"inputs": [
				{
					"internalType": "address",
					"name": "DepAddr",
					"type": "address"
				},
				{
					"internalType": "uint64",
					"name": "DepAmt",
					"type": "uint64"
				}
			],
			"name": "deposit",
			"outputs": [],
			"stateMutability": "nonpayable",
			"type": "function"
		},
		{
			"inputs": [
				{
					"internalType": "string",
					"name": "uname",
					"type": "string"
				}
			],
			"name": "getUserByUsername",
			"outputs": [
				{
					"components": [
						{
							"internalType": "string",
							"name": "uname",
							"type": "string"
						},
						{
							"internalType": "address",
							"name": "uaddress",
							"type": "address"
						},
						{
							"internalType": "uint64",
							"name": "balance",
							"type": "uint64"
						}
					],
					"internalType": "struct bank.User",
					"name": "",
					"type": "tuple"
				}
			],
			"stateMutability": "view",
			"type": "function"
		},
		{
			"inputs": [
				{
					"internalType": "address",
					"name": "",
					"type": "address"
				}
			],
			"name": "record",
			"outputs": [
				{
					"internalType": "uint64",
					"name": "",
					"type": "uint64"
				}
			],
			"stateMutability": "view",
			"type": "function"
		},
		{
			"inputs": [
				{
					"internalType": "string",
					"name": "uname",
					"type": "string"
				},
				{
					"internalType": "address",
					"name": "uaddress",
					"type": "address"
				},
				{
					"internalType": "uint64",
					"name": "balance",
					"type": "uint64"
				}
			],
			"name": "registerUser",
			"outputs": [],
			"stateMutability": "nonpayable",
			"type": "function"
		},
		{
			"inputs": [],
			"name": "status",
			"outputs": [
				{
					"internalType": "enum bank.Status",
					"name": "",
					"type": "uint8"
				}
			],
			"stateMutability": "view",
			"type": "function"
		},
		{
			"inputs": [
				{
					"internalType": "address",
					"name": "WithdAddr",
					"type": "address"
				},
				{
					"internalType": "uint64",
					"name": "WithdAmt",
					"type": "uint64"
				}
			],
			"name": "withdraw",
			"outputs": [],
			"stateMutability": "nonpayable",
			"type": "function"
		}
	]
}