{
	"data": {
		"bytecode": {
			"linkReferences": {},
			"object": "6080604052600280546001600160801b0319166f0de0b6b3a76400000001599ba503c0001790553480156030575f80fd5b5061090b8061003e5f395ff3fe608060405260043610610054575f3560e01c8063200d2ed2146100585780633465d6d51461008e5780633ccfd60b146100c7578063704f1b94146100d15780639f42af63146100f0578063d0e30db01461011c575b5f80fd5b348015610063575f80fd5b5060025461007890600160801b900460ff1681565b60405161008591906105b1565b60405180910390f35b348015610099575f80fd5b506100b96100a83660046105d7565b5f6020819052908152604090205481565b604051908152602001610085565b6100cf610124565b005b3480156100dc575f80fd5b506100cf6100eb366004610618565b61027c565b3480156100fb575f80fd5b5061010f61010a366004610618565b6102f7565b60405161008591906106cb565b6100cf610477565b333b156101785760405162461bcd60e51b815260206004820152601b60248201527f54686973206973206120636f6e7472616374206164647265737321000000000060448201526064015b60405180910390fd5b60025468010000000000000000900467ffffffffffffffff163410156102015760028054819060ff60801b1916600160801b8202179055505f805160206108b68339815191526040516101f49060208082526015908201527415da5d1a191c985dd85b0814dd58d8d95cdcd99d5b605a1b604082015260600190565b60405180910390a1610257565b6002805460ff60801b1916600160801b1790556040805160208082526011908201527015da5d1a191c985dd85b0811985a5b1959607a1b8183015290515f805160206108b6833981519152916060908290030190a15b335f908152602081905260408120805434929061027590849061073a565b9091555050565b604080516060810182528281523360208201525f8183015290516001906102a4908490610753565b908152604051908190036020019020815181906102c190826107e7565b5060208201516001820180546001600160a01b0319166001600160a01b0390921691909117905560409091015160029091015550565b6103226040518060600160405280606081526020015f6001600160a01b031681526020015f81525090565b815f6001600160a01b031660018260405161033d9190610753565b908152604051908190036020019020600101546001600160a01b0316036103985760405162461bcd60e51b815260206004820152600f60248201526e55736572206e6f7420466f756e642160881b604482015260640161016f565b6001836040516103a89190610753565b90815260200160405180910390206040518060600160405290815f820180546103d090610769565b80601f01602080910402602001604051908101604052809291908181526020018280546103fc90610769565b80156104475780601f1061041e57610100808354040283529160200191610447565b820191905f5260205f20905b81548152906001019060200180831161042a57829003601f168201915b505050918352505060018201546001600160a01b0316602082015260029091015460409091015291505b50919050565b333b156104c65760405162461bcd60e51b815260206004820152601b60248201527f54686973206973206120636f6e74726163742061646472657373210000000000604482015260640161016f565b60025467ffffffffffffffff163411156105405760028054819060ff60801b1916600160801b8202179055505f805160206108b68339815191526040516105339060208082526012908201527111195c1bdcda5d0814dd58d8d95cd99d5b1b60721b604082015260600190565b60405180910390a1610593565b6002805460ff60801b1916600160801b179055604080516020808252600e908201526d11195c1bdcda5d0811985a5b195960921b8183015290515f805160206108b6833981519152916060908290030190a15b335f90815260208190526040812080543492906102759084906108a2565b60208101600383106105d157634e487b7160e01b5f52602160045260245ffd5b91905290565b5f602082840312156105e7575f80fd5b81356001600160a01b03811681146105fd575f80fd5b9392505050565b634e487b7160e01b5f52604160045260245ffd5b5f60208284031215610628575f80fd5b813567ffffffffffffffff81111561063e575f80fd5b8201601f8101841361064e575f80fd5b803567ffffffffffffffff81111561066857610668610604565b604051601f8201601f19908116603f0116810167ffffffffffffffff8111828210171561069757610697610604565b6040528181528282016020018610156106ae575f80fd5b816020840160208301375f91810160200191909152949350505050565b602081525f8251606060208401528051806080850152806020830160a086015e5f60a0828601015260018060a01b0360208601511660408501526040850151606085015260a0601f19601f8301168501019250505092915050565b634e487b7160e01b5f52601160045260245ffd5b8181038181111561074d5761074d610726565b92915050565b5f82518060208501845e5f920191825250919050565b600181811c9082168061077d57607f821691505b60208210810361047157634e487b7160e01b5f52602260045260245ffd5b601f8211156107e257805f5260205f20601f840160051c810160208510156107c05750805b601f840160051c820191505b818110156107df575f81556001016107cc565b50505b505050565b815167ffffffffffffffff81111561080157610801610604565b6108158161080f8454610769565b8461079b565b6020601f821160018114610847575f83156108305750848201515b5f19600385901b1c1916600184901b1784556107df565b5f84815260208120601f198516915b828110156108765787850151825560209485019460019092019101610856565b508482101561089357868401515f19600387901b60f8161c191681555b50505050600190811b01905550565b8082018082111561074d5761074d61072656fe8ea85ee945a7934462d6233287a7a40596a6c51a9253cf0c75b4004ba17876e5a264697066735822122037b244decc832b11ebe2e4a87451f2b493bf7f9f2f65c92facb3748720de7e9f64736f6c634300081a0033",
			"opcodes": "PUSH1 0x80 PUSH1 0x40 MSTORE PUSH1 0x2 DUP1 SLOAD PUSH1 0x1 PUSH1 0x1 PUSH1 0x80 SHL SUB NOT AND PUSH16 0xDE0B6B3A76400000001599BA503C000 OR SWAP1 SSTORE CALLVALUE DUP1 ISZERO PUSH1 0x30 JUMPI PUSH0 DUP1 REVERT JUMPDEST POP PUSH2 0x90B DUP1 PUSH2 0x3E PUSH0 CODECOPY PUSH0 RETURN INVALID PUSH1 0x80 PUSH1 0x40 MSTORE PUSH1 0x4 CALLDATASIZE LT PUSH2 0x54 JUMPI PUSH0 CALLDATALOAD PUSH1 0xE0 SHR DUP1 PUSH4 0x200D2ED2 EQ PUSH2 0x58 JUMPI DUP1 PUSH4 0x3465D6D5 EQ PUSH2 0x8E JUMPI DUP1 PUSH4 0x3CCFD60B EQ PUSH2 0xC7 JUMPI DUP1 PUSH4 0x704F1B94 EQ PUSH2 0xD1 JUMPI DUP1 PUSH4 0x9F42AF63 EQ PUSH2 0xF0 JUMPI DUP1 PUSH4 0xD0E30DB0 EQ PUSH2 0x11C JUMPI JUMPDEST PUSH0 DUP1 REVERT JUMPDEST CALLVALUE DUP1 ISZERO PUSH2 0x63 JUMPI PUSH0 DUP1 REVERT JUMPDEST POP PUSH1 0x2 SLOAD PUSH2 0x78 SWAP1 PUSH1 0x1 PUSH1 0x80 SHL SWAP1 DIV PUSH1 0xFF AND DUP2 JUMP JUMPDEST PUSH1 0x40 MLOAD PUSH2 0x85 SWAP2 SWAP1 PUSH2 0x5B1 JUMP JUMPDEST PUSH1 0x40 MLOAD DUP1 SWAP2 SUB SWAP1 RETURN JUMPDEST CALLVALUE DUP1 ISZERO PUSH2 0x99 JUMPI PUSH0 DUP1 REVERT JUMPDEST POP PUSH2 0xB9 PUSH2 0xA8 CALLDATASIZE PUSH1 0x4 PUSH2 0x5D7 JUMP JUMPDEST PUSH0 PUSH1 0x20 DUP2 SWAP1 MSTORE SWAP1 DUP2 MSTORE PUSH1 0x40 SWAP1 KECCAK256 SLOAD DUP2 JUMP JUMPDEST PUSH1 0x40 MLOAD SWAP1 DUP2 MSTORE PUSH1 0x20 ADD PUSH2 0x85 JUMP JUMPDEST PUSH2 0xCF PUSH2 0x124 JUMP JUMPDEST STOP JUMPDEST CALLVALUE DUP1 ISZERO PUSH2 0xDC JUMPI PUSH0 DUP1 REVERT JUMPDEST POP PUSH2 0xCF PUSH2 0xEB CALLDATASIZE PUSH1 0x4 PUSH2 0x618 JUMP JUMPDEST PUSH2 0x27C JUMP JUMPDEST CALLVALUE DUP1 ISZERO PUSH2 0xFB JUMPI PUSH0 DUP1 REVERT JUMPDEST POP PUSH2 0x10F PUSH2 0x10A CALLDATASIZE PUSH1 0x4 PUSH2 0x618 JUMP JUMPDEST PUSH2 0x2F7 JUMP JUMPDEST PUSH1 0x40 MLOAD PUSH2 0x85 SWAP2 SWAP1 PUSH2 0x6CB JUMP JUMPDEST PUSH2 0xCF PUSH2 0x477 JUMP JUMPDEST CALLER EXTCODESIZE ISZERO PUSH2 0x178 JUMPI PUSH1 0x40 MLOAD PUSH3 0x461BCD PUSH1 0xE5 SHL DUP2 MSTORE PUSH1 0x20 PUSH1 0x4 DUP3 ADD MSTORE PUSH1 0x1B PUSH1 0x24 DUP3 ADD MSTORE PUSH32 0x54686973206973206120636F6E74726163742061646472657373210000000000 PUSH1 0x44 DUP3 ADD MSTORE PUSH1 0x64 ADD JUMPDEST PUSH1 0x40 MLOAD DUP1 SWAP2 SUB SWAP1 REVERT JUMPDEST PUSH1 0x2 SLOAD PUSH9 0x10000000000000000 SWAP1 DIV PUSH8 0xFFFFFFFFFFFFFFFF AND CALLVALUE LT ISZERO PUSH2 0x201 JUMPI PUSH1 0x2 DUP1 SLOAD DUP2 SWAP1 PUSH1 0xFF PUSH1 0x80 SHL NOT AND PUSH1 0x1 PUSH1 0x80 SHL DUP3 MUL OR SWAP1 SSTORE POP PUSH0 DUP1 MLOAD PUSH1 0x20 PUSH2 0x8B6 DUP4 CODECOPY DUP2 MLOAD SWAP2 MSTORE PUSH1 0x40 MLOAD PUSH2 0x1F4 SWAP1 PUSH1 0x20 DUP1 DUP3 MSTORE PUSH1 0x15 SWAP1 DUP3 ADD MSTORE PUSH21 0x15DA5D1A191C985DD85B0814DD58D8D95CDCD99D5B PUSH1 0x5A SHL PUSH1 0x40 DUP3 ADD MSTORE PUSH1 0x60 ADD SWAP1 JUMP JUMPDEST PUSH1 0x40 MLOAD DUP1 SWAP2 SUB SWAP1 LOG1 PUSH2 0x257 JUMP JUMPDEST PUSH1 0x2 DUP1 SLOAD PUSH1 0xFF PUSH1 0x80 SHL NOT AND PUSH1 0x1 PUSH1 0x80 SHL OR SWAP1 SSTORE PUSH1 0x40 DUP1 MLOAD PUSH1 0x20 DUP1 DUP3 MSTORE PUSH1 0x11 SWAP1 DUP3 ADD MSTORE PUSH17 0x15DA5D1A191C985DD85B0811985A5B1959 PUSH1 0x7A SHL DUP2 DUP4 ADD MSTORE SWAP1 MLOAD PUSH0 DUP1 MLOAD PUSH1 0x20 PUSH2 0x8B6 DUP4 CODECOPY DUP2 MLOAD SWAP2 MSTORE SWAP2 PUSH1 0x60 SWAP1 DUP3 SWAP1 SUB ADD SWAP1 LOG1 JUMPDEST CALLER PUSH0 SWAP1 DUP2 MSTORE PUSH1 0x20 DUP2 SWAP1 MSTORE PUSH1 0x40 DUP2 KECCAK256 DUP1 SLOAD CALLVALUE SWAP3 SWAP1 PUSH2 0x275 SWAP1 DUP5 SWAP1 PUSH2 0x73A JUMP JUMPDEST SWAP1 SWAP2 SSTORE POP POP JUMP JUMPDEST PUSH1 0x40 DUP1 MLOAD PUSH1 0x60 DUP2 ADD DUP3 MSTORE DUP3 DUP2 MSTORE CALLER PUSH1 0x20 DUP3 ADD MSTORE PUSH0 DUP2 DUP4 ADD MSTORE SWAP1 MLOAD PUSH1 0x1 SWAP1 PUSH2 0x2A4 SWAP1 DUP5 SWAP1 PUSH2 0x753 JUMP JUMPDEST SWAP1 DUP2 MSTORE PUSH1 0x40 MLOAD SWAP1 DUP2 SWAP1 SUB PUSH1 0x20 ADD SWAP1 KECCAK256 DUP2 MLOAD DUP2 SWAP1 PUSH2 0x2C1 SWAP1 DUP3 PUSH2 0x7E7 JUMP JUMPDEST POP PUSH1 0x20 DUP3 ADD MLOAD PUSH1 0x1 DUP3 ADD DUP1 SLOAD PUSH1 0x1 PUSH1 0x1 PUSH1 0xA0 SHL SUB NOT AND PUSH1 0x1 PUSH1 0x1 PUSH1 0xA0 SHL SUB SWAP1 SWAP3 AND SWAP2 SWAP1 SWAP2 OR SWAP1 SSTORE PUSH1 0x40 SWAP1 SWAP2 ADD MLOAD PUSH1 0x2 SWAP1 SWAP2 ADD SSTORE POP JUMP JUMPDEST PUSH2 0x322 PUSH1 0x40 MLOAD DUP1 PUSH1 0x60 ADD PUSH1 0x40 MSTORE DUP1 PUSH1 0x60 DUP2 MSTORE PUSH1 0x20 ADD PUSH0 PUSH1 0x1 PUSH1 0x1 PUSH1 0xA0 SHL SUB AND DUP2 MSTORE PUSH1 0x20 ADD PUSH0 DUP2 MSTORE POP SWAP1 JUMP JUMPDEST DUP2 PUSH0 PUSH1 0x1 PUSH1 0x1 PUSH1 0xA0 SHL SUB AND PUSH1 0x1 DUP3 PUSH1 0x40 MLOAD PUSH2 0x33D SWAP2 SWAP1 PUSH2 0x753 JUMP JUMPDEST SWAP1 DUP2 MSTORE PUSH1 0x40 MLOAD SWAP1 DUP2 SWAP1 SUB PUSH1 0x20 ADD SWAP1 KECCAK256 PUSH1 0x1 ADD SLOAD PUSH1 0x1 PUSH1 0x1 PUSH1 0xA0 SHL SUB AND SUB PUSH2 0x398 JUMPI PUSH1 0x40 MLOAD PUSH3 0x461BCD PUSH1 0xE5 SHL DUP2 MSTORE PUSH1 0x20 PUSH1 0x4 DUP3 ADD MSTORE PUSH1 0xF PUSH1 0x24 DUP3 ADD MSTORE PUSH15 0x55736572206E6F7420466F756E6421 PUSH1 0x88 SHL PUSH1 0x44 DUP3 ADD MSTORE PUSH1 0x64 ADD PUSH2 0x16F JUMP JUMPDEST PUSH1 0x1 DUP4 PUSH1 0x40 MLOAD PUSH2 0x3A8 SWAP2 SWAP1 PUSH2 0x753 JUMP JUMPDEST SWAP1 DUP2 MSTORE PUSH1 0x20 ADD PUSH1 0x40 MLOAD DUP1 SWAP2 SUB SWAP1 KECCAK256 PUSH1 0x40 MLOAD DUP1 PUSH1 0x60 ADD PUSH1 0x40 MSTORE SWAP1 DUP2 PUSH0 DUP3 ADD DUP1 SLOAD PUSH2 0x3D0 SWAP1 PUSH2 0x769 JUMP JUMPDEST DUP1 PUSH1 0x1F ADD PUSH1 0x20 DUP1 SWAP2 DIV MUL PUSH1 0x20 ADD PUSH1 0x40 MLOAD SWAP1 DUP2 ADD PUSH1 0x40 MSTORE DUP1 SWAP3 SWAP2 SWAP1 DUP2 DUP2 MSTORE PUSH1 0x20 ADD DUP3 DUP1 SLOAD PUSH2 0x3FC SWAP1 PUSH2 0x769 JUMP JUMPDEST DUP1 ISZERO PUSH2 0x447 JUMPI DUP1 PUSH1 0x1F LT PUSH2 0x41E JUMPI PUSH2 0x100 DUP1 DUP4 SLOAD DIV MUL DUP4 MSTORE SWAP2 PUSH1 0x20 ADD SWAP2 PUSH2 0x447 JUMP JUMPDEST DUP3 ADD SWAP2 SWAP1 PUSH0 MSTORE PUSH1 0x20 PUSH0 KECCAK256 SWAP1 JUMPDEST DUP2 SLOAD DUP2 MSTORE SWAP1 PUSH1 0x1 ADD SWAP1 PUSH1 0x20 ADD DUP1 DUP4 GT PUSH2 0x42A JUMPI DUP3 SWAP1 SUB PUSH1 0x1F AND DUP3 ADD SWAP2 JUMPDEST POP POP POP SWAP2 DUP4 MSTORE POP POP PUSH1 0x1 DUP3 ADD SLOAD PUSH1 0x1 PUSH1 0x1 PUSH1 0xA0 SHL SUB AND PUSH1 0x20 DUP3 ADD MSTORE PUSH1 0x2 SWAP1 SWAP2 ADD SLOAD PUSH1 0x40 SWAP1 SWAP2 ADD MSTORE SWAP2 POP JUMPDEST POP SWAP2 SWAP1 POP JUMP JUMPDEST CALLER EXTCODESIZE ISZERO PUSH2 0x4C6 JUMPI PUSH1 0x40 MLOAD PUSH3 0x461BCD PUSH1 0xE5 SHL DUP2 MSTORE PUSH1 0x20 PUSH1 0x4 DUP3 ADD MSTORE PUSH1 0x1B PUSH1 0x24 DUP3 ADD MSTORE PUSH32 0x54686973206973206120636F6E74726163742061646472657373210000000000 PUSH1 0x44 DUP3 ADD MSTORE PUSH1 0x64 ADD PUSH2 0x16F JUMP JUMPDEST PUSH1 0x2 SLOAD PUSH8 0xFFFFFFFFFFFFFFFF AND CALLVALUE GT ISZERO PUSH2 0x540 JUMPI PUSH1 0x2 DUP1 SLOAD DUP2 SWAP1 PUSH1 0xFF PUSH1 0x80 SHL NOT AND PUSH1 0x1 PUSH1 0x80 SHL DUP3 MUL OR SWAP1 SSTORE POP PUSH0 DUP1 MLOAD PUSH1 0x20 PUSH2 0x8B6 DUP4 CODECOPY DUP2 MLOAD SWAP2 MSTORE PUSH1 0x40 MLOAD PUSH2 0x533 SWAP1 PUSH1 0x20 DUP1 DUP3 MSTORE PUSH1 0x12 SWAP1 DUP3 ADD MSTORE PUSH18 0x11195C1BDCDA5D0814DD58D8D95CD99D5B1B PUSH1 0x72 SHL PUSH1 0x40 DUP3 ADD MSTORE PUSH1 0x60 ADD SWAP1 JUMP JUMPDEST PUSH1 0x40 MLOAD DUP1 SWAP2 SUB SWAP1 LOG1 PUSH2 0x593 JUMP JUMPDEST PUSH1 0x2 DUP1 SLOAD PUSH1 0xFF PUSH1 0x80 SHL NOT AND PUSH1 0x1 PUSH1 0x80 SHL OR SWAP1 SSTORE PUSH1 0x40 DUP1 MLOAD PUSH1 0x20 DUP1 DUP3 MSTORE PUSH1 0xE SWAP1 DUP3 ADD MSTORE PUSH14 0x11195C1BDCDA5D0811985A5B1959 PUSH1 0x92 SHL DUP2 DUP4 ADD MSTORE SWAP1 MLOAD PUSH0 DUP1 MLOAD PUSH1 0x20 PUSH2 0x8B6 DUP4 CODECOPY DUP2 MLOAD SWAP2 MSTORE SWAP2 PUSH1 0x60 SWAP1 DUP3 SWAP1 SUB ADD SWAP1 LOG1 JUMPDEST CALLER PUSH0 SWAP1 DUP2 MSTORE PUSH1 0x20 DUP2 SWAP1 MSTORE PUSH1 0x40 DUP2 KECCAK256 DUP1 SLOAD CALLVALUE SWAP3 SWAP1 PUSH2 0x275 SWAP1 DUP5 SWAP1 PUSH2 0x8A2 JUMP JUMPDEST PUSH1 0x20 DUP2 ADD PUSH1 0x3 DUP4 LT PUSH2 0x5D1 JUMPI PUSH4 0x4E487B71 PUSH1 0xE0 SHL PUSH0 MSTORE PUSH1 0x21 PUSH1 0x4 MSTORE PUSH1 0x24 PUSH0 REVERT JUMPDEST SWAP2 SWAP1 MSTORE SWAP1 JUMP JUMPDEST PUSH0 PUSH1 0x20 DUP3 DUP5 SUB SLT ISZERO PUSH2 0x5E7 JUMPI PUSH0 DUP1 REVERT JUMPDEST DUP2 CALLDATALOAD PUSH1 0x1 PUSH1 0x1 PUSH1 0xA0 SHL SUB DUP2 AND DUP2 EQ PUSH2 0x5FD JUMPI PUSH0 DUP1 REVERT JUMPDEST SWAP4 SWAP3 POP POP POP JUMP JUMPDEST PUSH4 0x4E487B71 PUSH1 0xE0 SHL PUSH0 MSTORE PUSH1 0x41 PUSH1 0x4 MSTORE PUSH1 0x24 PUSH0 REVERT JUMPDEST PUSH0 PUSH1 0x20 DUP3 DUP5 SUB SLT ISZERO PUSH2 0x628 JUMPI PUSH0 DUP1 REVERT JUMPDEST DUP2 CALLDATALOAD PUSH8 0xFFFFFFFFFFFFFFFF DUP2 GT ISZERO PUSH2 0x63E JUMPI PUSH0 DUP1 REVERT JUMPDEST DUP3 ADD PUSH1 0x1F DUP2 ADD DUP5 SGT PUSH2 0x64E JUMPI PUSH0 DUP1 REVERT JUMPDEST DUP1 CALLDATALOAD PUSH8 0xFFFFFFFFFFFFFFFF DUP2 GT ISZERO PUSH2 0x668 JUMPI PUSH2 0x668 PUSH2 0x604 JUMP JUMPDEST PUSH1 0x40 MLOAD PUSH1 0x1F DUP3 ADD PUSH1 0x1F NOT SWAP1 DUP2 AND PUSH1 0x3F ADD AND DUP2 ADD PUSH8 0xFFFFFFFFFFFFFFFF DUP2 GT DUP3 DUP3 LT OR ISZERO PUSH2 0x697 JUMPI PUSH2 0x697 PUSH2 0x604 JUMP JUMPDEST PUSH1 0x40 MSTORE DUP2 DUP2 MSTORE DUP3 DUP3 ADD PUSH1 0x20 ADD DUP7 LT ISZERO PUSH2 0x6AE JUMPI PUSH0 DUP1 REVERT JUMPDEST DUP2 PUSH1 0x20 DUP5 ADD PUSH1 0x20 DUP4 ADD CALLDATACOPY PUSH0 SWAP2 DUP2 ADD PUSH1 0x20 ADD SWAP2 SWAP1 SWAP2 MSTORE SWAP5 SWAP4 POP POP POP POP JUMP JUMPDEST PUSH1 0x20 DUP2 MSTORE PUSH0 DUP3 MLOAD PUSH1 0x60 PUSH1 0x20 DUP5 ADD MSTORE DUP1 MLOAD DUP1 PUSH1 0x80 DUP6 ADD MSTORE DUP1 PUSH1 0x20 DUP4 ADD PUSH1 0xA0 DUP7 ADD MCOPY PUSH0 PUSH1 0xA0 DUP3 DUP7 ADD ADD MSTORE PUSH1 0x1 DUP1 PUSH1 0xA0 SHL SUB PUSH1 0x20 DUP7 ADD MLOAD AND PUSH1 0x40 DUP6 ADD MSTORE PUSH1 0x40 DUP6 ADD MLOAD PUSH1 0x60 DUP6 ADD MSTORE PUSH1 0xA0 PUSH1 0x1F NOT PUSH1 0x1F DUP4 ADD AND DUP6 ADD ADD SWAP3 POP POP POP SWAP3 SWAP2 POP POP JUMP JUMPDEST PUSH4 0x4E487B71 PUSH1 0xE0 SHL PUSH0 MSTORE PUSH1 0x11 PUSH1 0x4 MSTORE PUSH1 0x24 PUSH0 REVERT JUMPDEST DUP2 DUP2 SUB DUP2 DUP2 GT ISZERO PUSH2 0x74D JUMPI PUSH2 0x74D PUSH2 0x726 JUMP JUMPDEST SWAP3 SWAP2 POP POP JUMP JUMPDEST PUSH0 DUP3 MLOAD DUP1 PUSH1 0x20 DUP6 ADD DUP5 MCOPY PUSH0 SWAP3 ADD SWAP2 DUP3 MSTORE POP SWAP2 SWAP1 POP JUMP JUMPDEST PUSH1 0x1 DUP2 DUP2 SHR SWAP1 DUP3 AND DUP1 PUSH2 0x77D JUMPI PUSH1 0x7F DUP3 AND SWAP2 POP JUMPDEST PUSH1 0x20 DUP3 LT DUP2 SUB PUSH2 0x471 JUMPI PUSH4 0x4E487B71 PUSH1 0xE0 SHL PUSH0 MSTORE PUSH1 0x22 PUSH1 0x4 MSTORE PUSH1 0x24 PUSH0 REVERT JUMPDEST PUSH1 0x1F DUP3 GT ISZERO PUSH2 0x7E2 JUMPI DUP1 PUSH0 MSTORE PUSH1 0x20 PUSH0 KECCAK256 PUSH1 0x1F DUP5 ADD PUSH1 0x5 SHR DUP2 ADD PUSH1 0x20 DUP6 LT ISZERO PUSH2 0x7C0 JUMPI POP DUP1 JUMPDEST PUSH1 0x1F DUP5 ADD PUSH1 0x5 SHR DUP3 ADD SWAP2 POP JUMPDEST DUP2 DUP2 LT ISZERO PUSH2 0x7DF JUMPI PUSH0 DUP2 SSTORE PUSH1 0x1 ADD PUSH2 0x7CC JUMP JUMPDEST POP POP JUMPDEST POP POP POP JUMP JUMPDEST DUP2 MLOAD PUSH8 0xFFFFFFFFFFFFFFFF DUP2 GT ISZERO PUSH2 0x801 JUMPI PUSH2 0x801 PUSH2 0x604 JUMP JUMPDEST PUSH2 0x815 DUP2 PUSH2 0x80F DUP5 SLOAD PUSH2 0x769 JUMP JUMPDEST DUP5 PUSH2 0x79B JUMP JUMPDEST PUSH1 0x20 PUSH1 0x1F DUP3 GT PUSH1 0x1 DUP2 EQ PUSH2 0x847 JUMPI PUSH0 DUP4 ISZERO PUSH2 0x830 JUMPI POP DUP5 DUP3 ADD MLOAD JUMPDEST PUSH0 NOT PUSH1 0x3 DUP6 SWAP1 SHL SHR NOT AND PUSH1 0x1 DUP5 SWAP1 SHL OR DUP5 SSTORE PUSH2 0x7DF JUMP JUMPDEST PUSH0 DUP5 DUP2 MSTORE PUSH1 0x20 DUP2 KECCAK256 PUSH1 0x1F NOT DUP6 AND SWAP2 JUMPDEST DUP3 DUP2 LT ISZERO PUSH2 0x876 JUMPI DUP8 DUP6 ADD MLOAD DUP3 SSTORE PUSH1 0x20 SWAP5 DUP6 ADD SWAP5 PUSH1 0x1 SWAP1 SWAP3 ADD SWAP2 ADD PUSH2 0x856 JUMP JUMPDEST POP DUP5 DUP3 LT ISZERO PUSH2 0x893 JUMPI DUP7 DUP5 ADD MLOAD PUSH0 NOT PUSH1 0x3 DUP8 SWAP1 SHL PUSH1 0xF8 AND SHR NOT AND DUP2 SSTORE JUMPDEST POP POP POP POP PUSH1 0x1 SWAP1 DUP2 SHL ADD SWAP1 SSTORE POP JUMP JUMPDEST DUP1 DUP3 ADD DUP1 DUP3 GT ISZERO PUSH2 0x74D JUMPI PUSH2 0x74D PUSH2 0x726 JUMP INVALID DUP15 0xA8 MCOPY 0xE9 GASLIMIT 0xA7 SWAP4 PREVRANDAO PUSH3 0xD62332 DUP8 0xA7 LOG4 SDIV SWAP7 0xA6 0xC5 BYTE SWAP3 MSTORE8 0xCF 0xC PUSH22 0xB4004BA17876E5A264697066735822122037B244DECC DUP4 0x2B GT 0xEB 0xE2 0xE4 0xA8 PUSH21 0x51F2B493BF7F9F2F65C92FACB3748720DE7E9F6473 PUSH16 0x6C634300081A00330000000000000000 "
		},
		"gasEstimates": {
			"creation": {
				"codeDepositCost": "463000",
				"executionCost": "24733",
				"totalCost": "487733"
			},
			"external": {
				"deposit()": "infinite",
				"getUserByUsername(string)": "infinite",
				"record(address)": "2484",
				"registerUser(string)": "infinite",
				"status()": "2345",
				"withdraw()": "infinite"
			},
			"internal": {
				"ContractAddr()": "infinite"
			}
		},
		"methodIdentifiers": {
			"deposit()": "d0e30db0",
			"getUserByUsername(string)": "9f42af63",
			"record(address)": "3465d6d5",
			"registerUser(string)": "704f1b94",
			"status()": "200d2ed2",
			"withdraw()": "3ccfd60b"
		}
	},
	"abi": [
		{
			"anonymous": false,
			"inputs": [
				{
					"indexed": false,
					"internalType": "string",
					"name": "message",
					"type": "string"
				}
			],
			"name": "DepositWithdrawError",
			"type": "event"
		},
		{
			"inputs": [],
			"name": "deposit",
			"outputs": [],
			"stateMutability": "payable",
			"type": "function"
		},
		{
			"inputs": [
				{
					"internalType": "string",
					"name": "uname",
					"type": "string"
				}
			],
			"name": "getUserByUsername",
			"outputs": [
				{
					"components": [
						{
							"internalType": "string",
							"name": "uname",
							"type": "string"
						},
						{
							"internalType": "address",
							"name": "uaddress",
							"type": "address"
						},
						{
							"internalType": "uint256",
							"name": "balance",
							"type": "uint256"
						}
					],
					"internalType": "struct bank.User",
					"name": "",
					"type": "tuple"
				}
			],
			"stateMutability": "view",
			"type": "function"
		},
		{
			"inputs": [
				{
					"internalType": "address",
					"name": "",
					"type": "address"
				}
			],
			"name": "record",
			"outputs": [
				{
					"internalType": "uint256",
					"name": "",
					"type": "uint256"
				}
			],
			"stateMutability": "view",
			"type": "function"
		},
		{
			"inputs": [
				{
					"internalType": "string",
					"name": "uname",
					"type": "string"
				}
			],
			"name": "registerUser",
			"outputs": [],
			"stateMutability": "nonpayable",
			"type": "function"
		},
		{
			"inputs": [],
			"name": "status",
			"outputs": [
				{
					"internalType": "enum bank.Status",
					"name": "",
					"type": "uint8"
				}
			],
			"stateMutability": "view",
			"type": "function"
		},
		{
			"inputs": [],
			"name": "withdraw",
			"outputs": [],
			"stateMutability": "payable",
			"type": "function"
		}
	]
}