{
	"data": {
		"bytecode": {
			"linkReferences": {},
			"object": "6080604052348015600e575f80fd5b506104208061001c5f395ff3fe608060405234801561000f575f80fd5b5060043610610029575f3560e01c8063a92100cb1461002d575b5f80fd5b61003561004b565b6040516100429190610285565b60405180910390f35b60605f5b6001811161009d57610060816100f1565b61008a575f81908060018154018082558091505060019003905f5260205f20015f90919091909150555b8080610095906102d2565b91505061004f565b5f8054806020026020016040519081016040528092919081815260200182805480156100e657602002820191905f5260205f20905b8154815260200190600101908083116100d2575b505050505091505090565b5f60018211610102575f90506101c0565b60028214806101115750600382145b1561011f57600190506101c0565b5f60028361012d9190610346565b148061014457505f6003836101429190610346565b145b15610151575f90506101c0565b5f600590505b8281826101649190610376565b116101ba575f81846101769190610346565b148061019857505f60028261018b91906103b7565b846101969190610346565b145b156101a6575f9150506101c0565b6006816101b391906103b7565b9050610157565b50600190505b919050565b5f81519050919050565b5f82825260208201905092915050565b5f819050602082019050919050565b5f819050919050565b610200816101ee565b82525050565b5f61021183836101f7565b60208301905092915050565b5f602082019050919050565b5f610233826101c5565b61023d81856101cf565b9350610248836101df565b805f5b8381101561027857815161025f8882610206565b975061026a8361021d565b92505060018101905061024b565b5085935050505092915050565b5f6020820190508181035f83015261029d8184610229565b905092915050565b7f4e487b71000000000000000000000000000000000000000000000000000000005f52601160045260245ffd5b5f6102dc826101ee565b91507fffffffffffffffffffffffffffffffffffffffffffffffffffffffffffffffff820361030e5761030d6102a5565b5b600182019050919050565b7f4e487b71000000000000000000000000000000000000000000000000000000005f52601260045260245ffd5b5f610350826101ee565b915061035b836101ee565b92508261036b5761036a610319565b5b828206905092915050565b5f610380826101ee565b915061038b836101ee565b9250828202610399816101ee565b915082820484148315176103b0576103af6102a5565b5b5092915050565b5f6103c1826101ee565b91506103cc836101ee565b92508282019050808211156103e4576103e36102a5565b5b9291505056fea264697066735822122087494323fa8236f7923fbecb6097e5867ef22ff7b1b64d9af5e560678279313064736f6c634300081a0033",
			"opcodes": "PUSH1 0x80 PUSH1 0x40 MSTORE CALLVALUE DUP1 ISZERO PUSH1 0xE JUMPI PUSH0 DUP1 REVERT JUMPDEST POP PUSH2 0x420 DUP1 PUSH2 0x1C PUSH0 CODECOPY PUSH0 RETURN INVALID PUSH1 0x80 PUSH1 0x40 MSTORE CALLVALUE DUP1 ISZERO PUSH2 0xF JUMPI PUSH0 DUP1 REVERT JUMPDEST POP PUSH1 0x4 CALLDATASIZE LT PUSH2 0x29 JUMPI PUSH0 CALLDATALOAD PUSH1 0xE0 SHR DUP1 PUSH4 0xA92100CB EQ PUSH2 0x2D JUMPI JUMPDEST PUSH0 DUP1 REVERT JUMPDEST PUSH2 0x35 PUSH2 0x4B JUMP JUMPDEST PUSH1 0x40 MLOAD PUSH2 0x42 SWAP2 SWAP1 PUSH2 0x285 JUMP JUMPDEST PUSH1 0x40 MLOAD DUP1 SWAP2 SUB SWAP1 RETURN JUMPDEST PUSH1 0x60 PUSH0 JUMPDEST PUSH1 0x1 DUP2 GT PUSH2 0x9D JUMPI PUSH2 0x60 DUP2 PUSH2 0xF1 JUMP JUMPDEST PUSH2 0x8A JUMPI PUSH0 DUP2 SWAP1 DUP1 PUSH1 0x1 DUP2 SLOAD ADD DUP1 DUP3 SSTORE DUP1 SWAP2 POP POP PUSH1 0x1 SWAP1 SUB SWAP1 PUSH0 MSTORE PUSH1 0x20 PUSH0 KECCAK256 ADD PUSH0 SWAP1 SWAP2 SWAP1 SWAP2 SWAP1 SWAP2 POP SSTORE JUMPDEST DUP1 DUP1 PUSH2 0x95 SWAP1 PUSH2 0x2D2 JUMP JUMPDEST SWAP2 POP POP PUSH2 0x4F JUMP JUMPDEST PUSH0 DUP1 SLOAD DUP1 PUSH1 0x20 MUL PUSH1 0x20 ADD PUSH1 0x40 MLOAD SWAP1 DUP2 ADD PUSH1 0x40 MSTORE DUP1 SWAP3 SWAP2 SWAP1 DUP2 DUP2 MSTORE PUSH1 0x20 ADD DUP3 DUP1 SLOAD DUP1 ISZERO PUSH2 0xE6 JUMPI PUSH1 0x20 MUL DUP3 ADD SWAP2 SWAP1 PUSH0 MSTORE PUSH1 0x20 PUSH0 KECCAK256 SWAP1 JUMPDEST DUP2 SLOAD DUP2 MSTORE PUSH1 0x20 ADD SWAP1 PUSH1 0x1 ADD SWAP1 DUP1 DUP4 GT PUSH2 0xD2 JUMPI JUMPDEST POP POP POP POP POP SWAP2 POP POP SWAP1 JUMP JUMPDEST PUSH0 PUSH1 0x1 DUP3 GT PUSH2 0x102 JUMPI PUSH0 SWAP1 POP PUSH2 0x1C0 JUMP JUMPDEST PUSH1 0x2 DUP3 EQ DUP1 PUSH2 0x111 JUMPI POP PUSH1 0x3 DUP3 EQ JUMPDEST ISZERO PUSH2 0x11F JUMPI PUSH1 0x1 SWAP1 POP PUSH2 0x1C0 JUMP JUMPDEST PUSH0 PUSH1 0x2 DUP4 PUSH2 0x12D SWAP2 SWAP1 PUSH2 0x346 JUMP JUMPDEST EQ DUP1 PUSH2 0x144 JUMPI POP PUSH0 PUSH1 0x3 DUP4 PUSH2 0x142 SWAP2 SWAP1 PUSH2 0x346 JUMP JUMPDEST EQ JUMPDEST ISZERO PUSH2 0x151 JUMPI PUSH0 SWAP1 POP PUSH2 0x1C0 JUMP JUMPDEST PUSH0 PUSH1 0x5 SWAP1 POP JUMPDEST DUP3 DUP2 DUP3 PUSH2 0x164 SWAP2 SWAP1 PUSH2 0x376 JUMP JUMPDEST GT PUSH2 0x1BA JUMPI PUSH0 DUP2 DUP5 PUSH2 0x176 SWAP2 SWAP1 PUSH2 0x346 JUMP JUMPDEST EQ DUP1 PUSH2 0x198 JUMPI POP PUSH0 PUSH1 0x2 DUP3 PUSH2 0x18B SWAP2 SWAP1 PUSH2 0x3B7 JUMP JUMPDEST DUP5 PUSH2 0x196 SWAP2 SWAP1 PUSH2 0x346 JUMP JUMPDEST EQ JUMPDEST ISZERO PUSH2 0x1A6 JUMPI PUSH0 SWAP2 POP POP PUSH2 0x1C0 JUMP JUMPDEST PUSH1 0x6 DUP2 PUSH2 0x1B3 SWAP2 SWAP1 PUSH2 0x3B7 JUMP JUMPDEST SWAP1 POP PUSH2 0x157 JUMP JUMPDEST POP PUSH1 0x1 SWAP1 POP JUMPDEST SWAP2 SWAP1 POP JUMP JUMPDEST PUSH0 DUP2 MLOAD SWAP1 POP SWAP2 SWAP1 POP JUMP JUMPDEST PUSH0 DUP3 DUP3 MSTORE PUSH1 0x20 DUP3 ADD SWAP1 POP SWAP3 SWAP2 POP POP JUMP JUMPDEST PUSH0 DUP2 SWAP1 POP PUSH1 0x20 DUP3 ADD SWAP1 POP SWAP2 SWAP1 POP JUMP JUMPDEST PUSH0 DUP2 SWAP1 POP SWAP2 SWAP1 POP JUMP JUMPDEST PUSH2 0x200 DUP2 PUSH2 0x1EE JUMP JUMPDEST DUP3 MSTORE POP POP JUMP JUMPDEST PUSH0 PUSH2 0x211 DUP4 DUP4 PUSH2 0x1F7 JUMP JUMPDEST PUSH1 0x20 DUP4 ADD SWAP1 POP SWAP3 SWAP2 POP POP JUMP JUMPDEST PUSH0 PUSH1 0x20 DUP3 ADD SWAP1 POP SWAP2 SWAP1 POP JUMP JUMPDEST PUSH0 PUSH2 0x233 DUP3 PUSH2 0x1C5 JUMP JUMPDEST PUSH2 0x23D DUP2 DUP6 PUSH2 0x1CF JUMP JUMPDEST SWAP4 POP PUSH2 0x248 DUP4 PUSH2 0x1DF JUMP JUMPDEST DUP1 PUSH0 JUMPDEST DUP4 DUP2 LT ISZERO PUSH2 0x278 JUMPI DUP2 MLOAD PUSH2 0x25F DUP9 DUP3 PUSH2 0x206 JUMP JUMPDEST SWAP8 POP PUSH2 0x26A DUP4 PUSH2 0x21D JUMP JUMPDEST SWAP3 POP POP PUSH1 0x1 DUP2 ADD SWAP1 POP PUSH2 0x24B JUMP JUMPDEST POP DUP6 SWAP4 POP POP POP POP SWAP3 SWAP2 POP POP JUMP JUMPDEST PUSH0 PUSH1 0x20 DUP3 ADD SWAP1 POP DUP2 DUP2 SUB PUSH0 DUP4 ADD MSTORE PUSH2 0x29D DUP2 DUP5 PUSH2 0x229 JUMP JUMPDEST SWAP1 POP SWAP3 SWAP2 POP POP JUMP JUMPDEST PUSH32 0x4E487B7100000000000000000000000000000000000000000000000000000000 PUSH0 MSTORE PUSH1 0x11 PUSH1 0x4 MSTORE PUSH1 0x24 PUSH0 REVERT JUMPDEST PUSH0 PUSH2 0x2DC DUP3 PUSH2 0x1EE JUMP JUMPDEST SWAP2 POP PUSH32 0xFFFFFFFFFFFFFFFFFFFFFFFFFFFFFFFFFFFFFFFFFFFFFFFFFFFFFFFFFFFFFFFF DUP3 SUB PUSH2 0x30E JUMPI PUSH2 0x30D PUSH2 0x2A5 JUMP JUMPDEST JUMPDEST PUSH1 0x1 DUP3 ADD SWAP1 POP SWAP2 SWAP1 POP JUMP JUMPDEST PUSH32 0x4E487B7100000000000000000000000000000000000000000000000000000000 PUSH0 MSTORE PUSH1 0x12 PUSH1 0x4 MSTORE PUSH1 0x24 PUSH0 REVERT JUMPDEST PUSH0 PUSH2 0x350 DUP3 PUSH2 0x1EE JUMP JUMPDEST SWAP2 POP PUSH2 0x35B DUP4 PUSH2 0x1EE JUMP JUMPDEST SWAP3 POP DUP3 PUSH2 0x36B JUMPI PUSH2 0x36A PUSH2 0x319 JUMP JUMPDEST JUMPDEST DUP3 DUP3 MOD SWAP1 POP SWAP3 SWAP2 POP POP JUMP JUMPDEST PUSH0 PUSH2 0x380 DUP3 PUSH2 0x1EE JUMP JUMPDEST SWAP2 POP PUSH2 0x38B DUP4 PUSH2 0x1EE JUMP JUMPDEST SWAP3 POP DUP3 DUP3 MUL PUSH2 0x399 DUP2 PUSH2 0x1EE JUMP JUMPDEST SWAP2 POP DUP3 DUP3 DIV DUP5 EQ DUP4 ISZERO OR PUSH2 0x3B0 JUMPI PUSH2 0x3AF PUSH2 0x2A5 JUMP JUMPDEST JUMPDEST POP SWAP3 SWAP2 POP POP JUMP JUMPDEST PUSH0 PUSH2 0x3C1 DUP3 PUSH2 0x1EE JUMP JUMPDEST SWAP2 POP PUSH2 0x3CC DUP4 PUSH2 0x1EE JUMP JUMPDEST SWAP3 POP DUP3 DUP3 ADD SWAP1 POP DUP1 DUP3 GT ISZERO PUSH2 0x3E4 JUMPI PUSH2 0x3E3 PUSH2 0x2A5 JUMP JUMPDEST JUMPDEST SWAP3 SWAP2 POP POP JUMP INVALID LOG2 PUSH5 0x6970667358 0x22 SLT KECCAK256 DUP8 BLOBHASH NUMBER 0x23 STATICCALL DUP3 CALLDATASIZE 0xF7 SWAP3 EXTCODEHASH 0xBE 0xCB PUSH1 0x97 0xE5 DUP7 PUSH31 0xF22FF7B1B64D9AF5E560678279313064736F6C634300081A00330000000000 "
		},
		"gasEstimates": {
			"creation": {
				"codeDepositCost": "211200",
				"executionCost": "249",
				"totalCost": "211449"
			},
			"external": {
				"loop()": "infinite"
			},
			"internal": {
				"isPrime(uint256)": "infinite"
			}
		},
		"methodIdentifiers": {
			"loop()": "a92100cb"
		}
	},
	"abi": [
		{
			"inputs": [],
			"name": "loop",
			"outputs": [
				{
					"internalType": "uint256[]",
					"name": "",
					"type": "uint256[]"
				}
			],
			"stateMutability": "nonpayable",
			"type": "function"
		}
	]
}